{
  "address": "0x8198f5d8F8CfFE8f9C413d98a0A55aEB8ab9FbB7",
  "abi": [
    {
      "inputs": [
        {
          "internalType": "contract IAddressesProvider",
          "name": "_addressProvider",
          "type": "address"
        }
      ],
      "stateMutability": "nonpayable",
      "type": "constructor"
    },
    {
      "anonymous": false,
      "inputs": [
        {
          "indexed": false,
          "internalType": "address",
          "name": "token",
          "type": "address"
        },
        {
          "indexed": false,
          "internalType": "uint256",
          "name": "refPrice",
          "type": "uint256"
        },
        {
          "indexed": false,
          "internalType": "uint256",
          "name": "fastPrice",
          "type": "uint256"
        }
      ],
      "name": "PriceData",
      "type": "event"
    },
    {
      "anonymous": false,
      "inputs": [
        {
          "indexed": false,
          "internalType": "address",
          "name": "token",
          "type": "address"
        },
        {
          "indexed": false,
          "internalType": "uint256",
          "name": "price",
          "type": "uint256"
        },
        {
          "indexed": false,
          "internalType": "address",
          "name": "priceFeed",
          "type": "address"
        }
      ],
      "name": "PriceUpdate",
      "type": "event"
    },
    {
      "inputs": [],
      "name": "BASIS_POINTS_DIVISOR",
      "outputs": [
        {
          "internalType": "uint256",
          "name": "",
          "type": "uint256"
        }
      ],
      "stateMutability": "view",
      "type": "function"
    },
    {
      "inputs": [],
      "name": "BITMASK_32",
      "outputs": [
        {
          "internalType": "uint256",
          "name": "",
          "type": "uint256"
        }
      ],
      "stateMutability": "view",
      "type": "function"
    },
    {
      "inputs": [],
      "name": "MAX_PRICE_DURATION",
      "outputs": [
        {
          "internalType": "uint256",
          "name": "",
          "type": "uint256"
        }
      ],
      "stateMutability": "view",
      "type": "function"
    },
    {
      "inputs": [],
      "name": "MAX_REF_PRICE",
      "outputs": [
        {
          "internalType": "uint256",
          "name": "",
          "type": "uint256"
        }
      ],
      "stateMutability": "view",
      "type": "function"
    },
    {
      "inputs": [],
      "name": "PRICE_PRECISION",
      "outputs": [
        {
          "internalType": "uint256",
          "name": "",
          "type": "uint256"
        }
      ],
      "stateMutability": "view",
      "type": "function"
    },
    {
      "inputs": [
        {
          "internalType": "address",
          "name": "_token",
          "type": "address"
        }
      ],
      "name": "getPrice",
      "outputs": [
        {
          "internalType": "uint256",
          "name": "",
          "type": "uint256"
        }
      ],
      "stateMutability": "view",
      "type": "function"
    },
    {
      "inputs": [],
      "name": "lastUpdatedAt",
      "outputs": [
        {
          "internalType": "uint256",
          "name": "",
          "type": "uint256"
        }
      ],
      "stateMutability": "view",
      "type": "function"
    },
    {
      "inputs": [],
      "name": "maxTimeDeviation",
      "outputs": [
        {
          "internalType": "uint256",
          "name": "",
          "type": "uint256"
        }
      ],
      "stateMutability": "view",
      "type": "function"
    },
    {
      "inputs": [
        {
          "internalType": "address",
          "name": "",
          "type": "address"
        }
      ],
      "name": "prices",
      "outputs": [
        {
          "internalType": "uint256",
          "name": "",
          "type": "uint256"
        }
      ],
      "stateMutability": "view",
      "type": "function"
    },
    {
      "inputs": [
        {
          "internalType": "uint256[]",
          "name": "_priceBitArray",
          "type": "uint256[]"
        },
        {
          "internalType": "uint256",
          "name": "_timestamp",
          "type": "uint256"
        }
      ],
      "name": "setCompactedPrices",
      "outputs": [],
      "stateMutability": "nonpayable",
      "type": "function"
    },
    {
      "inputs": [
        {
          "internalType": "uint256",
          "name": "_lastUpdatedAt",
          "type": "uint256"
        }
      ],
      "name": "setLastUpdatedAt",
      "outputs": [],
      "stateMutability": "nonpayable",
      "type": "function"
    },
    {
      "inputs": [
        {
          "internalType": "uint256",
          "name": "_maxTimeDeviation",
          "type": "uint256"
        }
      ],
      "name": "setMaxTimeDeviation",
      "outputs": [],
      "stateMutability": "nonpayable",
      "type": "function"
    },
    {
      "inputs": [
        {
          "internalType": "address[]",
          "name": "_tokens",
          "type": "address[]"
        },
        {
          "internalType": "uint256[]",
          "name": "_prices",
          "type": "uint256[]"
        },
        {
          "internalType": "uint256",
          "name": "_timestamp",
          "type": "uint256"
        }
      ],
      "name": "setPrices",
      "outputs": [],
      "stateMutability": "nonpayable",
      "type": "function"
    },
    {
      "inputs": [
        {
          "internalType": "uint256",
          "name": "_priceBits",
          "type": "uint256"
        },
        {
          "internalType": "uint256",
          "name": "_timestamp",
          "type": "uint256"
        }
      ],
      "name": "setPricesWithBits",
      "outputs": [],
      "stateMutability": "nonpayable",
      "type": "function"
    },
    {
      "inputs": [
        {
          "internalType": "address[]",
          "name": "_tokens",
          "type": "address[]"
        },
        {
          "internalType": "uint256[]",
          "name": "_tokenPrecisions",
          "type": "uint256[]"
        }
      ],
      "name": "setTokens",
      "outputs": [],
      "stateMutability": "nonpayable",
      "type": "function"
    },
    {
      "inputs": [
        {
          "internalType": "uint256",
          "name": "",
          "type": "uint256"
        }
      ],
      "name": "tokenPrecisions",
      "outputs": [
        {
          "internalType": "uint256",
          "name": "",
          "type": "uint256"
        }
      ],
      "stateMutability": "view",
      "type": "function"
    },
    {
      "inputs": [
        {
          "internalType": "uint256",
          "name": "",
          "type": "uint256"
        }
      ],
      "name": "tokens",
      "outputs": [
        {
          "internalType": "address",
          "name": "",
          "type": "address"
        }
      ],
      "stateMutability": "view",
      "type": "function"
    }
  ],
  "transactionHash": "0xdbfd8f26a4ea63f4ccca460df8be43635350e5e39b56b81e9b54468da6ad50f9",
  "args": [
    "0x5FbDB2315678afecb367f032d93F642f64180aa3"
  ],
  "numDeployments": 1,
  "solcInputHash": "61d3aa21153aecd733270a56df7d756c",
  "bytecode": "0x60803461007457601f61109938819003918201601f19168301916001600160401b038311848410176100795780849260209460405283398101031261007457516001600160a01b0381169081900361007457600580546001600160a01b03191691909117905560405161100990816100908239f35b600080fd5b634e487b7160e01b600052604160045260246000fdfe6040608081526004908136101561001557600080fd5b600091823560e01c90816303f4d7dc146108da578163126082cf146108bd57816314dd2dce1461081e57816317835d1c1461074c5781633aa08f861461072d57816341976e09146107055781634d11fb4a146106d55781634f64b2be1461067957816354aea1271461065c578163668d3d651461063f578163776d16c11461056d578163782661bc14610400578163807c9782146103e157816395082d25146103ba578163c8390a481461013957508063cfed246b146101025763e68a22c0146100de57600080fd5b346100fe57816003193601126100fe57516001600160a01b038152602090f35b5080fd5b50346100fe5760203660031901126100fe5760209181906001600160a01b03610129610a66565b1681526002845220549051908152f35b9050346103b657816003193601126103b6576001600160401b039181358381116103b25761016a9036908401610ac8565b602480358581116103ae576101829036908601610a03565b9160018060a01b03806005541694805180966351331ad760e01b825281896020998a935afa90811561037757839188918c91610381575b508351637be53ca160e01b8152338b82015292839188918391165afa90811561037757906101ee918b9161034a575b50610b6d565b8251855103610317575081519087821161030557600160401b928383116102f35786908a6003548560035585848282106102d7575b50505050019060038a52868a20908a5b8481106102c357505050505082519586116102b15785116102a0575081908354858555808610610286575b500191845280842090845b848110610274578580f35b83518382015592810192600101610269565b84875282872061029a918101908701610ba9565b3861025e565b634e487b7160e01b86526041845285fd5b50634e487b7160e01b86526041845285fd5b835182168382015592880192600101610233565b8360036102ea9552209182019101610ba9565b8a388584610223565b634e487b7160e01b8a5260418852848afd5b634e487b7160e01b8952604187528389fd5b5162461bcd60e51b8152808701869052600f818501526e696e76616c6964206c656e6774687360881b6044820152606490fd5b61036a9150883d8a11610370575b61036281836109b5565b810190610b55565b386101e8565b503d610358565b82513d8c823e3d90fd5b6103a19150823d84116103a7575b61039981836109b5565b810190610b36565b386101b9565b503d61038f565b8680fd5b8480fd5b8280fd5b5050346100fe57816003193601126100fe575168327cb2734119d3b7a9601e1b8152602090f35b5050346100fe57816003193601126100fe576020905163ffffffff8152f35b839150346100fe5760603660031901126100fe576001600160401b038135818111610569576104329036908401610ac8565b906024359081116105695761044a9036908401610a03565b9360018060a01b0392836005541682519182916351331ad760e01b8352828260209586935afa91821561055f5791839291879492899261053d575b50602490865195869384926335d2155560e11b84523390840152165afa9283156105345750906104be92918692610517575b5050610bc0565b6104c9604435610f29565b6104d1578280f35b825b815181101561050b5780610501846104ee6105069486610c1e565b51166104fa8389610c1e565b5190610e0b565b610bf9565b6104d3565b50505090508082808280f35b61052d9250803d106103705761036281836109b5565b86806104b7565b513d87823e3d90fd5b602491925061055890843d86116103a75761039981836109b5565b9190610485565b84513d89823e3d90fd5b8380fd5b9050346103b6576020806003193601126105695760055483516351331ad760e01b81526001600160a01b0391839082908690829086165afa80156106355783918791610618575b506024865180948193637be53ca160e01b83523389840152165afa91821561060e576105ea93945085926105f1575b5050610b6d565b3560015580f35b6106079250803d106103705761036281836109b5565b38806105e3565b84513d87823e3d90fd5b61062f9150823d84116103a75761039981836109b5565b386105b4565b85513d88823e3d90fd5b5050346100fe57816003193601126100fe57602090516107088152f35b5050346100fe57816003193601126100fe57602091549051908152f35b9050346103b65760203660031901126103b657356003548110156103b65760039092527fc2575a0e9e593c00f959f8c92f12db2869c3395a3b0502d05e2516446f71f85b9091015490516001600160a01b039091168152602090f35b9050346103b65760203660031901126103b657803590805482101561056957835260209283902001549051908152f35b5050346100fe5760203660031901126100fe5760209181906001600160a01b03610129610a66565b5050346100fe57816003193601126100fe576020906001549051908152f35b9050346103b657816003193601126103b65760055482516351331ad760e01b81526001600160a01b039160209190829082908690829087165afa80156106355782918791610801575b5060248651809581936335d2155560e11b83523389840152165afa9384156107f85750926107ce916107d89486926107db575050610bc0565b6024359035610d5d565b80f35b6107f19250803d106103705761036281836109b5565b38806104b7565b513d86823e3d90fd5b6108189150823d84116103a75761039981836109b5565b38610795565b9050346103b6576020806003193601126105695760055483516351331ad760e01b81526001600160a01b0391839082908690829086165afa801561063557839187916108a0575b506024865180948193637be53ca160e01b83523389840152165afa91821561060e5761089a93945085926105f1575050610b6d565b35815580f35b6108b79150823d84116103a75761039981836109b5565b38610865565b5050346100fe57816003193601126100fe57602090516127108152f35b9050346103b657816003193601126103b65780356001600160401b038111610569576109099036908301610a03565b60055483516351331ad760e01b815291926001600160a01b0392602092909190839083908390829088165afa9081156109ab5783928892610989575b50602490875195869384926335d2155560e11b84523390840152165afa9384156107f8575092610980916107d89486926107db575050610bc0565b60243590610c3f565b60249192506109a490843d86116103a75761039981836109b5565b9190610945565b86513d89823e3d90fd5b90601f801991011681019081106001600160401b038211176109d657604052565b634e487b7160e01b600052604160045260246000fd5b6001600160401b0381116109d65760051b60200190565b81601f82011215610a6157803591610a1a836109ec565b92610a2860405194856109b5565b808452602092838086019260051b820101928311610a61578301905b828210610a52575050505090565b81358152908301908301610a44565b600080fd5b600435906001600160a01b0382168203610a6157565b600354811015610a9757600360005260206000200190600090565b634e487b7160e01b600052603260045260246000fd5b600454811015610a9757600460005260206000200190600090565b81601f82011215610a6157803591610adf836109ec565b92610aed60405194856109b5565b808452602092838086019260051b820101928311610a61578301905b828210610b17575050505090565b81356001600160a01b0381168103610a61578152908301908301610b09565b90816020910312610a6157516001600160a01b0381168103610a615790565b90816020910312610a6157518015158103610a615790565b15610b7457565b60405162461bcd60e51b815260206004820152600d60248201526c37b7363ca837b7b620b236b4b760991b6044820152606490fd5b818110610bb4575050565b60008155600101610ba9565b15610bc757565b60405162461bcd60e51b815260206004820152600a60248201526937b7363ca5b2b2b832b960b11b6044820152606490fd5b6000198114610c085760010190565b634e487b7160e01b600052601160045260246000fd5b8051821015610a975760209160051b010190565b91908201809211610c0857565b90610c4990610f29565b610c505750565b60005b8151811015610d5957610c668183610c1e565b519160005b60089081811015610d4757600384811b928584041485151715610c0857610c928284610c32565b81541115610d3f576001600160fb1b0382168203610c085763ffffffff868360051b1c1690610cea610ce584610cd0610ccb8289610c32565b610a7c565b905490851b1c6001600160a01b031696610c32565b610aad565b9054911b1c9268327cb2734119d3b7a9601e1b8281029280159084049091141715610c08578315610d2957610d2493610501920490610e0b565b610c6b565b634e487b7160e01b600052601260045260246000fd5b505050505050565b50509150610d5490610bf9565b610c53565b5050565b90610d6790610f29565b610d6e5750565b60005b60088110610d7d575050565b6003908154811015610e06576001600160fb1b0381168103610c085763ffffffff838260051b1c16610dae82610a7c565b905490841b1c6001600160a01b031692610dc783610aad565b9054911b1c9268327cb2734119d3b7a9601e1b8281029280159084049091141715610c08578315610d2957610e0193610501920490610e0b565b610d71565b505050565b6040805193928482016001600160401b038111868210176109d6578252601b855260207a039b2ba283934b1b2903a37b5b2b71012b990383934b1b29012b99602d1b81870152825181810190630d26b92560e01b82526060602482015287519586608483015260005b878110610f1557507fc37a77b91cc3fc2d0e4b43fd2f347ec67adda10e39215de4742836cc3e42c97a979850869594939282610ee660a48260009695878360609e829901015260018060a01b03169a8b6044830152896064830152601f801991011681010360848101845201826109b5565b51906a636f6e736f6c652e6c6f675afa50836000526002815281836000205582519384528301523390820152a1565b89810185015183820160a401528401610e74565b600154804203428111610c0857821115610f9d57610f479042610c32565b811015610f65576000548110610f5f57600055600190565b50600090565b60405162461bcd60e51b815260206004820152601060248201526f747320657863656564732072616e676560801b6044820152606490fd5b60405162461bcd60e51b815260206004820152600e60248201526d74732062656c6f772072616e676560901b6044820152606490fdfea2646970667358221220c34bb99cbb18b3fd52588a4d452f6e95f8b3f60193327fb31ce352c7701cfb5664736f6c63430008110033",
  "devdoc": {
    "kind": "dev",
    "methods": {},
    "version": 1
  },
  "userdoc": {
    "kind": "user",
    "methods": {},
    "version": 1
  },
  "storageLayout": {
    "storage": [
      {
        "astId": 10695,
        "contract": "contracts/price/IndexPriceFeed.sol:IndexPriceFeed",
        "label": "lastUpdatedAt",
        "offset": 0,
        "slot": "0",
        "type": "t_uint256"
      },
      {
        "astId": 10697,
        "contract": "contracts/price/IndexPriceFeed.sol:IndexPriceFeed",
        "label": "maxTimeDeviation",
        "offset": 0,
        "slot": "1",
        "type": "t_uint256"
      },
      {
        "astId": 10701,
        "contract": "contracts/price/IndexPriceFeed.sol:IndexPriceFeed",
        "label": "prices",
        "offset": 0,
        "slot": "2",
        "type": "t_mapping(t_address,t_uint256)"
      },
      {
        "astId": 10704,
        "contract": "contracts/price/IndexPriceFeed.sol:IndexPriceFeed",
        "label": "tokens",
        "offset": 0,
        "slot": "3",
        "type": "t_array(t_address)dyn_storage"
      },
      {
        "astId": 10707,
        "contract": "contracts/price/IndexPriceFeed.sol:IndexPriceFeed",
        "label": "tokenPrecisions",
        "offset": 0,
        "slot": "4",
        "type": "t_array(t_uint256)dyn_storage"
      },
      {
        "astId": 10710,
        "contract": "contracts/price/IndexPriceFeed.sol:IndexPriceFeed",
        "label": "addressProvider",
        "offset": 0,
        "slot": "5",
        "type": "t_contract(IAddressesProvider)4473"
      }
    ],
    "types": {
      "t_address": {
        "encoding": "inplace",
        "label": "address",
        "numberOfBytes": "20"
      },
      "t_array(t_address)dyn_storage": {
        "base": "t_address",
        "encoding": "dynamic_array",
        "label": "address[]",
        "numberOfBytes": "32"
      },
      "t_array(t_uint256)dyn_storage": {
        "base": "t_uint256",
        "encoding": "dynamic_array",
        "label": "uint256[]",
        "numberOfBytes": "32"
      },
      "t_contract(IAddressesProvider)4473": {
        "encoding": "inplace",
        "label": "contract IAddressesProvider",
        "numberOfBytes": "20"
      },
      "t_mapping(t_address,t_uint256)": {
        "encoding": "mapping",
        "key": "t_address",
        "label": "mapping(address => uint256)",
        "numberOfBytes": "32",
        "value": "t_uint256"
      },
      "t_uint256": {
        "encoding": "inplace",
        "label": "uint256",
        "numberOfBytes": "32"
      }
    }
  }
}