{
  "address": "0x51A1ceB83B83F1985a81C295d1fF28Afef186E02",
  "abi": [
    {
      "inputs": [],
      "stateMutability": "nonpayable",
      "type": "constructor"
    },
    {
      "inputs": [],
      "name": "aggregator",
      "outputs": [
        {
          "internalType": "address",
          "name": "",
          "type": "address"
        }
      ],
      "stateMutability": "view",
      "type": "function"
    },
    {
      "inputs": [],
      "name": "answer",
      "outputs": [
        {
          "internalType": "int256",
          "name": "",
          "type": "int256"
        }
      ],
      "stateMutability": "view",
      "type": "function"
    },
    {
      "inputs": [
        {
          "internalType": "uint80",
          "name": "",
          "type": "uint80"
        }
      ],
      "name": "answers",
      "outputs": [
        {
          "internalType": "int256",
          "name": "",
          "type": "int256"
        }
      ],
      "stateMutability": "view",
      "type": "function"
    },
    {
      "inputs": [],
      "name": "decimals",
      "outputs": [
        {
          "internalType": "uint256",
          "name": "",
          "type": "uint256"
        }
      ],
      "stateMutability": "view",
      "type": "function"
    },
    {
      "inputs": [],
      "name": "description",
      "outputs": [
        {
          "internalType": "string",
          "name": "",
          "type": "string"
        }
      ],
      "stateMutability": "view",
      "type": "function"
    },
    {
      "inputs": [
        {
          "internalType": "uint80",
          "name": "_roundId",
          "type": "uint80"
        }
      ],
      "name": "getRoundData",
      "outputs": [
        {
          "internalType": "uint80",
          "name": "",
          "type": "uint80"
        },
        {
          "internalType": "int256",
          "name": "",
          "type": "int256"
        },
        {
          "internalType": "uint256",
          "name": "",
          "type": "uint256"
        },
        {
          "internalType": "uint256",
          "name": "",
          "type": "uint256"
        },
        {
          "internalType": "uint80",
          "name": "",
          "type": "uint80"
        }
      ],
      "stateMutability": "view",
      "type": "function"
    },
    {
      "inputs": [],
      "name": "gov",
      "outputs": [
        {
          "internalType": "address",
          "name": "",
          "type": "address"
        }
      ],
      "stateMutability": "view",
      "type": "function"
    },
    {
      "inputs": [
        {
          "internalType": "address",
          "name": "",
          "type": "address"
        }
      ],
      "name": "isAdmin",
      "outputs": [
        {
          "internalType": "bool",
          "name": "",
          "type": "bool"
        }
      ],
      "stateMutability": "view",
      "type": "function"
    },
    {
      "inputs": [],
      "name": "latestAnswer",
      "outputs": [
        {
          "internalType": "int256",
          "name": "",
          "type": "int256"
        }
      ],
      "stateMutability": "view",
      "type": "function"
    },
    {
      "inputs": [],
      "name": "latestRound",
      "outputs": [
        {
          "internalType": "uint80",
          "name": "",
          "type": "uint80"
        }
      ],
      "stateMutability": "view",
      "type": "function"
    },
    {
      "inputs": [],
      "name": "roundId",
      "outputs": [
        {
          "internalType": "uint80",
          "name": "",
          "type": "uint80"
        }
      ],
      "stateMutability": "view",
      "type": "function"
    },
    {
      "inputs": [
        {
          "internalType": "address",
          "name": "_account",
          "type": "address"
        },
        {
          "internalType": "bool",
          "name": "_isAdmin",
          "type": "bool"
        }
      ],
      "name": "setAdmin",
      "outputs": [],
      "stateMutability": "nonpayable",
      "type": "function"
    },
    {
      "inputs": [
        {
          "internalType": "int256",
          "name": "_answer",
          "type": "int256"
        }
      ],
      "name": "setLatestAnswer",
      "outputs": [],
      "stateMutability": "nonpayable",
      "type": "function"
    }
  ],
  "transactionHash": "0x2460d8cf97cea596e621c01259fec97b26b0aeda9c0cbf1fbbc4befa4c62368b",
  "args": [],
  "numDeployments": 1,
  "solcInputHash": "dbd8b9bdf15109328226d3d4a4bdaf81",
  "bytecode": "0x608080604052346100fb576002546001908181811c911680156100f1575b60208210146100db57601f811161008e575b507f4d6f636b5072696365466565640000000000000000000000000000000000001a600255600580546001600160a01b031916339081179091556000908152600760205260409020805460ff191690911790556104e790816101018239f35b6002600052601f0160051c7f405787fa12a823e0f2b7631cc41b3ba8828b3321ca811111fa75cd3aa3bb5ace9081019082905b8281106100cf57505061002f565b600081550182906100c1565b634e487b7160e01b600052602260045260246000fd5b90607f169061001d565b600080fdfe6040608081526004908136101561001557600080fd5b600091823560e01c806304ea97b0146103d557806312d43a51146103ac578063245a7bfc1461038357806324d7806c14610345578063313ce567146103285780634b0bddd2146102c75780634c295ca31461028e57806350d25bcd14610131578063668a0f02146101045780637284e4161461014e57806385bb7d69146101315780638cd221c91461010457639a6fc8f5146100b057600080fd5b3461010057602036600319011261010057356001600160501b038116919082900361010057918060a093838252600660205280822054815194855260208501528301528060608301526080820152f35b8280fd5b50503461012d578160031936011261012d5760015490516001600160501b039091168152602090f35b5080fd5b50503461012d578160031936011261012d57602091549051908152f35b50903461010057826003193601126101005780518360025460019581871c878316978815610284575b6020938483108a1461027157848798999a848952918260001461025557505060011461021f575b5050601f801995869203011683019583871067ffffffffffffffff88111761020c575085929391838652818452845191828186015281955b8387106101f45750508394508582601f949501015201168101030190f35b868101820151898801890152958101958895506101d6565b634e487b7160e01b835260419052602482fd5b600285528385208593505b82841061023f5750505083018101388061019e565b805488850186015287965092840192810161022a565b925093505060ff191682860152151560051b840101388061019e565b634e487b7160e01b865260228952602486fd5b90607f1690610177565b503461010057602036600319011261010057356001600160501b0381169081900361010057828291602094526006845220549051908152f35b50503461012d578060031936011261012d576102e1610453565b9060243591821515809303610324576005546001600160a01b03919061030a908316331461046e565b168352600760205282209060ff8019835416911617905580f35b8380fd5b503461010057826003193601126101005760209250549051908152f35b50503461012d57602036600319011261012d5760209160ff9082906001600160a01b03610370610453565b1681526007855220541690519015158152f35b50503461012d578160031936011261012d5760035490516001600160a01b039091168152602090f35b50503461012d578160031936011261012d5760055490516001600160a01b039091168152602090f35b50903461010057602036600319011261010057813591338452600760205261040260ff838620541661046e565b60018054916001600160501b039182841601908282116104405750166001600160501b03199190911681176001558284558352600660205282205580f35b634e487b7160e01b875260119052602486fd5b600435906001600160a01b038216820361046957565b600080fd5b1561047557565b60405162461bcd60e51b8152602060048201526014602482015273283934b1b2a332b2b21d103337b93134b23232b760611b6044820152606490fdfea2646970667358221220ceb3346f5e59dc4666a4030a2eb78bf7ad443121ae74fb68bfcc669ff4ab586864736f6c63430008110033",
  "devdoc": {
    "kind": "dev",
    "methods": {},
    "version": 1
  },
  "userdoc": {
    "kind": "user",
    "methods": {},
    "version": 1
  },
  "storageLayout": {
    "storage": [
      {
        "astId": 7019,
        "contract": "contracts/mock/MockPriceFeed.sol:MockPriceFeed",
        "label": "answer",
        "offset": 0,
        "slot": "0",
        "type": "t_int256"
      },
      {
        "astId": 7021,
        "contract": "contracts/mock/MockPriceFeed.sol:MockPriceFeed",
        "label": "roundId",
        "offset": 0,
        "slot": "1",
        "type": "t_uint80"
      },
      {
        "astId": 7025,
        "contract": "contracts/mock/MockPriceFeed.sol:MockPriceFeed",
        "label": "description",
        "offset": 0,
        "slot": "2",
        "type": "t_string_storage"
      },
      {
        "astId": 7028,
        "contract": "contracts/mock/MockPriceFeed.sol:MockPriceFeed",
        "label": "aggregator",
        "offset": 0,
        "slot": "3",
        "type": "t_address"
      },
      {
        "astId": 7030,
        "contract": "contracts/mock/MockPriceFeed.sol:MockPriceFeed",
        "label": "decimals",
        "offset": 0,
        "slot": "4",
        "type": "t_uint256"
      },
      {
        "astId": 7032,
        "contract": "contracts/mock/MockPriceFeed.sol:MockPriceFeed",
        "label": "gov",
        "offset": 0,
        "slot": "5",
        "type": "t_address"
      },
      {
        "astId": 7036,
        "contract": "contracts/mock/MockPriceFeed.sol:MockPriceFeed",
        "label": "answers",
        "offset": 0,
        "slot": "6",
        "type": "t_mapping(t_uint80,t_int256)"
      },
      {
        "astId": 7040,
        "contract": "contracts/mock/MockPriceFeed.sol:MockPriceFeed",
        "label": "isAdmin",
        "offset": 0,
        "slot": "7",
        "type": "t_mapping(t_address,t_bool)"
      }
    ],
    "types": {
      "t_address": {
        "encoding": "inplace",
        "label": "address",
        "numberOfBytes": "20"
      },
      "t_bool": {
        "encoding": "inplace",
        "label": "bool",
        "numberOfBytes": "1"
      },
      "t_int256": {
        "encoding": "inplace",
        "label": "int256",
        "numberOfBytes": "32"
      },
      "t_mapping(t_address,t_bool)": {
        "encoding": "mapping",
        "key": "t_address",
        "label": "mapping(address => bool)",
        "numberOfBytes": "32",
        "value": "t_bool"
      },
      "t_mapping(t_uint80,t_int256)": {
        "encoding": "mapping",
        "key": "t_uint80",
        "label": "mapping(uint80 => int256)",
        "numberOfBytes": "32",
        "value": "t_int256"
      },
      "t_string_storage": {
        "encoding": "bytes",
        "label": "string",
        "numberOfBytes": "32"
      },
      "t_uint256": {
        "encoding": "inplace",
        "label": "uint256",
        "numberOfBytes": "32"
      },
      "t_uint80": {
        "encoding": "inplace",
        "label": "uint80",
        "numberOfBytes": "10"
      }
    }
  }
}