{
  "address": "0x49fd2BE640DB2910c2fAb69bB8531Ab6E76127ff",
  "abi": [
    {
      "inputs": [
        {
          "internalType": "contract IAddressesProvider",
          "name": "addressProvider",
          "type": "address"
        },
        {
          "internalType": "contract IPairInfo",
          "name": "_pairInfo",
          "type": "address"
        },
        {
          "internalType": "contract IPairVault",
          "name": "_pairVault",
          "type": "address"
        },
        {
          "internalType": "contract ITradingVault",
          "name": "_tradingVault",
          "type": "address"
        }
      ],
      "stateMutability": "nonpayable",
      "type": "constructor"
    },
    {
      "anonymous": false,
      "inputs": [
        {
          "indexed": false,
          "internalType": "address",
          "name": "account",
          "type": "address"
        },
        {
          "indexed": false,
          "internalType": "uint256",
          "name": "orderId",
          "type": "uint256"
        },
        {
          "indexed": false,
          "internalType": "enum TradingTypes.TradeType",
          "name": "tradeType",
          "type": "uint8"
        }
      ],
      "name": "CancelDecreaseOrder",
      "type": "event"
    },
    {
      "anonymous": false,
      "inputs": [
        {
          "indexed": false,
          "internalType": "address",
          "name": "account",
          "type": "address"
        },
        {
          "indexed": false,
          "internalType": "uint256",
          "name": "orderId",
          "type": "uint256"
        },
        {
          "indexed": false,
          "internalType": "enum TradingTypes.TradeType",
          "name": "tradeType",
          "type": "uint8"
        }
      ],
      "name": "CancelIncreaseOrder",
      "type": "event"
    },
    {
      "anonymous": false,
      "inputs": [
        {
          "indexed": false,
          "internalType": "address",
          "name": "account",
          "type": "address"
        },
        {
          "indexed": false,
          "internalType": "uint256",
          "name": "orderId",
          "type": "uint256"
        },
        {
          "indexed": false,
          "internalType": "enum TradingTypes.TradeType",
          "name": "tradeType",
          "type": "uint8"
        },
        {
          "indexed": false,
          "internalType": "int256",
          "name": "collateral",
          "type": "int256"
        },
        {
          "indexed": false,
          "internalType": "uint256",
          "name": "pairIndex",
          "type": "uint256"
        },
        {
          "indexed": false,
          "internalType": "uint256",
          "name": "openPrice",
          "type": "uint256"
        },
        {
          "indexed": false,
          "internalType": "uint256",
          "name": "sizeAmount",
          "type": "uint256"
        },
        {
          "indexed": false,
          "internalType": "bool",
          "name": "isLong",
          "type": "bool"
        },
        {
          "indexed": false,
          "internalType": "bool",
          "name": "abovePrice",
          "type": "bool"
        }
      ],
      "name": "CreateDecreaseOrder",
      "type": "event"
    },
    {
      "anonymous": false,
      "inputs": [
        {
          "indexed": false,
          "internalType": "address",
          "name": "account",
          "type": "address"
        },
        {
          "indexed": false,
          "internalType": "uint256",
          "name": "orderId",
          "type": "uint256"
        },
        {
          "indexed": false,
          "internalType": "uint256",
          "name": "pairIndex",
          "type": "uint256"
        },
        {
          "indexed": false,
          "internalType": "enum TradingTypes.TradeType",
          "name": "tradeType",
          "type": "uint8"
        },
        {
          "indexed": false,
          "internalType": "int256",
          "name": "collateral",
          "type": "int256"
        },
        {
          "indexed": false,
          "internalType": "uint256",
          "name": "openPrice",
          "type": "uint256"
        },
        {
          "indexed": false,
          "internalType": "bool",
          "name": "isLong",
          "type": "bool"
        },
        {
          "indexed": false,
          "internalType": "uint256",
          "name": "sizeAmount",
          "type": "uint256"
        },
        {
          "indexed": false,
          "internalType": "uint256",
          "name": "tpPrice",
          "type": "uint256"
        },
        {
          "indexed": false,
          "internalType": "uint256",
          "name": "tpAmount",
          "type": "uint256"
        },
        {
          "indexed": false,
          "internalType": "uint256",
          "name": "slPrice",
          "type": "uint256"
        },
        {
          "indexed": false,
          "internalType": "uint256",
          "name": "slAmount",
          "type": "uint256"
        }
      ],
      "name": "CreateIncreaseOrder",
      "type": "event"
    },
    {
      "anonymous": false,
      "inputs": [
        {
          "indexed": false,
          "internalType": "uint8",
          "name": "version",
          "type": "uint8"
        }
      ],
      "name": "Initialized",
      "type": "event"
    },
    {
      "anonymous": false,
      "inputs": [
        {
          "indexed": false,
          "internalType": "address",
          "name": "oldAddress",
          "type": "address"
        },
        {
          "indexed": false,
          "internalType": "address",
          "name": "newAddress",
          "type": "address"
        }
      ],
      "name": "UpdatePositionManager",
      "type": "event"
    },
    {
      "inputs": [],
      "name": "ADDRESS_PROVIDER",
      "outputs": [
        {
          "internalType": "contract IAddressesProvider",
          "name": "",
          "type": "address"
        }
      ],
      "stateMutability": "view",
      "type": "function"
    },
    {
      "inputs": [
        {
          "components": [
            {
              "internalType": "address",
              "name": "account",
              "type": "address"
            },
            {
              "internalType": "uint256",
              "name": "pairIndex",
              "type": "uint256"
            },
            {
              "internalType": "bool",
              "name": "isLong",
              "type": "bool"
            },
            {
              "internalType": "bool",
              "name": "isIncrease",
              "type": "bool"
            },
            {
              "internalType": "enum TradingTypes.TradeType",
              "name": "tradeType",
              "type": "uint8"
            },
            {
              "internalType": "uint256",
              "name": "orderId",
              "type": "uint256"
            },
            {
              "internalType": "uint256",
              "name": "sizeAmount",
              "type": "uint256"
            }
          ],
          "internalType": "struct IOrderManager.PositionOrder",
          "name": "order",
          "type": "tuple"
        }
      ],
      "name": "addOrderToPosition",
      "outputs": [],
      "stateMutability": "nonpayable",
      "type": "function"
    },
    {
      "inputs": [],
      "name": "addressExecutor",
      "outputs": [
        {
          "internalType": "address",
          "name": "",
          "type": "address"
        }
      ],
      "stateMutability": "view",
      "type": "function"
    },
    {
      "inputs": [
        {
          "internalType": "address",
          "name": "account",
          "type": "address"
        },
        {
          "internalType": "uint256",
          "name": "pairIndex",
          "type": "uint256"
        },
        {
          "internalType": "bool",
          "name": "isLong",
          "type": "bool"
        }
      ],
      "name": "cancelAllPositionOrders",
      "outputs": [],
      "stateMutability": "nonpayable",
      "type": "function"
    },
    {
      "inputs": [
        {
          "internalType": "uint256",
          "name": "orderId",
          "type": "uint256"
        },
        {
          "internalType": "enum TradingTypes.TradeType",
          "name": "tradeType",
          "type": "uint8"
        },
        {
          "internalType": "bool",
          "name": "isIncrease",
          "type": "bool"
        }
      ],
      "name": "cancelOrder",
      "outputs": [],
      "stateMutability": "nonpayable",
      "type": "function"
    },
    {
      "inputs": [
        {
          "components": [
            {
              "internalType": "address",
              "name": "account",
              "type": "address"
            },
            {
              "internalType": "uint256",
              "name": "pairIndex",
              "type": "uint256"
            },
            {
              "internalType": "enum TradingTypes.TradeType",
              "name": "tradeType",
              "type": "uint8"
            },
            {
              "internalType": "int256",
              "name": "collateral",
              "type": "int256"
            },
            {
              "internalType": "uint256",
              "name": "openPrice",
              "type": "uint256"
            },
            {
              "internalType": "bool",
              "name": "isLong",
              "type": "bool"
            },
            {
              "internalType": "int256",
              "name": "sizeAmount",
              "type": "int256"
            },
            {
              "internalType": "uint256",
              "name": "tpPrice",
              "type": "uint256"
            },
            {
              "internalType": "uint256",
              "name": "tp",
              "type": "uint256"
            },
            {
              "internalType": "uint256",
              "name": "slPrice",
              "type": "uint256"
            },
            {
              "internalType": "uint256",
              "name": "sl",
              "type": "uint256"
            }
          ],
          "internalType": "struct TradingTypes.CreateOrderRequest",
          "name": "request",
          "type": "tuple"
        }
      ],
      "name": "createOrder",
      "outputs": [
        {
          "internalType": "uint256",
          "name": "orderId",
          "type": "uint256"
        }
      ],
      "stateMutability": "nonpayable",
      "type": "function"
    },
    {
      "inputs": [
        {
          "internalType": "uint256",
          "name": "",
          "type": "uint256"
        }
      ],
      "name": "decreaseLimitOrders",
      "outputs": [
        {
          "internalType": "uint256",
          "name": "orderId",
          "type": "uint256"
        },
        {
          "internalType": "address",
          "name": "account",
          "type": "address"
        },
        {
          "internalType": "uint256",
          "name": "pairIndex",
          "type": "uint256"
        },
        {
          "internalType": "enum TradingTypes.TradeType",
          "name": "tradeType",
          "type": "uint8"
        },
        {
          "internalType": "int256",
          "name": "collateral",
          "type": "int256"
        },
        {
          "internalType": "uint256",
          "name": "triggerPrice",
          "type": "uint256"
        },
        {
          "internalType": "uint256",
          "name": "sizeAmount",
          "type": "uint256"
        },
        {
          "internalType": "bool",
          "name": "isLong",
          "type": "bool"
        },
        {
          "internalType": "bool",
          "name": "abovePrice",
          "type": "bool"
        },
        {
          "internalType": "uint256",
          "name": "blockTime",
          "type": "uint256"
        },
        {
          "internalType": "bool",
          "name": "needADL",
          "type": "bool"
        }
      ],
      "stateMutability": "view",
      "type": "function"
    },
    {
      "inputs": [],
      "name": "decreaseLimitOrdersIndex",
      "outputs": [
        {
          "internalType": "uint256",
          "name": "",
          "type": "uint256"
        }
      ],
      "stateMutability": "view",
      "type": "function"
    },
    {
      "inputs": [
        {
          "internalType": "uint256",
          "name": "",
          "type": "uint256"
        }
      ],
      "name": "decreaseMarketOrders",
      "outputs": [
        {
          "internalType": "uint256",
          "name": "orderId",
          "type": "uint256"
        },
        {
          "internalType": "address",
          "name": "account",
          "type": "address"
        },
        {
          "internalType": "uint256",
          "name": "pairIndex",
          "type": "uint256"
        },
        {
          "internalType": "enum TradingTypes.TradeType",
          "name": "tradeType",
          "type": "uint8"
        },
        {
          "internalType": "int256",
          "name": "collateral",
          "type": "int256"
        },
        {
          "internalType": "uint256",
          "name": "triggerPrice",
          "type": "uint256"
        },
        {
          "internalType": "uint256",
          "name": "sizeAmount",
          "type": "uint256"
        },
        {
          "internalType": "bool",
          "name": "isLong",
          "type": "bool"
        },
        {
          "internalType": "bool",
          "name": "abovePrice",
          "type": "bool"
        },
        {
          "internalType": "uint256",
          "name": "blockTime",
          "type": "uint256"
        },
        {
          "internalType": "bool",
          "name": "needADL",
          "type": "bool"
        }
      ],
      "stateMutability": "view",
      "type": "function"
    },
    {
      "inputs": [],
      "name": "decreaseMarketOrdersIndex",
      "outputs": [
        {
          "internalType": "uint256",
          "name": "",
          "type": "uint256"
        }
      ],
      "stateMutability": "view",
      "type": "function"
    },
    {
      "inputs": [
        {
          "internalType": "uint256",
          "name": "orderId",
          "type": "uint256"
        },
        {
          "internalType": "enum TradingTypes.TradeType",
          "name": "tradeType",
          "type": "uint8"
        }
      ],
      "name": "getDecreaseOrder",
      "outputs": [
        {
          "components": [
            {
              "internalType": "uint256",
              "name": "orderId",
              "type": "uint256"
            },
            {
              "internalType": "address",
              "name": "account",
              "type": "address"
            },
            {
              "internalType": "uint256",
              "name": "pairIndex",
              "type": "uint256"
            },
            {
              "internalType": "enum TradingTypes.TradeType",
              "name": "tradeType",
              "type": "uint8"
            },
            {
              "internalType": "int256",
              "name": "collateral",
              "type": "int256"
            },
            {
              "internalType": "uint256",
              "name": "triggerPrice",
              "type": "uint256"
            },
            {
              "internalType": "uint256",
              "name": "sizeAmount",
              "type": "uint256"
            },
            {
              "internalType": "bool",
              "name": "isLong",
              "type": "bool"
            },
            {
              "internalType": "bool",
              "name": "abovePrice",
              "type": "bool"
            },
            {
              "internalType": "uint256",
              "name": "blockTime",
              "type": "uint256"
            },
            {
              "internalType": "bool",
              "name": "needADL",
              "type": "bool"
            }
          ],
          "internalType": "struct TradingTypes.DecreasePositionOrder",
          "name": "order",
          "type": "tuple"
        }
      ],
      "stateMutability": "view",
      "type": "function"
    },
    {
      "inputs": [
        {
          "internalType": "uint256",
          "name": "orderId",
          "type": "uint256"
        },
        {
          "internalType": "enum TradingTypes.TradeType",
          "name": "tradeType",
          "type": "uint8"
        }
      ],
      "name": "getIncreaseOrder",
      "outputs": [
        {
          "components": [
            {
              "internalType": "uint256",
              "name": "orderId",
              "type": "uint256"
            },
            {
              "internalType": "address",
              "name": "account",
              "type": "address"
            },
            {
              "internalType": "uint256",
              "name": "pairIndex",
              "type": "uint256"
            },
            {
              "internalType": "enum TradingTypes.TradeType",
              "name": "tradeType",
              "type": "uint8"
            },
            {
              "internalType": "int256",
              "name": "collateral",
              "type": "int256"
            },
            {
              "internalType": "uint256",
              "name": "openPrice",
              "type": "uint256"
            },
            {
              "internalType": "bool",
              "name": "isLong",
              "type": "bool"
            },
            {
              "internalType": "uint256",
              "name": "sizeAmount",
              "type": "uint256"
            },
            {
              "internalType": "uint256",
              "name": "tpPrice",
              "type": "uint256"
            },
            {
              "internalType": "uint256",
              "name": "tp",
              "type": "uint256"
            },
            {
              "internalType": "uint256",
              "name": "slPrice",
              "type": "uint256"
            },
            {
              "internalType": "uint256",
              "name": "sl",
              "type": "uint256"
            },
            {
              "internalType": "uint256",
              "name": "blockTime",
              "type": "uint256"
            }
          ],
          "internalType": "struct TradingTypes.IncreasePositionOrder",
          "name": "order",
          "type": "tuple"
        }
      ],
      "stateMutability": "view",
      "type": "function"
    },
    {
      "inputs": [
        {
          "internalType": "bytes32",
          "name": "key",
          "type": "bytes32"
        }
      ],
      "name": "getPositionOrders",
      "outputs": [
        {
          "components": [
            {
              "internalType": "address",
              "name": "account",
              "type": "address"
            },
            {
              "internalType": "uint256",
              "name": "pairIndex",
              "type": "uint256"
            },
            {
              "internalType": "bool",
              "name": "isLong",
              "type": "bool"
            },
            {
              "internalType": "bool",
              "name": "isIncrease",
              "type": "bool"
            },
            {
              "internalType": "enum TradingTypes.TradeType",
              "name": "tradeType",
              "type": "uint8"
            },
            {
              "internalType": "uint256",
              "name": "orderId",
              "type": "uint256"
            },
            {
              "internalType": "uint256",
              "name": "sizeAmount",
              "type": "uint256"
            }
          ],
          "internalType": "struct IOrderManager.PositionOrder[]",
          "name": "",
          "type": "tuple[]"
        }
      ],
      "stateMutability": "view",
      "type": "function"
    },
    {
      "inputs": [
        {
          "internalType": "uint256",
          "name": "",
          "type": "uint256"
        }
      ],
      "name": "increaseLimitOrders",
      "outputs": [
        {
          "internalType": "uint256",
          "name": "orderId",
          "type": "uint256"
        },
        {
          "internalType": "address",
          "name": "account",
          "type": "address"
        },
        {
          "internalType": "uint256",
          "name": "pairIndex",
          "type": "uint256"
        },
        {
          "internalType": "enum TradingTypes.TradeType",
          "name": "tradeType",
          "type": "uint8"
        },
        {
          "internalType": "int256",
          "name": "collateral",
          "type": "int256"
        },
        {
          "internalType": "uint256",
          "name": "openPrice",
          "type": "uint256"
        },
        {
          "internalType": "bool",
          "name": "isLong",
          "type": "bool"
        },
        {
          "internalType": "uint256",
          "name": "sizeAmount",
          "type": "uint256"
        },
        {
          "internalType": "uint256",
          "name": "tpPrice",
          "type": "uint256"
        },
        {
          "internalType": "uint256",
          "name": "tp",
          "type": "uint256"
        },
        {
          "internalType": "uint256",
          "name": "slPrice",
          "type": "uint256"
        },
        {
          "internalType": "uint256",
          "name": "sl",
          "type": "uint256"
        },
        {
          "internalType": "uint256",
          "name": "blockTime",
          "type": "uint256"
        }
      ],
      "stateMutability": "view",
      "type": "function"
    },
    {
      "inputs": [],
      "name": "increaseLimitOrdersIndex",
      "outputs": [
        {
          "internalType": "uint256",
          "name": "",
          "type": "uint256"
        }
      ],
      "stateMutability": "view",
      "type": "function"
    },
    {
      "inputs": [
        {
          "internalType": "uint256",
          "name": "",
          "type": "uint256"
        }
      ],
      "name": "increaseMarketOrders",
      "outputs": [
        {
          "internalType": "uint256",
          "name": "orderId",
          "type": "uint256"
        },
        {
          "internalType": "address",
          "name": "account",
          "type": "address"
        },
        {
          "internalType": "uint256",
          "name": "pairIndex",
          "type": "uint256"
        },
        {
          "internalType": "enum TradingTypes.TradeType",
          "name": "tradeType",
          "type": "uint8"
        },
        {
          "internalType": "int256",
          "name": "collateral",
          "type": "int256"
        },
        {
          "internalType": "uint256",
          "name": "openPrice",
          "type": "uint256"
        },
        {
          "internalType": "bool",
          "name": "isLong",
          "type": "bool"
        },
        {
          "internalType": "uint256",
          "name": "sizeAmount",
          "type": "uint256"
        },
        {
          "internalType": "uint256",
          "name": "tpPrice",
          "type": "uint256"
        },
        {
          "internalType": "uint256",
          "name": "tp",
          "type": "uint256"
        },
        {
          "internalType": "uint256",
          "name": "slPrice",
          "type": "uint256"
        },
        {
          "internalType": "uint256",
          "name": "sl",
          "type": "uint256"
        },
        {
          "internalType": "uint256",
          "name": "blockTime",
          "type": "uint256"
        }
      ],
      "stateMutability": "view",
      "type": "function"
    },
    {
      "inputs": [],
      "name": "increaseMarketOrdersIndex",
      "outputs": [
        {
          "internalType": "uint256",
          "name": "",
          "type": "uint256"
        }
      ],
      "stateMutability": "view",
      "type": "function"
    },
    {
      "inputs": [
        {
          "internalType": "address",
          "name": "",
          "type": "address"
        }
      ],
      "name": "isHandler",
      "outputs": [
        {
          "internalType": "bool",
          "name": "",
          "type": "bool"
        }
      ],
      "stateMutability": "view",
      "type": "function"
    },
    {
      "inputs": [],
      "name": "pairInfo",
      "outputs": [
        {
          "internalType": "contract IPairInfo",
          "name": "",
          "type": "address"
        }
      ],
      "stateMutability": "view",
      "type": "function"
    },
    {
      "inputs": [],
      "name": "pairVault",
      "outputs": [
        {
          "internalType": "contract IPairVault",
          "name": "",
          "type": "address"
        }
      ],
      "stateMutability": "view",
      "type": "function"
    },
    {
      "inputs": [
        {
          "internalType": "bytes32",
          "name": "",
          "type": "bytes32"
        }
      ],
      "name": "positionDecreaseTotalAmount",
      "outputs": [
        {
          "internalType": "uint256",
          "name": "",
          "type": "uint256"
        }
      ],
      "stateMutability": "view",
      "type": "function"
    },
    {
      "inputs": [
        {
          "internalType": "bytes32",
          "name": "",
          "type": "bytes32"
        },
        {
          "internalType": "enum TradingTypes.TradeType",
          "name": "",
          "type": "uint8"
        }
      ],
      "name": "positionHasTpSl",
      "outputs": [
        {
          "internalType": "bool",
          "name": "",
          "type": "bool"
        }
      ],
      "stateMutability": "view",
      "type": "function"
    },
    {
      "inputs": [],
      "name": "positionManager",
      "outputs": [
        {
          "internalType": "contract IPositionManager",
          "name": "",
          "type": "address"
        }
      ],
      "stateMutability": "view",
      "type": "function"
    },
    {
      "inputs": [
        {
          "internalType": "bytes32",
          "name": "",
          "type": "bytes32"
        },
        {
          "internalType": "bytes32",
          "name": "",
          "type": "bytes32"
        }
      ],
      "name": "positionOrderIndex",
      "outputs": [
        {
          "internalType": "uint256",
          "name": "",
          "type": "uint256"
        }
      ],
      "stateMutability": "view",
      "type": "function"
    },
    {
      "inputs": [
        {
          "internalType": "bytes32",
          "name": "",
          "type": "bytes32"
        },
        {
          "internalType": "uint256",
          "name": "",
          "type": "uint256"
        }
      ],
      "name": "positionOrders",
      "outputs": [
        {
          "internalType": "address",
          "name": "account",
          "type": "address"
        },
        {
          "internalType": "uint256",
          "name": "pairIndex",
          "type": "uint256"
        },
        {
          "internalType": "bool",
          "name": "isLong",
          "type": "bool"
        },
        {
          "internalType": "bool",
          "name": "isIncrease",
          "type": "bool"
        },
        {
          "internalType": "enum TradingTypes.TradeType",
          "name": "tradeType",
          "type": "uint8"
        },
        {
          "internalType": "uint256",
          "name": "orderId",
          "type": "uint256"
        },
        {
          "internalType": "uint256",
          "name": "sizeAmount",
          "type": "uint256"
        }
      ],
      "stateMutability": "view",
      "type": "function"
    },
    {
      "inputs": [
        {
          "internalType": "uint256",
          "name": "orderId",
          "type": "uint256"
        }
      ],
      "name": "removeDecreaseLimitOrders",
      "outputs": [],
      "stateMutability": "nonpayable",
      "type": "function"
    },
    {
      "inputs": [
        {
          "internalType": "uint256",
          "name": "orderId",
          "type": "uint256"
        }
      ],
      "name": "removeDecreaseMarketOrders",
      "outputs": [],
      "stateMutability": "nonpayable",
      "type": "function"
    },
    {
      "inputs": [
        {
          "internalType": "uint256",
          "name": "orderId",
          "type": "uint256"
        }
      ],
      "name": "removeIncreaseLimitOrders",
      "outputs": [],
      "stateMutability": "nonpayable",
      "type": "function"
    },
    {
      "inputs": [
        {
          "internalType": "uint256",
          "name": "orderId",
          "type": "uint256"
        }
      ],
      "name": "removeIncreaseMarketOrders",
      "outputs": [],
      "stateMutability": "nonpayable",
      "type": "function"
    },
    {
      "inputs": [
        {
          "components": [
            {
              "internalType": "address",
              "name": "account",
              "type": "address"
            },
            {
              "internalType": "uint256",
              "name": "pairIndex",
              "type": "uint256"
            },
            {
              "internalType": "bool",
              "name": "isLong",
              "type": "bool"
            },
            {
              "internalType": "bool",
              "name": "isIncrease",
              "type": "bool"
            },
            {
              "internalType": "enum TradingTypes.TradeType",
              "name": "tradeType",
              "type": "uint8"
            },
            {
              "internalType": "uint256",
              "name": "orderId",
              "type": "uint256"
            },
            {
              "internalType": "uint256",
              "name": "sizeAmount",
              "type": "uint256"
            }
          ],
          "internalType": "struct IOrderManager.PositionOrder",
          "name": "order",
          "type": "tuple"
        }
      ],
      "name": "removeOrderFromPosition",
      "outputs": [],
      "stateMutability": "nonpayable",
      "type": "function"
    },
    {
      "inputs": [],
      "name": "router",
      "outputs": [
        {
          "internalType": "address",
          "name": "",
          "type": "address"
        }
      ],
      "stateMutability": "view",
      "type": "function"
    },
    {
      "inputs": [
        {
          "internalType": "address",
          "name": "_addressExecutor",
          "type": "address"
        }
      ],
      "name": "setExecutor",
      "outputs": [],
      "stateMutability": "nonpayable",
      "type": "function"
    },
    {
      "inputs": [
        {
          "internalType": "uint256",
          "name": "orderId",
          "type": "uint256"
        },
        {
          "internalType": "enum TradingTypes.TradeType",
          "name": "tradeType",
          "type": "uint8"
        },
        {
          "internalType": "bool",
          "name": "needADL",
          "type": "bool"
        }
      ],
      "name": "setOrderNeedADL",
      "outputs": [],
      "stateMutability": "nonpayable",
      "type": "function"
    },
    {
      "inputs": [
        {
          "internalType": "bytes32",
          "name": "key",
          "type": "bytes32"
        },
        {
          "internalType": "enum TradingTypes.TradeType",
          "name": "tradeType",
          "type": "uint8"
        },
        {
          "internalType": "bool",
          "name": "has",
          "type": "bool"
        }
      ],
      "name": "setPositionHasTpSl",
      "outputs": [],
      "stateMutability": "nonpayable",
      "type": "function"
    },
    {
      "inputs": [
        {
          "internalType": "address",
          "name": "_router",
          "type": "address"
        }
      ],
      "name": "setRouter",
      "outputs": [],
      "stateMutability": "nonpayable",
      "type": "function"
    },
    {
      "inputs": [],
      "name": "tradingVault",
      "outputs": [
        {
          "internalType": "contract ITradingVault",
          "name": "",
          "type": "address"
        }
      ],
      "stateMutability": "view",
      "type": "function"
    },
    {
      "inputs": [
        {
          "internalType": "address",
          "name": "newAddress",
          "type": "address"
        }
      ],
      "name": "updatePositionManager",
      "outputs": [],
      "stateMutability": "nonpayable",
      "type": "function"
    }
  ],
  "transactionHash": "0xa7c5005dac853bd04b3097c05a7bfe54fb8b089f82a20848d007f5584e34f24e",
  "args": [
    "0x5FbDB2315678afecb367f032d93F642f64180aa3",
    "0xC9a43158891282A2B1475592D5719c001986Aaec",
    "0x1c85638e118b37167e9298c2268758e058DdfDA0",
    "0x7A9Ec1d04904907De0ED7b6839CcdD59c3716AC9"
  ],
  "numDeployments": 1,
  "solcInputHash": "7d6ad44d2e605ec4a57c73ad4e6563dd",
  "bytecode": "0x60a034620000fa57601f620046b838819003918201601f191683019291906001600160401b03841183851017620000ff578160809284926040968752833981010312620000fa5780516001600160a01b03918282168203620000fa57602081015191838316809303620000fa578482015191848316809303620000fa5760600151938416809403620000fa5733600052603360205284600020600160ff1982541617905560805260018060a01b031991828554161784558160415416176041556042541617604255516145a290816200011682396080518181816104f7015281816109ff015281816112810152818161138e0152612c9b0152f35b600080fd5b634e487b7160e01b600052604160045260246000fdfe60806040908082526004908136101561001757600080fd5b60009060e08235811c918262c5ecd21461176a57508163021a34dd146116d05781630573a06e146115dc5781630bc628fb1461159a5781630f727949146113bd5781631848effa146113795781631c3c0ea8146112445781632670e98d14610e5a5781633946fd4214610e3b5781633954552914610e095781633e5005e514610dcd5781634136de9f14610d7357816346ea87af14610d35578163499a83c714610d0c5781634cc42b5114610c1d5781634d3cb81014610be1578163671e110714610b605781636881d8cb146109c45781636e30e01614610943578163791b98bc1461091a57816379f5927e146108fb5781638168c0b61461085957816386249bab1461083a5781638ffb8b2f146106f357816390a4a768146106b7578163a31a7b441461068e578163ab9b4ca81461066f578163bd40e1c014610646578163be82e5b11461060a578163c0d78655146104ba578163c1872cf3146103d8578163c250985914610372578163f1bd27a814610349578163f887ea4014610320578163f9d244fd1461026857508063fc2a5b1d1461023c5763fca5c793146101bd57600080fd5b34610239576020366003190112610239578261023591833581526036602052209283549360018060a01b036001820154169360028201549560ff60038401541691830154600584015460068501549160078601549460ff600960088901549801541697519a8b9a60ff808960081c169816968c611807565b0390f35b80fd5b508234610264578160031936011261026457805490516001600160a01b039091168152602090f35b5080fd5b8491503461031c576101a0925061028761028136611aeb565b90614135565b908251928251845260018060a01b03602084015116602085015280830151908401526102bb606083015160608501906117e4565b6080820151608084015260a082015160a084015260c0820151151560c0840152808201519083015261010080820151908301526101208082015190830152610140808201519083015261016080820151908301526101808091015190820152f35b8280fd5b82853461026457816003193601126102645760455490516001600160a01b039091168152602090f35b82853461026457816003193601126102645760425490516001600160a01b039091168152602090f35b8234610239576103bb61038436611b0a565b9161038d61329b565b604554336001600160a01b03918216149081156103ca575b5080156103c2575b6103b690611c07565b613a07565b6001805580f35b5060016103ad565b9050604454163314866103a5565b50509034610264576103e936611b0a565b926103ff60018060a01b036044541633146144ae565b808210156104a7578161042957505082936009916104269452603660205284205b01614070565b80f35b90918452603a6020528484209160ff60038401541682811015610494570361045a5750610426929350600990610420565b606490602086519162461bcd60e51b835282015260146024820152730e8e4c2c8ca40e8f2e0ca40dcdee840dac2e8c6d60631b6044820152fd5b634e487b7160e01b865260218352602486fd5b634e487b7160e01b855260219052602484fd5b8285853461031c57602091826003193601126105aa576104d861196d565b81516351331ad760e01b8152936001600160a01b0393919291818682817f000000000000000000000000000000000000000000000000000000000000000089165afa90811561060057859688969596926105be575b50906024839285519687938492637be53ca160e01b84523390840152165afa9182156105b55750859161057a575b506105669150611b57565b1660018060a01b0319604554161760455580f35b905081813d83116105ae575b610590818361194c565b810103126105aa576105a461056691611b4a565b8561055b565b8380fd5b503d610586565b513d87823e3d90fd5b83809296508193503d83116105f9575b6105d8818361194c565b810103126105f557859360246105ee8493611b36565b925061052d565b8680fd5b503d6105ce565b83513d89823e3d90fd5b5050913461031c57602036600319011261031c576104269161063760018060a01b036044541633146144ae565b358352603660205282206140f9565b82853461026457816003193601126102645760445490516001600160a01b039091168152602090f35b8285346102645781600319360112610264576020906039549051908152f35b82853461026457816003193601126102645760415490516001600160a01b039091168152602090f35b5050913461031c57602036600319011261031c57610426916106e460018060a01b036044541633146144ae565b35835260386020528220614081565b83858434610239576060806003193601126102645761071061196d565b610718611988565b6044805490929161074d9161074290336001600160a01b039182161490811561082e575b50611c07565b60249283359061380e565b808552603c602090808252878720541561082a5787872054600019810192908311610818578388525286862061078c9161078691611868565b50611b9f565b60a0810151906080810151908982101561080657860151151590303b15610802576107cb9089519363c250985960e01b85528b850152858401906117e4565b84820152858160648183305af180156107f8576107e9575b5061074d565b6107f2906118cc565b876107e3565b87513d88823e3d90fd5b8780fd5b634e487b7160e01b885260218a528488fd5b634e487b7160e01b885260118a528488fd5b8680f35b8516331490508a61073c565b8285346102645781600319360112610264576020906035549051908152f35b8491503461031c57610160925061087861087236611aeb565b906142ae565b908251928251845260018060a01b03602084015116602085015280830151908401526108ac606083015160608501906117e4565b6080820151608084015260a082015160a084015260c082015160c08401528082015115159083015261010080820151151590830152610120808201519083015261014080910151151590820152f35b828534610264578160031936011261026457602090603b549051908152f35b82853461026457816003193601126102645760435490516001600160a01b039091168152602090f35b83858434610239576020366003190112610239578161023591843581526038602052209182549260018060a01b036001820154169460028201549060ff60038401541690830154600584015460ff600686015416600786015491600887015493600988015495600a89015497600c600b8b01549a01549a519d8e9d8e611a7f565b5050913461031c576020806003193601126105aa576109e161196d565b82516351331ad760e01b81526001600160a01b0394919291828282817f00000000000000000000000000000000000000000000000000000000000000008a165afa918215610b565790869392918892610b18575b50906024839287519889938492637be53ca160e01b84523390840152165afa948515610b0e578695610ab0575b50610a8d7ff105ec4818f6dabbb000fe156cb8096a5e98f3124a5c11a0533c0fc4a7bb678e95611b57565b816043549316918260018060a01b0319851617604355845193168352820152a180f35b94508085813d8311610b07575b610ac7818361194c565b81010312610b0357610a8d610afc7ff105ec4818f6dabbb000fe156cb8096a5e98f3124a5c11a0533c0fc4a7bb678e96611b4a565b9550610a62565b8580fd5b503d610abd565b84513d88823e3d90fd5b83809295508193503d8311610b4f575b610b32818361194c565b810103126105f55785926024610b488493611b36565b9250610a35565b503d610b28565b85513d89823e3d90fd5b83858434610239576020366003190112610239578161023591843581526034602052209182549260018060a01b036001820154169460028201549060ff60038401541690830154600584015460ff600686015416600786015491600887015493600988015495600a89015497600c600b8b01549a01549a519d8e9d8e611a7f565b5050913461031c57602036600319011261031c5761042691610c0e60018060a01b036044541633146144ae565b358352603a60205282206140f9565b929190503461023957602090816003193601126102395782358152603c8252848120938454936001600160401b038511610cf9575094939290918451916005610c6a8383831b018561194c565b8184528284018096865283862086915b848310610ccf5750505050508451958695828701938388525180945286019493905b838210610ca95786860387f35b918496508286610cbf6001949698849851611a2a565b0196019201869594929391610c9c565b8386600192610ce4859e999b9a9c9d9e611b9f565b81520192019201919099989795969499610c7a565b634e487b7160e01b835260419052602482fd5b8285853461031c57602036600319011261031c576020928291358152603e845220549051908152f35b8285346102645760203660031901126102645760209160ff9082906001600160a01b03610d6061196d565b1681526033855220541690519015158152f35b8285853461031c57606036600319011261031c5760243591818310156105aa5761042692610dc891610da3611988565b93610db960018060a01b036044541633146144ae565b358652603f6020528520611997565b614070565b5050913461031c57602036600319011261031c5761042691610dfa60018060a01b036044541633146144ae565b35835260346020528220614081565b8285853461031c578160031936011261031c576020928291358152603d84528181206024358252845220549051908152f35b8285346102645781600319360112610264576020906037549051908152f35b8285853461031c57610e6b366119af565b6045546001600160a01b03939190841633148015611237575b801561122f575b610e9490611c07565b8381511660a082019485519460808401918251968288101561121c57898091885196610ebf88611931565b603b885260209a8b89017f72656d6f76654f7264657246726f6d506f736974696f6e206163636f756e742090528a89017a012b99037b93232b924b21012b9903a3930b232aa3cb8329012b99602d1b90528a519182918d830194637c7a8d8f60e11b865260249b8c85016080905260a48501610f3a916134ea565b926044850152606484015260ff16608483015203601f1981018252610f5f908261194c565b51905a6a636f6e736f6c652e6c6f6790fa508451168685015186860151151590610f889261380e565b9660608501908151151584518481101561120a5790610fa99183519161447a565b898b52603d8952878b20818c528952878b20548a8c52603c8a52888c20546000199291908381019081116111f8578110611152575b508a8c52603d8a52888c20908c5289528a88812055898b52603c8952878b2090815480156111405701906110128282611868565b61112f5785818e8093558260018201558260028201558260038201550155555183518381101561111d57906110889188519161104d83611916565b601d83527f706f736974696f6e4f72646572732072656d6f7665206f7264657249640000008b84015260ff6110806139e2565b9216926144f8565b511592836110bf575b50505061109c578480f35b6110b59260c0603e920151948652528320918254611e2e565b9055818080808480f35b9091809350518281101561110b57159283156110e1575b505050868080611091565b51925090808310156110fa5750506001148680806110d6565b634e487b7160e01b88526021905286fd5b50634e487b7160e01b88526021825287fd5b634e487b7160e01b8b5260218452858bfd5b634e487b7160e01b8d528c8652878dfd5b634e487b7160e01b8d5260318652878dfd5b8b8d52603c8b52898d208054848101919082116111e6576111769161078691611868565b606081015115156080820151888110156111d3578f928f928f8f603c88926111aa6111b5956111bb9860a08901519161447a565b978952528620611868565b906143cc565b8d8252603d8d528b822091528b52898d20558c610fde565b50634e487b7160e01b8f5260218852898ffd5b634e487b7160e01b8f5260118852898ffd5b634e487b7160e01b8e5260118752888efd5b634e487b7160e01b8c5260218552868cfd5b634e487b7160e01b8a526021835260248afd5b506001610e8b565b5083604454163314610e84565b8285853461031c57602091826003193601126105aa5761126261196d565b81516351331ad760e01b8152936001600160a01b0393919291818682817f000000000000000000000000000000000000000000000000000000000000000089165afa908115610600578596889695969261133b575b50906024839285519687938492637be53ca160e01b84523390840152165afa9182156105b557508591611304575b506112f09150611b57565b1660018060a01b0319604454161760445580f35b905081813d8311611334575b61131a818361194c565b810103126105aa5761132e6112f091611b4a565b856112e5565b503d611310565b83809296508193503d8311611372575b611355818361194c565b810103126105f5578593602461136b8493611b36565b92506112b7565b503d61134b565b828534610264578160031936011261026457517f00000000000000000000000000000000000000000000000000000000000000006001600160a01b03168152602090f35b5050913461031c576113ce366119af565b9060018060a01b0380604554163314801561158d575b8015611585575b6113f490611c07565b8251169161140e602093848301518484015115159161380e565b9360608201805115159060808401918251908482101561155f576114399060a087019283519161447a565b888a52603c8852868a205490603d8952878b20908b528852868a2055878952603c8752858920805490600160401b821015611572576111b5828892600161148295018155611868565b5182518481101561155f57906114ce9187519161149e83611916565b601a8352791c1bdcda5d1a5bdb93dc99195c9cc8185919081bdc99195c925960321b8a84015260ff6110806139e2565b51159182611504575b50506114e1578480f35b6114fa9260c0603e920151948652528320918254613552565b9055388080808480f35b90809250518181101561154c5715918215611523575b505038806114d7565b519150808210156115395750600114388061151a565b634e487b7160e01b875260219052602486fd5b634e487b7160e01b885260218252602488fd5b634e487b7160e01b8a526021855260248afd5b634e487b7160e01b8b526041865260248bfd5b5060016113eb565b50806044541633146113e4565b8285853461031c578160031936011261031c5760243590808210156105aa5760ff91836020956115d193358152603f875220611997565b541690519015158152f35b905083913461023957610160366003190112610239578251936115fe8561189a565b61160661196d565b855260243560208601526044359081101561026457838501526064356060850152608435608085015260a435908115158203610239575060a084015260c43560c084015260e435908301526101043561010083015261012435610120830152610144356101408301526020916116ad9061167e61329b565b6116a860018060a01b0380835116816045541633149182156116c2575b5081156116b85750611c07565b611e9d565b906001805551908152f35b905033148661073c565b60445416331491508761169b565b838584346102395781600319360112610239576024359083358152603c60205282812090815483101561023957509061170891611868565b5061175e60018060a01b03825416936001830154936002840154916003850154940154948151968752602087015260ff821615159086015260ff8160081c161515606086015260ff608086019160101c166117e4565b60a083015260c0820152f35b83908587346105aa5760203660031901126105aa579061023591839482358152603a6020522080549160018060a01b036001830154169260028301549160ff6003850154169084015460058501549060068601549260078701549560ff600960088a0154990154169860ff808960081c169816968c611807565b9060048210156117f15752565b634e487b7160e01b600052602160045260246000fd5b99969361014099969361183d929d9c9996936101608d019e8d5260018060a01b031660208d015260408c015260608b01906117e4565b608089015260a088015260c0870152151560e086015215156101008501526101208401521515910152565b8054821015611884576000526005602060002091020190600090565b634e487b7160e01b600052603260045260246000fd5b61016081019081106001600160401b038211176118b657604052565b634e487b7160e01b600052604160045260246000fd5b6001600160401b0381116118b657604052565b60e081019081106001600160401b038211176118b657604052565b6101a081019081106001600160401b038211176118b657604052565b604081019081106001600160401b038211176118b657604052565b606081019081106001600160401b038211176118b657604052565b90601f801991011681019081106001600160401b038211176118b657604052565b600435906001600160a01b038216820361198357565b600080fd5b60443590811515820361198357565b9060048110156117f157600052602052604060002090565b60e0906003190112611983576040516119c7816118df565b6004356001600160a01b0381168103611983578152602435602082015260443580151581036119835760408201526064358015158103611983576060820152608435600481101561198357608082015260a43560a082015260c43560c082015290565b60c0809160018060a01b03815116845260208101516020850152604081015115156040850152606081015115156060850152611a6e608082015160808601906117e4565b60a081015160a08501520151910152565b9a98969492909d9c9b99979593916101a08c019e8c52600160a01b600190031660208c015260408b015260608a01611ab6916117e4565b608089015260a0880152151560c087015260e08601526101008501526101208401526101408301526101608201526101800152565b6040906003190112611983576004359060243560048110156119835790565b606090600319011261198357600435906024356004811015611983579060443580151581036119835790565b51906001600160a01b038216820361198357565b5190811515820361198357565b15611b5e57565b60405162461bcd60e51b815260206004820152600d60248201526c37b7363ca837b7b620b236b4b760991b6044820152606490fd5b60048210156117f15752565b90604051611bac816118df565b60c06004829460018060a01b03815416845260018101546020850152611bf660ff600283015481811615156040880152818160081c161515606088015260101c1660808601611b93565b600381015460a08501520154910152565b15611c0e57565b60405162461bcd60e51b81526020600482015260096024820152686e6f2061636365737360b81b6044820152606490fd5b908160e09103126119835760c060405191611c59836118df565b611c6281611b36565b8352611c7060208201611b36565b6020840152611c8160408201611b36565b6040840152611c9260608201611b4a565b60608401526080810151608084015260a081015160a0840152015160c082015290565b80916101409283910312611983576040519182018281106001600160401b038211176118b65760405280518252611cee60208201611b36565b602083015260408101516040830152611d0960608201611b4a565b60608301526080810151608083015260a081015160a083015260c081015160c083015260e081015160e08301526101008082015190830152610120809101519082015290565b6001600160a01b0390911681526020810191909152901515604082015260600190565b8091610100928391031261198357604051918201908282106001600160401b038311176118b65760e091604052805183526020810151602084015260408101516040840152606081015160608401526080810151608084015260a081015160a084015260c081015160c0840152015160e082015290565b15611df057565b60405162461bcd60e51b815260206004820152601660248201527574702f736c2065786365656473206d61782073697a6560501b6044820152606490fd5b91908203918211611e3b57565b634e487b7160e01b600052601160045260246000fd5b15611e5857565b60405162461bcd60e51b815260206004820152601f60248201527f646563726561736520616d6f756e742065786365656420706f736974696f6e006044820152606490fd5b6043546000916001600160a01b039091169081156132675780516042546040516372c1cc1b60e11b81526001600160a01b0392831660048201819052949190921691602081602481865afa90811561325c578691613222575b506131e9576040805460208501519151632f7ce47360e21b815260048101929092529092906001600160a01b031660e084602481845afa9384156131de5787946131ad575b5060608401511561316d576040850151600481101561315957158015613142575b612c15575b5050505060408101516004811015612c01576002148015612bea575b612ae3575b60c081019083825181811360001461251b57505060208101519160408201519060048210156125075760608301519060808401519060a0850151151590519160e086015193611ffb610100880151966101406101208a0151990151996040519b611feb8d61189a565b8c5260208c015260408b01611b93565b6060890152608088015260a087015260c086015260e085015261010084015261012083015261014082015260018060a01b0381511691602082015160408301516004811015612372576060840151608085015160a0860151151560c08701519060e088015192610100890151946101208a0151966101408b0151986040519c6120838e6118fa565b8b8e5260208e015260408d015261209d9060608d01611b93565b60808b015260a08a015260c089015260e088015261010087015261012086015261014085015261016084015242610180840152604082015160048110156124f357612386576035548084526120f181614049565b603555815260346020908152604080832085518155918501516001830180546001600160a01b0319166001600160a01b03929092169190911790558401516002820155606084015160048110156123725761214f9060038301614058565b6080840151600482015560a0840151600582015561217660c0850151151560068301614070565b60e0840151600782015561010084015160088201556101208401516009820155610140840151600a820155610160840151600b820155600c6101808501519101555b60018060a01b03602084015116604084015160c085015115156060860151600481101561235e576122159087519260e089015194604051966121f9886118df565b8752602087015260408601526001606086015260808501611b93565b60a083015260c0820152303b1561026457604051630f72794960e01b815290612242906004830190611a2a565b818160e48183305af180156123535790829161233f575b505060018060a01b0360208401511691835191602082015190604083015190600482101561232b57509161018093917fe83629b11df9fcc6b9ebc666eb284c939d1710576a8d3eac23474d70fae8d47895936060830151608084015160a085015115159060c0860151926122fa60e088015195610100890151976101406101208b01519a01519a6040519c8d5260208d015260408c015260608b01906117e4565b608089015260a088015260c087015260e0860152610100850152610120840152610140830152610160820152a15190565b634e487b7160e01b81526021600452602490fd5b612348906118cc565b610239578038612259565b6040513d84823e3d90fd5b634e487b7160e01b85526021600452602485fd5b634e487b7160e01b83526021600452602483fd5b604082015160048110156124f3576001036124d6576039548084526123aa81614049565b603955815260386020908152604080832085518155918501516001830180546001600160a01b0319166001600160a01b0392909216919091179055840151600282015560608401516004811015612372576124089060038301614058565b6080840151600482015560a0840151600582015561242f60c0850151151560068301614070565b60e0840151600782015561010084015160088201556101208401516009820155610140840151600a820155610160840151600b820155600c6101808501519101556124d18351603954906040519061248682611916565b60078252661bdc99195c925960ca1b6020830152604051916124a783611916565b60188352770d2dcc6e4cac2e6ca98d2dad2e89ee4c8cae4e692dcc8caf60431b60208401526144f8565b6121b8565b60405162461bcd60e51b8152806124ef6004820161401c565b0390fd5b634e487b7160e01b82526021600452602482fd5b634e487b7160e01b86526021600452602486fd5b1215612ab257602081015191604082015160048110156125075761257260608401519160a061254f6080870151955161353b565b95015115159560405197612562896118df565b8852602088015260408701611b93565b6060850152608084015260a083015260c082015260018060a01b03815116916020820151604083015160048110156123725760608401516080850151906125e360a08701519360c0880151151595604051996125cd8b61189a565b888b5260208b015260408a015260608901611b93565b608087015260a086015260c085015260e0840152806101008401524261012084015280610140840152604082015160048110156124f3576128645760375480845260c0830151151561010085015261263a81614049565b603755815260366020908152604080832085518155918501516001830180546001600160a01b0319166001600160a01b0392909216919091179055840151600282015560608401516004811015612372579061269c6127099260038301614058565b6080850151600482015560a0850151600582015560c085015160068201556126ed600782016126d160e0880151151582614070565b610100870151815461ff00191690151560081b61ff0016179055565b6101208501516008820155600961014086015115159101614070565b60018060a01b03602084015116604084015160e085015115156060860151600481101561235e576127659087519260c0890151946040519661274a886118df565b87526020870152604086015285606086015260808501611b93565b60a083015260c0820152303b1561026457604051630f72794960e01b815290612792906004830190611a2a565b818160e48183305af1801561235357612855575b506020830151835160408401516001600160a01b03909216939092600483101561232b5750917fe71a68544c2c9cf2a006d283baa849468003198fa8d8026335170198a30349dd9391836060610120950151602082015160808301519161283160c060a08601519501511515956101008c0151151597604051998a5260208a015260408901906117e4565b6060870152608086015260a085015260c084015260e0830152610100820152a15190565b61285e906118cc565b386127a6565b604082015160048110156124f3576001036128fb57603b5480845260c08301511561010085015261289481614049565b603b558152603a6020908152604080832085518155918501516001830180546001600160a01b0319166001600160a01b0392909216919091179055840151600282015560608401516004811015612372579061269c6128f69260038301614058565b612709565b604082015160048110156124f3576002036129d657603b5480845260c08301511561010085015261292b81614049565b603b558152603a6020908152604080832085518155918501516001830180546001600160a01b0319166001600160a01b0392909216919091179055840151600282015560608401516004811015612372579061269c61298d9260038301614058565b8151602083015160c08401516129b09290151591906001600160a01b031661380e565b8152603f602052604081206002825260205260408120600160ff19825416179055612709565b604082015160048110156124f3576003036124d657603b5480845260c08301511515610100850152612a0781614049565b603b558152603a6020908152604080832085518155918501516001830180546001600160a01b0319166001600160a01b0392909216919091179055840151600282015560608401516004811015612372579061269c612a699260038301614058565b8151602083015160c0840151612a8c9290151591906001600160a01b031661380e565b8152603f602052604081206003825260205260408120600160ff19825416179055612709565b60405162461bcd60e51b8152602060048201526009602482015268073697a6520657120360bc1b6044820152606490fd5b604254602082015160a083015160405163bc95baad60e01b8152610140939092849284926001600160a01b03169183918291612b26911515908b60048501611d4f565b03915afa908115612bdf5790612b5c92918691612bb2575b5060a0610100850151910151809111159182612ba4575b5050611de9565b606081015115611f825760405162461bcd60e51b81526020600482015260166024820152751b9bc818dbdb1b185d195c985b081c995c5d5a5c995960521b6044820152606490fd5b840151111590503880612b55565b612bd29150823d8411612bd8575b612bca818361194c565b810190611cb5565b38612b3e565b503d612bc0565b6040513d87823e3d90fd5b5060408101516004811015612c0157600314611f7d565b634e487b7160e01b84526021600452602484fd5b60c085015180159081156130bd575b501561308357612c72906101406020870151612c4960a089019182511515908b61380e565b94602089015191511515918a6040519687948593849363bc95baad60e01b855260048501611d4f565b03915afa918215613078578892613055575b50604051631f94a27560e31b8152926020846004817f00000000000000000000000000000000000000000000000000000000000000006001600160a01b03165afa938415612fd6578994613019575b5085516040516341976e0960e01b81526001600160a01b0391821660048201529460209186916024918391165afa938415612fd6578994612fe1575b5061010060408401516024604051809581936330a66e1560e01b835260048301525afa918215612fd6578992612fa3575b5060c087015189811215612e35575b5060c087015189811315612dcf575b50505050506060830151858113612d76575b80611f61565b612dc2612d93612dc794602060018060a01b03910151169261353b565b6040516323b872dd60e01b6020820152938491612db49189602485016132f1565b03601f19810184528361194c565b613313565b388080612d70565b612e2b94612e2493612dfd92612de960608c01519161353b565b825191608060208501519401519489613765565b505060a0612e0e60c089015161353b565b930151908952603e602052604089205490611e2e565b1015611e51565b3880808080612d5e565b612e54906060890151908451602086015191608087015193898961358e565b508015612f675780612e75916101008a015111159081612f57575b50611de9565b610100870151158015612f35575b15612efc57610140870151158015612eda575b15612ea15738612d4f565b60405162461bcd60e51b8152602060048201526011602482015270736c20616c72656164792065786973747360781b6044820152606490fd5b50808952603f6020526040892060038a5260205260ff60408a20541615612e96565b60405162461bcd60e51b8152602060048201526011602482015270747020616c72656164792065786973747360781b6044820152606490fd5b50808952603f6020526040892060028a5260205260ff60408a20541615612e83565b9050610140890151111538612e6f565b60405162461bcd60e51b81526020600482015260146024820152731e995c9bc81c1bdcda5d1a5bdb88185b5bdd5b9d60621b6044820152606490fd5b612fc89192506101003d61010011612fcf575b612fc0818361194c565b810190611d72565b9038612d40565b503d612fb6565b6040513d8b823e3d90fd5b9093506020813d602011613011575b81612ffd6020938361194c565b8101031261300d57519238612d0f565b8880fd5b3d9150612ff0565b9093506020813d60201161304d575b816130356020938361194c565b8101031261300d5761304690611b36565b9238612cd3565b3d9150613028565b6130719192506101403d61014011612bd857612bca818361194c565b9038612c84565b6040513d8a823e3d90fd5b60405162461bcd60e51b8152602060048201526012602482015271696e76616c69642074726164652073697a6560701b6044820152606490fd5b90506130cd60208701519161353b565b604051916330a66e1560e01b8352600483015261010082602481865afa918215612fd657899261311f575b5060408201518110159182613110575b505038612c24565b60600151101590503880613108565b61313b9192506101003d61010011612fcf57612fc0818361194c565b90386130f8565b506040850151600481101561315957600114611f5c565b634e487b7160e01b88526021600452602488fd5b60405162461bcd60e51b81526020600482015260186024820152771d1c985919481c185a5c881b9bdd081cdd5c1c1bdc9d195960421b6044820152606490fd5b6131d091945060e03d60e0116131d7575b6131c8818361194c565b810190611c3f565b9238611f3b565b503d6131be565b6040513d89823e3d90fd5b60405162461bcd60e51b815260206004820152601160248201527030b1b1b7bab73a1034b990333937bd32b760791b6044820152606490fd5b90506020813d602011613254575b8161323d6020938361194c565b81010312610b035761324e90611b4a565b38611ef6565b3d9150613230565b6040513d88823e3d90fd5b60405162461bcd60e51b815260206004820152600c60248201526b7a65726f206164647265737360a01b6044820152606490fd5b6002600154146132ac576002600155565b60405162461bcd60e51b815260206004820152601f60248201527f5265656e7472616e637947756172643a207265656e7472616e742063616c6c006044820152606490fd5b6001600160a01b03918216815291166020820152604081019190915260600190565b60018060a01b03169060405161332881611916565b6020928382527f5361666545524332303a206c6f772d6c6576656c2063616c6c206661696c6564848301526000808486829651910182855af13d1561344b573d916001600160401b03831161343757906133a29392916040519261339588601f19601f840116018561194c565b83523d868885013e613455565b90815190838215928315613415575b5050509050156133be5750565b6084906040519062461bcd60e51b82526004820152602a60248201527f5361666545524332303a204552433230206f7065726174696f6e20646964206e6044820152691bdd081cdd58d8d9595960b21b6064820152fd5b84809293945001031261023957508161342e9101611b4a565b803883816133b1565b634e487b7160e01b85526041600452602485fd5b906133a292916060915b919290156134b75750815115613469575090565b3b156134725790565b60405162461bcd60e51b815260206004820152601d60248201527f416464726573733a2063616c6c20746f206e6f6e2d636f6e74726163740000006044820152606490fd5b8251909150156134ca5750805190602001fd5b60405162461bcd60e51b8152602060048201529081906124ef9060248301905b919082519283825260005b848110613516575050826000602080949584010152601f8019910116010190565b6020818301810151848301820152016134f5565b600160ff1b8114611e3b5760000390565b600081126135465790565b61354f9061352a565b90565b91908201809211611e3b57565b91909160008382019384129112908015821691151617611e3b57565b81810292918115918404141715611e3b57565b96959390929491966135a560a08201968751613552565b978815613754576135ba90608083015161355f565b9560008712613704575190816136e6575b5050600085126136a1576135f0906135eb846135e68861353b565b613849565b61357b565b8610159182613685575b50501561364b5783116136105761354f9061353b565b60405162461bcd60e51b815260206004820152601360248201527232bc31b2b2b21036b0bc103837b9b4ba34b7b760691b6044820152606490fd5b60405162461bcd60e51b81526020600482015260126024820152711b195d995c9859d9481a5b98dbdc9c9958dd60721b6044820152606490fd5b61369792506135eb906135e68661353b565b84111538806135fa565b60405162461bcd60e51b815260206004820152601d60248201527f636f6c6c61746572616c206e6f7420656e6f75676820666f7220706e6c0000006044820152606490fd5b846136fc9397926136f692613789565b9061355f565b9338806135cb565b60405162461bcd60e51b815260206004820152602260248201527f636f6c6c61746572616c206e6f7420656e6f75676820666f7220646563726561604482015261736560f01b6064820152608490fd5b505050505050509050600090600090565b96959390929491966135a560a08201966137828189511015611e51565b8751611e2e565b60c08101908151908185146138045760600151156137da57508051808411156137c2575061354f926137bc915190611e2e565b9061392e565b6137d592915061354f936137bc91611e2e565b61352a565b838111156137f1575061354f926137bc9151611e2e565b6137d59291506137bc9061354f94611e2e565b5050505050600090565b9160405191602083019360018060601b03199060601b1684526034830152151560f81b60548201526035815261384381611931565b51902090565b9068327cb2734119d3b7a9601e1b90600019828409928281029283808610950394808603951461390a57848311156138cd578291096001821901821680920460028082600302188083028203028083028203028083028203028083028203028083028203028092029003029360018380600003040190848311900302920304170290565b60405162461bcd60e51b81526020600482015260156024820152744d6174683a206d756c446976206f766572666c6f7760581b6044820152606490fd5b505080925015613918570490565b634e487b7160e01b600052601260045260246000fd5b90600019818309818302918280831092039180830392146139955768327cb2734119d3b7a9601e1b90828211156138cd577f7d33c22789773a07feda8b6f0930e26fa397c439f1d5cf4b2eb27d7306d2dc99940990828211900360e21b9103601e1c170290565b505068327cb2734119d3b7a9601e1b9004919050565b604051906139b882611916565b601b82527a18d85b98d95b125b98dc99585cd953dc99195c881bdc99195c9259602a1b6020830152565b604051906139ef82611916565b600982526874726164655479706560b81b6020830152565b600493929060008584101561400957613a1e6139ab565b82613a276139e2565b60ff871691613a35936144f8565b613a3d6139ab565b90604092835195613a4d87611916565b600a8752602095868801696973496e63726561736560b01b90528380875189810190637d24491d60e01b82528060809c8d9a60249b8c84015260a48301613a93916134ea565b896044840152602319838203016064840152613aae916134ea565b861515608483015203601f1981018252613ac8908261194c565b51905a6a636f6e736f6c652e6c6f6790fa5015613d6557613ae891614135565b848101805191956001600160a01b0392831615613d5957828654168688019060e08c888451918b519485938492632f7ce47360e21b84528301525afa908115613d31578691613d3b575b5089890151868113613cc6575b50508383511690518b60c08a015115159a60608b019b8c5192831015613cb45791613b92918c9360e08551950151958d5197613b7a896118df565b8852888801528c870152600160608701528501611b93565b60a083015260c0820152303b15613cb0578651632670e98d60e01b815290613bbd908c830190611a2a565b848160e48183305af18015613ca657908591613c92575b505087518a811015613c8057613c4f576034908751855252613bf7858420614081565b5116935194519680881015613c3f575050507f7e93a6b00cb3caacf000d7018943b12e2b4ad29e7849df14ebd51caf4fd739b89394613c3a9151938493846140cf565b0390a1565b634e487b7160e01b825260219052fd5b87518a811015613c8057600114613c67575b50613bf7565b6038908751855252613c7a858420614081565b38613c61565b634e487b7160e01b855260218b528585fd5b613c9b906118cc565b6105aa578338613bd4565b87513d87823e3d90fd5b8480fd5b634e487b7160e01b895260218f528989fd5b858481604354169301511691613cdf878751169261353b565b92813b1561300d57908892918f8490613d0b8e5197889687958694630d172a0160e01b865285016132f1565b03925af18015613d315790869115613b3f57613d26906118cc565b613cb0578438613b3f565b88513d88823e3d90fd5b613d53915060e03d81116131d7576131c8818361194c565b38613b32565b50505050505050509050565b613d6e916142ae565b848101805191956001600160a01b0392831615613d5957828654168688019060e08c888451918b519485938492632f7ce47360e21b84528301525afa908115613d31578691613feb575b5084838b8b015192888413613f82575b5050905083511681519060e08a01918d835115159c60608d019d8e5192831015613f6e5791613e1e918e938e60c0865196015196815198613e088a6118df565b89528b8901528701528b60608701528501611b93565b60a083015260c0820152303b156105f5578851632670e98d60e01b815290613e4990828f0190611a2a565b868160e48183305af18015613f6457613f4d575b5090613e7391858551169151905115159161380e565b88518b811015613f3b57613ed857506036908751855252613e958584206140f9565b5116935194519680881015613c3f575050507fb225fd6bcccad9342bc10ccc7e25ef77175b77348c8393d669ac2dbc98a1ae299394613c3a9151938493846140cf565b88518b811015613f3b57600103613f025750603a908751855252613efd8584206140f9565b613e95565b8452603f81528584208851908b821015613f3b57603a9291613f2391611997565b60ff1981541690558751855252613efd8584206140f9565b634e487b7160e01b865260218c528686fd5b95613f5c613e739392976118cc565b959091613e5d565b89513d89823e3d90fd5b508f8a60218d92634e487b7160e01b835252fd5b015116613f92868651169261353b565b89519263a9059cbb60e01b86850152898401526044830152604482528a82018281106001600160401b03821117613fd8578952613fcf9190613313565b38848382613dc8565b50634e487b7160e01b875260418d528787fd5b614003915060e03d81116131d7576131c8818361194c565b38613db8565b634e487b7160e01b815260218652602490fd5b606090602081526012602082015271696e76616c6964207472616465207479706560701b60408201520190565b6000198114611e3b5760010190565b9060048110156117f15760ff80198354169116179055565b9060ff801983541691151516179055565b600c60009182815582600182015582600282015582600382015582600482015582600582015582600682015582600782015582600882015582600982015582600a82015582600b8201550155565b6001600160a01b03909116815260208101919091526060810192916140f791604001906117e4565b565b60096000918281558260018201558260028201558260038201558260048201558260058201558260068201558260078201558260088201550155565b919091604090815190614147826118fa565b60009485835285602084015285848401528560608401528560808401528560a08401528560c08401528560e08401526101009186838501526101208781860152610140918883870152610160938985880152610180968a8882015250600481101561429a578061425e57509588600c969782999a52603460205220938751976141cf896118fa565b8554895260018601546001600160a01b031660208a015260028601549089015260038501546142049060ff1660608a01611b93565b60048501546080890152600585015460a089015260ff600686015416151560c0890152600785015460e0890152600885015490880152600984015490870152600a83015490860152600b8201549085015201549082015290565b600103614282579588600c969782999a52603860205220938751976141cf896118fa565b865162461bcd60e51b8152806124ef6004820161401c565b634e487b7160e01b8a52602160045260248afd5b906040918251916142be8361189a565b600080845280602085015280858501528060608501528060808501528060a08501528060c08501528060e0850152610100928184860152610120928284870152826101408097015260048110156123725760ff9492600994928892156000146143b7578152603660205220918651966143368861189a565b8354885260018401546001600160a01b03166020890152600284015490880152600383015461436a90861660608901611b93565b60048301546080880152600583015460a0880152600683015460c0880152846007840154818116151560e08a015260081c1615159087015260088201549086015201541615159082015290565b8152603a60205220918651966143368861189a565b919061446457805182546001600160a01b0319166001600160a01b039190911617825560208101516001830155604081015160028301919061441090151583614070565b6060810151825461ff00191690151560081b61ff001617825560808101519060048210156117f1578260c09262ff0000600495549160101b169062ff0000191617905560a081015160038501550151910155565b634e487b7160e01b600052600060045260246000fd5b91604051916020830193151560f81b845260048110156117f15760f81b602183015260228201526022815261384381611931565b156144b557565b60405162461bcd60e51b815260206004820152601b60248201527a2837b9b4ba34b7b71026b0b730b3b2b91d103337b93134b23232b760291b6044820152606490fd5b9061455960009493859461454560405194859361452e602086019863c67ea9d160e01b8a526080602488015260a48701906134ea565b9160448601526023198583030160648601526134ea565b90608483015203601f19810183528261194c565b51906a636f6e736f6c652e6c6f675afa5056fea26469706673582212209a93bc686056729145f92623f36920602088735cc79ea4bfbead3b39a016dff264736f6c63430008110033",
  "devdoc": {
    "kind": "dev",
    "methods": {},
    "version": 1
  },
  "userdoc": {
    "kind": "user",
    "methods": {},
    "version": 1
  },
  "storageLayout": {
    "storage": [
      {
        "astId": 6,
        "contract": "contracts/trading/OrderManager.sol:OrderManager",
        "label": "_initialized",
        "offset": 0,
        "slot": "0",
        "type": "t_uint8"
      },
      {
        "astId": 9,
        "contract": "contracts/trading/OrderManager.sol:OrderManager",
        "label": "_initializing",
        "offset": 1,
        "slot": "0",
        "type": "t_bool"
      },
      {
        "astId": 182,
        "contract": "contracts/trading/OrderManager.sol:OrderManager",
        "label": "_status",
        "offset": 0,
        "slot": "1",
        "type": "t_uint256"
      },
      {
        "astId": 251,
        "contract": "contracts/trading/OrderManager.sol:OrderManager",
        "label": "__gap",
        "offset": 0,
        "slot": "2",
        "type": "t_array(t_uint256)49_storage"
      },
      {
        "astId": 14651,
        "contract": "contracts/trading/OrderManager.sol:OrderManager",
        "label": "isHandler",
        "offset": 0,
        "slot": "51",
        "type": "t_mapping(t_address,t_bool)"
      },
      {
        "astId": 15101,
        "contract": "contracts/trading/OrderManager.sol:OrderManager",
        "label": "increaseMarketOrders",
        "offset": 0,
        "slot": "52",
        "type": "t_mapping(t_uint256,t_struct(IncreasePositionOrder)14821_storage)"
      },
      {
        "astId": 15104,
        "contract": "contracts/trading/OrderManager.sol:OrderManager",
        "label": "increaseMarketOrdersIndex",
        "offset": 0,
        "slot": "53",
        "type": "t_uint256"
      },
      {
        "astId": 15109,
        "contract": "contracts/trading/OrderManager.sol:OrderManager",
        "label": "decreaseMarketOrders",
        "offset": 0,
        "slot": "54",
        "type": "t_mapping(t_uint256,t_struct(DecreasePositionOrder)14845_storage)"
      },
      {
        "astId": 15112,
        "contract": "contracts/trading/OrderManager.sol:OrderManager",
        "label": "decreaseMarketOrdersIndex",
        "offset": 0,
        "slot": "55",
        "type": "t_uint256"
      },
      {
        "astId": 15117,
        "contract": "contracts/trading/OrderManager.sol:OrderManager",
        "label": "increaseLimitOrders",
        "offset": 0,
        "slot": "56",
        "type": "t_mapping(t_uint256,t_struct(IncreasePositionOrder)14821_storage)"
      },
      {
        "astId": 15120,
        "contract": "contracts/trading/OrderManager.sol:OrderManager",
        "label": "increaseLimitOrdersIndex",
        "offset": 0,
        "slot": "57",
        "type": "t_uint256"
      },
      {
        "astId": 15125,
        "contract": "contracts/trading/OrderManager.sol:OrderManager",
        "label": "decreaseLimitOrders",
        "offset": 0,
        "slot": "58",
        "type": "t_mapping(t_uint256,t_struct(DecreasePositionOrder)14845_storage)"
      },
      {
        "astId": 15128,
        "contract": "contracts/trading/OrderManager.sol:OrderManager",
        "label": "decreaseLimitOrdersIndex",
        "offset": 0,
        "slot": "59",
        "type": "t_uint256"
      },
      {
        "astId": 15134,
        "contract": "contracts/trading/OrderManager.sol:OrderManager",
        "label": "positionOrders",
        "offset": 0,
        "slot": "60",
        "type": "t_mapping(t_bytes32,t_array(t_struct(PositionOrder)13513_storage)dyn_storage)"
      },
      {
        "astId": 15140,
        "contract": "contracts/trading/OrderManager.sol:OrderManager",
        "label": "positionOrderIndex",
        "offset": 0,
        "slot": "61",
        "type": "t_mapping(t_bytes32,t_mapping(t_bytes32,t_uint256))"
      },
      {
        "astId": 15144,
        "contract": "contracts/trading/OrderManager.sol:OrderManager",
        "label": "positionDecreaseTotalAmount",
        "offset": 0,
        "slot": "62",
        "type": "t_mapping(t_bytes32,t_uint256)"
      },
      {
        "astId": 15151,
        "contract": "contracts/trading/OrderManager.sol:OrderManager",
        "label": "positionHasTpSl",
        "offset": 0,
        "slot": "63",
        "type": "t_mapping(t_bytes32,t_mapping(t_enum(TradeType)14714,t_bool))"
      },
      {
        "astId": 15154,
        "contract": "contracts/trading/OrderManager.sol:OrderManager",
        "label": "pairInfo",
        "offset": 0,
        "slot": "64",
        "type": "t_contract(IPairInfo)14945"
      },
      {
        "astId": 15157,
        "contract": "contracts/trading/OrderManager.sol:OrderManager",
        "label": "pairVault",
        "offset": 0,
        "slot": "65",
        "type": "t_contract(IPairVault)15048"
      },
      {
        "astId": 15160,
        "contract": "contracts/trading/OrderManager.sol:OrderManager",
        "label": "tradingVault",
        "offset": 0,
        "slot": "66",
        "type": "t_contract(ITradingVault)14050"
      },
      {
        "astId": 15163,
        "contract": "contracts/trading/OrderManager.sol:OrderManager",
        "label": "positionManager",
        "offset": 0,
        "slot": "67",
        "type": "t_contract(IPositionManager)13672"
      },
      {
        "astId": 15165,
        "contract": "contracts/trading/OrderManager.sol:OrderManager",
        "label": "addressExecutor",
        "offset": 0,
        "slot": "68",
        "type": "t_address"
      },
      {
        "astId": 15167,
        "contract": "contracts/trading/OrderManager.sol:OrderManager",
        "label": "router",
        "offset": 0,
        "slot": "69",
        "type": "t_address"
      }
    ],
    "types": {
      "t_address": {
        "encoding": "inplace",
        "label": "address",
        "numberOfBytes": "20"
      },
      "t_array(t_struct(PositionOrder)13513_storage)dyn_storage": {
        "base": "t_struct(PositionOrder)13513_storage",
        "encoding": "dynamic_array",
        "label": "struct IOrderManager.PositionOrder[]",
        "numberOfBytes": "32"
      },
      "t_array(t_uint256)49_storage": {
        "base": "t_uint256",
        "encoding": "inplace",
        "label": "uint256[49]",
        "numberOfBytes": "1568"
      },
      "t_bool": {
        "encoding": "inplace",
        "label": "bool",
        "numberOfBytes": "1"
      },
      "t_bytes32": {
        "encoding": "inplace",
        "label": "bytes32",
        "numberOfBytes": "32"
      },
      "t_contract(IPairInfo)14945": {
        "encoding": "inplace",
        "label": "contract IPairInfo",
        "numberOfBytes": "20"
      },
      "t_contract(IPairVault)15048": {
        "encoding": "inplace",
        "label": "contract IPairVault",
        "numberOfBytes": "20"
      },
      "t_contract(IPositionManager)13672": {
        "encoding": "inplace",
        "label": "contract IPositionManager",
        "numberOfBytes": "20"
      },
      "t_contract(ITradingVault)14050": {
        "encoding": "inplace",
        "label": "contract ITradingVault",
        "numberOfBytes": "20"
      },
      "t_enum(TradeType)14714": {
        "encoding": "inplace",
        "label": "enum TradingTypes.TradeType",
        "numberOfBytes": "1"
      },
      "t_int256": {
        "encoding": "inplace",
        "label": "int256",
        "numberOfBytes": "32"
      },
      "t_mapping(t_address,t_bool)": {
        "encoding": "mapping",
        "key": "t_address",
        "label": "mapping(address => bool)",
        "numberOfBytes": "32",
        "value": "t_bool"
      },
      "t_mapping(t_bytes32,t_array(t_struct(PositionOrder)13513_storage)dyn_storage)": {
        "encoding": "mapping",
        "key": "t_bytes32",
        "label": "mapping(bytes32 => struct IOrderManager.PositionOrder[])",
        "numberOfBytes": "32",
        "value": "t_array(t_struct(PositionOrder)13513_storage)dyn_storage"
      },
      "t_mapping(t_bytes32,t_mapping(t_bytes32,t_uint256))": {
        "encoding": "mapping",
        "key": "t_bytes32",
        "label": "mapping(bytes32 => mapping(bytes32 => uint256))",
        "numberOfBytes": "32",
        "value": "t_mapping(t_bytes32,t_uint256)"
      },
      "t_mapping(t_bytes32,t_mapping(t_enum(TradeType)14714,t_bool))": {
        "encoding": "mapping",
        "key": "t_bytes32",
        "label": "mapping(bytes32 => mapping(enum TradingTypes.TradeType => bool))",
        "numberOfBytes": "32",
        "value": "t_mapping(t_enum(TradeType)14714,t_bool)"
      },
      "t_mapping(t_bytes32,t_uint256)": {
        "encoding": "mapping",
        "key": "t_bytes32",
        "label": "mapping(bytes32 => uint256)",
        "numberOfBytes": "32",
        "value": "t_uint256"
      },
      "t_mapping(t_enum(TradeType)14714,t_bool)": {
        "encoding": "mapping",
        "key": "t_enum(TradeType)14714",
        "label": "mapping(enum TradingTypes.TradeType => bool)",
        "numberOfBytes": "32",
        "value": "t_bool"
      },
      "t_mapping(t_uint256,t_struct(DecreasePositionOrder)14845_storage)": {
        "encoding": "mapping",
        "key": "t_uint256",
        "label": "mapping(uint256 => struct TradingTypes.DecreasePositionOrder)",
        "numberOfBytes": "32",
        "value": "t_struct(DecreasePositionOrder)14845_storage"
      },
      "t_mapping(t_uint256,t_struct(IncreasePositionOrder)14821_storage)": {
        "encoding": "mapping",
        "key": "t_uint256",
        "label": "mapping(uint256 => struct TradingTypes.IncreasePositionOrder)",
        "numberOfBytes": "32",
        "value": "t_struct(IncreasePositionOrder)14821_storage"
      },
      "t_struct(DecreasePositionOrder)14845_storage": {
        "encoding": "inplace",
        "label": "struct TradingTypes.DecreasePositionOrder",
        "members": [
          {
            "astId": 14823,
            "contract": "contracts/trading/OrderManager.sol:OrderManager",
            "label": "orderId",
            "offset": 0,
            "slot": "0",
            "type": "t_uint256"
          },
          {
            "astId": 14825,
            "contract": "contracts/trading/OrderManager.sol:OrderManager",
            "label": "account",
            "offset": 0,
            "slot": "1",
            "type": "t_address"
          },
          {
            "astId": 14827,
            "contract": "contracts/trading/OrderManager.sol:OrderManager",
            "label": "pairIndex",
            "offset": 0,
            "slot": "2",
            "type": "t_uint256"
          },
          {
            "astId": 14830,
            "contract": "contracts/trading/OrderManager.sol:OrderManager",
            "label": "tradeType",
            "offset": 0,
            "slot": "3",
            "type": "t_enum(TradeType)14714"
          },
          {
            "astId": 14832,
            "contract": "contracts/trading/OrderManager.sol:OrderManager",
            "label": "collateral",
            "offset": 0,
            "slot": "4",
            "type": "t_int256"
          },
          {
            "astId": 14834,
            "contract": "contracts/trading/OrderManager.sol:OrderManager",
            "label": "triggerPrice",
            "offset": 0,
            "slot": "5",
            "type": "t_uint256"
          },
          {
            "astId": 14836,
            "contract": "contracts/trading/OrderManager.sol:OrderManager",
            "label": "sizeAmount",
            "offset": 0,
            "slot": "6",
            "type": "t_uint256"
          },
          {
            "astId": 14838,
            "contract": "contracts/trading/OrderManager.sol:OrderManager",
            "label": "isLong",
            "offset": 0,
            "slot": "7",
            "type": "t_bool"
          },
          {
            "astId": 14840,
            "contract": "contracts/trading/OrderManager.sol:OrderManager",
            "label": "abovePrice",
            "offset": 1,
            "slot": "7",
            "type": "t_bool"
          },
          {
            "astId": 14842,
            "contract": "contracts/trading/OrderManager.sol:OrderManager",
            "label": "blockTime",
            "offset": 0,
            "slot": "8",
            "type": "t_uint256"
          },
          {
            "astId": 14844,
            "contract": "contracts/trading/OrderManager.sol:OrderManager",
            "label": "needADL",
            "offset": 0,
            "slot": "9",
            "type": "t_bool"
          }
        ],
        "numberOfBytes": "320"
      },
      "t_struct(IncreasePositionOrder)14821_storage": {
        "encoding": "inplace",
        "label": "struct TradingTypes.IncreasePositionOrder",
        "members": [
          {
            "astId": 14795,
            "contract": "contracts/trading/OrderManager.sol:OrderManager",
            "label": "orderId",
            "offset": 0,
            "slot": "0",
            "type": "t_uint256"
          },
          {
            "astId": 14797,
            "contract": "contracts/trading/OrderManager.sol:OrderManager",
            "label": "account",
            "offset": 0,
            "slot": "1",
            "type": "t_address"
          },
          {
            "astId": 14799,
            "contract": "contracts/trading/OrderManager.sol:OrderManager",
            "label": "pairIndex",
            "offset": 0,
            "slot": "2",
            "type": "t_uint256"
          },
          {
            "astId": 14802,
            "contract": "contracts/trading/OrderManager.sol:OrderManager",
            "label": "tradeType",
            "offset": 0,
            "slot": "3",
            "type": "t_enum(TradeType)14714"
          },
          {
            "astId": 14804,
            "contract": "contracts/trading/OrderManager.sol:OrderManager",
            "label": "collateral",
            "offset": 0,
            "slot": "4",
            "type": "t_int256"
          },
          {
            "astId": 14806,
            "contract": "contracts/trading/OrderManager.sol:OrderManager",
            "label": "openPrice",
            "offset": 0,
            "slot": "5",
            "type": "t_uint256"
          },
          {
            "astId": 14808,
            "contract": "contracts/trading/OrderManager.sol:OrderManager",
            "label": "isLong",
            "offset": 0,
            "slot": "6",
            "type": "t_bool"
          },
          {
            "astId": 14810,
            "contract": "contracts/trading/OrderManager.sol:OrderManager",
            "label": "sizeAmount",
            "offset": 0,
            "slot": "7",
            "type": "t_uint256"
          },
          {
            "astId": 14812,
            "contract": "contracts/trading/OrderManager.sol:OrderManager",
            "label": "tpPrice",
            "offset": 0,
            "slot": "8",
            "type": "t_uint256"
          },
          {
            "astId": 14814,
            "contract": "contracts/trading/OrderManager.sol:OrderManager",
            "label": "tp",
            "offset": 0,
            "slot": "9",
            "type": "t_uint256"
          },
          {
            "astId": 14816,
            "contract": "contracts/trading/OrderManager.sol:OrderManager",
            "label": "slPrice",
            "offset": 0,
            "slot": "10",
            "type": "t_uint256"
          },
          {
            "astId": 14818,
            "contract": "contracts/trading/OrderManager.sol:OrderManager",
            "label": "sl",
            "offset": 0,
            "slot": "11",
            "type": "t_uint256"
          },
          {
            "astId": 14820,
            "contract": "contracts/trading/OrderManager.sol:OrderManager",
            "label": "blockTime",
            "offset": 0,
            "slot": "12",
            "type": "t_uint256"
          }
        ],
        "numberOfBytes": "416"
      },
      "t_struct(PositionOrder)13513_storage": {
        "encoding": "inplace",
        "label": "struct IOrderManager.PositionOrder",
        "members": [
          {
            "astId": 13499,
            "contract": "contracts/trading/OrderManager.sol:OrderManager",
            "label": "account",
            "offset": 0,
            "slot": "0",
            "type": "t_address"
          },
          {
            "astId": 13501,
            "contract": "contracts/trading/OrderManager.sol:OrderManager",
            "label": "pairIndex",
            "offset": 0,
            "slot": "1",
            "type": "t_uint256"
          },
          {
            "astId": 13503,
            "contract": "contracts/trading/OrderManager.sol:OrderManager",
            "label": "isLong",
            "offset": 0,
            "slot": "2",
            "type": "t_bool"
          },
          {
            "astId": 13505,
            "contract": "contracts/trading/OrderManager.sol:OrderManager",
            "label": "isIncrease",
            "offset": 1,
            "slot": "2",
            "type": "t_bool"
          },
          {
            "astId": 13508,
            "contract": "contracts/trading/OrderManager.sol:OrderManager",
            "label": "tradeType",
            "offset": 2,
            "slot": "2",
            "type": "t_enum(TradeType)14714"
          },
          {
            "astId": 13510,
            "contract": "contracts/trading/OrderManager.sol:OrderManager",
            "label": "orderId",
            "offset": 0,
            "slot": "3",
            "type": "t_uint256"
          },
          {
            "astId": 13512,
            "contract": "contracts/trading/OrderManager.sol:OrderManager",
            "label": "sizeAmount",
            "offset": 0,
            "slot": "4",
            "type": "t_uint256"
          }
        ],
        "numberOfBytes": "160"
      },
      "t_uint256": {
        "encoding": "inplace",
        "label": "uint256",
        "numberOfBytes": "32"
      },
      "t_uint8": {
        "encoding": "inplace",
        "label": "uint8",
        "numberOfBytes": "1"
      }
    }
  }
}