{
  "address": "0x4631BCAbD6dF18D94796344963cB60d44a4136b6",
  "abi": [
    {
      "inputs": [
        {
          "internalType": "contract IAddressesProvider",
          "name": "addressProvider",
          "type": "address"
        },
        {
          "internalType": "contract IPairInfo",
          "name": "_pairInfo",
          "type": "address"
        },
        {
          "internalType": "contract IPairVault",
          "name": "_pairVault",
          "type": "address"
        },
        {
          "internalType": "contract ITradingVault",
          "name": "_tradingVault",
          "type": "address"
        },
        {
          "internalType": "contract IOraclePriceFeed",
          "name": "_vaultPriceFeed",
          "type": "address"
        },
        {
          "internalType": "contract IIndexPriceFeed",
          "name": "_fastPriceFeed",
          "type": "address"
        },
        {
          "internalType": "contract IOrderManager",
          "name": "_orderManager",
          "type": "address"
        }
      ],
      "stateMutability": "nonpayable",
      "type": "constructor"
    },
    {
      "inputs": [],
      "name": "ADDRESS_PROVIDER",
      "outputs": [
        {
          "internalType": "contract IAddressesProvider",
          "name": "",
          "type": "address"
        }
      ],
      "stateMutability": "view",
      "type": "function"
    },
    {
      "inputs": [],
      "name": "fastPriceFeed",
      "outputs": [
        {
          "internalType": "contract IIndexPriceFeed",
          "name": "",
          "type": "address"
        }
      ],
      "stateMutability": "view",
      "type": "function"
    },
    {
      "inputs": [],
      "name": "orderManager",
      "outputs": [
        {
          "internalType": "contract IOrderManager",
          "name": "",
          "type": "address"
        }
      ],
      "stateMutability": "view",
      "type": "function"
    },
    {
      "inputs": [],
      "name": "pairInfo",
      "outputs": [
        {
          "internalType": "contract IPairInfo",
          "name": "",
          "type": "address"
        }
      ],
      "stateMutability": "view",
      "type": "function"
    },
    {
      "inputs": [],
      "name": "pairVault",
      "outputs": [
        {
          "internalType": "contract IPairVault",
          "name": "",
          "type": "address"
        }
      ],
      "stateMutability": "view",
      "type": "function"
    },
    {
      "inputs": [],
      "name": "tradingVault",
      "outputs": [
        {
          "internalType": "contract ITradingVault",
          "name": "",
          "type": "address"
        }
      ],
      "stateMutability": "view",
      "type": "function"
    },
    {
      "inputs": [
        {
          "internalType": "address",
          "name": "token",
          "type": "address"
        },
        {
          "internalType": "address",
          "name": "to",
          "type": "address"
        },
        {
          "internalType": "uint256",
          "name": "amount",
          "type": "uint256"
        }
      ],
      "name": "transferTokenTo",
      "outputs": [],
      "stateMutability": "nonpayable",
      "type": "function"
    },
    {
      "inputs": [],
      "name": "vaultPriceFeed",
      "outputs": [
        {
          "internalType": "contract IOraclePriceFeed",
          "name": "",
          "type": "address"
        }
      ],
      "stateMutability": "view",
      "type": "function"
    }
  ],
  "transactionHash": "0x3314faba8ef486ecedaed307443ec6b1c123557d1629ce287acbdaad700c0a1a",
  "args": [
    "0x5FbDB2315678afecb367f032d93F642f64180aa3",
    "0xC9a43158891282A2B1475592D5719c001986Aaec",
    "0x1c85638e118b37167e9298c2268758e058DdfDA0",
    "0x7A9Ec1d04904907De0ED7b6839CcdD59c3716AC9",
    "0x2E2Ed0Cfd3AD2f1d34481277b3204d807Ca2F8c2",
    "0x8198f5d8F8CfFE8f9C413d98a0A55aEB8ab9FbB7",
    "0x49fd2BE640DB2910c2fAb69bB8531Ab6E76127ff"
  ],
  "numDeployments": 1,
  "solcInputHash": "5825b534ec0c56293904ce8e827e76d7",
  "bytecode": "0x60a03461010e57601f6105b538819003918201601f19168301916001600160401b038311848410176101135780849260e09460405283398101031261010e5780516001600160a01b039190828116810361010e5760208201519183831680930361010e57604081015184811680910361010e5760608201519085821680920361010e5760808301519386851680950361010e5760a08401519387851680950361010e5760c0015196871680970361010e57600160005560805260018060a01b031994856001541617600155846002541617600255836003541617600355826004541617600455816005541617600555600654161760065560405161048b908161012a8239608051816101890152f35b600080fd5b634e487b7160e01b600052604160045260246000fdfe608060408181526004918236101561001657600080fd5b600092833560e01c9182630d172a01146101b8575081631848effa146101745781633a849c211461014857508063a31a7b4414610120578063eeaa783a146100f8578063f1bd27a8146100d0578063f9b6117f146100a85763fc2a5b1d1461007d57600080fd5b346100a457816003193601126100a45760015490516001600160a01b039091168152602090f35b5080fd5b50346100a457816003193601126100a45760065490516001600160a01b039091168152602090f35b50346100a457816003193601126100a45760035490516001600160a01b039091168152602090f35b50346100a457816003193601126100a45760055490516001600160a01b039091168152602090f35b50346100a457816003193601126100a45760025490516001600160a01b039091168152602090f35b9050346101705782600319360112610170575490516001600160a01b03909116815260209150f35b8280fd5b5050346100a457816003193601126100a457517f00000000000000000000000000000000000000000000000000000000000000006001600160a01b03168152602090f35b84828534610170576060366003190112610170576001600160a01b03908235828116919082900361037d576024928335908116809103610343576020928388019163a9059cbb60e01b835285890152604435604489015260448852608088019167ffffffffffffffff988084108a8511176103595760c081018481108b8211176103475785528584527f5361666545524332303a206c6f772d6c6576656c2063616c6c206661696c656460a082015251889182919082855af13d1561036b573d9189831161035957845192601f19603f81601f840116011684019a848c10908c11176103475785969798999a6102b796528352828a883d92013e610381565b8051838115918215610323575b50509050156102d1578480f35b5162461bcd60e51b815292830152602a908201527f5361666545524332303a204552433230206f7065726174696f6e20646964206e6044820152691bdd081cdd58d8d9595960b21b6064820152608490fd5b8380929350010312610343578201518015158103610343578083886102c4565b8580fd5b634e487b7160e01b8a5260418952878afd5b634e487b7160e01b8952604188528689fd5b6102b793949596979850606091610381565b8480fd5b919290156103e35750815115610395575090565b3b1561039e5790565b60405162461bcd60e51b815260206004820152601d60248201527f416464726573733a2063616c6c20746f206e6f6e2d636f6e74726163740000006044820152606490fd5b8251909150156103f65750805190602001fd5b6040519062461bcd60e51b82528160208060048301528251908160248401526000935b82851061043c575050604492506000838284010152601f80199101168101030190fd5b848101820151868601604401529381019385935061041956fea2646970667358221220e44d72456d11eba1a170807397b02e2a14930deb975b12919eb1ac9d9461f03964736f6c63430008110033",
  "devdoc": {
    "kind": "dev",
    "methods": {},
    "version": 1
  },
  "userdoc": {
    "kind": "user",
    "methods": {},
    "version": 1
  },
  "storageLayout": {
    "storage": [
      {
        "astId": 593,
        "contract": "contracts/trading/PositionManager.sol:PositionManager",
        "label": "_status",
        "offset": 0,
        "slot": "0",
        "type": "t_uint256"
      },
      {
        "astId": 9263,
        "contract": "contracts/trading/PositionManager.sol:PositionManager",
        "label": "pairInfo",
        "offset": 0,
        "slot": "1",
        "type": "t_contract(IPairInfo)4544"
      },
      {
        "astId": 9266,
        "contract": "contracts/trading/PositionManager.sol:PositionManager",
        "label": "pairVault",
        "offset": 0,
        "slot": "2",
        "type": "t_contract(IPairVault)4647"
      },
      {
        "astId": 9269,
        "contract": "contracts/trading/PositionManager.sol:PositionManager",
        "label": "tradingVault",
        "offset": 0,
        "slot": "3",
        "type": "t_contract(ITradingVault)3649"
      },
      {
        "astId": 9272,
        "contract": "contracts/trading/PositionManager.sol:PositionManager",
        "label": "fastPriceFeed",
        "offset": 0,
        "slot": "4",
        "type": "t_contract(IIndexPriceFeed)2986"
      },
      {
        "astId": 9275,
        "contract": "contracts/trading/PositionManager.sol:PositionManager",
        "label": "vaultPriceFeed",
        "offset": 0,
        "slot": "5",
        "type": "t_contract(IOraclePriceFeed)3021"
      },
      {
        "astId": 9278,
        "contract": "contracts/trading/PositionManager.sol:PositionManager",
        "label": "orderManager",
        "offset": 0,
        "slot": "6",
        "type": "t_contract(IOrderManager)3258"
      }
    ],
    "types": {
      "t_contract(IIndexPriceFeed)2986": {
        "encoding": "inplace",
        "label": "contract IIndexPriceFeed",
        "numberOfBytes": "20"
      },
      "t_contract(IOraclePriceFeed)3021": {
        "encoding": "inplace",
        "label": "contract IOraclePriceFeed",
        "numberOfBytes": "20"
      },
      "t_contract(IOrderManager)3258": {
        "encoding": "inplace",
        "label": "contract IOrderManager",
        "numberOfBytes": "20"
      },
      "t_contract(IPairInfo)4544": {
        "encoding": "inplace",
        "label": "contract IPairInfo",
        "numberOfBytes": "20"
      },
      "t_contract(IPairVault)4647": {
        "encoding": "inplace",
        "label": "contract IPairVault",
        "numberOfBytes": "20"
      },
      "t_contract(ITradingVault)3649": {
        "encoding": "inplace",
        "label": "contract ITradingVault",
        "numberOfBytes": "20"
      },
      "t_uint256": {
        "encoding": "inplace",
        "label": "uint256",
        "numberOfBytes": "32"
      }
    }
  }
}