{
  "address": "0x5302E909d1e93e30F05B5D6Eea766363D14F9892",
  "abi": [
    {
      "inputs": [
        {
          "internalType": "contract IAddressesProvider",
          "name": "addressProvider",
          "type": "address"
        },
        {
          "internalType": "contract IOrderManager",
          "name": "_orderManager",
          "type": "address"
        },
        {
          "internalType": "contract IPositionManager",
          "name": "_positionManager",
          "type": "address"
        }
      ],
      "stateMutability": "nonpayable",
      "type": "constructor"
    },
    {
      "anonymous": false,
      "inputs": [
        {
          "indexed": false,
          "internalType": "address",
          "name": "oldAddress",
          "type": "address"
        },
        {
          "indexed": false,
          "internalType": "address",
          "name": "newAddress",
          "type": "address"
        }
      ],
      "name": "UpdateExecuteRouter",
      "type": "event"
    },
    {
      "inputs": [],
      "name": "ADDRESS_PROVIDER",
      "outputs": [
        {
          "internalType": "contract IAddressesProvider",
          "name": "",
          "type": "address"
        }
      ],
      "stateMutability": "view",
      "type": "function"
    },
    {
      "inputs": [],
      "name": "decreaseMarketOrderStartIndex",
      "outputs": [
        {
          "internalType": "uint256",
          "name": "",
          "type": "uint256"
        }
      ],
      "stateMutability": "view",
      "type": "function"
    },
    {
      "inputs": [
        {
          "internalType": "bytes32[]",
          "name": "positionKeys",
          "type": "bytes32[]"
        },
        {
          "internalType": "uint256[]",
          "name": "sizeAmounts",
          "type": "uint256[]"
        },
        {
          "internalType": "uint256",
          "name": "orderId",
          "type": "uint256"
        },
        {
          "internalType": "enum TradingTypes.TradeType",
          "name": "tradeType",
          "type": "uint8"
        }
      ],
      "name": "executeADLAndDecreaseOrder",
      "outputs": [],
      "stateMutability": "nonpayable",
      "type": "function"
    },
    {
      "inputs": [
        {
          "internalType": "uint256[]",
          "name": "orderIds",
          "type": "uint256[]"
        }
      ],
      "name": "executeDecreaseLimitOrders",
      "outputs": [],
      "stateMutability": "nonpayable",
      "type": "function"
    },
    {
      "inputs": [
        {
          "internalType": "uint256",
          "name": "endIndex",
          "type": "uint256"
        }
      ],
      "name": "executeDecreaseMarketOrders",
      "outputs": [],
      "stateMutability": "nonpayable",
      "type": "function"
    },
    {
      "inputs": [
        {
          "internalType": "uint256",
          "name": "orderId",
          "type": "uint256"
        },
        {
          "internalType": "enum TradingTypes.TradeType",
          "name": "tradeType",
          "type": "uint8"
        }
      ],
      "name": "executeDecreaseOrder",
      "outputs": [],
      "stateMutability": "nonpayable",
      "type": "function"
    },
    {
      "inputs": [
        {
          "internalType": "uint256[]",
          "name": "orderIds",
          "type": "uint256[]"
        }
      ],
      "name": "executeIncreaseLimitOrders",
      "outputs": [],
      "stateMutability": "nonpayable",
      "type": "function"
    },
    {
      "inputs": [
        {
          "internalType": "uint256",
          "name": "endIndex",
          "type": "uint256"
        }
      ],
      "name": "executeIncreaseMarketOrders",
      "outputs": [],
      "stateMutability": "nonpayable",
      "type": "function"
    },
    {
      "inputs": [
        {
          "internalType": "uint256",
          "name": "orderId",
          "type": "uint256"
        },
        {
          "internalType": "enum TradingTypes.TradeType",
          "name": "tradeType",
          "type": "uint8"
        }
      ],
      "name": "executeIncreaseOrder",
      "outputs": [],
      "stateMutability": "nonpayable",
      "type": "function"
    },
    {
      "inputs": [],
      "name": "increaseMarketOrderStartIndex",
      "outputs": [
        {
          "internalType": "uint256",
          "name": "",
          "type": "uint256"
        }
      ],
      "stateMutability": "view",
      "type": "function"
    },
    {
      "inputs": [
        {
          "internalType": "bytes32[]",
          "name": "positionKeys",
          "type": "bytes32[]"
        }
      ],
      "name": "liquidatePositions",
      "outputs": [],
      "stateMutability": "nonpayable",
      "type": "function"
    },
    {
      "inputs": [],
      "name": "orderManager",
      "outputs": [
        {
          "internalType": "contract IOrderManager",
          "name": "",
          "type": "address"
        }
      ],
      "stateMutability": "view",
      "type": "function"
    },
    {
      "inputs": [],
      "name": "positionManager",
      "outputs": [
        {
          "internalType": "contract IPositionManager",
          "name": "",
          "type": "address"
        }
      ],
      "stateMutability": "view",
      "type": "function"
    },
    {
      "inputs": [
        {
          "internalType": "address[]",
          "name": "tokens",
          "type": "address[]"
        },
        {
          "internalType": "uint256[]",
          "name": "prices",
          "type": "uint256[]"
        },
        {
          "internalType": "uint256",
          "name": "timestamp",
          "type": "uint256"
        },
        {
          "internalType": "bytes32[]",
          "name": "positionKeys",
          "type": "bytes32[]"
        },
        {
          "internalType": "uint256[]",
          "name": "sizeAmounts",
          "type": "uint256[]"
        },
        {
          "internalType": "uint256",
          "name": "orderId",
          "type": "uint256"
        },
        {
          "internalType": "enum TradingTypes.TradeType",
          "name": "tradeType",
          "type": "uint8"
        }
      ],
      "name": "setPricesAndExecuteADL",
      "outputs": [],
      "stateMutability": "nonpayable",
      "type": "function"
    },
    {
      "inputs": [
        {
          "internalType": "address[]",
          "name": "tokens",
          "type": "address[]"
        },
        {
          "internalType": "uint256[]",
          "name": "prices",
          "type": "uint256[]"
        },
        {
          "internalType": "uint256",
          "name": "timestamp",
          "type": "uint256"
        },
        {
          "internalType": "uint256[]",
          "name": "increaseOrderIds",
          "type": "uint256[]"
        },
        {
          "internalType": "uint256[]",
          "name": "decreaseOrderIds",
          "type": "uint256[]"
        }
      ],
      "name": "setPricesAndExecuteLimitOrders",
      "outputs": [],
      "stateMutability": "nonpayable",
      "type": "function"
    },
    {
      "inputs": [
        {
          "internalType": "address[]",
          "name": "tokens",
          "type": "address[]"
        },
        {
          "internalType": "uint256[]",
          "name": "prices",
          "type": "uint256[]"
        },
        {
          "internalType": "uint256",
          "name": "timestamp",
          "type": "uint256"
        },
        {
          "internalType": "uint256",
          "name": "increaseEndIndex",
          "type": "uint256"
        },
        {
          "internalType": "uint256",
          "name": "decreaseEndIndex",
          "type": "uint256"
        }
      ],
      "name": "setPricesAndExecuteMarketOrders",
      "outputs": [],
      "stateMutability": "nonpayable",
      "type": "function"
    },
    {
      "inputs": [
        {
          "internalType": "address[]",
          "name": "tokens",
          "type": "address[]"
        },
        {
          "internalType": "uint256[]",
          "name": "prices",
          "type": "uint256[]"
        },
        {
          "internalType": "uint256",
          "name": "timestamp",
          "type": "uint256"
        },
        {
          "internalType": "bytes32[]",
          "name": "positionKeys",
          "type": "bytes32[]"
        }
      ],
      "name": "setPricesAndLiquidatePositions",
      "outputs": [],
      "stateMutability": "nonpayable",
      "type": "function"
    }
  ],
  "transactionHash": "0xad86984d30acc83de507057908d913f5334d5e1b8c119280e730a866ad7c1cda",
  "args": [
    "0xFD471836031dc5108809D173A067e8486B9047A3",
    "0x6C2d83262fF84cBaDb3e416D527403135D757892",
    "0xFD6F7A6a5c21A3f503EBaE7a473639974379c351"
  ],
  "numDeployments": 1,
  "solcInputHash": "dbd8b9bdf15109328226d3d4a4bdaf81",
  "bytecode": "0x60a0346100fc57601f620021e338819003918201601f19168301916001600160401b03831184841017610101578084926060946040528339810103126100fc5780516001600160a01b03919082811681036100fc576020820151918383168093036100fc57604001519283168093036100fc5760805260018060a01b03199081600254161760025560035416176003556040516120cb9081620001188239608051818181610118015281816102fb01528181610513015281816107cb015281816109c401528181610af201528181610c1801528181610d1a01528181610e0c015281816110a0015281816112ca0152818161151d01526115bf0152f35b600080fd5b634e487b7160e01b600052604160045260246000fdfe6080604081815260048036101561001557600080fd5b600092833560e01c9081631848effa146115ab57508063531d87c1146114ee5780635be766c3146114cf578063791b98bc146114a6578063a77603401461123257838163afb566e414610fff57508063b298f25a14610dbe578063bfa5ea9914610ceb57838163c04c0f5814610bca57508063d4053f7b14610bad57838163da9d857b14610a7d578163e70da1b514610991578163ef09314a1461076757508063efc95de8146104c657838163f2ac5dfe1461027b57508063f9b6117f1461024e5763fdc860f0146100e657600080fd5b82913461024a576100f636611756565b82516351331ad760e01b8152909391906001600160a01b0390602090818186817f000000000000000000000000000000000000000000000000000000000000000087165afa90811561021357839183918a9161021d575b5060248851809481936335d2155560e11b8352338b840152165afa9182156102135790610183929189926101e6575b50506117ac565b60035416803b156101e2578592836044926101b587519889968795630fdc860f60e41b875286015260248501906118bc565b5af19081156101d957506101c65750f35b6101cf906115ee565b6101d65780f35b80fd5b513d84823e3d90fd5b8580fd5b6102059250803d1061020c575b6101fd818361164d565b810190611794565b388061017c565b503d6101f3565b86513d8a823e3d90fd5b61023d9150823d8411610243575b610235818361164d565b810190611775565b3861014d565b503d61022b565b5050fd5b50503461027757816003193601126102775760025490516001600160a01b039091168152602090f35b5080fd5b9290503461024a57608036600319011261024a576001600160401b039180358381116104c2576102ae9036908301611685565b6024358481116101e2576102c590369084016116f8565b936064359081116101e2576102dd90369084016116f8565b83516351331ad760e01b815260209591926001600160a01b039290917f000000000000000000000000000000000000000000000000000000000000000084169088818881855afa90811561049b5785918a918c916104a5575b5060248a51809481936335d2155560e11b8352338d840152165afa90811561049b579161036d8a9289948d9161047e575b506117ac565b845184511480610476575b610381906117ed565b8851635ed6d55b60e11b815292839182905afa90811561046c579084918a9161044f575b501691823b1561044b576103d4928992838951809681958294631e09986f60e21b8452604435918d850161185e565b03925af180156104415790879161042d575b505060035416803b156101e25761041a9486809486519788958694859363180981eb60e31b8552840152602483019061182a565b03925af19081156101d957506101c65750f35b610436906115ee565b6101e25785386103e6565b85513d89823e3d90fd5b8880fd5b6104669150893d8b1161024357610235818361164d565b386103a5565b87513d8b823e3d90fd5b506001610378565b6104959150843d861161020c576101fd818361164d565b38610367565b88513d8c823e3d90fd5b6104bc9150823d841161024357610235818361164d565b38610336565b8480fd5b509034610763576020806003193601126107275782356001600160401b0381116104c2576104f790369085016116f8565b82516351331ad760e01b81526001600160a01b039490838183817f00000000000000000000000000000000000000000000000000000000000000008a165afa9081156104415790869392918891610746575b5084865180926335d2155560e11b82523385830152816024978892165afa908115610213579061057f91899161072f57506117ac565b6105c8855161058d81611617565b8481527f6578656375746544656372656173654c696d69744f72646572732074696d65738682015263074616d760e41b878201524290611f87565b86805b835181101561072b5787600354166105e38286611be3565b51813b156107275783808893604482948d519586938492630fdc860f60e41b84528c840152600180998401525af19182610713575b50506106b2576106266118df565b6308c379a01461064f575b6106435761063e9061196e565b6105cb565b508551903d90823e3d90fd5b6106576118fd565b80610663575b50610631565b90506106ac8391895161067581611617565b602181527f6578656375746544656372656173654c696d69744f7264657273206572726f728a820152600160fd1b8b820152611fdf565b3861065d565b508061070e6106c461063e9387611be3565b5189516106d081611617565b602881527f6578656375746544656372656173654c696d69744f72646572732073756363658a820152670e6e640d2dcc8caf60c31b8b820152611f87565b61196e565b61071c906115ee565b610727578338610618565b8380fd5b5080f35b6104959150863d881161020c576101fd818361164d565b61075d9150853d871161024357610235818361164d565b38610549565b8280fd5b9290503461024a5760a036600319011261024a576001600160401b0382358181116104c2576107999036908501611685565b906024359081116104c2576107b190369085016116f8565b82516351331ad760e01b81526001600160a01b03906020907f000000000000000000000000000000000000000000000000000000000000000083169082818981855afa90811561046c57849184918b91610974575b5088516335d2155560e11b8152338b8201529283916024918391165afa90811561046c579161083e84928a948c9161047e57506117ac565b86518651148061096c575b610852906117ed565b8751635ed6d55b60e11b815292839182905afa91821561021357889261094f575b50501691823b156101e2576108a3928692838651809681958294631e09986f60e21b8452604435918c850161185e565b03925af180156109315790849161093b575b5050303b1561024a57805163531d87c160e01b815260643583820152838160248183305af180156109315790849161091d575b5050303b1561024a5780519163bfa5ea9960e01b835260843590830152828260248183305af19081156101d957506101c65750f35b610926906115ee565b61024a5782386108e8565b82513d86823e3d90fd5b610944906115ee565b61024a5782386108b5565b6109659250803d1061024357610235818361164d565b3880610873565b506001610849565b61098b9150823d841161024357610235818361164d565b38610806565b9290503461024a576109a236611756565b82516351331ad760e01b8152909391906001600160a01b0390602090818186817f000000000000000000000000000000000000000000000000000000000000000087165afa90811561021357839183918a91610a60575b5060248851809481936335d2155560e11b8352338b840152165afa9182156102135790610a2e929189926101e65750506117ac565b60035416803b156101e2578592836044926101b58751988996879563e70da1b560e01b875286015260248501906118bc565b610a779150823d841161024357610235818361164d565b386109f9565b9290503461024a57608036600319011261024a576001600160401b0382358181116104c257610aaf90369085016116f8565b906024359081116104c257610ac790369085016116f8565b9260643593818510156101e25783516351331ad760e01b81526001600160a01b0390602090818186817f000000000000000000000000000000000000000000000000000000000000000087165afa90811561046c57839183918b91610b90575b5060248951809481936335d2155560e11b8352338b840152165afa91821561046c5790610b5c92918a926101e65750506117ac565b6003541690813b15610b8c5786809461041a87519889968795869463da9d857b60e01b8652604435928601611ec5565b8680fd5b610ba79150823d841161024357610235818361164d565b38610b27565b505034610277578160031936011261027757602091549051908152f35b9290503461024a5760209182600319360112610ce65780356001600160401b0381116104c257610bfd90369083016116f8565b82516351331ad760e01b81526001600160a01b0390858185817f000000000000000000000000000000000000000000000000000000000000000086165afa90811561044157829187918991610cc9575b5060248751809481936335d2155560e11b8352338a840152165afa9081156104415790610c80918891610cb257506117ac565b60035416803b156101e25761041a9486809486519788958694859363180981eb60e31b8552840152602483019061182a565b6104959150873d891161020c576101fd818361164d565b610ce09150823d841161024357610235818361164d565b38610c4d565b505050fd5b5034610763576020806003193601126107275782516351331ad760e01b81526001600160a01b039190818185817f000000000000000000000000000000000000000000000000000000000000000087165afa8015610db45782918791610d97575b5060248651809581936335d2155560e11b83523389840152165afa938415610d8e575092610d8591610d8b9486926101e65750506117ac565b35611c0d565b80f35b513d86823e3d90fd5b610dae9150823d841161024357610235818361164d565b38610d4c565b85513d88823e3d90fd5b509034610763576020806003193601126107275782356001600160401b0381116104c257610def90369085016116f8565b82516351331ad760e01b81526001600160a01b03948691848183817f00000000000000000000000000000000000000000000000000000000000000008b165afa908115610ff5579083929188959491610fd8575b5085875180926335d2155560e11b82523385830152816024988992165afa908115610fce5790610e79918491610cb257506117ac565b610ec28651610e8781611617565b8581527f65786563757465496e6372656173654c696d69744f72646572732074696d65738782015263074616d760e41b888201524290611f87565b815b8351811015610fca578760035416610edc8286611be3565b51813b156104c25784808893604482948d51958693849263e70da1b560e01b84528b840152600180998401525af19182610fb6575b5050610fa957610f1f6118df565b6308c379a014610f46575b610f3c57610f379061196e565b610ec4565b86513d84823e3d90fd5b610f4e6118fd565b80610f5a575b50610f2a565b9050610fa384918951610f6c81611617565b602181527f65786563757465496e6372656173654c696d69744f7264657273206572726f728a820152600160fd1b8b820152611fdf565b38610f54565b50610f379061070e611f00565b610fbf906115ee565b6104c2578438610f11565b8280f35b87513d85823e3d90fd5b610fef9150863d881161024357610235818361164d565b38610e43565b86513d85823e3d90fd5b9290503461024a5760e036600319011261024a576001600160401b0382358181116104c2576110319036908501611685565b926024358281116101e25761104990369083016116f8565b606435838111610b8c5761106090369084016116f8565b92608435908111610b8c5761107890369084016116f8565b9060c435958387101561122e5785516351331ad760e01b81526001600160a01b0392906020907f000000000000000000000000000000000000000000000000000000000000000085169082818981855afa90811561120757869184918e91611211575b508b516335d2155560e11b8152338b8201529283916024918391165afa908115611207579161111384928a948f9161047e57506117ac565b8551855114806111ff575b611127906117ed565b8a51635ed6d55b60e11b815292839182905afa9182156111f557908592918c926111d8575b50501691823b156111d45761117c928a92838a51809681958294631e09986f60e21b8452604435918d850161185e565b03925af18015610213579088916111c0575b50506003541690813b15610b8c5786809461041a87519889968795869463da9d857b60e01b865260a435928601611ec5565b6111c9906115ee565b610b8c57863861118e565b8980fd5b6111ee9250803d1061024357610235818361164d565b388061114c565b89513d8d823e3d90fd5b50600161111e565b8a513d8e823e3d90fd5b6112289150823d841161024357610235818361164d565b386110db565b8780fd5b509190346102775760a0366003190112610277576001600160401b03908335828111610727576112659036908601611685565b936024358381116104c25761127d90369083016116f8565b6064358481116101e25761129490369084016116f8565b936084359081116101e2576112ac90369084016116f8565b83516351331ad760e01b8152909460209290916001600160a01b03907f000000000000000000000000000000000000000000000000000000000000000082169085818881855afa90811561049b57839187918c91611489575b5060248a51809481936335d2155560e11b8352338d840152165afa90811561049b579161133b879289948d9161047e57506117ac565b8b5185511480611481575b61134f906117ed565b8851635ed6d55b60e11b815292839182905afa90811561046c578991611464575b501690813b1561122e579787916113a099838851809c81958294631e09986f60e21b8452604435918c850161185e565b03925af1801561144657611450575b859650303b156101e257856113dd9185518093819263594c792d60e11b83528688840152602483019061182a565b038183305af1801561144657908691611432575b5050303b156104c257849161141d84519586938493631df92bbd60e31b8552840152602483019061182a565b038183305af19081156101d957506101c65750f35b61143b906115ee565b6104c25784386113f1565b84513d88823e3d90fd5b94909561145c906115ee565b9385906113af565b61147b9150853d871161024357610235818361164d565b38611370565b506001611346565b6114a09150823d841161024357610235818361164d565b38611305565b50503461027757816003193601126102775760035490516001600160a01b039091168152602090f35b5050346102775781600319360112610277576020906001549051908152f35b5034610763576020806003193601126107275782516351331ad760e01b81526001600160a01b039190818185817f000000000000000000000000000000000000000000000000000000000000000087165afa8015610db4578291879161158e575b5060248651809581936335d2155560e11b83523389840152165afa938415610d8e57509261158891610d8b9486926101e65750506117ac565b35611993565b6115a59150823d841161024357610235818361164d565b3861154f565b8490346102775781600319360112610277577f00000000000000000000000000000000000000000000000000000000000000006001600160a01b03168152602090f35b6001600160401b03811161160157604052565b634e487b7160e01b600052604160045260246000fd5b606081019081106001600160401b0382111761160157604052565b604081019081106001600160401b0382111761160157604052565b90601f801991011681019081106001600160401b0382111761160157604052565b6001600160401b0381116116015760051b60200190565b81601f820112156116f35780359161169c8361166e565b926116aa604051948561164d565b808452602092838086019260051b8201019283116116f3578301905b8282106116d4575050505090565b81356001600160a01b03811681036116f35781529083019083016116c6565b600080fd5b81601f820112156116f35780359161170f8361166e565b9261171d604051948561164d565b808452602092838086019260051b8201019283116116f3578301905b828210611747575050505090565b81358152908301908301611739565b60409060031901126116f3576004359060243560048110156116f35790565b908160209103126116f357516001600160a01b03811681036116f35790565b908160209103126116f3575180151581036116f35790565b156117b357565b60405162461bcd60e51b815260206004820152601260248201527137b7363ca837b9b4ba34b7b725b2b2b832b960711b6044820152606490fd5b156117f457565b60405162461bcd60e51b815260206004820152600e60248201526d696e76616c696420706172616d7360901b6044820152606490fd5b90815180825260208080930193019160005b82811061184a575050505090565b83518552938101939281019260010161183c565b9392916060850191606086528051809352608086019260208092019060005b81811061189f575050508583039086015260409161189a9161182a565b930152565b82516001600160a01b03168652948301949183019160010161187d565b9060048210156118c95752565b634e487b7160e01b600052602160045260246000fd5b60009060033d116118ec57565b905060046000803e60005160e01c90565b600060443d1061195a57604051600319913d83016004833e81516001600160401b03918282113d60248401111761195d57818401948551938411611965573d8501016020848701011161195d575061195a9291016020019061164d565b90565b949350505050565b50949350505050565b600019811461197d5760010190565b634e487b7160e01b600052601160045260246000fd5b9060408051926119a284611617565b602493848152611a076020917f65786563757465496e6372656173654d61726b65744f726465727320656e644983820152630dcc8caf60e31b8582015284516119ea81611632565b6009815268074696d657374616d760bc1b84820152844292612034565b600094855460018060a01b0383600295828754168851928380926386249bab60e01b825260049586915afa9081156111f5578b91611bb2575b5080851015611ba557808211611b9d575b505b808410611a665750505050505050509050565b898360035416803b1561027757818a51809263e70da1b560e01b82528887830152828a8301528160449586925af19081611b8e575b50611b8057600190611aab6118df565b6308c379a014611acd575b5061046c575b611ac68a5461196e565b8a55611a53565b611ad56118fd565b9081611ae2575b50611ab6565b909150611b2c8c928b51611af581611617565b602181527f65786563757465496e6372656173654d61726b65744f72646572206572726f728b820152600160fd1b8d820152611fdf565b8b858a5416803b1561027757606486838a938f8d978360019251998a98899763c250985960e01b89528801528601528401525af1801561120757611b71575b80611adc565b611b7a906115ee565b38611b6b565b50611b89611f00565b611abc565b611b97906115ee565b38611a9b565b905038611a51565b5050505050505050509050565b90508681813d8311611bdc575b611bc9818361164d565b81010312611bd8575138611a40565b8a80fd5b503d611bbf565b8051821015611bf75760209160051b010190565b634e487b7160e01b600052603260045260246000fd5b6040805191611c1b83611617565b602492838152611c636020917f6578656375746544656372656173654d61726b65744f726465727320656e644983820152630dcc8caf60e31b8582015284516119ea81611632565b60019384548260018060a01b039460029580875416885193848092631ca37ea160e11b825260049687915afa908115611eba57600091611e8d575b5080851015611e8157808311611e79575b505b818410611cc357505050505050505050565b8060035416803b156116f357600090818a518092630fdc860f60e41b82528888830152828a8301528160449586925af19081611e6a575b50611df5578990611d096118df565b6308c379a014611d36575b50611d2b575b611d24895461196e565b8955611cb1565b87513d6000823e3d90fd5b611d3e6118fd565b9081611d4b575b50611d14565b909150611d976000928b51611d5f81611617565b602281527f6578656375746544656372656173654d61726b65744f7264657273206572726f8b82015261039160f51b8d820152611fdf565b8289541690813b156107635786606487858b958f829683809251998a98899763c250985960e01b89528801528601528401525af18015611deb57611ddc575b80611d45565b611de5906115ee565b38611dd6565b8a513d84823e3d90fd5b50611e65828951611e0581611617565b602981527f6578656375746544656372656173654d61726b65744f7264657273207375636389820152680cae6e640d2dcc8caf60bb1b8b820152868b5191611e4c83611632565b60088352670cadcc892dcc8caf60c31b8b840152612034565b611d1a565b611e73906115ee565b38611cfa565b915038611caf565b50505050505050505050565b908782813d8311611eb3575b611ea3818361164d565b810103126101d657505138611c9e565b503d611e99565b89513d6000823e3d90fd5b611ef1611efe94969593611ee360609460808552608085019061182a565b90838203602085015261182a565b95604082015201906118bc565b565b604051602081016351973ec960e01b81526004825260408201908282106001600160401b0383111761160157600092839260405251906a636f6e736f6c652e6c6f675afa50565b919082519283825260005b848110611f73575050826000602080949584010152601f8019910116010190565b602081830181015184830182015201611f52565b600091908291611fcc6040518092611fb86020830195632d839cb360e21b8752604060248501526064840190611f47565b90604483015203601f19810183528261164d565b51906a636f6e736f6c652e6c6f675afa50565b60009190612026611fcc84936040519283916120146020840196634b5c427760e01b8852604060248601526064850190611f47565b83810360231901604485015290611f47565b03601f19810183528261164d565b90611fcc60009493859461208160405194859361206a602086019863c67ea9d160e01b8a526080602488015260a4870190611f47565b916044860152602319858303016064860152611f47565b90608483015203601f19810183528261164d56fea2646970667358221220b07eefac023fe5a0c8326e430b96ef3129dec6c50bdfd1816fc3a2f7913dc11564736f6c63430008110033",
  "devdoc": {
    "kind": "dev",
    "methods": {},
    "version": 1
  },
  "userdoc": {
    "kind": "user",
    "methods": {},
    "version": 1
  },
  "storageLayout": {
    "storage": [
      {
        "astId": 13403,
        "contract": "contracts/trading/Executor.sol:Executor",
        "label": "increaseMarketOrderStartIndex",
        "offset": 0,
        "slot": "0",
        "type": "t_uint256"
      },
      {
        "astId": 13405,
        "contract": "contracts/trading/Executor.sol:Executor",
        "label": "decreaseMarketOrderStartIndex",
        "offset": 0,
        "slot": "1",
        "type": "t_uint256"
      },
      {
        "astId": 13411,
        "contract": "contracts/trading/Executor.sol:Executor",
        "label": "orderManager",
        "offset": 0,
        "slot": "2",
        "type": "t_contract(IOrderManager)5135"
      },
      {
        "astId": 13414,
        "contract": "contracts/trading/Executor.sol:Executor",
        "label": "positionManager",
        "offset": 0,
        "slot": "3",
        "type": "t_contract(IPositionManager)5275"
      }
    ],
    "types": {
      "t_contract(IOrderManager)5135": {
        "encoding": "inplace",
        "label": "contract IOrderManager",
        "numberOfBytes": "20"
      },
      "t_contract(IPositionManager)5275": {
        "encoding": "inplace",
        "label": "contract IPositionManager",
        "numberOfBytes": "20"
      },
      "t_uint256": {
        "encoding": "inplace",
        "label": "uint256",
        "numberOfBytes": "32"
      }
    }
  }
}