{
  "address": "0x02b0B4EFd909240FCB2Eb5FAe060dC60D112E3a4",
  "abi": [
    {
      "inputs": [
        {
          "internalType": "contract IAddressesProvider",
          "name": "addressProvider",
          "type": "address"
        },
        {
          "internalType": "contract IPairInfo",
          "name": "_pairInfo",
          "type": "address"
        },
        {
          "internalType": "contract IPairVault",
          "name": "_pairVault",
          "type": "address"
        },
        {
          "internalType": "contract IVaultPriceFeed",
          "name": "_vaultPriceFeed",
          "type": "address"
        },
        {
          "internalType": "address",
          "name": "_feeReceiver",
          "type": "address"
        },
        {
          "internalType": "address",
          "name": "_slipReceiver",
          "type": "address"
        },
        {
          "internalType": "address",
          "name": "_weth",
          "type": "address"
        }
      ],
      "stateMutability": "nonpayable",
      "type": "constructor"
    },
    {
      "anonymous": false,
      "inputs": [
        {
          "indexed": true,
          "internalType": "address",
          "name": "funder",
          "type": "address"
        },
        {
          "indexed": true,
          "internalType": "address",
          "name": "account",
          "type": "address"
        },
        {
          "indexed": true,
          "internalType": "uint256",
          "name": "pairIndex",
          "type": "uint256"
        },
        {
          "indexed": false,
          "internalType": "uint256",
          "name": "indexAmount",
          "type": "uint256"
        },
        {
          "indexed": false,
          "internalType": "uint256",
          "name": "stableAmount",
          "type": "uint256"
        },
        {
          "indexed": false,
          "internalType": "uint256",
          "name": "lpAmount",
          "type": "uint256"
        }
      ],
      "name": "AddLiquidity",
      "type": "event"
    },
    {
      "anonymous": false,
      "inputs": [
        {
          "indexed": true,
          "internalType": "address",
          "name": "account",
          "type": "address"
        },
        {
          "indexed": true,
          "internalType": "address",
          "name": "receiver",
          "type": "address"
        },
        {
          "indexed": true,
          "internalType": "uint256",
          "name": "pairIndex",
          "type": "uint256"
        },
        {
          "indexed": false,
          "internalType": "uint256",
          "name": "indexAmount",
          "type": "uint256"
        },
        {
          "indexed": false,
          "internalType": "uint256",
          "name": "stableAmount",
          "type": "uint256"
        },
        {
          "indexed": false,
          "internalType": "uint256",
          "name": "lpAmount",
          "type": "uint256"
        }
      ],
      "name": "RemoveLiquidity",
      "type": "event"
    },
    {
      "anonymous": false,
      "inputs": [
        {
          "indexed": true,
          "internalType": "address",
          "name": "funder",
          "type": "address"
        },
        {
          "indexed": true,
          "internalType": "address",
          "name": "receiver",
          "type": "address"
        },
        {
          "indexed": true,
          "internalType": "uint256",
          "name": "pairIndex",
          "type": "uint256"
        },
        {
          "indexed": false,
          "internalType": "bool",
          "name": "isBuy",
          "type": "bool"
        },
        {
          "indexed": false,
          "internalType": "uint256",
          "name": "amountIn",
          "type": "uint256"
        },
        {
          "indexed": false,
          "internalType": "uint256",
          "name": "amountOut",
          "type": "uint256"
        }
      ],
      "name": "Swap",
      "type": "event"
    },
    {
      "inputs": [],
      "name": "ADDRESS_PROVIDER",
      "outputs": [
        {
          "internalType": "contract IAddressesProvider",
          "name": "",
          "type": "address"
        }
      ],
      "stateMutability": "view",
      "type": "function"
    },
    {
      "inputs": [],
      "name": "PRICE_PRECISION",
      "outputs": [
        {
          "internalType": "uint256",
          "name": "",
          "type": "uint256"
        }
      ],
      "stateMutability": "view",
      "type": "function"
    },
    {
      "inputs": [
        {
          "internalType": "uint256",
          "name": "_pairIndex",
          "type": "uint256"
        },
        {
          "internalType": "uint256",
          "name": "_indexAmount",
          "type": "uint256"
        },
        {
          "internalType": "uint256",
          "name": "_stableAmount",
          "type": "uint256"
        }
      ],
      "name": "addLiquidity",
      "outputs": [
        {
          "internalType": "uint256",
          "name": "",
          "type": "uint256"
        }
      ],
      "stateMutability": "nonpayable",
      "type": "function"
    },
    {
      "inputs": [
        {
          "internalType": "uint256",
          "name": "_pairIndex",
          "type": "uint256"
        },
        {
          "internalType": "uint256",
          "name": "_stableAmount",
          "type": "uint256"
        }
      ],
      "name": "addLiquidityETH",
      "outputs": [
        {
          "internalType": "uint256",
          "name": "",
          "type": "uint256"
        }
      ],
      "stateMutability": "payable",
      "type": "function"
    },
    {
      "inputs": [
        {
          "internalType": "address",
          "name": "_funder",
          "type": "address"
        },
        {
          "internalType": "address",
          "name": "_account",
          "type": "address"
        },
        {
          "internalType": "uint256",
          "name": "_pairIndex",
          "type": "uint256"
        },
        {
          "internalType": "uint256",
          "name": "_indexAmount",
          "type": "uint256"
        },
        {
          "internalType": "uint256",
          "name": "_stableAmount",
          "type": "uint256"
        }
      ],
      "name": "addLiquidityForAccount",
      "outputs": [
        {
          "internalType": "uint256",
          "name": "",
          "type": "uint256"
        }
      ],
      "stateMutability": "nonpayable",
      "type": "function"
    },
    {
      "inputs": [],
      "name": "feeReceiver",
      "outputs": [
        {
          "internalType": "address",
          "name": "",
          "type": "address"
        }
      ],
      "stateMutability": "view",
      "type": "function"
    },
    {
      "inputs": [
        {
          "internalType": "uint256",
          "name": "_pairIndex",
          "type": "uint256"
        },
        {
          "internalType": "uint256",
          "name": "_lpAmount",
          "type": "uint256"
        }
      ],
      "name": "getDepositAmount",
      "outputs": [
        {
          "internalType": "uint256",
          "name": "depositIndexAmount",
          "type": "uint256"
        },
        {
          "internalType": "uint256",
          "name": "depositStableAmount",
          "type": "uint256"
        }
      ],
      "stateMutability": "view",
      "type": "function"
    },
    {
      "inputs": [
        {
          "internalType": "uint256",
          "name": "_pairIndex",
          "type": "uint256"
        },
        {
          "internalType": "uint256",
          "name": "_indexAmount",
          "type": "uint256"
        },
        {
          "internalType": "uint256",
          "name": "_stableAmount",
          "type": "uint256"
        }
      ],
      "name": "getMintLpAmount",
      "outputs": [
        {
          "internalType": "uint256",
          "name": "mintAmount",
          "type": "uint256"
        },
        {
          "internalType": "address",
          "name": "slipToken",
          "type": "address"
        },
        {
          "internalType": "uint256",
          "name": "slipAmount",
          "type": "uint256"
        }
      ],
      "stateMutability": "view",
      "type": "function"
    },
    {
      "inputs": [
        {
          "internalType": "uint256",
          "name": "_pairIndex",
          "type": "uint256"
        },
        {
          "internalType": "uint256",
          "name": "_lpAmount",
          "type": "uint256"
        }
      ],
      "name": "getReceivedAmount",
      "outputs": [
        {
          "internalType": "uint256",
          "name": "receiveIndexTokenAmount",
          "type": "uint256"
        },
        {
          "internalType": "uint256",
          "name": "receiveStableTokenAmount",
          "type": "uint256"
        }
      ],
      "stateMutability": "view",
      "type": "function"
    },
    {
      "inputs": [
        {
          "internalType": "address",
          "name": "",
          "type": "address"
        }
      ],
      "name": "isHandler",
      "outputs": [
        {
          "internalType": "bool",
          "name": "",
          "type": "bool"
        }
      ],
      "stateMutability": "view",
      "type": "function"
    },
    {
      "inputs": [
        {
          "internalType": "uint256",
          "name": "_pairIndex",
          "type": "uint256"
        }
      ],
      "name": "lpFairPrice",
      "outputs": [
        {
          "internalType": "uint256",
          "name": "",
          "type": "uint256"
        }
      ],
      "stateMutability": "view",
      "type": "function"
    },
    {
      "inputs": [],
      "name": "pairInfo",
      "outputs": [
        {
          "internalType": "contract IPairInfo",
          "name": "",
          "type": "address"
        }
      ],
      "stateMutability": "view",
      "type": "function"
    },
    {
      "inputs": [],
      "name": "pairVault",
      "outputs": [
        {
          "internalType": "contract IPairVault",
          "name": "",
          "type": "address"
        }
      ],
      "stateMutability": "view",
      "type": "function"
    },
    {
      "inputs": [
        {
          "internalType": "uint256",
          "name": "_pairIndex",
          "type": "uint256"
        },
        {
          "internalType": "uint256",
          "name": "_amount",
          "type": "uint256"
        }
      ],
      "name": "removeLiquidity",
      "outputs": [
        {
          "internalType": "uint256",
          "name": "receivedIndexAmount",
          "type": "uint256"
        },
        {
          "internalType": "uint256",
          "name": "receivedStableAmount",
          "type": "uint256"
        }
      ],
      "stateMutability": "nonpayable",
      "type": "function"
    },
    {
      "inputs": [
        {
          "internalType": "address",
          "name": "_account",
          "type": "address"
        },
        {
          "internalType": "address",
          "name": "_receiver",
          "type": "address"
        },
        {
          "internalType": "uint256",
          "name": "_pairIndex",
          "type": "uint256"
        },
        {
          "internalType": "uint256",
          "name": "_amount",
          "type": "uint256"
        }
      ],
      "name": "removeLiquidityForAccount",
      "outputs": [
        {
          "internalType": "uint256",
          "name": "",
          "type": "uint256"
        },
        {
          "internalType": "uint256",
          "name": "",
          "type": "uint256"
        }
      ],
      "stateMutability": "nonpayable",
      "type": "function"
    },
    {
      "inputs": [
        {
          "internalType": "contract IPairInfo",
          "name": "_pairStorage",
          "type": "address"
        },
        {
          "internalType": "contract IPairVault",
          "name": "_pairVault",
          "type": "address"
        }
      ],
      "name": "setContract",
      "outputs": [],
      "stateMutability": "nonpayable",
      "type": "function"
    },
    {
      "inputs": [
        {
          "internalType": "address",
          "name": "_handler",
          "type": "address"
        },
        {
          "internalType": "bool",
          "name": "_isHandler",
          "type": "bool"
        }
      ],
      "name": "setHandler",
      "outputs": [],
      "stateMutability": "nonpayable",
      "type": "function"
    },
    {
      "inputs": [
        {
          "internalType": "address",
          "name": "_feeReceiver",
          "type": "address"
        },
        {
          "internalType": "address",
          "name": "_slipReceiver",
          "type": "address"
        }
      ],
      "name": "setReceiver",
      "outputs": [],
      "stateMutability": "nonpayable",
      "type": "function"
    },
    {
      "inputs": [],
      "name": "slipReceiver",
      "outputs": [
        {
          "internalType": "address",
          "name": "",
          "type": "address"
        }
      ],
      "stateMutability": "view",
      "type": "function"
    },
    {
      "inputs": [
        {
          "internalType": "uint256",
          "name": "_pairIndex",
          "type": "uint256"
        },
        {
          "internalType": "bool",
          "name": "_isBuy",
          "type": "bool"
        },
        {
          "internalType": "uint256",
          "name": "_amountIn",
          "type": "uint256"
        },
        {
          "internalType": "uint256",
          "name": "_minOut",
          "type": "uint256"
        }
      ],
      "name": "swap",
      "outputs": [
        {
          "internalType": "uint256",
          "name": "amountIn",
          "type": "uint256"
        },
        {
          "internalType": "uint256",
          "name": "amountOut",
          "type": "uint256"
        }
      ],
      "stateMutability": "nonpayable",
      "type": "function"
    },
    {
      "inputs": [
        {
          "internalType": "address",
          "name": "_funder",
          "type": "address"
        },
        {
          "internalType": "address",
          "name": "_receiver",
          "type": "address"
        },
        {
          "internalType": "uint256",
          "name": "_pairIndex",
          "type": "uint256"
        },
        {
          "internalType": "bool",
          "name": "_isBuy",
          "type": "bool"
        },
        {
          "internalType": "uint256",
          "name": "_amountIn",
          "type": "uint256"
        },
        {
          "internalType": "uint256",
          "name": "_minOut",
          "type": "uint256"
        }
      ],
      "name": "swapForAccount",
      "outputs": [
        {
          "internalType": "uint256",
          "name": "amountIn",
          "type": "uint256"
        },
        {
          "internalType": "uint256",
          "name": "amountOut",
          "type": "uint256"
        }
      ],
      "stateMutability": "nonpayable",
      "type": "function"
    },
    {
      "inputs": [
        {
          "internalType": "uint256",
          "name": "_pairIndex",
          "type": "uint256"
        },
        {
          "internalType": "uint256",
          "name": "_minOut",
          "type": "uint256"
        }
      ],
      "name": "swapInEth",
      "outputs": [
        {
          "internalType": "uint256",
          "name": "amountIn",
          "type": "uint256"
        },
        {
          "internalType": "uint256",
          "name": "amountOut",
          "type": "uint256"
        }
      ],
      "stateMutability": "payable",
      "type": "function"
    },
    {
      "inputs": [
        {
          "internalType": "address",
          "name": "",
          "type": "address"
        },
        {
          "internalType": "address",
          "name": "",
          "type": "address"
        }
      ],
      "name": "userPairTokens",
      "outputs": [
        {
          "internalType": "uint256",
          "name": "",
          "type": "uint256"
        }
      ],
      "stateMutability": "view",
      "type": "function"
    },
    {
      "inputs": [],
      "name": "vaultPriceFeed",
      "outputs": [
        {
          "internalType": "contract IVaultPriceFeed",
          "name": "",
          "type": "address"
        }
      ],
      "stateMutability": "view",
      "type": "function"
    },
    {
      "inputs": [],
      "name": "weth",
      "outputs": [
        {
          "internalType": "address",
          "name": "",
          "type": "address"
        }
      ],
      "stateMutability": "view",
      "type": "function"
    },
    {
      "stateMutability": "payable",
      "type": "receive"
    }
  ],
  "transactionHash": "0x37a2c1881014b94b01dcdacd1f3f147371865925af3d677f6bb2fd3bee0bdcd8",
  "args": [
    "0xFD471836031dc5108809D173A067e8486B9047A3",
    "0x32EEce76C2C2e8758584A83Ee2F522D4788feA0f",
    "0x01c1DeF3b91672704716159C9041Aeca392DdFfb",
    "0xb9bEECD1A582768711dE1EE7B0A1d582D9d72a6C",
    "0xf39Fd6e51aad88F6F4ce6aB8827279cffFb92266",
    "0xf39Fd6e51aad88F6F4ce6aB8827279cffFb92266",
    "0xdbC43Ba45381e02825b14322cDdd15eC4B3164E6"
  ],
  "numDeployments": 1,
  "solcInputHash": "dbd8b9bdf15109328226d3d4a4bdaf81",
  "bytecode": "0x60a0346200014557601f6200462338819003918201601f19168301916001600160401b038311848410176200014a5780849260e094604052833981010312620001455780516001600160a01b0390818116810362000145576020830151928284168094036200014557604081015190838216809203620001455760608101518481168091036200014557849283916200009b6080850162000160565b91620000b860c0620000b060a0880162000160565b960162000160565b963360005260006020526040600020600160ff1982541617905560805260018060a01b0319988960015416176001558860025416176002558760035416176003551685600454161760045516836005541617600555169060065416176006556040516144ad9081620001768239608051818181610497015281816107a501528181611b1e0152611c2a0152f35b600080fd5b634e487b7160e01b600052604160045260246000fd5b51906001600160a01b0382168203620001455756fe608080604052600436101561001d575b50361561001b57600080fd5b005b600090813560e01c9081630552415114611cca575080630738aa3114611c595780631848effa14611c145780632bf6e0a514611ad1578063346d5d75146117fa5780633fc8cef3146117d1578063422f1043146117b557806346ea87af146117775780634b57f96e146117585780634c3c0f5814611219578063653c45e6146111b55780637a52407514610a0b5780637a9d1ac4146108a057806386dcb95e146107635780638ffc80a11461060957806392771c3c146105ef57806395082d25146105c75780639cb7de4b146104525780639d7de6b31461029a578063a31a7b4414610271578063b3f0067414610248578063bef77c59146101f9578063e05def241461018d578063eeaa783a146101645763fc2a5b1d0361000f57346101615780600319360112610161576001546040516001600160a01b039091168152602090f35b80fd5b50346101615780600319360112610161576003546040516001600160a01b039091168152602090f35b5034610161576080366003190112610161576101d76040916101ad611cef565b6101ca6101b8611d05565b923033149081156101e3575b50611f1c565b60643591604435916138bc565b82519182526020820152f35b60ff9150869033815280602052205416386101c4565b503461016157604036600319011261016157610213611cef565b604061021d611d05565b9260018060a01b03809316815260076020522091166000526020526020604060002054604051908152f35b50346101615780600319360112610161576004546040516001600160a01b039091168152602090f35b50346101615780600319360112610161576002546040516001600160a01b039091168152602090f35b5034610161576102b66102ac36611d2a565b81929130336138bc565b909160018060a01b039060e0826001541691602460405180948193632f7ce47360e21b835260048301525afa908115610447578591610418575b5083151580610408575b61039a575b82610315575b6040848482519182526020820152f35b6020015116926020604051809563a9059cbb60e01b825281848161033d883360048401611f60565b03925af1801561038d57610352575b80610305565b6020843d8211610385575b8161036a60209383611db9565b81010312610161575061037e604093611dee565b503861034c565b3d915061035d565b50604051903d90823e3d90fd5b848260065416803b1561040457818091602460405180948193632e1a7d4d60e01b83528b60048401525af180156103f9576103e1575b50506103dc8433611fba565b6102ff565b6103ea90611d5a565b6103f55784386103d0565b8480fd5b6040513d84823e3d90fd5b5080fd5b50818151168260065416146102fa565b61043a915060e03d60e011610440575b6104328183611db9565b810190611e37565b386102f0565b503d610428565b6040513d87823e3d90fd5b50346101615760403660031901126101615761046c611cef565b610474611d1b565b6040516351331ad760e01b815290916020916001600160a01b03919083816004817f000000000000000000000000000000000000000000000000000000000000000087165afa90811561058557839185918891610590575b50602460405180948193630935e01b60e21b8352336004840152165afa90811561058557869161054c575b501561051b579084929116825252604082209060ff80198354169115151617905580f35b60405162461bcd60e51b815260048101849052600960248201526837b7363ca0b236b4b760b91b6044820152606490fd5b90508381813d831161057e575b6105638183611db9565b8101031261057a5761057490611dee565b386104f7565b8580fd5b503d610559565b6040513d88823e3d90fd5b92505081813d83116105c0575b6105a78183611db9565b8101031261057a57836105ba8492611dda565b386104cc565b503d61059d565b503461016157806003193601126101615760405168327cb2734119d3b7a9601e1b8152602090f35b50346101615760406101d761060336611d2a565b90613ffd565b50602461061536611d2a565b9060018060a01b0360e0816001541660405195868092632f7ce47360e21b82528660048301525afa938415610447578594610742575b508481855116826006541680911480610733575b61066890611ebf565b803b15610404578160049160405192838092630d0e30db60e41b825234905af180156103f95761071f575b505060208094015116938360405180966323b872dd60e01b82528184816106bf89303360048501611efa565b03925af1801561038d576106e5575b50906106dd9134903330612e9c565b604051908152f35b8385813d8311610718575b6106fa8183611db9565b8101031261016157506107106106dd9394611dee565b5083926106ce565b503d6106f0565b61072890611d5a565b6103f5578438610693565b5060408601518316151561065f565b61075c91945060e03d60e011610440576104328183611db9565b923861064b565b50346101615760403660031901126101615761077d611cef565b610785611d05565b6040516351331ad760e01b81526001600160a01b039190602080826004817f000000000000000000000000000000000000000000000000000000000000000088165afa80156105855784928791610867575b508190602460405180958193637be53ca160e01b8352336004840152165afa908115610585578691610830575b5061080f9150611dfb565b8160018060a01b031993168360045416176004551690600554161760055580f35b905081813d8311610860575b6108468183611db9565b810103126103f55761085a61080f91611dee565b38610804565b503d61083c565b809350828092503d8311610899575b6108808183611db9565b8101031261057a57806108938593611dda565b906107d7565b503d610876565b5034610161576080366003190112610161576004356108bd611d1b565b30331480156109f5575b6108d090611f1c565b6108e260643560443583853033612134565b91909282151591826109ed575b5081610980575b5061090c575b6040809350519182526020820152f35b60065483906001600160a01b0316803b15610404578190602460405180948193632e1a7d4d60e01b83528760048401525af180156109755761095d575b50604092506109588133611fba565b6108fc565b6109678491611d5a565b6109715782610949565b8280fd5b6040513d86823e3d90fd5b600154604051632f7ce47360e21b815260048101929092526001600160a01b03925060e0908290602490829086165afa801561044757829186916109ce575b505116906006541614386108f6565b6109e7915060e03d60e011610440576104328183611db9565b386109bf565b9150386108ef565b503383526020839052604083205460ff166108c7565b50610a1536611d2a565b5090303314801561119f575b610a2a90611f1c565b600154604051632f7ce47360e21b8152600481018490529060e090829060249082906001600160a01b03165afa9081156103f9578291611180575b5080516006546001600160a01b0390811692610a8d9290911683149081611169575b50611ebf565b803b15610404578160049160405192838092630d0e30db60e41b825234905af180156103f95761115a575b5060065460405163095ea7b360e01b81529192919060209082906001600160a01b0316818681610aec343060048401611f60565b03925af180156110d857611121575b506000908180610b5b604051610b1081611d83565b601a815279737761702066756e64657220257320726563656976657220257360301b60208201526040519182916307e763af60e51b60208401526060602484015260848301906129a0565b30604483015233606483015203610b7a601f1991828101845283611db9565b8280835160206a636f6e736f6c652e6c6f679501855afa5060405190610b9f82611d9e565b602c82527f737761702070616972496e64657820257320697342757920257320657870656360208301526b74416d6f756e74496e20257360a01b6040830152610c276040519182610c09602082019563e41b6f6f60e01b87526080602484015260a48301906129a0565b89604483015287606483015234608483015203908101835282611db9565b51915afa5034156110e357600154604051632f7ce47360e21b815260048101839052919060e090839060249082906001600160a01b03165afa9182156110d85783926110b7575b5060408201516001600160a01b03161561107e57600254604051632500ed8d60e21b8152600481018390526001600160a01b0390911693909260c084602481885afa9384156103f957829461104e575b508051610cd3906001600160a01b03166142e5565b93610cdf858251612a00565b610d416040830151610d3b8184604051610cf881611d9e565b602b81527f7377617020696e646578546f74616c44656c746120257320737461626c65546f60208201526a74616c44656c746120257360a81b60408201526143ab565b82612127565b93610daf610d5d610d5660a087015188612aba565b80976120b8565b86604051610d6a81611d9e565b602d81527f7377617020657870656374496e64657844656c7461202573206578706563745360208201526c7461626c6544656c746120257360981b60408201526143ab565b938181111561101357610dcf610e1d92610dc98934612a00565b926120b8565b8082101561100b5750915b610e0d83604051610dea81611d83565b60118152707377617020696e646578496e44656c746160781b6020820152614353565b60606040820151910151906120b8565b610e768183604051610e2e81611d9e565b603081527f7377617020616d6f756e744f757420737461626c65546f6b656e20257320617660208201526f61696c61626c65537461626c6520257360801b60408201526143ab565b8015610fd457610eab91610e959180821015610fcc5750955b86612b22565b82519096879130906001600160a01b03166127d9565b6002546020909101516001600160a01b039081169116803b15610fc75784600091610eef9383604051809681958294630d172a0160e01b8452339060048501611efa565b03925af18015610fbb57610fa9575b50604051908152836020820152826040820152339060008051602061445883398151915260603092a4348210610f3e576040809350519182526020820152f35b610f4882346120b8565b6006549093906001600160a01b0316803b1561040457818091602460405180948193632e1a7d4d60e01b83528a60048401525af180156103f957610f95575b505061095860409333611fba565b610f9f8291611d5a565b6101615780610f87565b610fb39150611d5a565b600038610efe565b6040513d6000823e3d90fd5b600080fd5b905095610e8f565b60405162461bcd60e51b815260206004820152600f60248201526e37379039ba30b13632903a37b5b2b760891b6044820152606490fd5b905091610dda565b60405162461bcd60e51b81526020600482015260136024820152723737903732b2b21034b73232bc103a37b5b2b760691b6044820152606490fd5b61107091945060c03d8111611077575b6110688183611db9565b8101906120c5565b9238610cbe565b503d61105e565b60405162461bcd60e51b815260206004820152601160248201527039bbb0b81034b73b30b634b2103830b4b960791b6044820152606490fd5b6110d191925060e03d60e011610440576104328183611db9565b9038610c6e565b6040513d85823e3d90fd5b60405162461bcd60e51b815260206004820152601660248201527539bbb0b81034b73b30b634b21030b6b7bab73a1034b760511b6044820152606490fd5b6020813d602011611152575b8161113a60209383611db9565b810103126109715761114b90611dee565b5038610afb565b3d915061112d565b61116390611d5a565b38610ab8565b604001516001600160a01b03161515905038610a87565b611199915060e03d60e011610440576104328183611db9565b38610a65565b503381526020819052604081205460ff16610a21565b50346101615760a0366003190112610161576106dd6020916111d5611cef565b906111f26111e1611d05565b913033149081156112035750611f1c565b608435916064359160443591612e9c565b60ff9150604090338152808852205416386101c4565b50346101615760249061122b36611d40565b90929182918291851580159061174f575b61124590612ca6565b600154604051632f7ce47360e21b815260048101839052976001600160a01b03959160e0918a91829089165afa92831561038d57602498829461172e575b50611295866040860151161515611ebf565b60c086600254166040519a8b8092632500ed8d60e21b82528760048301525afa9788156103f957606099839961170a575b5061132f90611312836040516112db81611d83565b601b81527a19d95d135a5b9d131c105b5bdd5b9d081a5b99195e105b5bdd5b9d602a1b60208201528361130c612ce3565b916143f6565b610dc960c08701610dc9611327825185612aba565b915186612aba565b9361133c878251166142e5565b611347811515612d0b565b836113528285612a00565b809b61136582611360613e18565b614353565b6040611372858351612a00565b910190611380825182612127565b61142a575b505050505050916113ff6113f9611405936113ea876114179897604051906113ac82611d9e565b602382527f6765744d696e744c70416d6f756e74206166746572466565496e646578416d6f6020830152621d5b9d60ea1b604083015261130c612dfd565b6113f4868c612127565b6120b8565b91613cad565b90612b22565b9561140e613e18565b9061130c612dfd565b6040519384521660208301526040820152f35b9b859c9a859861150585969760808a9b9f8f60a061145e6114b3926114aa9f9c611457906114ba96612127565b9b51612127565b9d8e6114a4818d6040519061147282611d83565b601f82527f6765744d696e744c70416d6f756e7420696e646578546f74616c44656c746100602083015261130c612d47565b8b612127565b9a01518a612aba565b80996120b8565b9b6114fe8d6040516114cb81611d83565b602081527f6765744d696e744c70416d6f756e7420657870656374496e64657844656c746160208201528b61130c612d73565b0151613646565b999098868611156115f2575050505050976115c78b9c6115bc6115b5849b996113ff996115b06114179f9d6113f99b6114059f829c61154a6113ea9d6115ab936120b8565b925082808211156115ea5761155e916120b8565b80925b6040519061156e82611d9e565b602282527f6765744d696e744c70416d6f756e74206e65656453776170496e64657844656c602083015261746160f01b604083015261130c612e2d565b612b22565b61381d565b9586612b22565b9d8e9151169b6120b8565b6115dc816115d3613e5b565b8661130c612e57565b9597988397508d9250611385565b508092611561565b929d999450929e979450989450818111611627575b50505050505050916113ff6113f9611405936113ea8761141798976115dc565b6113ff969d508a9b5061140598506113f995936116c6936116bb6114179d6116596116cc99969c9e9c6116c1966120b8565b975087808211156117025761166d916120b8565b80975b6040519061167d82611d9e565b602382527f6765744d696e744c70416d6f756e74206e65656453776170537461626c6544656020830152626c746160e81b604083015261130c612da0565b8561381d565b612a00565b906120b8565b6113ea6116e1828b6020829e0151169a6120b8565b80976116f8826116ef613e5b565b8661130c612dfd565b9597988397611607565b508097611670565b61132f9199506117279060c03d8111611077576110688183611db9565b98906112c6565b61174891945060e03d60e011610440576104328183611db9565b9238611283565b5081151561123c565b50346101615760203660031901126101615760206106dd600435613cad565b50346101615760203660031901126101615760209060ff906040906001600160a01b036117a2611cef565b1681528084522054166040519015158152f35b50346101615760206106dd6117c936611d40565b913333612e9c565b50346101615780600319360112610161576006546040516001600160a01b039091168152602090f35b503461016157602461180b36611d2a565b611816811515612ca6565b600154604051632f7ce47360e21b815260048101849052936001600160a01b039160e0918691829085165afa938415610447578594611aad575b50806118656024926040870151161515611ebf565b60c0816002541660405193848092632500ed8d60e21b82528860048301525afa91821561058557918691611a0295949360409892611a85575b506118ae6118d8918851166142e5565b936118ba851515612d0b565b6118d2896118c9878651612a00565b94015196613cad565b90612a00565b916119168389516118e881611d83565b601c81527b6765744d696e744c70416d6f756e74206465706f73697444656c746160201b6020820152614353565b611929836119248785612127565b612127565b9061194261193b60a08a015184612aba565b80936120b8565b9561198e878b5161195281611d9e565b602181527f6765744465706f736974416d6f756e7420657870656374496e64657844656c746020820152606160f81b8d8201528561130c612d73565b819684841015600014611a3757505050906119a8916120b8565b818110611a17575060c06119d36119f5936119fb935b6115ab876119ca613e90565b8361130c613ed9565b956119e9856119e0613f0c565b8961130c613f51565b01946119f58651612092565b90612bb6565b9351612092565b6101d781611a0e613f0c565b8461130c613f51565b6119fb9193506119d36119f593611a318360c094976120b8565b956119be565b9196509150611a4692506120b8565b818110611a68575060c06119d36119f5936119fb93956115ab876119ca613e90565b925060c06119d36119f593611a80866119fb956120b8565b6119be565b6118d8919250611aa56118ae9160c03d8111611077576110688183611db9565b92915061189e565b6024919450611aca9060e03d60e011610440576104328183611db9565b9390611850565b5034610161576040366003190112610161576001600160a01b03600435818116908190036109715760243591808316809303611bd3576040516351331ad760e01b815260209081816004817f000000000000000000000000000000000000000000000000000000000000000087165afa80156105855782918791611bde575b50602460405180958193637be53ca160e01b8352336004840152165afa908115610447578591611ba3575b50611b869150611dfb565b60018060a01b031990816001541617600155600254161760025580f35b905081813d8311611bd7575b611bb98183611db9565b81010312611bd357611bcd611b8691611dee565b38611b7b565b8380fd5b503d611baf565b82819392503d8311611c0d575b611bf58183611db9565b8101031261057a57611c078291611dda565b38611b50565b503d611beb565b50346101615780600319360112610161576040517f00000000000000000000000000000000000000000000000000000000000000006001600160a01b03168152602090f35b50346101615760c036600319011261016157611c73611cef565b611c7b611d05565b6064358015158103611bd357906101d79291611ca3604095303314908115611cb45750611f1c565b60a435926084359260443591612134565b60ff9150879033815280602052205416386101c4565b9050346104045781600319360112610404576005546001600160a01b03168152602090f35b600435906001600160a01b0382168203610fc757565b602435906001600160a01b0382168203610fc757565b602435908115158203610fc757565b6040906003190112610fc7576004359060243590565b6060906003190112610fc757600435906024359060443590565b6001600160401b038111611d6d57604052565b634e487b7160e01b600052604160045260246000fd5b604081019081106001600160401b03821117611d6d57604052565b606081019081106001600160401b03821117611d6d57604052565b90601f801991011681019081106001600160401b03821117611d6d57604052565b51906001600160a01b0382168203610fc757565b51908115158203610fc757565b15611e0257565b60405162461bcd60e51b815260206004820152600d60248201526c37b7363ca837b7b620b236b4b760991b6044820152606490fd5b908160e0910312610fc7576040519060e08201908282106001600160401b03831117611d6d5760c091604052611e6c81611dda565b8352611e7a60208201611dda565b6020840152611e8b60408201611dda565b6040840152611e9c60608201611dee565b60608401526080810151608084015260a081015160a0840152015160c082015290565b15611ec657565b60405162461bcd60e51b815260206004820152600c60248201526b34b73b30b634b2103830b4b960a11b6044820152606490fd5b6001600160a01b03918216815291166020820152604081019190915260600190565b15611f2357565b60405162461bcd60e51b81526020600482015260156024820152742430b7323632b0b136329d103337b93134b23232b760591b6044820152606490fd5b6001600160a01b039091168152602081019190915260400190565b3d15611fb5573d906001600160401b038211611d6d5760405191611fa9601f8201601f191660200184611db9565b82523d6000602084013e565b606090565b81471061204d576000918291829182916001600160a01b03165af1611fdd611f7b565b5015611fe557565b60405162461bcd60e51b815260206004820152603a60248201527f416464726573733a20756e61626c6520746f2073656e642076616c75652c20726044820152791958da5c1a595b9d081b585e481a185d99481c995d995c9d195960321b6064820152608490fd5b60405162461bcd60e51b815260206004820152601d60248201527f416464726573733a20696e73756666696369656e742062616c616e63650000006044820152606490fd5b906127109182039182116120a257565b634e487b7160e01b600052601160045260246000fd5b919082039182116120a257565b908160c0910312610fc7576040519060c08201908282106001600160401b03831117611d6d5760a0916040528051835260208101516020840152604081015160408401526060810151606084015260808101516080840152015160a082015290565b919082018092116120a257565b919290959394956000808061219c6121c160405161215181611d83565b601a815279737761702066756e64657220257320726563656976657220257360301b60208201526040519283916307e763af60e51b60208401526060602484015260848301906129a0565b6001600160a01b038a811660448401528816606483015203601f198101835282611db9565b6020815191016a636f6e736f6c652e6c6f675afa50808061224d61226f6040516121ea81611d9e565b602c81527f737761702070616972496e64657820257320697342757920257320657870656360208201526b74416d6f756e74496e20257360a01b604082015260405192839163e41b6f6f60e01b60208401526080602484015260a48301906129a0565b8a604483015288151560648301528c608483015203601f198101835282611db9565b6020815191016a636f6e736f6c652e6c6f675afa5086156110e357600154604051632f7ce47360e21b815260048101879052919060e090839060249082906001600160a01b03165afa91821561038d5781926127b9575b5060408201516001600160a01b03161561107e57600254604051632500ed8d60e21b8152600481018890526001600160a01b039091169860c0826024818d5afa9182156110d8578392612799575b508351612329906001600160a01b03166142e5565b996123358b8451612a00565b9060408401519061234d8284604051610cf881611d9e565b6123578284612127565b9261237061236960a08a015186612aba565b80956120b8565b936123828582604051610d6a81611d9e565b8a1561269d5750505080821115612661576123f1926123a58d926123e3946120b8565b8082101561265a57505b6115ab816040516123bf81611d83565b60128152717377617020737461626c65496e44656c746160701b6020820152614353565b9160208151910151906120b8565b612448818360405161240281611d9e565b602e81527f7377617020616d6f756e744f757420696e646578546f6b656e2025732061766160208201526d696c61626c65496e64657820257360901b60408201526143ab565b801561261a57808210156126125750905b612464829983612b22565b996124a5838c60405161247681611d83565b601d81527f7377617020616d6f756e74496e20257320616d6f756e744f757420257300000060208201526143ab565b82106125d7576002546001600160a01b0316803b1561040457818b60848a836040519586948593631ea746b160e21b855260048501528c1515602485015260448401528860648401525af180156103f9576125c8575b5060025483519192916001600160a01b039182169116813b15611bd357918391868361253e9560405196879586948593630d172a0160e01b855260048501611efa565b03925af180156103f957908a9392916125ae575b505060200151600254600080516020614458833981519152936060939092612588926001600160a01b03908116918991166127d9565b604080519415158552602085018a905284018890526001600160a01b03908116941692a4565b819293506125bb90611d5a565b6101615790818992612552565b6125d190611d5a565b386124fb565b60405162461bcd60e51b81526020600482015260136024820152721a5b9cdd59999a58da595b9d081b5a5b93dd5d606a1b6044820152606490fd5b905090612459565b60405162461bcd60e51b815260206004820152601860248201527737379030bb30b4b630b136329034b73232bc103a37b5b2b760411b6044820152606490fd5b90506123af565b60405162461bcd60e51b81526020600482015260146024820152733737903732b2b21039ba30b13632903a37b5b2b760611b6044820152606490fd5b93509391509c5082829695961115611013576126c092610dc98d610dcf93612a00565b6126d18183604051610e2e81611d9e565b8015610fd457808210156127915750905b6127066126f0839a84612b22565b8251909b8c9189906001600160a01b03166127d9565b6002546020909101516001600160a01b039182169116813b15611bd35791839291858461274b969460405197889586948593630d172a0160e01b855260048501611efa565b03925af190811561278557509160609160008051602061445883398151915293612776575b50612588565b61277f90611d5a565b38612770565b604051903d90823e3d90fd5b9050906126e2565b6127b291925060c03d8111611077576110688183611db9565b9038612314565b6127d291925060e03d8111610440576104328183611db9565b90386122c6565b9061280f90612801612814956040519586936323b872dd60e01b602086015260248501611efa565b03601f198101845283611db9565b612816565b565b604051612874916001600160a01b031661282f82611d83565b6000806020958685527f5361666545524332303a206c6f772d6c6576656c2063616c6c206661696c656487860152868151910182855af161286e611f7b565b91612903565b80518281159182156128e4575b505090501561288d5750565b6084906040519062461bcd60e51b82526004820152602a60248201527f5361666545524332303a204552433230206f7065726174696f6e20646964206e6044820152691bdd081cdd58d8d9595960b21b6064820152fd5b8380929350010312610fc757816128fb9101611dee565b808238612881565b919290156129655750815115612917575090565b3b156129205790565b60405162461bcd60e51b815260206004820152601d60248201527f416464726573733a2063616c6c20746f206e6f6e2d636f6e74726163740000006044820152606490fd5b8251909150156129785750805190602001fd5b60405162461bcd60e51b81526020600482015290819061299c9060248301906129a0565b0390fd5b919082519283825260005b8481106129cc575050826000602080949584010152601f8019910116010190565b6020818301810151848301820152016129ab565b81156129ea570490565b634e487b7160e01b600052601260045260246000fd5b9060001981830981830291828083109203918083039214612aa45768327cb2734119d3b7a9601e1b9082821115612a67577f7d33c22789773a07feda8b6f0930e26fa397c439f1d5cf4b2eb27d7306d2dc99940990828211900360e21b9103601e1c170290565b60405162461bcd60e51b81526020600482015260156024820152744d6174683a206d756c446976206f766572666c6f7760581b6044820152606490fd5b505068327cb2734119d3b7a9601e1b9004919050565b9060001981830981830291828083109203918083039214612b17576127109082821115612a67577fbc01a36e2eb1c432ca57a786c226809d495182a9930be0ded288ce703afb7e91940990828211900360fc1b910360041c170290565b505061271091500490565b9068327cb2734119d3b7a9601e1b906000198284099282810292838086109503948086039514612ba65784831115612a67578291096001821901821680920460028082600302188083028203028083028203028083028203028083028203028083028203028092029003029360018380600003040190848311900302920304170290565b505090612bb392506129e0565b90565b90612710906000198284099282810292838086109503948086039514612ba65784831115612a67578291096001821901821680920460028082600302188083028203028083028203028083028203028083028203028083028203028092029003029360018380600003040190848311900302920304170290565b916000198284099282810292838086109503948086039514612ba65784831115612a67578291096001821901821680920460028082600302188083028203028083028203028083028203028083028203028083028203028092029003029360018380600003040190848311900302920304170290565b15612cad57565b60405162461bcd60e51b815260206004820152600e60248201526d1a5b9d985b1a5908185b5bdd5b9d60921b6044820152606490fd5b60405190612cf082611d83565b600c82526b1cdd18589b19505b5bdd5b9d60a21b6020830152565b15612d1257565b60405162461bcd60e51b815260206004820152600d60248201526c696e76616c696420707269636560981b6044820152606490fd5b60405190612d5482611d83565b601082526f737461626c65546f74616c44656c746160801b6020830152565b60405190612d8082611d83565b6011825270657870656374537461626c6544656c746160781b6020830152565b60405190612dad82611d83565b600f82526e73776170537461626c6544656c746160881b6020830152565b60405190612dd882611d83565b60168252756164644c697175696469747920736c697044656c746160501b6020830152565b60405190612e0a82611d83565b601482527318599d195c91995954dd18589b19505b5bdd5b9d60621b6020830152565b60405190612e3a82611d83565b600e82526d73776170496e64657844656c746160901b6020830152565b60405190612e6482611d83565b601382527218599d195c919959525b99195e105b5bdd5b9d606a1b6020830152565b6040919493926060820195825260208201520152565b919290936024959460008315801590613616575b612eb990612ca6565b600154604051632f7ce47360e21b8152600481018890529860e0918a919082906001600160a01b03165afa801561038d576024979882916135f8575b506040810151612f0f906001600160a01b03161515611ebf565b600254604051632500ed8d60e21b8152600481018990529860c0918a919082906001600160a01b03165afa9788156103f95782986135d8575b50612f8784604051612f5981611d83565b6018815277185919131a5c5d5a591a5d1e481a5b99195e105b5bdd5b9d60421b60208201528761130c612ce3565b306001600160a01b038716036135a6575b612fa660c082015186612aba565b9061306d613066612fbb60c084015188612aba565b9361302385604051612fcc81611d83565b601b81527a185919131a5c5d5a591a5d1e481a5b99195e119959505b5bdd5b9d602a1b6020820152836040519161300283611d83565b600f83526e1cdd18589b19519959505b5bdd5b9d608a1b60208401526143f6565b83516004546130409183916001600160a01b03908116911661361f565b60208401516004546130609187916001600160a01b03908116911661361f565b886120b8565b92866120b8565b8151909390613084906001600160a01b03166142e5565b996130908b1515612d0b565b8461309c8c8351612a00565b6130a68d87612a00565b9c8d91856040819601916130bb835182612127565b613301575b505050506130d8613121936113f4846130e194612127565b6113ff8d613cad565b9b604051906130ef82611d83565b601e82527f6164644c697175696469747920696e6465784465706f73697444656c74610000602083015261130c612dfd565b60408201516001600160a01b0316803b15610404578161315a81928d6040519485809481936340c10f1960e01b83523060048401611f60565b03925af180156103f9576132f2575b5060018060a01b03604083015116815260076020526040812060018060a01b0386166000526020526131a08a604060002054612127565b6040838101516001600160a01b0390811684526007602090815282852089831660009081529152919091209190915560025416803b156104045781856132009286838e60405196879586948593633431529d60e21b855260048501612e86565b03925af180156103f9576132de575b50509181613276827fae2a8a26a2b64d8d971277b87c24d1a12181aef23cf76b898a32ce8dd14c759197969561325d6132b59660018060a01b0383511660018060a01b03600254169061361f565b602001516002546001600160a01b03908116911661361f565b6040519061328382611d83565b602082527f6164644c6971756964697479206166746572466565496e646578416d6f756e74602083015261130c612dfd565b6040516001600160a01b039182169590911693909182916132d891899184612e86565b0390a490565b6132e88291611d5a565b610161578061320f565b6132fb90611d5a565b38613169565b856133128661331993979697612127565b9351612127565b9161335c8360405161332a81611d83565b601c81527b6164644c697175696469747920696e646578546f74616c44656c746160201b60208201528361130c612d47565b6133668382612127565b9061337861193b60a08c015184612aba565b976133bc8960405161338981611d83565b601d81527f6164644c697175696469747920657870656374496e64657844656c746100000060208201528561130c612d73565b6133ca8760808d0151613646565b999095848411156134aa575050509361348661346c61346561345e6131219b8a986115b06130e19c6113f49a8f9a613405906130d89f6120b8565b9050808a111561349f576115ab61341c828c6120b8565b80925b6040519061342c82611d83565b601f82527f6164644c6971756964697479206e65656453776170496e64657844656c746100602083015261130c612e2d565b9687612b22565b809d6120b8565b8b51600554919d916001600160a01b03908116911661361f565b6134928b6115d3612dcb565b94508296508791506130c0565b6115ab8a809261341f565b935093509795949650508181116134d6575b50505050506130e16130d8613121936113f4898095613492565b61312196506130e1946116c66130d8956116c16113f49e966134fe61355d97613556976120b8565b948589111561359b576116bb613514878b6120b8565b80975b6040519061352482611d83565b602082527f6164644c6971756964697479206e65656453776170537461626c6544656c7461602083015261130c612da0565b80926120b8565b6020880151600554919a8b96909287926135859186916001600160a01b03918216911661361f565b613591826116ef612dcb565b95508296506134bc565b6116bb898097613517565b6135bb85308860018060a01b038551166127d9565b6135d384308860018060a01b036020860151166127d9565b612f98565b6135f191985060c03d8111611077576110688183611db9565b9638612f48565b613610915060e03d8111610440576104328183611db9565b38612ef5565b50821515612eb0565b61280f612814939261280160405194859263a9059cbb60e01b602085015260248401611f60565b919080156136a5578215613674576136696136646136709285612a00565b6136da565b80936129e0565b9190565b60405162461bcd60e51b8152602060048201526009602482015268496e76616c6964206b60b81b6044820152606490fd5b60405162461bcd60e51b815260206004820152600d60248201526c496e76616c696420707269636560981b6044820152606490fd5b8015613817576137a5816000908360801c8061380b575b508060401c806137fe575b508060201c806137f1575b508060101c806137e4575b508060081c806137d7575b508060041c806137ca575b508060021c806137bd575b50600191828092811c6137b6575b1c1b61374d81856129e0565b01811c61375a81856129e0565b01811c61376781856129e0565b01811c61377481856129e0565b01811c61378181856129e0565b01811c61378e81856129e0565b01811c61379b81856129e0565b01901c80926129e0565b808210156137b1575090565b905090565b0181613741565b6002915091019038613733565b6004915091019038613728565b600891509101903861371d565b6010915091019038613712565b6020915091019038613707565b60409150910190386136fc565b915050608090386136f1565b50600090565b90918115613886578215158061387d575b156138465761384082612bb394612127565b91612c30565b60405162461bcd60e51b815260206004820152600f60248201526e496e76616c6964207265736572766560881b6044820152606490fd5b5080151561382e565b60405162461bcd60e51b815260206004820152600e60248201526d125b9d985b1a5908185b5bdd5b9d60921b6044820152606490fd5b60009493916138cc831515612ca6565b60018060a01b03908160015416966040978851632f7ce47360e21b815260e0816024816004958c878301525afa908115613ca3578391613c85575b508981019161391a868451161515611ebf565b85835116845260209260078452868c86209816978886528452888c86205410613c4b579160c09b9391879695938b9a9998600254169d8e602488519e8f928391632500ed8d60e21b8352878301525afa9b8c15613c4157859c613c21575b506139838a8c613ffd565b9e909c8d613996825188840151906120b8565b10613bde578f908060608a6139b0930151910151906120b8565b10613b9b57803b1561057a57858f6139e1928f8f84908c5196879586948593631a8c15b360e21b85528c8501612e86565b03925af18015613b6a57613b88575b5087815116803b1561057a5785613a1e81928d8a51948580948193632770a7eb60e21b8352308b8401611f60565b03925af18015613b6a57908691613b74575b50508781511685526007845285852089600052845287613a548b88600020546120b8565b91511685526007845285852089600052845285600020558660025416928783511693803b1561057a57858d613aa1928a838b51809681958294630d172a0160e01b9d8e85528c8501611efa565b03925af18015613b6a578992918791613b51575b505081600254169301511692823b156103f55791869391858f94613ae682968a519889978896879586528501611efa565b03925af18015613b4757613b33575b505090613b2c7f6291bcce50c38c39d79a98ff5fad7f35319722e73285b50a6140dbfac75d511e93925192839216958a8984612e86565b0390a49190565b613b3d8291611d5a565b6101615780613af5565b83513d84823e3d90fd5b613b5d91929350611d5a565b6103f55787908538613ab5565b87513d88823e3d90fd5b613b7d90611d5a565b6103f5578438613a30565b613b9490959195611d5a565b93386139f0565b865162461bcd60e51b8152808401869052601f60248201527f696e73756666696369656e7420737461626c65546f6b656e20616d6f756e74006044820152606490fd5b875162461bcd60e51b8152808501879052601e60248201527f696e73756666696369656e7420696e646578546f6b656e20616d6f756e7400006044820152606490fd5b613c3a919c5060c03d8111611077576110688183611db9565b9a38613978565b86513d87823e3d90fd5b8b5162461bcd60e51b81528083018590526014602482015273696e73756666696369656e742062616c616e636560601b6044820152606490fd5b613c9d915060e03d8111610440576104328183611db9565b38613907565b8a513d85823e3d90fd5b90602460018060a01b0380600154169360e0604095865194858092632f7ce47360e21b82528560048301525afa928315613ded57600093613df8575b5060c08260025416916024875180948193632500ed8d60e21b835260048301525afa8015613ded57613d3e91600091613dcf575b5085613d35613d2e858751166142e5565b8351612a00565b91015190612127565b918215613dbb5784015184516318160ddd60e01b81529160209183916004918391165afa938415613db15750600093613d7e575b5091612bb39192612b22565b6020813d8211613da9575b81613d9660209383611db9565b81010312611bd357519250612bb3613d72565b3d9150613d89565b513d6000823e3d90fd5b5068327cb2734119d3b7a9601e1b93505050565b613de7915060c03d8111611077576110688183611db9565b38613d1d565b85513d6000823e3d90fd5b613e1191935060e03d8111610440576104328183611db9565b9138613ce9565b60405190613e2582611d9e565b60218252606160f81b6040837f6765744d696e744c70416d6f756e7420696e6465784465706f73697444656c7460208201520152565b60405190613e6882611d83565b60198252786765744d696e744c70416d6f756e7420736c697044656c746160381b6020830152565b60405190613e9d82611d9e565b6027825266656e44656c746160c81b6040837f6765744465706f736974416d6f756e74206465706f736974496e646578546f6b60208201520152565b60405190613ee682611d83565b60178252766465706f736974537461626c65546f6b656e44656c746160481b6020830152565b60405190613f1982611d9e565b60238252621d5b9d60ea1b6040837f6765744465706f736974416d6f756e74206465706f736974496e646578416d6f60208201520152565b60405190613f5e82611d83565b601382527219195c1bdcda5d14dd18589b19505b5bdd5b9d606a1b6020830152565b60405190613f8d82611d9e565b60288252676b656e44656c746160c01b6040837f6765745265636569766564416d6f756e742072656365697665496e646578546f60208201520152565b60405190613fd782611d83565b601782527672656365697665537461626c65546f6b656e44656c746160481b6020830152565b919061400a811515612ca6565b60015460408051632f7ce47360e21b8152600481018690529092916001600160a01b039060e0908390602490829085165afa9182156142da5790602492916000926142ba575b506140618186840151161515611ebf565b60c08160025416865194858092632500ed8d60e21b82528b60048301525afa928315613ded57600093614292575b5061409f6140c3918351166142e5565b936140ab851515612d0b565b6118d2866140ba878751612a00565b95015198613cad565b916141028386516140d381611d83565b601e81527f6765745265636569766564416d6f756e74207265636569766544656c746100006020820152614353565b61412161193b60a0614118866113f48c87612127565b94015184612aba565b61416d81875161413081611d9e565b602281527f6765745265636569766564416d6f756e7420657870656374496e64657844656c602082015261746160f01b898201528561130c612d73565b600090819884841160001461424a5750505090614189916120b8565b81811061422e57506141b06136709286925b6115ab846141a7613f80565b8361130c613fca565b92838151916141be83611d9e565b602983527f6765745265636569766564416d6f756e742072656365697665496e646578546f6020840152681ad95b905b5bdd5b9d60ba1b81840152519161420483611d83565b60188352771c9958d95a5d9954dd18589b19551bdad95b905b5bdd5b9d60421b60208401526143f6565b613670929550614242816141b092936120b8565b95869261419b565b909194935061367095985061425f92506120b8565b81811061427a57506141b0909586926115ab846141a7613f80565b9150614289826141b0926120b8565b9195869261419b565b6140c39193506142b261409f9160c03d8111611077576110688183611db9565b93915061408f565b6142d391925060e03d8111610440576104328183611db9565b9038614050565b84513d6000823e3d90fd5b6003546040516341976e0960e01b81526001600160a01b0392831660048201529160209183916024918391165afa908115610fbb57600091614325575090565b906020823d821161434b575b8161433e60209383611db9565b8101031261016157505190565b3d9150614331565b60009190829161439860405180926143846020830195632d839cb360e21b87526040602485015260648401906129a0565b90604483015203601f198101835282611db9565b51906a636f6e736f6c652e6c6f675afa50565b6000929161439884936040519283916143dd602084019663ca47c4eb60e01b88526060602486015260848501906129a0565b916044840152606483015203601f198101835282611db9565b9061439860009493859461444360405194859361442c602086019863c67ea9d160e01b8a526080602488015260a48701906129a0565b9160448601526023198583030160648601526129a0565b90608483015203601f198101835282611db956fe2424e4440d8e90b9be053a61916674e21e7603a28f7dccf3ff7b88b755c2e619a264697066735822122057e6c3c6250ee5d60e9a40d782b51cc397f3aae99b3d9e0ec4fa55a601b1d4d464736f6c63430008110033",
  "devdoc": {
    "kind": "dev",
    "methods": {},
    "version": 1
  },
  "userdoc": {
    "kind": "user",
    "methods": {},
    "version": 1
  },
  "storageLayout": {
    "storage": [
      {
        "astId": 6574,
        "contract": "contracts/pair/PairLiquidity.sol:PairLiquidity",
        "label": "isHandler",
        "offset": 0,
        "slot": "0",
        "type": "t_mapping(t_address,t_bool)"
      },
      {
        "astId": 8855,
        "contract": "contracts/pair/PairLiquidity.sol:PairLiquidity",
        "label": "pairInfo",
        "offset": 0,
        "slot": "1",
        "type": "t_contract(IPairInfo)12341"
      },
      {
        "astId": 8858,
        "contract": "contracts/pair/PairLiquidity.sol:PairLiquidity",
        "label": "pairVault",
        "offset": 0,
        "slot": "2",
        "type": "t_contract(IPairVault)12447"
      },
      {
        "astId": 8861,
        "contract": "contracts/pair/PairLiquidity.sol:PairLiquidity",
        "label": "vaultPriceFeed",
        "offset": 0,
        "slot": "3",
        "type": "t_contract(IVaultPriceFeed)5811"
      },
      {
        "astId": 8863,
        "contract": "contracts/pair/PairLiquidity.sol:PairLiquidity",
        "label": "feeReceiver",
        "offset": 0,
        "slot": "4",
        "type": "t_address"
      },
      {
        "astId": 8865,
        "contract": "contracts/pair/PairLiquidity.sol:PairLiquidity",
        "label": "slipReceiver",
        "offset": 0,
        "slot": "5",
        "type": "t_address"
      },
      {
        "astId": 8867,
        "contract": "contracts/pair/PairLiquidity.sol:PairLiquidity",
        "label": "weth",
        "offset": 0,
        "slot": "6",
        "type": "t_address"
      },
      {
        "astId": 8873,
        "contract": "contracts/pair/PairLiquidity.sol:PairLiquidity",
        "label": "userPairTokens",
        "offset": 0,
        "slot": "7",
        "type": "t_mapping(t_address,t_mapping(t_address,t_uint256))"
      }
    ],
    "types": {
      "t_address": {
        "encoding": "inplace",
        "label": "address",
        "numberOfBytes": "20"
      },
      "t_bool": {
        "encoding": "inplace",
        "label": "bool",
        "numberOfBytes": "1"
      },
      "t_contract(IPairInfo)12341": {
        "encoding": "inplace",
        "label": "contract IPairInfo",
        "numberOfBytes": "20"
      },
      "t_contract(IPairVault)12447": {
        "encoding": "inplace",
        "label": "contract IPairVault",
        "numberOfBytes": "20"
      },
      "t_contract(IVaultPriceFeed)5811": {
        "encoding": "inplace",
        "label": "contract IVaultPriceFeed",
        "numberOfBytes": "20"
      },
      "t_mapping(t_address,t_bool)": {
        "encoding": "mapping",
        "key": "t_address",
        "label": "mapping(address => bool)",
        "numberOfBytes": "32",
        "value": "t_bool"
      },
      "t_mapping(t_address,t_mapping(t_address,t_uint256))": {
        "encoding": "mapping",
        "key": "t_address",
        "label": "mapping(address => mapping(address => uint256))",
        "numberOfBytes": "32",
        "value": "t_mapping(t_address,t_uint256)"
      },
      "t_mapping(t_address,t_uint256)": {
        "encoding": "mapping",
        "key": "t_address",
        "label": "mapping(address => uint256)",
        "numberOfBytes": "32",
        "value": "t_uint256"
      },
      "t_uint256": {
        "encoding": "inplace",
        "label": "uint256",
        "numberOfBytes": "32"
      }
    }
  }
}