{
  "address": "0x01c1DeF3b91672704716159C9041Aeca392DdFfb",
  "abi": [
    {
      "inputs": [
        {
          "internalType": "contract IAddressesProvider",
          "name": "addressProvider",
          "type": "address"
        },
        {
          "internalType": "contract IPairInfo",
          "name": "_pairInfo",
          "type": "address"
        }
      ],
      "stateMutability": "nonpayable",
      "type": "constructor"
    },
    {
      "inputs": [],
      "name": "ADDRESS_PROVIDER",
      "outputs": [
        {
          "internalType": "contract IAddressesProvider",
          "name": "",
          "type": "address"
        }
      ],
      "stateMutability": "view",
      "type": "function"
    },
    {
      "inputs": [
        {
          "internalType": "uint256",
          "name": "_pairIndex",
          "type": "uint256"
        },
        {
          "internalType": "uint256",
          "name": "_profit",
          "type": "uint256"
        }
      ],
      "name": "decreaseProfit",
      "outputs": [
        {
          "internalType": "uint256",
          "name": "extraIndexAmount",
          "type": "uint256"
        }
      ],
      "stateMutability": "nonpayable",
      "type": "function"
    },
    {
      "inputs": [
        {
          "internalType": "uint256",
          "name": "_pairIndex",
          "type": "uint256"
        },
        {
          "internalType": "uint256",
          "name": "_indexAmount",
          "type": "uint256"
        },
        {
          "internalType": "uint256",
          "name": "_stableAmount",
          "type": "uint256"
        }
      ],
      "name": "decreaseReserveAmount",
      "outputs": [],
      "stateMutability": "nonpayable",
      "type": "function"
    },
    {
      "inputs": [
        {
          "internalType": "uint256",
          "name": "_pairIndex",
          "type": "uint256"
        },
        {
          "internalType": "uint256",
          "name": "_indexAmount",
          "type": "uint256"
        },
        {
          "internalType": "uint256",
          "name": "_stableAmount",
          "type": "uint256"
        }
      ],
      "name": "decreaseTotalAmount",
      "outputs": [],
      "stateMutability": "nonpayable",
      "type": "function"
    },
    {
      "inputs": [
        {
          "internalType": "uint256",
          "name": "_pairIndex",
          "type": "uint256"
        }
      ],
      "name": "getVault",
      "outputs": [
        {
          "components": [
            {
              "internalType": "uint256",
              "name": "indexTotalAmount",
              "type": "uint256"
            },
            {
              "internalType": "uint256",
              "name": "indexReservedAmount",
              "type": "uint256"
            },
            {
              "internalType": "uint256",
              "name": "stableTotalAmount",
              "type": "uint256"
            },
            {
              "internalType": "uint256",
              "name": "stableReservedAmount",
              "type": "uint256"
            },
            {
              "internalType": "uint256",
              "name": "averagePrice",
              "type": "uint256"
            },
            {
              "internalType": "int256",
              "name": "realisedPnl",
              "type": "int256"
            }
          ],
          "internalType": "struct IPairVault.Vault",
          "name": "vault",
          "type": "tuple"
        }
      ],
      "stateMutability": "view",
      "type": "function"
    },
    {
      "inputs": [
        {
          "internalType": "uint256",
          "name": "_pairIndex",
          "type": "uint256"
        },
        {
          "internalType": "uint256",
          "name": "_profit",
          "type": "uint256"
        }
      ],
      "name": "increaseProfit",
      "outputs": [],
      "stateMutability": "nonpayable",
      "type": "function"
    },
    {
      "inputs": [
        {
          "internalType": "uint256",
          "name": "_pairIndex",
          "type": "uint256"
        },
        {
          "internalType": "uint256",
          "name": "_indexAmount",
          "type": "uint256"
        },
        {
          "internalType": "uint256",
          "name": "_stableAmount",
          "type": "uint256"
        }
      ],
      "name": "increaseReserveAmount",
      "outputs": [],
      "stateMutability": "nonpayable",
      "type": "function"
    },
    {
      "inputs": [
        {
          "internalType": "uint256",
          "name": "_pairIndex",
          "type": "uint256"
        },
        {
          "internalType": "uint256",
          "name": "_indexAmount",
          "type": "uint256"
        },
        {
          "internalType": "uint256",
          "name": "_stableAmount",
          "type": "uint256"
        }
      ],
      "name": "increaseTotalAmount",
      "outputs": [],
      "stateMutability": "nonpayable",
      "type": "function"
    },
    {
      "inputs": [
        {
          "internalType": "address",
          "name": "",
          "type": "address"
        }
      ],
      "name": "isHandler",
      "outputs": [
        {
          "internalType": "bool",
          "name": "",
          "type": "bool"
        }
      ],
      "stateMutability": "view",
      "type": "function"
    },
    {
      "inputs": [],
      "name": "pairInfo",
      "outputs": [
        {
          "internalType": "contract IPairInfo",
          "name": "",
          "type": "address"
        }
      ],
      "stateMutability": "view",
      "type": "function"
    },
    {
      "inputs": [
        {
          "internalType": "address",
          "name": "_handler",
          "type": "address"
        },
        {
          "internalType": "bool",
          "name": "_isHandler",
          "type": "bool"
        }
      ],
      "name": "setHandler",
      "outputs": [],
      "stateMutability": "nonpayable",
      "type": "function"
    },
    {
      "inputs": [
        {
          "internalType": "contract IPairInfo",
          "name": "_pairInfo",
          "type": "address"
        }
      ],
      "name": "setPairInfo",
      "outputs": [],
      "stateMutability": "nonpayable",
      "type": "function"
    },
    {
      "inputs": [
        {
          "internalType": "uint256",
          "name": "_pairIndex",
          "type": "uint256"
        },
        {
          "internalType": "bool",
          "name": "_isBuy",
          "type": "bool"
        },
        {
          "internalType": "uint256",
          "name": "_amountIn",
          "type": "uint256"
        },
        {
          "internalType": "uint256",
          "name": "_amountOut",
          "type": "uint256"
        }
      ],
      "name": "swap",
      "outputs": [],
      "stateMutability": "nonpayable",
      "type": "function"
    },
    {
      "inputs": [
        {
          "internalType": "address",
          "name": "token",
          "type": "address"
        },
        {
          "internalType": "address",
          "name": "to",
          "type": "address"
        },
        {
          "internalType": "uint256",
          "name": "amount",
          "type": "uint256"
        }
      ],
      "name": "transferTokenTo",
      "outputs": [],
      "stateMutability": "nonpayable",
      "type": "function"
    },
    {
      "inputs": [
        {
          "internalType": "uint256",
          "name": "_pairIndex",
          "type": "uint256"
        },
        {
          "internalType": "uint256",
          "name": "_averagePrice",
          "type": "uint256"
        }
      ],
      "name": "updateAveragePrice",
      "outputs": [],
      "stateMutability": "nonpayable",
      "type": "function"
    },
    {
      "inputs": [
        {
          "internalType": "uint256",
          "name": "",
          "type": "uint256"
        }
      ],
      "name": "vaults",
      "outputs": [
        {
          "internalType": "uint256",
          "name": "indexTotalAmount",
          "type": "uint256"
        },
        {
          "internalType": "uint256",
          "name": "indexReservedAmount",
          "type": "uint256"
        },
        {
          "internalType": "uint256",
          "name": "stableTotalAmount",
          "type": "uint256"
        },
        {
          "internalType": "uint256",
          "name": "stableReservedAmount",
          "type": "uint256"
        },
        {
          "internalType": "uint256",
          "name": "averagePrice",
          "type": "uint256"
        },
        {
          "internalType": "int256",
          "name": "realisedPnl",
          "type": "int256"
        }
      ],
      "stateMutability": "view",
      "type": "function"
    }
  ],
  "transactionHash": "0xa3c278370ba49ff6647051d72f4a6cbcd6beabaf35327b5286d27518c1eeddb2",
  "args": [
    "0xFD471836031dc5108809D173A067e8486B9047A3",
    "0x32EEce76C2C2e8758584A83Ee2F522D4788feA0f"
  ],
  "numDeployments": 1,
  "solcInputHash": "dbd8b9bdf15109328226d3d4a4bdaf81",
  "bytecode": "0x60a0346100b157601f6122d638819003918201601f19168301916001600160401b038311848410176100b65780849260409485528339810103126100b15780516001600160a01b039182821682036100b157602001519182168092036100b1573360005260006020526040600020600160ff1982541617905560805260018060a01b0319600154161760015560405161220990816100cd82396080518181816101370152818161040e015261177a0152f35b600080fd5b634e487b7160e01b600052604160045260246000fdfe604060808152600436101561001357600080fd5b600090813560e01c8063028054541461180e5780630d172a01146117a95780631848effa146117665780631c27b53e146116b85780632d23f449146111a757806346ea87af1461116b57806354ab60f914610d9c5780636a3056cc14610c5a5780637a9d1ac4146107be5780637c7c829d146106565780638c64ea4a146105f75780639403b634146105395780639cb7de4b146103ca578063d0c54a7414610272578063f49a9b8a146100fa5763fc2a5b1d146100cf57600080fd5b346100f657816003193601126100f65760015490516001600160a01b039091168152602090f35b5080fd5b50346100f65760208060031936011261026e576004356001600160a01b0381811693918490036102155781516351331ad760e01b815283816004817f000000000000000000000000000000000000000000000000000000000000000086165afa90811561026457908491879161022a575b506024845180948193637be53ca160e01b8352336004840152165afa9081156102205785916101e7575b50156101b4575050600180546001600160a01b03191691909117905580f35b60649250519062461bcd60e51b82526004820152600d60248201526c37b7363ca837b7b620b236b4b760991b6044820152fd5b90508281813d8311610219575b6101fe8183611a58565b810103126102155761020f90611a8d565b38610195565b8480fd5b503d6101f4565b82513d87823e3d90fd5b82819392503d831161025d575b6102418183611a58565b81010312610259576102538491611a79565b3861016b565b8580fd5b503d610237565b83513d88823e3d90fd5b8280fd5b50346100f6576103b29061028536611969565b90929130331480156103b5575b61029b90611a9a565b8552600260205261036082862091825461035860028501968754926103118489516102c581611a07565b602b81527f696e637265617365546f74616c416d6f756e74206265666f726520696e64657860208201526a151bdd185b105b5bdd5b9d60aa1b8b8201528361030b611af9565b91612172565b61035385895161032081611a22565b602081527f696e637265617365546f74616c416d6f756e74205f696e646578416d6f756e7460208201528461030b611b26565b611b4f565b809455611b4f565b809355691bdd185b105b5bdd5b9d60b21b82519261037d84611a07565b602a84527f696e637265617365546f74616c416d6f756e7420616674657220696e64657854602085015283015261030b611af9565b80f35b5033865260208690528286205460ff16610292565b50346100f657806003193601126100f6576103e3611988565b906103ec6119b4565b81516351331ad760e01b815290926020916001600160a01b03919083816004817f000000000000000000000000000000000000000000000000000000000000000087165afa9081156104f857839185918991610502575b506024875180948193630935e01b60e21b8352336004840152165afa9081156104f85787916104bf575b501561048f57908592911682525282209060ff80198354169115151617905580f35b835162461bcd60e51b815260048101849052600960248201526837b7363ca0b236b4b760b91b6044820152606490fd5b90508381813d83116104f1575b6104d68183611a58565b810103126104ed576104e790611a8d565b3861046d565b8680fd5b503d6104cc565b85513d89823e3d90fd5b92505081813d8311610532575b6105198183611a58565b810103126104ed578361052c8492611a79565b38610443565b503d61050f565b50346100f65760203660031901126100f657808260c09360a0835161055d816119c3565b828152826020820152828582015282606082015282608082015201526004358152600260205220815190610590826119c3565b8054928383526001820154906020840191825260028301548185019081526003840154926060860193845260a060056004870154966080890197885201549601958652825196875251602087015251908501525160608401525160808301525160a0820152f35b50346100f65760203660031901126100f6578060c09260043581526002602052209081549160018101549160028201546003830154916005600485015494015494815196875260208701528501526060840152608083015260a0820152f35b50346100f6576103b29061066936611969565b90929130331480156107a9575b61067f90611a9a565b8552600260205261075282862091600183019261074a600385549201968754926106f98489516106ae81611a07565b603081527f646563726561736552657365727665416d6f756e74206265666f726520696e6460208201526f195e14995cd95c9d9959105b5bdd5b9d60821b8b8201528361030b611b7f565b61074585895161070881611a07565b602281527f646563726561736552657365727665416d6f756e74205f696e646578416d6f756020820152611b9d60f21b8b8201528461030b611b26565b611b72565b809455611b72565b8093556e1e14995cd95c9d9959105b5bdd5b9d608a1b82519261077484611a07565b602f84527f646563726561736552657365727665416d6f756e7420616674657220696e6465602085015283015261030b611b7f565b5033865260208690528286205460ff16610676565b509034610a6b576080366003190112610a6b57600435916107dd6119b4565b906044803594606480353033148015610c45575b6107fa90611a9a565b84519561080687611a07565b602287526020908188017f737761702070616972496e64657820257320627579496e646578546f6b656e20905286880161257360f01b9052888088518481019063ca7733b160e01b82528060249c8d8201606090526084820161086891611db3565b8a8c8301528615158a83015203601f19810182526108869082611a58565b51905a6a636f6e736f6c652e6c6f6790fa5086516108a381611a07565b602a81528281017f737761702070616972496e64657820257320616d6f756e74496e20257320616d9052838b898301696f756e744f757420257360b01b90526108eb92612114565b848952600282528689208751610900816119c3565b8154815260018083015485830190815260028401548b8401908152600385015460608501908152600480870154608087015260059096015460a086015292548c51632f7ce47360e21b81529586018b905290959194906001600160a01b0316818e815a9360e094fa8015610c3957610c0a575b5015610ad75750610988925051905190611b72565b6109dc8184895161099881611a07565b602e81527f7377617020616d6f756e744f757420696e646578546f6b656e20257320617661868201526d696c61626c65496e64657820257360901b8b820152612114565b8211610a9957508697303b15610a9557855190633431529d60e21b82528460048301528888830152858201528781848183305af18015610a8b57908891610a77575b5050303b156104ed57869384918651978895631a8c15b360e21b875260048701528501528301528183305af1908115610a6e5750610a5b57505080f35b610a64906119f4565b610a6b5780f35b80fd5b513d84823e3d90fd5b610a80906119f4565b6104ed578638610a1e565b86513d8a823e3d90fd5b8780fd5b90507a0e6eec2e040d2dcc8caf040e8ded6cadc40dcdee840cadcdeeaced602b1b84601b8888519462461bcd60e51b86526004860152840152820152fd5b915050610ae79151905190611b72565b610b3d81848951610af781611a07565b603081527f7377617020616d6f756e744f757420737461626c65546f6b656e202573206176868201526f61696c61626c65537461626c6520257360801b8b820152612114565b8211610bcb5750303b156104ed57845197633431529d60e21b89528360048a01528689015286848901528688838183305af180156104f857610bb7575b869750303b156104ed578693848651978895631a8c15b360e21b875260048701528501528301528183305af1908115610a6e5750610a5b57505080f35b959096610bc3906119f4565b948690610b7a565b90507b0e6eec2e040e6e8c2c4d8ca40e8ded6cadc40dcdee840cadcdeeaced60231b84601c8888519462461bcd60e51b86526004860152840152820152fd5b610c2b9060e03d60e011610c32575b610c238183611a58565b810190611e2a565b5038610973565b503d610c19565b8e8d51903d90823e3d90fd5b5033875260208790528487205460ff166107f1565b50346100f6576103b290610c6d36611969565b9092913033148015610d87575b610c8390611a9a565b85526002602052610d3582862091825461074a6002850196875492610cf3848951610cad81611a07565b602b81527f6465637265617365546f74616c416d6f756e74206265666f726520696e64657860208201526a151bdd185b105b5bdd5b9d60aa1b8b8201528361030b611af9565b610745858951610d0281611a22565b602081527f6465637265617365546f74616c416d6f756e74205f696e646578416d6f756e7460208201528461030b611b26565b809355691bdd185b105b5bdd5b9d60b21b825192610d5284611a07565b602a84527f6465637265617365546f74616c416d6f756e7420616674657220696e64657854602085015283015261030b611af9565b5033865260208690528286205460ff16610c7a565b509034610a6b57610dac3661199e565b90923033148015611156575b610dc190611a9a565b8383526020916002835281842090610e0c818451610dde81611a22565b60198152780d2dcc6e4cac2e6caa0e4deccd2e840bee0c2d2e492dcc8caf603b1b878201528861030b611dd8565b815460018301548451610e5392610e2282611a22565b601f82527f696e63726561736550726f66697420696e646578546f74616c416d6f756e74008883015261030b611dfb565b6001548351632f7ce47360e21b80825260048201899052602498909290916001600160a01b039182169060e0818c81855afa90811561114c579083918b9161112d575b5051169287519489868d816370a0823160e01b988982523060048301525afa95861561112357908c918c976110eb575b509060e092918a519485938492835260048301525afa9081156110e15788929183918b916110c2575b50015116918987518094819382523060048301525afa9081156104f8578791611093575b508451610f5d92610f2382611a07565b602182527f696e63726561736550726f66697420696e646578546f6b656e2062616c616e6388830152606560f81b8783015261030b611eb2565b60056002830192610f6f838554611b4f565b809455018054868382019384129112908015821691151617611080579361105e86979460809461104f610fa88661106c978c9b55611ee1565b916110368451610fb781611a07565b602d81527f646563726561736552657365727665416d6f756e742061667465722073746162888201526c1b19551bdd185b105b5bdd5b9d609a1b8682015285519561100187611a22565b600b87526a1c99585b1a5cd959141b9b60aa1b8988015251998a9889019b635ab84e1f60e01b8d5289015260a4880190611db3565b9060448701526023199384878303016064880152611db3565b91848303016084850152611db3565b03601f198101835282611a58565b51906a636f6e736f6c652e6c6f675afa5080f35b634e487b7160e01b865260116004528686fd5b90508581813d83116110bb575b6110aa8183611a58565b810103126104ed5751610f5d610f13565b503d6110a0565b6110db915060e03d60e011610c3257610c238183611a58565b38610eef565b87513d8b823e3d90fd5b8b809298508193503d831161111c575b6111058183611a58565b810103126111185751948b9060e0610ec6565b8a80fd5b503d6110fb565b89513d8d823e3d90fd5b611146915060e03d60e011610c3257610c238183611a58565b38610e96565b88513d8c823e3d90fd5b5033835260208390528083205460ff16610db8565b50346100f65760203660031901126100f65760209160ff9082906001600160a01b03611195611988565b16815280855220541690519015158152f35b509034610a6b576111b73661199e565b929030331480156116a3575b6111cc90611a9a565b80835260209360028552828420916112178285516111e981611a22565b60198152780c8cac6e4cac2e6caa0e4deccd2e840bee0c2d2e492dcc8caf603b1b898201528361030b611dd8565b82546001840154855161125e9261122d82611a22565b601f82527f646563726561736550726f66697420696e646578546f74616c416d6f756e74008a83015261030b611dfb565b6001548451632f7ce47360e21b8152600481018390526001600160a01b03909116919060e081602481865afa90811561169957879161167a575b505185516370a0823160e01b80825230600483015290918990839060249082906001600160a01b03165afa91821561161857889261164b575b508651632f7ce47360e21b81526004810184905260e081602481885afa90811561164157908a918a91611622575b508101518851928352306004840152829060249082906001600160a01b03165afa9081156116185788916115e9575b5086516113789261133e82611a07565b602182527f646563726561736550726f66697420696e646578546f6b656e2062616c616e638b830152606560f81b8983015261030b611eb2565b61138b6002850154600386015490611b72565b8680875161139881611a22565b601e81527f646563726561736550726f66697420617661696c61626c65537461626c6500008b8201526113fd8b6113e98b51938492632d839cb360e21b908401528c60248401526064830190611db3565b86604483015203601f198101835282611a58565b8a815191016a636f6e736f6c652e6c6f675afa5083116115ab5760e0906024865180948193632f7ce47360e21b835260048301525afa9081156115a15761145b9183918791611582575b5087015133906001600160a01b0316611baf565b611469816002840154611b72565b9182600282015560058101805486848203941281851281169185139015161761156e57916115576114a1879593838796555492611ee1565b9161105e8751946114b186611a3d565b604c86527f646563726561736550726f66697420616674657220737461626c65546f74616c8b8701527f416d6f756e7420257320696e646578546f74616c416d6f756e74202573207265898701526b616c69736564506e6c20257360a01b6060870152885194859361153b8d8601986342a59a4b60e11b8a526080602488015260a4870190611db3565b9260448601526064850152602319848303016084850152611db3565b51906a636f6e736f6c652e6c6f675afa5051908152f35b634e487b7160e01b86526011600452602486fd5b61159b915060e03d60e011610c3257610c238183611a58565b38611447565b84513d87823e3d90fd5b845162461bcd60e51b81526004810188905260176024820152760e6e8c2c4d8ca40e8ded6cadc40dcdee840cadcdeeaced604b1b6044820152606490fd5b90508881813d8311611611575b6116008183611a58565b81010312610a95575161137861132e565b503d6115f6565b87513d8a823e3d90fd5b61163b915060e03d60e011610c3257610c238183611a58565b386112ff565b88513d8b823e3d90fd5b9091508881813d8311611673575b6116638183611a58565b81010312610a95575190386112d1565b503d611659565b611693915060e03d60e011610c3257610c238183611a58565b38611298565b86513d89823e3d90fd5b5033835260208390528183205460ff166111c3565b50346100f65760046116c93661199e565b92903033148015611751575b6116de90611a9a565b6117438483516116ed81611a22565b601d81527f757064617465417665726167655072696365205f70616972496e64657800000060208201528385519161172483611a22565b600d83526c5f61766572616765507269636560981b6020840152612172565b845260026020528320015580f35b5033855260208590528185205460ff166116d5565b50346100f657816003193601126100f657517f00000000000000000000000000000000000000000000000000000000000000006001600160a01b03168152602090f35b50346100f65760603660031901126100f6576117c3611988565b6024356001600160a01b038082168203610215576117ef6103b2943033149081156117f9575b50611a9a565b6044359216611baf565b60ff91503388528760205287205416386117e9565b50346100f6576103b29061182136611969565b9092913033148015611954575b61183790611a9a565b855260026020526118fd828620916001830192610358600385549201968754926118b184895161186681611a07565b603081527f696e63726561736552657365727665416d6f756e74206265666f726520696e6460208201526f195e14995cd95c9d9959105b5bdd5b9d60821b8b8201528361030b611b7f565b6103538589516118c081611a07565b602281527f696e63726561736552657365727665416d6f756e74205f696e646578416d6f756020820152611b9d60f21b8b8201528461030b611b26565b8093556e1e14995cd95c9d9959105b5bdd5b9d608a1b82519261191f84611a07565b602f84527f696e63726561736552657365727665416d6f756e7420616674657220696e6465602085015283015261030b611b7f565b5033865260208690528286205460ff1661182e565b606090600319011261198357600435906024359060443590565b600080fd5b600435906001600160a01b038216820361198357565b6040906003190112611983576004359060243590565b60243590811515820361198357565b60c081019081106001600160401b038211176119de57604052565b634e487b7160e01b600052604160045260246000fd5b6001600160401b0381116119de57604052565b606081019081106001600160401b038211176119de57604052565b604081019081106001600160401b038211176119de57604052565b608081019081106001600160401b038211176119de57604052565b90601f801991011681019081106001600160401b038211176119de57604052565b51906001600160a01b038216820361198357565b5190811515820361198357565b15611aa157565b60405162461bcd60e51b81526020600482015260156024820152742430b7323632b0b136329d103337b93134b23232b760591b6044820152606490fd5b6001600160401b0381116119de57601f01601f191660200190565b60405190611b0682611a22565b60118252701cdd18589b19551bdd185b105b5bdd5b9d607a1b6020830152565b60405190611b3382611a22565b600d82526c17dcdd18589b19505b5bdd5b9d609a1b6020830152565b91908201809211611b5c57565b634e487b7160e01b600052601160045260246000fd5b91908203918211611b5c57565b60405190611b8c82611a22565b60148252731cdd18589b1954995cd95c9d9959105b5bdd5b9d60621b6020830152565b60405163a9059cbb60e01b60208083019182526001600160a01b03948516602484015260448084019690965294825292611c5a92611bec83611a3d565b1660405191611bfa83611a22565b8583527f5361666545524332303a206c6f772d6c6576656c2063616c6c206661696c656486840152600080958192519082855af13d15611cef573d91611c3f83611ade565b92611c4d6040519485611a58565b83523d868885013e611cf3565b90815190838215928315611ccd575b505050905015611c765750565b6084906040519062461bcd60e51b82526004820152602a60248201527f5361666545524332303a204552433230206f7065726174696f6e20646964206e6044820152691bdd081cdd58d8d9595960b21b6064820152fd5b848092939450010312610a6b575081611ce69101611a8d565b80388381611c69565b6060915b91929015611d555750815115611d07575090565b3b15611d105790565b60405162461bcd60e51b815260206004820152601d60248201527f416464726573733a2063616c6c20746f206e6f6e2d636f6e74726163740000006044820152606490fd5b825190915015611d685750805190602001fd5b60405162461bcd60e51b815260206004820152908190611d8c906024830190611db3565b0390fd5b60005b838110611da35750506000910152565b8181015183820152602001611d93565b90602091611dcc81518092818552858086019101611d90565b601f01601f1916010190565b60405190611de582611a22565b600782526617dc1c9bd99a5d60ca1b6020830152565b60405190611e0882611a22565b60138252721a5b99195e14995cd95c9d9959105b5bdd5b9d606a1b6020830152565b908160e0910312611983576040519060e08201908282106001600160401b038311176119de5760c091604052611e5f81611a79565b8352611e6d60208201611a79565b6020840152611e7e60408201611a79565b6040840152611e8f60608201611a8d565b60608401526080810151608084015260a081015160a0840152015160c082015290565b60405190611ebf82611a22565b6013825272737461626c65546f6b656e2062616c616e636560681b6020830152565b6000808212801592906120f457604051602081018181106001600160401b038211176120e057604052828152925b156120ba575b81908072184f03e93ff9f4daa797ed6e38ed64bf6a1f0160401b81818110156120ac575b506904ee2d6d415b85acef8160201b90508083101561209d575b50662386f26fc100008083101561208e575b506305f5e1008083101561207f575b5061271080831015612070575b506064821015612060575b600a80921015612056575b60019081602181860195611fc3611fad88611ade565b97611fbb604051998a611a58565b808952611ade565b602088019890601f1901368a3750860101905b612020575b505050506120119261201d9260209260405195836120028895518092888089019101611d90565b84019151809386840190611d90565b01038084520182611a58565b90565b600019019083906f181899199a1a9b1b9c1cb0b131b232b360811b8282061a83530491821561205157919082611fd6565b611fdb565b9160010191611f97565b9190606460029104910191611f8c565b60049193920491019138611f81565b60089193920491019138611f74565b60109193920491019138611f65565b60209193920491019138611f53565b604094500491503880611f39565b600160ff1b81146120cc578103611f15565b634e487b7160e01b82526011600452602482fd5b634e487b7160e01b84526041600452602484fd5b60405161210081611a22565b60018152602d60f81b602082015292611f0f565b6000929161215f8493604051928391612146602084019663ca47c4eb60e01b8852606060248601526084850190611db3565b916044840152606483015203601f198101835282611a58565b51906a636f6e736f6c652e6c6f675afa50565b9061215f6000949385946121bf6040519485936121a8602086019863c67ea9d160e01b8a526080602488015260a4870190611db3565b916044860152602319858303016064860152611db3565b90608483015203601f198101835282611a5856fea2646970667358221220eee3e644bd8fb6d41389b39290d3eb3f45fdb7fdc6e5f331e92cb7a6d7c0894b64736f6c63430008110033",
  "devdoc": {
    "kind": "dev",
    "methods": {},
    "version": 1
  },
  "userdoc": {
    "kind": "user",
    "methods": {},
    "version": 1
  },
  "storageLayout": {
    "storage": [
      {
        "astId": 6574,
        "contract": "contracts/pair/PairVault.sol:PairVault",
        "label": "isHandler",
        "offset": 0,
        "slot": "0",
        "type": "t_mapping(t_address,t_bool)"
      },
      {
        "astId": 11512,
        "contract": "contracts/pair/PairVault.sol:PairVault",
        "label": "pairInfo",
        "offset": 0,
        "slot": "1",
        "type": "t_contract(IPairInfo)12341"
      },
      {
        "astId": 11517,
        "contract": "contracts/pair/PairVault.sol:PairVault",
        "label": "vaults",
        "offset": 0,
        "slot": "2",
        "type": "t_mapping(t_uint256,t_struct(Vault)12359_storage)"
      }
    ],
    "types": {
      "t_address": {
        "encoding": "inplace",
        "label": "address",
        "numberOfBytes": "20"
      },
      "t_bool": {
        "encoding": "inplace",
        "label": "bool",
        "numberOfBytes": "1"
      },
      "t_contract(IPairInfo)12341": {
        "encoding": "inplace",
        "label": "contract IPairInfo",
        "numberOfBytes": "20"
      },
      "t_int256": {
        "encoding": "inplace",
        "label": "int256",
        "numberOfBytes": "32"
      },
      "t_mapping(t_address,t_bool)": {
        "encoding": "mapping",
        "key": "t_address",
        "label": "mapping(address => bool)",
        "numberOfBytes": "32",
        "value": "t_bool"
      },
      "t_mapping(t_uint256,t_struct(Vault)12359_storage)": {
        "encoding": "mapping",
        "key": "t_uint256",
        "label": "mapping(uint256 => struct IPairVault.Vault)",
        "numberOfBytes": "32",
        "value": "t_struct(Vault)12359_storage"
      },
      "t_struct(Vault)12359_storage": {
        "encoding": "inplace",
        "label": "struct IPairVault.Vault",
        "members": [
          {
            "astId": 12348,
            "contract": "contracts/pair/PairVault.sol:PairVault",
            "label": "indexTotalAmount",
            "offset": 0,
            "slot": "0",
            "type": "t_uint256"
          },
          {
            "astId": 12350,
            "contract": "contracts/pair/PairVault.sol:PairVault",
            "label": "indexReservedAmount",
            "offset": 0,
            "slot": "1",
            "type": "t_uint256"
          },
          {
            "astId": 12352,
            "contract": "contracts/pair/PairVault.sol:PairVault",
            "label": "stableTotalAmount",
            "offset": 0,
            "slot": "2",
            "type": "t_uint256"
          },
          {
            "astId": 12354,
            "contract": "contracts/pair/PairVault.sol:PairVault",
            "label": "stableReservedAmount",
            "offset": 0,
            "slot": "3",
            "type": "t_uint256"
          },
          {
            "astId": 12356,
            "contract": "contracts/pair/PairVault.sol:PairVault",
            "label": "averagePrice",
            "offset": 0,
            "slot": "4",
            "type": "t_uint256"
          },
          {
            "astId": 12358,
            "contract": "contracts/pair/PairVault.sol:PairVault",
            "label": "realisedPnl",
            "offset": 0,
            "slot": "5",
            "type": "t_int256"
          }
        ],
        "numberOfBytes": "192"
      },
      "t_uint256": {
        "encoding": "inplace",
        "label": "uint256",
        "numberOfBytes": "32"
      }
    }
  }
}