{
  "address": "0xa6e99A4ED7498b3cdDCBB61a6A607a4925Faa1B7",
  "abi": [
    {
      "inputs": [
        {
          "internalType": "contract IAddressesProvider",
          "name": "addressProvider",
          "type": "address"
        },
        {
          "internalType": "contract IOrderManager",
          "name": "_orderManager",
          "type": "address"
        }
      ],
      "stateMutability": "nonpayable",
      "type": "constructor"
    },
    {
      "anonymous": false,
      "inputs": [
        {
          "indexed": false,
          "internalType": "address",
          "name": "oldAddress",
          "type": "address"
        },
        {
          "indexed": false,
          "internalType": "address",
          "name": "newAddress",
          "type": "address"
        }
      ],
      "name": "UpdateTradingRouter",
      "type": "event"
    },
    {
      "inputs": [],
      "name": "ADDRESS_PROVIDER",
      "outputs": [
        {
          "internalType": "contract IAddressesProvider",
          "name": "",
          "type": "address"
        }
      ],
      "stateMutability": "view",
      "type": "function"
    },
    {
      "inputs": [
        {
          "internalType": "uint256",
          "name": "pairIndex",
          "type": "uint256"
        },
        {
          "internalType": "bool",
          "name": "isLong",
          "type": "bool"
        }
      ],
      "name": "cancelAllPositionOrders",
      "outputs": [],
      "stateMutability": "nonpayable",
      "type": "function"
    },
    {
      "inputs": [
        {
          "internalType": "uint256",
          "name": "orderId",
          "type": "uint256"
        },
        {
          "internalType": "enum TradingTypes.TradeType",
          "name": "tradeType",
          "type": "uint8"
        }
      ],
      "name": "cancelDecreaseOrder",
      "outputs": [],
      "stateMutability": "nonpayable",
      "type": "function"
    },
    {
      "inputs": [
        {
          "internalType": "uint256",
          "name": "orderId",
          "type": "uint256"
        },
        {
          "internalType": "enum TradingTypes.TradeType",
          "name": "tradeType",
          "type": "uint8"
        }
      ],
      "name": "cancelIncreaseOrder",
      "outputs": [],
      "stateMutability": "nonpayable",
      "type": "function"
    },
    {
      "inputs": [
        {
          "internalType": "uint256",
          "name": "pairIndex",
          "type": "uint256"
        },
        {
          "internalType": "bool",
          "name": "isLong",
          "type": "bool"
        },
        {
          "internalType": "bool",
          "name": "isIncrease",
          "type": "bool"
        }
      ],
      "name": "cancelOrders",
      "outputs": [],
      "stateMutability": "nonpayable",
      "type": "function"
    },
    {
      "inputs": [
        {
          "components": [
            {
              "internalType": "address",
              "name": "account",
              "type": "address"
            },
            {
              "internalType": "uint256",
              "name": "pairIndex",
              "type": "uint256"
            },
            {
              "internalType": "enum TradingTypes.TradeType",
              "name": "tradeType",
              "type": "uint8"
            },
            {
              "internalType": "int256",
              "name": "collateral",
              "type": "int256"
            },
            {
              "internalType": "uint256",
              "name": "triggerPrice",
              "type": "uint256"
            },
            {
              "internalType": "uint256",
              "name": "sizeAmount",
              "type": "uint256"
            },
            {
              "internalType": "bool",
              "name": "isLong",
              "type": "bool"
            }
          ],
          "internalType": "struct TradingTypes.DecreasePositionRequest",
          "name": "request",
          "type": "tuple"
        }
      ],
      "name": "createDecreaseOrder",
      "outputs": [
        {
          "internalType": "uint256",
          "name": "",
          "type": "uint256"
        }
      ],
      "stateMutability": "nonpayable",
      "type": "function"
    },
    {
      "inputs": [
        {
          "components": [
            {
              "internalType": "address",
              "name": "account",
              "type": "address"
            },
            {
              "internalType": "uint256",
              "name": "pairIndex",
              "type": "uint256"
            },
            {
              "internalType": "enum TradingTypes.TradeType",
              "name": "tradeType",
              "type": "uint8"
            },
            {
              "internalType": "int256",
              "name": "collateral",
              "type": "int256"
            },
            {
              "internalType": "uint256",
              "name": "openPrice",
              "type": "uint256"
            },
            {
              "internalType": "bool",
              "name": "isLong",
              "type": "bool"
            },
            {
              "internalType": "uint256",
              "name": "sizeAmount",
              "type": "uint256"
            },
            {
              "internalType": "uint256",
              "name": "tpPrice",
              "type": "uint256"
            },
            {
              "internalType": "uint256",
              "name": "tp",
              "type": "uint256"
            },
            {
              "internalType": "uint256",
              "name": "slPrice",
              "type": "uint256"
            },
            {
              "internalType": "uint256",
              "name": "sl",
              "type": "uint256"
            }
          ],
          "internalType": "struct TradingTypes.IncreasePositionRequest",
          "name": "request",
          "type": "tuple"
        }
      ],
      "name": "createIncreaseOrder",
      "outputs": [
        {
          "internalType": "uint256",
          "name": "",
          "type": "uint256"
        }
      ],
      "stateMutability": "nonpayable",
      "type": "function"
    },
    {
      "inputs": [
        {
          "components": [
            {
              "internalType": "address",
              "name": "account",
              "type": "address"
            },
            {
              "internalType": "uint256",
              "name": "pairIndex",
              "type": "uint256"
            },
            {
              "internalType": "bool",
              "name": "isLong",
              "type": "bool"
            },
            {
              "internalType": "uint256",
              "name": "tpPrice",
              "type": "uint256"
            },
            {
              "internalType": "uint256",
              "name": "tp",
              "type": "uint256"
            },
            {
              "internalType": "uint256",
              "name": "slPrice",
              "type": "uint256"
            },
            {
              "internalType": "uint256",
              "name": "sl",
              "type": "uint256"
            }
          ],
          "internalType": "struct TradingTypes.CreateTpSlRequest",
          "name": "request",
          "type": "tuple"
        }
      ],
      "name": "createTpSl",
      "outputs": [
        {
          "internalType": "uint256",
          "name": "tpOrderId",
          "type": "uint256"
        },
        {
          "internalType": "uint256",
          "name": "slOrderId",
          "type": "uint256"
        }
      ],
      "stateMutability": "nonpayable",
      "type": "function"
    },
    {
      "inputs": [],
      "name": "orderManager",
      "outputs": [
        {
          "internalType": "contract IOrderManager",
          "name": "",
          "type": "address"
        }
      ],
      "stateMutability": "view",
      "type": "function"
    }
  ],
  "transactionHash": "0xeb5ecc89199ddb949799e0c2016c71e727f52adfa94f02dd17f1a73585438f8a",
  "args": [
    "0xFD471836031dc5108809D173A067e8486B9047A3",
    "0x6C2d83262fF84cBaDb3e416D527403135D757892"
  ],
  "numDeployments": 1,
  "solcInputHash": "dbd8b9bdf15109328226d3d4a4bdaf81",
  "bytecode": "0x60a03461008e57601f61133038819003918201601f19168301916001600160401b0383118484101761009357808492604094855283398101031261008e5780516001600160a01b0391828216820361008e576020015191821680920361008e57608052600080546001600160a01b03191691909117905560405161128690816100aa8239608051816108580152f35b600080fd5b634e487b7160e01b600052604160045260246000fdfe6080604052600436101561001257600080fd5b60003560e01c806306f83c8a14610b6657806311370bb7146108875780631848effa14610842578063191c2a05146107e05780631d2bcd36146107725780639ce6228e14610626578063cf46e09b1461049d578063e6535a35146100ad5763f9b6117f1461007f57600080fd5b346100a85760003660031901126100a8576000546040516001600160a01b039091168152602090f35b600080fd5b346100a85760e03660031901126100a8576040516100ca81610e4b565b6100d2610ebe565b8152602435602091828101928284526100e9610df4565b91604081018381526060820160643581526080830190608435825260c060a085019460a4358652019160c435835261012960009860009815159033611105565b815115801561041e575b156103e557835115908115610363575b501561032a57519081610251575b50505180610169575b60408686868351928352820152f35b83945091600096916101f89361019060018060a01b038a5416945193519251151591610f8b565b916040519361019e85610e66565b3385528785015260036040850152896060850152608084015260a083015260c08201528660e08201528661010082015286610120820152866101408201526040519687809481936302b9d03760e11b835260048301610f03565b03925af1801561024557600090610217575b604093509084808061015a565b508083813d831161023e575b61022d8183610e9d565b810103126100a8576040925161020a565b503d610223565b6040513d6000823e3d90fd5b600092975085916102e19160018060a01b03855416918b519151906102798851151591610f8b565b916040519361028785610e66565b3385528785015260026040850152876060850152608084015260a083015260c08201528460e08201528461010082015284610120820152846101408201526040519485809481936302b9d03760e11b835260048301610f03565b03925af1908115610245576000916102fd575b50948780610151565b90508381813d8311610323575b6103148183610e9d565b810103126100a85751876102f4565b503d61030a565b60405162461bcd60e51b8152600481018790526011602482015270736c20616c72656164792065786973747360781b6044820152606490fd5b600054604051630bc628fb60e01b81526004810192909252600360248301529091508790829060449082906001600160a01b03165afa908115610245576000916103b0575b50158a610143565b90508681813d83116103de575b6103c78183610e9d565b810103126100a8576103d890610fb2565b8a6103a8565b503d6103bd565b60405162461bcd60e51b8152600481018890526011602482015270747020616c72656164792065786973747360781b6044820152606490fd5b50600054604051630bc628fb60e01b81526004810183905260026024820152908890829060449082906001600160a01b03165afa90811561024557600091610468575b5015610133565b90508781813d8311610496575b61047f8183610e9d565b810103126100a85761049090610fb2565b8b610461565b503d610475565b346100a8576101603660031901126100a8576040516104bb81610e66565b6104c3610ebe565b8082526024356020830152600460443510156100a85760443560408301526064356060830152608435608083015260a4359182151583036100a857826020928260009560a06105d695015260c43560c082015260e43560e082015261010435610100820152610124356101208201526101406101443591015260018060a01b03855416916040519161055483610e66565b6001600160a01b031682526024358583015261057560443560408401610ed4565b60643560608301526084356080830152151560a082015260c43560c082015260e43560e08201526101043561010082015261012435610120820152610144356101408201526040519485809481936302b9d03760e11b835260048301610f03565b03925af18015610245576000906105f3575b602090604051908152f35b506020813d60201161061e575b8161060d60209383610e9d565b810103126100a857602090516105e8565b3d9150610600565b346100a85760e03660031901126100a85760405161064381610e4b565b61064b610ebe565b908181526024359160209280848401526044359160048310156100a857826040850152606435908160608601526084359283608087015260a435928360a088015260c43594851515918287036100a8576106de8a986107299860c060009c015260018060a01b03956106c0878d541699610f8b565b96604051986106ce8a610e66565b1688528a88015260408701610ed4565b6060850152608084015260a083015260c08201528460e08201528461010082015284610120820152846101408201526040519485809481936302b9d03760e11b835260048301610f03565b03925af190811561024557600091610745575b50604051908152f35b90508181813d831161076b575b61075c8183610e9d565b810103126100a857518261073c565b503d610752565b346100a85761078036610e03565b6000546001600160a01b03169190823b156100a8576064600092836107c095604051968795869463c250985960e01b865260048601526024850190610ef6565b600160448401525af18015610245576107d557005b6107de90610e22565b005b346100a8576107ee36610e03565b6000546001600160a01b03169190823b156100a85760646000928361082e95604051968795869463c250985960e01b865260048601526024850190610ef6565b8160448401525af18015610245576107d557005b346100a85760003660031901126100a8576040517f00000000000000000000000000000000000000000000000000000000000000006001600160a01b03168152602090f35b346100a8576060806003193601126100a8576108a1610de5565b6108b66108ac610df4565b9160043533611105565b60008054604051634cc42b5160e01b81526004810193909352602494929392916001600160a01b039185908790829085165afa93841561024557600094610b41575b5060005b84518110156107de5761090f81866110db565b5160a08101805161096e6040519161092683610e82565b60138352602092720e0dee6d2e8d2dedc9ee4c8cae440d2dcc8caf606b1b84820152866040519161095683610e82565b60078352661bdc99195c925960ca1b86840152611190565b608083019283516004811015610b2c57876109e5920192835115159160ff6040519161099983610e82565b6017835276706f736974696f6e4f726465722074726164655479706560481b84840152696973496e63726561736560b01b604051946109d786610e82565b600a86528501521690611204565b8680610b22575b15610a965750836000541690519151916004831015610a8157813b156100a8576064899160008094610a36604051978896879563c250985960e01b87526004870152850190610ef6565b600160448401525af1801561024557610a72575b505b6000198114610a5d576001016108fc565b85634e487b7160e01b60005260116004526000fd5b610a7b90610e22565b86610a4a565b88634e487b7160e01b60005260216004526000fd5b86159081610b18575b50610aac575b5050610a4c565b836000541690519151916004831015610a8157813b156100a8576064899160008094610af0604051978896879563c250985960e01b87526004870152850190610ef6565b8160448401525af1801561024557610b09575b80610aa5565b610b1290610e22565b86610b03565b9050511589610a9f565b50805115156109ec565b8a634e487b7160e01b60005260216004526000fd5b610b5f9194503d806000833e610b578183610e9d565b810190610fbf565b92856108f8565b346100a85760403660031901126100a857610b8b610b82610de5565b60043533611105565b60008054604051634cc42b5160e01b815260048101939093526001600160a01b03929160249183908390829087165afa91821561024557600092610dc8575b505b815180156107de576000198101908111610db357610bea81846110db565b519060a0820191825190610c5160405192610c0484610e82565b601793848152602095760e0dee6d2e8d2dedc9ee4c8cae440d8c2e6e892dcc8caf604b1b8783015260405191610c3983610e82565b60078352661bdc99195c925960ca1b88840152611190565b60808101928351916004831015610d9e57906060610cbc9392019360ff855115159360405192610c8084610e82565b835276706f736974696f6e4f726465722074726164655479706560481b84840152696973496e63726561736560b01b604051946109d786610e82565b5115610d43578460005416915190516004811015610d2e57823b156100a857606460009283610d0595604051968795869463c250985960e01b8652600486015289850190610ef6565b600160448401525af1801561024557610d1f575b50610bcc565b610d2890610e22565b83610d19565b83634e487b7160e01b60005260216004526000fd5b8460005416915190516004811015610d2e57823b156100a857606460009283610d8695604051968795869463c250985960e01b8652600486015289850190610ef6565b8160448401525af1801561024557610d1f5750610bcc565b86634e487b7160e01b60005260216004526000fd5b50634e487b7160e01b60009081526011600452fd5b610dde9192503d806000833e610b578183610e9d565b9083610bca565b6024359081151582036100a857565b6044359081151582036100a857565b60409060031901126100a8576004359060243560048110156100a85790565b6001600160401b038111610e3557604052565b634e487b7160e01b600052604160045260246000fd5b60e081019081106001600160401b03821117610e3557604052565b61016081019081106001600160401b03821117610e3557604052565b604081019081106001600160401b03821117610e3557604052565b90601f801991011681019081106001600160401b03821117610e3557604052565b600435906001600160a01b03821682036100a857565b6004821015610ee05752565b634e487b7160e01b600052602160045260246000fd5b906004821015610ee05752565b81516001600160a01b03168152602080830151908201526040808301516101608301949391610f359190840190610ef6565b606081015160608301526080810151608083015260a0810151151560a083015260c081015160c083015260e081015160e08301526101008082015190830152610120808201519083015261014080910151910152565b600160ff1b8114610f9c5760000390565b634e487b7160e01b600052601160045260246000fd5b519081151582036100a857565b90602080838303126100a85782516001600160401b03938482116100a857019082601f830112156100a857815192848411610e3557604094855195611009848760051b0188610e9d565b858752838701928460e0809802870101958187116100a8578501935b86851061103757505050505050505090565b87858303126100a857825190888201828110868211176110c657845285516001600160a01b03811681036100a8578252868601518783015261107a848701610fb2565b84830152606061108b818801610fb2565b90830152608090818701519260048410156100a8578a93899382015260a0808901519082015260c08089015190820152815201940193611025565b60246000634e487b7160e01b81526041600452fd5b80518210156110ef5760209160051b010190565b634e487b7160e01b600052603260045260246000fd5b9160405191602083019360018060601b03199060601b1684526034830152151560f81b605482015260358152606081018181106001600160401b03821117610e355760405251902090565b919082519283825260005b84811061117c575050826000602080949584010152601f8019910116010190565b60208183018101518483018201520161115b565b906111f16000949385946111dd6040519485936111c6602086019863c67ea9d160e01b8a526080602488015260a4870190611150565b916044860152602319858303016064860152611150565b90608483015203601f198101835282610e9d565b51906a636f6e736f6c652e6c6f675afa50565b906111f160009493859461123a6040519485936111c66020860198637d24491d60e01b8a526080602488015260a4870190611150565b901515608483015203601f198101835282610e9d56fea26469706673582212201aed47424404e1392a35ece9454d20c615dec42ab28f075abc4ae444403517fe64736f6c63430008110033",
  "devdoc": {
    "kind": "dev",
    "methods": {},
    "version": 1
  },
  "userdoc": {
    "kind": "user",
    "methods": {},
    "version": 1
  },
  "storageLayout": {
    "storage": [
      {
        "astId": 18146,
        "contract": "contracts/trading/Router.sol:Router",
        "label": "orderManager",
        "offset": 0,
        "slot": "0",
        "type": "t_contract(IOrderManager)5135"
      }
    ],
    "types": {
      "t_contract(IOrderManager)5135": {
        "encoding": "inplace",
        "label": "contract IOrderManager",
        "numberOfBytes": "20"
      }
    }
  }
}