{
  "address": "0x638A246F0Ec8883eF68280293FFE8Cfbabe61B44",
  "abi": [
    {
      "inputs": [
        {
          "internalType": "contract IAddressesProvider",
          "name": "addressProvider",
          "type": "address"
        },
        {
          "internalType": "contract IPairInfo",
          "name": "_pairInfo",
          "type": "address"
        },
        {
          "internalType": "contract IPairVault",
          "name": "_pairVault",
          "type": "address"
        },
        {
          "internalType": "contract IOraclePriceFeed",
          "name": "_vaultPriceFeed",
          "type": "address"
        },
        {
          "internalType": "address",
          "name": "_tradingFeeReceiver",
          "type": "address"
        },
        {
          "internalType": "uint256",
          "name": "_fundingInterval",
          "type": "uint256"
        }
      ],
      "stateMutability": "nonpayable",
      "type": "constructor"
    },
    {
      "anonymous": false,
      "inputs": [
        {
          "indexed": false,
          "internalType": "bytes32",
          "name": "positionKey",
          "type": "bytes32"
        },
        {
          "indexed": false,
          "internalType": "address",
          "name": "account",
          "type": "address"
        },
        {
          "indexed": false,
          "internalType": "uint256",
          "name": "pairIndex",
          "type": "uint256"
        },
        {
          "indexed": false,
          "internalType": "bool",
          "name": "isLong",
          "type": "bool"
        }
      ],
      "name": "ClosePosition",
      "type": "event"
    },
    {
      "anonymous": false,
      "inputs": [
        {
          "indexed": false,
          "internalType": "bytes32",
          "name": "positionKey",
          "type": "bytes32"
        },
        {
          "indexed": false,
          "internalType": "address",
          "name": "account",
          "type": "address"
        },
        {
          "indexed": false,
          "internalType": "uint256",
          "name": "pairIndex",
          "type": "uint256"
        },
        {
          "indexed": false,
          "internalType": "bool",
          "name": "isLong",
          "type": "bool"
        },
        {
          "indexed": false,
          "internalType": "int256",
          "name": "collateral",
          "type": "int256"
        },
        {
          "indexed": false,
          "internalType": "uint256",
          "name": "sizeAmount",
          "type": "uint256"
        },
        {
          "indexed": false,
          "internalType": "uint256",
          "name": "price",
          "type": "uint256"
        },
        {
          "indexed": false,
          "internalType": "uint256",
          "name": "tradingFee",
          "type": "uint256"
        },
        {
          "indexed": false,
          "internalType": "int256",
          "name": "fundingFee",
          "type": "int256"
        },
        {
          "indexed": false,
          "internalType": "int256",
          "name": "realisedPnl",
          "type": "int256"
        },
        {
          "indexed": false,
          "internalType": "uint256",
          "name": "transferOut",
          "type": "uint256"
        }
      ],
      "name": "DecreasePosition",
      "type": "event"
    },
    {
      "anonymous": false,
      "inputs": [
        {
          "indexed": false,
          "internalType": "bytes32",
          "name": "positionKey",
          "type": "bytes32"
        },
        {
          "indexed": false,
          "internalType": "address",
          "name": "account",
          "type": "address"
        },
        {
          "indexed": false,
          "internalType": "uint256",
          "name": "pairIndex",
          "type": "uint256"
        },
        {
          "indexed": false,
          "internalType": "int256",
          "name": "collateral",
          "type": "int256"
        },
        {
          "indexed": false,
          "internalType": "bool",
          "name": "isLong",
          "type": "bool"
        },
        {
          "indexed": false,
          "internalType": "uint256",
          "name": "sizeAmount",
          "type": "uint256"
        },
        {
          "indexed": false,
          "internalType": "uint256",
          "name": "price",
          "type": "uint256"
        },
        {
          "indexed": false,
          "internalType": "uint256",
          "name": "tradingFee",
          "type": "uint256"
        },
        {
          "indexed": false,
          "internalType": "int256",
          "name": "fundingFee",
          "type": "int256"
        },
        {
          "indexed": false,
          "internalType": "uint256",
          "name": "transferOut",
          "type": "uint256"
        }
      ],
      "name": "IncreasePosition",
      "type": "event"
    },
    {
      "anonymous": false,
      "inputs": [
        {
          "indexed": false,
          "internalType": "uint256",
          "name": "pairIndex",
          "type": "uint256"
        },
        {
          "indexed": false,
          "internalType": "uint256",
          "name": "profit",
          "type": "uint256"
        },
        {
          "indexed": false,
          "internalType": "uint256",
          "name": "lastFundingTime",
          "type": "uint256"
        }
      ],
      "name": "NeedBuyIndexToken",
      "type": "event"
    },
    {
      "anonymous": false,
      "inputs": [
        {
          "indexed": false,
          "internalType": "uint256",
          "name": "oldInterval",
          "type": "uint256"
        },
        {
          "indexed": false,
          "internalType": "uint256",
          "name": "newInterval",
          "type": "uint256"
        }
      ],
      "name": "UpdateFundingInterval",
      "type": "event"
    },
    {
      "anonymous": false,
      "inputs": [
        {
          "indexed": false,
          "internalType": "uint256",
          "name": "pairIndex",
          "type": "uint256"
        },
        {
          "indexed": false,
          "internalType": "int256",
          "name": "fundingRate",
          "type": "int256"
        },
        {
          "indexed": false,
          "internalType": "uint256",
          "name": "lastFundingTime",
          "type": "uint256"
        }
      ],
      "name": "UpdateFundingRate",
      "type": "event"
    },
    {
      "anonymous": false,
      "inputs": [
        {
          "indexed": false,
          "internalType": "address",
          "name": "oldPairInfo",
          "type": "address"
        },
        {
          "indexed": false,
          "internalType": "address",
          "name": "newPairInfo",
          "type": "address"
        }
      ],
      "name": "UpdatePairInfo",
      "type": "event"
    },
    {
      "anonymous": false,
      "inputs": [
        {
          "indexed": false,
          "internalType": "address",
          "name": "oldPairVault",
          "type": "address"
        },
        {
          "indexed": false,
          "internalType": "address",
          "name": "newPairVault",
          "type": "address"
        }
      ],
      "name": "UpdatePairVault",
      "type": "event"
    },
    {
      "anonymous": false,
      "inputs": [
        {
          "indexed": false,
          "internalType": "bytes32",
          "name": "positionKey",
          "type": "bytes32"
        },
        {
          "indexed": false,
          "internalType": "address",
          "name": "account",
          "type": "address"
        },
        {
          "indexed": false,
          "internalType": "uint256",
          "name": "pairIndex",
          "type": "uint256"
        },
        {
          "indexed": false,
          "internalType": "bool",
          "name": "isLong",
          "type": "bool"
        },
        {
          "indexed": false,
          "internalType": "uint256",
          "name": "collateral",
          "type": "uint256"
        },
        {
          "indexed": false,
          "internalType": "uint256",
          "name": "positionAmount",
          "type": "uint256"
        },
        {
          "indexed": false,
          "internalType": "uint256",
          "name": "averagePrice",
          "type": "uint256"
        },
        {
          "indexed": false,
          "internalType": "int256",
          "name": "entryFundingRate",
          "type": "int256"
        },
        {
          "indexed": false,
          "internalType": "uint256",
          "name": "entryFundingTime",
          "type": "uint256"
        },
        {
          "indexed": false,
          "internalType": "int256",
          "name": "realisedPnl",
          "type": "int256"
        },
        {
          "indexed": false,
          "internalType": "uint256",
          "name": "price",
          "type": "uint256"
        }
      ],
      "name": "UpdatePosition",
      "type": "event"
    },
    {
      "anonymous": false,
      "inputs": [
        {
          "indexed": false,
          "internalType": "address",
          "name": "oldReceiver",
          "type": "address"
        },
        {
          "indexed": false,
          "internalType": "address",
          "name": "newReceiver",
          "type": "address"
        }
      ],
      "name": "UpdateTradingFeeReceiver",
      "type": "event"
    },
    {
      "inputs": [],
      "name": "ADDRESS_PROVIDER",
      "outputs": [
        {
          "internalType": "contract IAddressesProvider",
          "name": "",
          "type": "address"
        }
      ],
      "stateMutability": "view",
      "type": "function"
    },
    {
      "inputs": [
        {
          "internalType": "uint256",
          "name": "",
          "type": "uint256"
        }
      ],
      "name": "cumulativeFundingRates",
      "outputs": [
        {
          "internalType": "int256",
          "name": "",
          "type": "int256"
        }
      ],
      "stateMutability": "view",
      "type": "function"
    },
    {
      "inputs": [
        {
          "internalType": "address",
          "name": "_account",
          "type": "address"
        },
        {
          "internalType": "uint256",
          "name": "_pairIndex",
          "type": "uint256"
        },
        {
          "internalType": "int256",
          "name": "_collateral",
          "type": "int256"
        },
        {
          "internalType": "uint256",
          "name": "_sizeAmount",
          "type": "uint256"
        },
        {
          "internalType": "bool",
          "name": "_isLong",
          "type": "bool"
        },
        {
          "internalType": "uint256",
          "name": "_price",
          "type": "uint256"
        }
      ],
      "name": "decreasePosition",
      "outputs": [
        {
          "internalType": "uint256",
          "name": "tradingFee",
          "type": "uint256"
        },
        {
          "internalType": "int256",
          "name": "fundingFee",
          "type": "int256"
        },
        {
          "internalType": "int256",
          "name": "pnl",
          "type": "int256"
        }
      ],
      "stateMutability": "nonpayable",
      "type": "function"
    },
    {
      "inputs": [],
      "name": "fundingInterval",
      "outputs": [
        {
          "internalType": "uint256",
          "name": "",
          "type": "uint256"
        }
      ],
      "stateMutability": "view",
      "type": "function"
    },
    {
      "inputs": [
        {
          "internalType": "uint256",
          "name": "_pairIndex",
          "type": "uint256"
        }
      ],
      "name": "getCurrentFundingRate",
      "outputs": [
        {
          "internalType": "int256",
          "name": "",
          "type": "int256"
        }
      ],
      "stateMutability": "view",
      "type": "function"
    },
    {
      "inputs": [
        {
          "internalType": "bool",
          "name": "_increase",
          "type": "bool"
        },
        {
          "internalType": "address",
          "name": "_account",
          "type": "address"
        },
        {
          "internalType": "uint256",
          "name": "_pairIndex",
          "type": "uint256"
        },
        {
          "internalType": "bool",
          "name": "_isLong",
          "type": "bool"
        },
        {
          "internalType": "uint256",
          "name": "_sizeAmount",
          "type": "uint256"
        }
      ],
      "name": "getFundingFee",
      "outputs": [
        {
          "internalType": "int256",
          "name": "",
          "type": "int256"
        }
      ],
      "stateMutability": "view",
      "type": "function"
    },
    {
      "inputs": [
        {
          "internalType": "address",
          "name": "_account",
          "type": "address"
        },
        {
          "internalType": "uint256",
          "name": "_pairIndex",
          "type": "uint256"
        },
        {
          "internalType": "bool",
          "name": "_isLong",
          "type": "bool"
        }
      ],
      "name": "getPosition",
      "outputs": [
        {
          "components": [
            {
              "internalType": "bytes32",
              "name": "key",
              "type": "bytes32"
            },
            {
              "internalType": "address",
              "name": "account",
              "type": "address"
            },
            {
              "internalType": "uint256",
              "name": "pairIndex",
              "type": "uint256"
            },
            {
              "internalType": "bool",
              "name": "isLong",
              "type": "bool"
            },
            {
              "internalType": "uint256",
              "name": "collateral",
              "type": "uint256"
            },
            {
              "internalType": "uint256",
              "name": "positionAmount",
              "type": "uint256"
            },
            {
              "internalType": "uint256",
              "name": "averagePrice",
              "type": "uint256"
            },
            {
              "internalType": "int256",
              "name": "entryFundingRate",
              "type": "int256"
            },
            {
              "internalType": "uint256",
              "name": "entryFundingTime",
              "type": "uint256"
            },
            {
              "internalType": "int256",
              "name": "realisedPnl",
              "type": "int256"
            }
          ],
          "internalType": "struct Position.Info",
          "name": "",
          "type": "tuple"
        }
      ],
      "stateMutability": "view",
      "type": "function"
    },
    {
      "inputs": [
        {
          "internalType": "bytes32",
          "name": "key",
          "type": "bytes32"
        }
      ],
      "name": "getPositionByKey",
      "outputs": [
        {
          "components": [
            {
              "internalType": "bytes32",
              "name": "key",
              "type": "bytes32"
            },
            {
              "internalType": "address",
              "name": "account",
              "type": "address"
            },
            {
              "internalType": "uint256",
              "name": "pairIndex",
              "type": "uint256"
            },
            {
              "internalType": "bool",
              "name": "isLong",
              "type": "bool"
            },
            {
              "internalType": "uint256",
              "name": "collateral",
              "type": "uint256"
            },
            {
              "internalType": "uint256",
              "name": "positionAmount",
              "type": "uint256"
            },
            {
              "internalType": "uint256",
              "name": "averagePrice",
              "type": "uint256"
            },
            {
              "internalType": "int256",
              "name": "entryFundingRate",
              "type": "int256"
            },
            {
              "internalType": "uint256",
              "name": "entryFundingTime",
              "type": "uint256"
            },
            {
              "internalType": "int256",
              "name": "realisedPnl",
              "type": "int256"
            }
          ],
          "internalType": "struct Position.Info",
          "name": "",
          "type": "tuple"
        }
      ],
      "stateMutability": "view",
      "type": "function"
    },
    {
      "inputs": [
        {
          "internalType": "address",
          "name": "_account",
          "type": "address"
        },
        {
          "internalType": "uint256",
          "name": "_pairIndex",
          "type": "uint256"
        },
        {
          "internalType": "bool",
          "name": "_isLong",
          "type": "bool"
        }
      ],
      "name": "getPositionKey",
      "outputs": [
        {
          "internalType": "bytes32",
          "name": "",
          "type": "bytes32"
        }
      ],
      "stateMutability": "pure",
      "type": "function"
    },
    {
      "inputs": [
        {
          "internalType": "uint256",
          "name": "_pairIndex",
          "type": "uint256"
        },
        {
          "internalType": "bool",
          "name": "_isLong",
          "type": "bool"
        },
        {
          "internalType": "uint256",
          "name": "_sizeAmount",
          "type": "uint256"
        }
      ],
      "name": "getTradingFee",
      "outputs": [
        {
          "internalType": "uint256",
          "name": "tradingFee",
          "type": "uint256"
        }
      ],
      "stateMutability": "view",
      "type": "function"
    },
    {
      "inputs": [
        {
          "internalType": "address",
          "name": "_account",
          "type": "address"
        },
        {
          "internalType": "uint256",
          "name": "_pairIndex",
          "type": "uint256"
        },
        {
          "internalType": "int256",
          "name": "_collateral",
          "type": "int256"
        },
        {
          "internalType": "uint256",
          "name": "_sizeAmount",
          "type": "uint256"
        },
        {
          "internalType": "bool",
          "name": "_isLong",
          "type": "bool"
        },
        {
          "internalType": "uint256",
          "name": "_price",
          "type": "uint256"
        }
      ],
      "name": "increasePosition",
      "outputs": [
        {
          "internalType": "uint256",
          "name": "tradingFee",
          "type": "uint256"
        },
        {
          "internalType": "int256",
          "name": "fundingFee",
          "type": "int256"
        }
      ],
      "stateMutability": "nonpayable",
      "type": "function"
    },
    {
      "inputs": [
        {
          "internalType": "address",
          "name": "",
          "type": "address"
        }
      ],
      "name": "isFrozen",
      "outputs": [
        {
          "internalType": "bool",
          "name": "",
          "type": "bool"
        }
      ],
      "stateMutability": "view",
      "type": "function"
    },
    {
      "inputs": [
        {
          "internalType": "address",
          "name": "",
          "type": "address"
        }
      ],
      "name": "isHandler",
      "outputs": [
        {
          "internalType": "bool",
          "name": "",
          "type": "bool"
        }
      ],
      "stateMutability": "view",
      "type": "function"
    },
    {
      "inputs": [
        {
          "internalType": "uint256",
          "name": "",
          "type": "uint256"
        }
      ],
      "name": "lastFundingRates",
      "outputs": [
        {
          "internalType": "int256",
          "name": "",
          "type": "int256"
        }
      ],
      "stateMutability": "view",
      "type": "function"
    },
    {
      "inputs": [
        {
          "internalType": "uint256",
          "name": "",
          "type": "uint256"
        }
      ],
      "name": "lastFundingTimes",
      "outputs": [
        {
          "internalType": "uint256",
          "name": "",
          "type": "uint256"
        }
      ],
      "stateMutability": "view",
      "type": "function"
    },
    {
      "inputs": [
        {
          "internalType": "uint256",
          "name": "",
          "type": "uint256"
        }
      ],
      "name": "longTracker",
      "outputs": [
        {
          "internalType": "uint256",
          "name": "",
          "type": "uint256"
        }
      ],
      "stateMutability": "view",
      "type": "function"
    },
    {
      "inputs": [
        {
          "internalType": "uint256",
          "name": "",
          "type": "uint256"
        }
      ],
      "name": "netExposureAmountChecker",
      "outputs": [
        {
          "internalType": "int256",
          "name": "",
          "type": "int256"
        }
      ],
      "stateMutability": "view",
      "type": "function"
    },
    {
      "inputs": [],
      "name": "pairInfo",
      "outputs": [
        {
          "internalType": "contract IPairInfo",
          "name": "",
          "type": "address"
        }
      ],
      "stateMutability": "view",
      "type": "function"
    },
    {
      "inputs": [],
      "name": "pairVault",
      "outputs": [
        {
          "internalType": "contract IPairVault",
          "name": "",
          "type": "address"
        }
      ],
      "stateMutability": "view",
      "type": "function"
    },
    {
      "inputs": [
        {
          "internalType": "bytes32",
          "name": "",
          "type": "bytes32"
        }
      ],
      "name": "positions",
      "outputs": [
        {
          "internalType": "bytes32",
          "name": "key",
          "type": "bytes32"
        },
        {
          "internalType": "address",
          "name": "account",
          "type": "address"
        },
        {
          "internalType": "uint256",
          "name": "pairIndex",
          "type": "uint256"
        },
        {
          "internalType": "bool",
          "name": "isLong",
          "type": "bool"
        },
        {
          "internalType": "uint256",
          "name": "collateral",
          "type": "uint256"
        },
        {
          "internalType": "uint256",
          "name": "positionAmount",
          "type": "uint256"
        },
        {
          "internalType": "uint256",
          "name": "averagePrice",
          "type": "uint256"
        },
        {
          "internalType": "int256",
          "name": "entryFundingRate",
          "type": "int256"
        },
        {
          "internalType": "uint256",
          "name": "entryFundingTime",
          "type": "uint256"
        },
        {
          "internalType": "int256",
          "name": "realisedPnl",
          "type": "int256"
        }
      ],
      "stateMutability": "view",
      "type": "function"
    },
    {
      "inputs": [
        {
          "internalType": "address",
          "name": "_handler",
          "type": "address"
        },
        {
          "internalType": "bool",
          "name": "_isHandler",
          "type": "bool"
        }
      ],
      "name": "setHandler",
      "outputs": [],
      "stateMutability": "nonpayable",
      "type": "function"
    },
    {
      "inputs": [
        {
          "internalType": "uint256",
          "name": "",
          "type": "uint256"
        }
      ],
      "name": "shortTracker",
      "outputs": [
        {
          "internalType": "uint256",
          "name": "",
          "type": "uint256"
        }
      ],
      "stateMutability": "view",
      "type": "function"
    },
    {
      "inputs": [],
      "name": "tradingFeeReceiver",
      "outputs": [
        {
          "internalType": "address",
          "name": "",
          "type": "address"
        }
      ],
      "stateMutability": "view",
      "type": "function"
    },
    {
      "inputs": [
        {
          "internalType": "uint256",
          "name": "_pairIndex",
          "type": "uint256"
        },
        {
          "internalType": "uint256",
          "name": "_price",
          "type": "uint256"
        }
      ],
      "name": "updateCumulativeFundingRate",
      "outputs": [],
      "stateMutability": "nonpayable",
      "type": "function"
    },
    {
      "inputs": [
        {
          "internalType": "uint256",
          "name": "newInterval",
          "type": "uint256"
        }
      ],
      "name": "updateFundingInterval",
      "outputs": [],
      "stateMutability": "nonpayable",
      "type": "function"
    },
    {
      "inputs": [
        {
          "internalType": "address",
          "name": "newPairInfo",
          "type": "address"
        }
      ],
      "name": "updatePairInfo",
      "outputs": [],
      "stateMutability": "nonpayable",
      "type": "function"
    },
    {
      "inputs": [
        {
          "internalType": "address",
          "name": "newPairVault",
          "type": "address"
        }
      ],
      "name": "updatePairVault",
      "outputs": [],
      "stateMutability": "nonpayable",
      "type": "function"
    },
    {
      "inputs": [
        {
          "internalType": "address",
          "name": "newReceiver",
          "type": "address"
        }
      ],
      "name": "updateTradingFeeReceiver",
      "outputs": [],
      "stateMutability": "nonpayable",
      "type": "function"
    },
    {
      "inputs": [],
      "name": "vaultPriceFeed",
      "outputs": [
        {
          "internalType": "contract IOraclePriceFeed",
          "name": "",
          "type": "address"
        }
      ],
      "stateMutability": "view",
      "type": "function"
    }
  ],
  "transactionHash": "0x4da6eaf977be0cabe6c1033f6fec8e4d9686970d1cc2de6d7ecd05a8fd916d5c",
  "args": [
    "0xFD471836031dc5108809D173A067e8486B9047A3",
    "0x32EEce76C2C2e8758584A83Ee2F522D4788feA0f",
    "0x01c1DeF3b91672704716159C9041Aeca392DdFfb",
    "0xb9bEECD1A582768711dE1EE7B0A1d582D9d72a6C",
    "0xf39Fd6e51aad88F6F4ce6aB8827279cffFb92266",
    28800
  ],
  "numDeployments": 1,
  "solcInputHash": "dbd8b9bdf15109328226d3d4a4bdaf81",
  "bytecode": "0x60a0346200012b57601f6200601f38819003918201601f19168301916001600160401b03831184841017620001305780849260c0946040528339810103126200012b578051906001600160a01b039081831683036200012b576020810151908282168092036200012b5760408101518381168091036200012b576060820151918483168093036200012b5760808101519485168095036200012b5760a001519460016000553360005260016020526040600020600160ff1982541617905560805260018060a01b03199283600b541617600b5582600c541617600c5581600e541617600e55600d541617600d55600a55604051615ed89081620001478239608051818181611cde01528181611f31015281816121d901528181613fe70152818161424b01526144fe0152f35b600080fd5b634e487b7160e01b600052604160045260246000fdfe6102a080604052600436101561001457600080fd5b60006102405260003560e01c90816301fd38f714614546575080630298e2731461452d5780631848effa146144e557806323fc6160146144b55780632cbc82bf146144855780632e4d2cda1461438b57806337e415a01461421657806346ea87af146141d3578063514ea4bf146141325780635e55f98414613faf57806383d532e814613f5d57806387d4f0d5146123245780638b78fba5146121a15780638c1b753a146120b75780639391faf9146120875780639849e412146120665780639cb7de4b14611eed578063a28feb8b14611ec1578063a31a7b4414611e95578063ad249b5214611e6f578063bc95baad14611e33578063c4995cb214611ca6578063c8d0805214611bee578063e054d7f214611bbe578063e17ee6161461023a578063e5839836146101f7578063eeaa783a146101cb578063f879ffd21461019b5763fc2a5b1d1461016557600080fd5b3461019457610240518060031936011261019157600b546040516001600160a01b039091168152602090f35b80fd5b6102405180fd5b34610194576020366003190112610194576004356102405152600860205260206040610240512054604051908152f35b3461019457610240518060031936011261019157600e546040516001600160a01b039091168152602090f35b34610194576020366003190112610194576001600160a01b0361021861456e565b1661024051526003602052602060ff6040610240512054166040519015158152f35b3461019457602461024a366145c6565b91939092610259969596614b53565b3033148015611ba2575b61026c90614733565b600b54604051632f7ce47360e21b8152600481018490529660e09188919082906001600160a01b03165afa958615610b4d576102405196611b71575b50606086015115611b31576102be8483896151b7565b93846102405152600260205260406102405120918583556102df8588614e03565b610326816040516102ef81614665565b601b81527a1a5b98dc99585cd9541bdcda5d1a5bdb881cda5e99505b5bdd5b9d602a1b60208201528a61032061481a565b91615de1565b600584015415611aed575b6103ab88600586015480151580611ae4575b611abd575b61038b600688015460405161035c81614665565b601d81527f696e637265617365506f736974696f6e206176657261676550726963650000006020820152615d55565b6103a161039c8660048a0154614862565b614fb9565b600488015561483f565b600585015561024051821315611aae5761024051975b88998b85886103d08b8261543f565b6103d9926151b7565b600090600052600260205260406000206103f290615306565b906101008201514290610404916148e9565b600a54119161043c91620f424093611aa6575b6104346040828d60a094526007602052205460e084015190615723565b91015161541c565b05998761024051526009602052610499604061024051205460405161046081614680565b602181527f696e637265617365506f736974696f6e206c61737446756e64696e6754696d656020820152607360f81b6040820152615d55565b87610240515260076020526105026104b76040610240512054614fcd565b6040516104c381614680565b602781527f696e637265617365506f736974696f6e2063756d756c617469766546756e64696020820152666e67526174657360c81b6040820152615d9a565b61054761050e8c614fcd565b60405161051a81614665565b601b81527a696e637265617365506f736974696f6e2066756e64696e6746656560281b6020820152615d9a565b610240518b126119d557508415611977576105728a600488015461056d8282101561488f565b6148e9565b60048701556105c360405161058681614680565b602581527f696e637265617365506f736974696f6e206c6f6e67207061792066756e64696e602082015264672066656560d81b6040820152615d06565b86610240515260076020526040610240518181205460078901556009602052205460088701556105f58883878a6155f1565b809b60048801546106118361060a848461483f565b10156148f6565b828210611958575090610623916148e9565b925b6020820151600d54610645918e916001600160a01b039081169116614ba9565b6106828c60405161065581614665565b601b81527a696e637265617365506f736974696f6e2074726164696e6746656560281b6020820152615d55565b61024080518990526004602052516040902054908615611947576106a7845b83614862565b8961024051526004602052610240519060408220558760001461192c57508861024051526005602052604061024051206106e285825461483f565b90555b6107426106f183614fcd565b6040516106fd81614680565b602d81527f696e637265617365506f736974696f6e20707265764e65744578706f7375726560208201526c20b6b7bab73a21b432b1b5b2b960991b6040820152615d9a565b88610240515260046020526107ad6107606040610240512054614fcd565b60405161076c81614680565b602981527f696e637265617365506f736974696f6e206e65744578706f73757265416d6f75602082015268373a21b432b1b5b2b960b91b6040820152615d9a565b886102405152600560205261080c61024051604080822054916006602052205490604051906107db82614665565b601c82527b34b731b932b0b9b2a837b9b4ba34b7b7103637b733aa3930b1b5b2b960211b6020830152610320614950565b600c54604051632500ed8d60e21b8152600481018b905291906001600160a01b031660c083602481845afa928315610b4d5761024051936118fc575b506108918c60808501516040519061085f82614665565b602082527f696e637265617365506f736974696f6e206c702061766572616765507269636560208301526103206149c8565b8a6102405180861360001461115457509050610240515260046020526102405183604082205413600014610b7957506109096040516108cf81614680565b602281527f696e637265617365506f736974696f6e2042544f206c6f6e6720696e63726561602082015261736560f01b6040820152615d06565b600c546001600160a01b031691823b15610194576040519262a0151560e21b84528b6004850152866024850152610240516044850152836064816102405180945af1928315610b4d578693610b5b575b509161097961097f9261097460806109859796015186614e03565b61483f565b9261483f565b90614ebd565b6109d58160405161099581614680565b602881527f696e637265617365506f736974696f6e2042544f207570646174652061766572602082015267616765507269636560c01b6040820152615d55565b600c546001600160a01b0316803b156101945760405191630e13da9f60e11b83528960048401526024830152816044816102405180945af18015610b4d57610b37575b50610140600080516020615e63833981519152999794610ac8979460409e9a9794600080516020615e43833981519152945b828d81610b16575b5050508f51928b845260018060a01b038d166020850152604089908501526060840152851515608084015260a08301528760c08301528d60e08301528c610100830152610120820152a16004820154600583015460068401549160078501549360096008870154960154968f519b8c9b8c614afd565b0390a1610b038351610ad981614665565b60188152770d2dcc6e4cac2e6ca40e0dee6d2e8d2dedc40ccd2dcd2e6d60431b6020820152615d06565b6001610240515582519182526020820152f35b602090920151610b2f92906001600160a01b0316614ba9565b38828d610a52565b610b4090614605565b610240518015610a185780fd5b6040513d61024051823e3d90fd5b610b6791929350614605565b61024051806101915790859291610959565b6040812054949f9c9b9a99989796959492939213159050610e115750610bde604051610ba481614680565b602281527f696e637265617365506f736974696f6e2053544f206c6f6e6720646563726561602082015261736560f01b6040820152615d06565b600c546001600160a01b0316803b156101945760405190637c7c829d60e01b8252886004830152836024830152610240516044830152816064816102405180945af18015610b4d57610dfb575b50608081015180891115610d205750610c4b6080610c51920151896148e9565b82614e03565b610c6281610c5d614ab8565b615d55565b600c54604051632d23f44960e01b81526004810189905260248101929092526102405160209183916044918391906001600160a01b03165af18015610b4d57610cdc575b50610140600080516020615e638339815191529998979593610ac8979593600080516020615e438339815191529360409f610a4a565b602090819a999896949a979593973d8311610d19575b610cfc818361469b565b81010312610d14578c98929496979895919395610ca6565b600080fd5b503d610cf2565b610d40915088610d3a919e939495969798999a9b9e6148e9565b83614e03565b610d4c81610c5d614a73565b6020820151600c54610d6c9183916001600160a01b039081169116614ba9565b600c546001600160a01b0316803b1561019457604051916354ab60f960e01b83528960048401526024830152816044816102405180945af18015610b4d57610de5575b50610140600080516020615e63833981519152999794610ac8979460409e9a9794600080516020615e4383398151915294610a4a565b610dee90614605565b610240518015610daf5780fd5b610e0490614605565b610240518015610c2b5780fd5b90610e6660409e939495969798999a9b9e51610e2c81614680565b602281527f696e637265617365506f736974696f6e2053544f206c6f6e6720746f2073686f6020820152611c9d60f21b6040820152615d06565b600c546020820151906001600160a01b0316803b156101945760405191637c7c829d60e01b83528b60048401526024830152610240516044830152816064816102405180945af18015610b4d5761113e575b508960808201518082116000146110a4575050610edc6080610ee29201518b6148e9565b84614e03565b610eee81610c5d614ab8565b600c54604051632d23f44960e01b8152600481018b905260248101929092526102405160209183916044918391906001600160a01b03165af18015610b4d57611079575b505b600c546001600160a01b031690610f56908a90610f5190866148e9565b614e03565b90803b15610194576040519162a0151560e21b83528960048401526102405160248401526044830152816064816102405180945af18015610b4d57611063575b50610fea88604051610fa781614680565b603681527f696e637265617365506f736974696f6e2053544f204c6f6e6720746f2053686f6020820152600080516020615e838339815191526040820152615d55565b600c546001600160a01b0316803b156101945760405190630e13da9f60e11b8252886004830152896024830152816044816102405180945af18015610b4d57610de55750610140600080516020615e63833981519152999794610ac8979460409e9a9794600080516020615e4383398151915294610a4a565b61106c90614605565b610240518015610f965780fd5b602090813d831161109d575b61108f818361469b565b81010312610d14578d610f32565b503d611085565b6110b3925090610edc916148e9565b6110bf81610c5d614a73565b6020830151600c546110df9183916001600160a01b039081169116614ba9565b600c546001600160a01b0316803b1561019457604051916354ab60f960e01b83528a60048401526024830152816044816102405180945af18015610b4d57611128575b50610f34565b61113190614605565b6102405180156111225780fd5b61114790614605565b610240518015610eb85780fd5b808612156117155750905061024051526004602052610240518360408220541260001461132a57506111c660405161118b81614680565b602381527f696e637265617365506f736974696f6e2053544f2073686f727420696e63726560208201526261736560e81b6040820152615d06565b600c546001600160a01b031691823b15610194576040519262a0151560e21b84528b6004850152610240516024850152826044850152836064816102405180945af1928315610b4d57869361130c575b509161097461123e61097f93610974879660806112356112449a61487e565b91015190614e03565b9361487e565b6112948160405161125481614680565b602881527f696e637265617365506f736974696f6e2053544f207570646174652061766572602082015267616765507269636560c01b6040820152615d55565b600c546001600160a01b0316803b156101945760405191630e13da9f60e11b83528960048401526024830152816044816102405180945af18015610b4d57610de55750610140600080516020615e63833981519152999794610ac8979460409e9a9794600080516020615e4383398151915294610a4a565b61131891929350614605565b61024051806101915790859291611216565b6040812054949f9c9b9a99989796959492939212159050611452575061139060405161135581614680565b602381527f696e637265617365506f736974696f6e2042544f2073686f727420646563726560208201526261736560e81b6040820152615d06565b60018060a01b03600c54166113a9608083015184614e03565b90803b156101945760405191637c7c829d60e01b83528960048401526102405160248401526044830152816064816102405180945af18015610b4d5761143c575b506080810151808911156114165750610c4b608061140a920151896148e9565b610c6281610c5d6149e9565b611430915088610d3a919e939495969798999a9b9e6148e9565b610d4c81610c5d614a2e565b61144590614605565b6102405180156113ea5780fd5b906114a760409e939495969798999a9b9e5161146d81614680565b602281527f696e637265617365506f736974696f6e2042544f2073686f727420746f206c6f6020820152616e6760f01b6040820152615d06565b600c546060820151906001600160a01b0316803b156101945760405191637c7c829d60e01b83528b60048401526102405160248401526044830152816064816102405180945af18015610b4d576116ff575b5089608082015180821160001461166f575050610edc608061151d9201518b6148e9565b61152981610c5d614a2e565b6020830151600c546115499183916001600160a01b039081169116614ba9565b600c546001600160a01b0316803b1561019457604051916354ab60f960e01b83528a60048401526024830152816044816102405180945af18015610b4d57611659575b505b6115af89610f516115a960018060a01b03600c54169461487e565b866148e9565b90803b15610194576040519162a0151560e21b83528960048401526102405160248401526044830152816064816102405180945af18015610b4d57611643575b50610fea8860405161160081614680565b603681527f696e637265617365506f736974696f6e2042544f204c6f6e6720746f2053686f6020820152600080516020615e838339815191526040820152615d55565b61164c90614605565b6102405180156115ef5780fd5b61166290614605565b61024051801561158c5780fd5b61167e925090610edc916148e9565b61168a81610c5d6149e9565b600c54604051632d23f44960e01b8152600481018b905260248101929092526102405160209183916044918391906001600160a01b03165af18015610b4d576116d4575b5061158e565b602090813d83116116f8575b6116ea818361469b565b81010312610d14578d6116ce565b503d6116e0565b61170890614605565b6102405180156114f95780fd5b9193509193505260046020526102405160408120541360001461185857505061177c60405161174381614680565b602181527f696e637265617365506f736974696f6e2042544f207a65726f20746f206c6f6e6020820152606760f81b6040820152615d06565b600c546001600160a01b0316803b15610194576040519062a0151560e21b8252886004830152836024830152610240516044830152816064816102405180945af18015610b4d57611842575b50600c546001600160a01b0316803b156101945760405190630e13da9f60e11b8252886004830152896024830152816044816102405180945af18015610b4d57610de55750610140600080516020615e63833981519152999794610ac8979460409e9a9794600080516020615e4383398151915294610a4a565b61184b90614605565b6102405180156117c85780fd5b6118a160405161186781614680565b602281527f696e637265617365506f736974696f6e2053544f207a65726f20746f2073686f6020820152611c9d60f21b6040820152615d06565b803b15610194576040519162a0151560e21b83528960048401526102405160248401526044830152816064816102405180945af18015610b4d576118e6575b50610fea565b6118ef90614605565b6102405180156118e05780fd5b61191e91935060c03d8111611925575b611916818361469b565b810190614978565b9138610848565b503d61190c565b60409060066020522061194085825461483f565b90556106e5565b6106a76119538561487e565b6106a1565b6119678261196d9397946148e9565b906148e9565b6004880155610625565b99896119829161483f565b996119d060405161199281614680565b602681527f696e637265617365506f736974696f6e206c6f6e672074616b652066756e64696020820152656e672066656560d01b6040820152615d06565b6105c3565b6119de8b61487e565b9086611a4c57506119fa90600488015461056d8282101561488f565b60048701556119d0604051611a0e81614680565b602681527f696e637265617365506f736974696f6e2073686f7274207061792066756e64696020820152656e672066656560d01b6040820152615d06565b611a57929c5061483f565b996119d0604051611a6781614680565b602781527f696e637265617365506f736974696f6e2073686f72742074616b652066756e64602082015266696e672066656560c81b6040820152615d06565b506000610417565b611ab782614fb9565b976103c1565b60068701611add611ad386610974845486614e03565b61097f858561483f565b9055610348565b50831515610343565b6001840180546001600160a01b038c166001600160a01b03199091161790556002840185905560038401805460ff191660ff85151516179055856006850155610331565b60405162461bcd60e51b81526020600482015260186024820152771d1c985919481c185a5c881b9bdd081cdd5c1c1bdc9d195960421b6044820152606490fd5b611b9491965060e03d60e011611b9b575b611b8c818361469b565b810190614777565b94876102a8565b503d611b82565b506102408051339052600160205251604090205460ff16610263565b34610194576020366003190112610194576004356102405152600660205260206040610240512054604051908152f35b3461019457602036600319011261019457611c07615cba565b5060043561024051526002602052611ca2611c2760406102405120615306565b604051918291829190916101408101928051825260018060a01b036020820151166020830152604081015160408301526060810151151560608301526080810151608083015260a081015160a083015260c081015160c083015260e081015160e0830152610100808201519083015261012080910151910152565b0390f35b346101945760208060031936011261019457611cc061456e565b6040516351331ad760e01b81526001600160a01b03919083816004817f000000000000000000000000000000000000000000000000000000000000000087165afa908115610b4d57839185916102405191611dfc575b50602460405180948193637be53ca160e01b8352336004840152165afa938415610b4d576102405194611da3575b5050611d707f15828dca8a3c54bc8df99d6b42dba4f0a79568c00f7e1ec53e0b4a3280795d16936146dd565b600d80546001600160a01b0319811684841617909155604051928392611d999290911683614719565b0390a16102405180f35b90809450813d8311611df5575b611dba818361469b565b8101031261019457611d70611def7f15828dca8a3c54bc8df99d6b42dba4f0a79568c00f7e1ec53e0b4a3280795d16946146d0565b93611d44565b503d611db0565b92505081813d8311611e2c575b611e13818361469b565b810103126101945783611e2684926146bc565b86611d16565b503d611e09565b3461019457611e53611e4436614593565b91611e4d615cba565b506151b7565b61024051526002602052611ca2611c2760406102405120615306565b3461019457604036600319011261019457611e8e60243560043561543f565b6102405180f35b3461019457610240518060031936011261019157600c546040516001600160a01b039091168152602090f35b3461019457610240518060031936011261019157600d546040516001600160a01b039091168152602090f35b3461019457604036600319011261019457611f0661456e565b611f0e614584565b6040516351331ad760e01b815290916020916001600160a01b03919083816004817f000000000000000000000000000000000000000000000000000000000000000087165afa908115610b4d5783918591610240519161202f575b50602460405180948193630935e01b60e21b8352336004840152165afa908115610b4d576102405191611ffa575b5015611fc957906001929116610240515252611fc66102405191604083209060ff801983541691151516179055565b80f35b60405162461bcd60e51b815260048101849052600960248201526837b7363ca0b236b4b760b91b6044820152606490fd5b90508381813d8311612028575b612011818361469b565b8101031261019457612022906146d0565b85611f97565b503d612007565b92505081813d831161205f575b612046818361469b565b81010312610194578361205984926146bc565b87611f69565b503d61203c565b34610194576102405180600319360112610191576020600a54604051908152f35b34610194576020366003190112610194576004356102405152600760205260206040610240512054604051908152f35b34610194576020806003193601126101945760043560018060a01b0390602460e083600b541660405192838092632f7ce47360e21b82528660048301525afa928315610b4d5784916102405194612180575b5080600e54169351166024604051809581936341976e0960e01b835260048301525afa908115610b4d57610240519161214f575b6121479250615844565b604051908152f35b90508282813d8311612179575b612166818361469b565b81010312610d145761214791519061213d565b503d61215c565b61219a91945060e03d60e011611b9b57611b8c818361469b565b9285612109565b3461019457602080600319360112610194576121bb61456e565b6040516351331ad760e01b81526001600160a01b03919083816004817f000000000000000000000000000000000000000000000000000000000000000087165afa908115610b4d578391859161024051916122ed575b50602460405180948193637be53ca160e01b8352336004840152165afa938415610b4d576102405194612294575b505061226b7f9e119484a33fe999c82b75bd1566c4a9bf52d2d56095e96e736f8de6ba0695a7936146dd565b600c80546001600160a01b0319811684841617909155604051928392611d999290911683614719565b90809450813d83116122e6575b6122ab818361469b565b810103126101945761226b6122e07f9e119484a33fe999c82b75bd1566c4a9bf52d2d56095e96e736f8de6ba0695a7946146d0565b9361223f565b503d6122a1565b92505081813d831161231d575b612304818361469b565b81010312610194578361231784926146bc565b86612211565b503d6122fa565b3461019457612332366145c6565b610220959493955260c0526101e0526101c0526101a0523033148015613f41575b61235c90614733565b612364614b53565b600b54604051632f7ce47360e21b81526101c0516004820152906001600160a01b031660e082602481845afa908115610b4d57602492610100926102405161014052613f1f575b506040516330a66e1560e01b81526101c051600482015292839182905afa908115610b4d576102405191613e61575b5060408101516101e051908110159182613e52575b505015613e1e5761240960c0516101c0516101a0516151b7565b80608052610240515260026020526040610240512090816101605260018060a01b0360018301541615613ddf57612446610220516101e051614e03565b906124928260405161245781614665565b601b81527a191958dc99585cd9541bdcda5d1a5bdb881cda5e99505b5bdd5b9d602a1b602082015261248761481a565b906101e05190615de1565b6125446124ad61039c83600461016051018060e05254614862565b8060e051556124cc6005610160510180610180526101e05190546148e9565b90816101805155604051906124e082614680565b602482527f6465637265617365506f736974696f6e20706f736974696f6e20636f6c6c6174602083015263195c985b60e21b60408301526040519161252483614665565b600e83526d1c1bdcda5d1a5bdb905b5bdd5b9d60921b6020840152615de1565b61024051811315613dd157610240515b8061012052612569610220516101c05161543f565b6125806101e05160c0516101c0516101a05161573c565b60a0526101c051610240515260096020526125e160406102405120546040516125a881614680565b602181527f6465637265617365506f736974696f6e206c61737446756e64696e6754696d656020820152607360f81b6040820152615d55565b6101c0516102405152600760205261264d6126026040610240512054614fcd565b60405161260e81614680565b602781527f6465637265617365506f736974696f6e2063756d756c617469766546756e64696020820152666e67526174657360c81b6040820152615d9a565b61269461265b60a051614fcd565b60405161266781614665565b601b81527a6465637265617365506f736974696f6e2066756e64696e6746656560281b6020820152615d9a565b6102405160a051908112613d0057505060c05115613c9b576126ca60e051546126c160a05182101561488f565b60a051906148e9565b60e0515561271a6040516126dd81614680565b602581527f6465637265617365506f736974696f6e206c6f6e67207061792066756e64696e602082015264672066656560d81b6040820152615d06565b6101c0516102405152600760205261024051600860408083205492610160519360078501806101005255600960205220549181810161028052015560c051159161276f610220516101e051856101c0516155f1565b806102005261278960e051549161060a610120518461483f565b61020051610120519190808310613c85575050506127ad61020051610120516148e9565b610120525b610140516020015161020051600d546127d7926001600160a01b039182169116614ba9565b6128186040516127e681614665565b601b81527a6465637265617365506f736974696f6e2074726164696e6746656560281b60208201526102005190615d55565b6101c0516102405152600460205261024051906040822054915060c051600014613c795761284b6106a16101e05161487e565b6101c051610240515260046020526102405190604082205560c051600014613c5b57506101c05161024051526005602052604061024051206128916101e05182546148e9565b90555b6128f16128a083614fcd565b6040516128ac81614680565b602d81527f6465637265617365506f736974696f6e20707265764e65744578706f7375726560208201526c20b6b7bab73a21b432b1b5b2b960991b6040820152615d9a565b6101c0516102405152600460205261295f6129126040610240512054614fcd565b60405161291e81614680565b602981527f6465637265617365506f736974696f6e206e65744578706f73757265416d6f75602082015268373a21b432b1b5b2b960b91b6040820152615d9a565b6101c051610240515260056020526129c1610240516040808220549160066020522054906040519061299082614665565b601c82527b3232b1b932b0b9b2a837b9b4ba34b7b7103637b733aa3930b1b5b2b960211b6020830152610320614950565b600c54604051632500ed8d60e21b81526101c0516004820152906001600160a01b031660c082602481845afa918215610b4d576102405192613c3a575b5061024051808513156134e45750506101c051610240515260046020526102405183604082205413600014612fb55750612a77604051612a3d81614680565b602281527f6465637265617365506f736974696f6e20535443206c6f6e6720696e63726561602082015261736560f01b6040820152615d06565b600c546001600160a01b0316803b15610194576040519062a0151560e21b82526101c05160048301526101e0516024830152610240516044830152816064816102405180945af18015610b4d57612f9f575b50612ae3612aee9392610974608061097f94015185614e03565b916101e0519061483f565b612b3e81604051612afe81614680565b602881527f6465637265617365506f736974696f6e20535443207570646174652061766572602082015267616765507269636560c01b6040820152615d55565b600c546001600160a01b0316803b156101945760405191630e13da9f60e11b83526101c05160048401526024830152816044816102405180945af18015610b4d57612f89575b505b600e5461014051516040516341976e0960e01b81526001600160a01b0391821660048201529160209183916024918391165afa908115610b4d576102405191612f31575b50907ff1d296a817e8ecfa2709fcd52c61a6dddc7e87ed697b3ba601e88dbee8849c2093612c4b612c19612c0f61016096956101e051612c0a8951615306565b615384565b8061026052614fcd565b604051612c2581614665565b6014815273191958dc99585cd9541bdcda5d1a5bdb881c1b9b60621b6020820152615d9a565b610240516102605190811315612f085750612c74612c6b61026051614fb9565b6101205161483f565b610120525b612c8b61026051600986510154614862565b600985510155612cd160e05154604051612ca481614665565b601b81527a191958dc99585cd9541bdcda5d1a5bdb8818dbdb1b185d195c985b602a1b6020820152615d55565b6101205180612ee2575b50610180515415612dcd575b5060405191608051835260018060a01b036101a0511660208401526101c051604084015215606083015260808201526101e05160a08201526102205160c08201526102005160e082015260a0516101008201526102605161012082015261012051610140820152a1600080516020615e6383398151915260e051546101805154612da561016051926006840154936101005154906009610280515491015491604051968796610220519560c0516101c0516101a0516080518c614afd565b0390a160016102405155606060405161020051815260a0516020820152610260516040820152f35b60e0515480612eb7575b5050612e17604051612de881614665565b601f81527f6465637265617365506f736974696f6e20706f736974696f6e20636c6f7365006020820152615d06565b6080516102405152600260205260006009610240516040812090838255806001830155836002830155600382015582600482015582600582015582600682015582600782015582600882015501557f1ffb81f32d2d371994fb39b875fbe035d34386083d2a85a3cf2894709c4581a260806040518151815260018060a01b036101a0511660208201526101c051604082015284156060820152a184612ce7565b6101405160200151600190920154612edb926001600160a01b039182169116614ba9565b8480612dd7565b6101a0516101405160200151612f029291906001600160a01b0316614ba9565b85612cdb565b612f2890612f1960e051549161487e565b808210156119675750806148e9565b60e05155612c79565b929190506020833d602011612f81575b81612f4e6020938361469b565b81010312610d145791519091907ff1d296a817e8ecfa2709fcd52c61a6dddc7e87ed697b3ba601e88dbee8849c20612bca565b3d9150612f41565b612f9290614605565b610240518015612b845780fd5b612fa890614605565b610240518015612ac95780fd5b909291506040812054136000146131ca5750613010604051612fd681614680565b602281527f6465637265617365506f736974696f6e20425443206c6f6e6720646563726561602082015261736560f01b6040820152615d06565b600c546001600160a01b0316803b156101945760405190637c7c829d60e01b82526101c05160048301526101e0516024830152610240516044830152816064816102405180945af18015610b4d576131b4575b5060800180516102205190808211156131155750506130896130929151610220516148e9565b6101e051614e03565b61309e81610c5d6152c1565b600c54604051632d23f44960e01b81526101c051600482015260248101929092526102405160209183916044918391906001600160a01b03165af18015610b4d576130ea575b50612b86565b602090813d831161310e575b613100818361469b565b81010312610d1457836130e4565b503d6130f6565b613124925090613089916148e9565b61313081610c5d61527c565b6101405160200151600c546131539183916001600160a01b039081169116614ba9565b600c546001600160a01b0316803b1561019457604051916354ab60f960e01b83526101c05160048401526024830152816044816102405180945af18015610b4d5761319e5750612b86565b6131a790614605565b6102405180156130e45780fd5b6131bd90614605565b6102405180156130635780fd5b906132146040516131da81614680565b602281527f6465637265617365506f736974696f6e20425443206c6f6e6720746f2073686f6020820152611c9d60f21b6040820152615d06565b600c546020820151906001600160a01b0316803b156101945760405191637c7c829d60e01b83526101c05160048401526024830152610240516044830152816064816102405180945af18015610b4d576134ce575b50608001805161022051908082111561342e57505061308961328f9151610220516148e9565b61329b81610c5d6152c1565b600c54604051632d23f44960e01b81526101c051600482015260248101929092526102405160209183916044918391906001600160a01b03165af18015610b4d57613403575b505b61330360018060a01b03600c541691610f5161022051916101e0516148e9565b90803b15610194576040519162a0151560e21b83526101c05160048401526102405160248401526044830152816064816102405180945af18015610b4d576133ed575b5061339e60405161335681614680565b603681527f6465637265617365506f736974696f6e20425443204c6f6e6720746f2053686f6020820152600080516020615e8383398151915260408201526102205190615d55565b600c546001600160a01b0316803b156101945760405190630e13da9f60e11b82526101c0516004830152610220516024830152816044816102405180945af18015610b4d5761319e5750612b86565b6133f690614605565b6102405180156133465780fd5b602090813d8311613427575b613419818361469b565b81010312610d1457846132e1565b503d61340f565b61343d925090613089916148e9565b61344981610c5d61527c565b6101405160200151600c5461346c9183916001600160a01b039081169116614ba9565b600c546001600160a01b0316803b1561019457604051916354ab60f960e01b83526101c05160048401526024830152816044816102405180945af18015610b4d576134b8575b506132e3565b6134c190614605565b6102405180156134b25780fd5b6134d790614605565b6102405180156132695780fd5b80851215613a775750506101c051610240515260046020526102405183604082205412600014613682575061355960405161351e81614680565b602381527f6465637265617365506f736974696f6e204254432073686f727420696e63726560208201526261736560e81b6040820152615d06565b600c546001600160a01b0316803b15610194576040519062a0151560e21b82526101c0516004830152610240516024830152836044830152816064816102405180945af18015610b4d5761366c575b506135c3839261097461097f9360806112356135d19861487e565b916109746101e0519161487e565b613621816040516135e181614680565b602881527f6465637265617365506f736974696f6e20425443207570646174652061766572602082015267616765507269636560c01b6040820152615d55565b600c546001600160a01b0316803b156101945760405191630e13da9f60e11b83526101c05160048401526024830152816044816102405180945af18015610b4d5761319e5750612b86565b61367590614605565b6102405180156135a85780fd5b909291506040812054126000146137a457506136de6040516136a381614680565b602381527f6465637265617365506f736974696f6e205354432073686f727420646563726560208201526261736560e81b6040820152615d06565b60018060a01b03600c54166136fa60808301516101e051614e03565b90803b156101945760405191637c7c829d60e01b83526101c05160048401526102405160248401526044830152816064816102405180945af18015610b4d5761378e575b5060808101516102205190808211156137735750506130896080613767920151610220516148e9565b61309e81610c5d6151f2565b613782925090613089916148e9565b61313081610c5d615237565b61379790614605565b61024051801561373e5780fd5b906137ee6040516137b481614680565b602281527f6465637265617365506f736974696f6e205354432073686f727420746f206c6f6020820152616e6760f01b6040820152615d06565b600c546060820151906001600160a01b0316803b156101945760405191637c7c829d60e01b83526101c05160048401526102405160248401526044830152816064816102405180945af18015610b4d57613a61575b5060800180516102205190808211156139cf5750506130896138699151610220516148e9565b61387581610c5d615237565b6101405160200151600c546138989183916001600160a01b039081169116614ba9565b600c546001600160a01b0316803b1561019457604051916354ab60f960e01b83526101c05160048401526024830152816044816102405180945af18015610b4d576139b9575b505b61390860018060a01b03600c541691610f516138ff610220519261487e565b6101e0516148e9565b90803b15610194576040519162a0151560e21b83526101c05160048401526102405160248401526044830152816064816102405180945af18015610b4d576139a3575b5061339e60405161395b81614680565b603681527f6465637265617365506f736974696f6e20535443204c6f6e6720746f2053686f6020820152600080516020615e8383398151915260408201526102205190615d55565b6139ac90614605565b61024051801561394b5780fd5b6139c290614605565b6102405180156138de5780fd5b6139de925090613089916148e9565b6139ea81610c5d6151f2565b600c54604051632d23f44960e01b81526101c051600482015260248101929092526102405160209183916044918391906001600160a01b03165af18015610b4d57613a36575b506138e0565b602090813d8311613a5a575b613a4c818361469b565b81010312610d145784613a30565b503d613a42565b613a6a90614605565b6102405180156138435780fd5b91509192506101c0519052600460205261024051604081205413600014613b9a575050613ae2604051613aa981614680565b602181527f6465637265617365506f736974696f6e20535443207a65726f20746f206c6f6e6020820152606760f81b6040820152615d06565b600c546001600160a01b0316803b15610194576040519062a0151560e21b82526101c05160048301526101e0516024830152610240516044830152816064816102405180945af18015610b4d57613b84575b50600c546001600160a01b0316803b156101945760405190630e13da9f60e11b82526101c0516004830152610220516024830152816044816102405180945af18015610b4d5761319e5750612b86565b613b8d90614605565b610240518015613b345780fd5b613be3604051613ba981614680565b602281527f6465637265617365506f736974696f6e20425443207a65726f20746f2073686f6020820152611c9d60f21b6040820152615d06565b803b15610194576040519162a0151560e21b83526101c05160048401526102405160248401526044830152816064816102405180945af18015610b4d57613c2b575b5061339e565b613c3490614605565b83613c25565b613c5491925060c03d60c01161192557611916818361469b565b90876129fe565b604090600660205220613c726101e05182546148e9565b9055612894565b61284b6101e0516106a1565b613c9292611967916148e9565b60e051556127b2565b613caa60a0516101205161483f565b61012052613cfb604051613cbd81614680565b602681527f6465637265617365506f736974696f6e206c6f6e672074616b652066756e64696020820152656e672066656560d01b6040820152615d06565b61271a565b613d099061487e565b60c051613d7657613d25915060e0515461056d8282101561488f565b60e05155613cfb604051613d3881614680565b602681527f6465637265617365506f736974696f6e2073686f7274207061792066756e64696020820152656e672066656560d01b6040820152615d06565b613d7f9161483f565b61012052613cfb604051613d9281614680565b602781527f6465637265617365506f736974696f6e2073686f72742074616b652066756e64602082015266696e672066656560c81b6040820152615d06565b613dda81614fb9565b612554565b60405162461bcd60e51b81526020600482015260176024820152761c1bdcda5d1a5bdb88185b1c9958591e4818db1bdcd959604a1b6044820152606490fd5b60405162461bcd60e51b815260206004820152600c60248201526b696e76616c69642073697a6560a01b6044820152606490fd5b606001511015905082806123ef565b9050610100813d61010011613f17575b81613e7f610100938361469b565b810103126101945760405190816101008101106001600160401b0361010084011117613efd5760e0906101008301604052805183526020810151602084015260408101516040840152606081015160608401526080810151608084015260a081015160a084015260c081015160c0840152015160e0820152826123da565b634e487b7160e01b61024051526041600452602461024051fd5b3d9150613e71565b613f379060e03d60e011611b9b57611b8c818361469b565b61014052846123ab565b506102408051339052600160205251604090205460ff16612353565b346101945760a036600319011261019457600435801515810361019457602435906001600160a01b038216820361019457606435918215158303610194576020926121479260843592604435916157d0565b346101945760208060031936011261019457613fc961456e565b6040516351331ad760e01b81526001600160a01b03919083816004817f000000000000000000000000000000000000000000000000000000000000000087165afa908115610b4d578391859161024051916140fb575b50602460405180948193637be53ca160e01b8352336004840152165afa938415610b4d5761024051946140a2575b50506140797f6989bf2024ce0e244f6a01d548e719e3198628e79cb1fab8e1e856473d173050936146dd565b600b80546001600160a01b0319811684841617909155604051928392611d999290911683614719565b90809450813d83116140f4575b6140b9818361469b565b81010312610194576140796140ee7f6989bf2024ce0e244f6a01d548e719e3198628e79cb1fab8e1e856473d173050946146d0565b9361404d565b503d6140af565b92505081813d831161412b575b614112818361469b565b81010312610194578361412584926146bc565b8661401f565b503d614108565b3461019457602036600319011261019457600435610240515260026020526101406040610240512080549060018060a01b0360018201541690600281015460ff60038301541660048301546005840154906006850154926007860154946009600888015497015497604051998a5260208a0152604089015215156060880152608087015260a086015260c085015260e0840152610100830152610120820152f35b34610194576020366003190112610194576001600160a01b036141f461456e565b1661024051526001602052602060ff6040610240512054166040519015158152f35b3461019457602080600319360112610194576040516351331ad760e01b81526004803592916001600160a01b039183908290817f000000000000000000000000000000000000000000000000000000000000000086165afa8015610b4d5783916102405191614355575b50602460405180948193637be53ca160e01b8352336004840152165afa908115610b4d5761024051916142f4575b7f2671c06c8f001757af00d7be47b46a5eed07be3b5ce4fa7260e8b21050435324604084866142dc866146dd565b600a549181600a558351928352820152a16102405180f35b9180915082813d831161434e575b61430c818361469b565b81010312610194577f2671c06c8f001757af00d7be47b46a5eed07be3b5ce4fa7260e8b21050435324926142dc6143446040946146d0565b92935050926142ae565b503d614302565b82819392503d8311614384575b61436c818361469b565b810103126101945761437e83916146bc565b85614280565b503d614362565b346101945760603660031901126101945760043560246143a9614584565b600b54604051632f7ce47360e21b815260048101859052926001600160a01b039160e0918591829085165afa928315610b4d576102405193614461575b5080602091600e54169351166024604051809581936341976e0960e01b835260048301525afa918215610b4d57610240519261442d575b60206121478460443585886155f1565b91506020823d8211614459575b816144476020938361469b565b8101031261019457905190602061441d565b3d915061443a565b602091935061447e9060e03d60e011611b9b57611b8c818361469b565b92906143e6565b34610194576020366003190112610194576004356102405152600560205260206040610240512054604051908152f35b34610194576020366003190112610194576004356102405152600960205260206040610240512054604051908152f35b34610194576102405180600319360112610191576040517f00000000000000000000000000000000000000000000000000000000000000006001600160a01b03168152602090f35b3461019457602061214761454036614593565b916151b7565b34610d14576020366003190112610d1457602090600435600052600482526040600020548152f35b600435906001600160a01b0382168203610d1457565b602435908115158203610d1457565b6060906003190112610d14576004356001600160a01b0381168103610d145790602435906044358015158103610d145790565b60c0906003190112610d14576004356001600160a01b0381168103610d1457906024359060443590606435906084358015158103610d14579060a43590565b6001600160401b03811161461857604052565b634e487b7160e01b600052604160045260246000fd5b60c081019081106001600160401b0382111761461857604052565b61014081019081106001600160401b0382111761461857604052565b604081019081106001600160401b0382111761461857604052565b606081019081106001600160401b0382111761461857604052565b90601f801991011681019081106001600160401b0382111761461857604052565b51906001600160a01b0382168203610d1457565b51908115158203610d1457565b156146e457565b60405162461bcd60e51b815260206004820152600d60248201526c37b7363ca837b7b620b236b4b760991b6044820152606490fd5b6001600160a01b0391821681529116602082015260400190565b1561473a57565b60405162461bcd60e51b81526020600482015260156024820152742430b7323632b0b136329d103337b93134b23232b760591b6044820152606490fd5b908160e0910312610d14576040519060e08201908282106001600160401b038311176146185760c0916040526147ac816146bc565b83526147ba602082016146bc565b60208401526147cb604082016146bc565b60408401526147dc606082016146d0565b60608401526080810151608084015260a081015160a0840152015160c082015290565b6001600160401b03811161461857601f01601f191660200190565b6040519061482782614665565b600982526873697a6544656c746160b81b6020830152565b9190820180921161484c57565b634e487b7160e01b600052601160045260246000fd5b9190916000838201938412911290801582169115161761484c57565b600160ff1b811461484c5760000390565b1561489657565b60405162461bcd60e51b815260206004820152602560248201527f636f6c6c61746572616c206e6f7420656e6f75676820666f722066756e64696e604482015264672066656560d81b6064820152608490fd5b9190820391821161484c57565b156148fd57565b60405162461bcd60e51b815260206004820152602560248201527f636f6c6c61746572616c206e6f7420656e6f75676820666f722074726164696e604482015264672066656560d81b6064820152608490fd5b6040519061495d82614665565b600c82526b39b437b93a2a3930b1b5b2b960a11b6020830152565b908160c0910312610d145760a0604051916149928361462e565b8051835260208101516020840152604081015160408401526060810151606084015260808101516080840152015160a082015290565b604051906149d582614665565b6005825264707269636560d81b6020830152565b604051906149f682614680565b6023825262199a5d60ea1b6040837f696e637265617365506f736974696f6e2042544f20646563726561736550726f60208201520152565b60405190614a3b82614680565b6023825262199a5d60ea1b6040837f696e637265617365506f736974696f6e2042544f20696e63726561736550726f60208201520152565b60405190614a8082614680565b6023825262199a5d60ea1b6040837f696e637265617365506f736974696f6e2053544f20696e63726561736550726f60208201520152565b60405190614ac582614680565b6023825262199a5d60ea1b6040837f696e637265617365506f736974696f6e2053544f20646563726561736550726f60208201520152565b979491926101409996939c9b9a9794919c6101608a019d8a5260018060a01b031660208a0152604089015215156060880152608087015260a086015260c085015260e08401526101008301526101208201520152565b600260005414614b64576002600055565b60405162461bcd60e51b815260206004820152601f60248201527f5265656e7472616e637947756172643a207265656e7472616e742063616c6c006044820152606490fd5b60405163a9059cbb60e01b60208083019182526001600160a01b039485166024840152604480840196909652948252926080820191906001600160401b0383118284101761461857614c6593836040521690614c0483614665565b8583527f5361666545524332303a206c6f772d6c6576656c2063616c6c206661696c656460a0820152600080958192519082855af13d15614cfa573d91614c4a836147ff565b92614c58604051948561469b565b83523d868885013e614cfe565b90815190838215928315614cd8575b505050905015614c815750565b6084906040519062461bcd60e51b82526004820152602a60248201527f5361666545524332303a204552433230206f7065726174696f6e20646964206e6044820152691bdd081cdd58d8d9595960b21b6064820152fd5b848092939450010312610191575081614cf191016146d0565b80388381614c74565b6060915b91929015614d605750815115614d12575090565b3b15614d1b5790565b60405162461bcd60e51b815260206004820152601d60248201527f416464726573733a2063616c6c20746f206e6f6e2d636f6e74726163740000006044820152606490fd5b825190915015614d735750805190602001fd5b60405162461bcd60e51b815260206004820152908190614d97906024830190614dbe565b0390fd5b60005b838110614dae5750506000910152565b8181015183820152602001614d9e565b90602091614dd781518092818552858086019101614d9b565b601f01601f1916010190565b8115614ded570490565b634e487b7160e01b600052601260045260246000fd5b9060001981830981830291828083109203918083039214614ea75768327cb2734119d3b7a9601e1b9082821115614e6a577f7d33c22789773a07feda8b6f0930e26fa397c439f1d5cf4b2eb27d7306d2dc99940990828211900360e21b9103601e1c170290565b60405162461bcd60e51b81526020600482015260156024820152744d6174683a206d756c446976206f766572666c6f7760581b6044820152606490fd5b505068327cb2734119d3b7a9601e1b9004919050565b9068327cb2734119d3b7a9601e1b906000198284099282810292838086109503948086039514614f415784831115614e6a578291096001821901821680920460028082600302188083028203028083028203028083028203028083028203028083028203028092029003029360018380600003040190848311900302920304170290565b505090614f4e9250614de3565b90565b9060001981830981830291828083109203918083039214614fae576127109082821115614e6a577fbc01a36e2eb1c432ca57a786c226809d495182a9930be0ded288ce703afb7e91940990828211900360fc1b910360041c170290565b505061271091500490565b60008112614fc45790565b614f4e9061487e565b600081126151945760405160208101908082106001600160401b0383111761461857615000916040526000815291614fb9565b6000908072184f03e93ff9f4daa797ed6e38ed64bf6a1f0160401b80821015615186575b506904ee2d6d415b85acef8160201b80821015615179575b50662386f26fc100008082101561516c575b506305f5e1008082101561515f575b5061271080821015615152575b506064811015615144575b600a8091101561513a575b6001808401928160216150ab615095876147ff565b966150a3604051988961469b565b8088526147ff565b602087019790601f1901368937860101905b615104575b505050506150f892614f4e9260209260405195836150e98895518092888089019101614d9b565b84019151809386840190614d9b565b0103808452018261469b565b600019019083906f181899199a1a9b1b9c1cb0b131b232b360811b8282061a835304918215615135579190826150bd565b6150c2565b9160010191615080565b606460029104920191615075565b600491049201913861506a565b600891049201913861505d565b601091049201913861504e565b602091049201913861503c565b604093508204905038615024565b6150006040516151a381614665565b60018152602d60f81b602082015291614fb9565b9160405191602083019360018060601b03199060601b1684526034830152151560f81b6054820152603581526151ec81614680565b51902090565b604051906151ff82614680565b6023825262199a5d60ea1b6040837f6465637265617365506f736974696f6e2053544320646563726561736550726f60208201520152565b6040519061524482614680565b6023825262199a5d60ea1b6040837f6465637265617365506f736974696f6e2053544320696e63726561736550726f60208201520152565b6040519061528982614680565b6023825262199a5d60ea1b6040837f6465637265617365506f736974696f6e2042544320696e63726561736550726f60208201520152565b604051906152ce82614680565b6023825262199a5d60ea1b6040837f6465637265617365506f736974696f6e2042544320646563726561736550726f60208201520152565b9060405161531381614649565b8254815260018301546001600160a01b0316602082015260028301546040820152600383015460ff161515606082015260048301546080820152600583015460a0820152600683015460c0820152600783015460e08201526008830154610100820152600990920154610120830152565b60c08101908151908185146153ff5760600151156153d557508051808411156153bd5750614f4e926153b79151906148e9565b90614e03565b6153d0929150614f4e936153b7916148e9565b61487e565b838111156153ec5750614f4e926153b791516148e9565b6153d09291506153b790614f4e946148e9565b5050505050600090565b8181029291811591840414171561484c57565b818102929160008212600160ff1b82141661484c57818405149015171561484c57565b90604080519161544e83614680565b60258352615494816020947f75706461746543756d756c617469766546756e64696e675261746520706169728682015264092dcc8caf60db1b85820152866103206149c8565b6000908482526009845282822054156155d3576154b483832054426148e9565b600a5480911061557e579161553486949261552e61551361550c606099977f30ee8c76a6febcb0400fb07183d873b5c18cf9e5ca6a47104676795b989c606d9b87526009895261550788882054426148e9565b614de3565b9288615844565b9187855260088752828686205560078752858520549261541c565b90614862565b8482526007845282822055615554600a5461554f8142614de3565b615409565b848252600984528282205560078352818082205491600985522054928251948552840152820152a1565b5050506155d19250807f75706461746543756d756c617469766546756e64696e6752617465206e6f206e696565642075706461746560b01b9251936155c285614680565b602a8552840152820152615d06565b565b5090916009906155e9600a5461554f8142614de3565b948352522055565b916024936155fe91614e03565b9160018060a01b03600b54169060c0604092835196878092630da67fe760e01b82528560048301525afa9485156156fd57600095615687575b50600090815260046020529081205412615669571561565b57614f4e915190614f51565b6020614f4e92015190614f51565b1561567c576020614f4e92015190614f51565b614f4e915190614f51565b909460c0823d82116156f5575b816156a160c0938361469b565b8101031261019157509060009160a08251916156bc8361462e565b805183526020810151602084015283810151848401526060810151606084015260808101516080840152015160a0820152949091615637565b3d9150615694565b82513d6000823e3d90fd5b8115614ded57600160ff1b811460001983141661484c570590565b8181039291600013801582851316918412161761484c57565b8192620f4240949261574d926151b7565b916000928352600260205261576460408420615306565b91615774610100840151426148e9565b600a54908181106157a65750505061043460408460a0936157a296526007602052205460e084015190615723565b0590565b6157c5919294506040866157ca956157a298526008602052205461541c565b615708565b9061541c565b9190620f42409493826157e2926151b7565b92600093845260026020526157f960408520615306565b92615809610100850151426148e9565b600a5491828210615839575b5050505061043460408460a0936157a296526007602052205460e084015190615723565b156157a65780615815565b919060409081519361585585614665565b601c85526158a8826020967b0c6eae4e4cadce88ceadcc8d2dccea4c2e8ca40e0c2d2e492dcc8caf60231b888201528386519161589183614665565b60068352655f707269636560d01b8a840152615de1565b600b54835163694b193160e11b81526004808201849052909390916001600160a01b039060249061012090819088908490829087165afa968715615caf57600097615c02575b505084600052838952866000205461590590614fb9565b6060870151938660005260058b52886000205460068c52896000205461592a9161483f565b906080890151948a5161593c81614680565b602181528d81017f63757272656e7446756e64696e675261746520772025732071202573206b202590528b8101607360f81b90528d8c51809181019263a7a8785360e01b84528882016080905260a4820161599691614dbe565b8a604483015286606483015289608483015203601f19810182526159ba908261469b565b51905a91600092916a636f6e736f6c652e6c6f678493fa50600c548b51632500ed8d60e21b81528981018b90529291168286815a9360c094fa918215615bf757908d615a379392600093615bc9575b50615a3191610f51615a2192855190860151906148e9565b9160608d820151910151906148e9565b9061483f565b92615a6d848d7318dd5c9c995b9d119d5b991a5b99d4985d19481b60621b8d5191615a6183614665565b60148352820152615d55565b81158015615bc1575b15615b11575050505050505050908184615a9c836155d19501515b60a084015190615723565b825180821215615b095750915b015180821315615b015750935b606560f81b615ac486614fcd565b927f67657443757272656e7446756e64696e67526174652066756e64696e67526174815193615af285614680565b60218552840152820152615d9a565b905093615ab6565b905091615aa9565b615b1b8387615409565b620f42409283820291808304851490151715615bad5790615b3f615b459288615409565b90614de3565b958203918211615b9a575093615a316155d199989794615b3f8d9895615b71615b7796615a9c9a615409565b92615409565b9160005283526000858120541215600003615a9157615b959061487e565b615a91565b634e487b7160e01b600090815260118852fd5b8260118a634e487b7160e01b600052526000fd5b508315615a76565b615a2191935091610f51615bed615a319460c03d811161192557611916818361469b565b9492505091615a09565b8b513d6000823e3d90fd5b9091968282813d8311615ca8575b615c1a818361469b565b81010312610191578851928301908382106001600160401b03831117615c965750885280518252898101518a8301528781015188830152606081015160608301526080810151608083015260a081015160a083015260c081015160c083015260e081015160e083015261010080910151908201529438806158ee565b634e487b7160e01b8152604187528890fd5b503d615c10565b88513d6000823e3d90fd5b60405190615cc782614649565b816101206000918281528260208201528260408201528260608201528260808201528260a08201528260c08201528260e0820152826101008201520152565b60008091604051615d4281615d34602082019463104c13eb60e21b8652602060248401526044830190614dbe565b03601f19810183528261469b565b51906a636f6e736f6c652e6c6f675afa50565b600091908291615d426040518092615d866020830195632d839cb360e21b8752604060248501526064840190614dbe565b90604483015203601f19810183528261469b565b60009190615d34615d428493604051928391615dcf6020840196634b5c427760e01b8852604060248601526064850190614dbe565b83810360231901604485015290614dbe565b90615d42600094938594615e2e604051948593615e17602086019863c67ea9d160e01b8a526080602488015260a4870190614dbe565b916044860152602319858303016064860152614dbe565b90608483015203601f19810183528261469b56fe07777c9f149d310fb8670fb9752de106d0ebc29093eb6df2be370406a7d742a39a23c22b6372bd11ffa0aced0db638ca7c144fc3996ecc8fbe3f9a639ef285ad7274207570646174652061766572616765507269636500000000000000000000a2646970667358221220a6e81ac6be154e00055de7b258de56c3799e854e0f3613c7364949b752326d4964736f6c63430008110033",
  "devdoc": {
    "kind": "dev",
    "methods": {},
    "version": 1
  },
  "userdoc": {
    "kind": "user",
    "methods": {},
    "version": 1
  },
  "storageLayout": {
    "storage": [
      {
        "astId": 1095,
        "contract": "contracts/trading/TradingVault.sol:TradingVault",
        "label": "_status",
        "offset": 0,
        "slot": "0",
        "type": "t_uint256"
      },
      {
        "astId": 6574,
        "contract": "contracts/trading/TradingVault.sol:TradingVault",
        "label": "isHandler",
        "offset": 0,
        "slot": "1",
        "type": "t_mapping(t_address,t_bool)"
      },
      {
        "astId": 18692,
        "contract": "contracts/trading/TradingVault.sol:TradingVault",
        "label": "positions",
        "offset": 0,
        "slot": "2",
        "type": "t_mapping(t_bytes32,t_struct(Info)6054_storage)"
      },
      {
        "astId": 18697,
        "contract": "contracts/trading/TradingVault.sol:TradingVault",
        "label": "isFrozen",
        "offset": 0,
        "slot": "3",
        "type": "t_mapping(t_address,t_bool)"
      },
      {
        "astId": 18702,
        "contract": "contracts/trading/TradingVault.sol:TradingVault",
        "label": "netExposureAmountChecker",
        "offset": 0,
        "slot": "4",
        "type": "t_mapping(t_uint256,t_int256)"
      },
      {
        "astId": 18707,
        "contract": "contracts/trading/TradingVault.sol:TradingVault",
        "label": "longTracker",
        "offset": 0,
        "slot": "5",
        "type": "t_mapping(t_uint256,t_uint256)"
      },
      {
        "astId": 18712,
        "contract": "contracts/trading/TradingVault.sol:TradingVault",
        "label": "shortTracker",
        "offset": 0,
        "slot": "6",
        "type": "t_mapping(t_uint256,t_uint256)"
      },
      {
        "astId": 18716,
        "contract": "contracts/trading/TradingVault.sol:TradingVault",
        "label": "cumulativeFundingRates",
        "offset": 0,
        "slot": "7",
        "type": "t_mapping(t_uint256,t_int256)"
      },
      {
        "astId": 18720,
        "contract": "contracts/trading/TradingVault.sol:TradingVault",
        "label": "lastFundingRates",
        "offset": 0,
        "slot": "8",
        "type": "t_mapping(t_uint256,t_int256)"
      },
      {
        "astId": 18724,
        "contract": "contracts/trading/TradingVault.sol:TradingVault",
        "label": "lastFundingTimes",
        "offset": 0,
        "slot": "9",
        "type": "t_mapping(t_uint256,t_uint256)"
      },
      {
        "astId": 18726,
        "contract": "contracts/trading/TradingVault.sol:TradingVault",
        "label": "fundingInterval",
        "offset": 0,
        "slot": "10",
        "type": "t_uint256"
      },
      {
        "astId": 18729,
        "contract": "contracts/trading/TradingVault.sol:TradingVault",
        "label": "pairInfo",
        "offset": 0,
        "slot": "11",
        "type": "t_contract(IPairInfo)12341"
      },
      {
        "astId": 18732,
        "contract": "contracts/trading/TradingVault.sol:TradingVault",
        "label": "pairVault",
        "offset": 0,
        "slot": "12",
        "type": "t_contract(IPairVault)12447"
      },
      {
        "astId": 18734,
        "contract": "contracts/trading/TradingVault.sol:TradingVault",
        "label": "tradingFeeReceiver",
        "offset": 0,
        "slot": "13",
        "type": "t_address"
      },
      {
        "astId": 18737,
        "contract": "contracts/trading/TradingVault.sol:TradingVault",
        "label": "vaultPriceFeed",
        "offset": 0,
        "slot": "14",
        "type": "t_contract(IOraclePriceFeed)5811"
      }
    ],
    "types": {
      "t_address": {
        "encoding": "inplace",
        "label": "address",
        "numberOfBytes": "20"
      },
      "t_bool": {
        "encoding": "inplace",
        "label": "bool",
        "numberOfBytes": "1"
      },
      "t_bytes32": {
        "encoding": "inplace",
        "label": "bytes32",
        "numberOfBytes": "32"
      },
      "t_contract(IPairInfo)12341": {
        "encoding": "inplace",
        "label": "contract IPairInfo",
        "numberOfBytes": "20"
      },
      "t_contract(IPairVault)12447": {
        "encoding": "inplace",
        "label": "contract IPairVault",
        "numberOfBytes": "20"
      },
      "t_contract(IOraclePriceFeed)5811": {
        "encoding": "inplace",
        "label": "contract IOraclePriceFeed",
        "numberOfBytes": "20"
      },
      "t_int256": {
        "encoding": "inplace",
        "label": "int256",
        "numberOfBytes": "32"
      },
      "t_mapping(t_address,t_bool)": {
        "encoding": "mapping",
        "key": "t_address",
        "label": "mapping(address => bool)",
        "numberOfBytes": "32",
        "value": "t_bool"
      },
      "t_mapping(t_bytes32,t_struct(Info)6054_storage)": {
        "encoding": "mapping",
        "key": "t_bytes32",
        "label": "mapping(bytes32 => struct Position.Info)",
        "numberOfBytes": "32",
        "value": "t_struct(Info)6054_storage"
      },
      "t_mapping(t_uint256,t_int256)": {
        "encoding": "mapping",
        "key": "t_uint256",
        "label": "mapping(uint256 => int256)",
        "numberOfBytes": "32",
        "value": "t_int256"
      },
      "t_mapping(t_uint256,t_uint256)": {
        "encoding": "mapping",
        "key": "t_uint256",
        "label": "mapping(uint256 => uint256)",
        "numberOfBytes": "32",
        "value": "t_uint256"
      },
      "t_struct(Info)6054_storage": {
        "encoding": "inplace",
        "label": "struct Position.Info",
        "members": [
          {
            "astId": 6035,
            "contract": "contracts/trading/TradingVault.sol:TradingVault",
            "label": "key",
            "offset": 0,
            "slot": "0",
            "type": "t_bytes32"
          },
          {
            "astId": 6037,
            "contract": "contracts/trading/TradingVault.sol:TradingVault",
            "label": "account",
            "offset": 0,
            "slot": "1",
            "type": "t_address"
          },
          {
            "astId": 6039,
            "contract": "contracts/trading/TradingVault.sol:TradingVault",
            "label": "pairIndex",
            "offset": 0,
            "slot": "2",
            "type": "t_uint256"
          },
          {
            "astId": 6041,
            "contract": "contracts/trading/TradingVault.sol:TradingVault",
            "label": "isLong",
            "offset": 0,
            "slot": "3",
            "type": "t_bool"
          },
          {
            "astId": 6043,
            "contract": "contracts/trading/TradingVault.sol:TradingVault",
            "label": "collateral",
            "offset": 0,
            "slot": "4",
            "type": "t_uint256"
          },
          {
            "astId": 6045,
            "contract": "contracts/trading/TradingVault.sol:TradingVault",
            "label": "positionAmount",
            "offset": 0,
            "slot": "5",
            "type": "t_uint256"
          },
          {
            "astId": 6047,
            "contract": "contracts/trading/TradingVault.sol:TradingVault",
            "label": "averagePrice",
            "offset": 0,
            "slot": "6",
            "type": "t_uint256"
          },
          {
            "astId": 6049,
            "contract": "contracts/trading/TradingVault.sol:TradingVault",
            "label": "entryFundingRate",
            "offset": 0,
            "slot": "7",
            "type": "t_int256"
          },
          {
            "astId": 6051,
            "contract": "contracts/trading/TradingVault.sol:TradingVault",
            "label": "entryFundingTime",
            "offset": 0,
            "slot": "8",
            "type": "t_uint256"
          },
          {
            "astId": 6053,
            "contract": "contracts/trading/TradingVault.sol:TradingVault",
            "label": "realisedPnl",
            "offset": 0,
            "slot": "9",
            "type": "t_int256"
          }
        ],
        "numberOfBytes": "320"
      },
      "t_uint256": {
        "encoding": "inplace",
        "label": "uint256",
        "numberOfBytes": "32"
      }
    }
  }
}