{
  "address": "0xc5a5C42992dECbae36851359345FE25997F5C42d",
  "abi": [
    {
      "inputs": [
        {
          "internalType": "contract IAddressesProvider",
          "name": "addressProvider",
          "type": "address"
        },
        {
          "internalType": "contract IPairInfo",
          "name": "_pairInfo",
          "type": "address"
        },
        {
          "internalType": "contract IPairVault",
          "name": "_pairVault",
          "type": "address"
        },
        {
          "internalType": "contract IOraclePriceFeed",
          "name": "_vaultPriceFeed",
          "type": "address"
        },
        {
          "internalType": "address",
          "name": "_feeReceiver",
          "type": "address"
        },
        {
          "internalType": "address",
          "name": "_slipReceiver",
          "type": "address"
        },
        {
          "internalType": "address",
          "name": "_weth",
          "type": "address"
        }
      ],
      "stateMutability": "nonpayable",
      "type": "constructor"
    },
    {
      "anonymous": false,
      "inputs": [
        {
          "indexed": true,
          "internalType": "address",
          "name": "account",
          "type": "address"
        },
        {
          "indexed": true,
          "internalType": "uint256",
          "name": "pairIndex",
          "type": "uint256"
        },
        {
          "indexed": false,
          "internalType": "uint256",
          "name": "indexAmount",
          "type": "uint256"
        },
        {
          "indexed": false,
          "internalType": "uint256",
          "name": "stableAmount",
          "type": "uint256"
        },
        {
          "indexed": false,
          "internalType": "uint256",
          "name": "lpAmount",
          "type": "uint256"
        }
      ],
      "name": "AddLiquidity",
      "type": "event"
    },
    {
      "anonymous": false,
      "inputs": [
        {
          "indexed": true,
          "internalType": "address",
          "name": "account",
          "type": "address"
        },
        {
          "indexed": true,
          "internalType": "uint256",
          "name": "pairIndex",
          "type": "uint256"
        },
        {
          "indexed": false,
          "internalType": "uint256",
          "name": "indexAmount",
          "type": "uint256"
        },
        {
          "indexed": false,
          "internalType": "uint256",
          "name": "stableAmount",
          "type": "uint256"
        },
        {
          "indexed": false,
          "internalType": "uint256",
          "name": "lpAmount",
          "type": "uint256"
        }
      ],
      "name": "RemoveLiquidity",
      "type": "event"
    },
    {
      "inputs": [],
      "name": "ADDRESS_PROVIDER",
      "outputs": [
        {
          "internalType": "contract IAddressesProvider",
          "name": "",
          "type": "address"
        }
      ],
      "stateMutability": "view",
      "type": "function"
    },
    {
      "inputs": [],
      "name": "PRICE_PRECISION",
      "outputs": [
        {
          "internalType": "uint256",
          "name": "",
          "type": "uint256"
        }
      ],
      "stateMutability": "view",
      "type": "function"
    },
    {
      "inputs": [
        {
          "internalType": "uint256",
          "name": "_pairIndex",
          "type": "uint256"
        },
        {
          "internalType": "uint256",
          "name": "_indexAmount",
          "type": "uint256"
        },
        {
          "internalType": "uint256",
          "name": "_stableAmount",
          "type": "uint256"
        }
      ],
      "name": "addLiquidity",
      "outputs": [
        {
          "internalType": "uint256",
          "name": "",
          "type": "uint256"
        }
      ],
      "stateMutability": "nonpayable",
      "type": "function"
    },
    {
      "inputs": [
        {
          "internalType": "uint256",
          "name": "_pairIndex",
          "type": "uint256"
        },
        {
          "internalType": "uint256",
          "name": "_stableAmount",
          "type": "uint256"
        }
      ],
      "name": "addLiquidityETH",
      "outputs": [
        {
          "internalType": "uint256",
          "name": "",
          "type": "uint256"
        }
      ],
      "stateMutability": "payable",
      "type": "function"
    },
    {
      "inputs": [
        {
          "internalType": "address",
          "name": "_funder",
          "type": "address"
        },
        {
          "internalType": "address",
          "name": "_account",
          "type": "address"
        },
        {
          "internalType": "uint256",
          "name": "_pairIndex",
          "type": "uint256"
        },
        {
          "internalType": "uint256",
          "name": "_indexAmount",
          "type": "uint256"
        },
        {
          "internalType": "uint256",
          "name": "_stableAmount",
          "type": "uint256"
        }
      ],
      "name": "addLiquidityForAccount",
      "outputs": [
        {
          "internalType": "uint256",
          "name": "",
          "type": "uint256"
        }
      ],
      "stateMutability": "nonpayable",
      "type": "function"
    },
    {
      "inputs": [],
      "name": "feeReceiver",
      "outputs": [
        {
          "internalType": "address",
          "name": "",
          "type": "address"
        }
      ],
      "stateMutability": "view",
      "type": "function"
    },
    {
      "inputs": [
        {
          "internalType": "uint256",
          "name": "_pairIndex",
          "type": "uint256"
        },
        {
          "internalType": "uint256",
          "name": "_lpAmount",
          "type": "uint256"
        }
      ],
      "name": "getDepositAmount",
      "outputs": [
        {
          "internalType": "uint256",
          "name": "depositIndexAmount",
          "type": "uint256"
        },
        {
          "internalType": "uint256",
          "name": "depositStableAmount",
          "type": "uint256"
        }
      ],
      "stateMutability": "view",
      "type": "function"
    },
    {
      "inputs": [
        {
          "internalType": "uint256",
          "name": "_pairIndex",
          "type": "uint256"
        },
        {
          "internalType": "uint256",
          "name": "_indexAmount",
          "type": "uint256"
        },
        {
          "internalType": "uint256",
          "name": "_stableAmount",
          "type": "uint256"
        }
      ],
      "name": "getMintLpAmount",
      "outputs": [
        {
          "internalType": "uint256",
          "name": "mintAmount",
          "type": "uint256"
        },
        {
          "internalType": "address",
          "name": "slipToken",
          "type": "address"
        },
        {
          "internalType": "uint256",
          "name": "slipAmount",
          "type": "uint256"
        }
      ],
      "stateMutability": "view",
      "type": "function"
    },
    {
      "inputs": [
        {
          "internalType": "uint256",
          "name": "_pairIndex",
          "type": "uint256"
        },
        {
          "internalType": "uint256",
          "name": "_lpAmount",
          "type": "uint256"
        }
      ],
      "name": "getReceivedAmount",
      "outputs": [
        {
          "internalType": "uint256",
          "name": "receiveIndexTokenAmount",
          "type": "uint256"
        },
        {
          "internalType": "uint256",
          "name": "receiveStableTokenAmount",
          "type": "uint256"
        }
      ],
      "stateMutability": "view",
      "type": "function"
    },
    {
      "inputs": [
        {
          "internalType": "address",
          "name": "",
          "type": "address"
        }
      ],
      "name": "isHandler",
      "outputs": [
        {
          "internalType": "bool",
          "name": "",
          "type": "bool"
        }
      ],
      "stateMutability": "view",
      "type": "function"
    },
    {
      "inputs": [
        {
          "internalType": "uint256",
          "name": "_pairIndex",
          "type": "uint256"
        }
      ],
      "name": "lpFairPrice",
      "outputs": [
        {
          "internalType": "uint256",
          "name": "",
          "type": "uint256"
        }
      ],
      "stateMutability": "view",
      "type": "function"
    },
    {
      "inputs": [],
      "name": "pairInfo",
      "outputs": [
        {
          "internalType": "contract IPairInfo",
          "name": "",
          "type": "address"
        }
      ],
      "stateMutability": "view",
      "type": "function"
    },
    {
      "inputs": [],
      "name": "pairVault",
      "outputs": [
        {
          "internalType": "contract IPairVault",
          "name": "",
          "type": "address"
        }
      ],
      "stateMutability": "view",
      "type": "function"
    },
    {
      "inputs": [
        {
          "internalType": "uint256",
          "name": "_pairIndex",
          "type": "uint256"
        },
        {
          "internalType": "uint256",
          "name": "_amount",
          "type": "uint256"
        }
      ],
      "name": "removeLiquidity",
      "outputs": [
        {
          "internalType": "uint256",
          "name": "receivedIndexAmount",
          "type": "uint256"
        },
        {
          "internalType": "uint256",
          "name": "receivedStableAmount",
          "type": "uint256"
        }
      ],
      "stateMutability": "nonpayable",
      "type": "function"
    },
    {
      "inputs": [
        {
          "internalType": "address",
          "name": "_account",
          "type": "address"
        },
        {
          "internalType": "address",
          "name": "_receiver",
          "type": "address"
        },
        {
          "internalType": "uint256",
          "name": "_pairIndex",
          "type": "uint256"
        },
        {
          "internalType": "uint256",
          "name": "_amount",
          "type": "uint256"
        }
      ],
      "name": "removeLiquidityForAccount",
      "outputs": [
        {
          "internalType": "uint256",
          "name": "",
          "type": "uint256"
        },
        {
          "internalType": "uint256",
          "name": "",
          "type": "uint256"
        }
      ],
      "stateMutability": "nonpayable",
      "type": "function"
    },
    {
      "inputs": [
        {
          "internalType": "contract IPairInfo",
          "name": "_pairStorage",
          "type": "address"
        },
        {
          "internalType": "contract IPairVault",
          "name": "_pairVault",
          "type": "address"
        }
      ],
      "name": "setContract",
      "outputs": [],
      "stateMutability": "nonpayable",
      "type": "function"
    },
    {
      "inputs": [
        {
          "internalType": "address",
          "name": "_handler",
          "type": "address"
        },
        {
          "internalType": "bool",
          "name": "_isHandler",
          "type": "bool"
        }
      ],
      "name": "setHandler",
      "outputs": [],
      "stateMutability": "nonpayable",
      "type": "function"
    },
    {
      "inputs": [
        {
          "internalType": "address",
          "name": "_feeReceiver",
          "type": "address"
        },
        {
          "internalType": "address",
          "name": "_slipReceiver",
          "type": "address"
        }
      ],
      "name": "setReceiver",
      "outputs": [],
      "stateMutability": "nonpayable",
      "type": "function"
    },
    {
      "inputs": [],
      "name": "slipReceiver",
      "outputs": [
        {
          "internalType": "address",
          "name": "",
          "type": "address"
        }
      ],
      "stateMutability": "view",
      "type": "function"
    },
    {
      "inputs": [
        {
          "internalType": "address",
          "name": "",
          "type": "address"
        },
        {
          "internalType": "address",
          "name": "",
          "type": "address"
        }
      ],
      "name": "userPairTokens",
      "outputs": [
        {
          "internalType": "uint256",
          "name": "",
          "type": "uint256"
        }
      ],
      "stateMutability": "view",
      "type": "function"
    },
    {
      "inputs": [],
      "name": "vaultPriceFeed",
      "outputs": [
        {
          "internalType": "contract IOraclePriceFeed",
          "name": "",
          "type": "address"
        }
      ],
      "stateMutability": "view",
      "type": "function"
    },
    {
      "inputs": [],
      "name": "weth",
      "outputs": [
        {
          "internalType": "address",
          "name": "",
          "type": "address"
        }
      ],
      "stateMutability": "view",
      "type": "function"
    }
  ],
  "transactionHash": "0x31a760266830d3665b4ac9a6cc5d9e58c519d4cce55188fa068083b8cd183d16",
  "args": [
    "0x5FbDB2315678afecb367f032d93F642f64180aa3",
    "0x7a2088a1bFc9d81c55368AE168C2C02570cB814F",
    "0x09635F643e140090A9A8Dcd712eD6285858ceBef",
    "0xB7f8BC63BbcaD18155201308C8f3540b07f84F5e",
    "0xf39Fd6e51aad88F6F4ce6aB8827279cffFb92266",
    "0xf39Fd6e51aad88F6F4ce6aB8827279cffFb92266",
    "0x2279B7A0a67DB372996a5FaB50D91eAA73d2eBe6"
  ],
  "numDeployments": 1,
  "solcInputHash": "88b9facc694daac1217da6c3f2e56500",
  "bytecode": "0x60a0346200014557601f620035c038819003918201601f19168301916001600160401b038311848410176200014a5780849260e094604052833981010312620001455780516001600160a01b0390818116810362000145576020830151928284168094036200014557604081015190838216809203620001455760608101518481168091036200014557849283916200009b6080850162000160565b91620000b860c0620000b060a0880162000160565b960162000160565b963360005260006020526040600020600160ff1982541617905560805260018060a01b03199889600154161760015588600254161760025587600354161760035516856004541617600455168360055416176005551690600654161760065560405161344a90816200017682396080518181816104c601528181610789015281816112c201526113df0152f35b600080fd5b634e487b7160e01b600052604160045260246000fd5b51906001600160a01b0382168203620001455756fe60e0806040526004908136101561001557600080fd5b60009160e08335811c928363055241511461140e575082631848effa146113c95782632bf6e0a514611276578263346d5d7514610f495782633fc8cef314610f20578263422f104314610f0457826346ea87af14610ec65782634b57f96e14610ea75782634c3c0f58146108e9578263653c45e61461088557826386dcb95e146107465782638ffc80a11461063957826392771c3c1461061f57826395082d25146105f75782639cb7de4b1461047c5782639d7de6b31461027c57508163a31a7b4414610253578163b3f006741461022757508063bef77c59146101d8578063e05def241461016c578063eeaa783a146101435763fc2a5b1d1461011857600080fd5b346101405780600319360112610140576001546040516001600160a01b039091168152602090f35b80fd5b50346101405780600319360112610140576003546040516001600160a01b039091168152602090f35b5034610140576080366003190112610140576101b660409161018c611468565b6101a961019761147e565b923033149081156101c2575b5061158c565b6064359160443591612892565b82519182526020820152f35b60ff9150869033815280602052205416386101a3565b5034610140576040366003190112610140576101f2611468565b60406101fc61147e565b9260018060a01b03809316815260076020522091166000526020526020604060002054604051908152f35b90503461024f578160031936011261024f57546040516001600160a01b039091168152602090f35b5080fd5b82346101405780600319360112610140576002546040516001600160a01b039091168152602090f35b909150346104785761029c919261029236611433565b8194913333612892565b92909384151591826103ec575b50506102c0575b6040838382519182526020820152f35b6006546001600160a01b0316803b1561024f57818091602460405180948193632e1a7d4d60e01b8352898b8401525af180156103e1579082916103cd575b50508247106103895780808085335af1610316611658565b501561032257826102b0565b60405162461bcd60e51b8152602081850152603a60248201527f416464726573733a20756e61626c6520746f2073656e642076616c75652c20726044820152791958da5c1a595b9d081b585e481a185d99481c995d995c9d195960321b6064820152608490fd5b60405162461bcd60e51b8152602081860152601d60248201527f416464726573733a20696e73756666696369656e742062616c616e63650000006044820152606490fd5b6103d690611494565b6101405780386102fe565b6040513d84823e3d90fd5b600154604051632f7ce47360e21b8152888101939093526001600160a01b03935090919082908290602490829087165afa91821561046d57908392918592610440575b5050511690600654161438806102a9565b61045f9250803d10610466575b61045781836114f3565b8101906115d0565b388061042f565b503d61044d565b6040513d86823e3d90fd5b8280fd5b83823461024f57604036600319011261024f57610497611468565b90602435918215158093036105f3576040516351331ad760e01b81526020926001600160a01b039291848183817f000000000000000000000000000000000000000000000000000000000000000088165afa9081156105b1578491869189916105bc575b50602460405180948193630935e01b60e21b83523388840152165afa9081156105b1578791610578575b501561054857509084929116825252604082209060ff8019835416911617905580f35b60405162461bcd60e51b8152908101849052600960248201526837b7363ca0b236b4b760b91b6044820152606490fd5b90508481813d83116105aa575b61058f81836114f3565b810103126105a6576105a090611528565b87610525565b8680fd5b503d610585565b6040513d89823e3d90fd5b92505081813d83116105ec575b6105d381836114f3565b810103126105a657846105e68592611514565b896104fb565b503d6105c9565b8380fd5b833461014057806003193601126101405760405168327cb2734119d3b7a9601e1b8152602090f35b83346101405760406101b661063336611433565b90612fd3565b508261064436611433565b60065490939192906001600160a01b03908116803b156104785782849160405192838092630d0e30db60e41b825234905af1801561073b57610723575b506106ad8293602092600654169060405195868094819363a9059cbb60e01b8352349033908401611571565b03925af18015610716576106d3575b60206106cb853486338061195a565b604051908152f35b6020823d821161070e575b816106eb602093836114f3565b810103126101405750916106cb91610704602094611528565b50918193506106bc565b3d91506106de565b50604051903d90823e3d90fd5b602091926107336106ad92611494565b929150610681565b6040513d85823e3d90fd5b83823461024f57604036600319011261024f57610761611468565b9061076a61147e565b6040516351331ad760e01b81526001600160a01b0392906020808284817f000000000000000000000000000000000000000000000000000000000000000089165afa80156105b1578592889161084c575b508190602460405180958193637be53ca160e01b83523389840152165afa9081156105b1578791610811575b506107f29150611535565b8260018060a01b03199416848254161790551690600554161760055580f35b905081813d8311610845575b61082781836114f3565b810103126108415761083b6107f291611528565b876107e7565b8580fd5b503d61081d565b809350828092503d831161087e575b61086581836114f3565b810103126105a657806108788693611514565b906107bb565b503d61085b565b83346101405760a0366003190112610140576106cb6020916108a5611468565b906108c26108b161147e565b913033149081156108d3575061158c565b60843591606435916044359161195a565b60ff9150604090338152808852205416866101a3565b90915034610478576024926108fd3661144e565b91949092809281958515801590610e9e575b61091890611697565b600154604051632f7ce47360e21b81528581018a90529982918b919082906001600160a01b03165afa98891561073b576024989984608052610e7e575b505060805160400151610972906001600160a01b031615156116d4565b600254604051632500ed8d60e21b81528481018a90529760c09189919082906001600160a01b03165afa9687156103e1578297610e4e575b50610a1d604051956109bb876114bd565b601b87526109f8836020987a19d95d135a5b9d131c105b5bdd5b9d081a5b99195e105b5bdd5b9d602a1b8a820152836109f2611771565b916133b3565b610a1760c060805101610a17610a0f8251856124c4565b9151866124c4565b92611799565b92610a40610a3560018060a01b0360805151166132e1565b8060a05215156117bc565b82610a4d60a0518461240a565b98610a5f8a610a5a612dee565b61335b565b6040610a6e60a051835161240a565b910190610a7c8251826117f8565b610b2b575b50505050606097610afa610af48594610ae5610b1297610b009660405190610aa8826114d8565b602382527f6765744d696e744c70416d6f756e74206166746572466565496e646578416d6f8d830152621d5b9d60ea1b60408301526109f26118bb565b610aef868c6117f8565b611799565b91612c83565b9061252c565b95610b09612dee565b906109f26118bb565b60405193845260018060a01b0316908301526040820152f35b86610b408c610b47939e9c979a95969e6117f8565b92516117f8565b93610b8a85604051610b58816114bd565b601f81527f6765744d696e744c70416d6f756e7420696e646578546f74616c44656c7461008c820152846109f2611805565b610b9485836117f8565b92610ba760a060805101948551906124c4565b93610bb287856117f8565b905190612710918203918211610e3b5760609e5090610bd0916124c4565b96610c13888c7f6765744d696e744c70416d6f756e7420657870656374496e64657844656c746160405191610c04836114bd565b808352820152876109f2611831565b610c2460a051608080510151612376565b98909786861115610d1b57505050505092610cbc88610cb3610cc195610c52610b129a9996610b0099611799565b90508d8180821115610d1257610c6791611799565b9283915b7f6765744d696e744c70416d6f756e74206e65656453776170496e64657844656c60405192610c99846114d8565b6022845283015261746160f01b60408301526109f26118eb565b60a0519061252c565b6127f3565b95610afa610af4610cd460a0518a61252c565b98610ae586610cef8c60018060a01b0360805151169b611799565b610d0481610cfb612e31565b866109f2611915565b965050509495839b50610a81565b50928391610c6b565b81939b97949d999650809298955011610d4d575b505050505091610afa610af4610b0093610ae587610b129897610d04565b610dec95979b50610b12989950610b00965092610dd78b9593610d76610de194610de697611799565b9050808c1115610e3257610d8a818d611799565b9687915b7f6765744d696e744c70416d6f756e74206e65656453776170537461626c65446560405192610dbc846114d8565b60238452830152626c746160e81b60408301526109f261185e565b60a05192856127f3565b61240a565b90611799565b95610afa610af488610ae5610e0f8260018060a01b038c6080510151169a611799565b8097610e2682610e1d612e31565b866109f26118bb565b95979850829650610d2f565b8b968791610d8e565b634e487b7160e01b875260118f52602487fd5b610e7091975060c03d8111610e77575b610e6881836114f3565b81019061170f565b95386109aa565b503d610e5e565b81610e9492903d106104665761045781836114f3565b6080523880610955565b5081151561090f565b5082346101405760203660031901126101405760206106cb8335612c83565b83346101405760203660031901126101405760209060ff906040906001600160a01b03610ef1611468565b1681528084522054166040519015158152f35b83346101405760206106cb610f183661144e565b91333361195a565b83346101405780600319360112610140576006546040516001600160a01b039091168152602090f35b83903461024f57610f5936611433565b92610f65841515611697565b600154604051632f7ce47360e21b81528681018490526001600160a01b0395918590829060249082908a165afa94851561073b578395611254575b505084610fb78596604060249701511615156116d4565b60c0816002541660405196878092632500ed8d60e21b8252888c8301525afa94851561073b57839561122c575b50610ff461101f918751166132e1565b916110008315156117bc565b611019604061101085895161240a565b97015195612c83565b9061240a565b61105d8160405161102f816114bd565b601c81527b6765744d696e744c70416d6f756e74206465706f73697444656c746160201b602082015261335b565b6110708161106b86886117f8565b6117f8565b9461108160a08801968751906124c4565b61108f8361106b88856117f8565b9651966127109788039088821161121957906110aa916124c4565b956110f8876040516110bb816114d8565b602181527f6765744465706f736974416d6f756e7420657870656374496e64657844656c746020820152606160f81b6040820152846109f2611831565b9495869586918484106111d7575050509061111291611799565b8181106111bd575060c09161113c915b6111378661112e612e66565b836109f2612eaf565b61252c565b9461115284611149612ee2565b886109f2612f27565b019384518403908482116111aa579061116a916125c0565b935183039283116111975760408461118285856125c0565b6101b68161118e612ee2565b846109f2612f27565b634e487b7160e01b815260118552602490fd5b634e487b7160e01b835260118752602483fd5b61113c919450916111d18360c09496611799565b94611122565b91975091506111e69250611799565b818110611202575060c09161113c91946111378661112e612e66565b935060c0916112148561113c93611799565b611122565b634e487b7160e01b875260118b52602487fd5b61101f91955061124c610ff49160c03d8111610e7757610e6881836114f3565b959150610fe4565b60249550908161126f92903d106104665761045781836114f3565b9387610fa0565b83823461024f57604036600319011261024f5780356001600160a01b03818116918290036105f357602435928184168094036113c5576040516351331ad760e01b8152602091828282817f000000000000000000000000000000000000000000000000000000000000000088165afa9081156105b1578392889261138b575b506024906040519586938492637be53ca160e01b84523390840152165afa908115611380578591611349575b5061132c9150611535565b60018060a01b031990816001541617600155600254161760025580f35b905081813d8311611379575b61135f81836114f3565b810103126105f35761137361132c91611528565b85611321565b503d611355565b6040513d87823e3d90fd5b8381949293503d83116113be575b6113a381836114f3565b810103126105a65760246113b78493611514565b91906112f5565b503d611399565b8480fd5b83346101405780600319360112610140576040517f00000000000000000000000000000000000000000000000000000000000000006001600160a01b03168152602090f35b84903461024f578160031936011261024f576005546001600160a01b03168152602090f35b6040906003190112611449576004359060243590565b600080fd5b606090600319011261144957600435906024359060443590565b600435906001600160a01b038216820361144957565b602435906001600160a01b038216820361144957565b6001600160401b0381116114a757604052565b634e487b7160e01b600052604160045260246000fd5b604081019081106001600160401b038211176114a757604052565b606081019081106001600160401b038211176114a757604052565b90601f801991011681019081106001600160401b038211176114a757604052565b51906001600160a01b038216820361144957565b5190811515820361144957565b1561153c57565b60405162461bcd60e51b815260206004820152600d60248201526c37b7363ca837b7b620b236b4b760991b6044820152606490fd5b6001600160a01b039091168152602081019190915260400190565b1561159357565b60405162461bcd60e51b81526020600482015260156024820152742430b7323632b0b136329d103337b93134b23232b760591b6044820152606490fd5b908160e0910312611449576040519060e08201908282106001600160401b038311176114a75760c09160405261160581611514565b835261161360208201611514565b602084015261162460408201611514565b604084015261163560608201611528565b60608401526080810151608084015260a081015160a0840152015160c082015290565b3d15611692573d906001600160401b0382116114a75760405191611686601f8201601f1916602001846114f3565b82523d6000602084013e565b606090565b1561169e57565b60405162461bcd60e51b815260206004820152600e60248201526d1a5b9d985b1a5908185b5bdd5b9d60921b6044820152606490fd5b156116db57565b60405162461bcd60e51b815260206004820152600c60248201526b34b73b30b634b2103830b4b960a11b6044820152606490fd5b908160c0910312611449576040519060c08201908282106001600160401b038311176114a75760a0916040528051835260208101516020840152604081015160408401526060810151606084015260808101516080840152015160a082015290565b6040519061177e826114bd565b600c82526b1cdd18589b19505b5bdd5b9d60a21b6020830152565b919082039182116117a657565b634e487b7160e01b600052601160045260246000fd5b156117c357565b60405162461bcd60e51b815260206004820152600d60248201526c696e76616c696420707269636560981b6044820152606490fd5b919082018092116117a657565b60405190611812826114bd565b601082526f737461626c65546f74616c44656c746160801b6020830152565b6040519061183e826114bd565b6011825270657870656374537461626c6544656c746160781b6020830152565b6040519061186b826114bd565b600f82526e73776170537461626c6544656c746160881b6020830152565b60405190611896826114bd565b60168252756164644c697175696469747920736c697044656c746160501b6020830152565b604051906118c8826114bd565b601482527318599d195c91995954dd18589b19505b5bdd5b9d60621b6020830152565b604051906118f8826114bd565b600e82526d73776170496e64657844656c746160901b6020830152565b60405190611922826114bd565b601382527218599d195c919959525b99195e105b5bdd5b9d606a1b6020830152565b6040919493926060820195825260208201520152565b93909192602460009582158015906120fd575b61197690611697565b600154604051632f7ce47360e21b8152600481018890529260e09184919082906001600160a01b03165afa9182156105b157906024929188926120dd575b5060408201516119ce906001600160a01b031615156116d4565b600254604051632500ed8d60e21b8152600481018990529360c09185919082906001600160a01b03165afa9283156120d25790859189946120ab575b5090611a7e91611a4e82604051611a20816114bd565b6018815277185919131a5c5d5a591a5d1e481a5b99195e105b5bdd5b9d60421b6020820152886109f2611771565b8351611a68908790309084906001600160a01b0316612164565b60208401513091906001600160a01b0316612164565b60c0810190611b51611b4a611a9f611a978551886124c4565b9451886124c4565b93611b0785604051611ab0816114bd565b601b81527a185919131a5c5d5a591a5d1e481a5b99195e119959505b5bdd5b9d602a1b60208201528360405191611ae6836114bd565b600f83526e1cdd18589b19519959505b5bdd5b9d608a1b60208401526133b3565b8351600454611b249183916001600160a01b039081169116612106565b6020840151600454611b449187916001600160a01b039081169116612106565b86611799565b9286611799565b8151909390611b68906001600160a01b03166132e1565b90611b748215156117bc565b611b7f82825161240a565b611b89838661240a565b60c0528560408c930191611b9e8351826117f8565b611ddd575b50611bc49350611bbb929150610aef9060c0516117f8565b610afa89612c83565b97611c1184604051611bd5816114bd565b601e81527f6164644c697175696469747920696e6465784465706f73697444656c746100006020820152611c076118bb565b9060c051906133b3565b60408201516001600160a01b0316803b1561024f5781611c4a81928c6040519485809481936340c10f1960e01b83523060048401611571565b03925af180156103e157611dce575b5060018060a01b0360408301511681526007602052604081209660018060a01b03169687600052602052611c92896040600020546117f8565b60018060a01b0360408401511682526007602052604082208860005260205260406000205560018060a01b0360025416803b1561024f578185611cef9286838d60405196879586948593633431529d60e21b855260048501611944565b03925af180156103e157611dba575b50509181611d65827fd92dda7384b5f0fa573be9bbf63d63ac81a5bbb08ebc31f00c0f066e50239609979695611d4c611da49660018060a01b0383511660018060a01b036002541690612106565b602001516002546001600160a01b039081169116612106565b60405190611d72826114bd565b602082527f6164644c6971756964697479206166746572466565496e646578416d6f756e7460208301526109f26118bb565b611db48660405193849384611944565b0390a390565b611dc48291611494565b6101405780611cfe565b611dd790611494565b38611c59565b90610b40611dee9260c051906117f8565b90611e3182604051611dff816114bd565b601c81527b6164644c697175696469747920696e646578546f74616c44656c746160201b6020820152836109f2611805565b611e3b82826117f8565b90611e4c60a08701928351906124c4565b91611e5784836117f8565b9051612710808281031161209657928f92611e7f90611bbb989693611bc49a989603906124c4565b94611ec386604051611e90816114bd565b601d81527f6164644c697175696469747920657870656374496e64657844656c74610000006020820152856109f2611831565b611ed18760808c0151612376565b96909584841115611fa75750505093611f6893610cbc87611f6195611efc611f5a96611f829a611799565b905061113760c05182808211600014611f9f57611f1891611799565b80925b60405190611f28826114bd565b601f82527f6164644c6971756964697479206e65656453776170496e64657844656c74610060208301526109f26118eb565b938461252c565b8097611799565b85516005549197916001600160a01b039081169116612106565b611f9785611f8e611889565b836109f2611915565b908538611ba3565b508092611f1b565b809298969597945081935011611fc3575b505050505050611f97565b612047965092612040959492611fdf610de193610de696611799565b9550858d8181111561208a5761203a91611ff891611799565b80975b60405190612008826114bd565b602082527f6164644c6971756964697479206e65656453776170537461626c6544656c746160208301526109f261185e565b856127f3565b8096611799565b602084015160055491969161206a9183916001600160a01b039081169116612106565b61207f86612076611889565b836109f26118bb565b8a3880808080611fb8565b61203a91508097611ffb565b50634e487b7160e01b8f52601160045260248ffd5b611a7e929194506120ca9060c03d60c011610e7757610e6881836114f3565b939091611a0a565b6040513d8a823e3d90fd5b6120f691925060e03d81116104665761045781836114f3565b90386119b4565b5083151561196d565b61213b612140939261212d60405194859263a9059cbb60e01b602085015260248401611571565b03601f1981018452836114f3565b61218c565b565b6001600160a01b03918216815291166020820152604081019190915260600190565b9061213b9061212d612140956040519586936323b872dd60e01b602086015260248501612142565b6040516121ea916001600160a01b03166121a5826114bd565b6000806020958685527f5361666545524332303a206c6f772d6c6576656c2063616c6c206661696c656487860152868151910182855af16121e4611658565b91612279565b805182811591821561225a575b50509050156122035750565b6084906040519062461bcd60e51b82526004820152602a60248201527f5361666545524332303a204552433230206f7065726174696f6e20646964206e6044820152691bdd081cdd58d8d9595960b21b6064820152fd5b838092935001031261144957816122719101611528565b8082386121f7565b919290156122db575081511561228d575090565b3b156122965790565b60405162461bcd60e51b815260206004820152601d60248201527f416464726573733a2063616c6c20746f206e6f6e2d636f6e74726163740000006044820152606490fd5b8251909150156122ee5750805190602001fd5b60405162461bcd60e51b815260206004820152908190612312906024830190612316565b0390fd5b919082519283825260005b848110612342575050826000602080949584010152601f8019910116010190565b602081830181015184830182015201612321565b8115612360570490565b634e487b7160e01b600052601260045260246000fd5b919080156123d55782156123a4576123996123946123a0928561240a565b6126b0565b8093612356565b9190565b60405162461bcd60e51b8152602060048201526009602482015268496e76616c6964206b60b81b6044820152606490fd5b60405162461bcd60e51b815260206004820152600d60248201526c496e76616c696420707269636560981b6044820152606490fd5b90600019818309818302918280831092039180830392146124ae5768327cb2734119d3b7a9601e1b9082821115612471577f7d33c22789773a07feda8b6f0930e26fa397c439f1d5cf4b2eb27d7306d2dc99940990828211900360e21b9103601e1c170290565b60405162461bcd60e51b81526020600482015260156024820152744d6174683a206d756c446976206f766572666c6f7760581b6044820152606490fd5b505068327cb2734119d3b7a9601e1b9004919050565b9060001981830981830291828083109203918083039214612521576127109082821115612471577fbc01a36e2eb1c432ca57a786c226809d495182a9930be0ded288ce703afb7e91940990828211900360fc1b910360041c170290565b505061271091500490565b9068327cb2734119d3b7a9601e1b9060001982840992828102928380861095039480860395146125b05784831115612471578291096001821901821680920460028082600302188083028203028083028203028083028203028083028203028083028203028092029003029360018380600003040190848311900302920304170290565b5050906125bd9250612356565b90565b906127109060001982840992828102928380861095039480860395146125b05784831115612471578291096001821901821680920460028082600302188083028203028083028203028083028203028083028203028083028203028092029003029360018380600003040190848311900302920304170290565b9160001982840992828102928380861095039480860395146125b05784831115612471578291096001821901821680920460028082600302188083028203028083028203028083028203028083028203028083028203028092029003029360018380600003040190848311900302920304170290565b80156127ed5761277b816000908360801c806127e1575b508060401c806127d4575b508060201c806127c7575b508060101c806127ba575b508060081c806127ad575b508060041c806127a0575b508060021c80612793575b50600191828092811c61278c575b1c1b6127238185612356565b01811c6127308185612356565b01811c61273d8185612356565b01811c61274a8185612356565b01811c6127578185612356565b01811c6127648185612356565b01811c6127718185612356565b01901c8092612356565b80821015612787575090565b905090565b0181612717565b6002915091019038612709565b60049150910190386126fe565b60089150910190386126f3565b60109150910190386126e8565b60209150910190386126dd565b60409150910190386126d2565b915050608090386126c7565b50600090565b9091811561285c5782151580612853575b1561281c57612816826125bd946117f8565b9161263a565b60405162461bcd60e51b815260206004820152600f60248201526e496e76616c6964207265736572766560881b6044820152606490fd5b50801515612804565b60405162461bcd60e51b815260206004820152600e60248201526d125b9d985b1a5908185b5bdd5b9d60921b6044820152606490fd5b90939260006128a2821515611697565b60015460408051632f7ce47360e21b815260048082018890529198926001600160a01b03929060e0908390602490829087165afa918215612c79578592612c59575b50898201926128f78185511615156116d4565b80845116865260209360078552818c88209916988988528552878c88205410612c1f5791818a999897959360c09d979593600254169d8e60248a519e8f928391632500ed8d60e21b8352888301525afa9b8c15612c1557879c612bf5575b50612960898c612fd3565b9e909c8d61297382518984015190611799565b10612bb2578f908060608c61298d93015191015190611799565b10612b6f57803b15612b4457878f6129be928f8f84908e5196879586948593631a8c15b360e21b85528d8501611944565b03925af18015612b3a57612b5c575b5081815116803b15612b4457876129fb81928c8c51948580948193632770a7eb60e21b8352308c8401611571565b03925af18015612b3a57908891612b48575b5050818151168752600785528787208a600052855281612a318a8a60002054611799565b9151168752600785528787208a600052855287600020558060025416938184511694803b15612b4457878d612a7e9289838d51809681958294630d172a0160e01b9e8f85528d8501612142565b03925af18015612b3a57908891612b26575b505081600254169301511692823b1561084157908580949392612abf8f8a519889978896879586528501612142565b03925af18015612b1c57612b08575b5050517f0c7095efab4844307a2d270e6feda743289e3f8bd8a4fa71bc0006ef39bb7793918190612b0190898884611944565b0390a39190565b612b128291611494565b6101405780612ace565b83513d84823e3d90fd5b612b2f90611494565b6105a6578638612a90565b89513d8a823e3d90fd5b8780fd5b612b5190611494565b6105a6578638612a0d565b612b6890979197611494565b95386129cd565b885162461bcd60e51b8152808501879052601f60248201527f696e73756666696369656e7420737461626c65546f6b656e20616d6f756e74006044820152606490fd5b895162461bcd60e51b8152808601889052601e60248201527f696e73756666696369656e7420696e646578546f6b656e20616d6f756e7400006044820152606490fd5b612c0e919c5060c03d8111610e7757610e6881836114f3565b9a38612955565b88513d89823e3d90fd5b8b5162461bcd60e51b81528084018690526014602482015273696e73756666696369656e742062616c616e636560601b6044820152606490fd5b612c7291925060e03d81116104665761045781836114f3565b90386128e4565b8a513d87823e3d90fd5b90602460018060a01b0380600154169360e0604095865194858092632f7ce47360e21b82528560048301525afa928315612dc357600093612dce575b5060c08260025416916024875180948193632500ed8d60e21b835260048301525afa8015612dc357612d1491600091612da5575b5085612d0b612d04858751166132e1565b835161240a565b910151906117f8565b918215612d915784015184516318160ddd60e01b81529160209183916004918391165afa938415612d875750600093612d54575b50916125bd919261252c565b6020813d8211612d7f575b81612d6c602093836114f3565b810103126105f3575192506125bd612d48565b3d9150612d5f565b513d6000823e3d90fd5b5068327cb2734119d3b7a9601e1b93505050565b612dbd915060c03d8111610e7757610e6881836114f3565b38612cf3565b85513d6000823e3d90fd5b612de791935060e03d81116104665761045781836114f3565b9138612cbf565b60405190612dfb826114d8565b60218252606160f81b6040837f6765744d696e744c70416d6f756e7420696e6465784465706f73697444656c7460208201520152565b60405190612e3e826114bd565b60198252786765744d696e744c70416d6f756e7420736c697044656c746160381b6020830152565b60405190612e73826114d8565b6027825266656e44656c746160c81b6040837f6765744465706f736974416d6f756e74206465706f736974496e646578546f6b60208201520152565b60405190612ebc826114bd565b60178252766465706f736974537461626c65546f6b656e44656c746160481b6020830152565b60405190612eef826114d8565b60238252621d5b9d60ea1b6040837f6765744465706f736974416d6f756e74206465706f736974496e646578416d6f60208201520152565b60405190612f34826114bd565b601382527219195c1bdcda5d14dd18589b19505b5bdd5b9d606a1b6020830152565b60405190612f63826114d8565b60288252676b656e44656c746160c01b6040837f6765745265636569766564416d6f756e742072656365697665496e646578546f60208201520152565b60405190612fad826114bd565b601782527672656365697665537461626c65546f6b656e44656c746160481b6020830152565b9190612fe0811515611697565b60015460408051632f7ce47360e21b8152600481018690529092916001600160a01b039060e0908390602490829085165afa9182156132d65790602492916000926132b6575b5061303781868401511615156116d4565b60c08160025416865194858092632500ed8d60e21b82528b60048301525afa928315612dc35760009361328e575b50613075613099918351166132e1565b936130818515156117bc565b6110198661309087875161240a565b95015198612c83565b916130d88386516130a9816114bd565b601e81527f6765745265636569766564416d6f756e74207265636569766544656c74610000602082015261335b565b6130f660a06130eb85610aef8b866117f8565b9301928351906124c4565b9161310584610aef8a856117f8565b90516127109081039081116117a65761311d916124c4565b61316981875161312c816114d8565b602281527f6765745265636569766564416d6f756e7420657870656374496e64657844656c602082015261746160f01b89820152856109f2611831565b6000908198848411600014613246575050509061318591611799565b81811061322a57506131ac6123a09286925b611137846131a3612f56565b836109f2612fa0565b92838151916131ba836114d8565b602983527f6765745265636569766564416d6f756e742072656365697665496e646578546f6020840152681ad95b905b5bdd5b9d60ba1b818401525191613200836114bd565b60188352771c9958d95a5d9954dd18589b19551bdad95b905b5bdd5b9d60421b60208401526133b3565b6123a092955061323e816131ac9293611799565b958692613197565b90919493506123a095985061325b9250611799565b81811061327657506131ac90958692611137846131a3612f56565b9150613285826131ac92611799565b91958692613197565b6130999193506132ae6130759160c03d8111610e7757610e6881836114f3565b939150613065565b6132cf91925060e03d81116104665761045781836114f3565b9038613026565b84513d6000823e3d90fd5b6003546040516341976e0960e01b81526001600160a01b0392831660048201529160209183916024918391165afa90811561334f57600091613321575090565b906020823d8211613347575b8161333a602093836114f3565b8101031261014057505190565b3d915061332d565b6040513d6000823e3d90fd5b6000919082916133a0604051809261338c6020830195632d839cb360e21b8752604060248501526064840190612316565b90604483015203601f1981018352826114f3565b51906a636f6e736f6c652e6c6f675afa50565b906133a06000949385946134006040519485936133e9602086019863c67ea9d160e01b8a526080602488015260a4870190612316565b916044860152602319858303016064860152612316565b90608483015203601f1981018352826114f356fea2646970667358221220cdb03fcbca06cd8cea5cae90e2a562471c1bfbb57bab80b5c8f556e33843cd7e64736f6c63430008110033",
  "devdoc": {
    "kind": "dev",
    "methods": {},
    "version": 1
  },
  "userdoc": {
    "kind": "user",
    "methods": {},
    "version": 1
  },
  "storageLayout": {
    "storage": [
      {
        "astId": 6539,
        "contract": "contracts/pair/PairLiquidity.sol:PairLiquidity",
        "label": "isHandler",
        "offset": 0,
        "slot": "0",
        "type": "t_mapping(t_address,t_bool)"
      },
      {
        "astId": 8817,
        "contract": "contracts/pair/PairLiquidity.sol:PairLiquidity",
        "label": "pairInfo",
        "offset": 0,
        "slot": "1",
        "type": "t_contract(IPairInfo)11580"
      },
      {
        "astId": 8820,
        "contract": "contracts/pair/PairLiquidity.sol:PairLiquidity",
        "label": "pairVault",
        "offset": 0,
        "slot": "2",
        "type": "t_contract(IPairVault)11675"
      },
      {
        "astId": 8823,
        "contract": "contracts/pair/PairLiquidity.sol:PairLiquidity",
        "label": "vaultPriceFeed",
        "offset": 0,
        "slot": "3",
        "type": "t_contract(IOraclePriceFeed)5810"
      },
      {
        "astId": 8825,
        "contract": "contracts/pair/PairLiquidity.sol:PairLiquidity",
        "label": "feeReceiver",
        "offset": 0,
        "slot": "4",
        "type": "t_address"
      },
      {
        "astId": 8827,
        "contract": "contracts/pair/PairLiquidity.sol:PairLiquidity",
        "label": "slipReceiver",
        "offset": 0,
        "slot": "5",
        "type": "t_address"
      },
      {
        "astId": 8829,
        "contract": "contracts/pair/PairLiquidity.sol:PairLiquidity",
        "label": "weth",
        "offset": 0,
        "slot": "6",
        "type": "t_address"
      },
      {
        "astId": 8835,
        "contract": "contracts/pair/PairLiquidity.sol:PairLiquidity",
        "label": "userPairTokens",
        "offset": 0,
        "slot": "7",
        "type": "t_mapping(t_address,t_mapping(t_address,t_uint256))"
      }
    ],
    "types": {
      "t_address": {
        "encoding": "inplace",
        "label": "address",
        "numberOfBytes": "20"
      },
      "t_bool": {
        "encoding": "inplace",
        "label": "bool",
        "numberOfBytes": "1"
      },
      "t_contract(IPairInfo)11580": {
        "encoding": "inplace",
        "label": "contract IPairInfo",
        "numberOfBytes": "20"
      },
      "t_contract(IPairVault)11675": {
        "encoding": "inplace",
        "label": "contract IPairVault",
        "numberOfBytes": "20"
      },
      "t_contract(IOraclePriceFeed)5810": {
        "encoding": "inplace",
        "label": "contract IOraclePriceFeed",
        "numberOfBytes": "20"
      },
      "t_mapping(t_address,t_bool)": {
        "encoding": "mapping",
        "key": "t_address",
        "label": "mapping(address => bool)",
        "numberOfBytes": "32",
        "value": "t_bool"
      },
      "t_mapping(t_address,t_mapping(t_address,t_uint256))": {
        "encoding": "mapping",
        "key": "t_address",
        "label": "mapping(address => mapping(address => uint256))",
        "numberOfBytes": "32",
        "value": "t_mapping(t_address,t_uint256)"
      },
      "t_mapping(t_address,t_uint256)": {
        "encoding": "mapping",
        "key": "t_address",
        "label": "mapping(address => uint256)",
        "numberOfBytes": "32",
        "value": "t_uint256"
      },
      "t_uint256": {
        "encoding": "inplace",
        "label": "uint256",
        "numberOfBytes": "32"
      }
    }
  }
}