{
  "address": "0xc3e53F4d16Ae77Db1c982e75a937B9f60FE63690",
  "abi": [
    {
      "inputs": [
        {
          "internalType": "contract IAddressesProvider",
          "name": "addressProvider",
          "type": "address"
        },
        {
          "internalType": "contract IPairInfo",
          "name": "_pairInfo",
          "type": "address"
        },
        {
          "internalType": "contract IPairVault",
          "name": "_pairVault",
          "type": "address"
        },
        {
          "internalType": "contract ITradingVault",
          "name": "_tradingVault",
          "type": "address"
        },
        {
          "internalType": "contract IVaultPriceFeed",
          "name": "_vaultPriceFeed",
          "type": "address"
        },
        {
          "internalType": "contract IIndexPriceFeed",
          "name": "_fastPriceFeed",
          "type": "address"
        },
        {
          "internalType": "uint256",
          "name": "_maxTimeDelay",
          "type": "uint256"
        },
        {
          "internalType": "contract IOrderManager",
          "name": "_orderManager",
          "type": "address"
        }
      ],
      "stateMutability": "nonpayable",
      "type": "constructor"
    },
    {
      "anonymous": false,
      "inputs": [
        {
          "indexed": false,
          "internalType": "address",
          "name": "account",
          "type": "address"
        },
        {
          "indexed": false,
          "internalType": "uint256",
          "name": "orderId",
          "type": "uint256"
        },
        {
          "indexed": false,
          "internalType": "uint256",
          "name": "pairIndex",
          "type": "uint256"
        },
        {
          "indexed": false,
          "internalType": "enum TradingTypes.TradeType",
          "name": "tradeType",
          "type": "uint8"
        },
        {
          "indexed": false,
          "internalType": "bool",
          "name": "isLong",
          "type": "bool"
        },
        {
          "indexed": false,
          "internalType": "uint256",
          "name": "sizeAmount",
          "type": "uint256"
        },
        {
          "indexed": false,
          "internalType": "uint256",
          "name": "price",
          "type": "uint256"
        },
        {
          "indexed": false,
          "internalType": "int256",
          "name": "pnl",
          "type": "int256"
        },
        {
          "indexed": false,
          "internalType": "bool",
          "name": "needADL",
          "type": "bool"
        },
        {
          "indexed": false,
          "internalType": "uint256",
          "name": "tradingFee",
          "type": "uint256"
        },
        {
          "indexed": false,
          "internalType": "int256",
          "name": "fundingFee",
          "type": "int256"
        }
      ],
      "name": "ExecuteDecreaseOrder",
      "type": "event"
    },
    {
      "anonymous": false,
      "inputs": [
        {
          "indexed": false,
          "internalType": "address",
          "name": "account",
          "type": "address"
        },
        {
          "indexed": false,
          "internalType": "uint256",
          "name": "orderId",
          "type": "uint256"
        },
        {
          "indexed": false,
          "internalType": "uint256",
          "name": "pairIndex",
          "type": "uint256"
        },
        {
          "indexed": false,
          "internalType": "enum TradingTypes.TradeType",
          "name": "tradeType",
          "type": "uint8"
        },
        {
          "indexed": false,
          "internalType": "int256",
          "name": "collateral",
          "type": "int256"
        },
        {
          "indexed": false,
          "internalType": "bool",
          "name": "isLong",
          "type": "bool"
        },
        {
          "indexed": false,
          "internalType": "uint256",
          "name": "sizeAmount",
          "type": "uint256"
        },
        {
          "indexed": false,
          "internalType": "uint256",
          "name": "price",
          "type": "uint256"
        },
        {
          "indexed": false,
          "internalType": "uint256",
          "name": "tradingFee",
          "type": "uint256"
        },
        {
          "indexed": false,
          "internalType": "int256",
          "name": "fundingFee",
          "type": "int256"
        }
      ],
      "name": "ExecuteIncreaseOrder",
      "type": "event"
    },
    {
      "anonymous": false,
      "inputs": [
        {
          "indexed": false,
          "internalType": "bytes32",
          "name": "positionKey",
          "type": "bytes32"
        },
        {
          "indexed": false,
          "internalType": "address",
          "name": "account",
          "type": "address"
        },
        {
          "indexed": false,
          "internalType": "uint256",
          "name": "pairIndex",
          "type": "uint256"
        },
        {
          "indexed": false,
          "internalType": "bool",
          "name": "isLong",
          "type": "bool"
        },
        {
          "indexed": false,
          "internalType": "uint256",
          "name": "sizeAmount",
          "type": "uint256"
        },
        {
          "indexed": false,
          "internalType": "uint256",
          "name": "collateral",
          "type": "uint256"
        },
        {
          "indexed": false,
          "internalType": "uint256",
          "name": "price",
          "type": "uint256"
        },
        {
          "indexed": false,
          "internalType": "uint256",
          "name": "orderId",
          "type": "uint256"
        }
      ],
      "name": "LiquidatePosition",
      "type": "event"
    },
    {
      "anonymous": false,
      "inputs": [
        {
          "indexed": false,
          "internalType": "uint256",
          "name": "oldDelay",
          "type": "uint256"
        },
        {
          "indexed": false,
          "internalType": "uint256",
          "name": "newDelay",
          "type": "uint256"
        }
      ],
      "name": "UpdateMaxTimeDelay",
      "type": "event"
    },
    {
      "inputs": [],
      "name": "ADDRESS_PROVIDER",
      "outputs": [
        {
          "internalType": "contract IAddressesProvider",
          "name": "",
          "type": "address"
        }
      ],
      "stateMutability": "view",
      "type": "function"
    },
    {
      "inputs": [
        {
          "internalType": "bytes32[]",
          "name": "_positionKeys",
          "type": "bytes32[]"
        },
        {
          "internalType": "uint256[]",
          "name": "_sizeAmounts",
          "type": "uint256[]"
        },
        {
          "internalType": "uint256",
          "name": "_orderId",
          "type": "uint256"
        },
        {
          "internalType": "enum TradingTypes.TradeType",
          "name": "_tradeType",
          "type": "uint8"
        }
      ],
      "name": "executeADLAndDecreaseOrder",
      "outputs": [],
      "stateMutability": "nonpayable",
      "type": "function"
    },
    {
      "inputs": [
        {
          "internalType": "uint256",
          "name": "_orderId",
          "type": "uint256"
        },
        {
          "internalType": "enum TradingTypes.TradeType",
          "name": "_tradeType",
          "type": "uint8"
        }
      ],
      "name": "executeDecreaseOrder",
      "outputs": [],
      "stateMutability": "nonpayable",
      "type": "function"
    },
    {
      "inputs": [
        {
          "internalType": "uint256",
          "name": "_orderId",
          "type": "uint256"
        },
        {
          "internalType": "enum TradingTypes.TradeType",
          "name": "_tradeType",
          "type": "uint8"
        }
      ],
      "name": "executeIncreaseOrder",
      "outputs": [],
      "stateMutability": "nonpayable",
      "type": "function"
    },
    {
      "inputs": [],
      "name": "fastPriceFeed",
      "outputs": [
        {
          "internalType": "contract IIndexPriceFeed",
          "name": "",
          "type": "address"
        }
      ],
      "stateMutability": "view",
      "type": "function"
    },
    {
      "inputs": [
        {
          "internalType": "uint256",
          "name": "_pairIndex",
          "type": "uint256"
        },
        {
          "internalType": "bool",
          "name": "_isLong",
          "type": "bool"
        }
      ],
      "name": "getValidPrice",
      "outputs": [
        {
          "internalType": "uint256",
          "name": "",
          "type": "uint256"
        }
      ],
      "stateMutability": "view",
      "type": "function"
    },
    {
      "inputs": [
        {
          "internalType": "bytes32[]",
          "name": "_positionKeys",
          "type": "bytes32[]"
        }
      ],
      "name": "liquidatePositions",
      "outputs": [],
      "stateMutability": "nonpayable",
      "type": "function"
    },
    {
      "inputs": [],
      "name": "maxTimeDelay",
      "outputs": [
        {
          "internalType": "uint256",
          "name": "",
          "type": "uint256"
        }
      ],
      "stateMutability": "view",
      "type": "function"
    },
    {
      "inputs": [],
      "name": "orderManager",
      "outputs": [
        {
          "internalType": "contract IOrderManager",
          "name": "",
          "type": "address"
        }
      ],
      "stateMutability": "view",
      "type": "function"
    },
    {
      "inputs": [],
      "name": "pairInfo",
      "outputs": [
        {
          "internalType": "contract IPairInfo",
          "name": "",
          "type": "address"
        }
      ],
      "stateMutability": "view",
      "type": "function"
    },
    {
      "inputs": [],
      "name": "pairVault",
      "outputs": [
        {
          "internalType": "contract IPairVault",
          "name": "",
          "type": "address"
        }
      ],
      "stateMutability": "view",
      "type": "function"
    },
    {
      "inputs": [
        {
          "internalType": "address[]",
          "name": "_tokens",
          "type": "address[]"
        },
        {
          "internalType": "uint256[]",
          "name": "_prices",
          "type": "uint256[]"
        },
        {
          "internalType": "uint256",
          "name": "_timestamp",
          "type": "uint256"
        },
        {
          "internalType": "bytes32[]",
          "name": "_positionKeys",
          "type": "bytes32[]"
        }
      ],
      "name": "setPricesAndLiquidatePositions",
      "outputs": [],
      "stateMutability": "nonpayable",
      "type": "function"
    },
    {
      "inputs": [],
      "name": "tradingVault",
      "outputs": [
        {
          "internalType": "contract ITradingVault",
          "name": "",
          "type": "address"
        }
      ],
      "stateMutability": "view",
      "type": "function"
    },
    {
      "inputs": [
        {
          "internalType": "uint256",
          "name": "newMaxTimeDelay",
          "type": "uint256"
        }
      ],
      "name": "updateMaxTimeDelay",
      "outputs": [],
      "stateMutability": "nonpayable",
      "type": "function"
    },
    {
      "inputs": [],
      "name": "vaultPriceFeed",
      "outputs": [
        {
          "internalType": "contract IVaultPriceFeed",
          "name": "",
          "type": "address"
        }
      ],
      "stateMutability": "view",
      "type": "function"
    }
  ],
  "transactionHash": "0xcbf87af1e3ae6ab3b3c8508a2daac4167c5db04be284e353ac1632772aeec0c7",
  "args": [
    "0x5FbDB2315678afecb367f032d93F642f64180aa3",
    "0x7a2088a1bFc9d81c55368AE168C2C02570cB814F",
    "0x09635F643e140090A9A8Dcd712eD6285858ceBef",
    "0x67d269191c92Caf3cD7723F116c85e6E9bf55933",
    "0xB7f8BC63BbcaD18155201308C8f3540b07f84F5e",
    "0x959922bE3CAee4b8Cd9a407cc3ac1C251C2007B1",
    60,
    "0xE6E340D132b5f46d1e472DebcD681B2aBc16e57E"
  ],
  "numDeployments": 1,
  "solcInputHash": "7ffdb31c29fa9e1742f2f49b0ad25c4b",
  "bytecode": "0x60a0346200014c57601f62005dbd38819003918201601f19168301916001600160401b038311848410176200015157808492610100946040528339810103126200014c5780516001600160a01b039182821682036200014c576020810151918383168093036200014c5760408201518481168091036200014c576060830151908582168092036200014c576080840151938685168095036200014c5760a0810151938785168095036200014c5760e060c08301519201519788168098036200014c57600160005560805260015560018060a01b0319948560025416176002558460035416176003558360045416176004558260055416176005558160065416176006556007541617600755604051615c55908162000168823960805181818160f90152818161031e01528181610662015281816107b801528181610f030152818161104201526111e60152f35b600080fd5b634e487b7160e01b600052604160045260246000fdfe6080604052600436101561001257600080fd5b6000803560e01c8063094ae065146112155780631848effa146111d05780633a849c21146111a7578063a31a7b441461117e578063be39f3aa1461100d578063c04c0f5814610ea9578063cb0269c914610e8b578063da9d857b14610743578063e70da1b51461062a578063eeaa783a14610601578063f1bd27a8146105d8578063f2ac5dfe14610254578063f9b6117f1461022b578063fc2a5b1d146102025763fdc860f0146100c257600080fd5b346101ff576100d036611397565b6100d8612952565b6040516351331ad760e01b8152602092906001600160a01b039084816004817f000000000000000000000000000000000000000000000000000000000000000086165afa80156101f457859187916101ba575b506024604051809481936335d2155560e11b8352336004840152165afa9384156101af578594610170575b5050610164610169936113d7565b6142f4565b6001815580f35b90809450813d83116101a8575b61018781836112fc565b810103126101a45761016461019e610169946113ca565b93610156565b8380fd5b503d61017d565b6040513d87823e3d90fd5b82819392503d83116101ed575b6101d181836112fc565b810103126101e9576101e385916113b6565b3861012b565b8580fd5b503d6101c7565b6040513d88823e3d90fd5b80fd5b50346101ff57806003193601126101ff576002546040516001600160a01b039091168152602090f35b50346101ff57806003193601126101ff576007546040516001600160a01b039091168152602090f35b50346101ff57600319906080368301126101ff57600435916001600160401b038084116104d957366023850112156104d9578360040135916102958361131d565b6102a260405191826112fc565b83815260209283820196876024809760051b83010191368311610535578701905b8282106105b55750505084358181116105b1576102e4903690600401611334565b906064359081116105b1576102fd903690600401611334565b6040516351331ad760e01b815290976001600160a01b0394909186816004817f00000000000000000000000000000000000000000000000000000000000000008a165afa90811561056f57869188918b9161057a575b5089604051809481936335d2155560e11b8352336004840152165afa801561056f578990610539575b61038691506113d7565b6103d6604051610395816112e1565b602881527f736574507269636573416e644c6971756964617465506f736974696f6e73207488820152670696d657374616d760c41b60408201524290615ab2565b846005541693843b1561053557929091889492604051968795631e09986f60e21b87526064870190606060048901525180915260848701939188905b8b8383106105155750505050508482030188850152868083519283815201920190855b888282106104fb575050505083838092604435604483015203925af180156104f0576104dd575b50303b156104d9576040519163180981eb60e31b8352820181600484015284518091528160448401950191845b8281106104c5578580868181808c038183305af180156104ba576104aa5750f35b6104b390611298565b6101ff5780f35b6040513d84823e3d90fd5b835187529581019592810192600101610489565b8280fd5b6104e990939193611298565b913861045c565b6040513d86823e3d90fd5b835185528b97508896509384019390920191600101610435565b8451821687528e9a508b9950958601959390930192600190910190610412565b8880fd5b508681813d8311610568575b61054f81836112fc565b8101031261053557610563610386916113ca565b61037c565b503d610545565b6040513d8b823e3d90fd5b92505081813d83116105aa575b61059181836112fc565b8101031261053557866105a487926113b6565b38610353565b503d610587565b8680fd5b81356001600160a01b03811681036105d45781529086019086016102c3565b8980fd5b50346101ff57806003193601126101ff576004546040516001600160a01b039091168152602090f35b50346101ff57806003193601126101ff576006546040516001600160a01b039091168152602090f35b50346101ff5761063936611397565b610641612952565b6040516351331ad760e01b8152602092906001600160a01b039084816004817f000000000000000000000000000000000000000000000000000000000000000086165afa80156101f4578591879161070d575b506024604051809481936335d2155560e11b8352336004840152165afa9384156101af5785946106d2575b50506106cd610169936113d7565b6119b0565b90809450813d8311610706575b6106e981836112fc565b810103126101a4576106cd610700610169946113ca565b936106bf565b503d6106df565b82819392503d831161073c575b61072481836112fc565b810103126101e95761073685916113b6565b38610694565b503d61071a565b50346101ff5760803660031901126101ff576001600160401b036004358181116104d957610775903690600401611334565b906024359081116104d95761078e903690600401611334565b6064359160048310156101a4576107a3612952565b6040516351331ad760e01b81526020816004817f00000000000000000000000000000000000000000000000000000000000000006001600160a01b03165afa9081156101af578591610e4c575b506040516335d2155560e11b815233600482015290602090829060249082906001600160a01b03165afa80156101af578590610e11575b61083191506113d7565b61086c604051610840816112c6565b601a81527932bc32b1baba32a0a22620b7322232b1b932b0b9b2a7b93232b960311b6020820152615a71565b8051825103610dd9576007546040516340b4605b60e11b815260443560048201529384916001600160a01b0316906108a890602484019061142b565b8160446101609687935afa9384156101af578594610daa575b505061014083015115610d775760018060a01b03600254166040840151604051906330a66e1560e01b8252600482015261010081602481855afa9081156101f4578691610d46575b5082519194926109188361131d565b9261092660405194856112fc565b808452610935601f199161131d565b01875b818110610ce957505060045487946001600160a01b039091169190855b8251871015610ab957610968878461329e565b519660405197636468402960e11b8952600489015261014088602481885afa978815610aae578b98610a7b575b506109a0818a61329e565b5160a089015110610a3a576109b5818a61329e565b516060870151106109fa576109d86109f4926109d1838c61329e565b519061144e565b976109e3828961329e565b526109ee818861329e565b5061328f565b95610955565b60405162461bcd60e51b8152602060048201526018602482015277195e18d959591cc81b585e081d1c98591948185b5bdd5b9d60421b6044820152606490fd5b60405162461bcd60e51b815260206004820152601960248201527820a2261039b4bd329032bc31b2b2b239903837b9b4ba34b7b760391b6044820152606490fd5b610aa09198506101403d61014011610aa7575b610a9881836112fc565b81019061162e565b9638610995565b503d610a8e565b6040513d8d823e3d90fd5b9088868b9360c084015103610c8f57839160e06040850151602460405180948193632f7ce47360e21b835260048301525afa8015610c8457610c55575b50610b0b604084015160e0850151159061572e565b90825b8151811015610c2657806020610bc3610b2887948661329e565b5160018060a01b03600754169060018060a01b03848201511690604081015190610b5c60a060608301511515920151611836565b9160405193610b6a8561127c565b84528684015287604084015287606084015289608084015260a083015260c08201528560e08201528561010082015285610120820152856101408201526040519586809481936302b9d03760e11b835260048301611928565b03925af19182156101af578592610bec575b50610be2610be7926132c8565b61328f565b610b0e565b91506020823d602011610c1e575b81610c07602093836112fc565b81010312610c1a57905190610be2610bd5565b8480fd5b3d9150610bfa565b8360608601516004811015610c4157610169906044356142f4565b634e487b7160e01b82526021600452602482fd5b610c769060e03d60e011610c7d575b610c6e81836112fc565b8101906114ad565b5084610af6565b503d610c64565b6040513d85823e3d90fd5b60405162461bcd60e51b815260206004820152602c60248201527f41444c20706f736974696f6e20616d6f756e74206e6f74206d6174636820646560448201526b31b932b0b9b29037b93232b960a11b6064820152608490fd5b60209060409893969851610cfc8161124a565b8a81528a838201528a60408201528a60608201528a60808201528a60a08201528a60c08201528a60e08201528a6101008201528a6101208201528282880101520196949196610938565b610d6a91506101003d61010011610d70575b610d6281836112fc565b810190611523565b38610909565b503d610d58565b60405162461bcd60e51b815260206004820152600b60248201526a1b9bc81b9959590810511360aa1b6044820152606490fd5b610dca929450803d10610dd2575b610dc281836112fc565b810190613136565b9138806108c1565b503d610db8565b60405162461bcd60e51b815260206004820152601060248201526f0d8cadccee8d040dcdee840dac2e8c6d60831b6044820152606490fd5b506020813d602011610e44575b81610e2b602093836112fc565b81010312610c1a57610e3f610831916113ca565b610827565b3d9150610e1e565b90506020813d602011610e83575b81610e67602093836112fc565b81010312610c1a576020610e7c6024926113b6565b91506107f0565b3d9150610e5a565b50346101ff57806003193601126101ff576020600154604051908152f35b50346101ff57602090816003193601126101ff576004356001600160401b038111610fcc57610edc903690600401611334565b91610ee5612952565b6040516351331ad760e01b81526001600160a01b03919081816004817f000000000000000000000000000000000000000000000000000000000000000087165afa9081156104f0579082918591610fd7575b506024604051809581936335d2155560e11b8352336004840152165afa908115610c84578391610f9c575b50610f6d91506113d7565b805b8251811015610f945780610be2610f89610f8f938661329e565b51615161565b610f6f565b506001815580f35b905081813d8311610fd0575b610fb281836112fc565b81010312610fcc57610fc6610f6d916113ca565b38610f62565b5080fd5b503d610fa8565b82819392503d8311611006575b610fee81836112fc565b810103126101a45761100082916113b6565b38610f37565b503d610fe4565b50346101ff57602080600319360112610fcc576040516351331ad760e01b815260048035916001600160a01b039184908290817f000000000000000000000000000000000000000000000000000000000000000086165afa80156101af5784918691611148575b50602460405180948193637be53ca160e01b8352336004840152165afa9081156104f0578491611113575b50156110de577fc4f93ed7d82b431d36b3c7670e42f8d5d8f19375008e1ab63c1f63c52e5c3f349160409160015491816001558351928352820152a180f35b60405162461bcd60e51b815260048101839052600d60248201526c37b7363ca837b7b620b236b4b760991b6044820152606490fd5b90508281813d8311611141575b61112a81836112fc565b810103126101a45761113b906113ca565b3861109f565b503d611120565b82819392503d8311611177575b61115f81836112fc565b81010312610c1a5761117184916113b6565b38611074565b503d611155565b50346101ff57806003193601126101ff576003546040516001600160a01b039091168152602090f35b50346101ff57806003193601126101ff576005546040516001600160a01b039091168152602090f35b50346101ff57806003193601126101ff576040517f00000000000000000000000000000000000000000000000000000000000000006001600160a01b03168152602090f35b50346101ff5760403660031901126101ff576024359081151582036101ff5760206112428360043561572e565b604051908152f35b61014081019081106001600160401b0382111761126657604052565b634e487b7160e01b600052604160045260246000fd5b61016081019081106001600160401b0382111761126657604052565b6001600160401b03811161126657604052565b60e081019081106001600160401b0382111761126657604052565b604081019081106001600160401b0382111761126657604052565b606081019081106001600160401b0382111761126657604052565b90601f801991011681019081106001600160401b0382111761126657604052565b6001600160401b0381116112665760051b60200190565b81601f820112156113925780359161134b8361131d565b9261135960405194856112fc565b808452602092838086019260051b820101928311611392578301905b828210611383575050505090565b81358152908301908301611375565b600080fd5b6040906003190112611392576004359060243560048110156113925790565b51906001600160a01b038216820361139257565b5190811515820361139257565b156113de57565b60405162461bcd60e51b815260206004820152600a60248201526937b7363ca5b2b2b832b960b11b6044820152606490fd5b6001600160401b03811161126657601f01601f191660200190565b9060048210156114385752565b634e487b7160e01b600052602160045260246000fd5b9190820180921161145b57565b634e487b7160e01b600052601160045260246000fd5b1561147857565b60405162461bcd60e51b815260206004820152600d60248201526c1bdc99195c88195e1c1a5c9959609a1b6044820152606490fd5b908160e09103126113925760c0604051916114c7836112ab565b6114d0816113b6565b83526114de602082016113b6565b60208401526114ef604082016113b6565b6040840152611500606082016113ca565b60608401526080810151608084015260a081015160a0840152015160c082015290565b8091610100928391031261139257604051918201908282106001600160401b038311176112665760e091604052805183526020810151602084015260408101516040840152606081015160608401526080810151608084015260a081015160a084015260c081015160c0840152015160e082015290565b156115a157565b60405162461bcd60e51b8152602060048201526012602482015271696e76616c69642074726164652073697a6560701b6044820152606490fd5b156115e257565b60405162461bcd60e51b81526020600482015260176024820152766e6f74207265616368207472696767657220707269636560481b6044820152606490fd5b9190820391821161145b57565b908161014091031261139257604051906116478261124a565b80518252611657602082016113b6565b602083015260408101516040830152611672606082016113ca565b60608301526080810151608083015260a081015160a083015260c081015160c083015260e081015160e08301526101008082015190830152610120809101519082015290565b6001600160a01b0390911681526020810191909152901515604082015260600190565b604051906116e8826112c6565b600982526873697a6544656c746160b81b6020830152565b908160c0910312611392576040519060c08201908282106001600160401b038311176112665760a0916040528051835260208101516020840152604081015160408401526060810151606084015260808101516080840152015160a082015290565b6040519061176f826112e1565b602482526361626c6560e01b6040837f65786563757465496e6372656173654f7264657220617661696c61626c65537460208201520152565b156117af57565b60405162461bcd60e51b815260206004820152601a6024820152790d8e040e6e8c2c4d8ca40e8ded6cadc40dcdee840cadcdeeaced60331b6044820152606490fd5b604051906117fe826112e1565b60238252620c8caf60eb1b6040837f65786563757465496e6372656173654f7264657220617661696c61626c65496e60208201520152565b600160ff1b811461145b5760000390565b1561184e57565b60405162461bcd60e51b81526020600482015260196024820152780d8e040d2dcc8caf040e8ded6cadc40dcdee840cadcdeeaced603b1b6044820152606490fd5b9260a094919796959260c0850198600180881b03168552602085015260408401526060830152151560808201520152565b60048210156114385752565b91909160c08060e083019460018060a01b038151168452602081015160208501526040810151151560408501526060810151151560608501526119176080820151608086019061142b565b60a081015160a08501520151910152565b81516001600160a01b0316815260208083015190820152604080830151610160830194939161195a919084019061142b565b606081015160608301526080810151608083015260a0810151151560a083015260c081015160c083015260e081015160e08301526101008082015190830152610120808201519083015261014080910151910152565b6000906004831015610c4157611a226040516119cb816112e1565b603781527f65786563757465496e6372656173654f72646572206163636f756e74202573206020820152766f7264657249642025732074726164655479706520257360481b60408201528260ff8616913390615ba3565b60075460405163f9d244fd60e01b815260048101839052916001600160a01b0390911690611a53602484018661142b565b6101a08084604481865afa9384156101af57859461285b575b505060208301516001600160a01b0316156128155784156127f3575b6040838101516002549151632f7ce47360e21b8152600481018290529094916001600160a01b031660e082602481845afa9182156127e85787926127c7575b5060608201511561278757600480546020858101516040516372c1cc1b60e11b81526001600160a01b039182169481019490945290911692919081602481865afa90811561056f57899161274d575b5061271457610100602491604051928380926330a66e1560e01b82528b60048301525afa9081156124185788916126f3575b50611b6160e085015180159081156126cd575b5061159a565b611b7160c085015115158861572e565b9560608501516004811015612633571580156126b6575b156126875760c08501511561265b5760c0820151612710808281031161264757611bc391611bb7910389612f09565b60a087015110156115db565b60608501516004811015612633576001146125f4575b602085015160408087015160c0880151915163bc95baad60e01b815294926101409286928392611c1992151591906001600160a01b0316600485016116b8565b0381875afa928315612586578a936125cd575b50611cac90611c8c611c428a60e08a0151612fae565b60e089015160405190611c54826112c6565b601f82527f65786563757465496e6372656173654f726465722073697a65416d6f756e74006020830152611c866116db565b91615b42565b60808701519060e088015181519060806020840151930151938c88612c28565b501561259157610120850151158015612511575b156124d8576101608501511591821561245c575b50501561242357600354604051632500ed8d60e21b8152600481018890529060c090829060249082906001600160a01b03165afa9081156124185788916123e9575b506040840151604051906301fd38f760e01b82526004820152602081602481865afa90811561056f5789916123b7575b50611da7611d5382612be2565b604051611d5f816112e1565b603081527f65786563757465496e6372656173654f72646572207072654e65744578706f7360208201526f3ab932a0b6b7bab73a21b432b1b5b2b960811b6040820152615ab2565b88811261233d5760c0850151156122f55750611dcd816020611dea935191015190611621565b611dde81611dd96117f1565b615ab2565b60e08501511115611847565b6080830151908782136122cd575b50505060018060a01b036004541693604060018060a01b0360208401511695608084015190838960e087015199611e4c8a60c08a0151151588519d8e98899788966370bf730b60e11b88526004880161188f565b03925af19586156122c15780958197612286575b506007546020840151604085015160c086015160608701516001600160a01b03948516949093169290151560048210156122725790611ec89160e08901519360405195611eac876112ab565b86526020860152604085015260016060850152608084016118c0565b8660a083015260c0820152813b156104d957611efd83928392604051948580948193632670e98d60e01b8352600483016118cc565b03925af180156104ba57612263575b508061012084015180612180575b506101608401518061209d575b50508761200d576007546001600160a01b0316803b15610fcc57818091602460405180948193633e5005e560e01b83528a60048401525af180156104ba57611ff9575b5050916101409593917f462ad18c79032b6336d456416b46e1012c8ed1c03cd3ff073957ae8834539e729795935b611fd660018060a01b036020840151169760808401519260e060c08601511515950151956040519a8b5260208b015260408a0152606089019061142b565b608087015260a086015260c085015260e0840152610100830152610120820152a1565b6120038291611298565b6101ff5780611f6a565b60018814612047575b50916101409593917f462ad18c79032b6336d456416b46e1012c8ed1c03cd3ff073957ae8834539e72979593611f98565b6007546001600160a01b0316803b15610fcc5781809160246040518094819363121494ed60e31b83528a60048401525af180156104ba57612089575b50612016565b6120938291611298565b6101ff5780612083565b600754602086810151604088015161014089015160c08a0151939561213f956001600160a01b0390811695941693151591906120d890611836565b92604051946120e68661127c565b85528785015260036040850152876060850152608084015260a083015260c08201528460e08201528461010082015284610120820152846101408201526040519485809481936302b9d03760e11b835260048301611928565b03925af180156104ba57612155575b8190611f27565b602090813d8311612179575b61216b81836112fc565b81010312611392573861214e565b503d612161565b600754602086810151604088015161010089015160c08a01519395612222956001600160a01b0390811695941693151591906121bb90611836565b92604051946121c98661127c565b85528785015260026040850152876060850152608084015260a083015260c08201528460e08201528461010082015284610120820152846101408201526040519485809481936302b9d03760e11b835260048301611928565b03925af180156104ba57612238575b8190611f1a565b602090813d831161225c575b61224e81836112fc565b810103126113925738612231565b503d612244565b61226c90611298565b38611f0c565b634e487b7160e01b86526021600452602486fd5b955095506040853d6040116122b9575b816122a3604093836112fc565b810103126101e957602085519501519538611e60565b3d9150612296565b604051903d90823e3d90fd5b6122e76122ed93602060018060a01b039101511692612be2565b916129a8565b388080611df8565b61233161230f836060604061233896015191015190611621565b9161231c83611dd9611762565b61232b8960e08901519461302b565b9061144e565b10156117a8565b611dea565b60c0850151156123845761237d61235e836020612338955191015190611621565b61236a81611dd96117f1565b61237860e088015193611836565b61144e565b1015611847565b5061239c816060604061233894015191015190611621565b6123a881611dd9611762565b6123318760e08701519261302b565b90506020813d6020116123e1575b816123d2602093836112fc565b81010312610535575138611d46565b3d91506123c5565b61240b915060c03d60c011612411575b61240381836112fc565b810190611700565b38611d16565b503d6123f9565b6040513d8a823e3d90fd5b60405162461bcd60e51b8152602060048201526011602482015270736c20616c72656164792065786973747360781b6044820152606490fd5b602091925051604460405180948193630bc628fb60e01b83526004830152600360248301525afa90811561241857889161249a575b50153880611cd4565b90506020813d6020116124d0575b816124b5602093836112fc565b810103126124cc576124c6906113ca565b38612491565b8780fd5b3d91506124a8565b60405162461bcd60e51b8152602060048201526011602482015270747020616c72656164792065786973747360781b6044820152606490fd5b50815160405190630bc628fb60e01b8252600482015260026024820152602081604481855afa908115612586578a9161254c575b5015611cc0565b90506020813d60201161257e575b81612567602093836112fc565b810103126105d457612578906113ca565b38612545565b3d915061255a565b6040513d8c823e3d90fd5b60405162461bcd60e51b81526020600482015260146024820152731e995c9bc81c1bdcda5d1a5bdb88185b5bdd5b9d60621b6044820152606490fd5b611cac9193506125ed906101403d61014011610aa757610a9881836112fc565b9290611c2c565b60c08501519096901561261e5760a0850151908082101561261757505b95611bd9565b9050612611565b60a08501519080821115612617575095611bd9565b634e487b7160e01b8a52602160045260248afd5b634e487b7160e01b8b52601160045260248bfd5b60c0820151612710818101811161264757611bc39161267b910189612f09565b60a087015111156115db565b60c0850151156126a6576126a160a08601518810156115db565b611bc3565b6126a160a08601518811156115db565b506060850151600481101561263357600114611b88565b60408401518110159150816126e4575b5038611b5b565b905060608301511015386126dd565b61270e91506101003d61010011610d7057610d6281836112fc565b38611b48565b60405162461bcd60e51b815260206004820152601160248201527030b1b1b7bab73a1034b990333937bd32b760791b6044820152606490fd5b90506020813d60201161277f575b81612768602093836112fc565b8101031261053557612779906113ca565b38611b16565b3d915061275b565b60405162461bcd60e51b81526020600482015260186024820152771d1c985919481c185a5c881b9bdd081cdd5c1c1bdc9d195960421b6044820152606490fd5b6127e191925060e03d60e011610c7d57610c6e81836112fc565b9038611ac7565b6040513d89823e3d90fd5b6128106128086101808501516001549061144e565b421115611471565b611a88565b92505050612859915060405161282a816112c6565b601f81527f65786563757465496e6372656173654f72646572206e6f7420657869737473006020820152615ab2565b565b908092945081813d831161294b575b61287481836112fc565b81010312610c1a576040519182018281106001600160401b0382111761293757604052805182526128a7602082016113b6565b602083015260408101516040830152606081015160048110156101e95760608301526080810151608083015260a081015160a08301526128e960c082016113ca565b60c083015260e081015160e083015261010080820151908301526101208082015190830152610140808201519083015261016080820151908301526101808091015190820152913880611a6c565b634e487b7160e01b86526041600452602486fd5b503d61286a565b600260005414612963576002600055565b60405162461bcd60e51b815260206004820152601f60248201527f5265656e7472616e637947756172643a207265656e7472616e742063616c6c006044820152606490fd5b60405163a9059cbb60e01b60208083019182526001600160a01b039485166024840152604480840196909652948252926080820191906001600160401b0383118284101761126657612a6493836040521690612a03836112c6565b8583527f5361666545524332303a206c6f772d6c6576656c2063616c6c206661696c656460a0820152600080958192519082855af13d15612af9573d91612a4983611410565b92612a5760405194856112fc565b83523d868885013e612afd565b90815190838215928315612ad7575b505050905015612a805750565b6084906040519062461bcd60e51b82526004820152602a60248201527f5361666545524332303a204552433230206f7065726174696f6e20646964206e6044820152691bdd081cdd58d8d9595960b21b6064820152fd5b8480929394500103126101ff575081612af091016113ca565b80388381612a73565b6060915b91929015612b5f5750815115612b11575090565b3b15612b1a5790565b60405162461bcd60e51b815260206004820152601d60248201527f416464726573733a2063616c6c20746f206e6f6e2d636f6e74726163740000006044820152606490fd5b825190915015612b725750805190602001fd5b60405162461bcd60e51b815260206004820152908190612b96906024830190612bbd565b0390fd5b60005b838110612bad5750506000910152565b8181015183820152602001612b9d565b90602091612bd681518092818552858086019101612b9a565b601f01601f1916010190565b60008112612bed5790565b612bf690611836565b90565b9190916000838201938412911290801582169115161761145b57565b8181029291811591840414171561145b57565b9695939092949196612c3f60a0820196875161144e565b978815612dee57612c54906080830151612bf9565b9560008712612d9e57519081612d80575b505060008512612d3b57612c8a90612c8584612c8088612be2565b61302b565b612c15565b8610159182612d1f575b505015612ce5578311612caa57612bf690612be2565b60405162461bcd60e51b815260206004820152601360248201527232bc31b2b2b21036b0bc103837b9b4ba34b7b760691b6044820152606490fd5b60405162461bcd60e51b81526020600482015260126024820152711b195d995c9859d9481a5b98dbdc9c9958dd60721b6044820152606490fd5b612d319250612c8590612c8086612be2565b8411153880612c94565b60405162461bcd60e51b815260206004820152601d60248201527f636f6c6c61746572616c206e6f7420656e6f75676820666f7220706e6c0000006044820152606490fd5b84612d96939792612d9092612e64565b90612bf9565b933880612c65565b60405162461bcd60e51b815260206004820152602260248201527f636f6c6c61746572616c206e6f7420656e6f75676820666f7220646563726561604482015261736560f01b6064820152608490fd5b505050505050509050600090600090565b969593909294919660a081019580875110612e1f57612c3f908751611621565b60405162461bcd60e51b815260206004820152601f60248201527f646563726561736520616d6f756e742065786365656420706f736974696f6e006044820152606490fd5b60c0810190815190818514612edf576060015115612eb55750805180841115612e9d5750612bf692612e97915190611621565b90612fae565b612eb0929150612bf693612e9791611621565b611836565b83811115612ecc5750612bf692612e979151611621565b612eb0929150612e9790612bf694611621565b5050505050600090565b8115612ef3570490565b634e487b7160e01b600052601260045260246000fd5b9060001981830981830291828083109203918083039214612fa3576127109082821115612f66577fbc01a36e2eb1c432ca57a786c226809d495182a9930be0ded288ce703afb7e91940990828211900360fc1b910360041c170290565b60405162461bcd60e51b81526020600482015260156024820152744d6174683a206d756c446976206f766572666c6f7760581b6044820152606490fd5b505061271091500490565b90600019818309818302918280831092039180830392146130155768327cb2734119d3b7a9601e1b9082821115612f66577f7d33c22789773a07feda8b6f0930e26fa397c439f1d5cf4b2eb27d7306d2dc99940990828211900360e21b9103601e1c170290565b505068327cb2734119d3b7a9601e1b9004919050565b9068327cb2734119d3b7a9601e1b9060001982840992828102928380861095039480860395146130af5784831115612f66578291096001821901821680920460028082600302188083028203028083028203028083028203028083028203028083028203028092029003029360018380600003040190848311900302920304170290565b505090612bf69250612ee9565b906127109060001982840992828102928380861095039480860395146130af5784831115612f66578291096001821901821680920460028082600302188083028203028083028203028083028203028083028203028083028203028092029003029360018380600003040190848311900302920304170290565b9081610160910312611392576040519061314f8261127c565b8051825261315f602082016113b6565b602083015260408101516040830152606081015160048110156113925760608301526080810151608083015260a081015160a083015260c081015160c08301526131ab60e082016113ca565b60e08301526101006131be8183016113ca565b9083015261012080820151908301526131db6101408092016113ca565b9082015290565b604051906131ef826112e1565b602482526361626c6560e01b6040837f6578656375746544656372656173654f7264657220617661696c61626c65537460208201520152565b60405190613235826112e1565b60238252620c8caf60eb1b6040837f6578656375746544656372656173654f7264657220617661696c61626c65496e60208201520152565b9192613288604092959460608501968552602085019061142b565b1515910152565b600019811461145b5760010190565b80518210156132b25760209160051b010190565b634e487b7160e01b600052603260045260246000fd5b60009081806040516132d9816112e1565b603781527f6578656375746544656372656173654f72646572206163636f756e74202573206020820152766f7264657249642025732074726164655479706520257360481b604082015260405161336d8161334d6020820194637c7a8d8f60e11b86526080602484015260a4830190612bbd565b33604483015287606483015285608483015203601f1981018352826112fc565b51906a636f6e736f6c652e6c6f675afa5060018060a01b0360075416604051926340b4605b60e11b845282600485015280602485015261016084604481855afa9384156142e75781946142c4575b5060208401516001600160a01b0316156142825760608401516004811015610c415715614268575b60408401519360018060a01b036002541692604051632f7ce47360e21b815286600482015260e081602481885afa80156104f057614249575b5060018060a01b036004541660018060a01b0360208401511694610140604085015160e0860151151597613464604051998a93849363bc95baad60e01b8552600485016116b8565b0381855afa9586156101af578596614226575b5060a0860151156141e6579061010060249392604051948580926330a66e1560e01b82528c60048301525afa9283156101af5785936141c3575b506134e060c085015160a08801518082106000146141bc57505b8060c08701528015908115614197575061159a565b6134f060e085015115158961572e565b926060850151600481101561399b57158015614180575b1561415057610100850151156141305760c0810151612710808281031161411c5761353791611bb7910386612f09565b6060850151600481101561399b576001146140cd575b6135c6906135a66135628660c0890151612fae565b60c088015160405190613574826112c6565b601f82527f6578656375746544656372656173654f726465722073697a65416d6f756e74006020830152611c866116db565b60808601519060c08701518151906080602084015193015193888c612dff565b5050600354604051632500ed8d60e21b8152600481018a90529060c090829060249082906001600160a01b03165afa9081156101f45786916140ae575b50602060408601516024604051809581936301fd38f760e01b835260048301525afa9182156101f457869261407a575b50858061363f84614f77565b6136d06136de60405192613652846112e1565b603084527f6578656375746544656372656173654f72646572207072654e65744578706f7360208501526f3ab932a0b6b7bab73a21b432b1b5b2b960811b60408501526040519283916136be6020840196634b5c427760e01b8852604060248601526064850190612bbd565b83810360231901604485015290612bbd565b03601f1981018352826112fc565b51906a636f6e736f6c652e6c6f675afa508582126140135760e0850151613fd85761371191506020815191015190611621565b61371d81611dd9613228565b60c08401511190815b613ea657505082608083015113613e1d575b60018060a01b036004541694606060018060a01b0360208501511696608085015190898760c08801519a61378a8860e08b015115156040519e8f98899788966387d4f0d560e01b88526004880161188f565b03925af19283156104f057849585978695613dd7575b506060820151600481101561399b57613c9357506007546001600160a01b0316803b156101e95785809160246040518094819363be82e5b160e01b83528860048401525af180156101f457908691613c7f575b50505b60018060a01b036007541660018060a01b03602083015116604083015160e08401511515606085015160048110156126335761385d9086519260c08801519460405196613842886112ab565b8752602087015260408601528a6060860152608085016118c0565b60a083015260c0820152813b156105b15761389187928392604051948580948193632670e98d60e01b8352600483016118cc565b03925af180156101f457908691613c6b575b50506138ee61014060018060a01b036004541660018060a01b0360208501511690604085015160e08601511515926040519586948593849363bc95baad60e01b8552600485016116b8565b03915afa9081156101f4579060a0918791613c4a575b500151156139af575b602081015160608201516001600160a01b0390911698600482101561399b5791613972600080516020615c008339815191529a989694926101609a98969460c060e08501511515940151946040519b8c5260208c015260408b015260608a019061142b565b608088015260a087015260c086015260e0850152610100840152610120830152610140820152a1565b634e487b7160e01b87526021600452602487fd5b9693979491602088979492970151604089015160e08a0151151560405191602083019360018060601b03199060601b168452603483015260f81b6054820152603581526139fb816112e1565b519020968960018060a01b0360075416986024604051809b8193634cc42b5160e01b835260048301525afa978815612586578a98613b0d575b50895b8851811015613afe57613a4a818a61329e565b51606081015115613a65575b50613a609061328f565b613a37565b60018060a01b036007541690608060a08201519101516004811015613aea579082918e933b156101a4576064849283613ab995604051968795869463c250985960e01b86526004860152602485019061142b565b8160448401525af180156104ba57613ad2575b50613a56565b613adb90611298565b613ae6578a38613acc565b8a80fd5b634e487b7160e01b8e52602160045260248efd5b5091939650919497939661390d565b9097503d808b833e613b1f81836112fc565b6020828281010312613ae6578151906001600160401b038211613c4657808301601f838501011215613c46578183015190613b598261131d565b93613b6760405195866112fc565b8285526020850193828201602060e08602838501010111613c425793602085830101945b602060e0860282850101018610613ba9575050505050509638613a34565b60e0868585010312613c3e5760405191613bc2836112ab565b613bcb876113b6565b835260208701516020840152613be3604088016113ca565b6040840152613bf4606088016113ca565b60608401526080870151926004841015613c3857602060e09282829660808695015260a08b015160a082015260c08b015160c0820152815201970196925050613b8b565b50508f80fd5b8f80fd5b8e80fd5b8b80fd5b613c6591506101403d61014011610aa757610a9881836112fc565b38613904565b613c7490611298565b610c1a5784386138a3565b613c8890611298565b610c1a5784386137f3565b6060820151600481101561399b57600103613d0357506007546001600160a01b0316803b156101e9578580916024604051809481936304d3cb8160e41b83528860048401525af180156101f457908691613cef575b50506137f6565b613cf890611298565b610c1a578438613ce8565b60075490516060830151916001600160a01b03166004831015613dc357803b156124cc57916064889283613d52956040519687958694634136de9f60e01b86526004860152602485019061142b565b8160448401525af180156101f457908691613daf575b50506007546001600160a01b0316803b156101e9578580916024604051809481936304d3cb8160e41b83528860048401525af180156101f457908691613cef5750506137f6565b613db890611298565b610c1a578438613d68565b634e487b7160e01b88526021600452602488fd5b9650935095506060853d606011613e15575b81613df6606093836112fc565b810103126101a4578451956040602087015196015196959693386137a0565b3d9150613de9565b60018060a01b036002541660e06040860151602460405180948193632f7ce47360e21b835260048301525afa9081156104f05790613e82918591613e87575b506020015160045460808501516001600160a01b0392831692909116906122e790612be2565b613738565b613ea0915060e03d60e011610c7d57610c6e81836112fc565b38613e5c565b909450613eeb6040969392949651613ebd816112c6565b601c81527b195e1958dd5d19511958dc99585cd953dc99195c881b99595910511360221b6020820152615a71565b6060820151600481101561399b57813b156105b15785613f259288928360405180968195829463c1872cf360e01b84528b6004850161326d565b03925af180156101f457613fc5575b50602081015160608201516001600160a01b0390911696600482101561399b5791613f98600080516020615c008339815191529896949261016098969460c060e0850151151594015194604051998a5260208a01526040890152606088019061142b565b608086015260a085015260c08401528160e0840152151561010083015280610120830152610140820152a1565b613fd190959195611298565b9338613f34565b613fef816060604061400b94015191015190611621565b91613ffc83611dd96131e2565b61232b8560c08801519461302b565b109081613726565b60e085015161404a5761403081602061400b935191015190611621565b61403c81611dd9613228565b61237860c087015193611836565b61405f91506060604082015191015190611621565b61406b81611dd96131e2565b61400b8360c08601519261302b565b9091506020813d6020116140a6575b81614096602093836112fc565b810103126101e957519038613633565b3d9150614089565b6140c7915060c03d60c0116124115761240381836112fc565b38613603565b926135c69060e0860151156000146140ff5760a086015190808210156140f857505b935b905061354d565b90506140ef565b60a0860151908082111561411557505b936140f1565b905061410f565b634e487b7160e01b88526011600452602488fd5b60c0810151612710818101811161411c576135379161267b910186612f09565b610100850151156141705761416b60a08601518511156115db565b613537565b61416b60a08601518510156115db565b506060850151600481101561399b57600114613507565b60408601518110159150816141ad575038611b5b565b905060608501511015386126dd565b90506134cb565b6141df9193506101003d61010011610d7057610d6281836112fc565b91386134b1565b50505050505061285991506040516141fd816112c6565b60178152761c1bdcda5d1a5bdb88185b1c9958591e4818db1bdcd959604a1b6020820152615ab2565b6142429196506101403d61014011610aa757610a9881836112fc565b9438613477565b6142619060e03d60e011610c7d57610c6e81836112fc565b503861341c565b61427d6128086101208601516001549061144e565b6133e3565b50506128599150604051614295816112c6565b601f81527f6578656375746544656372656173654f72646572206e6f7420657869737473006020820152615ab2565b6142e09194506101603d61016011610dd257610dc281836112fc565b92386133bb565b50604051903d90823e3d90fd5b60006004831015614f635761436560405161430e816112e1565b603781527f6578656375746544656372656173654f72646572206163636f756e74202573206020820152766f7264657249642025732074726164655479706520257360481b60408201528360ff8616913390615ba3565b60018060a01b036007541690614392604051946340b4605b60e11b8652846004870152602486019061142b565b61016084604481855afa9384156142e7578194614f40575b5060208401516001600160a01b0316156142825760608401516004811015610c415715614f26575b60408401519360018060a01b036002541692604051632f7ce47360e21b815286600482015260e081602481885afa80156104f057614f07575b5060018060a01b036004541660018060a01b0360208401511694610140604085015160e0860151151597614453604051998a93849363bc95baad60e01b8552600485016116b8565b0381855afa9586156101af578596614ee4575b5060a0860151156141e6579061010060249392604051948580926330a66e1560e01b82528c60048301525afa9283156101af578593614ec1575b506144ce60c085015160a08801518082106000146141bc57508060c08701528015908115614197575061159a565b6144de60e085015115158961572e565b926060850151600481101561399b57158015614eaa575b15614e7a5761010085015115614e5a5760c0810151612710808281031161411c5761452591611bb7910386612f09565b6060850151600481101561399b57600114614e0b575b614550906135a66135628660c0890151612fae565b5050600354604051632500ed8d60e21b8152600481018a90529060c090829060249082906001600160a01b03165afa9081156101f4578691614dec575b50602060408601516024604051809581936301fd38f760e01b835260048301525afa9182156101f4578692614db8575b5085806136be6146466145cf86614f77565b6136d0604051916145df836112e1565b603083527f6578656375746544656372656173654f72646572207072654e65744578706f7360208401526f3ab932a0b6b7bab73a21b432b1b5b2b960811b6040840152604051948593634b5c427760e01b6020860152604060248601526064850190612bbd565b6020815191016a636f6e736f6c652e6c6f675afa50858212614d6b5760e0850151614d4c5761467d91506020815191015190611621565b61468981611dd9613228565b60c08401511190815b613ea657505082608083015113614ce3575b60018060a01b036004541694606060018060a01b0360208501511696608085015190898760c08801519a6146f68860e08b015115156040519e8f98899788966387d4f0d560e01b88526004880161188f565b03925af19283156104f057849585978695614c9d575b506060820151600481101561399b57614b6d57506007546001600160a01b0316803b156101e95785809160246040518094819363be82e5b160e01b83528860048401525af180156101f457908691614b59575b50505b60018060a01b036007541660018060a01b03602083015116604083015160e0840151151560608501516004811015612633576147ae9086519260c08801519460405196613842886112ab565b60a083015260c0820152813b156105b1576147e287928392604051948580948193632670e98d60e01b8352600483016118cc565b03925af180156101f457908691614b45575b505061483f61014060018060a01b036004541660018060a01b0360208501511690604085015160e08601511515926040519586948593849363bc95baad60e01b8552600485016116b8565b03915afa9081156101f4579060a0918791614b24575b500151156148c257602081015160608201516001600160a01b0390911698600482101561399b5791613972600080516020615c008339815191529a989694926101609a98969460c060e08501511515940151946040519b8c5260208c015260408b015260608a019061142b565b9693979491602088979492970151604089015160e08a0151151560405191602083019360018060601b03199060601b168452603483015260f81b60548201526035815261490e816112e1565b519020968960018060a01b0360075416986024604051809b8193634cc42b5160e01b835260048301525afa978815612586578a986149f9575b50895b8851811015613afe5761495d818a61329e565b51606081015115614978575b506149739061328f565b61494a565b60018060a01b036007541690608060a08201519101516004811015613aea579082918e933b156101a45760648492836149cc95604051968795869463c250985960e01b86526004860152602485019061142b565b8160448401525af180156104ba576149e5575b50614969565b6149ee90611298565b613ae6578a386149df565b9097503d808b833e614a0b81836112fc565b6020828281010312613ae6578151906001600160401b038211613c4657808301601f838501011215613c46578183015190614a458261131d565b93614a5360405195866112fc565b8285526020850193828201602060e08602838501010111613c425793602085830101945b602060e0860282850101018610614a95575050505050509638614947565b60e0868585010312613c3e5760405191614aae836112ab565b614ab7876113b6565b835260208701516020840152614acf604088016113ca565b6040840152614ae0606088016113ca565b60608401526080870151926004841015613c3857602060e09282829660808695015260a08b015160a082015260c08b015160c0820152815201970196925050614a77565b614b3f91506101403d61014011610aa757610a9881836112fc565b38614855565b614b4e90611298565b610c1a5784386147f4565b614b6290611298565b610c1a57843861475f565b6060820151600481101561399b57600103614bdd57506007546001600160a01b0316803b156101e9578580916024604051809481936304d3cb8160e41b83528860048401525af180156101f457908691614bc9575b5050614762565b614bd290611298565b610c1a578438614bc2565b60075490516060830151916001600160a01b03166004831015613dc357803b156124cc57916064889283614c2c956040519687958694634136de9f60e01b86526004860152602485019061142b565b8160448401525af180156101f457908691614c89575b50506007546001600160a01b0316803b156101e9578580916024604051809481936304d3cb8160e41b83528860048401525af180156101f457908691614bc9575050614762565b614c9290611298565b610c1a578438614c42565b9650935095506060853d606011614cdb575b81614cbc606093836112fc565b810103126101a45784519560406020870151960151969596933861470c565b3d9150614caf565b60018060a01b036002541660e06040860151602460405180948193632f7ce47360e21b835260048301525afa9081156104f05790614d47918591613e8757506020015160045460808501516001600160a01b0392831692909116906122e790612be2565b6146a4565b613fef8160606040614d6394015191015190611621565b109081614692565b60e0850151614d8857614030816020614d63935191015190611621565b614d9d91506060604082015191015190611621565b614da981611dd96131e2565b614d638360c08601519261302b565b9091506020813d602011614de4575b81614dd4602093836112fc565b810103126101e9575190386145bd565b3d9150614dc7565b614e05915060c03d60c0116124115761240381836112fc565b3861458d565b926145509060e086015115600014614e3d5760a08601519080821015614e3657505b935b905061453b565b9050614e2d565b60a08601519080821115614e5357505b93614e2f565b9050614e4d565b60c0810151612710818101811161411c576145259161267b910186612f09565b61010085015115614e9a57614e9560a08601518511156115db565b614525565b614e9560a08601518510156115db565b506060850151600481101561399b576001146144f5565b614edd9193506101003d61010011610d7057610d6281836112fc565b91386144a0565b614f009196506101403d61014011610aa757610a9881836112fc565b9438614466565b614f1f9060e03d60e011610c7d57610c6e81836112fc565b503861440b565b614f3b6128086101208601516001549061144e565b6143d2565b614f5c9194506101603d61016011610dd257610dc281836112fc565b92386143aa565b634e487b7160e01b81526021600452602490fd5b6000811261513e5760405160208101908082106001600160401b0383111761126657614faa916040526000815291612be2565b6000908072184f03e93ff9f4daa797ed6e38ed64bf6a1f0160401b80821015615130575b506904ee2d6d415b85acef8160201b80821015615123575b50662386f26fc1000080821015615116575b506305f5e10080821015615109575b50612710808210156150fc575b5060648110156150ee575b600a809110156150e4575b60018084019281602161505561503f87611410565b9661504d60405198896112fc565b808852611410565b602087019790601f1901368937860101905b6150ae575b505050506150a292612bf69260209260405195836150938895518092888089019101612b9a565b84019151809386840190612b9a565b010380845201826112fc565b600019019083906f181899199a1a9b1b9c1cb0b131b232b360811b8282061a8353049182156150df57919082615067565b61506c565b916001019161502a565b60646002910492019161501f565b6004910492019138615014565b6008910492019138615007565b6010910492019138614ff8565b6020910492019138614fe6565b604093508204905038614fce565b614faa60405161514d816112c6565b60018152602d60f81b602082015291612be2565b615199604051615170816112c6565b60178152761b1a5c5d5a59185d19541bdcda5d1a5bdb881cdd185c9d604a1b6020820152615a71565b60048054604051636468402960e11b815291820183905261014090829060249082906001600160a01b03165afa90811561554f5760009161570d575b5060a0810151156156d7576151f56040820151606083015115159061572e565b6060820151156156995760c0820180516152eb918184111561567d576152269150612e9760a0860151915185611621565b60008060c086015161523784614f77565b906152d060405192615248846112e1565b603284527f6c6971756964617465506f736974696f6e2061766572616765507269636520256020850152717320756e7265616c697a6564506e6c20257360701b60408501526136d06040519384926152b96020850197635970e08960e01b8952606060248701526084860190612bbd565b916044850152602319848303016064850152612bbd565b51906a636f6e736f6c652e6c6f675afa506080840151612bf9565b60018060a01b036002541661010060408501516024604051809481936330a66e1560e01b835260048301525afa90811561554f5760009161565c575b506000821361556057505060015b600080604051615344816112c6565b601f81527f6c6971756964617465506f736974696f6e206e6565644c69717569646174650060208201526040516153b081615398602082019463c3b5563560e01b8652604060248401526064830190612bbd565b9615968715604483015203601f1981018352826112fc565b51906a636f6e736f6c652e6c6f675afa5061555b5760009160018060a01b036007541660206154668184019260018060a01b038451166040860151606087015115156153ff60a0890151611836565b916040519361540d8561127c565b84528684015289604084015289606084015288608084015260a083015260c08201528760e08201528761010082015287610120820152876101408201526040519788809481936302b9d03760e11b835260048301611928565b03925af193841561554f576000946154fb575b509183917faac40228c5d58dfc6360c331165fa5a8fa13f51c87a6124cb1999a4c6117bb7995936154ac610100966132c8565b60018060a01b039051169060408101516060820151151590608060a084015193015193604051978852602088015260408701526060860152608085015260a084015260c083015260e0820152a1565b90936020823d602011615547575b81615516602093836112fc565b810103126101ff575051927faac40228c5d58dfc6360c331165fa5a8fa13f51c87a6124cb1999a4c6117bb79615479565b3d9150615509565b6040513d6000823e3d90fd5b505050565b600061558883615583839460a061557a89828c0151612fae565b91015190612f09565b6130bc565b612710811015936156466155a060a089015192614f77565b916136d0604051946155b1866112e1565b604086527f6c6971756964617465506f736974696f6e207269736b5261746520257320706f60208701527f736974696f6e416d6f756e74202573206578706f737572654173736574202573604087015260405194859361562a60208601986342a59a4b60e11b8a526080602488015260a4870190612bbd565b9260448601526064850152602319848303016084850152612bbd565b51906a636f6e736f6c652e6c6f675afa50615335565b61567791506101003d61010011610d7057610d6281836112fc565b38615327565b50612eb061569491612e978560a088015192611621565b615226565b60c0820180516152eb91838211156156c0576156949150612e978460a08701519251611621565b50612eb061569491612e9760a08701519186611621565b50506128596040516156e8816112c6565b6013815272706f736974696f6e206e6f742065786973747360681b6020820152615a71565b61572891506101403d61014011610aa757610a9881836112fc565b386151d5565b60025460408051632f7ce47360e21b81526004810184905293926024926001600160a01b039081169060e0878681855afa9687156159d057600097615a51575b5080600654169080885116978551986341976e0960e01b8a5260048a0152602097888a8981875afa998a15615a465760009a615a16575b5090600080896158186158348b8e9897640339012b9960dd1b8251926157ca846112e1565b602584527f67657456616c696450726963652070616972496e6465782025732069734c6f6e8c8501528301528d5193849260608c85019763ca7733b160e01b89528501526084840190612bbd565b908d60448401521515606483015203601f1981018352826112fc565b51906a636f6e736f6c652e6c6f675afa5051166044865180948193637641b69960e01b8352600483015260008a8301525afa80156159d05787906000906159e4575b6158de92506158cb8183885161588b816112e1565b602a81527f67657456616c69645072696365206f7261636c65507269636520257320696e648c820152696578507269636520257360b01b8a820152615af7565b81818111156159db579061558391611621565b9183519182916330a66e1560e01b8352600483015281866101009485935afa9182156159d0579060e092916000926159b3575b5050016159678151838551615925816112e1565b602c81527f67657456616c69645072696365206469666650202573206d6178507269636544898201526b6576696174696f6e5020257360a01b87820152615af7565b51106159735750505090565b5162461bcd60e51b81526004810192909252601a908201527932bc31b2b2b21036b0bc10383934b1b2903232bb34b0ba34b7b760311b6044820152606490fd5b6159c99250803d10610d7057610d6281836112fc565b3880615911565b84513d6000823e3d90fd5b61558391611621565b90508682813d8311615a0f575b6159fb81836112fc565b810103126101ff5750866158de9151615876565b503d6159f1565b90998982813d8311615a3f575b615a2d81836112fc565b810103126101ff5750519860006157a5565b503d615a23565b87513d6000823e3d90fd5b615a6a91975060e03d8111610c7d57610c6e81836112fc565b953861576e565b60008091604051615a9f816136d0602082019463104c13eb60e21b8652602060248401526044830190612bbd565b51906a636f6e736f6c652e6c6f675afa50565b600091908291615a9f6040518092615ae36020830195632d839cb360e21b8752604060248501526064840190612bbd565b90604483015203601f1981018352826112fc565b60009291615a9f8493604051928391615b29602084019663ca47c4eb60e01b8852606060248601526084850190612bbd565b916044840152606483015203601f1981018352826112fc565b90615a9f600094938594615b8f604051948593615b78602086019863c67ea9d160e01b8a526080602488015260a4870190612bbd565b916044860152602319858303016064860152612bbd565b90608483015203601f1981018352826112fc565b9092615a9f600094938594604051938492615bd76020850197637c7a8d8f60e11b89526080602487015260a4860190612bbd565b6001600160a01b0390931660448501526064840152608483015203601f1981018352826112fc56fe9b4ff42a2fc7960edd49c603150f69894e46d386129c040ae7519a427fee0613a2646970667358221220440020b271f5ddf07bbee8170e5110abf21736cf77d74ecbd9cdf8c5dcb9eda064736f6c63430008110033",
  "devdoc": {
    "kind": "dev",
    "methods": {},
    "version": 1
  },
  "userdoc": {
    "kind": "user",
    "methods": {},
    "version": 1
  },
  "storageLayout": {
    "storage": [
      {
        "astId": 509,
        "contract": "contracts/trading/PositionManager.sol:PositionManager",
        "label": "_status",
        "offset": 0,
        "slot": "0",
        "type": "t_uint256"
      },
      {
        "astId": 4558,
        "contract": "contracts/trading/PositionManager.sol:PositionManager",
        "label": "maxTimeDelay",
        "offset": 0,
        "slot": "1",
        "type": "t_uint256"
      },
      {
        "astId": 4561,
        "contract": "contracts/trading/PositionManager.sol:PositionManager",
        "label": "pairInfo",
        "offset": 0,
        "slot": "2",
        "type": "t_contract(IPairInfo)4416"
      },
      {
        "astId": 4564,
        "contract": "contracts/trading/PositionManager.sol:PositionManager",
        "label": "pairVault",
        "offset": 0,
        "slot": "3",
        "type": "t_contract(IPairVault)4508"
      },
      {
        "astId": 4567,
        "contract": "contracts/trading/PositionManager.sol:PositionManager",
        "label": "tradingVault",
        "offset": 0,
        "slot": "4",
        "type": "t_contract(ITradingVault)3442"
      },
      {
        "astId": 4570,
        "contract": "contracts/trading/PositionManager.sol:PositionManager",
        "label": "fastPriceFeed",
        "offset": 0,
        "slot": "5",
        "type": "t_contract(IIndexPriceFeed)2680"
      },
      {
        "astId": 4573,
        "contract": "contracts/trading/PositionManager.sol:PositionManager",
        "label": "vaultPriceFeed",
        "offset": 0,
        "slot": "6",
        "type": "t_contract(IVaultPriceFeed)3477"
      },
      {
        "astId": 4576,
        "contract": "contracts/trading/PositionManager.sol:PositionManager",
        "label": "orderManager",
        "offset": 0,
        "slot": "7",
        "type": "t_contract(IOrderManager)2908"
      }
    ],
    "types": {
      "t_contract(IIndexPriceFeed)2680": {
        "encoding": "inplace",
        "label": "contract IIndexPriceFeed",
        "numberOfBytes": "20"
      },
      "t_contract(IOrderManager)2908": {
        "encoding": "inplace",
        "label": "contract IOrderManager",
        "numberOfBytes": "20"
      },
      "t_contract(IPairInfo)4416": {
        "encoding": "inplace",
        "label": "contract IPairInfo",
        "numberOfBytes": "20"
      },
      "t_contract(IPairVault)4508": {
        "encoding": "inplace",
        "label": "contract IPairVault",
        "numberOfBytes": "20"
      },
      "t_contract(ITradingVault)3442": {
        "encoding": "inplace",
        "label": "contract ITradingVault",
        "numberOfBytes": "20"
      },
      "t_contract(IVaultPriceFeed)3477": {
        "encoding": "inplace",
        "label": "contract IVaultPriceFeed",
        "numberOfBytes": "20"
      },
      "t_uint256": {
        "encoding": "inplace",
        "label": "uint256",
        "numberOfBytes": "32"
      }
    }
  }
}