{
  "address": "0x67d269191c92Caf3cD7723F116c85e6E9bf55933",
  "abi": [
    {
      "inputs": [
        {
          "internalType": "contract IAddressesProvider",
          "name": "addressProvider",
          "type": "address"
        },
        {
          "internalType": "contract IPairInfo",
          "name": "_pairInfo",
          "type": "address"
        },
        {
          "internalType": "contract IPairVault",
          "name": "_pairVault",
          "type": "address"
        },
        {
          "internalType": "contract IOraclePriceFeed",
          "name": "_vaultPriceFeed",
          "type": "address"
        },
        {
          "internalType": "address",
          "name": "_tradingFeeReceiver",
          "type": "address"
        },
        {
          "internalType": "uint256",
          "name": "_fundingInterval",
          "type": "uint256"
        }
      ],
      "stateMutability": "nonpayable",
      "type": "constructor"
    },
    {
      "anonymous": false,
      "inputs": [
        {
          "indexed": false,
          "internalType": "bytes32",
          "name": "positionKey",
          "type": "bytes32"
        },
        {
          "indexed": false,
          "internalType": "address",
          "name": "account",
          "type": "address"
        },
        {
          "indexed": false,
          "internalType": "uint256",
          "name": "pairIndex",
          "type": "uint256"
        },
        {
          "indexed": false,
          "internalType": "bool",
          "name": "isLong",
          "type": "bool"
        }
      ],
      "name": "ClosePosition",
      "type": "event"
    },
    {
      "anonymous": false,
      "inputs": [
        {
          "indexed": false,
          "internalType": "bytes32",
          "name": "positionKey",
          "type": "bytes32"
        },
        {
          "indexed": false,
          "internalType": "address",
          "name": "account",
          "type": "address"
        },
        {
          "indexed": false,
          "internalType": "uint256",
          "name": "pairIndex",
          "type": "uint256"
        },
        {
          "indexed": false,
          "internalType": "bool",
          "name": "isLong",
          "type": "bool"
        },
        {
          "indexed": false,
          "internalType": "int256",
          "name": "collateral",
          "type": "int256"
        },
        {
          "indexed": false,
          "internalType": "uint256",
          "name": "sizeAmount",
          "type": "uint256"
        },
        {
          "indexed": false,
          "internalType": "uint256",
          "name": "price",
          "type": "uint256"
        },
        {
          "indexed": false,
          "internalType": "uint256",
          "name": "tradingFee",
          "type": "uint256"
        },
        {
          "indexed": false,
          "internalType": "int256",
          "name": "fundingFee",
          "type": "int256"
        },
        {
          "indexed": false,
          "internalType": "int256",
          "name": "realisedPnl",
          "type": "int256"
        },
        {
          "indexed": false,
          "internalType": "uint256",
          "name": "transferOut",
          "type": "uint256"
        }
      ],
      "name": "DecreasePosition",
      "type": "event"
    },
    {
      "anonymous": false,
      "inputs": [
        {
          "indexed": false,
          "internalType": "bytes32",
          "name": "positionKey",
          "type": "bytes32"
        },
        {
          "indexed": false,
          "internalType": "address",
          "name": "account",
          "type": "address"
        },
        {
          "indexed": false,
          "internalType": "uint256",
          "name": "pairIndex",
          "type": "uint256"
        },
        {
          "indexed": false,
          "internalType": "int256",
          "name": "collateral",
          "type": "int256"
        },
        {
          "indexed": false,
          "internalType": "bool",
          "name": "isLong",
          "type": "bool"
        },
        {
          "indexed": false,
          "internalType": "uint256",
          "name": "sizeAmount",
          "type": "uint256"
        },
        {
          "indexed": false,
          "internalType": "uint256",
          "name": "price",
          "type": "uint256"
        },
        {
          "indexed": false,
          "internalType": "uint256",
          "name": "tradingFee",
          "type": "uint256"
        },
        {
          "indexed": false,
          "internalType": "int256",
          "name": "fundingFee",
          "type": "int256"
        },
        {
          "indexed": false,
          "internalType": "uint256",
          "name": "transferOut",
          "type": "uint256"
        }
      ],
      "name": "IncreasePosition",
      "type": "event"
    },
    {
      "anonymous": false,
      "inputs": [
        {
          "indexed": false,
          "internalType": "uint256",
          "name": "oldInterval",
          "type": "uint256"
        },
        {
          "indexed": false,
          "internalType": "uint256",
          "name": "newInterval",
          "type": "uint256"
        }
      ],
      "name": "UpdateFundingInterval",
      "type": "event"
    },
    {
      "anonymous": false,
      "inputs": [
        {
          "indexed": false,
          "internalType": "uint256",
          "name": "pairIndex",
          "type": "uint256"
        },
        {
          "indexed": false,
          "internalType": "int256",
          "name": "fundingRate",
          "type": "int256"
        },
        {
          "indexed": false,
          "internalType": "uint256",
          "name": "lastFundingTime",
          "type": "uint256"
        }
      ],
      "name": "UpdateFundingRate",
      "type": "event"
    },
    {
      "anonymous": false,
      "inputs": [
        {
          "indexed": false,
          "internalType": "address",
          "name": "oldPairInfo",
          "type": "address"
        },
        {
          "indexed": false,
          "internalType": "address",
          "name": "newPairInfo",
          "type": "address"
        }
      ],
      "name": "UpdatePairInfo",
      "type": "event"
    },
    {
      "anonymous": false,
      "inputs": [
        {
          "indexed": false,
          "internalType": "address",
          "name": "oldPairVault",
          "type": "address"
        },
        {
          "indexed": false,
          "internalType": "address",
          "name": "newPairVault",
          "type": "address"
        }
      ],
      "name": "UpdatePairVault",
      "type": "event"
    },
    {
      "anonymous": false,
      "inputs": [
        {
          "indexed": false,
          "internalType": "bytes32",
          "name": "positionKey",
          "type": "bytes32"
        },
        {
          "indexed": false,
          "internalType": "address",
          "name": "account",
          "type": "address"
        },
        {
          "indexed": false,
          "internalType": "uint256",
          "name": "pairIndex",
          "type": "uint256"
        },
        {
          "indexed": false,
          "internalType": "bool",
          "name": "isLong",
          "type": "bool"
        },
        {
          "indexed": false,
          "internalType": "uint256",
          "name": "collateral",
          "type": "uint256"
        },
        {
          "indexed": false,
          "internalType": "uint256",
          "name": "positionAmount",
          "type": "uint256"
        },
        {
          "indexed": false,
          "internalType": "uint256",
          "name": "averagePrice",
          "type": "uint256"
        },
        {
          "indexed": false,
          "internalType": "int256",
          "name": "entryFundingRate",
          "type": "int256"
        },
        {
          "indexed": false,
          "internalType": "uint256",
          "name": "entryFundingTime",
          "type": "uint256"
        },
        {
          "indexed": false,
          "internalType": "int256",
          "name": "realisedPnl",
          "type": "int256"
        },
        {
          "indexed": false,
          "internalType": "uint256",
          "name": "price",
          "type": "uint256"
        }
      ],
      "name": "UpdatePosition",
      "type": "event"
    },
    {
      "anonymous": false,
      "inputs": [
        {
          "indexed": false,
          "internalType": "address",
          "name": "oldReceiver",
          "type": "address"
        },
        {
          "indexed": false,
          "internalType": "address",
          "name": "newReceiver",
          "type": "address"
        }
      ],
      "name": "UpdateTradingFeeReceiver",
      "type": "event"
    },
    {
      "inputs": [],
      "name": "ADDRESS_PROVIDER",
      "outputs": [
        {
          "internalType": "contract IAddressesProvider",
          "name": "",
          "type": "address"
        }
      ],
      "stateMutability": "view",
      "type": "function"
    },
    {
      "inputs": [
        {
          "internalType": "uint256",
          "name": "_pairIndex",
          "type": "uint256"
        },
        {
          "internalType": "uint256",
          "name": "_amount",
          "type": "uint256"
        }
      ],
      "name": "buyIndexToken",
      "outputs": [],
      "stateMutability": "nonpayable",
      "type": "function"
    },
    {
      "inputs": [
        {
          "internalType": "uint256",
          "name": "",
          "type": "uint256"
        }
      ],
      "name": "cumulativeFundingRates",
      "outputs": [
        {
          "internalType": "int256",
          "name": "",
          "type": "int256"
        }
      ],
      "stateMutability": "view",
      "type": "function"
    },
    {
      "inputs": [
        {
          "internalType": "address",
          "name": "_account",
          "type": "address"
        },
        {
          "internalType": "uint256",
          "name": "_pairIndex",
          "type": "uint256"
        },
        {
          "internalType": "int256",
          "name": "_collateral",
          "type": "int256"
        },
        {
          "internalType": "uint256",
          "name": "_sizeAmount",
          "type": "uint256"
        },
        {
          "internalType": "bool",
          "name": "_isLong",
          "type": "bool"
        },
        {
          "internalType": "uint256",
          "name": "_price",
          "type": "uint256"
        }
      ],
      "name": "decreasePosition",
      "outputs": [
        {
          "internalType": "uint256",
          "name": "tradingFee",
          "type": "uint256"
        },
        {
          "internalType": "int256",
          "name": "fundingFee",
          "type": "int256"
        },
        {
          "internalType": "int256",
          "name": "pnl",
          "type": "int256"
        }
      ],
      "stateMutability": "nonpayable",
      "type": "function"
    },
    {
      "inputs": [],
      "name": "fundingInterval",
      "outputs": [
        {
          "internalType": "uint256",
          "name": "",
          "type": "uint256"
        }
      ],
      "stateMutability": "view",
      "type": "function"
    },
    {
      "inputs": [
        {
          "internalType": "uint256",
          "name": "_pairIndex",
          "type": "uint256"
        }
      ],
      "name": "getCurrentFundingRate",
      "outputs": [
        {
          "internalType": "int256",
          "name": "",
          "type": "int256"
        }
      ],
      "stateMutability": "view",
      "type": "function"
    },
    {
      "inputs": [
        {
          "internalType": "bool",
          "name": "_increase",
          "type": "bool"
        },
        {
          "internalType": "address",
          "name": "_account",
          "type": "address"
        },
        {
          "internalType": "uint256",
          "name": "_pairIndex",
          "type": "uint256"
        },
        {
          "internalType": "bool",
          "name": "_isLong",
          "type": "bool"
        },
        {
          "internalType": "uint256",
          "name": "_sizeAmount",
          "type": "uint256"
        }
      ],
      "name": "getFundingFee",
      "outputs": [
        {
          "internalType": "int256",
          "name": "",
          "type": "int256"
        }
      ],
      "stateMutability": "view",
      "type": "function"
    },
    {
      "inputs": [
        {
          "internalType": "address",
          "name": "_account",
          "type": "address"
        },
        {
          "internalType": "uint256",
          "name": "_pairIndex",
          "type": "uint256"
        },
        {
          "internalType": "bool",
          "name": "_isLong",
          "type": "bool"
        }
      ],
      "name": "getPosition",
      "outputs": [
        {
          "components": [
            {
              "internalType": "bytes32",
              "name": "key",
              "type": "bytes32"
            },
            {
              "internalType": "address",
              "name": "account",
              "type": "address"
            },
            {
              "internalType": "uint256",
              "name": "pairIndex",
              "type": "uint256"
            },
            {
              "internalType": "bool",
              "name": "isLong",
              "type": "bool"
            },
            {
              "internalType": "uint256",
              "name": "collateral",
              "type": "uint256"
            },
            {
              "internalType": "uint256",
              "name": "positionAmount",
              "type": "uint256"
            },
            {
              "internalType": "uint256",
              "name": "averagePrice",
              "type": "uint256"
            },
            {
              "internalType": "int256",
              "name": "entryFundingRate",
              "type": "int256"
            },
            {
              "internalType": "uint256",
              "name": "entryFundingTime",
              "type": "uint256"
            },
            {
              "internalType": "int256",
              "name": "realisedPnl",
              "type": "int256"
            }
          ],
          "internalType": "struct Position.Info",
          "name": "",
          "type": "tuple"
        }
      ],
      "stateMutability": "view",
      "type": "function"
    },
    {
      "inputs": [
        {
          "internalType": "bytes32",
          "name": "key",
          "type": "bytes32"
        }
      ],
      "name": "getPositionByKey",
      "outputs": [
        {
          "components": [
            {
              "internalType": "bytes32",
              "name": "key",
              "type": "bytes32"
            },
            {
              "internalType": "address",
              "name": "account",
              "type": "address"
            },
            {
              "internalType": "uint256",
              "name": "pairIndex",
              "type": "uint256"
            },
            {
              "internalType": "bool",
              "name": "isLong",
              "type": "bool"
            },
            {
              "internalType": "uint256",
              "name": "collateral",
              "type": "uint256"
            },
            {
              "internalType": "uint256",
              "name": "positionAmount",
              "type": "uint256"
            },
            {
              "internalType": "uint256",
              "name": "averagePrice",
              "type": "uint256"
            },
            {
              "internalType": "int256",
              "name": "entryFundingRate",
              "type": "int256"
            },
            {
              "internalType": "uint256",
              "name": "entryFundingTime",
              "type": "uint256"
            },
            {
              "internalType": "int256",
              "name": "realisedPnl",
              "type": "int256"
            }
          ],
          "internalType": "struct Position.Info",
          "name": "",
          "type": "tuple"
        }
      ],
      "stateMutability": "view",
      "type": "function"
    },
    {
      "inputs": [
        {
          "internalType": "address",
          "name": "_account",
          "type": "address"
        },
        {
          "internalType": "uint256",
          "name": "_pairIndex",
          "type": "uint256"
        },
        {
          "internalType": "bool",
          "name": "_isLong",
          "type": "bool"
        }
      ],
      "name": "getPositionKey",
      "outputs": [
        {
          "internalType": "bytes32",
          "name": "",
          "type": "bytes32"
        }
      ],
      "stateMutability": "pure",
      "type": "function"
    },
    {
      "inputs": [
        {
          "internalType": "uint256",
          "name": "_pairIndex",
          "type": "uint256"
        },
        {
          "internalType": "bool",
          "name": "_isLong",
          "type": "bool"
        },
        {
          "internalType": "uint256",
          "name": "_sizeAmount",
          "type": "uint256"
        }
      ],
      "name": "getTradingFee",
      "outputs": [
        {
          "internalType": "uint256",
          "name": "tradingFee",
          "type": "uint256"
        }
      ],
      "stateMutability": "view",
      "type": "function"
    },
    {
      "inputs": [
        {
          "internalType": "address",
          "name": "_account",
          "type": "address"
        },
        {
          "internalType": "uint256",
          "name": "_pairIndex",
          "type": "uint256"
        },
        {
          "internalType": "int256",
          "name": "_collateral",
          "type": "int256"
        },
        {
          "internalType": "uint256",
          "name": "_sizeAmount",
          "type": "uint256"
        },
        {
          "internalType": "bool",
          "name": "_isLong",
          "type": "bool"
        },
        {
          "internalType": "uint256",
          "name": "_price",
          "type": "uint256"
        }
      ],
      "name": "increasePosition",
      "outputs": [
        {
          "internalType": "uint256",
          "name": "tradingFee",
          "type": "uint256"
        },
        {
          "internalType": "int256",
          "name": "fundingFee",
          "type": "int256"
        }
      ],
      "stateMutability": "nonpayable",
      "type": "function"
    },
    {
      "inputs": [
        {
          "internalType": "address",
          "name": "",
          "type": "address"
        }
      ],
      "name": "isFrozen",
      "outputs": [
        {
          "internalType": "bool",
          "name": "",
          "type": "bool"
        }
      ],
      "stateMutability": "view",
      "type": "function"
    },
    {
      "inputs": [
        {
          "internalType": "address",
          "name": "",
          "type": "address"
        }
      ],
      "name": "isHandler",
      "outputs": [
        {
          "internalType": "bool",
          "name": "",
          "type": "bool"
        }
      ],
      "stateMutability": "view",
      "type": "function"
    },
    {
      "inputs": [
        {
          "internalType": "uint256",
          "name": "",
          "type": "uint256"
        }
      ],
      "name": "lastFundingRates",
      "outputs": [
        {
          "internalType": "int256",
          "name": "",
          "type": "int256"
        }
      ],
      "stateMutability": "view",
      "type": "function"
    },
    {
      "inputs": [
        {
          "internalType": "uint256",
          "name": "",
          "type": "uint256"
        }
      ],
      "name": "lastFundingTimes",
      "outputs": [
        {
          "internalType": "uint256",
          "name": "",
          "type": "uint256"
        }
      ],
      "stateMutability": "view",
      "type": "function"
    },
    {
      "inputs": [
        {
          "internalType": "uint256",
          "name": "",
          "type": "uint256"
        }
      ],
      "name": "longTracker",
      "outputs": [
        {
          "internalType": "uint256",
          "name": "",
          "type": "uint256"
        }
      ],
      "stateMutability": "view",
      "type": "function"
    },
    {
      "inputs": [
        {
          "internalType": "uint256",
          "name": "",
          "type": "uint256"
        }
      ],
      "name": "netExposureAmountChecker",
      "outputs": [
        {
          "internalType": "int256",
          "name": "",
          "type": "int256"
        }
      ],
      "stateMutability": "view",
      "type": "function"
    },
    {
      "inputs": [],
      "name": "pairInfo",
      "outputs": [
        {
          "internalType": "contract IPairInfo",
          "name": "",
          "type": "address"
        }
      ],
      "stateMutability": "view",
      "type": "function"
    },
    {
      "inputs": [],
      "name": "pairVault",
      "outputs": [
        {
          "internalType": "contract IPairVault",
          "name": "",
          "type": "address"
        }
      ],
      "stateMutability": "view",
      "type": "function"
    },
    {
      "inputs": [
        {
          "internalType": "bytes32",
          "name": "",
          "type": "bytes32"
        }
      ],
      "name": "positions",
      "outputs": [
        {
          "internalType": "bytes32",
          "name": "key",
          "type": "bytes32"
        },
        {
          "internalType": "address",
          "name": "account",
          "type": "address"
        },
        {
          "internalType": "uint256",
          "name": "pairIndex",
          "type": "uint256"
        },
        {
          "internalType": "bool",
          "name": "isLong",
          "type": "bool"
        },
        {
          "internalType": "uint256",
          "name": "collateral",
          "type": "uint256"
        },
        {
          "internalType": "uint256",
          "name": "positionAmount",
          "type": "uint256"
        },
        {
          "internalType": "uint256",
          "name": "averagePrice",
          "type": "uint256"
        },
        {
          "internalType": "int256",
          "name": "entryFundingRate",
          "type": "int256"
        },
        {
          "internalType": "uint256",
          "name": "entryFundingTime",
          "type": "uint256"
        },
        {
          "internalType": "int256",
          "name": "realisedPnl",
          "type": "int256"
        }
      ],
      "stateMutability": "view",
      "type": "function"
    },
    {
      "inputs": [
        {
          "internalType": "address",
          "name": "_handler",
          "type": "address"
        },
        {
          "internalType": "bool",
          "name": "_isHandler",
          "type": "bool"
        }
      ],
      "name": "setHandler",
      "outputs": [],
      "stateMutability": "nonpayable",
      "type": "function"
    },
    {
      "inputs": [
        {
          "internalType": "uint256",
          "name": "",
          "type": "uint256"
        }
      ],
      "name": "shortTracker",
      "outputs": [
        {
          "internalType": "uint256",
          "name": "",
          "type": "uint256"
        }
      ],
      "stateMutability": "view",
      "type": "function"
    },
    {
      "inputs": [],
      "name": "tradingFeeReceiver",
      "outputs": [
        {
          "internalType": "address",
          "name": "",
          "type": "address"
        }
      ],
      "stateMutability": "view",
      "type": "function"
    },
    {
      "inputs": [
        {
          "internalType": "uint256",
          "name": "_pairIndex",
          "type": "uint256"
        },
        {
          "internalType": "uint256",
          "name": "_price",
          "type": "uint256"
        }
      ],
      "name": "updateCumulativeFundingRate",
      "outputs": [],
      "stateMutability": "nonpayable",
      "type": "function"
    },
    {
      "inputs": [
        {
          "internalType": "uint256",
          "name": "newInterval",
          "type": "uint256"
        }
      ],
      "name": "updateFundingInterval",
      "outputs": [],
      "stateMutability": "nonpayable",
      "type": "function"
    },
    {
      "inputs": [
        {
          "internalType": "address",
          "name": "newPairInfo",
          "type": "address"
        }
      ],
      "name": "updatePairInfo",
      "outputs": [],
      "stateMutability": "nonpayable",
      "type": "function"
    },
    {
      "inputs": [
        {
          "internalType": "address",
          "name": "newPairVault",
          "type": "address"
        }
      ],
      "name": "updatePairVault",
      "outputs": [],
      "stateMutability": "nonpayable",
      "type": "function"
    },
    {
      "inputs": [
        {
          "internalType": "address",
          "name": "newReceiver",
          "type": "address"
        }
      ],
      "name": "updateTradingFeeReceiver",
      "outputs": [],
      "stateMutability": "nonpayable",
      "type": "function"
    },
    {
      "inputs": [],
      "name": "vaultPriceFeed",
      "outputs": [
        {
          "internalType": "contract IOraclePriceFeed",
          "name": "",
          "type": "address"
        }
      ],
      "stateMutability": "view",
      "type": "function"
    }
  ],
  "transactionHash": "0xbe8edcd05914699487df2c3a603b79a7069dbce82fc3d633c6dba8a61dfc7128",
  "args": [
    "0x5FbDB2315678afecb367f032d93F642f64180aa3",
    "0x7a2088a1bFc9d81c55368AE168C2C02570cB814F",
    "0x09635F643e140090A9A8Dcd712eD6285858ceBef",
    "0xB7f8BC63BbcaD18155201308C8f3540b07f84F5e",
    "0xf39Fd6e51aad88F6F4ce6aB8827279cffFb92266",
    28800
  ],
  "numDeployments": 1,
  "solcInputHash": "88b9facc694daac1217da6c3f2e56500",
  "bytecode": "0x60a0346200012b57601f62005f6338819003918201601f19168301916001600160401b03831184841017620001305780849260c0946040528339810103126200012b578051906001600160a01b039081831683036200012b576020810151908282168092036200012b5760408101518381168091036200012b576060820151918483168093036200012b5760808101519485168095036200012b5760a001519460016000553360005260016020526040600020600160ff1982541617905560805260018060a01b03199283600b541617600b5582600c541617600c5581600e541617600e55600d541617600d55600a55604051615e1c9081620001478239608051818181611de70152818161202b015281816122d30152818161406e015281816142d201526145850152f35b600080fd5b634e487b7160e01b600052604160045260246000fdfe6102a080604052600436101561001457600080fd5b60006101e05260003560e01c90816301fd38f7146145cd575080630298e273146145b45780631848effa1461456c57806323fc61601461453c5780632cbc82bf1461450c5780632e4d2cda1461441257806337e415a01461429d57806346ea87af1461425a578063514ea4bf146141b95780635e55f9841461403657806383d532e814613fe457806387d4f0d51461241e5780638b78fba51461229b5780638c1b753a146121b15780639391faf9146121815780639849e412146121605780639cb7de4b14611fe7578063a28feb8b14611fbb578063a31a7b4414611f8f578063ad249b5214611f78578063bc95baad14611f3c578063c4995cb214611daf578063c8d0805214611cf7578063c989cfb214611b67578063e054d7f214611b37578063e17ee61614610245578063e583983614610202578063eeaa783a146101d6578063f879ffd2146101a65763fc2a5b1d1461017057600080fd5b3461019f576101e0518060031936011261019c57600b546040516001600160a01b039091168152602090f35b80fd5b6101e05180fd5b3461019f57602036600319011261019f576004356101e051526008602052602060406101e0512054604051908152f35b3461019f576101e0518060031936011261019c57600e546040516001600160a01b039091168152602090f35b3461019f57602036600319011261019f576001600160a01b036102236145f5565b166101e051526003602052602060ff60406101e0512054166040519015158152f35b3461019f5760246102553661464d565b916102639694919596614bcf565b3033148015611b1b575b610276906147ba565b600b54604051632f7ce47360e21b8152600481018490529560e09187919082906001600160a01b03165afa948515610b40576101e05195611aea575b50606085015115611aaa57856102ca88978489615245565b94856101e05152600260205260406101e05120928684556102eb8682614e91565b90610333826040516102fc816146ec565b601b81527a1a5b98dc99585cd9541bdcda5d1a5bdb881cda5e99505b5bdd5b9d602a1b60208201528361032d6148a1565b91615d25565b600585015415611a66575b61037581600587015480151580611a5d575b611a36575b61036b6103668760048b01546148e9565b615047565b60048901556148c6565b60058601556101e051831315611a27576101e051985b6103a185888c9d61039c8c83615543565b615245565b60009060005260026020526103b9604060002061540a565b906103c961010083015142614970565b600a5411611a1f575b8881526007602052604081205460e0830151918083128284810312811690838581031390151617611a0b57509160a061041392620f42409403910151615520565b0599876101e05152600960205261047060406101e051205460405161043781614707565b602181527f696e637265617365506f736974696f6e206c61737446756e64696e6754696d656020820152607360f81b6040820152615c99565b876101e0515260076020526104d961048e60406101e051205461505b565b60405161049a81614707565b602781527f696e637265617365506f736974696f6e2063756d756c617469766546756e64696020820152666e67526174657360c81b6040820152615cde565b61051e6104e58c61505b565b6040516104f1816146ec565b601b81527a696e637265617365506f736974696f6e2066756e64696e6746656560281b6020820152615cde565b6101e0518b1261193a575084156118dc576105498a600488015461054482821015614916565b614970565b600487015561059a60405161055d81614707565b602581527f696e637265617365506f736974696f6e206c6f6e67207061792066756e64696e602082015264672066656560d81b6040820152615c4a565b866101e05152600760205260406101e0518181205460078901556009602052205460088701556105cc8883878a6156a5565b809b60048801546105e8836105e184846148c6565b101561497d565b8282106118bd5750906105fa91614970565b925b6020820151600d5461061c918e916001600160a01b039081169116614c25565b6106598c60405161062c816146ec565b601b81527a696e637265617365506f736974696f6e2074726164696e6746656560281b6020820152615c99565b6101e0805189905260046020525160409020549086156118ac5761067e845b836148e9565b896101e0515260046020526101e051906040822055876000146118915750886101e05152600560205260406101e051206106b98582546148c6565b90555b6107196106c88361505b565b6040516106d481614707565b602d81527f696e637265617365506f736974696f6e20707265764e65744578706f7375726560208201526c20b6b7bab73a21b432b1b5b2b960991b6040820152615cde565b886101e05152600460205261078461073760406101e051205461505b565b60405161074381614707565b602981527f696e637265617365506f736974696f6e206e65744578706f73757265416d6f75602082015268373a21b432b1b5b2b960b91b6040820152615cde565b886101e0515260056020526107e36101e051604080822054916006602052205490604051906107b2826146ec565b601c82527b34b731b932b0b9b2a837b9b4ba34b7b7103637b733aa3930b1b5b2b960211b602083015261032d6149d7565b600c54604051632500ed8d60e21b8152600481018b905291906001600160a01b031660c083602481845afa928315610b40576101e05193611861575b506108848c608085015160405190610836826146ec565b602082527f696e637265617365506f736974696f6e206c702061766572616765507269636560208301526040519161086d836146ec565b6005835264707269636560d81b6020840152615d25565b8a6101e0518086136000146110e0575090506101e0515260046020526101e05183604082205413600014610b6c57506108fc6040516108c281614707565b602281527f696e637265617365506f736974696f6e2042544f206c6f6e6720696e63726561602082015261736560f01b6040820152615c4a565b600c546001600160a01b031691823b1561019f576040519262a0151560e21b84528b60048501528660248501526101e0516044850152836064816101e05180945af1928315610b40578693610b4e575b509161096c6109729261096760806109789796015186614e91565b6148c6565b926148c6565b90614f4b565b6109c88160405161098881614707565b602881527f696e637265617365506f736974696f6e2042544f207570646174652061766572602082015267616765507269636560c01b6040820152615c99565b600c546001600160a01b0316803b1561019f5760405191630e13da9f60e11b83528960048401526024830152816044816101e05180945af18015610b4057610b2a575b50610140600080516020615da7833981519152999794610abb979460409e9a9794600080516020615d87833981519152945b828d81610b09575b5050508f51928b845260018060a01b038d166020850152604089908501526060840152851515608084015260a08301528760c08301528d60e08301528c610100830152610120820152a16004820154600583015460068401549160078501549360096008870154960154968f519b8c9b8c614b79565b0390a1610af68351610acc816146ec565b60188152770d2dcc6e4cac2e6ca40e0dee6d2e8d2dedc40ccd2dcd2e6d60431b6020820152615c4a565b60016101e0515582519182526020820152f35b602090920151610b2292906001600160a01b0316614c25565b38828d610a45565b610b33906146a2565b6101e0518015610a0b5780fd5b6040513d6101e051823e3d90fd5b610b5a919293506146a2565b6101e0518061019c579085929161094c565b604081205492939213159050610db25750610bc6604051610b8c81614707565b602281527f696e637265617365506f736974696f6e2053544f206c6f6e6720646563726561602082015261736560f01b6040820152615c4a565b600c546001600160a01b0316803b1561019f5760405190637c7c829d60e01b82528960048301528460248301526101e0516044830152816064816101e05180945af18015610b4057610d9c575b50886080820151808211600014610ce9575050610c376080610c3d9201518a614970565b83614e91565b610c4e81610c49614b34565b615c99565b600c546001600160a01b0316803b1561019f57898991610c8993604051809581948293637458d9c560e11b84526101e0519760048501614a94565b03916101e051905af18015610b4057610cd3575b50610140600080516020615da7833981519152999794610abb979460409e9a9794600080516020615d8783398151915294610a3d565b610cdc906146a2565b6101e0518015610c9d5780fd5b610cf8925090610c3791614970565b610d0481610c49614aef565b6020820151600c54610d249183916001600160a01b039081169116614c25565b600c546001600160a01b0316803b1561019f57604051916354ab60f960e01b83528960048401526024830152816044816101e05180945af18015610b4057610cd35750610140600080516020615da7833981519152999794610abb979460409e9a9794600080516020615d8783398151915294610a3d565b610da5906146a2565b6101e0518015610c135780fd5b90610dfc604051610dc281614707565b602281527f696e637265617365506f736974696f6e2053544f206c6f6e6720746f2073686f6020820152611c9d60f21b6040820152615c4a565b600c546020820151906001600160a01b0316803b1561019f5760405191637c7c829d60e01b83528b600484015260248301526101e0516044830152816064816101e05180945af18015610b40576110ca575b50896080820151808211600014611030575050610e726080610e789201518b614970565b84614e91565b610e8481610c49614b34565b600c546001600160a01b0316803b1561019f578a8a91610ebf93604051809581948293637458d9c560e11b84526101e0519760048501614a94565b03916101e051905af18015610b405761101a575b505b600c546001600160a01b031690610ef7908a90610ef29086614970565b614e91565b90803b1561019f576040519162a0151560e21b83528960048401526101e05160248401526044830152816064816101e05180945af18015610b4057611004575b50610f8b88604051610f4881614707565b603681527f696e637265617365506f736974696f6e2053544f204c6f6e6720746f2053686f6020820152600080516020615dc78339815191526040820152615c99565b600c546001600160a01b0316803b1561019f5760405190630e13da9f60e11b8252886004830152896024830152816044816101e05180945af18015610b4057610cd35750610140600080516020615da7833981519152999794610abb979460409e9a9794600080516020615d8783398151915294610a3d565b61100d906146a2565b6101e0518015610f375780fd5b611023906146a2565b6101e0518015610ed35780fd5b61103f925090610e7291614970565b61104b81610c49614aef565b6020830151600c5461106b9183916001600160a01b039081169116614c25565b600c546001600160a01b0316803b1561019f57604051916354ab60f960e01b83528a60048401526024830152816044816101e05180945af18015610b40576110b4575b50610ed5565b6110bd906146a2565b6101e05180156110ae5780fd5b6110d3906146a2565b6101e0518015610e4e5780fd5b8086121561167a575090506101e0515260046020526101e051836040822054126000146112b6575061115260405161111781614707565b602381527f696e637265617365506f736974696f6e2053544f2073686f727420696e63726560208201526261736560e81b6040820152615c4a565b600c546001600160a01b031691823b1561019f576040519262a0151560e21b84528b60048501526101e0516024850152826044850152836064816101e05180945af1928315610b40578693611298575b50916109676111ca61097293610967879660806111c16111d09a614905565b91015190614e91565b93614905565b611220816040516111e081614707565b602881527f696e637265617365506f736974696f6e2053544f207570646174652061766572602082015267616765507269636560c01b6040820152615c99565b600c546001600160a01b0316803b1561019f5760405191630e13da9f60e11b83528960048401526024830152816044816101e05180945af18015610b4057610cd35750610140600080516020615da7833981519152999794610abb979460409e9a9794600080516020615d8783398151915294610a3d565b6112a4919293506146a2565b6101e0518061019c57908592916111a2565b6040812054929392121590506113cc57506113116040516112d681614707565b602381527f696e637265617365506f736974696f6e2042544f2073686f727420646563726560208201526261736560e81b6040820152615c4a565b60018060a01b03600c541661132a608083015185614e91565b90803b1561019f5760405191637c7c829d60e01b83528a60048401526101e05160248401526044830152816064816101e05180945af18015610b40576113b6575b5088608082015180821160001461139b575050610c37608061138f9201518a614970565b610c4e81610c49614a4f565b6113aa925090610c3791614970565b610d0481610c49614aaa565b6113bf906146a2565b6101e051801561136b5780fd5b906114166040516113dc81614707565b602281527f696e637265617365506f736974696f6e2042544f2073686f727420746f206c6f6020820152616e6760f01b6040820152615c4a565b600c546060820151906001600160a01b0316803b1561019f5760405191637c7c829d60e01b83528b60048401526101e05160248401526044830152816064816101e05180945af18015610b4057611664575b508960808201518082116000146115de575050610e72608061148c9201518b614970565b61149881610c49614aaa565b6020830151600c546114b89183916001600160a01b039081169116614c25565b600c546001600160a01b0316803b1561019f57604051916354ab60f960e01b83528a60048401526024830152816044816101e05180945af18015610b40576115c8575b505b61151e89610ef261151860018060a01b03600c541694614905565b86614970565b90803b1561019f576040519162a0151560e21b83528960048401526101e05160248401526044830152816064816101e05180945af18015610b40576115b2575b50610f8b8860405161156f81614707565b603681527f696e637265617365506f736974696f6e2042544f204c6f6e6720746f2053686f6020820152600080516020615dc78339815191526040820152615c99565b6115bb906146a2565b6101e051801561155e5780fd5b6115d1906146a2565b6101e05180156114fb5780fd5b6115ed925090610e7291614970565b6115f981610c49614a4f565b600c546001600160a01b0316803b1561019f578a8a9161163493604051809581948293637458d9c560e11b84526101e0519760048501614a94565b03916101e051905af18015610b405761164e575b506114fd565b611657906146a2565b6101e05180156116485780fd5b61166d906146a2565b6101e05180156114685780fd5b9193509193505260046020526101e0516040812054136000146117bd5750506116e16040516116a881614707565b602181527f696e637265617365506f736974696f6e2042544f207a65726f20746f206c6f6e6020820152606760f81b6040820152615c4a565b600c546001600160a01b0316803b1561019f576040519062a0151560e21b82528860048301528360248301526101e0516044830152816064816101e05180945af18015610b40576117a7575b50600c546001600160a01b0316803b1561019f5760405190630e13da9f60e11b8252886004830152896024830152816044816101e05180945af18015610b4057610cd35750610140600080516020615da7833981519152999794610abb979460409e9a9794600080516020615d8783398151915294610a3d565b6117b0906146a2565b6101e051801561172d5780fd5b6118066040516117cc81614707565b602281527f696e637265617365506f736974696f6e2053544f207a65726f20746f2073686f6020820152611c9d60f21b6040820152615c4a565b803b1561019f576040519162a0151560e21b83528960048401526101e05160248401526044830152816064816101e05180945af18015610b405761184b575b50610f8b565b611854906146a2565b6101e05180156118455780fd5b61188391935060c03d811161188a575b61187b8183614722565b8101906149ff565b913861081f565b503d611871565b6040906006602052206118a58582546148c6565b90556106bc565b61067e6118b885614905565b610678565b6118cc826118d2939794614970565b90614970565b60048801556105fc565b99896118e7916148c6565b996119356040516118f781614707565b602681527f696e637265617365506f736974696f6e206c6f6e672074616b652066756e64696020820152656e672066656560d01b6040820152615c4a565b61059a565b6119438b614905565b90866119b1575061195f90600488015461054482821015614916565b600487015561193560405161197381614707565b602681527f696e637265617365506f736974696f6e2073686f7274207061792066756e64696020820152656e672066656560d01b6040820152615c4a565b6119bc929c506148c6565b996119356040516119cc81614707565b602781527f696e637265617365506f736974696f6e2073686f72742074616b652066756e64602082015266696e672066656560c81b6040820152615c4a565b634e487b7160e01b81526011600452602490fd5b5060006103d2565b611a3083615047565b9861038b565b60068801611a56611a4c87610967845486614e91565b61097285856148c6565b9055610355565b50841515610350565b6001850180546001600160a01b038c166001600160a01b03199091161790556002850186905560038501805460ff191660ff8615151617905586600686015561033e565b60405162461bcd60e51b81526020600482015260186024820152771d1c985919481c185a5c881b9bdd081cdd5c1c1bdc9d195960421b6044820152606490fd5b611b0d91955060e03d60e011611b14575b611b058183614722565b8101906147fe565b93876102b2565b503d611afb565b506101e08051339052600160205251604090205460ff1661026d565b3461019f57602036600319011261019f576004356101e051526006602052602060406101e0512054604051908152f35b3461019f57611b753661468c565b3033148015611cdb575b611b88906147ba565b600b54604051632f7ce47360e21b815260048101939093526001600160a01b03929060e0908290602490829087165afa908115610b40576101e05191611cbc575b5082600e541692808251166040519485916341976e0960e01b8352600483015281602460209788935afa8015610b40576101e05190611c88575b611c0e915084614e91565b9381818401511694604051916323b872dd60e01b9083015233602483015230604483015260648201526064815260a08101908082106001600160401b03831117611c7257611c6b95611c6292604052614c76565b33915116614c25565b6101e05180f35b634e487b7160e01b600052604160045260246000fd5b508481813d8311611cb5575b611c9e8183614722565b81010312611cb057611c0e9051611c03565b600080fd5b503d611c94565b611cd5915060e03d60e011611b1457611b058183614722565b83611bc9565b506101e08051339052600160205251604090205460ff16611b7f565b3461019f57602036600319011261019f57611d10615bfe565b506004356101e051526002602052611dab611d3060406101e0512061540a565b604051918291829190916101408101928051825260018060a01b036020820151166020830152604081015160408301526060810151151560608301526080810151608083015260a081015160a083015260c081015160c083015260e081015160e0830152610100808201519083015261012080910151910152565b0390f35b3461019f5760208060031936011261019f57611dc96145f5565b6040516351331ad760e01b81526001600160a01b03919083816004817f000000000000000000000000000000000000000000000000000000000000000087165afa908115610b4057839185916101e05191611f05575b50602460405180948193637be53ca160e01b8352336004840152165afa938415610b40576101e05194611eac575b5050611e797f15828dca8a3c54bc8df99d6b42dba4f0a79568c00f7e1ec53e0b4a3280795d1693614764565b600d80546001600160a01b0319811684841617909155604051928392611ea292909116836147a0565b0390a16101e05180f35b90809450813d8311611efe575b611ec38183614722565b8101031261019f57611e79611ef87f15828dca8a3c54bc8df99d6b42dba4f0a79568c00f7e1ec53e0b4a3280795d1694614757565b93611e4d565b503d611eb9565b92505081813d8311611f35575b611f1c8183614722565b8101031261019f5783611f2f8492614743565b86611e1f565b503d611f12565b3461019f57611f5c611f4d3661461a565b91611f56615bfe565b50615245565b6101e051526002602052611dab611d3060406101e0512061540a565b3461019f57611c6b611f893661468c565b90615543565b3461019f576101e0518060031936011261019c57600c546040516001600160a01b039091168152602090f35b3461019f576101e0518060031936011261019c57600d546040516001600160a01b039091168152602090f35b3461019f57604036600319011261019f576120006145f5565b61200861460b565b6040516351331ad760e01b815290916020916001600160a01b03919083816004817f000000000000000000000000000000000000000000000000000000000000000087165afa908115610b4057839185916101e05191612129575b50602460405180948193630935e01b60e21b8352336004840152165afa908115610b40576101e051916120f4575b50156120c3579060019291166101e05152526120c06101e05191604083209060ff801983541691151516179055565b80f35b60405162461bcd60e51b815260048101849052600960248201526837b7363ca0b236b4b760b91b6044820152606490fd5b90508381813d8311612122575b61210b8183614722565b8101031261019f5761211c90614757565b85612091565b503d612101565b92505081813d8311612159575b6121408183614722565b8101031261019f57836121538492614743565b87612063565b503d612136565b3461019f576101e0518060031936011261019c576020600a54604051908152f35b3461019f57602036600319011261019f576004356101e051526007602052602060406101e0512054604051908152f35b3461019f5760208060031936011261019f5760043560018060a01b0390602460e083600b541660405192838092632f7ce47360e21b82528660048301525afa928315610b405784916101e0519461227a575b5080600e54169351166024604051809581936341976e0960e01b835260048301525afa908115610b40576101e05191612249575b6122419250615910565b604051908152f35b90508282813d8311612273575b6122608183614722565b81010312611cb057612241915190612237565b503d612256565b61229491945060e03d60e011611b1457611b058183614722565b9285612203565b3461019f5760208060031936011261019f576122b56145f5565b6040516351331ad760e01b81526001600160a01b03919083816004817f000000000000000000000000000000000000000000000000000000000000000087165afa908115610b4057839185916101e051916123e7575b50602460405180948193637be53ca160e01b8352336004840152165afa938415610b40576101e0519461238e575b50506123657f9e119484a33fe999c82b75bd1566c4a9bf52d2d56095e96e736f8de6ba0695a793614764565b600c80546001600160a01b0319811684841617909155604051928392611ea292909116836147a0565b90809450813d83116123e0575b6123a58183614722565b8101031261019f576123656123da7f9e119484a33fe999c82b75bd1566c4a9bf52d2d56095e96e736f8de6ba0695a794614757565b93612339565b503d61239b565b92505081813d8311612417575b6123fe8183614722565b8101031261019f57836124118492614743565b8661230b565b503d6123f4565b3461019f5761242c3661464d565b610240959493955260c0526101a05261012052610100523033148015613fc8575b612456906147ba565b61245e614bcf565b600b54604051632f7ce47360e21b815261012051600482015291906001600160a01b031660e083602481845afa928315610b40576101e05193613fa0575b50610100602491604051928380926330a66e1560e01b82526101205160048301525afa908115610b40576101e05191613f64575b5060408101516101a051908110159182613f55575b505015613f21576124ff60c0516101205161010051615245565b80610180526101e051526002602052600160406101e051208060805201806102205260018060a01b0390541615613ee257612540610240516101a051614e91565b61258b81604051612550816146ec565b601b81527a191958dc99585cd9541bdcda5d1a5bdb881cda5e99505b5bdd5b9d602a1b60208201526125806148a1565b906101a05190615d25565b608051600581016101c08190525461264e9181151580613ed9575b613eaf575b506125d66125c6610366866004608051018060a052546148e9565b918260a051556101a05190614970565b90816101c05155604051906125ea82614707565b602482527f6465637265617365506f736974696f6e20706f736974696f6e20636f6c6c6174602083015263195c985b60e21b60408301526040519161262e836146ec565b600e83526d1c1bdcda5d1a5bdb905b5bdd5b9d60921b6020840152615d25565b6101e051821315613ea1576101e0515b80610200526126736102405161012051615543565b61268a6101a05160c05161012051610100516157d7565b61016052610120516101e0515260096020526126ec60406101e05120546040516126b381614707565b602181527f6465637265617365506f736974696f6e206c61737446756e64696e6754696d656020820152607360f81b6040820152615c99565b610120516101e05152600760205261275861270d60406101e051205461505b565b60405161271981614707565b602781527f6465637265617365506f736974696f6e2063756d756c617469766546756e64696020820152666e67526174657360c81b6040820152615cde565b6127a06127676101605161505b565b604051612773816146ec565b601b81527a6465637265617365506f736974696f6e2066756e64696e6746656560281b6020820152615cde565b6101e05161016051908112613dd057505060c05115613d6a576127d960a051546127cf61016051821015614916565b6101605190614970565b60a051556128296040516127ec81614707565b602581527f6465637265617365506f736974696f6e206c6f6e67207061792066756e64696e602082015264672066656560d81b6040820152615c4a565b610120516101e0515260076020526101e0516008604080832054926080519360078501610260526007850155600960205220549181810161028052015561287d610240516101a05160c051610120516156a5565b806101405261289760a05154916105e161020051846148c6565b61014051610200519190808310613d54575050506128bb6101405161020051614970565b610200525b602083015161014051600d546128e2926001600160a01b039182169116614c25565b6129236040516128f1816146ec565b601b81527a6465637265617365506f736974696f6e2074726164696e6746656560281b60208201526101405190615c99565b610120516101e0515260046020526101e051906040822054915060c051600014613d48576129566106786101a051614905565b610120516101e0515260046020526101e05190604082205560c051600014613d2a5750610120516101e05152600560205260406101e0512061299c6101a0518254614970565b90555b6129fc6129ab8361505b565b6040516129b781614707565b602d81527f6465637265617365506f736974696f6e20707265764e65744578706f7375726560208201526c20b6b7bab73a21b432b1b5b2b960991b6040820152615cde565b610120516101e051526004602052612a6a612a1d60406101e051205461505b565b604051612a2981614707565b602981527f6465637265617365506f736974696f6e206e65744578706f73757265416d6f75602082015268373a21b432b1b5b2b960b91b6040820152615cde565b610120516101e051526005602052612acc6101e05160408082205491600660205220549060405190612a9b826146ec565b601c82527b3232b1b932b0b9b2a837b9b4ba34b7b7103637b733aa3930b1b5b2b960211b602083015261032d6149d7565b600c54604051632500ed8d60e21b8152610120516004820152906001600160a01b031660c082602481845afa918215610b40576101e05192613d09575b506101e051808513156135be575050610120516101e0515260046020526101e051836040822054136000146130bb5750612b82604051612b4881614707565b602281527f6465637265617365506f736974696f6e20535443206c6f6e6720696e63726561602082015261736560f01b6040820152615c4a565b600c546001600160a01b0316803b1561019f576040519062a0151560e21b82526101205160048301526101a05160248301526101e0516044830152816064816101e05180945af18015610b40576130a5575b50612bee612bf99392610967608061097294015185614e91565b916101a051906148c6565b612c4981604051612c0981614707565b602881527f6465637265617365506f736974696f6e20535443207570646174652061766572602082015267616765507269636560c01b6040820152615c99565b600c546001600160a01b0316803b1561019f5760405191630e13da9f60e11b83526101205160048401526024830152816044816101e05180945af18015610b405761308f575b505b600e5482516040516341976e0960e01b81526001600160a01b0391821660048201529160209183916024918391165afa908115610b40576101e0519161303b575b50907ff1d296a817e8ecfa2709fcd52c61a6dddc7e87ed697b3ba601e88dbee8849c2092612d52612d20612d17610160956101a051612d1260805161540a565b615488565b8060e05261505b565b604051612d2c816146ec565b6014815273191958dc99585cd9541bdcda5d1a5bdb881c1b9b60621b6020820152615cde565b6101e05160e051908113156130125750612d79612d7060e051615047565b610200516148c6565b610200525b612d9060e051600960805101546148e9565b60096080510155612dd760a05154604051612daa816146ec565b601b81527a191958dc99585cd9541bdcda5d1a5bdb8818dbdb1b185d195c985b602a1b6020820152615c99565b6102005180612fef575b506101c0515415612ed6575b506040519061018051825260018060a01b036101005116602083015261012051604083015260c0511515606083015260808201526101a05160a08201526102405160c08201526101405160e0820152815161010082015260e05161012082015261020051610140820152a1600080516020615da783398151915260a051546101c05154612eae608051926006840154936102605154906009610280515491015491604051968796610240519560c0516101205161010051610180518c614b79565b0390a160016101e05155606060405161014051815261016051602082015260e0516040820152f35b60a0515480612fc6575b5050612f20604051612ef1816146ec565b601f81527f6465637265617365506f736974696f6e20706f736974696f6e20636c6f7365006020820152615c4a565b610180516101e051526002602052600060096101e0516040812090838255806001830155836002830155600382015582600482015582600582015582600682015582600782015582600882015501557f1ffb81f32d2d371994fb39b875fbe035d34386083d2a85a3cf2894709c4581a2608060405161018051815260018060a01b036101005116602082015261012051604082015260c05115156060820152a183612ded565b6020909101516102205154612fe892916001600160a01b039182169116614c25565b8380612ee0565b61010051602083015161300c9291906001600160a01b0316614c25565b84612de1565b6130329061302360a0515491614905565b808210156118cc575080614970565b60a05155612d7e565b9190506020823d602011613087575b8161305760209383614722565b81010312611cb05790517ff1d296a817e8ecfa2709fcd52c61a6dddc7e87ed697b3ba601e88dbee8849c20612cd2565b3d915061304a565b613098906146a2565b6101e0518015612c8f5780fd5b6130ae906146a2565b6101e0518015612bd45780fd5b909291506040812054136000146132af57506131166040516130dc81614707565b602281527f6465637265617365506f736974696f6e20425443206c6f6e6720646563726561602082015261736560f01b6040820152615c4a565b600c546001600160a01b0316803b1561019f5760405190637c7c829d60e01b82526101205160048301526101a05160248301526101e0516044830152816064816101e05180945af18015610b4057613299575b50608001805161024051908082111561321357505061318f613198915161024051614970565b6101a051614e91565b6131a481610c496153c5565b600c546001600160a01b031690813b1561019f576040518092637458d9c560e11b825281806131e36101e0519561024051906101205160048501614a94565b03916101e051905af18015610b40576131fd575b50612c91565b613206906146a2565b6101e05180156131f75780fd5b61322292509061318f91614970565b61322e81610c49615380565b6020830151600c5461324e9183916001600160a01b039081169116614c25565b600c546001600160a01b0316803b1561019f57604051916354ab60f960e01b83526101205160048401526024830152816044816101e05180945af18015610b40576131fd5750612c91565b6132a2906146a2565b6101e05180156131695780fd5b906132f96040516132bf81614707565b602281527f6465637265617365506f736974696f6e20425443206c6f6e6720746f2073686f6020820152611c9d60f21b6040820152615c4a565b600c546020820151906001600160a01b0316803b1561019f5760405191637c7c829d60e01b835261012051600484015260248301526101e0516044830152816064816101e05180945af18015610b40576135a8575b50608001805161024051908082111561350b57505061318f613374915161024051614970565b61338081610c496153c5565b600c546001600160a01b031690813b1561019f576040518092637458d9c560e11b825281806133bf6101e0519561024051906101205160048501614a94565b03916101e051905af18015610b40576134f5575b505b6133f560018060a01b03600c541691610ef261024051916101a051614970565b90803b1561019f576040519162a0151560e21b83526101205160048401526101e05160248401526044830152816064816101e05180945af18015610b40576134df575b5061349060405161344881614707565b603681527f6465637265617365506f736974696f6e20425443204c6f6e6720746f2053686f6020820152600080516020615dc783398151915260408201526102405190615c99565b600c546001600160a01b0316803b1561019f5760405190630e13da9f60e11b8252610120516004830152610240516024830152816044816101e05180945af18015610b40576131fd5750612c91565b6134e8906146a2565b6101e05180156134385780fd5b6134fe906146a2565b6101e05180156133d35780fd5b61351a92509061318f91614970565b61352681610c49615380565b6020840151600c546135469183916001600160a01b039081169116614c25565b600c546001600160a01b0316803b1561019f57604051916354ab60f960e01b83526101205160048401526024830152816044816101e05180945af18015610b4057613592575b506133d5565b61359b906146a2565b6101e051801561358c5780fd5b6135b1906146a2565b6101e051801561334e5780fd5b80851215613b46575050610120516101e0515260046020526101e0518360408220541260001461375c57506136336040516135f881614707565b602381527f6465637265617365506f736974696f6e204254432073686f727420696e63726560208201526261736560e81b6040820152615c4a565b600c546001600160a01b0316803b1561019f576040519062a0151560e21b82526101205160048301526101e0516024830152836044830152816064816101e05180945af18015610b4057613746575b5061369d83926109676109729360806111c16136ab98614905565b916109676101a05191614905565b6136fb816040516136bb81614707565b602881527f6465637265617365506f736974696f6e20425443207570646174652061766572602082015267616765507269636560c01b6040820152615c99565b600c546001600160a01b0316803b1561019f5760405191630e13da9f60e11b83526101205160048401526024830152816044816101e05180945af18015610b40576131fd5750612c91565b61374f906146a2565b6101e05180156136825780fd5b9092915060408120541260001461387e57506137b860405161377d81614707565b602381527f6465637265617365506f736974696f6e205354432073686f727420646563726560208201526261736560e81b6040820152615c4a565b60018060a01b03600c54166137d460808301516101a051614e91565b90803b1561019f5760405191637c7c829d60e01b83526101205160048401526101e05160248401526044830152816064816101e05180945af18015610b4057613868575b50608081015161024051908082111561384d57505061318f608061384192015161024051614970565b6131a481610c496152f6565b61385c92509061318f91614970565b61322e81610c4961533b565b613871906146a2565b6101e05180156138185780fd5b906138c860405161388e81614707565b602281527f6465637265617365506f736974696f6e205354432073686f727420746f206c6f6020820152616e6760f01b6040820152615c4a565b600c546060820151906001600160a01b0316803b1561019f5760405191637c7c829d60e01b83526101205160048401526101e05160248401526044830152816064816101e05180945af18015610b4057613b30575b506080018051610240519080821115613aa657505061318f613943915161024051614970565b61394f81610c4961533b565b6020840151600c5461396f9183916001600160a01b039081169116614c25565b600c546001600160a01b0316803b1561019f57604051916354ab60f960e01b83526101205160048401526024830152816044816101e05180945af18015610b4057613a90575b505b6139df60018060a01b03600c541691610ef26139d66102405192614905565b6101a051614970565b90803b1561019f576040519162a0151560e21b83526101205160048401526101e05160248401526044830152816064816101e05180945af18015610b4057613a7a575b50613490604051613a3281614707565b603681527f6465637265617365506f736974696f6e20535443204c6f6e6720746f2053686f6020820152600080516020615dc783398151915260408201526102405190615c99565b613a83906146a2565b6101e0518015613a225780fd5b613a99906146a2565b6101e05180156139b55780fd5b613ab592509061318f91614970565b613ac181610c496152f6565b600c546001600160a01b031690813b1561019f576040518092637458d9c560e11b82528180613b006101e0519561024051906101205160048501614a94565b03916101e051905af18015610b4057613b1a575b506139b7565b613b23906146a2565b6101e0518015613b145780fd5b613b39906146a2565b6101e051801561391d5780fd5b915091925061012051905260046020526101e051604081205413600014613c69575050613bb1604051613b7881614707565b602181527f6465637265617365506f736974696f6e20535443207a65726f20746f206c6f6e6020820152606760f81b6040820152615c4a565b600c546001600160a01b0316803b1561019f576040519062a0151560e21b82526101205160048301526101a05160248301526101e0516044830152816064816101e05180945af18015610b4057613c53575b50600c546001600160a01b0316803b1561019f5760405190630e13da9f60e11b8252610120516004830152610240516024830152816044816101e05180945af18015610b40576131fd5750612c91565b613c5c906146a2565b6101e0518015613c035780fd5b613cb2604051613c7881614707565b602281527f6465637265617365506f736974696f6e20425443207a65726f20746f2073686f6020820152611c9d60f21b6040820152615c4a565b803b1561019f576040519162a0151560e21b83526101205160048401526101e05160248401526044830152816064816101e05180945af18015610b4057613cfa575b50613490565b613d03906146a2565b82613cf4565b613d2391925060c03d60c01161188a5761187b8183614722565b9086612b09565b604090600660205220613d416101a0518254614970565b905561299f565b6129566101a051610678565b613d61926118cc91614970565b60a051556128c0565b613d7a61016051610200516148c6565b61020052613dcb604051613d8d81614707565b602681527f6465637265617365506f736974696f6e206c6f6e672074616b652066756e64696020820152656e672066656560d01b6040820152615c4a565b612829565b613dd990614905565b60c051613e4657613df5915060a0515461054482821015614916565b60a05155613dcb604051613e0881614707565b602681527f6465637265617365506f736974696f6e2073686f7274207061792066756e64696020820152656e672066656560d01b6040820152615c4a565b613e4f916148c6565b61020052613dcb604051613e6281614707565b602781527f6465637265617365506f736974696f6e2073686f72742074616b652066756e64602082015266696e672066656560c81b6040820152615c4a565b613eaa82615047565b61265e565b600601613ed1613ec485610967845486614e91565b6109726101a051856148c6565b9055856125ab565b508315156125a6565b60405162461bcd60e51b81526020600482015260176024820152761c1bdcda5d1a5bdb88185b1c9958591e4818db1bdcd959604a1b6044820152606490fd5b60405162461bcd60e51b815260206004820152600c60248201526b696e76616c69642073697a6560a01b6044820152606490fd5b606001511015905083806124e5565b90506101003d61010011613f99575b613f7d8183614722565b81016101008282031261019f57613f9391615280565b836124d0565b503d613f73565b6024919350613fc06101009160e03d60e011611b1457611b058183614722565b93915061249c565b506101e08051339052600160205251604090205460ff1661244d565b3461019f5760a036600319011261019f57600435801515810361019f57602435906001600160a01b038216820361019f5760643591821515830361019f57602092612241926084359260443591615887565b3461019f5760208060031936011261019f576140506145f5565b6040516351331ad760e01b81526001600160a01b03919083816004817f000000000000000000000000000000000000000000000000000000000000000087165afa908115610b4057839185916101e05191614182575b50602460405180948193637be53ca160e01b8352336004840152165afa938415610b40576101e05194614129575b50506141007f6989bf2024ce0e244f6a01d548e719e3198628e79cb1fab8e1e856473d17305093614764565b600b80546001600160a01b0319811684841617909155604051928392611ea292909116836147a0565b90809450813d831161417b575b6141408183614722565b8101031261019f576141006141757f6989bf2024ce0e244f6a01d548e719e3198628e79cb1fab8e1e856473d17305094614757565b936140d4565b503d614136565b92505081813d83116141b2575b6141998183614722565b8101031261019f57836141ac8492614743565b866140a6565b503d61418f565b3461019f57602036600319011261019f576004356101e05152600260205261014060406101e0512080549060018060a01b0360018201541690600281015460ff60038301541660048301546005840154906006850154926007860154946009600888015497015497604051998a5260208a0152604089015215156060880152608087015260a086015260c085015260e0840152610100830152610120820152f35b3461019f57602036600319011261019f576001600160a01b0361427b6145f5565b166101e051526001602052602060ff60406101e0512054166040519015158152f35b3461019f5760208060031936011261019f576040516351331ad760e01b81526004803592916001600160a01b039183908290817f000000000000000000000000000000000000000000000000000000000000000086165afa8015610b405783916101e051916143dc575b50602460405180948193637be53ca160e01b8352336004840152165afa908115610b40576101e0519161437b575b7f2671c06c8f001757af00d7be47b46a5eed07be3b5ce4fa7260e8b210504353246040848661436386614764565b600a549181600a558351928352820152a16101e05180f35b9180915082813d83116143d5575b6143938183614722565b8101031261019f577f2671c06c8f001757af00d7be47b46a5eed07be3b5ce4fa7260e8b21050435324926143636143cb604094614757565b9293505092614335565b503d614389565b82819392503d831161440b575b6143f38183614722565b8101031261019f576144058391614743565b85614307565b503d6143e9565b3461019f57606036600319011261019f57600435602461443061460b565b600b54604051632f7ce47360e21b815260048101859052926001600160a01b039160e0918591829085165afa928315610b40576101e051936144e8575b5080602091600e54169351166024604051809581936341976e0960e01b835260048301525afa918215610b40576101e051926144b4575b60206122418460443585886156a5565b91506020823d82116144e0575b816144ce60209383614722565b8101031261019f5790519060206144a4565b3d91506144c1565b60209193506145059060e03d60e011611b1457611b058183614722565b929061446d565b3461019f57602036600319011261019f576004356101e051526005602052602060406101e0512054604051908152f35b3461019f57602036600319011261019f576004356101e051526009602052602060406101e0512054604051908152f35b3461019f576101e0518060031936011261019c576040517f00000000000000000000000000000000000000000000000000000000000000006001600160a01b03168152602090f35b3461019f5760206122416145c73661461a565b91615245565b34611cb0576020366003190112611cb057602090600435600052600482526040600020548152f35b600435906001600160a01b0382168203611cb057565b602435908115158203611cb057565b6060906003190112611cb0576004356001600160a01b0381168103611cb05790602435906044358015158103611cb05790565b60c0906003190112611cb0576004356001600160a01b0381168103611cb057906024359060443590606435906084358015158103611cb0579060a43590565b6040906003190112611cb0576004359060243590565b6001600160401b038111611c7257604052565b60c081019081106001600160401b03821117611c7257604052565b61014081019081106001600160401b03821117611c7257604052565b604081019081106001600160401b03821117611c7257604052565b606081019081106001600160401b03821117611c7257604052565b90601f801991011681019081106001600160401b03821117611c7257604052565b51906001600160a01b0382168203611cb057565b51908115158203611cb057565b1561476b57565b60405162461bcd60e51b815260206004820152600d60248201526c37b7363ca837b7b620b236b4b760991b6044820152606490fd5b6001600160a01b0391821681529116602082015260400190565b156147c157565b60405162461bcd60e51b81526020600482015260156024820152742430b7323632b0b136329d103337b93134b23232b760591b6044820152606490fd5b908160e0910312611cb0576040519060e08201908282106001600160401b03831117611c725760c09160405261483381614743565b835261484160208201614743565b602084015261485260408201614743565b604084015261486360608201614757565b60608401526080810151608084015260a081015160a0840152015160c082015290565b6001600160401b038111611c7257601f01601f191660200190565b604051906148ae826146ec565b600982526873697a6544656c746160b81b6020830152565b919082018092116148d357565b634e487b7160e01b600052601160045260246000fd5b919091600083820193841291129080158216911516176148d357565b600160ff1b81146148d35760000390565b1561491d57565b60405162461bcd60e51b815260206004820152602560248201527f636f6c6c61746572616c206e6f7420656e6f75676820666f722066756e64696e604482015264672066656560d81b6064820152608490fd5b919082039182116148d357565b1561498457565b60405162461bcd60e51b815260206004820152602560248201527f636f6c6c61746572616c206e6f7420656e6f75676820666f722074726164696e604482015264672066656560d81b6064820152608490fd5b604051906149e4826146ec565b600c82526b39b437b93a2a3930b1b5b2b960a11b6020830152565b908160c0910312611cb05760a060405191614a19836146b5565b8051835260208101516020840152604081015160408401526060810151606084015260808101516080840152015160a082015290565b60405190614a5c82614707565b6023825262199a5d60ea1b6040837f696e637265617365506f736974696f6e2042544f20646563726561736550726f60208201520152565b6040919493926060820195825260208201520152565b60405190614ab782614707565b6023825262199a5d60ea1b6040837f696e637265617365506f736974696f6e2042544f20696e63726561736550726f60208201520152565b60405190614afc82614707565b6023825262199a5d60ea1b6040837f696e637265617365506f736974696f6e2053544f20696e63726561736550726f60208201520152565b60405190614b4182614707565b6023825262199a5d60ea1b6040837f696e637265617365506f736974696f6e2053544f20646563726561736550726f60208201520152565b979491926101409996939c9b9a9794919c6101608a019d8a5260018060a01b031660208a0152604089015215156060880152608087015260a086015260c085015260e08401526101008301526101208201520152565b600260005414614be0576002600055565b60405162461bcd60e51b815260206004820152601f60248201527f5265656e7472616e637947756172643a207265656e7472616e742063616c6c006044820152606490fd5b60405163a9059cbb60e01b60208201526001600160a01b03909216602483015260448083019390935291815260808101916001600160401b03831182841017611c7257614c7492604052614c76565b565b60018060a01b031690614cf3604051614c8e816146ec565b6020938482527f5361666545524332303a206c6f772d6c6576656c2063616c6c206661696c6564858301526000808587829751910182855af13d15614d88573d91614cd883614886565b92614ce66040519485614722565b83523d868885013e614d8c565b90815190838215928315614d66575b505050905015614d0f5750565b6084906040519062461bcd60e51b82526004820152602a60248201527f5361666545524332303a204552433230206f7065726174696f6e20646964206e6044820152691bdd081cdd58d8d9595960b21b6064820152fd5b84809293945001031261019c575081614d7f9101614757565b80388381614d02565b6060915b91929015614dee5750815115614da0575090565b3b15614da95790565b60405162461bcd60e51b815260206004820152601d60248201527f416464726573733a2063616c6c20746f206e6f6e2d636f6e74726163740000006044820152606490fd5b825190915015614e015750805190602001fd5b60405162461bcd60e51b815260206004820152908190614e25906024830190614e4c565b0390fd5b60005b838110614e3c5750506000910152565b8181015183820152602001614e2c565b90602091614e6581518092818552858086019101614e29565b601f01601f1916010190565b8115614e7b570490565b634e487b7160e01b600052601260045260246000fd5b9060001981830981830291828083109203918083039214614f355768327cb2734119d3b7a9601e1b9082821115614ef8577f7d33c22789773a07feda8b6f0930e26fa397c439f1d5cf4b2eb27d7306d2dc99940990828211900360e21b9103601e1c170290565b60405162461bcd60e51b81526020600482015260156024820152744d6174683a206d756c446976206f766572666c6f7760581b6044820152606490fd5b505068327cb2734119d3b7a9601e1b9004919050565b9068327cb2734119d3b7a9601e1b906000198284099282810292838086109503948086039514614fcf5784831115614ef8578291096001821901821680920460028082600302188083028203028083028203028083028203028083028203028083028203028092029003029360018380600003040190848311900302920304170290565b505090614fdc9250614e71565b90565b906000198183098183029182808310920391808303921461503c576127109082821115614ef8577fbc01a36e2eb1c432ca57a786c226809d495182a9930be0ded288ce703afb7e91940990828211900360fc1b910360041c170290565b505061271091500490565b600081126150525790565b614fdc90614905565b600081126152225760405160208101908082106001600160401b03831117611c725761508e916040526000815291615047565b6000908072184f03e93ff9f4daa797ed6e38ed64bf6a1f0160401b80821015615214575b506904ee2d6d415b85acef8160201b80821015615207575b50662386f26fc10000808210156151fa575b506305f5e100808210156151ed575b50612710808210156151e0575b5060648110156151d2575b600a809110156151c8575b60018084019281602161513961512387614886565b966151316040519889614722565b808852614886565b602087019790601f1901368937860101905b615192575b5050505061518692614fdc9260209260405195836151778895518092888089019101614e29565b84019151809386840190614e29565b01038084520182614722565b600019019083906f181899199a1a9b1b9c1cb0b131b232b360811b8282061a8353049182156151c35791908261514b565b615150565b916001019161510e565b606460029104920191615103565b60049104920191386150f8565b60089104920191386150eb565b60109104920191386150dc565b60209104920191386150ca565b6040935082049050386150b2565b61508e604051615231816146ec565b60018152602d60f81b602082015291615047565b9160405191602083019360018060601b03199060601b1684526034830152151560f81b60548201526035815261527a81614707565b51902090565b8092916101009182910312611cb0576040519081018181106001600160401b03821117611c725760405260e0808294805184526020810151602085015260408101516040850152606081015160608501526080810151608085015260a081015160a085015260c081015160c08501520151910152565b6040519061530382614707565b6023825262199a5d60ea1b6040837f6465637265617365506f736974696f6e2053544320646563726561736550726f60208201520152565b6040519061534882614707565b6023825262199a5d60ea1b6040837f6465637265617365506f736974696f6e2053544320696e63726561736550726f60208201520152565b6040519061538d82614707565b6023825262199a5d60ea1b6040837f6465637265617365506f736974696f6e2042544320696e63726561736550726f60208201520152565b604051906153d282614707565b6023825262199a5d60ea1b6040837f6465637265617365506f736974696f6e2042544320646563726561736550726f60208201520152565b90604051615417816146d0565b8254815260018301546001600160a01b0316602082015260028301546040820152600383015460ff161515606082015260048301546080820152600583015460a0820152600683015460c0820152600783015460e08201526008830154610100820152600990920154610120830152565b60c08101908151908185146155035760600151156154d957508051808411156154c15750614fdc926154bb915190614970565b90614e91565b6154d4929150614fdc936154bb91614970565b614905565b838111156154f05750614fdc926154bb9151614970565b6154d49291506154bb90614fdc94614970565b5050505050600090565b818102929181159184041417156148d357565b818102929160008212600160ff1b8214166148d35781840514901517156148d357565b906000908282526020916009835260409182822054156156875761556a8383205442614970565b600a5480911061563457916155ea8694926155e46155c96155c2606099977f30ee8c76a6febcb0400fb07183d873b5c18cf9e5ca6a47104676795b989c606d9b8752600989526155bd8888205442614970565b614e71565b9288615910565b91878552600887528286862055600787528585205492615520565b906148e9565b848252600784528282205561560a600a546156058142614e71565b61550d565b848252600984528282205560078352818082205491600985522054928251948552840152820152a1565b505050614c749250807f75706461746543756d756c617469766546756e64696e6752617465206e6f206e696565642075706461746560b01b92519361567885614707565b602a8552840152820152615c4a565b50909160099061569d600a546156058142614e71565b948352522055565b916024936156b291614e91565b9160018060a01b03600b54169060c0604092835196878092630da67fe760e01b82528560048301525afa9485156157b15760009561573b575b5060009081526004602052908120541261571d571561570f57614fdc915190614fdf565b6020614fdc92015190614fdf565b15615730576020614fdc92015190614fdf565b614fdc915190614fdf565b909460c0823d82116157a9575b8161575560c09383614722565b8101031261019c57509060009160a0825191615770836146b5565b805183526020810151602084015283810151848401526060810151606084015260808101516080840152015160a08201529490916156eb565b3d9150615748565b82513d6000823e3d90fd5b8115614e7b57600160ff1b81146000198314166148d3570590565b91816157e4929493615245565b91600092835260026020526157fb6040842061540a565b9161580b61010084015142614970565b600a5490818110615859575050508252600760205260408220549160e082015192818482039412818512811691851390151617611a0b5750620f42409160a0615855920151615520565b0590565b615855945061587c906040876158819596620f4240995260086020522054615520565b6157bc565b90615520565b928261589292615245565b92600093845260026020526158a96040852061540a565b926158b961010085015142614970565b600a5491828210615905575b505050508252600760205260408220549160e082015192818482039412818512811691851390151617611a0b5750620f42409160a0615855920151615520565b1561585957806158c5565b91909160018060a01b0380600b5416604091825163694b193160e11b81528060049386858301528160246101009384935afa918215615bf357600092615bba575b505084600052602091838352600085812054121585600091600014615ba9575050856000528383528460002054975b858301519887600052600585526159a48760002054600687528860002054906148c6565b91606085015193600c54169060c08a60248b5180958193632500ed8d60e21b83528d8301525afa918215615b9e5790615a0d9291600092615b76575b506159f7615a0791610ef284518b86015190614970565b9160608b82015191015190614970565b906148c6565b91615a18828c61550d565b620f42409182820291808304841490151715615b615790615a3c615a42928761550d565b90614e71565b9a8103908111615b4c5792615a3c6000999a9b93615a66615a0794615a6c9761550d565b9261550d565b8260808301918251928893808310158a14615b0f5750615a8f9293505190614970565b82518082108814615b075750915b01518082118614615b0057505b945b615af2868551615abb81614707565b602181527f67657443757272656e7446756e64696e67526174652066756e64696e6752617485820152606560f81b87820152615c99565b845252812054126150525790565b9050615aaa565b905091615a9d565b615b1a929150614970565b83518082108914615b445750925b015190508082118614615b3d57505b94615aac565b9050615b37565b905092615b28565b601187634e487b7160e01b6000525260246000fd5b601189634e487b7160e01b6000525260246000fd5b615a07919250615b966159f79160c03d811161188a5761187b8183614722565b9291506159e0565b89513d6000823e3d90fd5b615bb4912054614905565b97615980565b9091823d8411615bec575b615bcf8184614722565b8201928284031261019c575090615be591615280565b3880615951565b503d615bc5565b85513d6000823e3d90fd5b60405190615c0b826146d0565b816101206000918281528260208201528260408201528260608201528260808201528260a08201528260c08201528260e0820152826101008201520152565b60008091604051615c8681615c78602082019463104c13eb60e21b8652602060248401526044830190614e4c565b03601f198101835282614722565b51906a636f6e736f6c652e6c6f675afa50565b600091908291615c866040518092615cca6020830195632d839cb360e21b8752604060248501526064840190614e4c565b90604483015203601f198101835282614722565b60009190615c78615c868493604051928391615d136020840196634b5c427760e01b8852604060248601526064850190614e4c565b83810360231901604485015290614e4c565b90615c86600094938594615d72604051948593615d5b602086019863c67ea9d160e01b8a526080602488015260a4870190614e4c565b916044860152602319858303016064860152614e4c565b90608483015203601f19810183528261472256fe07777c9f149d310fb8670fb9752de106d0ebc29093eb6df2be370406a7d742a39a23c22b6372bd11ffa0aced0db638ca7c144fc3996ecc8fbe3f9a639ef285ad7274207570646174652061766572616765507269636500000000000000000000a2646970667358221220294f915e8f0a35b770d15ef7e7154e4e7f6b4ec8f36858c349e3c04b7fef7ec264736f6c63430008110033",
  "devdoc": {
    "kind": "dev",
    "methods": {},
    "version": 1
  },
  "userdoc": {
    "kind": "user",
    "methods": {},
    "version": 1
  },
  "storageLayout": {
    "storage": [
      {
        "astId": 1095,
        "contract": "contracts/trading/TradingVault.sol:TradingVault",
        "label": "_status",
        "offset": 0,
        "slot": "0",
        "type": "t_uint256"
      },
      {
        "astId": 6539,
        "contract": "contracts/trading/TradingVault.sol:TradingVault",
        "label": "isHandler",
        "offset": 0,
        "slot": "1",
        "type": "t_mapping(t_address,t_bool)"
      },
      {
        "astId": 17933,
        "contract": "contracts/trading/TradingVault.sol:TradingVault",
        "label": "positions",
        "offset": 0,
        "slot": "2",
        "type": "t_mapping(t_bytes32,t_struct(Info)6019_storage)"
      },
      {
        "astId": 17938,
        "contract": "contracts/trading/TradingVault.sol:TradingVault",
        "label": "isFrozen",
        "offset": 0,
        "slot": "3",
        "type": "t_mapping(t_address,t_bool)"
      },
      {
        "astId": 17943,
        "contract": "contracts/trading/TradingVault.sol:TradingVault",
        "label": "netExposureAmountChecker",
        "offset": 0,
        "slot": "4",
        "type": "t_mapping(t_uint256,t_int256)"
      },
      {
        "astId": 17948,
        "contract": "contracts/trading/TradingVault.sol:TradingVault",
        "label": "longTracker",
        "offset": 0,
        "slot": "5",
        "type": "t_mapping(t_uint256,t_uint256)"
      },
      {
        "astId": 17953,
        "contract": "contracts/trading/TradingVault.sol:TradingVault",
        "label": "shortTracker",
        "offset": 0,
        "slot": "6",
        "type": "t_mapping(t_uint256,t_uint256)"
      },
      {
        "astId": 17957,
        "contract": "contracts/trading/TradingVault.sol:TradingVault",
        "label": "cumulativeFundingRates",
        "offset": 0,
        "slot": "7",
        "type": "t_mapping(t_uint256,t_int256)"
      },
      {
        "astId": 17961,
        "contract": "contracts/trading/TradingVault.sol:TradingVault",
        "label": "lastFundingRates",
        "offset": 0,
        "slot": "8",
        "type": "t_mapping(t_uint256,t_int256)"
      },
      {
        "astId": 17965,
        "contract": "contracts/trading/TradingVault.sol:TradingVault",
        "label": "lastFundingTimes",
        "offset": 0,
        "slot": "9",
        "type": "t_mapping(t_uint256,t_uint256)"
      },
      {
        "astId": 17967,
        "contract": "contracts/trading/TradingVault.sol:TradingVault",
        "label": "fundingInterval",
        "offset": 0,
        "slot": "10",
        "type": "t_uint256"
      },
      {
        "astId": 17970,
        "contract": "contracts/trading/TradingVault.sol:TradingVault",
        "label": "pairInfo",
        "offset": 0,
        "slot": "11",
        "type": "t_contract(IPairInfo)11580"
      },
      {
        "astId": 17973,
        "contract": "contracts/trading/TradingVault.sol:TradingVault",
        "label": "pairVault",
        "offset": 0,
        "slot": "12",
        "type": "t_contract(IPairVault)11675"
      },
      {
        "astId": 17975,
        "contract": "contracts/trading/TradingVault.sol:TradingVault",
        "label": "tradingFeeReceiver",
        "offset": 0,
        "slot": "13",
        "type": "t_address"
      },
      {
        "astId": 17978,
        "contract": "contracts/trading/TradingVault.sol:TradingVault",
        "label": "vaultPriceFeed",
        "offset": 0,
        "slot": "14",
        "type": "t_contract(IOraclePriceFeed)5810"
      }
    ],
    "types": {
      "t_address": {
        "encoding": "inplace",
        "label": "address",
        "numberOfBytes": "20"
      },
      "t_bool": {
        "encoding": "inplace",
        "label": "bool",
        "numberOfBytes": "1"
      },
      "t_bytes32": {
        "encoding": "inplace",
        "label": "bytes32",
        "numberOfBytes": "32"
      },
      "t_contract(IPairInfo)11580": {
        "encoding": "inplace",
        "label": "contract IPairInfo",
        "numberOfBytes": "20"
      },
      "t_contract(IPairVault)11675": {
        "encoding": "inplace",
        "label": "contract IPairVault",
        "numberOfBytes": "20"
      },
      "t_contract(IOraclePriceFeed)5810": {
        "encoding": "inplace",
        "label": "contract IOraclePriceFeed",
        "numberOfBytes": "20"
      },
      "t_int256": {
        "encoding": "inplace",
        "label": "int256",
        "numberOfBytes": "32"
      },
      "t_mapping(t_address,t_bool)": {
        "encoding": "mapping",
        "key": "t_address",
        "label": "mapping(address => bool)",
        "numberOfBytes": "32",
        "value": "t_bool"
      },
      "t_mapping(t_bytes32,t_struct(Info)6019_storage)": {
        "encoding": "mapping",
        "key": "t_bytes32",
        "label": "mapping(bytes32 => struct Position.Info)",
        "numberOfBytes": "32",
        "value": "t_struct(Info)6019_storage"
      },
      "t_mapping(t_uint256,t_int256)": {
        "encoding": "mapping",
        "key": "t_uint256",
        "label": "mapping(uint256 => int256)",
        "numberOfBytes": "32",
        "value": "t_int256"
      },
      "t_mapping(t_uint256,t_uint256)": {
        "encoding": "mapping",
        "key": "t_uint256",
        "label": "mapping(uint256 => uint256)",
        "numberOfBytes": "32",
        "value": "t_uint256"
      },
      "t_struct(Info)6019_storage": {
        "encoding": "inplace",
        "label": "struct Position.Info",
        "members": [
          {
            "astId": 6000,
            "contract": "contracts/trading/TradingVault.sol:TradingVault",
            "label": "key",
            "offset": 0,
            "slot": "0",
            "type": "t_bytes32"
          },
          {
            "astId": 6002,
            "contract": "contracts/trading/TradingVault.sol:TradingVault",
            "label": "account",
            "offset": 0,
            "slot": "1",
            "type": "t_address"
          },
          {
            "astId": 6004,
            "contract": "contracts/trading/TradingVault.sol:TradingVault",
            "label": "pairIndex",
            "offset": 0,
            "slot": "2",
            "type": "t_uint256"
          },
          {
            "astId": 6006,
            "contract": "contracts/trading/TradingVault.sol:TradingVault",
            "label": "isLong",
            "offset": 0,
            "slot": "3",
            "type": "t_bool"
          },
          {
            "astId": 6008,
            "contract": "contracts/trading/TradingVault.sol:TradingVault",
            "label": "collateral",
            "offset": 0,
            "slot": "4",
            "type": "t_uint256"
          },
          {
            "astId": 6010,
            "contract": "contracts/trading/TradingVault.sol:TradingVault",
            "label": "positionAmount",
            "offset": 0,
            "slot": "5",
            "type": "t_uint256"
          },
          {
            "astId": 6012,
            "contract": "contracts/trading/TradingVault.sol:TradingVault",
            "label": "averagePrice",
            "offset": 0,
            "slot": "6",
            "type": "t_uint256"
          },
          {
            "astId": 6014,
            "contract": "contracts/trading/TradingVault.sol:TradingVault",
            "label": "entryFundingRate",
            "offset": 0,
            "slot": "7",
            "type": "t_int256"
          },
          {
            "astId": 6016,
            "contract": "contracts/trading/TradingVault.sol:TradingVault",
            "label": "entryFundingTime",
            "offset": 0,
            "slot": "8",
            "type": "t_uint256"
          },
          {
            "astId": 6018,
            "contract": "contracts/trading/TradingVault.sol:TradingVault",
            "label": "realisedPnl",
            "offset": 0,
            "slot": "9",
            "type": "t_int256"
          }
        ],
        "numberOfBytes": "320"
      },
      "t_uint256": {
        "encoding": "inplace",
        "label": "uint256",
        "numberOfBytes": "32"
      }
    }
  }
}