{
  "address": "0xCf7Ed3AccA5a467e9e704C703E8D87F634fB0Fc9",
  "abi": [
    {
      "anonymous": false,
      "inputs": [
        {
          "indexed": true,
          "internalType": "bytes32",
          "name": "id",
          "type": "bytes32"
        },
        {
          "indexed": true,
          "internalType": "address",
          "name": "oldAddress",
          "type": "address"
        },
        {
          "indexed": true,
          "internalType": "address",
          "name": "newAddress",
          "type": "address"
        }
      ],
      "name": "AddressSet",
      "type": "event"
    },
    {
      "anonymous": false,
      "inputs": [
        {
          "indexed": true,
          "internalType": "address",
          "name": "previousOwner",
          "type": "address"
        },
        {
          "indexed": true,
          "internalType": "address",
          "name": "newOwner",
          "type": "address"
        }
      ],
      "name": "OwnershipTransferred",
      "type": "event"
    },
    {
      "inputs": [
        {
          "internalType": "bytes32",
          "name": "id",
          "type": "bytes32"
        }
      ],
      "name": "getAddress",
      "outputs": [
        {
          "internalType": "address",
          "name": "",
          "type": "address"
        }
      ],
      "stateMutability": "view",
      "type": "function"
    },
    {
      "inputs": [],
      "name": "getIndexPriceOracle",
      "outputs": [
        {
          "internalType": "address",
          "name": "",
          "type": "address"
        }
      ],
      "stateMutability": "view",
      "type": "function"
    },
    {
      "inputs": [],
      "name": "getPriceOracle",
      "outputs": [
        {
          "internalType": "address",
          "name": "",
          "type": "address"
        }
      ],
      "stateMutability": "view",
      "type": "function"
    },
    {
      "inputs": [],
      "name": "getRoleManager",
      "outputs": [
        {
          "internalType": "address",
          "name": "",
          "type": "address"
        }
      ],
      "stateMutability": "view",
      "type": "function"
    },
    {
      "inputs": [],
      "name": "owner",
      "outputs": [
        {
          "internalType": "address",
          "name": "",
          "type": "address"
        }
      ],
      "stateMutability": "view",
      "type": "function"
    },
    {
      "inputs": [],
      "name": "renounceOwnership",
      "outputs": [],
      "stateMutability": "nonpayable",
      "type": "function"
    },
    {
      "inputs": [
        {
          "internalType": "bytes32",
          "name": "id",
          "type": "bytes32"
        },
        {
          "internalType": "address",
          "name": "newAddress",
          "type": "address"
        }
      ],
      "name": "setAddress",
      "outputs": [],
      "stateMutability": "nonpayable",
      "type": "function"
    },
    {
      "inputs": [
        {
          "internalType": "address",
          "name": "newIndexPriceOracle",
          "type": "address"
        }
      ],
      "name": "setIndexPriceOracle",
      "outputs": [],
      "stateMutability": "nonpayable",
      "type": "function"
    },
    {
      "inputs": [
        {
          "internalType": "address",
          "name": "newPriceOracle",
          "type": "address"
        }
      ],
      "name": "setPriceOracle",
      "outputs": [],
      "stateMutability": "nonpayable",
      "type": "function"
    },
    {
      "inputs": [
        {
          "internalType": "address",
          "name": "newAddress",
          "type": "address"
        }
      ],
      "name": "setRolManager",
      "outputs": [],
      "stateMutability": "nonpayable",
      "type": "function"
    },
    {
      "inputs": [
        {
          "internalType": "address",
          "name": "newOwner",
          "type": "address"
        }
      ],
      "name": "transferOwnership",
      "outputs": [],
      "stateMutability": "nonpayable",
      "type": "function"
    }
  ],
  "transactionHash": "0x305a94a547f503c157fb3ac20f1ab32e92fd7274bbcd81f938821dd97ac53eae",
  "args": [],
  "numDeployments": 1,
  "solcInputHash": "9ce0898a40e355ab77796fdd89d67afc",
  "bytecode": "0x6080806040523461005b5760008054336001600160a01b0319821681178355916001600160a01b03909116907f8be0079c531659141344cd1fd0a4f28419497f9722a3daafe3b4186f6b6457e09080a361063e90816100618239f35b600080fdfe608060408181526004918236101561001657600080fd5b600092833560e01c91826321f8a721146105465750816330a81a21146104cb57816351331ad71461048a578163530e784f146104155781635ac6248a146102e1578163715018a6146102845781638da5cb5b1461025c578163bdadaab614610215578163ca446dd9146101a8578163f2fde38b146100e1575063fca513a81461009e57600080fd5b346100dd57816003193601126100dd576b50524943455f4f5241434c4560a01b825260016020908152918190205490516001600160a01b039091168152f35b5080fd5b9050346101a45760203660031901126101a4576100fc610575565b90610105610590565b6001600160a01b0391821692831561015257505082546001600160a01b0319811683178455167f8be0079c531659141344cd1fd0a4f28419497f9722a3daafe3b4186f6b6457e08380a380f35b906020608492519162461bcd60e51b8352820152602660248201527f4f776e61626c653a206e6577206f776e657220697320746865207a65726f206160448201526564647265737360d01b6064820152fd5b8280fd5b9050346101a457816003193601126101a4576024356001600160a01b0381811693923591849003610211576101db610590565b818552600160205291842080546001600160a01b031981168517909155909116906000805160206105e98339815191528480a480f35b8480fd5b5050346100dd57816003193601126100dd5771494e4445585f50524943455f4f5241434c4560701b825260016020908152918190205490516001600160a01b039091168152f35b5050346100dd57816003193601126100dd57905490516001600160a01b039091168152602090f35b83346102de57806003193601126102de5761029d610590565b80546001600160a01b03198116825581906001600160a01b03167f8be0079c531659141344cd1fd0a4f28419497f9722a3daafe3b4186f6b6457e08280a380f35b80fd5b919050346101a45760209081600319360112610411576102ff610575565b90610308610590565b80516001600160a01b03928316949080830167ffffffffffffffff8111828210176103fe578352818152630697320360e41b8582015285156103a65750506b2927a622afa6a0a720a3a2a960a11b918286526001845260018183882054169461036f610590565b8488525290852080546001600160a01b0319811686179091556000805160206105e98339815191529185911683838880a48480a480f35b90848781945194859362461bcd60e51b8552840152835191826024850152815b8381106103e757505060448094508284010152601f80199101168101030190fd5b8086018201518782016044015286945081016103c6565b634e487b7160e01b885260418352602488fd5b8380fd5b5050346100dd5760203660031901126100dd57610430610575565b90610439610590565b6b50524943455f4f5241434c4560a01b808452600160205290832080546001600160a01b039384166001600160a01b031982168117909255909216906000805160206105e98339815191528480a480f35b5050346100dd57816003193601126100dd576b2927a622afa6a0a720a3a2a960a11b825260016020908152918190205490516001600160a01b039091168152f35b5050346100dd5760203660031901126100dd576104e6610575565b906104ef610590565b71494e4445585f50524943455f4f5241434c4560701b808452600160205290832080546001600160a01b039384166001600160a01b031982168117909255909216906000805160206105e98339815191528480a480f35b8484346100dd5760203660031901126100dd579235815260016020908152929020546001600160a01b03168152f35b600435906001600160a01b038216820361058b57565b600080fd5b6000546001600160a01b031633036105a457565b606460405162461bcd60e51b815260206004820152602060248201527f4f776e61626c653a2063616c6c6572206973206e6f7420746865206f776e65726044820152fdfe9ef0e8c8e52743bb38b83b17d9429141d494b8041ca6d616a6c77cebae9cd8b7a2646970667358221220c567f44d6de2441b49659422ba33c9f0d257b0398a044837aeeedf4882d7ccb764736f6c63430008110033",
  "devdoc": {
    "kind": "dev",
    "methods": {
      "owner()": {
        "details": "Returns the address of the current owner."
      },
      "renounceOwnership()": {
        "details": "Leaves the contract without owner. It will not be possible to call `onlyOwner` functions. Can only be called by the current owner. NOTE: Renouncing ownership will leave the contract without an owner, thereby disabling any functionality that is only available to the owner."
      },
      "transferOwnership(address)": {
        "details": "Transfers ownership of the contract to a new account (`newOwner`). Can only be called by the current owner."
      }
    },
    "version": 1
  },
  "userdoc": {
    "kind": "user",
    "methods": {},
    "version": 1
  },
  "storageLayout": {
    "storage": [
      {
        "astId": 979,
        "contract": "contracts/AddressesProvider.sol:AddressesProvider",
        "label": "_owner",
        "offset": 0,
        "slot": "0",
        "type": "t_address"
      },
      {
        "astId": 4173,
        "contract": "contracts/AddressesProvider.sol:AddressesProvider",
        "label": "_addresses",
        "offset": 0,
        "slot": "1",
        "type": "t_mapping(t_bytes32,t_address)"
      }
    ],
    "types": {
      "t_address": {
        "encoding": "inplace",
        "label": "address",
        "numberOfBytes": "20"
      },
      "t_bytes32": {
        "encoding": "inplace",
        "label": "bytes32",
        "numberOfBytes": "32"
      },
      "t_mapping(t_bytes32,t_address)": {
        "encoding": "mapping",
        "key": "t_bytes32",
        "label": "mapping(bytes32 => address)",
        "numberOfBytes": "32",
        "value": "t_address"
      }
    }
  }
}