{
  "address": "0x0355B7B8cb128fA5692729Ab3AAa199C1753f726",
  "abi": [
    {
      "inputs": [
        {
          "internalType": "contract IAddressesProvider",
          "name": "_addressProvider",
          "type": "address"
        }
      ],
      "stateMutability": "nonpayable",
      "type": "constructor"
    },
    {
      "inputs": [],
      "name": "BASIS_POINTS_DIVISOR",
      "outputs": [
        {
          "internalType": "uint256",
          "name": "",
          "type": "uint256"
        }
      ],
      "stateMutability": "view",
      "type": "function"
    },
    {
      "inputs": [],
      "name": "MAX_ADJUSTMENT_BASIS_POINTS",
      "outputs": [
        {
          "internalType": "uint256",
          "name": "",
          "type": "uint256"
        }
      ],
      "stateMutability": "view",
      "type": "function"
    },
    {
      "inputs": [],
      "name": "MAX_ADJUSTMENT_INTERVAL",
      "outputs": [
        {
          "internalType": "uint256",
          "name": "",
          "type": "uint256"
        }
      ],
      "stateMutability": "view",
      "type": "function"
    },
    {
      "inputs": [],
      "name": "MAX_SPREAD_BASIS_POINTS",
      "outputs": [
        {
          "internalType": "uint256",
          "name": "",
          "type": "uint256"
        }
      ],
      "stateMutability": "view",
      "type": "function"
    },
    {
      "inputs": [],
      "name": "PRICE_PRECISION",
      "outputs": [
        {
          "internalType": "uint256",
          "name": "",
          "type": "uint256"
        }
      ],
      "stateMutability": "view",
      "type": "function"
    },
    {
      "inputs": [],
      "name": "chainlinkFlags",
      "outputs": [
        {
          "internalType": "address",
          "name": "",
          "type": "address"
        }
      ],
      "stateMutability": "view",
      "type": "function"
    },
    {
      "inputs": [
        {
          "internalType": "address",
          "name": "_token",
          "type": "address"
        },
        {
          "internalType": "uint256",
          "name": "_referencePrice",
          "type": "uint256"
        }
      ],
      "name": "getIndexPrice",
      "outputs": [
        {
          "internalType": "uint256",
          "name": "",
          "type": "uint256"
        }
      ],
      "stateMutability": "view",
      "type": "function"
    },
    {
      "inputs": [
        {
          "internalType": "address",
          "name": "_token",
          "type": "address"
        }
      ],
      "name": "getPrice",
      "outputs": [
        {
          "internalType": "uint256",
          "name": "",
          "type": "uint256"
        }
      ],
      "stateMutability": "view",
      "type": "function"
    },
    {
      "inputs": [
        {
          "internalType": "address",
          "name": "_token",
          "type": "address"
        }
      ],
      "name": "getPrimaryPrice",
      "outputs": [
        {
          "internalType": "uint256",
          "name": "",
          "type": "uint256"
        }
      ],
      "stateMutability": "view",
      "type": "function"
    },
    {
      "inputs": [],
      "name": "indexPriceFeed",
      "outputs": [
        {
          "internalType": "address",
          "name": "",
          "type": "address"
        }
      ],
      "stateMutability": "view",
      "type": "function"
    },
    {
      "inputs": [
        {
          "internalType": "address",
          "name": "",
          "type": "address"
        }
      ],
      "name": "priceDecimals",
      "outputs": [
        {
          "internalType": "uint256",
          "name": "",
          "type": "uint256"
        }
      ],
      "stateMutability": "view",
      "type": "function"
    },
    {
      "inputs": [
        {
          "internalType": "address",
          "name": "",
          "type": "address"
        }
      ],
      "name": "priceFeeds",
      "outputs": [
        {
          "internalType": "address",
          "name": "",
          "type": "address"
        }
      ],
      "stateMutability": "view",
      "type": "function"
    },
    {
      "inputs": [
        {
          "internalType": "address",
          "name": "_chainlinkFlags",
          "type": "address"
        }
      ],
      "name": "setChainlinkFlags",
      "outputs": [],
      "stateMutability": "nonpayable",
      "type": "function"
    },
    {
      "inputs": [
        {
          "internalType": "address",
          "name": "_secondaryPriceFeed",
          "type": "address"
        }
      ],
      "name": "setIndexPriceFeed",
      "outputs": [],
      "stateMutability": "nonpayable",
      "type": "function"
    },
    {
      "inputs": [
        {
          "internalType": "address",
          "name": "_token",
          "type": "address"
        },
        {
          "internalType": "address",
          "name": "_priceFeed",
          "type": "address"
        },
        {
          "internalType": "uint256",
          "name": "_priceDecimals",
          "type": "uint256"
        }
      ],
      "name": "setTokenConfig",
      "outputs": [],
      "stateMutability": "nonpayable",
      "type": "function"
    }
  ],
  "transactionHash": "0xa5335a38220067b186fafb21af6e48fd7a227823d30d24965cceb0ae7b2cc64b",
  "args": [
    "0xCf7Ed3AccA5a467e9e704C703E8D87F634fB0Fc9"
  ],
  "numDeployments": 1,
  "solcInputHash": "746ddd73095b8a03a6bbf80975bb7757",
  "bytecode": "0x60803461007457601f6109ef38819003918201601f19168301916001600160401b038311848410176100795780849260209460405283398101031261007457516001600160a01b0381169081900361007457600280546001600160a01b03191691909117905560405161095f90816100908239f35b600080fd5b634e487b7160e01b600052604160045260246000fdfe608060408181526004918236101561001657600080fd5b600092833560e01c9182630957aed91461054157508163126082cf146105245781631c40d9c6146104fb578163317a25ee1461043857816341976e09146103f65781634a4b1f4f1461041c5781635dcf7194146103f65781637641b699146103c6578163826e055f146102cd57816395082d25146102a65781639b18dc47146102895781639dcb511a1461024e578163c8487a571461012e578163cefe0f21146100f4575063e4440e02146100ca57600080fd5b346100f057816003193601126100f057905490516001600160a01b039091168152602090f35b5080fd5b90503461012a57602036600319011261012a5760209282916001600160a01b0361011c61055c565b168252845220549051908152f35b8280fd5b90503461012a57606036600319011261012a5761014961055c565b6024356001600160a01b038181169182900361024a57806002541692855180946351331ad760e01b8252818760209788935afa90811561021357839186918a9161021d575b506024895180948193637be53ca160e01b8352338c840152165afa8015610213576101c09189916101e6575b506105e6565b1685526003825283852080546001600160a01b0319169091179055528120604435905580f35b6102069150863d881161020c575b6101fe8183610577565b8101906105ce565b386101ba565b503d6101f4565b87513d8a823e3d90fd5b61023d9150823d8411610243575b6102358183610577565b8101906105af565b3861018e565b503d61022b565b8580fd5b5050346100f05760203660031901126100f0576020916001600160a01b039082908261027861055c565b168152600385522054169051908152f35b5050346100f057816003193601126100f05760209051611c208152f35b5050346100f057816003193601126100f0575168327cb2734119d3b7a9601e1b8152602090f35b90503461012a576020806003193601126103c2576102e961055c565b60025484516351331ad760e01b81526001600160a01b039492939291839082908490829089165afa80156103b857859284928992610396575b5060249088519485938492637be53ca160e01b84523390840152165afa91821561038c5761035b93949550869261036f575b50506105e6565b82546001600160a01b031916911617815580f35b6103859250803d1061020c576101fe8183610577565b3880610354565b85513d88823e3d90fd5b60249192506103b190843d8611610243576102358183610577565b9190610322565b86513d89823e3d90fd5b8380fd5b5050346100f057806003193601126100f0576020906103ef6103e661055c565b60243590610899565b9051908152f35b5050346100f05760203660031901126100f0576020906103ef61041761055c565b610622565b5050346100f057816003193601126100f0576020905160148152f35b90503461012a576020806003193601126103c25761045461055c565b60025484516351331ad760e01b81526001600160a01b039492939291839082908490829089165afa80156103b8578592849289926104d9575b5060249088519485938492637be53ca160e01b84523390840152165afa91821561038c576104c593949550869261036f5750506105e6565b1660018060a01b0319600154161760015580f35b60249192506104f490843d8611610243576102358183610577565b919061048d565b5050346100f057816003193601126100f05760015490516001600160a01b039091168152602090f35b5050346100f057816003193601126100f057602090516127108152f35b8490346100f057816003193601126100f05780603260209252f35b600435906001600160a01b038216820361057257565b600080fd5b90601f8019910116810190811067ffffffffffffffff82111761059957604052565b634e487b7160e01b600052604160045260246000fd5b9081602091031261057257516001600160a01b03811681036105725790565b90816020910312610572575180151581036105725790565b156105ed57565b60405162461bcd60e51b815260206004820152600d60248201526c37b7363ca837b7b620b236b4b760991b6044820152606490fd5b6001600160a01b039081166000818152600360209081526040808320549194918216939091841561086057908591845416806107a4575b508251958680966350d25bcd60e01b825260049889915afa948515610797578495610768575b50838513156107355784156106fa57835284905281205468327cb2734119d3b7a9601e1b83029283046c0c9f2c9cd04674edea3fffffff19016106e757604d81116106e757600a0a9283156106d45750500490565b634e487b7160e01b825260129052602490fd5b634e487b7160e01b825260118452602482fd5b825162461bcd60e51b81528087018390526015602482015274636f756c64206e6f7420666574636820707269636560581b6044820152606490fd5b825162461bcd60e51b8152808701839052600d60248201526c696e76616c696420707269636560981b6044820152606490fd5b9094508181813d8311610790575b6107808183610577565b810103126103c25751933861067f565b503d610776565b50505051903d90823e3d90fd5b8351631abf23ff60e11b815273a438451d6458044c3c8cd2f6f31c91ac882a6d916004820152919290829060249082905afa908115610797578491610843575b506107f157849038610659565b815162461bcd60e51b815260048101869052602560248201527f436861696e6c696e6b20666565647320617265206e6f74206265696e6720757060448201526419185d195960da1b6064820152608490fd5b61085a9150863d881161020c576101fe8183610577565b386107e4565b825162461bcd60e51b81526004810187905260126024820152711a5b9d985b1a59081c1c9a58d9481999595960721b6044820152606490fd5b6001546001600160a01b0390811692909190831561092257506040516341976e0960e01b81529116600482015290602090829060249082905afa908115610916576000916108e5575090565b906020823d821161090e575b816108fe60209383610577565b8101031261090b57505190565b80fd5b3d91506108f1565b6040513d6000823e3d90fd5b925050509056fea264697066735822122037bc243437a9b5e385ee5a248bb05e2759210906a788a15cbf4146303e28a6c364736f6c63430008110033",
  "devdoc": {
    "kind": "dev",
    "methods": {},
    "version": 1
  },
  "userdoc": {
    "kind": "user",
    "methods": {},
    "version": 1
  },
  "storageLayout": {
    "storage": [
      {
        "astId": 11224,
        "contract": "contracts/price/OraclePriceFeed.sol:OraclePriceFeed",
        "label": "chainlinkFlags",
        "offset": 0,
        "slot": "0",
        "type": "t_address"
      },
      {
        "astId": 11226,
        "contract": "contracts/price/OraclePriceFeed.sol:OraclePriceFeed",
        "label": "indexPriceFeed",
        "offset": 0,
        "slot": "1",
        "type": "t_address"
      },
      {
        "astId": 11229,
        "contract": "contracts/price/OraclePriceFeed.sol:OraclePriceFeed",
        "label": "addressProvider",
        "offset": 0,
        "slot": "2",
        "type": "t_contract(IAddressesProvider)4473"
      },
      {
        "astId": 11233,
        "contract": "contracts/price/OraclePriceFeed.sol:OraclePriceFeed",
        "label": "priceFeeds",
        "offset": 0,
        "slot": "3",
        "type": "t_mapping(t_address,t_address)"
      },
      {
        "astId": 11237,
        "contract": "contracts/price/OraclePriceFeed.sol:OraclePriceFeed",
        "label": "priceDecimals",
        "offset": 0,
        "slot": "4",
        "type": "t_mapping(t_address,t_uint256)"
      }
    ],
    "types": {
      "t_address": {
        "encoding": "inplace",
        "label": "address",
        "numberOfBytes": "20"
      },
      "t_contract(IAddressesProvider)4473": {
        "encoding": "inplace",
        "label": "contract IAddressesProvider",
        "numberOfBytes": "20"
      },
      "t_mapping(t_address,t_address)": {
        "encoding": "mapping",
        "key": "t_address",
        "label": "mapping(address => address)",
        "numberOfBytes": "32",
        "value": "t_address"
      },
      "t_mapping(t_address,t_uint256)": {
        "encoding": "mapping",
        "key": "t_address",
        "label": "mapping(address => uint256)",
        "numberOfBytes": "32",
        "value": "t_uint256"
      },
      "t_uint256": {
        "encoding": "inplace",
        "label": "uint256",
        "numberOfBytes": "32"
      }
    }
  }
}