{
  "address": "0x86A2EE8FAf9A840F7a2c64CA3d51209F9A02081D",
  "abi": [
    {
      "inputs": [
        {
          "internalType": "contract IAddressesProvider",
          "name": "addressProvider",
          "type": "address"
        },
        {
          "internalType": "contract IPairInfo",
          "name": "_pairInfo",
          "type": "address"
        },
        {
          "internalType": "contract IPairVault",
          "name": "_pairVault",
          "type": "address"
        },
        {
          "internalType": "contract IVaultPriceFeed",
          "name": "_vaultPriceFeed",
          "type": "address"
        },
        {
          "internalType": "address",
          "name": "_feeReceiver",
          "type": "address"
        },
        {
          "internalType": "address",
          "name": "_slipReceiver",
          "type": "address"
        },
        {
          "internalType": "address",
          "name": "_weth",
          "type": "address"
        }
      ],
      "stateMutability": "nonpayable",
      "type": "constructor"
    },
    {
      "anonymous": false,
      "inputs": [
        {
          "indexed": true,
          "internalType": "address",
          "name": "funder",
          "type": "address"
        },
        {
          "indexed": true,
          "internalType": "address",
          "name": "account",
          "type": "address"
        },
        {
          "indexed": true,
          "internalType": "uint256",
          "name": "pairIndex",
          "type": "uint256"
        },
        {
          "indexed": false,
          "internalType": "uint256",
          "name": "indexAmount",
          "type": "uint256"
        },
        {
          "indexed": false,
          "internalType": "uint256",
          "name": "stableAmount",
          "type": "uint256"
        },
        {
          "indexed": false,
          "internalType": "uint256",
          "name": "lpAmount",
          "type": "uint256"
        }
      ],
      "name": "AddLiquidity",
      "type": "event"
    },
    {
      "anonymous": false,
      "inputs": [
        {
          "indexed": true,
          "internalType": "address",
          "name": "account",
          "type": "address"
        },
        {
          "indexed": true,
          "internalType": "address",
          "name": "receiver",
          "type": "address"
        },
        {
          "indexed": true,
          "internalType": "uint256",
          "name": "pairIndex",
          "type": "uint256"
        },
        {
          "indexed": false,
          "internalType": "uint256",
          "name": "indexAmount",
          "type": "uint256"
        },
        {
          "indexed": false,
          "internalType": "uint256",
          "name": "stableAmount",
          "type": "uint256"
        },
        {
          "indexed": false,
          "internalType": "uint256",
          "name": "lpAmount",
          "type": "uint256"
        }
      ],
      "name": "RemoveLiquidity",
      "type": "event"
    },
    {
      "anonymous": false,
      "inputs": [
        {
          "indexed": true,
          "internalType": "address",
          "name": "funder",
          "type": "address"
        },
        {
          "indexed": true,
          "internalType": "address",
          "name": "receiver",
          "type": "address"
        },
        {
          "indexed": true,
          "internalType": "uint256",
          "name": "pairIndex",
          "type": "uint256"
        },
        {
          "indexed": false,
          "internalType": "bool",
          "name": "isBuy",
          "type": "bool"
        },
        {
          "indexed": false,
          "internalType": "uint256",
          "name": "amountIn",
          "type": "uint256"
        },
        {
          "indexed": false,
          "internalType": "uint256",
          "name": "amountOut",
          "type": "uint256"
        }
      ],
      "name": "Swap",
      "type": "event"
    },
    {
      "inputs": [],
      "name": "ADDRESS_PROVIDER",
      "outputs": [
        {
          "internalType": "contract IAddressesProvider",
          "name": "",
          "type": "address"
        }
      ],
      "stateMutability": "view",
      "type": "function"
    },
    {
      "inputs": [],
      "name": "PRICE_PRECISION",
      "outputs": [
        {
          "internalType": "uint256",
          "name": "",
          "type": "uint256"
        }
      ],
      "stateMutability": "view",
      "type": "function"
    },
    {
      "inputs": [
        {
          "internalType": "uint256",
          "name": "_pairIndex",
          "type": "uint256"
        },
        {
          "internalType": "uint256",
          "name": "_indexAmount",
          "type": "uint256"
        },
        {
          "internalType": "uint256",
          "name": "_stableAmount",
          "type": "uint256"
        }
      ],
      "name": "addLiquidity",
      "outputs": [
        {
          "internalType": "uint256",
          "name": "",
          "type": "uint256"
        }
      ],
      "stateMutability": "nonpayable",
      "type": "function"
    },
    {
      "inputs": [
        {
          "internalType": "uint256",
          "name": "_pairIndex",
          "type": "uint256"
        },
        {
          "internalType": "uint256",
          "name": "_stableAmount",
          "type": "uint256"
        }
      ],
      "name": "addLiquidityETH",
      "outputs": [
        {
          "internalType": "uint256",
          "name": "",
          "type": "uint256"
        }
      ],
      "stateMutability": "payable",
      "type": "function"
    },
    {
      "inputs": [
        {
          "internalType": "address",
          "name": "_funder",
          "type": "address"
        },
        {
          "internalType": "address",
          "name": "_account",
          "type": "address"
        },
        {
          "internalType": "uint256",
          "name": "_pairIndex",
          "type": "uint256"
        },
        {
          "internalType": "uint256",
          "name": "_indexAmount",
          "type": "uint256"
        },
        {
          "internalType": "uint256",
          "name": "_stableAmount",
          "type": "uint256"
        }
      ],
      "name": "addLiquidityForAccount",
      "outputs": [
        {
          "internalType": "uint256",
          "name": "",
          "type": "uint256"
        }
      ],
      "stateMutability": "nonpayable",
      "type": "function"
    },
    {
      "inputs": [],
      "name": "feeReceiver",
      "outputs": [
        {
          "internalType": "address",
          "name": "",
          "type": "address"
        }
      ],
      "stateMutability": "view",
      "type": "function"
    },
    {
      "inputs": [
        {
          "internalType": "uint256",
          "name": "_pairIndex",
          "type": "uint256"
        },
        {
          "internalType": "uint256",
          "name": "_lpAmount",
          "type": "uint256"
        }
      ],
      "name": "getDepositAmount",
      "outputs": [
        {
          "internalType": "uint256",
          "name": "depositIndexAmount",
          "type": "uint256"
        },
        {
          "internalType": "uint256",
          "name": "depositStableAmount",
          "type": "uint256"
        }
      ],
      "stateMutability": "view",
      "type": "function"
    },
    {
      "inputs": [
        {
          "internalType": "uint256",
          "name": "_pairIndex",
          "type": "uint256"
        },
        {
          "internalType": "uint256",
          "name": "_indexAmount",
          "type": "uint256"
        },
        {
          "internalType": "uint256",
          "name": "_stableAmount",
          "type": "uint256"
        }
      ],
      "name": "getMintLpAmount",
      "outputs": [
        {
          "internalType": "uint256",
          "name": "mintAmount",
          "type": "uint256"
        },
        {
          "internalType": "address",
          "name": "slipToken",
          "type": "address"
        },
        {
          "internalType": "uint256",
          "name": "slipAmount",
          "type": "uint256"
        }
      ],
      "stateMutability": "view",
      "type": "function"
    },
    {
      "inputs": [
        {
          "internalType": "uint256",
          "name": "_pairIndex",
          "type": "uint256"
        },
        {
          "internalType": "uint256",
          "name": "_lpAmount",
          "type": "uint256"
        }
      ],
      "name": "getReceivedAmount",
      "outputs": [
        {
          "internalType": "uint256",
          "name": "receiveIndexTokenAmount",
          "type": "uint256"
        },
        {
          "internalType": "uint256",
          "name": "receiveStableTokenAmount",
          "type": "uint256"
        }
      ],
      "stateMutability": "view",
      "type": "function"
    },
    {
      "inputs": [
        {
          "internalType": "address",
          "name": "",
          "type": "address"
        }
      ],
      "name": "isHandler",
      "outputs": [
        {
          "internalType": "bool",
          "name": "",
          "type": "bool"
        }
      ],
      "stateMutability": "view",
      "type": "function"
    },
    {
      "inputs": [
        {
          "internalType": "uint256",
          "name": "_pairIndex",
          "type": "uint256"
        }
      ],
      "name": "lpFairPrice",
      "outputs": [
        {
          "internalType": "uint256",
          "name": "",
          "type": "uint256"
        }
      ],
      "stateMutability": "view",
      "type": "function"
    },
    {
      "inputs": [],
      "name": "pairInfo",
      "outputs": [
        {
          "internalType": "contract IPairInfo",
          "name": "",
          "type": "address"
        }
      ],
      "stateMutability": "view",
      "type": "function"
    },
    {
      "inputs": [],
      "name": "pairVault",
      "outputs": [
        {
          "internalType": "contract IPairVault",
          "name": "",
          "type": "address"
        }
      ],
      "stateMutability": "view",
      "type": "function"
    },
    {
      "inputs": [
        {
          "internalType": "uint256",
          "name": "_pairIndex",
          "type": "uint256"
        },
        {
          "internalType": "uint256",
          "name": "_amount",
          "type": "uint256"
        }
      ],
      "name": "removeLiquidity",
      "outputs": [
        {
          "internalType": "uint256",
          "name": "receivedIndexAmount",
          "type": "uint256"
        },
        {
          "internalType": "uint256",
          "name": "receivedStableAmount",
          "type": "uint256"
        }
      ],
      "stateMutability": "nonpayable",
      "type": "function"
    },
    {
      "inputs": [
        {
          "internalType": "address",
          "name": "_account",
          "type": "address"
        },
        {
          "internalType": "address",
          "name": "_receiver",
          "type": "address"
        },
        {
          "internalType": "uint256",
          "name": "_pairIndex",
          "type": "uint256"
        },
        {
          "internalType": "uint256",
          "name": "_amount",
          "type": "uint256"
        }
      ],
      "name": "removeLiquidityForAccount",
      "outputs": [
        {
          "internalType": "uint256",
          "name": "",
          "type": "uint256"
        },
        {
          "internalType": "uint256",
          "name": "",
          "type": "uint256"
        }
      ],
      "stateMutability": "nonpayable",
      "type": "function"
    },
    {
      "inputs": [
        {
          "internalType": "contract IPairInfo",
          "name": "_pairStorage",
          "type": "address"
        },
        {
          "internalType": "contract IPairVault",
          "name": "_pairVault",
          "type": "address"
        }
      ],
      "name": "setContract",
      "outputs": [],
      "stateMutability": "nonpayable",
      "type": "function"
    },
    {
      "inputs": [
        {
          "internalType": "address",
          "name": "_feeReceiver",
          "type": "address"
        },
        {
          "internalType": "address",
          "name": "_slipReceiver",
          "type": "address"
        }
      ],
      "name": "setReceiver",
      "outputs": [],
      "stateMutability": "nonpayable",
      "type": "function"
    },
    {
      "inputs": [],
      "name": "slipReceiver",
      "outputs": [
        {
          "internalType": "address",
          "name": "",
          "type": "address"
        }
      ],
      "stateMutability": "view",
      "type": "function"
    },
    {
      "inputs": [
        {
          "internalType": "uint256",
          "name": "_pairIndex",
          "type": "uint256"
        },
        {
          "internalType": "bool",
          "name": "_isBuy",
          "type": "bool"
        },
        {
          "internalType": "uint256",
          "name": "_amountIn",
          "type": "uint256"
        },
        {
          "internalType": "uint256",
          "name": "_minOut",
          "type": "uint256"
        }
      ],
      "name": "swap",
      "outputs": [
        {
          "internalType": "uint256",
          "name": "amountIn",
          "type": "uint256"
        },
        {
          "internalType": "uint256",
          "name": "amountOut",
          "type": "uint256"
        }
      ],
      "stateMutability": "nonpayable",
      "type": "function"
    },
    {
      "inputs": [
        {
          "internalType": "address",
          "name": "_funder",
          "type": "address"
        },
        {
          "internalType": "address",
          "name": "_receiver",
          "type": "address"
        },
        {
          "internalType": "uint256",
          "name": "_pairIndex",
          "type": "uint256"
        },
        {
          "internalType": "bool",
          "name": "_isBuy",
          "type": "bool"
        },
        {
          "internalType": "uint256",
          "name": "_amountIn",
          "type": "uint256"
        },
        {
          "internalType": "uint256",
          "name": "_minOut",
          "type": "uint256"
        }
      ],
      "name": "swapForAccount",
      "outputs": [
        {
          "internalType": "uint256",
          "name": "amountIn",
          "type": "uint256"
        },
        {
          "internalType": "uint256",
          "name": "amountOut",
          "type": "uint256"
        }
      ],
      "stateMutability": "nonpayable",
      "type": "function"
    },
    {
      "inputs": [
        {
          "internalType": "uint256",
          "name": "_pairIndex",
          "type": "uint256"
        },
        {
          "internalType": "uint256",
          "name": "_minOut",
          "type": "uint256"
        }
      ],
      "name": "swapInEth",
      "outputs": [
        {
          "internalType": "uint256",
          "name": "amountIn",
          "type": "uint256"
        },
        {
          "internalType": "uint256",
          "name": "amountOut",
          "type": "uint256"
        }
      ],
      "stateMutability": "payable",
      "type": "function"
    },
    {
      "inputs": [
        {
          "internalType": "address",
          "name": "",
          "type": "address"
        },
        {
          "internalType": "address",
          "name": "",
          "type": "address"
        }
      ],
      "name": "userPairTokens",
      "outputs": [
        {
          "internalType": "uint256",
          "name": "",
          "type": "uint256"
        }
      ],
      "stateMutability": "view",
      "type": "function"
    },
    {
      "inputs": [],
      "name": "vaultPriceFeed",
      "outputs": [
        {
          "internalType": "contract IVaultPriceFeed",
          "name": "",
          "type": "address"
        }
      ],
      "stateMutability": "view",
      "type": "function"
    },
    {
      "inputs": [],
      "name": "weth",
      "outputs": [
        {
          "internalType": "address",
          "name": "",
          "type": "address"
        }
      ],
      "stateMutability": "view",
      "type": "function"
    },
    {
      "stateMutability": "payable",
      "type": "receive"
    }
  ],
  "transactionHash": "0xf5f00e06dc87d09e7b522a4e598945fa8c87ba58032d32bb93a697c030f659c9",
  "args": [
    "0xCf7Ed3AccA5a467e9e704C703E8D87F634fB0Fc9",
    "0x49fd2BE640DB2910c2fAb69bB8531Ab6E76127ff",
    "0x4631BCAbD6dF18D94796344963cB60d44a4136b6",
    "0x0355B7B8cb128fA5692729Ab3AAa199C1753f726",
    "0xf39Fd6e51aad88F6F4ce6aB8827279cffFb92266",
    "0xf39Fd6e51aad88F6F4ce6aB8827279cffFb92266",
    "0xB7f8BC63BbcaD18155201308C8f3540b07f84F5e"
  ],
  "numDeployments": 1,
  "solcInputHash": "7e1e509e3ffeca3760b074bc8bbeb130",
  "bytecode": "0x60a0346200013e57601f6200438438819003918201601f19168301916001600160401b03831184841017620001435780849260e0946040528339810103126200013e5780516001600160a01b039081811681036200013e576020830151928284168094036200013e576040810151908382168092036200013e5760608101518481168091036200013e57849283916200009b6080850162000159565b91620000b860c0620000b060a0880162000159565b960162000159565b963360005260006020526040600020600160ff1982541617905560805260018060a01b03199889600154161760015588600254161760025587600354161760035516856004541617600455168360055416176005551690600654161760065560405161421590816200016f82396080518181816105fa015281816119030152611a0f0152f35b600080fd5b634e487b7160e01b600052604160045260246000fd5b51906001600160a01b03821682036200013e5756fe608080604052600436101561001d575b50361561001b57600080fd5b005b600090813560e01c9081630552415114611a85575080630738aa3114611a3e5780631848effa146119f95780632bf6e0a5146118b6578063346d5d75146115df5780633fc8cef3146115b6578063422f10431461159a57806346ea87af1461155c5780634b57f96e1461153d5780634c3c0f5814610ffe578063653c45e614610fc65780637a5240751461084f5780637a9d1ac41461070457806386dcb95e146105b85780638ffc80a11461045e57806392771c3c1461044457806395082d251461041c5780639d7de6b314610264578063a31a7b441461023b578063b3f0067414610212578063bef77c59146101c3578063e05def2414610182578063eeaa783a146101595763fc2a5b1d0361000f57346101565780600319360112610156576001546040516001600160a01b039091168152602090f35b80fd5b50346101565780600319360112610156576003546040516001600160a01b039091168152602090f35b50346101565760803660031901126101565760406101b76101a1611aaa565b6101a9611ac0565b906064359160443591613624565b82519182526020820152f35b5034610156576040366003190112610156576101dd611aaa565b60406101e7611ac0565b9260018060a01b03809316815260076020522091166000526020526020604060002054604051908152f35b50346101565780600319360112610156576004546040516001600160a01b039091168152602090f35b50346101565780600319360112610156576002546040516001600160a01b039091168152602090f35b50346101565761028061027636611ad6565b8192913033613624565b909160018060a01b039060e0826001541691602460405180948193632f7ce47360e21b835260048301525afa9081156104115785916103e2575b50831515806103d2575b610364575b826102df575b6040848482519182526020820152f35b6020015116926020604051809563a9059cbb60e01b8252818481610307883360048401611cc8565b03925af180156103575761031c575b806102cf565b6020843d821161034f575b8161033460209383611b65565b810103126101565750610348604093611b9a565b5038610316565b3d9150610327565b50604051903d90823e3d90fd5b848260065416803b156103ce57818091602460405180948193632e1a7d4d60e01b83528b60048401525af180156103c3576103ab575b50506103a68433611d22565b6102c9565b6103b490611b06565b6103bf57843861039a565b8480fd5b6040513d84823e3d90fd5b5080fd5b50818151168260065416146102c4565b610404915060e03d60e01161040a575b6103fc8183611b65565b810190611be3565b386102ba565b503d6103f2565b6040513d87823e3d90fd5b503461015657806003193601126101565760405168327cb2734119d3b7a9601e1b8152602090f35b50346101565760406101b761045836611ad6565b90613d65565b50602461046a36611ad6565b9060018060a01b0360e0816001541660405195868092632f7ce47360e21b82528660048301525afa938415610411578594610597575b508481855116826006541680911480610588575b6104bd90611c6b565b803b156103ce578160049160405192838092630d0e30db60e41b825234905af180156103c357610574575b505060208094015116938360405180966323b872dd60e01b825281848161051489303360048501611ca6565b03925af180156103575761053a575b50906105329134903330612c04565b604051908152f35b8385813d831161056d575b61054f8183611b65565b8101031261015657506105656105329394611b9a565b508392610523565b503d610545565b61057d90611b06565b6103bf5784386104e8565b506040860151831615156104b4565b6105b191945060e03d60e01161040a576103fc8183611b65565b92386104a0565b5034610156576040366003190112610156576105d2611aaa565b6105da611ac0565b6040516351331ad760e01b81526001600160a01b039190602080826004817f000000000000000000000000000000000000000000000000000000000000000088165afa80156106bc57849287916106c7575b508190602460405180958193637be53ca160e01b8352336004840152165afa9081156106bc578691610685575b506106649150611ba7565b8160018060a01b031993168360045416176004551690600554161760055580f35b905081813d83116106b5575b61069b8183611b65565b810103126103bf576106af61066491611b9a565b38610659565b503d610691565b6040513d88823e3d90fd5b809350828092503d83116106fd575b6106e08183611b65565b810103126106f957806106f38593611b86565b9061062c565b8580fd5b503d6106d6565b503461015657608036600319011261015657600435602435801515810361084a5761073760643560443583853033611e9c565b9190928215159182610842575b50816107d5575b50610761575b6040809350519182526020820152f35b60065483906001600160a01b0316803b156103ce578190602460405180948193632e1a7d4d60e01b83528760048401525af180156107ca576107b2575b50604092506107ad8133611d22565b610751565b6107bc8491611b06565b6107c6578261079e565b8280fd5b6040513d86823e3d90fd5b600154604051632f7ce47360e21b815260048101929092526001600160a01b03925060e0908290602490829086165afa80156104115782918691610823575b5051169060065416143861074b565b61083c915060e03d60e01161040a576103fc8183611b65565b38610814565b915038610744565b600080fd5b5061085936611ad6565b5090602460e060018060a01b036001541660405192838092632f7ce47360e21b82528760048301525afa9081156103c3578291610fa7575b5080516006546001600160a01b03908116926108b99290911683149081610f90575b50611c6b565b803b156103ce578160049160405192838092630d0e30db60e41b825234905af180156103c357610f81575b5060065460405163095ea7b360e01b81529192919060209082906001600160a01b0316818681610918343060048401611cc8565b03925af18015610eff57610f48575b50600090818061098760405161093c81611b2f565b601a815279737761702066756e64657220257320726563656976657220257360301b60208201526040519182916307e763af60e51b6020840152606060248401526084830190612708565b306044830152336064830152036109a6601f1991828101845283611b65565b8280835160206a636f6e736f6c652e6c6f679501855afa50604051906109cb82611b4a565b602c82527f737761702070616972496e64657820257320697342757920257320657870656360208301526b74416d6f756e74496e20257360a01b6040830152610a536040519182610a35602082019563e41b6f6f60e01b87526080602484015260a4830190612708565b89604483015287606483015234608483015203908101835282611b65565b51915afa503415610f0a57600154604051632f7ce47360e21b815260048101839052919060e090839060249082906001600160a01b03165afa918215610eff578392610ede575b5060408201516001600160a01b031615610ea557600254604051632500ed8d60e21b8152600481018390526001600160a01b0390911693909260c084602481885afa9384156103c3578294610e75575b508051610aff906001600160a01b031661404d565b93610b0b858251612768565b610b6d6040830151610b678184604051610b2481611b4a565b602b81527f7377617020696e646578546f74616c44656c746120257320737461626c65546f60208201526a74616c44656c746120257360a81b6040820152614113565b82611e8f565b93610bdb610b89610b8260a087015188612822565b8097611e20565b86604051610b9681611b4a565b602d81527f7377617020657870656374496e64657844656c7461202573206578706563745360208201526c7461626c6544656c746120257360981b6040820152614113565b9381811115610e3a57610bfb610c4992610bf58934612768565b92611e20565b80821015610e325750915b610c3983604051610c1681611b2f565b60118152707377617020696e646578496e44656c746160781b60208201526140bb565b6060604082015191015190611e20565b610ca28183604051610c5a81611b4a565b603081527f7377617020616d6f756e744f757420737461626c65546f6b656e20257320617660208201526f61696c61626c65537461626c6520257360801b6040820152614113565b8015610dfb57610cd791610cc19180821015610df35750955b8661288a565b82519096879130906001600160a01b0316612541565b6002546020909101516001600160a01b039081169116803b1561084a5784600091610d1b9383604051809681958294630d172a0160e01b8452339060048501611ca6565b03925af18015610de757610dd5575b5060405190815283602082015282604082015233906000805160206141c083398151915260603092a4348210610d6a576040809350519182526020820152f35b610d748234611e20565b6006549093906001600160a01b0316803b156103ce57818091602460405180948193632e1a7d4d60e01b83528a60048401525af180156103c357610dc1575b50506107ad60409333611d22565b610dcb8291611b06565b6101565780610db3565b610ddf9150611b06565b600038610d2a565b6040513d6000823e3d90fd5b905095610cbb565b60405162461bcd60e51b815260206004820152600f60248201526e37379039ba30b13632903a37b5b2b760891b6044820152606490fd5b905091610c06565b60405162461bcd60e51b81526020600482015260136024820152723737903732b2b21034b73232bc103a37b5b2b760691b6044820152606490fd5b610e9791945060c03d8111610e9e575b610e8f8183611b65565b810190611e2d565b9238610aea565b503d610e85565b60405162461bcd60e51b815260206004820152601160248201527039bbb0b81034b73b30b634b2103830b4b960791b6044820152606490fd5b610ef891925060e03d60e01161040a576103fc8183611b65565b9038610a9a565b6040513d85823e3d90fd5b60405162461bcd60e51b815260206004820152601660248201527539bbb0b81034b73b30b634b21030b6b7bab73a1034b760511b6044820152606490fd5b6020813d602011610f79575b81610f6160209383611b65565b810103126107c657610f7290611b9a565b5038610927565b3d9150610f54565b610f8a90611b06565b386108e4565b604001516001600160a01b031615159050386108b3565b610fc0915060e03d60e01161040a576103fc8183611b65565b38610891565b50346101565760a0366003190112610156576020610532610fe5611aaa565b610fed611ac0565b608435916064359160443591612c04565b50346101565760249061101036611aec565b909291829182918515801590611534575b61102a90612a0e565b600154604051632f7ce47360e21b815260048101839052976001600160a01b03959160e0918a91829089165afa928315610357576024988294611513575b5061107a866040860151161515611c6b565b60c086600254166040519a8b8092632500ed8d60e21b82528760048301525afa9788156103c35760609983996114ef575b50611114906110f7836040516110c081611b2f565b601b81527a19d95d135a5b9d131c105b5bdd5b9d081a5b99195e105b5bdd5b9d602a1b6020820152836110f1612a4b565b9161415e565b610bf560c08701610bf561110c825185612822565b915186612822565b936111218782511661404d565b61112c811515612a73565b836111378285612768565b809b61114a82611145613b80565b6140bb565b6040611157858351612768565b910190611165825182611e8f565b61120f575b505050505050916111e46111de6111ea936111cf876111fc98976040519061119182611b4a565b602382527f6765744d696e744c70416d6f756e74206166746572466565496e646578416d6f6020830152621d5b9d60ea1b60408301526110f1612b65565b6111d9868c611e8f565b611e20565b91613a15565b9061288a565b956111f3613b80565b906110f1612b65565b6040519384521660208301526040820152f35b9b859c9a85986112ea85969760808a9b9f8f60a06112436112989261128f9f9c61123c9061129f96611e8f565b9b51611e8f565b9d8e611289818d6040519061125782611b2f565b601f82527f6765744d696e744c70416d6f756e7420696e646578546f74616c44656c74610060208301526110f1612aaf565b8b611e8f565b9a01518a612822565b8099611e20565b9b6112e38d6040516112b081611b2f565b602081527f6765744d696e744c70416d6f756e7420657870656374496e64657844656c746160208201528b6110f1612adb565b01516133ae565b999098868611156113d7575050505050976113ac8b9c6113a161139a849b996111e4996113956111fc9f9d6111de9b6111ea9f829c61132f6111cf9d61139093611e20565b925082808211156113cf5761134391611e20565b80925b6040519061135382611b4a565b602282527f6765744d696e744c70416d6f756e74206e65656453776170496e64657844656c602083015261746160f01b60408301526110f1612b95565b61288a565b613585565b958661288a565b9d8e9151169b611e20565b6113c1816113b8613bc3565b866110f1612bbf565b9597988397508d925061116a565b508092611346565b929d999450929e97945098945081811161140c575b50505050505050916111e46111de6111ea936111cf876111fc98976113c1565b6111e4969d508a9b506111ea98506111de95936114ab936114a06111fc9d61143e6114b199969c9e9c6114a696611e20565b975087808211156114e75761145291611e20565b80975b6040519061146282611b4a565b602382527f6765744d696e744c70416d6f756e74206e65656453776170537461626c6544656020830152626c746160e81b60408301526110f1612b08565b85613585565b612768565b90611e20565b6111cf6114c6828b6020829e0151169a611e20565b80976114dd826114d4613bc3565b866110f1612b65565b95979883976113ec565b508097611455565b61111491995061150c9060c03d8111610e9e57610e8f8183611b65565b98906110ab565b61152d91945060e03d60e01161040a576103fc8183611b65565b9238611068565b50811515611021565b5034610156576020366003190112610156576020610532600435613a15565b50346101565760203660031901126101565760209060ff906040906001600160a01b03611587611aaa565b1681528084522054166040519015158152f35b50346101565760206105326115ae36611aec565b913333612c04565b50346101565780600319360112610156576006546040516001600160a01b039091168152602090f35b50346101565760246115f036611ad6565b6115fb811515612a0e565b600154604051632f7ce47360e21b815260048101849052936001600160a01b039160e0918691829085165afa938415610411578594611892575b508061164a6024926040870151161515611c6b565b60c0816002541660405193848092632500ed8d60e21b82528860048301525afa9182156106bc579186916117e79594936040989261186a575b506116936116bd9188511661404d565b9361169f851515612a73565b6116b7896116ae878651612768565b94015196613a15565b90612768565b916116fb8389516116cd81611b2f565b601c81527b6765744d696e744c70416d6f756e74206465706f73697444656c746160201b60208201526140bb565b61170e836117098785611e8f565b611e8f565b9061172761172060a08a015184612822565b8093611e20565b95611773878b5161173781611b4a565b602181527f6765744465706f736974416d6f756e7420657870656374496e64657844656c746020820152606160f81b8d820152856110f1612adb565b81968484101560001461181c575050509061178d91611e20565b8181106117fc575060c06117b86117da936117e0935b611390876117af613bf8565b836110f1613c41565b956117ce856117c5613c74565b896110f1613cb9565b01946117da8651611dfa565b9061291e565b9351611dfa565b6101b7816117f3613c74565b846110f1613cb9565b6117e09193506117b86117da936118168360c09497611e20565b956117a3565b919650915061182b9250611e20565b81811061184d575060c06117b86117da936117e09395611390876117af613bf8565b925060c06117b86117da93611865866117e095611e20565b6117a3565b6116bd91925061188a6116939160c03d8111610e9e57610e8f8183611b65565b929150611683565b60249194506118af9060e03d60e01161040a576103fc8183611b65565b9390611635565b5034610156576040366003190112610156576001600160a01b03600435818116908190036107c657602435918083168093036119b8576040516351331ad760e01b815260209081816004817f000000000000000000000000000000000000000000000000000000000000000087165afa80156106bc57829187916119c3575b50602460405180958193637be53ca160e01b8352336004840152165afa908115610411578591611988575b5061196b9150611ba7565b60018060a01b031990816001541617600155600254161760025580f35b905081813d83116119bc575b61199e8183611b65565b810103126119b8576119b261196b91611b9a565b38611960565b8380fd5b503d611994565b82819392503d83116119f2575b6119da8183611b65565b810103126106f9576119ec8291611b86565b38611935565b503d6119d0565b50346101565780600319360112610156576040517f00000000000000000000000000000000000000000000000000000000000000006001600160a01b03168152602090f35b50346101565760c036600319011261015657611a58611aaa565b90611a61611ac0565b906064359081151582036101565760406101b760a43560843585604435888a611e9c565b9050346103ce57816003193601126103ce576005546001600160a01b03168152602090f35b600435906001600160a01b038216820361084a57565b602435906001600160a01b038216820361084a57565b604090600319011261084a576004359060243590565b606090600319011261084a57600435906024359060443590565b6001600160401b038111611b1957604052565b634e487b7160e01b600052604160045260246000fd5b604081019081106001600160401b03821117611b1957604052565b606081019081106001600160401b03821117611b1957604052565b90601f801991011681019081106001600160401b03821117611b1957604052565b51906001600160a01b038216820361084a57565b5190811515820361084a57565b15611bae57565b60405162461bcd60e51b815260206004820152600d60248201526c37b7363ca837b7b620b236b4b760991b6044820152606490fd5b908160e091031261084a576040519060e08201908282106001600160401b03831117611b195760c091604052611c1881611b86565b8352611c2660208201611b86565b6020840152611c3760408201611b86565b6040840152611c4860608201611b9a565b60608401526080810151608084015260a081015160a0840152015160c082015290565b15611c7257565b60405162461bcd60e51b815260206004820152600c60248201526b34b73b30b634b2103830b4b960a11b6044820152606490fd5b6001600160a01b03918216815291166020820152604081019190915260600190565b6001600160a01b039091168152602081019190915260400190565b3d15611d1d573d906001600160401b038211611b195760405191611d11601f8201601f191660200184611b65565b82523d6000602084013e565b606090565b814710611db5576000918291829182916001600160a01b03165af1611d45611ce3565b5015611d4d57565b60405162461bcd60e51b815260206004820152603a60248201527f416464726573733a20756e61626c6520746f2073656e642076616c75652c20726044820152791958da5c1a595b9d081b585e481a185d99481c995d995c9d195960321b6064820152608490fd5b60405162461bcd60e51b815260206004820152601d60248201527f416464726573733a20696e73756666696369656e742062616c616e63650000006044820152606490fd5b90612710918203918211611e0a57565b634e487b7160e01b600052601160045260246000fd5b91908203918211611e0a57565b908160c091031261084a576040519060c08201908282106001600160401b03831117611b195760a0916040528051835260208101516020840152604081015160408401526060810151606084015260808101516080840152015160a082015290565b91908201809211611e0a57565b9192909593949560008080611f04611f29604051611eb981611b2f565b601a815279737761702066756e64657220257320726563656976657220257360301b60208201526040519283916307e763af60e51b6020840152606060248401526084830190612708565b6001600160a01b038a811660448401528816606483015203601f198101835282611b65565b6020815191016a636f6e736f6c652e6c6f675afa508080611fb5611fd7604051611f5281611b4a565b602c81527f737761702070616972496e64657820257320697342757920257320657870656360208201526b74416d6f756e74496e20257360a01b604082015260405192839163e41b6f6f60e01b60208401526080602484015260a4830190612708565b8a604483015288151560648301528c608483015203601f198101835282611b65565b6020815191016a636f6e736f6c652e6c6f675afa508615610f0a57600154604051632f7ce47360e21b815260048101879052919060e090839060249082906001600160a01b03165afa918215610357578192612521575b5060408201516001600160a01b031615610ea557600254604051632500ed8d60e21b8152600481018890526001600160a01b039091169860c0826024818d5afa918215610eff578392612501575b508351612091906001600160a01b031661404d565b9961209d8b8451612768565b906040840151906120b58284604051610b2481611b4a565b6120bf8284611e8f565b926120d86120d160a08a015186612822565b8095611e20565b936120ea8582604051610b9681611b4a565b8a1561240557505050808211156123c9576121599261210d8d9261214b94611e20565b808210156123c257505b6113908160405161212781611b2f565b60128152717377617020737461626c65496e44656c746160701b60208201526140bb565b916020815191015190611e20565b6121b0818360405161216a81611b4a565b602e81527f7377617020616d6f756e744f757420696e646578546f6b656e2025732061766160208201526d696c61626c65496e64657820257360901b6040820152614113565b8015612382578082101561237a5750905b6121cc82998361288a565b9961220d838c6040516121de81611b2f565b601d81527f7377617020616d6f756e74496e20257320616d6f756e744f75742025730000006020820152614113565b821061233f576002546001600160a01b0316803b156103ce57818b60848a836040519586948593631ea746b160e21b855260048501528c1515602485015260448401528860648401525af180156103c357612330575b5060025483519192916001600160a01b039182169116813b156119b85791839186836122a69560405196879586948593630d172a0160e01b855260048501611ca6565b03925af180156103c357908a939291612316575b5050602001516002546000805160206141c08339815191529360609390926122f0926001600160a01b0390811691899116612541565b604080519415158552602085018a905284018890526001600160a01b03908116941692a4565b8192935061232390611b06565b61015657908189926122ba565b61233990611b06565b38612263565b60405162461bcd60e51b81526020600482015260136024820152721a5b9cdd59999a58da595b9d081b5a5b93dd5d606a1b6044820152606490fd5b9050906121c1565b60405162461bcd60e51b815260206004820152601860248201527737379030bb30b4b630b136329034b73232bc103a37b5b2b760411b6044820152606490fd5b9050612117565b60405162461bcd60e51b81526020600482015260146024820152733737903732b2b21039ba30b13632903a37b5b2b760611b6044820152606490fd5b93509391509c5082829695961115610e3a5761242892610bf58d610bfb93612768565b6124398183604051610c5a81611b4a565b8015610dfb57808210156124f95750905b61246e612458839a8461288a565b8251909b8c9189906001600160a01b0316612541565b6002546020909101516001600160a01b039182169116813b156119b8579183929185846124b3969460405197889586948593630d172a0160e01b855260048501611ca6565b03925af19081156124ed5750916060916000805160206141c0833981519152936124de575b506122f0565b6124e790611b06565b386124d8565b604051903d90823e3d90fd5b90509061244a565b61251a91925060c03d8111610e9e57610e8f8183611b65565b903861207c565b61253a91925060e03d811161040a576103fc8183611b65565b903861202e565b906125779061256961257c956040519586936323b872dd60e01b602086015260248501611ca6565b03601f198101845283611b65565b61257e565b565b6040516125dc916001600160a01b031661259782611b2f565b6000806020958685527f5361666545524332303a206c6f772d6c6576656c2063616c6c206661696c656487860152868151910182855af16125d6611ce3565b9161266b565b805182811591821561264c575b50509050156125f55750565b6084906040519062461bcd60e51b82526004820152602a60248201527f5361666545524332303a204552433230206f7065726174696f6e20646964206e6044820152691bdd081cdd58d8d9595960b21b6064820152fd5b838092935001031261084a57816126639101611b9a565b8082386125e9565b919290156126cd575081511561267f575090565b3b156126885790565b60405162461bcd60e51b815260206004820152601d60248201527f416464726573733a2063616c6c20746f206e6f6e2d636f6e74726163740000006044820152606490fd5b8251909150156126e05750805190602001fd5b60405162461bcd60e51b815260206004820152908190612704906024830190612708565b0390fd5b919082519283825260005b848110612734575050826000602080949584010152601f8019910116010190565b602081830181015184830182015201612713565b8115612752570490565b634e487b7160e01b600052601260045260246000fd5b906000198183098183029182808310920391808303921461280c5768327cb2734119d3b7a9601e1b90828211156127cf577f7d33c22789773a07feda8b6f0930e26fa397c439f1d5cf4b2eb27d7306d2dc99940990828211900360e21b9103601e1c170290565b60405162461bcd60e51b81526020600482015260156024820152744d6174683a206d756c446976206f766572666c6f7760581b6044820152606490fd5b505068327cb2734119d3b7a9601e1b9004919050565b906000198183098183029182808310920391808303921461287f5761271090828211156127cf577fbc01a36e2eb1c432ca57a786c226809d495182a9930be0ded288ce703afb7e91940990828211900360fc1b910360041c170290565b505061271091500490565b9068327cb2734119d3b7a9601e1b90600019828409928281029283808610950394808603951461290e57848311156127cf578291096001821901821680920460028082600302188083028203028083028203028083028203028083028203028083028203028092029003029360018380600003040190848311900302920304170290565b50509061291b9250612748565b90565b9061271090600019828409928281029283808610950394808603951461290e57848311156127cf578291096001821901821680920460028082600302188083028203028083028203028083028203028083028203028083028203028092029003029360018380600003040190848311900302920304170290565b91600019828409928281029283808610950394808603951461290e57848311156127cf578291096001821901821680920460028082600302188083028203028083028203028083028203028083028203028083028203028092029003029360018380600003040190848311900302920304170290565b15612a1557565b60405162461bcd60e51b815260206004820152600e60248201526d1a5b9d985b1a5908185b5bdd5b9d60921b6044820152606490fd5b60405190612a5882611b2f565b600c82526b1cdd18589b19505b5bdd5b9d60a21b6020830152565b15612a7a57565b60405162461bcd60e51b815260206004820152600d60248201526c696e76616c696420707269636560981b6044820152606490fd5b60405190612abc82611b2f565b601082526f737461626c65546f74616c44656c746160801b6020830152565b60405190612ae882611b2f565b6011825270657870656374537461626c6544656c746160781b6020830152565b60405190612b1582611b2f565b600f82526e73776170537461626c6544656c746160881b6020830152565b60405190612b4082611b2f565b60168252756164644c697175696469747920736c697044656c746160501b6020830152565b60405190612b7282611b2f565b601482527318599d195c91995954dd18589b19505b5bdd5b9d60621b6020830152565b60405190612ba282611b2f565b600e82526d73776170496e64657844656c746160901b6020830152565b60405190612bcc82611b2f565b601382527218599d195c919959525b99195e105b5bdd5b9d606a1b6020830152565b6040919493926060820195825260208201520152565b91929093602495946000831580159061337e575b612c2190612a0e565b600154604051632f7ce47360e21b8152600481018890529860e0918a919082906001600160a01b03165afa801561035757602497988291613360575b506040810151612c77906001600160a01b03161515611c6b565b600254604051632500ed8d60e21b8152600481018990529860c0918a919082906001600160a01b03165afa9788156103c3578298613340575b50612cef84604051612cc181611b2f565b6018815277185919131a5c5d5a591a5d1e481a5b99195e105b5bdd5b9d60421b6020820152876110f1612a4b565b306001600160a01b0387160361330e575b612d0e60c082015186612822565b90612dd5612dce612d2360c084015188612822565b93612d8b85604051612d3481611b2f565b601b81527a185919131a5c5d5a591a5d1e481a5b99195e119959505b5bdd5b9d602a1b60208201528360405191612d6a83611b2f565b600f83526e1cdd18589b19519959505b5bdd5b9d608a1b602084015261415e565b8351600454612da89183916001600160a01b039081169116613387565b6020840151600454612dc89187916001600160a01b039081169116613387565b88611e20565b9286611e20565b8151909390612dec906001600160a01b031661404d565b99612df88b1515612a73565b84612e048c8351612768565b612e0e8d87612768565b9c8d9185604081960191612e23835182611e8f565b613069575b50505050612e40612e89936111d984612e4994611e8f565b6111e48d613a15565b9b60405190612e5782611b2f565b601e82527f6164644c697175696469747920696e6465784465706f73697444656c7461000060208301526110f1612b65565b60408201516001600160a01b0316803b156103ce5781612ec281928d6040519485809481936340c10f1960e01b83523060048401611cc8565b03925af180156103c35761305a575b5060018060a01b03604083015116815260076020526040812060018060a01b038616600052602052612f088a604060002054611e8f565b6040838101516001600160a01b0390811684526007602090815282852089831660009081529152919091209190915560025416803b156103ce578185612f689286838e60405196879586948593633431529d60e21b855260048501612bee565b03925af180156103c357613046575b50509181612fde827fae2a8a26a2b64d8d971277b87c24d1a12181aef23cf76b898a32ce8dd14c7591979695612fc561301d9660018060a01b0383511660018060a01b036002541690613387565b602001516002546001600160a01b039081169116613387565b60405190612feb82611b2f565b602082527f6164644c6971756964697479206166746572466565496e646578416d6f756e7460208301526110f1612b65565b6040516001600160a01b0391821695909116939091829161304091899184612bee565b0390a490565b6130508291611b06565b6101565780612f77565b61306390611b06565b38612ed1565b8561307a8661308193979697611e8f565b9351611e8f565b916130c48360405161309281611b2f565b601c81527b6164644c697175696469747920696e646578546f74616c44656c746160201b6020820152836110f1612aaf565b6130ce8382611e8f565b906130e061172060a08c015184612822565b97613124896040516130f181611b2f565b601d81527f6164644c697175696469747920657870656374496e64657844656c74610000006020820152856110f1612adb565b6131328760808d01516133ae565b9990958484111561321257505050936131ee6131d46131cd6131c6612e899b8a98611395612e499c6111d99a8f9a61316d90612e409f611e20565b9050808a111561320757611390613184828c611e20565b80925b6040519061319482611b2f565b601f82527f6164644c6971756964697479206e65656453776170496e64657844656c74610060208301526110f1612b95565b968761288a565b809d611e20565b8b51600554919d916001600160a01b039081169116613387565b6131fa8b6113b8612b33565b9450829650879150612e28565b6113908a8092613187565b9350935097959496505081811161323e575b5050505050612e49612e40612e89936111d98980956131fa565b612e899650612e49946114ab612e40956114a66111d99e966132666132c5976132be97611e20565b9485891115613303576114a061327c878b611e20565b80975b6040519061328c82611b2f565b602082527f6164644c6971756964697479206e65656453776170537461626c6544656c746160208301526110f1612b08565b8092611e20565b6020880151600554919a8b96909287926132ed9186916001600160a01b039182169116613387565b6132f9826114d4612b33565b9550829650613224565b6114a089809761327f565b61332385308860018060a01b03855116612541565b61333b84308860018060a01b03602086015116612541565b612d00565b61335991985060c03d8111610e9e57610e8f8183611b65565b9638612cb0565b613378915060e03d811161040a576103fc8183611b65565b38612c5d565b50821515612c18565b61257761257c939261256960405194859263a9059cbb60e01b602085015260248401611cc8565b9190801561340d5782156133dc576133d16133cc6133d89285612768565b613442565b8093612748565b9190565b60405162461bcd60e51b8152602060048201526009602482015268496e76616c6964206b60b81b6044820152606490fd5b60405162461bcd60e51b815260206004820152600d60248201526c496e76616c696420707269636560981b6044820152606490fd5b801561357f5761350d816000908360801c80613573575b508060401c80613566575b508060201c80613559575b508060101c8061354c575b508060081c8061353f575b508060041c80613532575b508060021c80613525575b50600191828092811c61351e575b1c1b6134b58185612748565b01811c6134c28185612748565b01811c6134cf8185612748565b01811c6134dc8185612748565b01811c6134e98185612748565b01811c6134f68185612748565b01811c6135038185612748565b01901c8092612748565b80821015613519575090565b905090565b01816134a9565b600291509101903861349b565b6004915091019038613490565b6008915091019038613485565b601091509101903861347a565b602091509101903861346f565b6040915091019038613464565b91505060809038613459565b50600090565b909181156135ee57821515806135e5575b156135ae576135a88261291b94611e8f565b91612998565b60405162461bcd60e51b815260206004820152600f60248201526e496e76616c6964207265736572766560881b6044820152606490fd5b50801515613596565b60405162461bcd60e51b815260206004820152600e60248201526d125b9d985b1a5908185b5bdd5b9d60921b6044820152606490fd5b6000949391613634831515612a0e565b60018060a01b03908160015416966040978851632f7ce47360e21b815260e0816024816004958c878301525afa908115613a0b5783916139ed575b5089810191613682868451161515611c6b565b85835116845260209260078452868c86209816978886528452888c862054106139b3579160c09b9391879695938b9a9998600254169d8e602488519e8f928391632500ed8d60e21b8352878301525afa9b8c156139a957859c613989575b506136eb8a8c613d65565b9e909c8d6136fe82518884015190611e20565b10613946578f908060608a61371893015191015190611e20565b1061390357803b156106f957858f613749928f8f84908c5196879586948593631a8c15b360e21b85528c8501612bee565b03925af180156138d2576138f0575b5087815116803b156106f9578561378681928d8a51948580948193632770a7eb60e21b8352308b8401611cc8565b03925af180156138d2579086916138dc575b505087815116855260078452858520896000528452876137bc8b8860002054611e20565b91511685526007845285852089600052845285600020558660025416928783511693803b156106f957858d613809928a838b51809681958294630d172a0160e01b9d8e85528c8501611ca6565b03925af180156138d25789929187916138b9575b505081600254169301511692823b156103bf5791869391858f9461384e82968a519889978896879586528501611ca6565b03925af180156138af5761389b575b5050906138947f6291bcce50c38c39d79a98ff5fad7f35319722e73285b50a6140dbfac75d511e93925192839216958a8984612bee565b0390a49190565b6138a58291611b06565b610156578061385d565b83513d84823e3d90fd5b6138c591929350611b06565b6103bf578790853861381d565b87513d88823e3d90fd5b6138e590611b06565b6103bf578438613798565b6138fc90959195611b06565b9338613758565b865162461bcd60e51b8152808401869052601f60248201527f696e73756666696369656e7420737461626c65546f6b656e20616d6f756e74006044820152606490fd5b875162461bcd60e51b8152808501879052601e60248201527f696e73756666696369656e7420696e646578546f6b656e20616d6f756e7400006044820152606490fd5b6139a2919c5060c03d8111610e9e57610e8f8183611b65565b9a386136e0565b86513d87823e3d90fd5b8b5162461bcd60e51b81528083018590526014602482015273696e73756666696369656e742062616c616e636560601b6044820152606490fd5b613a05915060e03d811161040a576103fc8183611b65565b3861366f565b8a513d85823e3d90fd5b90602460018060a01b0380600154169360e0604095865194858092632f7ce47360e21b82528560048301525afa928315613b5557600093613b60575b5060c08260025416916024875180948193632500ed8d60e21b835260048301525afa8015613b5557613aa691600091613b37575b5085613a9d613a968587511661404d565b8351612768565b91015190611e8f565b918215613b235784015184516318160ddd60e01b81529160209183916004918391165afa938415613b195750600093613ae6575b509161291b919261288a565b6020813d8211613b11575b81613afe60209383611b65565b810103126119b85751925061291b613ada565b3d9150613af1565b513d6000823e3d90fd5b5068327cb2734119d3b7a9601e1b93505050565b613b4f915060c03d8111610e9e57610e8f8183611b65565b38613a85565b85513d6000823e3d90fd5b613b7991935060e03d811161040a576103fc8183611b65565b9138613a51565b60405190613b8d82611b4a565b60218252606160f81b6040837f6765744d696e744c70416d6f756e7420696e6465784465706f73697444656c7460208201520152565b60405190613bd082611b2f565b60198252786765744d696e744c70416d6f756e7420736c697044656c746160381b6020830152565b60405190613c0582611b4a565b6027825266656e44656c746160c81b6040837f6765744465706f736974416d6f756e74206465706f736974496e646578546f6b60208201520152565b60405190613c4e82611b2f565b60178252766465706f736974537461626c65546f6b656e44656c746160481b6020830152565b60405190613c8182611b4a565b60238252621d5b9d60ea1b6040837f6765744465706f736974416d6f756e74206465706f736974496e646578416d6f60208201520152565b60405190613cc682611b2f565b601382527219195c1bdcda5d14dd18589b19505b5bdd5b9d606a1b6020830152565b60405190613cf582611b4a565b60288252676b656e44656c746160c01b6040837f6765745265636569766564416d6f756e742072656365697665496e646578546f60208201520152565b60405190613d3f82611b2f565b601782527672656365697665537461626c65546f6b656e44656c746160481b6020830152565b9190613d72811515612a0e565b60015460408051632f7ce47360e21b8152600481018690529092916001600160a01b039060e0908390602490829085165afa918215614042579060249291600092614022575b50613dc98186840151161515611c6b565b60c08160025416865194858092632500ed8d60e21b82528b60048301525afa928315613b5557600093613ffa575b50613e07613e2b9183511661404d565b93613e13851515612a73565b6116b786613e22878751612768565b95015198613a15565b91613e6a838651613e3b81611b2f565b601e81527f6765745265636569766564416d6f756e74207265636569766544656c7461000060208201526140bb565b613e8961172060a0613e80866111d98c87611e8f565b94015184612822565b613ed5818751613e9881611b4a565b602281527f6765745265636569766564416d6f756e7420657870656374496e64657844656c602082015261746160f01b89820152856110f1612adb565b6000908198848411600014613fb25750505090613ef191611e20565b818110613f965750613f186133d89286925b61139084613f0f613ce8565b836110f1613d32565b9283815191613f2683611b4a565b602983527f6765745265636569766564416d6f756e742072656365697665496e646578546f6020840152681ad95b905b5bdd5b9d60ba1b818401525191613f6c83611b2f565b60188352771c9958d95a5d9954dd18589b19551bdad95b905b5bdd5b9d60421b602084015261415e565b6133d8929550613faa81613f189293611e20565b958692613f03565b90919493506133d8959850613fc79250611e20565b818110613fe25750613f189095869261139084613f0f613ce8565b9150613ff182613f1892611e20565b91958692613f03565b613e2b91935061401a613e079160c03d8111610e9e57610e8f8183611b65565b939150613df7565b61403b91925060e03d811161040a576103fc8183611b65565b9038613db8565b84513d6000823e3d90fd5b6003546040516341976e0960e01b81526001600160a01b0392831660048201529160209183916024918391165afa908115610de75760009161408d575090565b906020823d82116140b3575b816140a660209383611b65565b8101031261015657505190565b3d9150614099565b60009190829161410060405180926140ec6020830195632d839cb360e21b8752604060248501526064840190612708565b90604483015203601f198101835282611b65565b51906a636f6e736f6c652e6c6f675afa50565b600092916141008493604051928391614145602084019663ca47c4eb60e01b8852606060248601526084850190612708565b916044840152606483015203601f198101835282611b65565b906141006000949385946141ab604051948593614194602086019863c67ea9d160e01b8a526080602488015260a4870190612708565b916044860152602319858303016064860152612708565b90608483015203601f198101835282611b6556fe2424e4440d8e90b9be053a61916674e21e7603a28f7dccf3ff7b88b755c2e619a2646970667358221220f69e59b9072371d195323b3e80b203a111373324bb8d696a3731d828f93f749864736f6c63430008110033",
  "devdoc": {
    "kind": "dev",
    "methods": {},
    "version": 1
  },
  "userdoc": {
    "kind": "user",
    "methods": {},
    "version": 1
  },
  "storageLayout": {
    "storage": [
      {
        "astId": 5225,
        "contract": "contracts/pair/PairLiquidity.sol:PairLiquidity",
        "label": "isHandler",
        "offset": 0,
        "slot": "0",
        "type": "t_mapping(t_address,t_bool)"
      },
      {
        "astId": 5933,
        "contract": "contracts/pair/PairLiquidity.sol:PairLiquidity",
        "label": "pairInfo",
        "offset": 0,
        "slot": "1",
        "type": "t_contract(IPairInfo)9479"
      },
      {
        "astId": 5936,
        "contract": "contracts/pair/PairLiquidity.sol:PairLiquidity",
        "label": "pairVault",
        "offset": 0,
        "slot": "2",
        "type": "t_contract(IPairVault)9585"
      },
      {
        "astId": 5939,
        "contract": "contracts/pair/PairLiquidity.sol:PairLiquidity",
        "label": "vaultPriceFeed",
        "offset": 0,
        "slot": "3",
        "type": "t_contract(IVaultPriceFeed)4515"
      },
      {
        "astId": 5941,
        "contract": "contracts/pair/PairLiquidity.sol:PairLiquidity",
        "label": "feeReceiver",
        "offset": 0,
        "slot": "4",
        "type": "t_address"
      },
      {
        "astId": 5943,
        "contract": "contracts/pair/PairLiquidity.sol:PairLiquidity",
        "label": "slipReceiver",
        "offset": 0,
        "slot": "5",
        "type": "t_address"
      },
      {
        "astId": 5945,
        "contract": "contracts/pair/PairLiquidity.sol:PairLiquidity",
        "label": "weth",
        "offset": 0,
        "slot": "6",
        "type": "t_address"
      },
      {
        "astId": 5951,
        "contract": "contracts/pair/PairLiquidity.sol:PairLiquidity",
        "label": "userPairTokens",
        "offset": 0,
        "slot": "7",
        "type": "t_mapping(t_address,t_mapping(t_address,t_uint256))"
      }
    ],
    "types": {
      "t_address": {
        "encoding": "inplace",
        "label": "address",
        "numberOfBytes": "20"
      },
      "t_bool": {
        "encoding": "inplace",
        "label": "bool",
        "numberOfBytes": "1"
      },
      "t_contract(IPairInfo)9479": {
        "encoding": "inplace",
        "label": "contract IPairInfo",
        "numberOfBytes": "20"
      },
      "t_contract(IPairVault)9585": {
        "encoding": "inplace",
        "label": "contract IPairVault",
        "numberOfBytes": "20"
      },
      "t_contract(IVaultPriceFeed)4515": {
        "encoding": "inplace",
        "label": "contract IVaultPriceFeed",
        "numberOfBytes": "20"
      },
      "t_mapping(t_address,t_bool)": {
        "encoding": "mapping",
        "key": "t_address",
        "label": "mapping(address => bool)",
        "numberOfBytes": "32",
        "value": "t_bool"
      },
      "t_mapping(t_address,t_mapping(t_address,t_uint256))": {
        "encoding": "mapping",
        "key": "t_address",
        "label": "mapping(address => mapping(address => uint256))",
        "numberOfBytes": "32",
        "value": "t_mapping(t_address,t_uint256)"
      },
      "t_mapping(t_address,t_uint256)": {
        "encoding": "mapping",
        "key": "t_address",
        "label": "mapping(address => uint256)",
        "numberOfBytes": "32",
        "value": "t_uint256"
      },
      "t_uint256": {
        "encoding": "inplace",
        "label": "uint256",
        "numberOfBytes": "32"
      }
    }
  }
}