{
  "address": "0x4631BCAbD6dF18D94796344963cB60d44a4136b6",
  "abi": [
    {
      "inputs": [
        {
          "internalType": "contract IAddressesProvider",
          "name": "addressProvider",
          "type": "address"
        },
        {
          "internalType": "contract IPairInfo",
          "name": "_pairInfo",
          "type": "address"
        }
      ],
      "stateMutability": "nonpayable",
      "type": "constructor"
    },
    {
      "inputs": [],
      "name": "ADDRESS_PROVIDER",
      "outputs": [
        {
          "internalType": "contract IAddressesProvider",
          "name": "",
          "type": "address"
        }
      ],
      "stateMutability": "view",
      "type": "function"
    },
    {
      "inputs": [
        {
          "internalType": "uint256",
          "name": "_pairIndex",
          "type": "uint256"
        },
        {
          "internalType": "uint256",
          "name": "_profit",
          "type": "uint256"
        }
      ],
      "name": "decreaseProfit",
      "outputs": [
        {
          "internalType": "uint256",
          "name": "extraIndexAmount",
          "type": "uint256"
        }
      ],
      "stateMutability": "nonpayable",
      "type": "function"
    },
    {
      "inputs": [
        {
          "internalType": "uint256",
          "name": "_pairIndex",
          "type": "uint256"
        },
        {
          "internalType": "uint256",
          "name": "_indexAmount",
          "type": "uint256"
        },
        {
          "internalType": "uint256",
          "name": "_stableAmount",
          "type": "uint256"
        }
      ],
      "name": "decreaseReserveAmount",
      "outputs": [],
      "stateMutability": "nonpayable",
      "type": "function"
    },
    {
      "inputs": [
        {
          "internalType": "uint256",
          "name": "_pairIndex",
          "type": "uint256"
        },
        {
          "internalType": "uint256",
          "name": "_indexAmount",
          "type": "uint256"
        },
        {
          "internalType": "uint256",
          "name": "_stableAmount",
          "type": "uint256"
        }
      ],
      "name": "decreaseTotalAmount",
      "outputs": [],
      "stateMutability": "nonpayable",
      "type": "function"
    },
    {
      "inputs": [
        {
          "internalType": "uint256",
          "name": "_pairIndex",
          "type": "uint256"
        }
      ],
      "name": "getVault",
      "outputs": [
        {
          "components": [
            {
              "internalType": "uint256",
              "name": "indexTotalAmount",
              "type": "uint256"
            },
            {
              "internalType": "uint256",
              "name": "indexReservedAmount",
              "type": "uint256"
            },
            {
              "internalType": "uint256",
              "name": "stableTotalAmount",
              "type": "uint256"
            },
            {
              "internalType": "uint256",
              "name": "stableReservedAmount",
              "type": "uint256"
            },
            {
              "internalType": "uint256",
              "name": "averagePrice",
              "type": "uint256"
            },
            {
              "internalType": "int256",
              "name": "realisedPnl",
              "type": "int256"
            }
          ],
          "internalType": "struct IPairVault.Vault",
          "name": "vault",
          "type": "tuple"
        }
      ],
      "stateMutability": "view",
      "type": "function"
    },
    {
      "inputs": [
        {
          "internalType": "uint256",
          "name": "_pairIndex",
          "type": "uint256"
        },
        {
          "internalType": "uint256",
          "name": "_profit",
          "type": "uint256"
        }
      ],
      "name": "increaseProfit",
      "outputs": [],
      "stateMutability": "nonpayable",
      "type": "function"
    },
    {
      "inputs": [
        {
          "internalType": "uint256",
          "name": "_pairIndex",
          "type": "uint256"
        },
        {
          "internalType": "uint256",
          "name": "_indexAmount",
          "type": "uint256"
        },
        {
          "internalType": "uint256",
          "name": "_stableAmount",
          "type": "uint256"
        }
      ],
      "name": "increaseReserveAmount",
      "outputs": [],
      "stateMutability": "nonpayable",
      "type": "function"
    },
    {
      "inputs": [
        {
          "internalType": "uint256",
          "name": "_pairIndex",
          "type": "uint256"
        },
        {
          "internalType": "uint256",
          "name": "_indexAmount",
          "type": "uint256"
        },
        {
          "internalType": "uint256",
          "name": "_stableAmount",
          "type": "uint256"
        }
      ],
      "name": "increaseTotalAmount",
      "outputs": [],
      "stateMutability": "nonpayable",
      "type": "function"
    },
    {
      "inputs": [
        {
          "internalType": "address",
          "name": "",
          "type": "address"
        }
      ],
      "name": "isHandler",
      "outputs": [
        {
          "internalType": "bool",
          "name": "",
          "type": "bool"
        }
      ],
      "stateMutability": "view",
      "type": "function"
    },
    {
      "inputs": [],
      "name": "pairInfo",
      "outputs": [
        {
          "internalType": "contract IPairInfo",
          "name": "",
          "type": "address"
        }
      ],
      "stateMutability": "view",
      "type": "function"
    },
    {
      "inputs": [],
      "name": "pairLiquidity",
      "outputs": [
        {
          "internalType": "address",
          "name": "",
          "type": "address"
        }
      ],
      "stateMutability": "view",
      "type": "function"
    },
    {
      "inputs": [],
      "name": "pairVault",
      "outputs": [
        {
          "internalType": "address",
          "name": "",
          "type": "address"
        }
      ],
      "stateMutability": "view",
      "type": "function"
    },
    {
      "inputs": [
        {
          "internalType": "contract IPairInfo",
          "name": "_pairInfo",
          "type": "address"
        }
      ],
      "name": "setPairInfo",
      "outputs": [],
      "stateMutability": "nonpayable",
      "type": "function"
    },
    {
      "inputs": [
        {
          "internalType": "address",
          "name": "_pairLiquidity",
          "type": "address"
        },
        {
          "internalType": "address",
          "name": "_pairVaule",
          "type": "address"
        }
      ],
      "name": "setPairLiquidityAndVault",
      "outputs": [],
      "stateMutability": "nonpayable",
      "type": "function"
    },
    {
      "inputs": [
        {
          "internalType": "address",
          "name": "_tradingVault",
          "type": "address"
        }
      ],
      "name": "setTradingVault",
      "outputs": [],
      "stateMutability": "nonpayable",
      "type": "function"
    },
    {
      "inputs": [
        {
          "internalType": "uint256",
          "name": "_pairIndex",
          "type": "uint256"
        },
        {
          "internalType": "bool",
          "name": "_isBuy",
          "type": "bool"
        },
        {
          "internalType": "uint256",
          "name": "_amountIn",
          "type": "uint256"
        },
        {
          "internalType": "uint256",
          "name": "_amountOut",
          "type": "uint256"
        }
      ],
      "name": "swap",
      "outputs": [],
      "stateMutability": "nonpayable",
      "type": "function"
    },
    {
      "inputs": [],
      "name": "tradingVault",
      "outputs": [
        {
          "internalType": "address",
          "name": "",
          "type": "address"
        }
      ],
      "stateMutability": "view",
      "type": "function"
    },
    {
      "inputs": [
        {
          "internalType": "address",
          "name": "token",
          "type": "address"
        },
        {
          "internalType": "address",
          "name": "to",
          "type": "address"
        },
        {
          "internalType": "uint256",
          "name": "amount",
          "type": "uint256"
        }
      ],
      "name": "transferTokenTo",
      "outputs": [],
      "stateMutability": "nonpayable",
      "type": "function"
    },
    {
      "inputs": [
        {
          "internalType": "uint256",
          "name": "_pairIndex",
          "type": "uint256"
        },
        {
          "internalType": "uint256",
          "name": "_averagePrice",
          "type": "uint256"
        }
      ],
      "name": "updateAveragePrice",
      "outputs": [],
      "stateMutability": "nonpayable",
      "type": "function"
    },
    {
      "inputs": [
        {
          "internalType": "uint256",
          "name": "",
          "type": "uint256"
        }
      ],
      "name": "vaults",
      "outputs": [
        {
          "internalType": "uint256",
          "name": "indexTotalAmount",
          "type": "uint256"
        },
        {
          "internalType": "uint256",
          "name": "indexReservedAmount",
          "type": "uint256"
        },
        {
          "internalType": "uint256",
          "name": "stableTotalAmount",
          "type": "uint256"
        },
        {
          "internalType": "uint256",
          "name": "stableReservedAmount",
          "type": "uint256"
        },
        {
          "internalType": "uint256",
          "name": "averagePrice",
          "type": "uint256"
        },
        {
          "internalType": "int256",
          "name": "realisedPnl",
          "type": "int256"
        }
      ],
      "stateMutability": "view",
      "type": "function"
    }
  ],
  "transactionHash": "0xb1a63c04421fa3840b9f156ddefeb27c1ab8d9079a9d8d2bc040cad505c60bb6",
  "args": [
    "0xCf7Ed3AccA5a467e9e704C703E8D87F634fB0Fc9",
    "0x49fd2BE640DB2910c2fAb69bB8531Ab6E76127ff"
  ],
  "numDeployments": 1,
  "solcInputHash": "7e1e509e3ffeca3760b074bc8bbeb130",
  "bytecode": "0x60a0346100b857601f61252638819003918201601f19168301916001600160401b038311848410176100bd5780849260409485528339810103126100b85780516001600160a01b039182821682036100b857602001519182168092036100b8573360005260006020526040600020600160ff1982541617905560805260018060a01b0319600154161760015560405161245290816100d4823960805181818161016201528181610d450152818161185101526118c20152f35b600080fd5b634e487b7160e01b600052604160045260246000fdfe6080604052600436101561001257600080fd5b6000803560e01c80630280545414611a2d5780630d172a01146119bd578063159ccea8146118805780631848effa1461183b5780631c27b53e1461178e5780632d23f4491461126057806346ea87af1461122257806354ab60f914610e3357806360dc001a14610d0d5780636a3056cc14610bca5780637a9d1ac4146106e55780637c7c829d1461058a57806381affd6d146105615780638c64ea4a146104ff5780639403b6341461043e578063a31a7b4414610415578063d0c54a741461029d578063f1bd27a814610274578063f49a9b8a146101245763fc2a5b1d146100f957600080fd5b346101215780600319360112610121576001546040516001600160a01b039091168152602090f35b80fd5b503461012157602080600319360112610270576001600160a01b03600435818116929083900361026c576040516351331ad760e01b815281816004817f000000000000000000000000000000000000000000000000000000000000000087165afa80156102615782918691610227575b50602460405180958193637be53ca160e01b8352336004840152165afa90811561021c5784916101e1575b506101ca9150611cb3565b600180546001600160a01b03191691909117905580f35b905081813d8311610215575b6101f78183611c71565b810103126102115761020b6101ca91611ca6565b386101bf565b8280fd5b503d6101ed565b6040513d86823e3d90fd5b82819392503d831161025a575b61023e8183611c71565b81010312610256576102508291611c92565b38610194565b8480fd5b503d610234565b6040513d87823e3d90fd5b8380fd5b5080fd5b50346101215780600319360112610121576004546040516001600160a01b039091168152602090f35b5034610121576103f56102af36611b7b565b90916102d760018060a01b0380600254163314908115610406575b81156103f8575b50611cef565b845260056020526103a06040852091825461039860028501958654926103508460405161030381611c20565b602b81527f696e637265617365546f74616c416d6f756e74206265666f726520696e64657860208201526a151bdd185b105b5bdd5b9d60aa1b60408201528361034a611d42565b916123bb565b6103938560405161036081611c3b565b602081527f696e637265617365546f74616c416d6f756e74205f696e646578416d6f756e7460208201528461034a611d6f565b611d98565b809455611d98565b809255604051906103b082611c20565b602a82527f696e637265617365546f74616c416d6f756e7420616674657220696e646578546020830152691bdd185b105b5bdd5b9d60b21b604083015261034a611d42565b80f35b9050600454163314386102d1565b809150600354163314906102ca565b50346101215780600319360112610121576003546040516001600160a01b039091168152602090f35b50346101215760203660031901126101215760408160c09260a0835161046381611bdc565b82815282602082015282858201528260608201528260808201520152600435815260056020522060405161049681611bdc565b8154918282526001810154602083019081526002820154604084019081526003830154916060850192835260a0600560048601549560808801968752015495019485526040519586525160208601525160408501525160608401525160808301525160a0820152f35b503461012157602036600319011261012157604060c091600435815260056020522080549060018101549060028101546003820154906005600484015493015493604051958652602086015260408501526060840152608083015260a0820152f35b50346101215780600319360112610121576002546040516001600160a01b039091168152602090f35b5034610121576103f561059c36611b7b565b90916105b360018060a01b03600454163314611cef565b8452600560205261068b6040852091600183019261068360038554920195865492610630846040516105e481611c20565b603081527f646563726561736552657365727665416d6f756e74206265666f726520696e6460208201526f195e14995cd95c9d9959105b5bdd5b9d60821b60408201528361034a611dc8565b61067e8560405161064081611c20565b602281527f646563726561736552657365727665416d6f756e74205f696e646578416d6f756020820152611b9d60f21b60408201528461034a611d6f565b611dbb565b809455611dbb565b8092556040519061069b82611c20565b602f82527f646563726561736552657365727665416d6f756e7420616674657220696e646560208301526e1e14995cd95c9d9959105b5bdd5b9d608a1b604083015261034a611dc8565b5034610121576080366003190112610121578060243515158060243503610bc757819060018060a01b036002541633148015610bb3575b8015610b9f575b61072c90611cef565b6040519061073982611c20565b602282527f737761702070616972496e64657820257320627579496e646578546f6b656e20602083015261257360f01b60408301526107b56040518092610799602083019563ca7733b160e01b8752606060248501526084840190611ffc565b906004356044840152606483015203601f198101835282611c71565b51906a636f6e736f6c652e6c6f675afa5061081f6040516107d581611c20565b602a81527f737761702070616972496e64657820257320616d6f756e74496e20257320616d6020820152696f756e744f757420257360b01b6040820152606435906044359061235d565b600435815260056020526040812060405161083981611bdc565b81548152600182015490602081019182526002830154926040820193845260056003820154916060840192835260048101546080850152015460a0830152602460e060018060a01b036001541660405192838092632f7ce47360e21b825260043560048301525afa8015610b9457610b65575b5060243515610a1c57506108c4925051905190611dbb565b61091e816040516108d481611c20565b602e81527f7377617020616d6f756e744f757420696e646578546f6b656e2025732061766160208201526d696c61626c65496e64657820257360901b60408201526064359061235d565b606435116109d957303b156101215780604051633431529d60e21b815260043560048201528160248201526044356044820152818160648183305af180156109ba576109c5575b5050303b156101215780604051631a8c15b360e21b815260043560048201526064356024820152816044820152818160648183305af180156109ba576109aa57505080f35b6109b390611c0d565b6101215780f35b6040513d84823e3d90fd5b6109ce90611c0d565b610121578038610965565b60405162461bcd60e51b815260206004820152601b60248201527a0e6eec2e040d2dcc8caf040e8ded6cadc40dcdee840cadcdeeaced602b1b6044820152606490fd5b915050610a2c9151905190611dbb565b610a8881604051610a3c81611c20565b603081527f7377617020616d6f756e744f757420737461626c65546f6b656e20257320617660208201526f61696c61626c65537461626c6520257360801b60408201526064359061235d565b60643511610b2157303b1561012157604051633431529d60e21b815260043560048201526044356024820152816044820152818160648183305af180156109ba57610b12575b50303b156101215780604051631a8c15b360e21b815260043560048201528160248201526064356044820152818160648183305af180156109ba576109aa57505080f35b610b1b90611c0d565b38610ace565b60405162461bcd60e51b815260206004820152601c60248201527b0e6eec2e040e6e8c2c4d8ca40e8ded6cadc40dcdee840cadcdeeaced60231b6044820152606490fd5b610b869060e03d60e011610b8d575b610b7e8183611c71565b810190612073565b50386108ac565b503d610b74565b6040513d88823e3d90fd5b506004546001600160a01b03163314610723565b506003546001600160a01b0316331461071c565b50fd5b5034610121576103f5610bdc36611b7b565b9091610c0260018060a01b03806002541633149081156104065781156103f85750611cef565b84526005602052610cb8604085209182546106836002850195865492610c7584604051610c2e81611c20565b602b81527f6465637265617365546f74616c416d6f756e74206265666f726520696e64657860208201526a151bdd185b105b5bdd5b9d60aa1b60408201528361034a611d42565b61067e85604051610c8581611c3b565b602081527f6465637265617365546f74616c416d6f756e74205f696e646578416d6f756e7460208201528461034a611d6f565b80925560405190610cc882611c20565b602a82527f6465637265617365546f74616c416d6f756e7420616674657220696e646578546020830152691bdd185b105b5bdd5b9d60b21b604083015261034a611d42565b50346101215760208060031936011261027057610d28611b9a565b6040516351331ad760e01b81526001600160a01b039280826004817f000000000000000000000000000000000000000000000000000000000000000088165afa80156102615784928691610dfa575b508190602460405180958193637be53ca160e01b8352336004840152165afa908115610261578591610dc3575b50610daf9150611cb3565b1660018060a01b0319600454161760045580f35b905081813d8311610df3575b610dd98183611c71565b8101031261026c57610ded610daf91611ca6565b38610da4565b503d610dcf565b809350828092503d8311610e2c575b610e138183611c71565b810103126102565780610e268593611c92565b90610d77565b503d610e09565b503461012157610e4236611bc6565b6002546001600160a01b03939290841633148015611215575b8015611208575b610e6b90611cef565b808352602091600583526040842091610eb882604051610e8a81611c3b565b60198152780d2dcc6e4cac2e6caa0e4deccd2e840bee0c2d2e492dcc8caf603b1b878201528361034a612021565b82546001840154604051610f0092610ecf82611c3b565b601f82527f696e63726561736550726f66697420696e646578546f74616c416d6f756e74008883015261034a612044565b85600154169060405196632f7ce47360e21b928389528260048a015260249860e0818b81855afa9081156111fd579083918a916111de575b505116926040519488868c816370a0823160e01b988982523060048301525afa9586156111d357908b918b9761119b575b509060e092916040519485938492835260048301525afa9081156111905787929183918a91611171575b5001511691886040518094819382523060048301525afa908115610b9457869161113e575b5060405161100492610fc982611c20565b602182527f696e63726561736550726f66697420696e646578546f6b656e2062616c616e6387830152606560f81b604083015261034a6120fb565b60056002830192611016838554611d98565b80945501805485838201938412911290801582169115161761112b576111178594611109869561104b868b976080975561212a565b6110fa6040519261105b84611c20565b602d84527f646563726561736552657365727665416d6f756e742061667465722073746162868501526c1b19551bdd185b105b5bdd5b9d609a1b60408501526110e1604051946110aa86611c3b565b600b86526a1c99585b1a5cd959141b9b60aa1b88870152604051998a9889019b635ab84e1f60e01b8d5289015260a4880190611ffc565b9060448701526023199384878303016064880152611ffc565b91848303016084850152611ffc565b03601f198101835282611c71565b51906a636f6e736f6c652e6c6f675afa5080f35b634e487b7160e01b855260116004528585fd5b90508481813d831161116a575b6111558183611c71565b810103126111665751611004610fb8565b8580fd5b503d61114b565b61118a915060e03d60e011610b8d57610b7e8183611c71565b38610f93565b6040513d8a823e3d90fd5b8a809298508193503d83116111cc575b6111b58183611c71565b810103126111c85751948a9060e0610f69565b8980fd5b503d6111ab565b6040513d8c823e3d90fd5b6111f7915060e03d60e011610b8d57610b7e8183611c71565b38610f38565b6040513d8b823e3d90fd5b5060045484163314610e62565b5083600354163314610e5b565b50346101215760203660031901126101215760209060ff906040906001600160a01b0361124d611b9a565b1681528084522054166040519015158152f35b50346101215761126f36611bc6565b919060018060a01b03600254163314801561177a575b8015611766575b61129590611cef565b8082526020926005845260408320916112e2826040516112b481611c3b565b60198152780c8cac6e4cac2e6caa0e4deccd2e840bee0c2d2e492dcc8caf603b1b888201528361034a612021565b8254600184015460405161132a926112f982611c3b565b601f82527f646563726561736550726f66697420696e646578546f74616c416d6f756e74008983015261034a612044565b600154604051632f7ce47360e21b8152600481018390526001600160a01b03909116919060e081602481865afa908115610b94578691611747575b50516040516370a0823160e01b80825230600483015290918890839060249082906001600160a01b03165afa9182156116ee578792611718575b50604051632f7ce47360e21b81526004810184905260e081602481885afa9081156111905790899189916116f9575b50810151604051928352306004840152829060249082906001600160a01b03165afa9081156116ee5787916116bb575b5060405161144a9261140f82611c20565b602182527f646563726561736550726f66697420696e646578546f6b656e2062616c616e638a830152606560f81b604083015261034a6120fb565b61145d6002850154600386015490611dbb565b85806114be6114d260405161147181611c3b565b601e81527f646563726561736550726f66697420617661696c61626c65537461626c6500008c8201526040519283918d632d839cb360e21b90840152604060248401526064830190611ffc565b86604483015203601f198101835282611c71565b89815191016a636f6e736f6c652e6c6f675afa50831161167c5760e090602460405180948193632f7ce47360e21b835260048301525afa90811561021c57611531918391869161165d575b5086015133906001600160a01b0316611df8565b61153f816002840154611dbb565b91826002820155600581018054858482039412818512811691851390151617611649579161163061157786959383879655549261212a565b916111096040519461158886611c56565b604c86527f646563726561736550726f66697420616674657220737461626c65546f74616c8a8701527f416d6f756e7420257320696e646578546f74616c416d6f756e7420257320726560408701526b616c69736564506e6c20257360a01b60608701526040519485936116148c8601986342a59a4b60e11b8a526080602488015260a4870190611ffc565b9260448601526064850152602319848303016084850152611ffc565b51906a636f6e736f6c652e6c6f675afa50604051908152f35b634e487b7160e01b85526011600452602485fd5b611676915060e03d60e011610b8d57610b7e8183611c71565b3861151d565b60405162461bcd60e51b81526004810187905260176024820152760e6e8c2c4d8ca40e8ded6cadc40dcdee840cadcdeeaced604b1b6044820152606490fd5b90508781813d83116116e7575b6116d28183611c71565b810103126116e3575161144a6113fe565b8680fd5b503d6116c8565b6040513d89823e3d90fd5b611712915060e03d60e011610b8d57610b7e8183611c71565b386113ce565b9091508781813d8311611740575b6117308183611c71565b810103126116e35751903861139f565b503d611726565b611760915060e03d60e011610b8d57610b7e8183611c71565b38611365565b506004546001600160a01b0316331461128c565b506003546001600160a01b03163314611285565b50346101215761179d36611bc6565b906117c260018060a01b03806002541633149081156104065781156103f85750611cef565b611829826040516117d281611c3b565b601d81527f757064617465417665726167655072696365205f70616972496e6465780000006020820152836040519161180a83611c3b565b600d83526c5f61766572616765507269636560981b60208401526123bb565b82526005602052600460408320015580f35b50346101215780600319360112610121576040517f00000000000000000000000000000000000000000000000000000000000000006001600160a01b03168152602090f35b50346101215760403660031901126101215761189a611b9a565b6118a2611bb0565b6040516351331ad760e01b81526001600160a01b039190602080826004817f000000000000000000000000000000000000000000000000000000000000000088165afa8015610b945784928791611984575b508190602460405180958193637be53ca160e01b8352336004840152165afa908115610b9457869161194d575b5061192c9150611cb3565b8160018060a01b031993168360025416176002551690600354161760035580f35b905081813d831161197d575b6119638183611c71565b810103126102565761197761192c91611ca6565b38611921565b503d611959565b809350828092503d83116119b6575b61199d8183611c71565b8101031261116657806119b08593611c92565b906118f4565b503d611993565b5034610121576060366003190112610121576103f56119da611b9a565b6119e2611bb0565b6002546001600160a01b0390811633148015611a20575b8015611a13575b611a0990611cef565b6044359216611df8565b5060045481163314611a00565b50806003541633146119f9565b5034610121576103f5611a3f36611b7b565b9091611a5660018060a01b03600454163314611cef565b84526005602052611b216040852091600183019261039860038554920195865492611ad384604051611a8781611c20565b603081527f696e63726561736552657365727665416d6f756e74206265666f726520696e6460208201526f195e14995cd95c9d9959105b5bdd5b9d60821b60408201528361034a611dc8565b61039385604051611ae381611c20565b602281527f696e63726561736552657365727665416d6f756e74205f696e646578416d6f756020820152611b9d60f21b60408201528461034a611d6f565b80925560405190611b3182611c20565b602f82527f696e63726561736552657365727665416d6f756e7420616674657220696e646560208301526e1e14995cd95c9d9959105b5bdd5b9d608a1b604083015261034a611dc8565b6060906003190112611b9557600435906024359060443590565b600080fd5b600435906001600160a01b0382168203611b9557565b602435906001600160a01b0382168203611b9557565b6040906003190112611b95576004359060243590565b60c081019081106001600160401b03821117611bf757604052565b634e487b7160e01b600052604160045260246000fd5b6001600160401b038111611bf757604052565b606081019081106001600160401b03821117611bf757604052565b604081019081106001600160401b03821117611bf757604052565b608081019081106001600160401b03821117611bf757604052565b90601f801991011681019081106001600160401b03821117611bf757604052565b51906001600160a01b0382168203611b9557565b51908115158203611b9557565b15611cba57565b60405162461bcd60e51b815260206004820152600d60248201526c37b7363ca837b7b620b236b4b760991b6044820152606490fd5b15611cf657565b60405162461bcd60e51b81526020600482015260096024820152683337b93134b23232b760b91b6044820152606490fd5b6001600160401b038111611bf757601f01601f191660200190565b60405190611d4f82611c3b565b60118252701cdd18589b19551bdd185b105b5bdd5b9d607a1b6020830152565b60405190611d7c82611c3b565b600d82526c17dcdd18589b19505b5bdd5b9d609a1b6020830152565b91908201809211611da557565b634e487b7160e01b600052601160045260246000fd5b91908203918211611da557565b60405190611dd582611c3b565b60148252731cdd18589b1954995cd95c9d9959105b5bdd5b9d60621b6020830152565b60405163a9059cbb60e01b60208083019182526001600160a01b03948516602484015260448084019690965294825292611ea392611e3583611c56565b1660405191611e4383611c3b565b8583527f5361666545524332303a206c6f772d6c6576656c2063616c6c206661696c656486840152600080958192519082855af13d15611f38573d91611e8883611d27565b92611e966040519485611c71565b83523d868885013e611f3c565b90815190838215928315611f16575b505050905015611ebf5750565b6084906040519062461bcd60e51b82526004820152602a60248201527f5361666545524332303a204552433230206f7065726174696f6e20646964206e6044820152691bdd081cdd58d8d9595960b21b6064820152fd5b848092939450010312610121575081611f2f9101611ca6565b80388381611eb2565b6060915b91929015611f9e5750815115611f50575090565b3b15611f595790565b60405162461bcd60e51b815260206004820152601d60248201527f416464726573733a2063616c6c20746f206e6f6e2d636f6e74726163740000006044820152606490fd5b825190915015611fb15750805190602001fd5b60405162461bcd60e51b815260206004820152908190611fd5906024830190611ffc565b0390fd5b60005b838110611fec5750506000910152565b8181015183820152602001611fdc565b9060209161201581518092818552858086019101611fd9565b601f01601f1916010190565b6040519061202e82611c3b565b600782526617dc1c9bd99a5d60ca1b6020830152565b6040519061205182611c3b565b60138252721a5b99195e14995cd95c9d9959105b5bdd5b9d606a1b6020830152565b908160e0910312611b95576040519060e08201908282106001600160401b03831117611bf75760c0916040526120a881611c92565b83526120b660208201611c92565b60208401526120c760408201611c92565b60408401526120d860608201611ca6565b60608401526080810151608084015260a081015160a0840152015160c082015290565b6040519061210882611c3b565b6013825272737461626c65546f6b656e2062616c616e636560681b6020830152565b60008082128015929061233d57604051602081018181106001600160401b0382111761232957604052828152925b15612303575b81908072184f03e93ff9f4daa797ed6e38ed64bf6a1f0160401b81818110156122f5575b506904ee2d6d415b85acef8160201b9050808310156122e6575b50662386f26fc10000808310156122d7575b506305f5e100808310156122c8575b50612710808310156122b9575b5060648210156122a9575b600a8092101561229f575b6001908160218186019561220c6121f688611d27565b97612204604051998a611c71565b808952611d27565b602088019890601f1901368a3750860101905b612269575b5050505061225a9261226692602092604051958361224b8895518092888089019101611fd9565b84019151809386840190611fd9565b01038084520182611c71565b90565b600019019083906f181899199a1a9b1b9c1cb0b131b232b360811b8282061a83530491821561229a5791908261221f565b612224565b91600101916121e0565b91906064600291049101916121d5565b600491939204910191386121ca565b600891939204910191386121bd565b601091939204910191386121ae565b6020919392049101913861219c565b604094500491503880612182565b600160ff1b811461231557810361215e565b634e487b7160e01b82526011600452602482fd5b634e487b7160e01b84526041600452602484fd5b60405161234981611c3b565b60018152602d60f81b602082015292612158565b600092916123a8849360405192839161238f602084019663ca47c4eb60e01b8852606060248601526084850190611ffc565b916044840152606483015203601f198101835282611c71565b51906a636f6e736f6c652e6c6f675afa50565b906123a86000949385946124086040519485936123f1602086019863c67ea9d160e01b8a526080602488015260a4870190611ffc565b916044860152602319858303016064860152611ffc565b90608483015203601f198101835282611c7156fea26469706673582212208699efc648e011768c051a00bf8cd9dfe6578c139e4342d18bc819180d8265c864736f6c63430008110033",
  "devdoc": {
    "kind": "dev",
    "methods": {},
    "version": 1
  },
  "userdoc": {
    "kind": "user",
    "methods": {},
    "version": 1
  },
  "storageLayout": {
    "storage": [
      {
        "astId": 5225,
        "contract": "contracts/pair/PairVault.sol:PairVault",
        "label": "isHandler",
        "offset": 0,
        "slot": "0",
        "type": "t_mapping(t_address,t_bool)"
      },
      {
        "astId": 8580,
        "contract": "contracts/pair/PairVault.sol:PairVault",
        "label": "pairInfo",
        "offset": 0,
        "slot": "1",
        "type": "t_contract(IPairInfo)9479"
      },
      {
        "astId": 8582,
        "contract": "contracts/pair/PairVault.sol:PairVault",
        "label": "pairLiquidity",
        "offset": 0,
        "slot": "2",
        "type": "t_address"
      },
      {
        "astId": 8584,
        "contract": "contracts/pair/PairVault.sol:PairVault",
        "label": "pairVault",
        "offset": 0,
        "slot": "3",
        "type": "t_address"
      },
      {
        "astId": 8586,
        "contract": "contracts/pair/PairVault.sol:PairVault",
        "label": "tradingVault",
        "offset": 0,
        "slot": "4",
        "type": "t_address"
      },
      {
        "astId": 8591,
        "contract": "contracts/pair/PairVault.sol:PairVault",
        "label": "vaults",
        "offset": 0,
        "slot": "5",
        "type": "t_mapping(t_uint256,t_struct(Vault)9497_storage)"
      }
    ],
    "types": {
      "t_address": {
        "encoding": "inplace",
        "label": "address",
        "numberOfBytes": "20"
      },
      "t_bool": {
        "encoding": "inplace",
        "label": "bool",
        "numberOfBytes": "1"
      },
      "t_contract(IPairInfo)9479": {
        "encoding": "inplace",
        "label": "contract IPairInfo",
        "numberOfBytes": "20"
      },
      "t_int256": {
        "encoding": "inplace",
        "label": "int256",
        "numberOfBytes": "32"
      },
      "t_mapping(t_address,t_bool)": {
        "encoding": "mapping",
        "key": "t_address",
        "label": "mapping(address => bool)",
        "numberOfBytes": "32",
        "value": "t_bool"
      },
      "t_mapping(t_uint256,t_struct(Vault)9497_storage)": {
        "encoding": "mapping",
        "key": "t_uint256",
        "label": "mapping(uint256 => struct IPairVault.Vault)",
        "numberOfBytes": "32",
        "value": "t_struct(Vault)9497_storage"
      },
      "t_struct(Vault)9497_storage": {
        "encoding": "inplace",
        "label": "struct IPairVault.Vault",
        "members": [
          {
            "astId": 9486,
            "contract": "contracts/pair/PairVault.sol:PairVault",
            "label": "indexTotalAmount",
            "offset": 0,
            "slot": "0",
            "type": "t_uint256"
          },
          {
            "astId": 9488,
            "contract": "contracts/pair/PairVault.sol:PairVault",
            "label": "indexReservedAmount",
            "offset": 0,
            "slot": "1",
            "type": "t_uint256"
          },
          {
            "astId": 9490,
            "contract": "contracts/pair/PairVault.sol:PairVault",
            "label": "stableTotalAmount",
            "offset": 0,
            "slot": "2",
            "type": "t_uint256"
          },
          {
            "astId": 9492,
            "contract": "contracts/pair/PairVault.sol:PairVault",
            "label": "stableReservedAmount",
            "offset": 0,
            "slot": "3",
            "type": "t_uint256"
          },
          {
            "astId": 9494,
            "contract": "contracts/pair/PairVault.sol:PairVault",
            "label": "averagePrice",
            "offset": 0,
            "slot": "4",
            "type": "t_uint256"
          },
          {
            "astId": 9496,
            "contract": "contracts/pair/PairVault.sol:PairVault",
            "label": "realisedPnl",
            "offset": 0,
            "slot": "5",
            "type": "t_int256"
          }
        ],
        "numberOfBytes": "192"
      },
      "t_uint256": {
        "encoding": "inplace",
        "label": "uint256",
        "numberOfBytes": "32"
      }
    }
  }
}