{
  "address": "0xf953b3A269d80e3eB0F2947630Da976B896A8C5b",
  "abi": [
    {
      "inputs": [
        {
          "internalType": "contract IAddressesProvider",
          "name": "addressProvider",
          "type": "address"
        },
        {
          "internalType": "contract IPairInfo",
          "name": "_pairInfo",
          "type": "address"
        },
        {
          "internalType": "contract IPairVault",
          "name": "_pairVault",
          "type": "address"
        },
        {
          "internalType": "contract IOraclePriceFeed",
          "name": "_vaultPriceFeed",
          "type": "address"
        },
        {
          "internalType": "address",
          "name": "_tradingFeeReceiver",
          "type": "address"
        },
        {
          "internalType": "uint256",
          "name": "_fundingInterval",
          "type": "uint256"
        }
      ],
      "stateMutability": "nonpayable",
      "type": "constructor"
    },
    {
      "anonymous": false,
      "inputs": [
        {
          "indexed": false,
          "internalType": "bytes32",
          "name": "positionKey",
          "type": "bytes32"
        },
        {
          "indexed": false,
          "internalType": "address",
          "name": "account",
          "type": "address"
        },
        {
          "indexed": false,
          "internalType": "uint256",
          "name": "pairIndex",
          "type": "uint256"
        },
        {
          "indexed": false,
          "internalType": "bool",
          "name": "isLong",
          "type": "bool"
        }
      ],
      "name": "ClosePosition",
      "type": "event"
    },
    {
      "anonymous": false,
      "inputs": [
        {
          "indexed": false,
          "internalType": "bytes32",
          "name": "positionKey",
          "type": "bytes32"
        },
        {
          "indexed": false,
          "internalType": "address",
          "name": "account",
          "type": "address"
        },
        {
          "indexed": false,
          "internalType": "uint256",
          "name": "pairIndex",
          "type": "uint256"
        },
        {
          "indexed": false,
          "internalType": "bool",
          "name": "isLong",
          "type": "bool"
        },
        {
          "indexed": false,
          "internalType": "int256",
          "name": "collateral",
          "type": "int256"
        },
        {
          "indexed": false,
          "internalType": "uint256",
          "name": "sizeAmount",
          "type": "uint256"
        },
        {
          "indexed": false,
          "internalType": "uint256",
          "name": "price",
          "type": "uint256"
        },
        {
          "indexed": false,
          "internalType": "uint256",
          "name": "tradingFee",
          "type": "uint256"
        },
        {
          "indexed": false,
          "internalType": "int256",
          "name": "fundingFee",
          "type": "int256"
        },
        {
          "indexed": false,
          "internalType": "int256",
          "name": "realisedPnl",
          "type": "int256"
        },
        {
          "indexed": false,
          "internalType": "uint256",
          "name": "transferOut",
          "type": "uint256"
        }
      ],
      "name": "DecreasePosition",
      "type": "event"
    },
    {
      "anonymous": false,
      "inputs": [
        {
          "indexed": false,
          "internalType": "bytes32",
          "name": "positionKey",
          "type": "bytes32"
        },
        {
          "indexed": false,
          "internalType": "address",
          "name": "account",
          "type": "address"
        },
        {
          "indexed": false,
          "internalType": "uint256",
          "name": "pairIndex",
          "type": "uint256"
        },
        {
          "indexed": false,
          "internalType": "int256",
          "name": "collateral",
          "type": "int256"
        },
        {
          "indexed": false,
          "internalType": "bool",
          "name": "isLong",
          "type": "bool"
        },
        {
          "indexed": false,
          "internalType": "uint256",
          "name": "sizeAmount",
          "type": "uint256"
        },
        {
          "indexed": false,
          "internalType": "uint256",
          "name": "price",
          "type": "uint256"
        },
        {
          "indexed": false,
          "internalType": "uint256",
          "name": "tradingFee",
          "type": "uint256"
        },
        {
          "indexed": false,
          "internalType": "int256",
          "name": "fundingFee",
          "type": "int256"
        },
        {
          "indexed": false,
          "internalType": "uint256",
          "name": "transferOut",
          "type": "uint256"
        }
      ],
      "name": "IncreasePosition",
      "type": "event"
    },
    {
      "anonymous": false,
      "inputs": [
        {
          "indexed": false,
          "internalType": "uint256",
          "name": "pairIndex",
          "type": "uint256"
        },
        {
          "indexed": false,
          "internalType": "uint256",
          "name": "profit",
          "type": "uint256"
        },
        {
          "indexed": false,
          "internalType": "uint256",
          "name": "lastFundingTime",
          "type": "uint256"
        }
      ],
      "name": "NeedBuyIndexToken",
      "type": "event"
    },
    {
      "anonymous": false,
      "inputs": [
        {
          "indexed": false,
          "internalType": "uint256",
          "name": "oldInterval",
          "type": "uint256"
        },
        {
          "indexed": false,
          "internalType": "uint256",
          "name": "newInterval",
          "type": "uint256"
        }
      ],
      "name": "UpdateFundingInterval",
      "type": "event"
    },
    {
      "anonymous": false,
      "inputs": [
        {
          "indexed": false,
          "internalType": "uint256",
          "name": "pairIndex",
          "type": "uint256"
        },
        {
          "indexed": false,
          "internalType": "int256",
          "name": "fundingRate",
          "type": "int256"
        },
        {
          "indexed": false,
          "internalType": "uint256",
          "name": "lastFundingTime",
          "type": "uint256"
        }
      ],
      "name": "UpdateFundingRate",
      "type": "event"
    },
    {
      "anonymous": false,
      "inputs": [
        {
          "indexed": false,
          "internalType": "address",
          "name": "oldPairInfo",
          "type": "address"
        },
        {
          "indexed": false,
          "internalType": "address",
          "name": "newPairInfo",
          "type": "address"
        }
      ],
      "name": "UpdatePairInfo",
      "type": "event"
    },
    {
      "anonymous": false,
      "inputs": [
        {
          "indexed": false,
          "internalType": "address",
          "name": "oldPairVault",
          "type": "address"
        },
        {
          "indexed": false,
          "internalType": "address",
          "name": "newPairVault",
          "type": "address"
        }
      ],
      "name": "UpdatePairVault",
      "type": "event"
    },
    {
      "anonymous": false,
      "inputs": [
        {
          "indexed": false,
          "internalType": "bytes32",
          "name": "positionKey",
          "type": "bytes32"
        },
        {
          "indexed": false,
          "internalType": "address",
          "name": "account",
          "type": "address"
        },
        {
          "indexed": false,
          "internalType": "uint256",
          "name": "pairIndex",
          "type": "uint256"
        },
        {
          "indexed": false,
          "internalType": "bool",
          "name": "isLong",
          "type": "bool"
        },
        {
          "indexed": false,
          "internalType": "uint256",
          "name": "collateral",
          "type": "uint256"
        },
        {
          "indexed": false,
          "internalType": "uint256",
          "name": "positionAmount",
          "type": "uint256"
        },
        {
          "indexed": false,
          "internalType": "uint256",
          "name": "averagePrice",
          "type": "uint256"
        },
        {
          "indexed": false,
          "internalType": "int256",
          "name": "entryFundingRate",
          "type": "int256"
        },
        {
          "indexed": false,
          "internalType": "uint256",
          "name": "entryFundingTime",
          "type": "uint256"
        },
        {
          "indexed": false,
          "internalType": "int256",
          "name": "realisedPnl",
          "type": "int256"
        },
        {
          "indexed": false,
          "internalType": "uint256",
          "name": "price",
          "type": "uint256"
        }
      ],
      "name": "UpdatePosition",
      "type": "event"
    },
    {
      "anonymous": false,
      "inputs": [
        {
          "indexed": false,
          "internalType": "address",
          "name": "oldReceiver",
          "type": "address"
        },
        {
          "indexed": false,
          "internalType": "address",
          "name": "newReceiver",
          "type": "address"
        }
      ],
      "name": "UpdateTradingFeeReceiver",
      "type": "event"
    },
    {
      "inputs": [],
      "name": "ADDRESS_PROVIDER",
      "outputs": [
        {
          "internalType": "contract IAddressesProvider",
          "name": "",
          "type": "address"
        }
      ],
      "stateMutability": "view",
      "type": "function"
    },
    {
      "inputs": [],
      "name": "addressPositionManager",
      "outputs": [
        {
          "internalType": "address",
          "name": "",
          "type": "address"
        }
      ],
      "stateMutability": "view",
      "type": "function"
    },
    {
      "inputs": [
        {
          "internalType": "uint256",
          "name": "",
          "type": "uint256"
        }
      ],
      "name": "cumulativeFundingRates",
      "outputs": [
        {
          "internalType": "int256",
          "name": "",
          "type": "int256"
        }
      ],
      "stateMutability": "view",
      "type": "function"
    },
    {
      "inputs": [
        {
          "internalType": "address",
          "name": "_account",
          "type": "address"
        },
        {
          "internalType": "uint256",
          "name": "_pairIndex",
          "type": "uint256"
        },
        {
          "internalType": "int256",
          "name": "_collateral",
          "type": "int256"
        },
        {
          "internalType": "uint256",
          "name": "_sizeAmount",
          "type": "uint256"
        },
        {
          "internalType": "bool",
          "name": "_isLong",
          "type": "bool"
        },
        {
          "internalType": "uint256",
          "name": "_price",
          "type": "uint256"
        }
      ],
      "name": "decreasePosition",
      "outputs": [
        {
          "internalType": "uint256",
          "name": "tradingFee",
          "type": "uint256"
        },
        {
          "internalType": "int256",
          "name": "fundingFee",
          "type": "int256"
        },
        {
          "internalType": "int256",
          "name": "pnl",
          "type": "int256"
        }
      ],
      "stateMutability": "nonpayable",
      "type": "function"
    },
    {
      "inputs": [],
      "name": "fundingInterval",
      "outputs": [
        {
          "internalType": "uint256",
          "name": "",
          "type": "uint256"
        }
      ],
      "stateMutability": "view",
      "type": "function"
    },
    {
      "inputs": [
        {
          "internalType": "uint256",
          "name": "_pairIndex",
          "type": "uint256"
        }
      ],
      "name": "getCurrentFundingRate",
      "outputs": [
        {
          "internalType": "int256",
          "name": "",
          "type": "int256"
        }
      ],
      "stateMutability": "view",
      "type": "function"
    },
    {
      "inputs": [
        {
          "internalType": "bool",
          "name": "_increase",
          "type": "bool"
        },
        {
          "internalType": "address",
          "name": "_account",
          "type": "address"
        },
        {
          "internalType": "uint256",
          "name": "_pairIndex",
          "type": "uint256"
        },
        {
          "internalType": "bool",
          "name": "_isLong",
          "type": "bool"
        },
        {
          "internalType": "uint256",
          "name": "_sizeAmount",
          "type": "uint256"
        }
      ],
      "name": "getFundingFee",
      "outputs": [
        {
          "internalType": "int256",
          "name": "",
          "type": "int256"
        }
      ],
      "stateMutability": "view",
      "type": "function"
    },
    {
      "inputs": [
        {
          "internalType": "address",
          "name": "_account",
          "type": "address"
        },
        {
          "internalType": "uint256",
          "name": "_pairIndex",
          "type": "uint256"
        },
        {
          "internalType": "bool",
          "name": "_isLong",
          "type": "bool"
        }
      ],
      "name": "getPosition",
      "outputs": [
        {
          "components": [
            {
              "internalType": "bytes32",
              "name": "key",
              "type": "bytes32"
            },
            {
              "internalType": "address",
              "name": "account",
              "type": "address"
            },
            {
              "internalType": "uint256",
              "name": "pairIndex",
              "type": "uint256"
            },
            {
              "internalType": "bool",
              "name": "isLong",
              "type": "bool"
            },
            {
              "internalType": "uint256",
              "name": "collateral",
              "type": "uint256"
            },
            {
              "internalType": "uint256",
              "name": "positionAmount",
              "type": "uint256"
            },
            {
              "internalType": "uint256",
              "name": "averagePrice",
              "type": "uint256"
            },
            {
              "internalType": "int256",
              "name": "entryFundingRate",
              "type": "int256"
            },
            {
              "internalType": "uint256",
              "name": "entryFundingTime",
              "type": "uint256"
            },
            {
              "internalType": "int256",
              "name": "realisedPnl",
              "type": "int256"
            }
          ],
          "internalType": "struct Position.Info",
          "name": "",
          "type": "tuple"
        }
      ],
      "stateMutability": "view",
      "type": "function"
    },
    {
      "inputs": [
        {
          "internalType": "bytes32",
          "name": "key",
          "type": "bytes32"
        }
      ],
      "name": "getPositionByKey",
      "outputs": [
        {
          "components": [
            {
              "internalType": "bytes32",
              "name": "key",
              "type": "bytes32"
            },
            {
              "internalType": "address",
              "name": "account",
              "type": "address"
            },
            {
              "internalType": "uint256",
              "name": "pairIndex",
              "type": "uint256"
            },
            {
              "internalType": "bool",
              "name": "isLong",
              "type": "bool"
            },
            {
              "internalType": "uint256",
              "name": "collateral",
              "type": "uint256"
            },
            {
              "internalType": "uint256",
              "name": "positionAmount",
              "type": "uint256"
            },
            {
              "internalType": "uint256",
              "name": "averagePrice",
              "type": "uint256"
            },
            {
              "internalType": "int256",
              "name": "entryFundingRate",
              "type": "int256"
            },
            {
              "internalType": "uint256",
              "name": "entryFundingTime",
              "type": "uint256"
            },
            {
              "internalType": "int256",
              "name": "realisedPnl",
              "type": "int256"
            }
          ],
          "internalType": "struct Position.Info",
          "name": "",
          "type": "tuple"
        }
      ],
      "stateMutability": "view",
      "type": "function"
    },
    {
      "inputs": [
        {
          "internalType": "address",
          "name": "_account",
          "type": "address"
        },
        {
          "internalType": "uint256",
          "name": "_pairIndex",
          "type": "uint256"
        },
        {
          "internalType": "bool",
          "name": "_isLong",
          "type": "bool"
        }
      ],
      "name": "getPositionKey",
      "outputs": [
        {
          "internalType": "bytes32",
          "name": "",
          "type": "bytes32"
        }
      ],
      "stateMutability": "pure",
      "type": "function"
    },
    {
      "inputs": [
        {
          "internalType": "uint256",
          "name": "_pairIndex",
          "type": "uint256"
        },
        {
          "internalType": "bool",
          "name": "_isLong",
          "type": "bool"
        },
        {
          "internalType": "uint256",
          "name": "_sizeAmount",
          "type": "uint256"
        }
      ],
      "name": "getTradingFee",
      "outputs": [
        {
          "internalType": "uint256",
          "name": "tradingFee",
          "type": "uint256"
        }
      ],
      "stateMutability": "view",
      "type": "function"
    },
    {
      "inputs": [
        {
          "internalType": "address",
          "name": "_account",
          "type": "address"
        },
        {
          "internalType": "uint256",
          "name": "_pairIndex",
          "type": "uint256"
        },
        {
          "internalType": "int256",
          "name": "_collateral",
          "type": "int256"
        },
        {
          "internalType": "uint256",
          "name": "_sizeAmount",
          "type": "uint256"
        },
        {
          "internalType": "bool",
          "name": "_isLong",
          "type": "bool"
        },
        {
          "internalType": "uint256",
          "name": "_price",
          "type": "uint256"
        }
      ],
      "name": "increasePosition",
      "outputs": [
        {
          "internalType": "uint256",
          "name": "tradingFee",
          "type": "uint256"
        },
        {
          "internalType": "int256",
          "name": "fundingFee",
          "type": "int256"
        }
      ],
      "stateMutability": "nonpayable",
      "type": "function"
    },
    {
      "inputs": [
        {
          "internalType": "address",
          "name": "",
          "type": "address"
        }
      ],
      "name": "isFrozen",
      "outputs": [
        {
          "internalType": "bool",
          "name": "",
          "type": "bool"
        }
      ],
      "stateMutability": "view",
      "type": "function"
    },
    {
      "inputs": [
        {
          "internalType": "address",
          "name": "",
          "type": "address"
        }
      ],
      "name": "isHandler",
      "outputs": [
        {
          "internalType": "bool",
          "name": "",
          "type": "bool"
        }
      ],
      "stateMutability": "view",
      "type": "function"
    },
    {
      "inputs": [
        {
          "internalType": "uint256",
          "name": "",
          "type": "uint256"
        }
      ],
      "name": "lastFundingRates",
      "outputs": [
        {
          "internalType": "int256",
          "name": "",
          "type": "int256"
        }
      ],
      "stateMutability": "view",
      "type": "function"
    },
    {
      "inputs": [
        {
          "internalType": "uint256",
          "name": "",
          "type": "uint256"
        }
      ],
      "name": "lastFundingTimes",
      "outputs": [
        {
          "internalType": "uint256",
          "name": "",
          "type": "uint256"
        }
      ],
      "stateMutability": "view",
      "type": "function"
    },
    {
      "inputs": [
        {
          "internalType": "uint256",
          "name": "",
          "type": "uint256"
        }
      ],
      "name": "longTracker",
      "outputs": [
        {
          "internalType": "uint256",
          "name": "",
          "type": "uint256"
        }
      ],
      "stateMutability": "view",
      "type": "function"
    },
    {
      "inputs": [
        {
          "internalType": "uint256",
          "name": "",
          "type": "uint256"
        }
      ],
      "name": "netExposureAmountChecker",
      "outputs": [
        {
          "internalType": "int256",
          "name": "",
          "type": "int256"
        }
      ],
      "stateMutability": "view",
      "type": "function"
    },
    {
      "inputs": [],
      "name": "pairInfo",
      "outputs": [
        {
          "internalType": "contract IPairInfo",
          "name": "",
          "type": "address"
        }
      ],
      "stateMutability": "view",
      "type": "function"
    },
    {
      "inputs": [],
      "name": "pairVault",
      "outputs": [
        {
          "internalType": "contract IPairVault",
          "name": "",
          "type": "address"
        }
      ],
      "stateMutability": "view",
      "type": "function"
    },
    {
      "inputs": [
        {
          "internalType": "bytes32",
          "name": "",
          "type": "bytes32"
        }
      ],
      "name": "positions",
      "outputs": [
        {
          "internalType": "bytes32",
          "name": "key",
          "type": "bytes32"
        },
        {
          "internalType": "address",
          "name": "account",
          "type": "address"
        },
        {
          "internalType": "uint256",
          "name": "pairIndex",
          "type": "uint256"
        },
        {
          "internalType": "bool",
          "name": "isLong",
          "type": "bool"
        },
        {
          "internalType": "uint256",
          "name": "collateral",
          "type": "uint256"
        },
        {
          "internalType": "uint256",
          "name": "positionAmount",
          "type": "uint256"
        },
        {
          "internalType": "uint256",
          "name": "averagePrice",
          "type": "uint256"
        },
        {
          "internalType": "int256",
          "name": "entryFundingRate",
          "type": "int256"
        },
        {
          "internalType": "uint256",
          "name": "entryFundingTime",
          "type": "uint256"
        },
        {
          "internalType": "int256",
          "name": "realisedPnl",
          "type": "int256"
        }
      ],
      "stateMutability": "view",
      "type": "function"
    },
    {
      "inputs": [
        {
          "internalType": "address",
          "name": "_postintionManager",
          "type": "address"
        }
      ],
      "name": "setPositionManager",
      "outputs": [],
      "stateMutability": "nonpayable",
      "type": "function"
    },
    {
      "inputs": [
        {
          "internalType": "uint256",
          "name": "",
          "type": "uint256"
        }
      ],
      "name": "shortTracker",
      "outputs": [
        {
          "internalType": "uint256",
          "name": "",
          "type": "uint256"
        }
      ],
      "stateMutability": "view",
      "type": "function"
    },
    {
      "inputs": [],
      "name": "tradingFeeReceiver",
      "outputs": [
        {
          "internalType": "address",
          "name": "",
          "type": "address"
        }
      ],
      "stateMutability": "view",
      "type": "function"
    },
    {
      "inputs": [
        {
          "internalType": "uint256",
          "name": "_pairIndex",
          "type": "uint256"
        },
        {
          "internalType": "uint256",
          "name": "_price",
          "type": "uint256"
        }
      ],
      "name": "updateCumulativeFundingRate",
      "outputs": [],
      "stateMutability": "nonpayable",
      "type": "function"
    },
    {
      "inputs": [
        {
          "internalType": "uint256",
          "name": "newInterval",
          "type": "uint256"
        }
      ],
      "name": "updateFundingInterval",
      "outputs": [],
      "stateMutability": "nonpayable",
      "type": "function"
    },
    {
      "inputs": [
        {
          "internalType": "address",
          "name": "newPairInfo",
          "type": "address"
        }
      ],
      "name": "updatePairInfo",
      "outputs": [],
      "stateMutability": "nonpayable",
      "type": "function"
    },
    {
      "inputs": [
        {
          "internalType": "address",
          "name": "newPairVault",
          "type": "address"
        }
      ],
      "name": "updatePairVault",
      "outputs": [],
      "stateMutability": "nonpayable",
      "type": "function"
    },
    {
      "inputs": [
        {
          "internalType": "address",
          "name": "newReceiver",
          "type": "address"
        }
      ],
      "name": "updateTradingFeeReceiver",
      "outputs": [],
      "stateMutability": "nonpayable",
      "type": "function"
    },
    {
      "inputs": [],
      "name": "vaultPriceFeed",
      "outputs": [
        {
          "internalType": "contract IOraclePriceFeed",
          "name": "",
          "type": "address"
        }
      ],
      "stateMutability": "view",
      "type": "function"
    }
  ],
  "transactionHash": "0x2afe8d472bb989d9e4fc5f89ad431e39861da883d3a81653bfe2f5b3a4b2cd50",
  "args": [
    "0xCf7Ed3AccA5a467e9e704C703E8D87F634fB0Fc9",
    "0x49fd2BE640DB2910c2fAb69bB8531Ab6E76127ff",
    "0x4631BCAbD6dF18D94796344963cB60d44a4136b6",
    "0x0355B7B8cb128fA5692729Ab3AAa199C1753f726",
    "0xf39Fd6e51aad88F6F4ce6aB8827279cffFb92266",
    28800
  ],
  "numDeployments": 1,
  "solcInputHash": "7e1e509e3ffeca3760b074bc8bbeb130",
  "bytecode": "0x60a0346200012b57601f62005fe138819003918201601f19168301916001600160401b03831184841017620001305780849260c0946040528339810103126200012b578051906001600160a01b039081831683036200012b576020810151908282168092036200012b5760408101518381168091036200012b576060820151918483168093036200012b5760808101519485168095036200012b5760a001519460016000553360005260016020526040600020600160ff1982541617905560805260018060a01b03199283600b541617600b5582600c541617600c5581600e541617600e55600d541617600d55600a55604051615e9a9081620001478239608051818181611ccc0152818161204e01528181613e7d01528181613fff0152818161421001526144c90152f35b600080fd5b634e487b7160e01b600052604160045260246000fdfe6102a080604052600436101561001457600080fd5b60006102005260003560e01c90816301fd38f714614511575080630298e273146144f85780631848effa146144b057806323fc6160146144805780632cbc82bf146144505780632e4d2cda1461435057806337e415a0146141db57806346ea87af14614198578063514ea4bf146140f75780635760f2e314613fc85780635e55f98414613e45578063827ec6d314613e1957806383d532e814613dc757806387d4f0d5146121995780638b78fba5146120165780638c1b753a14611f2c5780639391faf914611efc5780639849e41214611edb578063a28feb8b14611eaf578063a31a7b4414611e83578063ad249b5214611e5d578063bc95baad14611e21578063c4995cb214611c94578063c8d0805214611bdc578063e054d7f214611bac578063e17ee61614610245578063e583983614610202578063eeaa783a146101d6578063f879ffd2146101a65763fc2a5b1d1461017057600080fd5b3461019f57610200518060031936011261019c57600b546040516001600160a01b039091168152602090f35b80fd5b6102005180fd5b3461019f57602036600319011261019f576004356102005152600860205260206040610200512054604051908152f35b3461019f57610200518060031936011261019c57600e546040516001600160a01b039091168152602090f35b3461019f57602036600319011261019f576001600160a01b03610223614539565b1661020051526003602052602060ff6040610200512054166040519015158152f35b3461019f57602461025536614582565b91939092610264969596614b15565b61027960018060a01b03600f541633146146ef565b600b54604051632f7ce47360e21b8152600481018490529660e09188919082906001600160a01b03165afa958615610b56576102005196611b7b575b50606086015115611b3b576102cb848389615179565b93846102005152600260205260406102005120918583556102ec8588614dc5565b610333816040516102fc81614621565b601b81527a1a5b98dc99585cd9541bdcda5d1a5bdb881cda5e99505b5bdd5b9d602a1b60208201528a61032d6147dc565b91615da3565b6103b48860058601548015611af6575b80151580611aed575b611ac6575b610394600688015460405161036581614621565b601d81527f696e637265617365506f736974696f6e206176657261676550726963650000006020820152615d17565b6103aa6103a58660048a0154614824565b614f7b565b6004880155614801565b600585015561020051821315611ab75761020051975b88998b85886103d98b82615401565b6103e292615179565b600090600052600260205260406000206103fb906152c8565b90610100820151429061040d916148ab565b600a54119161044591620f424093611aaf575b61043d6040828d60a094526007602052205460e0840151906156e5565b9101516153de565b059987610200515260096020526104a260406102005120546040516104698161463c565b602181527f696e637265617365506f736974696f6e206c61737446756e64696e6754696d656020820152607360f81b6040820152615d17565b876102005152600760205261050b6104c06040610200512054614f8f565b6040516104cc8161463c565b602781527f696e637265617365506f736974696f6e2063756d756c617469766546756e64696020820152666e67526174657360c81b6040820152615d5c565b6105506105178c614f8f565b60405161052381614621565b601b81527a696e637265617365506f736974696f6e2066756e64696e6746656560281b6020820152615d5c565b610200518b126119de575084156119805761057b8a600488015461057682821015614851565b6148ab565b60048701556105cc60405161058f8161463c565b602581527f696e637265617365506f736974696f6e206c6f6e67207061792066756e64696e602082015264672066656560d81b6040820152615cc8565b86610200515260076020526040610200518181205460078901556009602052205460088701556105fe8883878a6155b3565b809b600488015461061a836106138484614801565b10156148b8565b82821061196157509061062c916148ab565b925b6020820151600d5461064e918e916001600160a01b039081169116614b6b565b61068b8c60405161065e81614621565b601b81527a696e637265617365506f736974696f6e2074726164696e6746656560281b6020820152615d17565b61020080518990526004602052516040902054908615611950576106b0845b83614824565b8961020051526004602052610200519060408220558760001461193557508861020051526005602052604061020051206106eb858254614801565b90555b61074b6106fa83614f8f565b6040516107068161463c565b602d81527f696e637265617365506f736974696f6e20707265764e65744578706f7375726560208201526c20b6b7bab73a21b432b1b5b2b960991b6040820152615d5c565b88610200515260046020526107b66107696040610200512054614f8f565b6040516107758161463c565b602981527f696e637265617365506f736974696f6e206e65744578706f73757265416d6f75602082015268373a21b432b1b5b2b960b91b6040820152615d5c565b886102005152600560205261081561020051604080822054916006602052205490604051906107e482614621565b601c82527b34b731b932b0b9b2a837b9b4ba34b7b7103637b733aa3930b1b5b2b960211b602083015261032d614912565b600c54604051632500ed8d60e21b8152600481018b905291906001600160a01b031660c083602481845afa928315610b56576102005193611905575b5061089a8c60808501516040519061086882614621565b602082527f696e637265617365506f736974696f6e206c7020617665726167655072696365602083015261032d61498a565b8a6102005180861360001461115d57509050610200515260046020526102005183604082205413600014610b8257506109126040516108d88161463c565b602281527f696e637265617365506f736974696f6e2042544f206c6f6e6720696e63726561602082015261736560f01b6040820152615cc8565b600c546001600160a01b031691823b1561019f576040519262a0151560e21b84528b6004850152866024850152610200516044850152836064816102005180945af1928315610b56578693610b64575b50916109826109889261097d608061098e9796015186614dc5565b614801565b92614801565b90614e7f565b6109de8160405161099e8161463c565b602881527f696e637265617365506f736974696f6e2042544f207570646174652061766572602082015267616765507269636560c01b6040820152615d17565b600c546001600160a01b0316803b1561019f5760405191630e13da9f60e11b83528960048401526024830152816044816102005180945af18015610b5657610b40575b50610140600080516020615e25833981519152999794610ad1979460409e9a9794600080516020615e05833981519152945b828d81610b1f575b5050508f51928b845260018060a01b038d166020850152604089908501526060840152851515608084015260a08301528760c08301528d60e08301528c610100830152610120820152a16004820154600583015460068401549160078501549360096008870154960154968f519b8c9b8c614abf565b0390a1610b0c8351610ae281614621565b60188152770d2dcc6e4cac2e6ca40e0dee6d2e8d2dedc40ccd2dcd2e6d60431b6020820152615cc8565b6001610200515582519182526020820152f35b602090920151610b3892906001600160a01b0316614b6b565b38828d610a5b565b610b49906145c1565b610200518015610a215780fd5b6040513d61020051823e3d90fd5b610b70919293506145c1565b610200518061019c5790859291610962565b6040812054949f9c9b9a99989796959492939213159050610e1a5750610be7604051610bad8161463c565b602281527f696e637265617365506f736974696f6e2053544f206c6f6e6720646563726561602082015261736560f01b6040820152615cc8565b600c546001600160a01b0316803b1561019f5760405190637c7c829d60e01b8252886004830152836024830152610200516044830152816064816102005180945af18015610b5657610e04575b50608081015180891115610d295750610c546080610c5a920151896148ab565b82614dc5565b610c6b81610c66614a7a565b615d17565b600c54604051632d23f44960e01b81526004810189905260248101929092526102005160209183916044918391906001600160a01b03165af18015610b5657610ce5575b50610140600080516020615e258339815191529998979593610ad1979593600080516020615e058339815191529360409f610a53565b602090819a999896949a979593973d8311610d22575b610d058183614657565b81010312610d1d578c98929496979895919395610caf565b600080fd5b503d610cfb565b610d49915088610d43919e939495969798999a9b9e6148ab565b83614dc5565b610d5581610c66614a35565b6020820151600c54610d759183916001600160a01b039081169116614b6b565b600c546001600160a01b0316803b1561019f57604051916354ab60f960e01b83528960048401526024830152816044816102005180945af18015610b5657610dee575b50610140600080516020615e25833981519152999794610ad1979460409e9a9794600080516020615e0583398151915294610a53565b610df7906145c1565b610200518015610db85780fd5b610e0d906145c1565b610200518015610c345780fd5b90610e6f60409e939495969798999a9b9e51610e358161463c565b602281527f696e637265617365506f736974696f6e2053544f206c6f6e6720746f2073686f6020820152611c9d60f21b6040820152615cc8565b600c546020820151906001600160a01b0316803b1561019f5760405191637c7c829d60e01b83528b60048401526024830152610200516044830152816064816102005180945af18015610b5657611147575b508960808201518082116000146110ad575050610ee56080610eeb9201518b6148ab565b84614dc5565b610ef781610c66614a7a565b600c54604051632d23f44960e01b8152600481018b905260248101929092526102005160209183916044918391906001600160a01b03165af18015610b5657611082575b505b600c546001600160a01b031690610f5f908a90610f5a90866148ab565b614dc5565b90803b1561019f576040519162a0151560e21b83528960048401526102005160248401526044830152816064816102005180945af18015610b565761106c575b50610ff388604051610fb08161463c565b603681527f696e637265617365506f736974696f6e2053544f204c6f6e6720746f2053686f6020820152600080516020615e458339815191526040820152615d17565b600c546001600160a01b0316803b1561019f5760405190630e13da9f60e11b8252886004830152896024830152816044816102005180945af18015610b5657610dee5750610140600080516020615e25833981519152999794610ad1979460409e9a9794600080516020615e0583398151915294610a53565b611075906145c1565b610200518015610f9f5780fd5b602090813d83116110a6575b6110988183614657565b81010312610d1d578d610f3b565b503d61108e565b6110bc925090610ee5916148ab565b6110c881610c66614a35565b6020830151600c546110e89183916001600160a01b039081169116614b6b565b600c546001600160a01b0316803b1561019f57604051916354ab60f960e01b83528a60048401526024830152816044816102005180945af18015610b5657611131575b50610f3d565b61113a906145c1565b61020051801561112b5780fd5b611150906145c1565b610200518015610ec15780fd5b8086121561171e5750905061020051526004602052610200518360408220541260001461133357506111cf6040516111948161463c565b602381527f696e637265617365506f736974696f6e2053544f2073686f727420696e63726560208201526261736560e81b6040820152615cc8565b600c546001600160a01b031691823b1561019f576040519262a0151560e21b84528b6004850152610200516024850152826044850152836064816102005180945af1928315610b56578693611315575b509161097d6112476109889361097d8796608061123e61124d9a614840565b91015190614dc5565b93614840565b61129d8160405161125d8161463c565b602881527f696e637265617365506f736974696f6e2053544f207570646174652061766572602082015267616765507269636560c01b6040820152615d17565b600c546001600160a01b0316803b1561019f5760405191630e13da9f60e11b83528960048401526024830152816044816102005180945af18015610b5657610dee5750610140600080516020615e25833981519152999794610ad1979460409e9a9794600080516020615e0583398151915294610a53565b611321919293506145c1565b610200518061019c579085929161121f565b6040812054949f9c9b9a9998979695949293921215905061145b575061139960405161135e8161463c565b602381527f696e637265617365506f736974696f6e2042544f2073686f727420646563726560208201526261736560e81b6040820152615cc8565b60018060a01b03600c54166113b2608083015184614dc5565b90803b1561019f5760405191637c7c829d60e01b83528960048401526102005160248401526044830152816064816102005180945af18015610b5657611445575b5060808101518089111561141f5750610c546080611413920151896148ab565b610c6b81610c666149ab565b611439915088610d43919e939495969798999a9b9e6148ab565b610d5581610c666149f0565b61144e906145c1565b6102005180156113f35780fd5b906114b060409e939495969798999a9b9e516114768161463c565b602281527f696e637265617365506f736974696f6e2042544f2073686f727420746f206c6f6020820152616e6760f01b6040820152615cc8565b600c546060820151906001600160a01b0316803b1561019f5760405191637c7c829d60e01b83528b60048401526102005160248401526044830152816064816102005180945af18015610b5657611708575b50896080820151808211600014611678575050610ee560806115269201518b6148ab565b61153281610c666149f0565b6020830151600c546115529183916001600160a01b039081169116614b6b565b600c546001600160a01b0316803b1561019f57604051916354ab60f960e01b83528a60048401526024830152816044816102005180945af18015610b5657611662575b505b6115b889610f5a6115b260018060a01b03600c541694614840565b866148ab565b90803b1561019f576040519162a0151560e21b83528960048401526102005160248401526044830152816064816102005180945af18015610b565761164c575b50610ff3886040516116098161463c565b603681527f696e637265617365506f736974696f6e2042544f204c6f6e6720746f2053686f6020820152600080516020615e458339815191526040820152615d17565b611655906145c1565b6102005180156115f85780fd5b61166b906145c1565b6102005180156115955780fd5b611687925090610ee5916148ab565b61169381610c666149ab565b600c54604051632d23f44960e01b8152600481018b905260248101929092526102005160209183916044918391906001600160a01b03165af18015610b56576116dd575b50611597565b602090813d8311611701575b6116f38183614657565b81010312610d1d578d6116d7565b503d6116e9565b611711906145c1565b6102005180156115025780fd5b9193509193505260046020526102005160408120541360001461186157505061178560405161174c8161463c565b602181527f696e637265617365506f736974696f6e2042544f207a65726f20746f206c6f6e6020820152606760f81b6040820152615cc8565b600c546001600160a01b0316803b1561019f576040519062a0151560e21b8252886004830152836024830152610200516044830152816064816102005180945af18015610b565761184b575b50600c546001600160a01b0316803b1561019f5760405190630e13da9f60e11b8252886004830152896024830152816044816102005180945af18015610b5657610dee5750610140600080516020615e25833981519152999794610ad1979460409e9a9794600080516020615e0583398151915294610a53565b611854906145c1565b6102005180156117d15780fd5b6118aa6040516118708161463c565b602281527f696e637265617365506f736974696f6e2053544f207a65726f20746f2073686f6020820152611c9d60f21b6040820152615cc8565b803b1561019f576040519162a0151560e21b83528960048401526102005160248401526044830152816064816102005180945af18015610b56576118ef575b50610ff3565b6118f8906145c1565b6102005180156118e95780fd5b61192791935060c03d811161192e575b61191f8183614657565b81019061493a565b9138610851565b503d611915565b604090600660205220611949858254614801565b90556106ee565b6106b061195c85614840565b6106aa565b611970826119769397946148ab565b906148ab565b600488015561062e565b998961198b91614801565b996119d960405161199b8161463c565b602681527f696e637265617365506f736974696f6e206c6f6e672074616b652066756e64696020820152656e672066656560d01b6040820152615cc8565b6105cc565b6119e78b614840565b9086611a555750611a0390600488015461057682821015614851565b60048701556119d9604051611a178161463c565b602681527f696e637265617365506f736974696f6e2073686f7274207061792066756e64696020820152656e672066656560d01b6040820152615cc8565b611a60929c50614801565b996119d9604051611a708161463c565b602781527f696e637265617365506f736974696f6e2073686f72742074616b652066756e64602082015266696e672066656560c81b6040820152615cc8565b506000610420565b611ac082614f7b565b976103ca565b60068701611ae6611adc8661097d845486614dc5565b6109888585614801565b9055610351565b5083151561034c565b6001870180546001600160a01b038f166001600160a01b03199091161790556002870188905560038701805460ff191660ff8815151617905560068701899055610343565b60405162461bcd60e51b81526020600482015260186024820152771d1c985919481c185a5c881b9bdd081cdd5c1c1bdc9d195960421b6044820152606490fd5b611b9e91965060e03d60e011611ba5575b611b968183614657565b810190614739565b94876102b5565b503d611b8c565b3461019f57602036600319011261019f576004356102005152600660205260206040610200512054604051908152f35b3461019f57602036600319011261019f57611bf5615c7c565b5060043561020051526002602052611c90611c15604061020051206152c8565b604051918291829190916101408101928051825260018060a01b036020820151166020830152604081015160408301526060810151151560608301526080810151608083015260a081015160a083015260c081015160c083015260e081015160e0830152610100808201519083015261012080910151910152565b0390f35b3461019f5760208060031936011261019f57611cae614539565b6040516351331ad760e01b81526001600160a01b03919083816004817f000000000000000000000000000000000000000000000000000000000000000087165afa908115610b5657839185916102005191611dea575b50602460405180948193637be53ca160e01b8352336004840152165afa938415610b56576102005194611d91575b5050611d5e7f15828dca8a3c54bc8df99d6b42dba4f0a79568c00f7e1ec53e0b4a3280795d1693614699565b600d80546001600160a01b0319811684841617909155604051928392611d8792909116836146d5565b0390a16102005180f35b90809450813d8311611de3575b611da88183614657565b8101031261019f57611d5e611ddd7f15828dca8a3c54bc8df99d6b42dba4f0a79568c00f7e1ec53e0b4a3280795d169461468c565b93611d32565b503d611d9e565b92505081813d8311611e1a575b611e018183614657565b8101031261019f5783611e148492614678565b86611d04565b503d611df7565b3461019f57611e41611e323661454f565b91611e3b615c7c565b50615179565b61020051526002602052611c90611c15604061020051206152c8565b3461019f57604036600319011261019f57611e7c602435600435615401565b6102005180f35b3461019f57610200518060031936011261019c57600c546040516001600160a01b039091168152602090f35b3461019f57610200518060031936011261019c57600d546040516001600160a01b039091168152602090f35b3461019f57610200518060031936011261019c576020600a54604051908152f35b3461019f57602036600319011261019f576004356102005152600760205260206040610200512054604051908152f35b3461019f5760208060031936011261019f5760043560018060a01b0390602460e083600b541660405192838092632f7ce47360e21b82528660048301525afa928315610b565784916102005194611ff5575b5080600e54169351166024604051809581936341976e0960e01b835260048301525afa908115610b56576102005191611fc4575b611fbc9250615806565b604051908152f35b90508282813d8311611fee575b611fdb8183614657565b81010312610d1d57611fbc915190611fb2565b503d611fd1565b61200f91945060e03d60e011611ba557611b968183614657565b9285611f7e565b3461019f5760208060031936011261019f57612030614539565b6040516351331ad760e01b81526001600160a01b03919083816004817f000000000000000000000000000000000000000000000000000000000000000087165afa908115610b5657839185916102005191612162575b50602460405180948193637be53ca160e01b8352336004840152165afa938415610b56576102005194612109575b50506120e07f9e119484a33fe999c82b75bd1566c4a9bf52d2d56095e96e736f8de6ba0695a793614699565b600c80546001600160a01b0319811684841617909155604051928392611d8792909116836146d5565b90809450813d831161215b575b6121208183614657565b8101031261019f576120e06121557f9e119484a33fe999c82b75bd1566c4a9bf52d2d56095e96e736f8de6ba0695a79461468c565b936120b4565b503d612116565b92505081813d8311612192575b6121798183614657565b8101031261019f578361218c8492614678565b86612086565b503d61216f565b3461019f576121a736614582565b6101c095949395526102805261012052610260526101a0526121d460018060a01b03600f541633146146ef565b6121dc614b15565b600b54604051632f7ce47360e21b8152610260516004820152906001600160a01b031660e082602481845afa908115610b5657602492610100926102005161014052613da5575b506040516330a66e1560e01b815261026051600482015292839182905afa908115610b56576102005191613ce7575b50604081015161012051908110159182613cd8575b505015613ca45761228261028051610260516101a051615179565b806080526102005152600260205260406102005120908160a05260018060a01b0360018301541615613c65576122be6101c05161012051614dc5565b9061230a826040516122cf81614621565b601b81527a191958dc99585cd9541bdcda5d1a5bdb881cda5e99505b5bdd5b9d602a1b60208201526122ff6147dc565b906101205190615da3565b6123ba6123256103a583600460a05101806101005254614824565b806101005155612343600560a051018060e0526101205190546148ab565b908160e05155604051906123568261463c565b602482527f6465637265617365506f736974696f6e20706f736974696f6e20636f6c6c6174602083015263195c985b60e21b60408301526040519161239a83614621565b600e83526d1c1bdcda5d1a5bdb905b5bdd5b9d60921b6020840152615da3565b61020051811315613c5757610200515b8060c0526123de6101c05161026051615401565b6123f66101205161028051610260516101a0516156fe565b6101e0526102605161020051526009602052612458604061020051205460405161241f8161463c565b602181527f6465637265617365506f736974696f6e206c61737446756e64696e6754696d656020820152607360f81b6040820152615d17565b61026051610200515260076020526124c46124796040610200512054614f8f565b6040516124858161463c565b602781527f6465637265617365506f736974696f6e2063756d756c617469766546756e64696020820152666e67526174657360c81b6040820152615d5c565b61250c6124d36101e051614f8f565b6040516124df81614621565b601b81527a6465637265617365506f736974696f6e2066756e64696e6746656560281b6020820152615d5c565b610200516101e051908112613b845750506102805115613b2057612547610100515461253d6101e051821015614851565b6101e051906148ab565b610100515561259860405161255b8161463c565b602581527f6465637265617365506f736974696f6e206c6f6e67207061792066756e64696e602082015264672066656560d81b6040820152615cc8565b61026051610200515260076020526102005160086040808320549260a051936007850161016052600785015560096020522054918181016102405201556102805115916125f06101c0516101205185610260516155b3565b806101805261260a61010051549161061360c05184614801565b6101805160c0519190808310613b095750505061262c6101805160c0516148ab565b60c0525b610140516020015161018051600d54612655926001600160a01b039182169116614b6b565b61269660405161266481614621565b601b81527a6465637265617365506f736974696f6e2074726164696e6746656560281b60208201526101805190615d17565b610260516102005152600460205261020051906040822054915061028051600014613afd576126ca6106aa61012051614840565b61026051610200515260046020526102005190604082205561028051600014613adf57506102605161020051526005602052604061020051206127116101205182546148ab565b90555b61277161272083614f8f565b60405161272c8161463c565b602d81527f6465637265617365506f736974696f6e20707265764e65744578706f7375726560208201526c20b6b7bab73a21b432b1b5b2b960991b6040820152615d5c565b61026051610200515260046020526127df6127926040610200512054614f8f565b60405161279e8161463c565b602981527f6465637265617365506f736974696f6e206e65744578706f73757265416d6f75602082015268373a21b432b1b5b2b960b91b6040820152615d5c565b6102605161020051526005602052612841610200516040808220549160066020522054906040519061281082614621565b601c82527b3232b1b932b0b9b2a837b9b4ba34b7b7103637b733aa3930b1b5b2b960211b602083015261032d614912565b600c54604051632500ed8d60e21b8152610260516004820152906001600160a01b031660c082602481845afa918215610b56576102005192613abe575b50610200518085131561336857505061026051610200515260046020526102005183604082205413600014612e3957506128f76040516128bd8161463c565b602281527f6465637265617365506f736974696f6e20535443206c6f6e6720696e63726561602082015261736560f01b6040820152615cc8565b600c546001600160a01b0316803b1561019f576040519062a0151560e21b8252610260516004830152610120516024830152610200516044830152816064816102005180945af18015610b5657612e23575b5061296361296e939261097d608061098894015185614dc5565b916101205190614801565b6129be8160405161297e8161463c565b602881527f6465637265617365506f736974696f6e20535443207570646174652061766572602082015267616765507269636560c01b6040820152615d17565b600c546001600160a01b0316803b1561019f5760405191630e13da9f60e11b83526102605160048401526024830152816044816102005180945af18015610b5657612e0d575b505b600e5461014051516040516341976e0960e01b81526001600160a01b0391821660048201529160209183916024918391165afa908115610b56576102005191612db5575b50907ff1d296a817e8ecfa2709fcd52c61a6dddc7e87ed697b3ba601e88dbee8849c2093612acc612a9a612a90610160969561012051612a8b60a0516152c8565b615346565b8061022052614f8f565b604051612aa681614621565b6014815273191958dc99585cd9541bdcda5d1a5bdb881c1b9b60621b6020820152615d5c565b610200516102205190811315612d8a5750612af4612aec61022051614f7b565b60c051614801565b60c0525b612b0b61022051600960a0510154614824565b600960a0510155612b536101005154604051612b2681614621565b601b81527a191958dc99585cd9541bdcda5d1a5bdb8818dbdb1b185d195c985b602a1b6020820152615d17565b60c05180612d64575b5060e0515415612c4e575b5060405191608051835260018060a01b036101a05116602084015261026051604084015215606083015260808201526101205160a08201526101c05160c08201526101805160e08201526101e0516101008201526102205161012082015260c051610140820152a1600080516020615e25833981519152610100515460e05154612c2560a0519260068401549361016051549060096102405154910154916040519687966101c0519561028051610260516101a0516080518c614abf565b0390a16001610200515560606040516101805181526101e0516020820152610220516040820152f35b610100515480612d39575b5050612c99604051612c6a81614621565b601f81527f6465637265617365506f736974696f6e20706f736974696f6e20636c6f7365006020820152615cc8565b6080516102005152600260205260006009610200516040812090838255806001830155836002830155600382015582600482015582600582015582600682015582600782015582600882015501557f1ffb81f32d2d371994fb39b875fbe035d34386083d2a85a3cf2894709c4581a260806040518151815260018060a01b036101a05116602082015261026051604082015284156060820152a184612b67565b6101405160200151600190920154612d5d926001600160a01b039182169116614b6b565b8480612c59565b6101a0516101405160200151612d849291906001600160a01b0316614b6b565b85612b5c565b612dab90612d9c610100515491614840565b808210156119705750806148ab565b6101005155612af8565b929190506020833d602011612e05575b81612dd260209383614657565b81010312610d1d5791519091907ff1d296a817e8ecfa2709fcd52c61a6dddc7e87ed697b3ba601e88dbee8849c20612a4a565b3d9150612dc5565b612e16906145c1565b610200518015612a045780fd5b612e2c906145c1565b6102005180156129495780fd5b9092915060408120541360001461304e5750612e94604051612e5a8161463c565b602281527f6465637265617365506f736974696f6e20425443206c6f6e6720646563726561602082015261736560f01b6040820152615cc8565b600c546001600160a01b0316803b1561019f5760405190637c7c829d60e01b8252610260516004830152610120516024830152610200516044830152816064816102005180945af18015610b5657613038575b5060800180516101c0519080821115612f99575050612f0d612f1691516101c0516148ab565b61012051614dc5565b612f2281610c66615283565b600c54604051632d23f44960e01b815261026051600482015260248101929092526102005160209183916044918391906001600160a01b03165af18015610b5657612f6e575b50612a06565b602090813d8311612f92575b612f848183614657565b81010312610d1d5783612f68565b503d612f7a565b612fa8925090612f0d916148ab565b612fb481610c6661523e565b6101405160200151600c54612fd79183916001600160a01b039081169116614b6b565b600c546001600160a01b0316803b1561019f57604051916354ab60f960e01b83526102605160048401526024830152816044816102005180945af18015610b56576130225750612a06565b61302b906145c1565b610200518015612f685780fd5b613041906145c1565b610200518015612ee75780fd5b9061309860405161305e8161463c565b602281527f6465637265617365506f736974696f6e20425443206c6f6e6720746f2073686f6020820152611c9d60f21b6040820152615cc8565b600c546020820151906001600160a01b0316803b1561019f5760405191637c7c829d60e01b83526102605160048401526024830152610200516044830152816064816102005180945af18015610b5657613352575b5060800180516101c05190808211156132b2575050612f0d61311391516101c0516148ab565b61311f81610c66615283565b600c54604051632d23f44960e01b815261026051600482015260248101929092526102005160209183916044918391906001600160a01b03165af18015610b5657613287575b505b61318760018060a01b03600c541691610f5a6101c05191610120516148ab565b90803b1561019f576040519162a0151560e21b83526102605160048401526102005160248401526044830152816064816102005180945af18015610b5657613271575b506132226040516131da8161463c565b603681527f6465637265617365506f736974696f6e20425443204c6f6e6720746f2053686f6020820152600080516020615e4583398151915260408201526101c05190615d17565b600c546001600160a01b0316803b1561019f5760405190630e13da9f60e11b82526102605160048301526101c0516024830152816044816102005180945af18015610b56576130225750612a06565b61327a906145c1565b6102005180156131ca5780fd5b602090813d83116132ab575b61329d8183614657565b81010312610d1d5784613165565b503d613293565b6132c1925090612f0d916148ab565b6132cd81610c6661523e565b6101405160200151600c546132f09183916001600160a01b039081169116614b6b565b600c546001600160a01b0316803b1561019f57604051916354ab60f960e01b83526102605160048401526024830152816044816102005180945af18015610b565761333c575b50613167565b613345906145c1565b6102005180156133365780fd5b61335b906145c1565b6102005180156130ed5780fd5b808512156138fb5750506102605161020051526004602052610200518360408220541260001461350657506133dd6040516133a28161463c565b602381527f6465637265617365506f736974696f6e204254432073686f727420696e63726560208201526261736560e81b6040820152615cc8565b600c546001600160a01b0316803b1561019f576040519062a0151560e21b8252610260516004830152610200516024830152836044830152816064816102005180945af18015610b56576134f0575b50613447839261097d61098893608061123e61345598614840565b9161097d6101205191614840565b6134a5816040516134658161463c565b602881527f6465637265617365506f736974696f6e20425443207570646174652061766572602082015267616765507269636560c01b6040820152615d17565b600c546001600160a01b0316803b1561019f5760405191630e13da9f60e11b83526102605160048401526024830152816044816102005180945af18015610b56576130225750612a06565b6134f9906145c1565b61020051801561342c5780fd5b9092915060408120541260001461362857506135626040516135278161463c565b602381527f6465637265617365506f736974696f6e205354432073686f727420646563726560208201526261736560e81b6040820152615cc8565b60018060a01b03600c541661357e608083015161012051614dc5565b90803b1561019f5760405191637c7c829d60e01b83526102605160048401526102005160248401526044830152816064816102005180945af18015610b5657613612575b5060808101516101c05190808211156135f7575050612f0d60806135eb9201516101c0516148ab565b612f2281610c666151b4565b613606925090612f0d916148ab565b612fb481610c666151f9565b61361b906145c1565b6102005180156135c25780fd5b906136726040516136388161463c565b602281527f6465637265617365506f736974696f6e205354432073686f727420746f206c6f6020820152616e6760f01b6040820152615cc8565b600c546060820151906001600160a01b0316803b1561019f5760405191637c7c829d60e01b83526102605160048401526102005160248401526044830152816064816102005180945af18015610b56576138e5575b5060800180516101c0519080821115613853575050612f0d6136ed91516101c0516148ab565b6136f981610c666151f9565b6101405160200151600c5461371c9183916001600160a01b039081169116614b6b565b600c546001600160a01b0316803b1561019f57604051916354ab60f960e01b83526102605160048401526024830152816044816102005180945af18015610b565761383d575b505b61378c60018060a01b03600c541691610f5a6137836101c05192614840565b610120516148ab565b90803b1561019f576040519162a0151560e21b83526102605160048401526102005160248401526044830152816064816102005180945af18015610b5657613827575b506132226040516137df8161463c565b603681527f6465637265617365506f736974696f6e20535443204c6f6e6720746f2053686f6020820152600080516020615e4583398151915260408201526101c05190615d17565b613830906145c1565b6102005180156137cf5780fd5b613846906145c1565b6102005180156137625780fd5b613862925090612f0d916148ab565b61386e81610c666151b4565b600c54604051632d23f44960e01b815261026051600482015260248101929092526102005160209183916044918391906001600160a01b03165af18015610b56576138ba575b50613764565b602090813d83116138de575b6138d08183614657565b81010312610d1d57846138b4565b503d6138c6565b6138ee906145c1565b6102005180156136c75780fd5b9150919250610260519052600460205261020051604081205413600014613a1e57505061396660405161392d8161463c565b602181527f6465637265617365506f736974696f6e20535443207a65726f20746f206c6f6e6020820152606760f81b6040820152615cc8565b600c546001600160a01b0316803b1561019f576040519062a0151560e21b8252610260516004830152610120516024830152610200516044830152816064816102005180945af18015610b5657613a08575b50600c546001600160a01b0316803b1561019f5760405190630e13da9f60e11b82526102605160048301526101c0516024830152816044816102005180945af18015610b56576130225750612a06565b613a11906145c1565b6102005180156139b85780fd5b613a67604051613a2d8161463c565b602281527f6465637265617365506f736974696f6e20425443207a65726f20746f2073686f6020820152611c9d60f21b6040820152615cc8565b803b1561019f576040519162a0151560e21b83526102605160048401526102005160248401526044830152816064816102005180945af18015610b5657613aaf575b50613222565b613ab8906145c1565b83613aa9565b613ad891925060c03d60c01161192e5761191f8183614657565b908761287e565b604090600660205220613af66101205182546148ab565b9055612714565b6126ca610120516106aa565b613b1692611970916148ab565b6101005155612630565b613b2f6101e05160c051614801565b60c052613b7f604051613b418161463c565b602681527f6465637265617365506f736974696f6e206c6f6e672074616b652066756e64696020820152656e672066656560d01b6040820152615cc8565b612598565b613b8d90614840565b61028051613bfd57613bab9150610100515461057682821015614851565b6101005155613b7f604051613bbf8161463c565b602681527f6465637265617365506f736974696f6e2073686f7274207061792066756e64696020820152656e672066656560d01b6040820152615cc8565b613c0691614801565b60c052613b7f604051613c188161463c565b602781527f6465637265617365506f736974696f6e2073686f72742074616b652066756e64602082015266696e672066656560c81b6040820152615cc8565b613c6081614f7b565b6123ca565b60405162461bcd60e51b81526020600482015260176024820152761c1bdcda5d1a5bdb88185b1c9958591e4818db1bdcd959604a1b6044820152606490fd5b60405162461bcd60e51b815260206004820152600c60248201526b696e76616c69642073697a6560a01b6044820152606490fd5b60600151101590508280612267565b9050610100813d61010011613d9d575b81613d056101009383614657565b8101031261019f5760405190816101008101106001600160401b0361010084011117613d835760e0906101008301604052805183526020810151602084015260408101516040840152606081015160608401526080810151608084015260a081015160a084015260c081015160c0840152015160e082015282612252565b634e487b7160e01b61020051526041600452602461020051fd5b3d9150613cf7565b613dbd9060e03d60e011611ba557611b968183614657565b6101405284612223565b3461019f5760a036600319011261019f57600435801515810361019f57602435906001600160a01b038216820361019f5760643591821515830361019f57602092611fbc926084359260443591615792565b3461019f57610200518060031936011261019c57600f546040516001600160a01b039091168152602090f35b3461019f5760208060031936011261019f57613e5f614539565b6040516351331ad760e01b81526001600160a01b03919083816004817f000000000000000000000000000000000000000000000000000000000000000087165afa908115610b5657839185916102005191613f91575b50602460405180948193637be53ca160e01b8352336004840152165afa938415610b56576102005194613f38575b5050613f0f7f6989bf2024ce0e244f6a01d548e719e3198628e79cb1fab8e1e856473d17305093614699565b600b80546001600160a01b0319811684841617909155604051928392611d8792909116836146d5565b90809450813d8311613f8a575b613f4f8183614657565b8101031261019f57613f0f613f847f6989bf2024ce0e244f6a01d548e719e3198628e79cb1fab8e1e856473d1730509461468c565b93613ee3565b503d613f45565b92505081813d8311613fc1575b613fa88183614657565b8101031261019f5783613fbb8492614678565b86613eb5565b503d613f9e565b3461019f5760208060031936011261019f57613fe2614539565b6040516351331ad760e01b81526001600160a01b039280826004817f000000000000000000000000000000000000000000000000000000000000000088165afa8015610b5657849261020051916140be575b508190602460405180958193637be53ca160e01b8352336004840152165afa908115610b56576102005191614087575b5061406f9150614699565b1660018060a01b0319600f541617600f556102005180f35b905081813d83116140b7575b61409d8183614657565b8101031261019f576140b161406f9161468c565b84614064565b503d614093565b809350828092503d83116140f0575b6140d78183614657565b8101031261019f57806140ea8593614678565b90614034565b503d6140cd565b3461019f57602036600319011261019f57600435610200515260026020526101406040610200512080549060018060a01b0360018201541690600281015460ff60038301541660048301546005840154906006850154926007860154946009600888015497015497604051998a5260208a0152604089015215156060880152608087015260a086015260c085015260e0840152610100830152610120820152f35b3461019f57602036600319011261019f576001600160a01b036141b9614539565b1661020051526001602052602060ff6040610200512054166040519015158152f35b3461019f5760208060031936011261019f576040516351331ad760e01b81526004803592916001600160a01b039183908290817f000000000000000000000000000000000000000000000000000000000000000086165afa8015610b56578391610200519161431a575b50602460405180948193637be53ca160e01b8352336004840152165afa908115610b565761020051916142b9575b7f2671c06c8f001757af00d7be47b46a5eed07be3b5ce4fa7260e8b21050435324604084866142a186614699565b600a549181600a558351928352820152a16102005180f35b9180915082813d8311614313575b6142d18183614657565b8101031261019f577f2671c06c8f001757af00d7be47b46a5eed07be3b5ce4fa7260e8b21050435324926142a161430960409461468c565b9293505092614273565b503d6142c7565b82819392503d8311614349575b6143318183614657565b8101031261019f576143438391614678565b85614245565b503d614327565b3461019f57606036600319011261019f57600435602435801515810361019f57600b54604051632f7ce47360e21b81526004810184905291906001600160a01b039060e0908490602490829085165afa928315610b5657610200519361442c575b5080602091600e54169351166024604051809581936341976e0960e01b835260048301525afa918215610b565761020051926143f8575b6020611fbc8460443585886155b3565b91506020823d8211614424575b8161441260209383614657565b8101031261019f5790519060206143e8565b3d9150614405565b60209193506144499060e03d60e011611ba557611b968183614657565b92906143b1565b3461019f57602036600319011261019f576004356102005152600560205260206040610200512054604051908152f35b3461019f57602036600319011261019f576004356102005152600960205260206040610200512054604051908152f35b3461019f57610200518060031936011261019c576040517f00000000000000000000000000000000000000000000000000000000000000006001600160a01b03168152602090f35b3461019f576020611fbc61450b3661454f565b91615179565b34610d1d576020366003190112610d1d57602090600435600052600482526040600020548152f35b600435906001600160a01b0382168203610d1d57565b6060906003190112610d1d576004356001600160a01b0381168103610d1d5790602435906044358015158103610d1d5790565b60c0906003190112610d1d576004356001600160a01b0381168103610d1d57906024359060443590606435906084358015158103610d1d579060a43590565b6001600160401b0381116145d457604052565b634e487b7160e01b600052604160045260246000fd5b60c081019081106001600160401b038211176145d457604052565b61014081019081106001600160401b038211176145d457604052565b604081019081106001600160401b038211176145d457604052565b606081019081106001600160401b038211176145d457604052565b90601f801991011681019081106001600160401b038211176145d457604052565b51906001600160a01b0382168203610d1d57565b51908115158203610d1d57565b156146a057565b60405162461bcd60e51b815260206004820152600d60248201526c37b7363ca837b7b620b236b4b760991b6044820152606490fd5b6001600160a01b0391821681529116602082015260400190565b156146f657565b60405162461bcd60e51b815260206004820152601b60248201527a2837b9b4ba34b7b71026b0b730b3b2b91d103337b93134b23232b760291b6044820152606490fd5b908160e0910312610d1d576040519060e08201908282106001600160401b038311176145d45760c09160405261476e81614678565b835261477c60208201614678565b602084015261478d60408201614678565b604084015261479e6060820161468c565b60608401526080810151608084015260a081015160a0840152015160c082015290565b6001600160401b0381116145d457601f01601f191660200190565b604051906147e982614621565b600982526873697a6544656c746160b81b6020830152565b9190820180921161480e57565b634e487b7160e01b600052601160045260246000fd5b9190916000838201938412911290801582169115161761480e57565b600160ff1b811461480e5760000390565b1561485857565b60405162461bcd60e51b815260206004820152602560248201527f636f6c6c61746572616c206e6f7420656e6f75676820666f722066756e64696e604482015264672066656560d81b6064820152608490fd5b9190820391821161480e57565b156148bf57565b60405162461bcd60e51b815260206004820152602560248201527f636f6c6c61746572616c206e6f7420656e6f75676820666f722074726164696e604482015264672066656560d81b6064820152608490fd5b6040519061491f82614621565b600c82526b39b437b93a2a3930b1b5b2b960a11b6020830152565b908160c0910312610d1d5760a060405191614954836145ea565b8051835260208101516020840152604081015160408401526060810151606084015260808101516080840152015160a082015290565b6040519061499782614621565b6005825264707269636560d81b6020830152565b604051906149b88261463c565b6023825262199a5d60ea1b6040837f696e637265617365506f736974696f6e2042544f20646563726561736550726f60208201520152565b604051906149fd8261463c565b6023825262199a5d60ea1b6040837f696e637265617365506f736974696f6e2042544f20696e63726561736550726f60208201520152565b60405190614a428261463c565b6023825262199a5d60ea1b6040837f696e637265617365506f736974696f6e2053544f20696e63726561736550726f60208201520152565b60405190614a878261463c565b6023825262199a5d60ea1b6040837f696e637265617365506f736974696f6e2053544f20646563726561736550726f60208201520152565b979491926101409996939c9b9a9794919c6101608a019d8a5260018060a01b031660208a0152604089015215156060880152608087015260a086015260c085015260e08401526101008301526101208201520152565b600260005414614b26576002600055565b60405162461bcd60e51b815260206004820152601f60248201527f5265656e7472616e637947756172643a207265656e7472616e742063616c6c006044820152606490fd5b60405163a9059cbb60e01b60208083019182526001600160a01b039485166024840152604480840196909652948252926080820191906001600160401b038311828410176145d457614c2793836040521690614bc683614621565b8583527f5361666545524332303a206c6f772d6c6576656c2063616c6c206661696c656460a0820152600080958192519082855af13d15614cbc573d91614c0c836147c1565b92614c1a6040519485614657565b83523d868885013e614cc0565b90815190838215928315614c9a575b505050905015614c435750565b6084906040519062461bcd60e51b82526004820152602a60248201527f5361666545524332303a204552433230206f7065726174696f6e20646964206e6044820152691bdd081cdd58d8d9595960b21b6064820152fd5b84809293945001031261019c575081614cb3910161468c565b80388381614c36565b6060915b91929015614d225750815115614cd4575090565b3b15614cdd5790565b60405162461bcd60e51b815260206004820152601d60248201527f416464726573733a2063616c6c20746f206e6f6e2d636f6e74726163740000006044820152606490fd5b825190915015614d355750805190602001fd5b60405162461bcd60e51b815260206004820152908190614d59906024830190614d80565b0390fd5b60005b838110614d705750506000910152565b8181015183820152602001614d60565b90602091614d9981518092818552858086019101614d5d565b601f01601f1916010190565b8115614daf570490565b634e487b7160e01b600052601260045260246000fd5b9060001981830981830291828083109203918083039214614e695768327cb2734119d3b7a9601e1b9082821115614e2c577f7d33c22789773a07feda8b6f0930e26fa397c439f1d5cf4b2eb27d7306d2dc99940990828211900360e21b9103601e1c170290565b60405162461bcd60e51b81526020600482015260156024820152744d6174683a206d756c446976206f766572666c6f7760581b6044820152606490fd5b505068327cb2734119d3b7a9601e1b9004919050565b9068327cb2734119d3b7a9601e1b906000198284099282810292838086109503948086039514614f035784831115614e2c578291096001821901821680920460028082600302188083028203028083028203028083028203028083028203028083028203028092029003029360018380600003040190848311900302920304170290565b505090614f109250614da5565b90565b9060001981830981830291828083109203918083039214614f70576127109082821115614e2c577fbc01a36e2eb1c432ca57a786c226809d495182a9930be0ded288ce703afb7e91940990828211900360fc1b910360041c170290565b505061271091500490565b60008112614f865790565b614f1090614840565b600081126151565760405160208101908082106001600160401b038311176145d457614fc2916040526000815291614f7b565b6000908072184f03e93ff9f4daa797ed6e38ed64bf6a1f0160401b80821015615148575b506904ee2d6d415b85acef8160201b8082101561513b575b50662386f26fc100008082101561512e575b506305f5e10080821015615121575b5061271080821015615114575b506064811015615106575b600a809110156150fc575b60018084019281602161506d615057876147c1565b966150656040519889614657565b8088526147c1565b602087019790601f1901368937860101905b6150c6575b505050506150ba92614f109260209260405195836150ab8895518092888089019101614d5d565b84019151809386840190614d5d565b01038084520182614657565b600019019083906f181899199a1a9b1b9c1cb0b131b232b360811b8282061a8353049182156150f75791908261507f565b615084565b9160010191615042565b606460029104920191615037565b600491049201913861502c565b600891049201913861501f565b6010910492019138615010565b6020910492019138614ffe565b604093508204905038614fe6565b614fc260405161516581614621565b60018152602d60f81b602082015291614f7b565b9160405191602083019360018060601b03199060601b1684526034830152151560f81b6054820152603581526151ae8161463c565b51902090565b604051906151c18261463c565b6023825262199a5d60ea1b6040837f6465637265617365506f736974696f6e2053544320646563726561736550726f60208201520152565b604051906152068261463c565b6023825262199a5d60ea1b6040837f6465637265617365506f736974696f6e2053544320696e63726561736550726f60208201520152565b6040519061524b8261463c565b6023825262199a5d60ea1b6040837f6465637265617365506f736974696f6e2042544320696e63726561736550726f60208201520152565b604051906152908261463c565b6023825262199a5d60ea1b6040837f6465637265617365506f736974696f6e2042544320646563726561736550726f60208201520152565b906040516152d581614605565b8254815260018301546001600160a01b0316602082015260028301546040820152600383015460ff161515606082015260048301546080820152600583015460a0820152600683015460c0820152600783015460e08201526008830154610100820152600990920154610120830152565b60c08101908151908185146153c1576060015115615397575080518084111561537f5750614f10926153799151906148ab565b90614dc5565b615392929150614f1093615379916148ab565b614840565b838111156153ae5750614f109261537991516148ab565b61539292915061537990614f10946148ab565b5050505050600090565b8181029291811591840414171561480e57565b818102929160008212600160ff1b82141661480e57818405149015171561480e57565b9060408051916154108361463c565b60258352615456816020947f75706461746543756d756c617469766546756e64696e675261746520706169728682015264092dcc8caf60db1b858201528661032d61498a565b6000908482526009845282822054156155955761547683832054426148ab565b600a5480911061554057916154f68694926154f06154d56154ce606099977f30ee8c76a6febcb0400fb07183d873b5c18cf9e5ca6a47104676795b989c606d9b8752600989526154c988882054426148ab565b614da5565b9288615806565b918785526008875282868620556007875285852054926153de565b90614824565b8482526007845282822055615516600a546155118142614da5565b6153cb565b848252600984528282205560078352818082205491600985522054928251948552840152820152a1565b5050506155939250807f75706461746543756d756c617469766546756e64696e6752617465206e6f206e696565642075706461746560b01b9251936155848561463c565b602a8552840152820152615cc8565b565b5090916009906155ab600a546155118142614da5565b948352522055565b916024936155c091614dc5565b9160018060a01b03600b54169060c0604092835196878092630da67fe760e01b82528560048301525afa9485156156bf57600095615649575b5060009081526004602052908120541261562b571561561d57614f10915190614f13565b6020614f1092015190614f13565b1561563e576020614f1092015190614f13565b614f10915190614f13565b909460c0823d82116156b7575b8161566360c09383614657565b8101031261019c57509060009160a082519161567e836145ea565b805183526020810151602084015283810151848401526060810151606084015260808101516080840152015160a08201529490916155f9565b3d9150615656565b82513d6000823e3d90fd5b8115614daf57600160ff1b811460001983141661480e570590565b8181039291600013801582851316918412161761480e57565b8192620f4240949261570f92615179565b9160009283526002602052615726604084206152c8565b91615736610100840151426148ab565b600a54908181106157685750505061043d60408460a09361576496526007602052205460e0840151906156e5565b0590565b6157879192945060408661578c956157649852600860205220546153de565b6156ca565b906153de565b9190620f42409493826157a492615179565b92600093845260026020526157bb604085206152c8565b926157cb610100850151426148ab565b600a54918282106157fb575b5050505061043d60408460a09361576496526007602052205460e0840151906156e5565b1561576857806157d7565b919060409081519361581785614621565b601c855261586a826020967b0c6eae4e4cadce88ceadcc8d2dccea4c2e8ca40e0c2d2e492dcc8caf60231b888201528386519161585383614621565b60068352655f707269636560d01b8a840152615da3565b600b54835163694b193160e11b81526004808201849052909390916001600160a01b039060249061012090819088908490829087165afa968715615c7157600097615bc4575b50508460005283895286600020546158c790614f7b565b6060870151938660005260058b52886000205460068c5289600020546158ec91614801565b906080890151948a516158fe8161463c565b602181528d81017f63757272656e7446756e64696e675261746520772025732071202573206b202590528b8101607360f81b90528d8c51809181019263a7a8785360e01b84528882016080905260a4820161595891614d80565b8a604483015286606483015289608483015203601f198101825261597c9082614657565b51905a91600092916a636f6e736f6c652e6c6f678493fa50600c548b51632500ed8d60e21b81528981018b90529291168286815a9360c094fa918215615bb957908d6159f99392600093615b8b575b506159f391610f5a6159e392855190860151906148ab565b9160608d820151910151906148ab565b90614801565b92615a2f848d7318dd5c9c995b9d119d5b991a5b99d4985d19481b60621b8d5191615a2383614621565b60148352820152615d17565b81158015615b83575b15615ad3575050505050505050908184615a5e836155939501515b60a0840151906156e5565b825180821215615acb5750915b015180821315615ac35750935b606560f81b615a8686614f8f565b927f67657443757272656e7446756e64696e67526174652066756e64696e67526174815193615ab48561463c565b60218552840152820152615d5c565b905093615a78565b905091615a6b565b615add83876153cb565b620f42409283820291808304851490151715615b6f5790615b01615b0792886153cb565b90614da5565b958203918211615b5c5750936159f361559399989794615b018d9895615b33615b3996615a5e9a6153cb565b926153cb565b9160005283526000858120541215600003615a5357615b5790614840565b615a53565b634e487b7160e01b600090815260118852fd5b8260118a634e487b7160e01b600052526000fd5b508315615a38565b6159e391935091610f5a615baf6159f39460c03d811161192e5761191f8183614657565b94925050916159cb565b8b513d6000823e3d90fd5b9091968282813d8311615c6a575b615bdc8183614657565b8101031261019c578851928301908382106001600160401b03831117615c585750885280518252898101518a8301528781015188830152606081015160608301526080810151608083015260a081015160a083015260c081015160c083015260e081015160e083015261010080910151908201529438806158b0565b634e487b7160e01b8152604187528890fd5b503d615bd2565b88513d6000823e3d90fd5b60405190615c8982614605565b816101206000918281528260208201528260408201528260608201528260808201528260a08201528260c08201528260e0820152826101008201520152565b60008091604051615d0481615cf6602082019463104c13eb60e21b8652602060248401526044830190614d80565b03601f198101835282614657565b51906a636f6e736f6c652e6c6f675afa50565b600091908291615d046040518092615d486020830195632d839cb360e21b8752604060248501526064840190614d80565b90604483015203601f198101835282614657565b60009190615cf6615d048493604051928391615d916020840196634b5c427760e01b8852604060248601526064850190614d80565b83810360231901604485015290614d80565b90615d04600094938594615df0604051948593615dd9602086019863c67ea9d160e01b8a526080602488015260a4870190614d80565b916044860152602319858303016064860152614d80565b90608483015203601f19810183528261465756fe07777c9f149d310fb8670fb9752de106d0ebc29093eb6df2be370406a7d742a39a23c22b6372bd11ffa0aced0db638ca7c144fc3996ecc8fbe3f9a639ef285ad7274207570646174652061766572616765507269636500000000000000000000a2646970667358221220bcf83e7a88574ebc8506379ecf611d1eeefde8c90506a1e09b2670d3f973ae6b64736f6c63430008110033",
  "devdoc": {
    "kind": "dev",
    "methods": {},
    "version": 1
  },
  "userdoc": {
    "kind": "user",
    "methods": {},
    "version": 1
  },
  "storageLayout": {
    "storage": [
      {
        "astId": 706,
        "contract": "contracts/trading/TradingVault.sol:TradingVault",
        "label": "_status",
        "offset": 0,
        "slot": "0",
        "type": "t_uint256"
      },
      {
        "astId": 5225,
        "contract": "contracts/trading/TradingVault.sol:TradingVault",
        "label": "isHandler",
        "offset": 0,
        "slot": "1",
        "type": "t_mapping(t_address,t_bool)"
      },
      {
        "astId": 15111,
        "contract": "contracts/trading/TradingVault.sol:TradingVault",
        "label": "positions",
        "offset": 0,
        "slot": "2",
        "type": "t_mapping(t_bytes32,t_struct(Info)4749_storage)"
      },
      {
        "astId": 15116,
        "contract": "contracts/trading/TradingVault.sol:TradingVault",
        "label": "isFrozen",
        "offset": 0,
        "slot": "3",
        "type": "t_mapping(t_address,t_bool)"
      },
      {
        "astId": 15121,
        "contract": "contracts/trading/TradingVault.sol:TradingVault",
        "label": "netExposureAmountChecker",
        "offset": 0,
        "slot": "4",
        "type": "t_mapping(t_uint256,t_int256)"
      },
      {
        "astId": 15126,
        "contract": "contracts/trading/TradingVault.sol:TradingVault",
        "label": "longTracker",
        "offset": 0,
        "slot": "5",
        "type": "t_mapping(t_uint256,t_uint256)"
      },
      {
        "astId": 15131,
        "contract": "contracts/trading/TradingVault.sol:TradingVault",
        "label": "shortTracker",
        "offset": 0,
        "slot": "6",
        "type": "t_mapping(t_uint256,t_uint256)"
      },
      {
        "astId": 15135,
        "contract": "contracts/trading/TradingVault.sol:TradingVault",
        "label": "cumulativeFundingRates",
        "offset": 0,
        "slot": "7",
        "type": "t_mapping(t_uint256,t_int256)"
      },
      {
        "astId": 15139,
        "contract": "contracts/trading/TradingVault.sol:TradingVault",
        "label": "lastFundingRates",
        "offset": 0,
        "slot": "8",
        "type": "t_mapping(t_uint256,t_int256)"
      },
      {
        "astId": 15143,
        "contract": "contracts/trading/TradingVault.sol:TradingVault",
        "label": "lastFundingTimes",
        "offset": 0,
        "slot": "9",
        "type": "t_mapping(t_uint256,t_uint256)"
      },
      {
        "astId": 15145,
        "contract": "contracts/trading/TradingVault.sol:TradingVault",
        "label": "fundingInterval",
        "offset": 0,
        "slot": "10",
        "type": "t_uint256"
      },
      {
        "astId": 15148,
        "contract": "contracts/trading/TradingVault.sol:TradingVault",
        "label": "pairInfo",
        "offset": 0,
        "slot": "11",
        "type": "t_contract(IPairInfo)9479"
      },
      {
        "astId": 15151,
        "contract": "contracts/trading/TradingVault.sol:TradingVault",
        "label": "pairVault",
        "offset": 0,
        "slot": "12",
        "type": "t_contract(IPairVault)9585"
      },
      {
        "astId": 15153,
        "contract": "contracts/trading/TradingVault.sol:TradingVault",
        "label": "tradingFeeReceiver",
        "offset": 0,
        "slot": "13",
        "type": "t_address"
      },
      {
        "astId": 15156,
        "contract": "contracts/trading/TradingVault.sol:TradingVault",
        "label": "vaultPriceFeed",
        "offset": 0,
        "slot": "14",
        "type": "t_contract(IOraclePriceFeed)4515"
      },
      {
        "astId": 15158,
        "contract": "contracts/trading/TradingVault.sol:TradingVault",
        "label": "addressPositionManager",
        "offset": 0,
        "slot": "15",
        "type": "t_address"
      }
    ],
    "types": {
      "t_address": {
        "encoding": "inplace",
        "label": "address",
        "numberOfBytes": "20"
      },
      "t_bool": {
        "encoding": "inplace",
        "label": "bool",
        "numberOfBytes": "1"
      },
      "t_bytes32": {
        "encoding": "inplace",
        "label": "bytes32",
        "numberOfBytes": "32"
      },
      "t_contract(IPairInfo)9479": {
        "encoding": "inplace",
        "label": "contract IPairInfo",
        "numberOfBytes": "20"
      },
      "t_contract(IPairVault)9585": {
        "encoding": "inplace",
        "label": "contract IPairVault",
        "numberOfBytes": "20"
      },
      "t_contract(IOraclePriceFeed)4515": {
        "encoding": "inplace",
        "label": "contract IOraclePriceFeed",
        "numberOfBytes": "20"
      },
      "t_int256": {
        "encoding": "inplace",
        "label": "int256",
        "numberOfBytes": "32"
      },
      "t_mapping(t_address,t_bool)": {
        "encoding": "mapping",
        "key": "t_address",
        "label": "mapping(address => bool)",
        "numberOfBytes": "32",
        "value": "t_bool"
      },
      "t_mapping(t_bytes32,t_struct(Info)4749_storage)": {
        "encoding": "mapping",
        "key": "t_bytes32",
        "label": "mapping(bytes32 => struct Position.Info)",
        "numberOfBytes": "32",
        "value": "t_struct(Info)4749_storage"
      },
      "t_mapping(t_uint256,t_int256)": {
        "encoding": "mapping",
        "key": "t_uint256",
        "label": "mapping(uint256 => int256)",
        "numberOfBytes": "32",
        "value": "t_int256"
      },
      "t_mapping(t_uint256,t_uint256)": {
        "encoding": "mapping",
        "key": "t_uint256",
        "label": "mapping(uint256 => uint256)",
        "numberOfBytes": "32",
        "value": "t_uint256"
      },
      "t_struct(Info)4749_storage": {
        "encoding": "inplace",
        "label": "struct Position.Info",
        "members": [
          {
            "astId": 4730,
            "contract": "contracts/trading/TradingVault.sol:TradingVault",
            "label": "key",
            "offset": 0,
            "slot": "0",
            "type": "t_bytes32"
          },
          {
            "astId": 4732,
            "contract": "contracts/trading/TradingVault.sol:TradingVault",
            "label": "account",
            "offset": 0,
            "slot": "1",
            "type": "t_address"
          },
          {
            "astId": 4734,
            "contract": "contracts/trading/TradingVault.sol:TradingVault",
            "label": "pairIndex",
            "offset": 0,
            "slot": "2",
            "type": "t_uint256"
          },
          {
            "astId": 4736,
            "contract": "contracts/trading/TradingVault.sol:TradingVault",
            "label": "isLong",
            "offset": 0,
            "slot": "3",
            "type": "t_bool"
          },
          {
            "astId": 4738,
            "contract": "contracts/trading/TradingVault.sol:TradingVault",
            "label": "collateral",
            "offset": 0,
            "slot": "4",
            "type": "t_uint256"
          },
          {
            "astId": 4740,
            "contract": "contracts/trading/TradingVault.sol:TradingVault",
            "label": "positionAmount",
            "offset": 0,
            "slot": "5",
            "type": "t_uint256"
          },
          {
            "astId": 4742,
            "contract": "contracts/trading/TradingVault.sol:TradingVault",
            "label": "averagePrice",
            "offset": 0,
            "slot": "6",
            "type": "t_uint256"
          },
          {
            "astId": 4744,
            "contract": "contracts/trading/TradingVault.sol:TradingVault",
            "label": "entryFundingRate",
            "offset": 0,
            "slot": "7",
            "type": "t_int256"
          },
          {
            "astId": 4746,
            "contract": "contracts/trading/TradingVault.sol:TradingVault",
            "label": "entryFundingTime",
            "offset": 0,
            "slot": "8",
            "type": "t_uint256"
          },
          {
            "astId": 4748,
            "contract": "contracts/trading/TradingVault.sol:TradingVault",
            "label": "realisedPnl",
            "offset": 0,
            "slot": "9",
            "type": "t_int256"
          }
        ],
        "numberOfBytes": "320"
      },
      "t_uint256": {
        "encoding": "inplace",
        "label": "uint256",
        "numberOfBytes": "32"
      }
    }
  }
}