{
  "address": "0xb07fB1a2F76574FD5243C1aA25Bb992cE9490B9C",
  "abi": [
    {
      "anonymous": false,
      "inputs": [
        {
          "indexed": true,
          "internalType": "bytes32",
          "name": "id",
          "type": "bytes32"
        },
        {
          "indexed": true,
          "internalType": "address",
          "name": "oldAddress",
          "type": "address"
        },
        {
          "indexed": true,
          "internalType": "address",
          "name": "newAddress",
          "type": "address"
        }
      ],
      "name": "AddressSet",
      "type": "event"
    },
    {
      "anonymous": false,
      "inputs": [
        {
          "indexed": true,
          "internalType": "address",
          "name": "previousOwner",
          "type": "address"
        },
        {
          "indexed": true,
          "internalType": "address",
          "name": "newOwner",
          "type": "address"
        }
      ],
      "name": "OwnershipTransferred",
      "type": "event"
    },
    {
      "inputs": [
        {
          "internalType": "bytes32",
          "name": "id",
          "type": "bytes32"
        }
      ],
      "name": "getAddress",
      "outputs": [
        {
          "internalType": "address",
          "name": "",
          "type": "address"
        }
      ],
      "stateMutability": "view",
      "type": "function"
    },
    {
      "inputs": [],
      "name": "getIndexPriceOracle",
      "outputs": [
        {
          "internalType": "address",
          "name": "",
          "type": "address"
        }
      ],
      "stateMutability": "view",
      "type": "function"
    },
    {
      "inputs": [],
      "name": "getPriceOracle",
      "outputs": [
        {
          "internalType": "address",
          "name": "",
          "type": "address"
        }
      ],
      "stateMutability": "view",
      "type": "function"
    },
    {
      "inputs": [],
      "name": "getRoleManager",
      "outputs": [
        {
          "internalType": "address",
          "name": "",
          "type": "address"
        }
      ],
      "stateMutability": "view",
      "type": "function"
    },
    {
      "inputs": [],
      "name": "owner",
      "outputs": [
        {
          "internalType": "address",
          "name": "",
          "type": "address"
        }
      ],
      "stateMutability": "view",
      "type": "function"
    },
    {
      "inputs": [],
      "name": "renounceOwnership",
      "outputs": [],
      "stateMutability": "nonpayable",
      "type": "function"
    },
    {
      "inputs": [
        {
          "internalType": "bytes32",
          "name": "id",
          "type": "bytes32"
        },
        {
          "internalType": "address",
          "name": "newAddress",
          "type": "address"
        }
      ],
      "name": "setAddress",
      "outputs": [],
      "stateMutability": "nonpayable",
      "type": "function"
    },
    {
      "inputs": [
        {
          "internalType": "address",
          "name": "newIndexPriceOracle",
          "type": "address"
        }
      ],
      "name": "setIndexPriceOracle",
      "outputs": [],
      "stateMutability": "nonpayable",
      "type": "function"
    },
    {
      "inputs": [
        {
          "internalType": "address",
          "name": "newPriceOracle",
          "type": "address"
        }
      ],
      "name": "setPriceOracle",
      "outputs": [],
      "stateMutability": "nonpayable",
      "type": "function"
    },
    {
      "inputs": [
        {
          "internalType": "address",
          "name": "newAddress",
          "type": "address"
        }
      ],
      "name": "setRolManager",
      "outputs": [],
      "stateMutability": "nonpayable",
      "type": "function"
    },
    {
      "inputs": [
        {
          "internalType": "address",
          "name": "newOwner",
          "type": "address"
        }
      ],
      "name": "transferOwnership",
      "outputs": [],
      "stateMutability": "nonpayable",
      "type": "function"
    }
  ],
  "transactionHash": "0x76c421f521c35c233f2112d73586b728bf6687e1eb788719569a56437fa798d2",
  "args": [],
  "numDeployments": 1,
  "solcInputHash": "7faaccecbd2027dcb98620e2a5f08cbc",
  "bytecode": "0x6080806040523461005b5760008054336001600160a01b0319821681178355916001600160a01b03909116907f8be0079c531659141344cd1fd0a4f28419497f9722a3daafe3b4186f6b6457e09080a361064490816100618239f35b600080fdfe608060408181526004918236101561001657600080fd5b600092833560e01c91826321f8a7211461054c5750816330a81a21146104d157816351331ad714610490578163530e784f1461041b5781635ac6248a146102e7578163715018a61461028a5781638da5cb5b14610262578163bdadaab61461021b578163ca446dd9146101a8578163f2fde38b146100e1575063fca513a81461009e57600080fd5b346100dd57816003193601126100dd576b50524943455f4f5241434c4560a01b825260016020908152918190205490516001600160a01b039091168152f35b5080fd5b9050346101a45760203660031901126101a4576100fc61057b565b90610105610596565b6001600160a01b0391821692831561015257505082546001600160a01b0319811683178455167f8be0079c531659141344cd1fd0a4f28419497f9722a3daafe3b4186f6b6457e08380a380f35b906020608492519162461bcd60e51b8352820152602660248201527f4f776e61626c653a206e6577206f776e657220697320746865207a65726f206160448201526564647265737360d01b6064820152fd5b8280fd5b9050346101a457816003193601126101a4576024356001600160a01b0381811693923591849003610217576101db610596565b81855260016020528285205416918420836bffffffffffffffffffffffff60a01b8254161790556000805160206105ef8339815191528480a480f35b8480fd5b5050346100dd57816003193601126100dd5771494e4445585f50524943455f4f5241434c4560701b825260016020908152918190205490516001600160a01b039091168152f35b5050346100dd57816003193601126100dd57905490516001600160a01b039091168152602090f35b83346102e457806003193601126102e4576102a3610596565b80546001600160a01b03198116825581906001600160a01b03167f8be0079c531659141344cd1fd0a4f28419497f9722a3daafe3b4186f6b6457e08280a380f35b80fd5b919050346101a457602090816003193601126104175761030561057b565b9061030e610596565b80516001600160a01b03928316949080830167ffffffffffffffff811182821017610404578352818152630697320360e41b8582015285156103ac5750506b2927a622afa6a0a720a3a2a960a11b9182865260018452600181838820541694610375610596565b8488525290852080546001600160a01b0319811686179091556000805160206105ef8339815191529185911683838880a48480a480f35b90848781945194859362461bcd60e51b8552840152835191826024850152815b8381106103ed57505060448094508284010152601f80199101168101030190fd5b8086018201518782016044015286945081016103cc565b634e487b7160e01b885260418352602488fd5b8380fd5b5050346100dd5760203660031901126100dd5761043661057b565b9061043f610596565b6b50524943455f4f5241434c4560a01b808452600160205290832080546001600160a01b039384166001600160a01b031982168117909255909216906000805160206105ef8339815191528480a480f35b5050346100dd57816003193601126100dd576b2927a622afa6a0a720a3a2a960a11b825260016020908152918190205490516001600160a01b039091168152f35b5050346100dd5760203660031901126100dd576104ec61057b565b906104f5610596565b71494e4445585f50524943455f4f5241434c4560701b808452600160205290832080546001600160a01b039384166001600160a01b031982168117909255909216906000805160206105ef8339815191528480a480f35b8484346100dd5760203660031901126100dd579235815260016020908152929020546001600160a01b03168152f35b600435906001600160a01b038216820361059157565b600080fd5b6000546001600160a01b031633036105aa57565b606460405162461bcd60e51b815260206004820152602060248201527f4f776e61626c653a2063616c6c6572206973206e6f7420746865206f776e65726044820152fdfe9ef0e8c8e52743bb38b83b17d9429141d494b8041ca6d616a6c77cebae9cd8b7a26469706673582212207995b1dff844da33e0ba9a1bbf3622ba5f82a7c2b33cd76c6533747bfe05ec3d64736f6c63430008110033",
  "devdoc": {
    "kind": "dev",
    "methods": {
      "owner()": {
        "details": "Returns the address of the current owner."
      },
      "renounceOwnership()": {
        "details": "Leaves the contract without owner. It will not be possible to call `onlyOwner` functions. Can only be called by the current owner. NOTE: Renouncing ownership will leave the contract without an owner, thereby disabling any functionality that is only available to the owner."
      },
      "transferOwnership(address)": {
        "details": "Transfers ownership of the contract to a new account (`newOwner`). Can only be called by the current owner."
      }
    },
    "version": 1
  },
  "userdoc": {
    "kind": "user",
    "methods": {},
    "version": 1
  },
  "storageLayout": {
    "storage": [
      {
        "astId": 7,
        "contract": "contracts/AddressesProvider.sol:AddressesProvider",
        "label": "_owner",
        "offset": 0,
        "slot": "0",
        "type": "t_address"
      },
      {
        "astId": 2284,
        "contract": "contracts/AddressesProvider.sol:AddressesProvider",
        "label": "_addresses",
        "offset": 0,
        "slot": "1",
        "type": "t_mapping(t_bytes32,t_address)"
      }
    ],
    "types": {
      "t_address": {
        "encoding": "inplace",
        "label": "address",
        "numberOfBytes": "20"
      },
      "t_bytes32": {
        "encoding": "inplace",
        "label": "bytes32",
        "numberOfBytes": "32"
      },
      "t_mapping(t_bytes32,t_address)": {
        "encoding": "mapping",
        "key": "t_bytes32",
        "label": "mapping(bytes32 => address)",
        "numberOfBytes": "32",
        "value": "t_address"
      }
    }
  }
}