{
  "address": "0x4654E18DA8ceeB3031b586352E570F5EB47f8d17",
  "abi": [
    {
      "inputs": [
        {
          "internalType": "address",
          "name": "_convertToken",
          "type": "address"
        },
        {
          "internalType": "address",
          "name": "_claimToken",
          "type": "address"
        }
      ],
      "stateMutability": "nonpayable",
      "type": "constructor"
    },
    {
      "anonymous": false,
      "inputs": [
        {
          "indexed": true,
          "internalType": "address",
          "name": "account",
          "type": "address"
        },
        {
          "indexed": false,
          "internalType": "uint256",
          "name": "amount",
          "type": "uint256"
        }
      ],
      "name": "Claim",
      "type": "event"
    },
    {
      "anonymous": false,
      "inputs": [
        {
          "indexed": true,
          "internalType": "address",
          "name": "account",
          "type": "address"
        },
        {
          "indexed": false,
          "internalType": "uint256",
          "name": "initAmount",
          "type": "uint256"
        },
        {
          "indexed": false,
          "internalType": "uint256",
          "name": "lockDays",
          "type": "uint256"
        },
        {
          "indexed": false,
          "internalType": "uint256",
          "name": "convertAmount",
          "type": "uint256"
        },
        {
          "indexed": false,
          "internalType": "uint256",
          "name": "remainingAmount",
          "type": "uint256"
        }
      ],
      "name": "Convert",
      "type": "event"
    },
    {
      "anonymous": false,
      "inputs": [
        {
          "indexed": true,
          "internalType": "address",
          "name": "previousOwner",
          "type": "address"
        },
        {
          "indexed": true,
          "internalType": "address",
          "name": "newOwner",
          "type": "address"
        }
      ],
      "name": "OwnershipTransferred",
      "type": "event"
    },
    {
      "inputs": [],
      "name": "claim",
      "outputs": [],
      "stateMutability": "nonpayable",
      "type": "function"
    },
    {
      "inputs": [],
      "name": "claimToken",
      "outputs": [
        {
          "internalType": "address",
          "name": "",
          "type": "address"
        }
      ],
      "stateMutability": "view",
      "type": "function"
    },
    {
      "inputs": [
        {
          "internalType": "address",
          "name": "_account",
          "type": "address"
        }
      ],
      "name": "claimableAmount",
      "outputs": [
        {
          "internalType": "uint256",
          "name": "claimableAmount",
          "type": "uint256"
        }
      ],
      "stateMutability": "view",
      "type": "function"
    },
    {
      "inputs": [],
      "name": "communityPool",
      "outputs": [
        {
          "internalType": "address",
          "name": "",
          "type": "address"
        }
      ],
      "stateMutability": "view",
      "type": "function"
    },
    {
      "inputs": [
        {
          "internalType": "uint256",
          "name": "amount",
          "type": "uint256"
        },
        {
          "internalType": "uint256",
          "name": "lockDays",
          "type": "uint256"
        }
      ],
      "name": "convert",
      "outputs": [],
      "stateMutability": "nonpayable",
      "type": "function"
    },
    {
      "inputs": [],
      "name": "convertToken",
      "outputs": [
        {
          "internalType": "address",
          "name": "",
          "type": "address"
        }
      ],
      "stateMutability": "view",
      "type": "function"
    },
    {
      "inputs": [],
      "name": "owner",
      "outputs": [
        {
          "internalType": "address",
          "name": "",
          "type": "address"
        }
      ],
      "stateMutability": "view",
      "type": "function"
    },
    {
      "inputs": [],
      "name": "renounceOwnership",
      "outputs": [],
      "stateMutability": "nonpayable",
      "type": "function"
    },
    {
      "inputs": [
        {
          "internalType": "address",
          "name": "_communityPool",
          "type": "address"
        }
      ],
      "name": "setCommunityPool",
      "outputs": [],
      "stateMutability": "nonpayable",
      "type": "function"
    },
    {
      "inputs": [
        {
          "internalType": "address",
          "name": "_account",
          "type": "address"
        }
      ],
      "name": "totalConverts",
      "outputs": [
        {
          "internalType": "uint256",
          "name": "amount",
          "type": "uint256"
        },
        {
          "internalType": "uint256",
          "name": "convertAmount",
          "type": "uint256"
        },
        {
          "internalType": "uint256",
          "name": "claimedAmount",
          "type": "uint256"
        }
      ],
      "stateMutability": "view",
      "type": "function"
    },
    {
      "inputs": [
        {
          "internalType": "address",
          "name": "newOwner",
          "type": "address"
        }
      ],
      "name": "transferOwnership",
      "outputs": [],
      "stateMutability": "nonpayable",
      "type": "function"
    },
    {
      "inputs": [
        {
          "internalType": "address",
          "name": "",
          "type": "address"
        },
        {
          "internalType": "uint256",
          "name": "",
          "type": "uint256"
        }
      ],
      "name": "userConversions",
      "outputs": [
        {
          "internalType": "uint256",
          "name": "initAmount",
          "type": "uint256"
        },
        {
          "internalType": "uint256",
          "name": "convertAmount",
          "type": "uint256"
        },
        {
          "internalType": "uint256",
          "name": "lockPeriod",
          "type": "uint256"
        },
        {
          "internalType": "uint256",
          "name": "lastVestingTimes",
          "type": "uint256"
        },
        {
          "internalType": "uint256",
          "name": "claimedAmount",
          "type": "uint256"
        }
      ],
      "stateMutability": "view",
      "type": "function"
    }
  ],
  "transactionHash": "0x56c010e110798fd3f569064f52ba4c9ef7af1799905f118b469111f13e83fe69",
  "args": [
    "0x5787205B5D09A2D4C1B259F388006bcfc572814b",
    "0x511C0a8cCB5C426D43Bcac867D611E534f971aE1"
  ],
  "numDeployments": 1,
  "solcInputHash": "a0a35a8cc001b329f8e259ab1e7a3059",
  "bytecode": "0x6080346100c857601f6114cc38819003918201601f19168301916001600160401b038311848410176100cd5780849260409485528339810103126100c857610052602061004b836100e3565b92016100e3565b6001600081815581546001600160a01b0319808216339081179094556040519590946001600160a01b0394909385938416907f8be0079c531659141344cd1fd0a4f28419497f9722a3daafe3b4186f6b6457e09080a316836002541617600255169060035416176003556113d490816100f88239f35b600080fd5b634e487b7160e01b600052604160045260246000fd5b51906001600160a01b03821682036100c85756fe6080604081815260048036101561001557600080fd5b600092833560e01c90816302bb92b5146109825750806314d140b01461095b578063410a1db11461091a5780634451d89f146108f15780634e71d92d146108d4578063715018a614610877578063898850491461068c5780638a6358fe1461060f5780638da5cb5b146105e657806396e4ee3d146101a3578063c8c5a0b3146101765763f2fde38b146100a757600080fd5b34610172576020366003190112610172576100c0610ac6565b906100c9610b13565b6001600160a01b03918216928315610120575050600154826bffffffffffffffffffffffff60a01b821617600155167f8be0079c531659141344cd1fd0a4f28419497f9722a3daafe3b4186f6b6457e0600080a380f35b906020608492519162461bcd60e51b8352820152602660248201527f4f776e61626c653a206e6577206f776e657220697320746865207a65726f206160448201526564647265737360d01b6064820152fd5b8280fd5b50503461019f578160031936011261019f5760025490516001600160a01b039091168152602090f35b5080fd5b509034610172578060031936011261017257813591602491823581516101c881610bb1565b601d81526101fe82876020937f636f6e7665727420616d6f756e74202573206c6f636b4461797320257300000085820152611353565b81158080156105dc575b80156105d2575b80156105c8575b80156105be575b1561057e5761022b33610ecd565b60025484516323b872dd60e01b84820152338882015230604482015260648082018a90528082526001600160a01b039392909161027291851661026d82610b6b565b610c9f565b8982156105045750603289028981046032148a1517156104f25704955b610299878a610c54565b976102e5898989516102aa81610bcd565b602581527f636f6e7665727420636f6e76657274416d6f756e742025732072656d61696e6989820152646e6720257360d81b8b820152611353565b836002541692833b156104ee578751632770a7eb60e21b80825230858301908152602081018d905290958e9183919082908490829060400103925af180156104e4576104cb575b50908b9392916103458b87600354168886541690610c61565b156104005750836002541691823b156103fc578751908152309181019182526020820189905291839183919082908490829060400103925af180156103f257908792916103d7575b505061039e91339060035416610c61565b825195865285015283015260608201527f4f09055b5418e090c7d08b27a3aec5e8f0a9fa745c383df63acaf2eda8a45adb60803392a280f35b6103e2919250610b9d565b6103ee5784883861038d565b8780fd5b86513d84823e3d90fd5b8380fd5b9350915050338952600583528489206201518080860290868204036104b957908a91875161042d81610b6b565b8b8152868101908a8252898101928352606081019342855260808201958652805490680100000000000000008210156104a6579061047091600182018155610ae1565b97909761049657505186555160018601555160028501555160038401555191015561039e565b634e487b7160e01b8f528e87528efd5b50634e487b7160e01b8f5260418752878ffd5b634e487b7160e01b8b5260118352838bfd5b6104da909c919493929c610b9d565b9a9091923861032c565b89513d8f823e3d90fd5b8b80fd5b634e487b7160e01b8b5260118852888bfd5b600e86036105275750603c8902898104603c148a1517156104f25704955b61028f565b601e86036105495750604689028981046046148a1517156104f257049561028f565b605a860361056b5750605589028981046055148a1517156104f257049561028f565b96905060b485036105225788965061028f565b60648583888188519362461bcd60e51b85528401528201527f436f6e766572746f723a20696e76616c696420756e6c6f636b20706572696f646044820152fd5b5060b4831461021d565b50605a8314610216565b50601e831461020f565b50600e8314610208565b50503461019f578160031936011261019f5760015490516001600160a01b039091168152602090f35b509034610172578060031936011261017257610629610ac6565b6001600160a01b03168352600560205280832080546024359490851015610689575060a09361065791610ae1565b508054926001820154926002830154916003840154930154938151958652602086015284015260608301526080820152f35b80fd5b5090346101725760209283600319360112610689576106a9610ac6565b6001600160a01b0316815260058085528282208054909483929067ffffffffffffffff831161086457958551966106e48985851b0189610be9565b838852908452878420849189808a015b86851061081c57505050505050505b83518110156108135761074081845161071b81610bb1565b6014815273636c61696d61626c65416d6f756e74206920257360601b888201526112fb565b61074a81856112e7565b519061075a606083015142610c54565b608061077761076d898601938451610c0b565b8786015190610c34565b9301610784815185610ec0565b9151809210156107f5575b50506107eb6107a2836107f09495610ec0565b809486516107af81610bcd565b602681527f6e657874566573746564416d6f756e7420257320636c61696d61626c65416d6f8a82015265756e7420257360d01b88820152611353565b6112d8565b610703565b6107f0935061080c6107eb926107a2925190610c54565b935061078f565b50915051908152f35b60019186918b5161082c81610b6b565b86548152848701548382015260028701548d820152600387015460608201528587015460808201528152019301930192918a906106f4565b634e487b7160e01b845260419052602483fd5b8334610689578060031936011261068957610890610b13565b600180546001600160a01b0319811690915581906001600160a01b03167f8be0079c531659141344cd1fd0a4f28419497f9722a3daafe3b4186f6b6457e08280a380f35b83346106895780600319360112610689576108ee33610ecd565b80f35b50503461019f578160031936011261019f5760035490516001600160a01b039091168152602090f35b83823461019f57602036600319011261019f57610935610ac6565b61093d610b13565b81546001600160a01b0319166001600160a01b039190911617905580f35b50346101725782600319360112610172575490516001600160a01b03909116815260209150f35b9193905034610689576020938460031936011261019f576109a1610ac6565b92828092819560018060a01b0316825260058089528783209182549267ffffffffffffffff8411610ab357906109de8b85859a999a1b0187610be9565b83865290845289842084918b8088015b8c878610610a63575050505050505050935b8151851015610a4f57610a40610a46916080610a37610a2c610a228a886112e7565b5197885190610ec0565b978b88015190610ec0565b95015190610ec0565b946112d8565b93929192610a00565b905084606093878251948552840152820152f35b918691836001949d9c9d5190610a7882610b6b565b875482528588015484830152600288015490820152600387015460608201528587015460808201528152019301930192918c909998996109ee565b634e487b7160e01b855260418252602485fd5b600435906001600160a01b0382168203610adc57565b600080fd5b8054821015610afd576000526005602060002091020190600090565b634e487b7160e01b600052603260045260246000fd5b6001546001600160a01b03163303610b2757565b606460405162461bcd60e51b815260206004820152602060248201527f4f776e61626c653a2063616c6c6572206973206e6f7420746865206f776e65726044820152fd5b60a0810190811067ffffffffffffffff821117610b8757604052565b634e487b7160e01b600052604160045260246000fd5b67ffffffffffffffff8111610b8757604052565b6040810190811067ffffffffffffffff821117610b8757604052565b6060810190811067ffffffffffffffff821117610b8757604052565b90601f8019910116810190811067ffffffffffffffff821117610b8757604052565b81810292918115918404141715610c1e57565b634e487b7160e01b600052601160045260246000fd5b8115610c3e570490565b634e487b7160e01b600052601260045260246000fd5b91908203918211610c1e57565b60405163a9059cbb60e01b60208201526001600160a01b03929092166024830152604480830193909352918152610c9d9161026d606483610be9565b565b60018060a01b031690604051610cb481610bb1565b6020928382527f5361666545524332303a206c6f772d6c6576656c2063616c6c206661696c6564848301526000808486829651910182855af13d15610dd9573d9167ffffffffffffffff8311610dc55790610d2f93929160405192610d2288601f19601f8401160185610be9565b83523d868885013e610de3565b805191821591848315610da1575b505050905015610d4a5750565b6084906040519062461bcd60e51b82526004820152602a60248201527f5361666545524332303a204552433230206f7065726174696f6e20646964206e6044820152691bdd081cdd58d8d9595960b21b6064820152fd5b91938180945001031261019f57820151908115158203610689575080388084610d3d565b634e487b7160e01b85526041600452602485fd5b90610d2f92916060915b91929015610e455750815115610df7575090565b3b15610e005790565b60405162461bcd60e51b815260206004820152601d60248201527f416464726573733a2063616c6c20746f206e6f6e2d636f6e74726163740000006044820152606490fd5b825190915015610e585750805190602001fd5b60405162461bcd60e51b815260206004820152908190610e7c906024830190610e80565b0390fd5b919082519283825260005b848110610eac575050826000602080949584010152601f8019910116010190565b602081830181015184830182015201610e8b565b91908201809211610c1e57565b90604090815190610edd82610bb1565b601d82526020907f636c61696d206163636f756e742025732074696d657374616d702025730000008284015283519180830192630d26b92560e01b8452610f5881610f346024976060898401526084830190610e80565b6001600160a01b03998a16604483015242606483015203601f198101835282610be9565b60008094819251906a636f6e736f6c652e6c6f675afa50338352600581528483209485549687156112ce57849660001998898101908111611132579089979695949392915b610fa78183610ae1565b5060039081810191610fba835442610c54565b90600191828401610fcd81549283610c0b565b95610fde6002978888015490610c34565b90600480970193845490610ff28285610ec0565b1061129957505050909d9e95969798999a9b9c9d6110139154905490610c54565b9d87549081019081116112875761102a9088610ae1565b506110358789610ae1565b91909161123a57808591830361125d575b5050508654801561124b578f019361105e8589610ae1565b93909361123a57938f94938e6110bd97948180958161110e9c99818755860155840155820155015586556110b885895161109781610bb1565b601081526f636f6e7665727420706f70206920257360801b8c8201526112fb565b610ec0565b809a86516110ca81610bcd565b602e81527f636f6e76657274206e657874566573746564416d6f756e7420257320636c6169898201526d6d61626c65416d6f756e7420257360901b88820152611353565b8154158015611232575b611145578015611132578997969594939291908801610f9d565b634e487b7160e01b875260116004528787fd5b5050929650929093826002541691823b15610689578451632770a7eb60e21b8152306004820152602481018890529281908490604490829084905af18015611226579087949392916111d1575b5050507f47cee97cb7acd717b3c0aa1435d004cd5b3c8c57d70dbceb4e4458bbd60e39d49392916111c891339060035416610c61565b519283523392a2565b909192935067ffffffffffffffff831161121557505082528390816111c87f47cee97cb7acd717b3c0aa1435d004cd5b3c8c57d70dbceb4e4458bbd60e39d4611192565b634e487b7160e01b81526041600452fd5b508451903d90823e3d90fd5b508015611118565b634e487b7160e01b8e528d85528e8efd5b634e487b7160e01b8d52603184528d8dfd5b80548355848101548584015586810154878401558381015484840155810154910155388381611046565b634e487b7160e01b8d52601184528d8dfd5b9094508197508196506110bd979550959f509f9361110e9798999a9b9c9d9e9f956112c49250610ec0565b9055429055610ec0565b5050509350505050565b6000198114610c1e5760010190565b8051821015610afd5760209160051b010190565b600091908291611340604051809261132c6020830195632d839cb360e21b8752604060248501526064840190610e80565b90604483015203601f198101835282610be9565b51906a636f6e736f6c652e6c6f675afa50565b600092916113408493604051928391611385602084019663ca47c4eb60e01b8852606060248601526084850190610e80565b916044840152606483015203601f198101835282610be956fea2646970667358221220b31cf423bdae30981ee2d74ecb5d413822bd6f244e7fa1f61ee4c67b6f93e09164736f6c63430008110033",
  "devdoc": {
    "kind": "dev",
    "methods": {
      "owner()": {
        "details": "Returns the address of the current owner."
      },
      "renounceOwnership()": {
        "details": "Leaves the contract without owner. It will not be possible to call `onlyOwner` functions. Can only be called by the current owner. NOTE: Renouncing ownership will leave the contract without an owner, thereby disabling any functionality that is only available to the owner."
      },
      "transferOwnership(address)": {
        "details": "Transfers ownership of the contract to a new account (`newOwner`). Can only be called by the current owner."
      }
    },
    "version": 1
  },
  "userdoc": {
    "kind": "user",
    "methods": {},
    "version": 1
  },
  "storageLayout": {
    "storage": [
      {
        "astId": 400,
        "contract": "contracts/earn/Convertor.sol:Convertor",
        "label": "_status",
        "offset": 0,
        "slot": "0",
        "type": "t_uint256"
      },
      {
        "astId": 7,
        "contract": "contracts/earn/Convertor.sol:Convertor",
        "label": "_owner",
        "offset": 0,
        "slot": "1",
        "type": "t_address"
      },
      {
        "astId": 3969,
        "contract": "contracts/earn/Convertor.sol:Convertor",
        "label": "convertToken",
        "offset": 0,
        "slot": "2",
        "type": "t_address"
      },
      {
        "astId": 3971,
        "contract": "contracts/earn/Convertor.sol:Convertor",
        "label": "claimToken",
        "offset": 0,
        "slot": "3",
        "type": "t_address"
      },
      {
        "astId": 3973,
        "contract": "contracts/earn/Convertor.sol:Convertor",
        "label": "communityPool",
        "offset": 0,
        "slot": "4",
        "type": "t_address"
      },
      {
        "astId": 4008,
        "contract": "contracts/earn/Convertor.sol:Convertor",
        "label": "userConversions",
        "offset": 0,
        "slot": "5",
        "type": "t_mapping(t_address,t_array(t_struct(Conversion)3984_storage)dyn_storage)"
      }
    ],
    "types": {
      "t_address": {
        "encoding": "inplace",
        "label": "address",
        "numberOfBytes": "20"
      },
      "t_array(t_struct(Conversion)3984_storage)dyn_storage": {
        "base": "t_struct(Conversion)3984_storage",
        "encoding": "dynamic_array",
        "label": "struct Convertor.Conversion[]",
        "numberOfBytes": "32"
      },
      "t_mapping(t_address,t_array(t_struct(Conversion)3984_storage)dyn_storage)": {
        "encoding": "mapping",
        "key": "t_address",
        "label": "mapping(address => struct Convertor.Conversion[])",
        "numberOfBytes": "32",
        "value": "t_array(t_struct(Conversion)3984_storage)dyn_storage"
      },
      "t_struct(Conversion)3984_storage": {
        "encoding": "inplace",
        "label": "struct Convertor.Conversion",
        "members": [
          {
            "astId": 3975,
            "contract": "contracts/earn/Convertor.sol:Convertor",
            "label": "initAmount",
            "offset": 0,
            "slot": "0",
            "type": "t_uint256"
          },
          {
            "astId": 3977,
            "contract": "contracts/earn/Convertor.sol:Convertor",
            "label": "convertAmount",
            "offset": 0,
            "slot": "1",
            "type": "t_uint256"
          },
          {
            "astId": 3979,
            "contract": "contracts/earn/Convertor.sol:Convertor",
            "label": "lockPeriod",
            "offset": 0,
            "slot": "2",
            "type": "t_uint256"
          },
          {
            "astId": 3981,
            "contract": "contracts/earn/Convertor.sol:Convertor",
            "label": "lastVestingTimes",
            "offset": 0,
            "slot": "3",
            "type": "t_uint256"
          },
          {
            "astId": 3983,
            "contract": "contracts/earn/Convertor.sol:Convertor",
            "label": "claimedAmount",
            "offset": 0,
            "slot": "4",
            "type": "t_uint256"
          }
        ],
        "numberOfBytes": "160"
      },
      "t_uint256": {
        "encoding": "inplace",
        "label": "uint256",
        "numberOfBytes": "32"
      }
    }
  }
}