{
  "address": "0xE292c131BD6229300A99A306acbEC3689a1acE6D",
  "abi": [
    {
      "inputs": [
        {
          "internalType": "contract IAddressesProvider",
          "name": "addressProvider",
          "type": "address"
        },
        {
          "internalType": "contract IPool",
          "name": "_pool",
          "type": "address"
        },
        {
          "internalType": "contract IOrderManager",
          "name": "_orderManager",
          "type": "address"
        },
        {
          "internalType": "contract IPositionManager",
          "name": "_tradingVault",
          "type": "address"
        },
        {
          "internalType": "uint256",
          "name": "_maxTimeDelay",
          "type": "uint256"
        }
      ],
      "stateMutability": "nonpayable",
      "type": "constructor"
    },
    {
      "anonymous": false,
      "inputs": [
        {
          "indexed": false,
          "internalType": "address",
          "name": "account",
          "type": "address"
        },
        {
          "indexed": false,
          "internalType": "uint256",
          "name": "orderId",
          "type": "uint256"
        },
        {
          "indexed": false,
          "internalType": "uint256",
          "name": "pairIndex",
          "type": "uint256"
        },
        {
          "indexed": false,
          "internalType": "enum TradingTypes.TradeType",
          "name": "tradeType",
          "type": "uint8"
        },
        {
          "indexed": false,
          "internalType": "bool",
          "name": "isLong",
          "type": "bool"
        },
        {
          "indexed": false,
          "internalType": "uint256",
          "name": "sizeAmount",
          "type": "uint256"
        },
        {
          "indexed": false,
          "internalType": "uint256",
          "name": "price",
          "type": "uint256"
        },
        {
          "indexed": false,
          "internalType": "int256",
          "name": "pnl",
          "type": "int256"
        },
        {
          "indexed": false,
          "internalType": "bool",
          "name": "needADL",
          "type": "bool"
        },
        {
          "indexed": false,
          "internalType": "uint256",
          "name": "tradingFee",
          "type": "uint256"
        },
        {
          "indexed": false,
          "internalType": "int256",
          "name": "fundingFee",
          "type": "int256"
        }
      ],
      "name": "ExecuteDecreaseOrder",
      "type": "event"
    },
    {
      "anonymous": false,
      "inputs": [
        {
          "indexed": false,
          "internalType": "address",
          "name": "account",
          "type": "address"
        },
        {
          "indexed": false,
          "internalType": "uint256",
          "name": "orderId",
          "type": "uint256"
        },
        {
          "indexed": false,
          "internalType": "uint256",
          "name": "pairIndex",
          "type": "uint256"
        },
        {
          "indexed": false,
          "internalType": "enum TradingTypes.TradeType",
          "name": "tradeType",
          "type": "uint8"
        },
        {
          "indexed": false,
          "internalType": "int256",
          "name": "collateral",
          "type": "int256"
        },
        {
          "indexed": false,
          "internalType": "bool",
          "name": "isLong",
          "type": "bool"
        },
        {
          "indexed": false,
          "internalType": "uint256",
          "name": "sizeAmount",
          "type": "uint256"
        },
        {
          "indexed": false,
          "internalType": "uint256",
          "name": "price",
          "type": "uint256"
        },
        {
          "indexed": false,
          "internalType": "uint256",
          "name": "tradingFee",
          "type": "uint256"
        },
        {
          "indexed": false,
          "internalType": "int256",
          "name": "fundingFee",
          "type": "int256"
        }
      ],
      "name": "ExecuteIncreaseOrder",
      "type": "event"
    },
    {
      "anonymous": false,
      "inputs": [
        {
          "indexed": false,
          "internalType": "address",
          "name": "account",
          "type": "address"
        }
      ],
      "name": "Paused",
      "type": "event"
    },
    {
      "anonymous": false,
      "inputs": [
        {
          "indexed": false,
          "internalType": "address",
          "name": "account",
          "type": "address"
        }
      ],
      "name": "Unpaused",
      "type": "event"
    },
    {
      "anonymous": false,
      "inputs": [
        {
          "indexed": false,
          "internalType": "uint256",
          "name": "oldDelay",
          "type": "uint256"
        },
        {
          "indexed": false,
          "internalType": "uint256",
          "name": "newDelay",
          "type": "uint256"
        }
      ],
      "name": "UpdateMaxTimeDelay",
      "type": "event"
    },
    {
      "inputs": [],
      "name": "ADDRESS_PROVIDER",
      "outputs": [
        {
          "internalType": "contract IAddressesProvider",
          "name": "",
          "type": "address"
        }
      ],
      "stateMutability": "view",
      "type": "function"
    },
    {
      "inputs": [
        {
          "internalType": "address",
          "name": "claimToken",
          "type": "address"
        }
      ],
      "name": "claimTradingFee",
      "outputs": [
        {
          "internalType": "uint256",
          "name": "",
          "type": "uint256"
        }
      ],
      "stateMutability": "nonpayable",
      "type": "function"
    },
    {
      "inputs": [],
      "name": "decreaseMarketOrderStartIndex",
      "outputs": [
        {
          "internalType": "uint256",
          "name": "",
          "type": "uint256"
        }
      ],
      "stateMutability": "view",
      "type": "function"
    },
    {
      "inputs": [
        {
          "internalType": "bytes32[]",
          "name": "_positionKeys",
          "type": "bytes32[]"
        },
        {
          "internalType": "uint256[]",
          "name": "_sizeAmounts",
          "type": "uint256[]"
        },
        {
          "internalType": "uint256",
          "name": "_orderId",
          "type": "uint256"
        },
        {
          "internalType": "enum TradingTypes.TradeType",
          "name": "_tradeType",
          "type": "uint8"
        }
      ],
      "name": "executeADLAndDecreaseOrder",
      "outputs": [],
      "stateMutability": "nonpayable",
      "type": "function"
    },
    {
      "inputs": [
        {
          "internalType": "uint256[]",
          "name": "orderIds",
          "type": "uint256[]"
        }
      ],
      "name": "executeDecreaseLimitOrders",
      "outputs": [],
      "stateMutability": "nonpayable",
      "type": "function"
    },
    {
      "inputs": [
        {
          "internalType": "uint256",
          "name": "endIndex",
          "type": "uint256"
        }
      ],
      "name": "executeDecreaseMarketOrders",
      "outputs": [],
      "stateMutability": "nonpayable",
      "type": "function"
    },
    {
      "inputs": [
        {
          "internalType": "uint256",
          "name": "_orderId",
          "type": "uint256"
        },
        {
          "internalType": "enum TradingTypes.TradeType",
          "name": "_tradeType",
          "type": "uint8"
        }
      ],
      "name": "executeDecreaseOrder",
      "outputs": [],
      "stateMutability": "nonpayable",
      "type": "function"
    },
    {
      "inputs": [
        {
          "internalType": "uint256[]",
          "name": "orderIds",
          "type": "uint256[]"
        }
      ],
      "name": "executeIncreaseLimitOrders",
      "outputs": [],
      "stateMutability": "nonpayable",
      "type": "function"
    },
    {
      "inputs": [
        {
          "internalType": "uint256",
          "name": "endIndex",
          "type": "uint256"
        }
      ],
      "name": "executeIncreaseMarketOrders",
      "outputs": [],
      "stateMutability": "nonpayable",
      "type": "function"
    },
    {
      "inputs": [
        {
          "internalType": "uint256",
          "name": "_orderId",
          "type": "uint256"
        },
        {
          "internalType": "enum TradingTypes.TradeType",
          "name": "_tradeType",
          "type": "uint8"
        }
      ],
      "name": "executeIncreaseOrder",
      "outputs": [],
      "stateMutability": "nonpayable",
      "type": "function"
    },
    {
      "inputs": [],
      "name": "increaseMarketOrderStartIndex",
      "outputs": [
        {
          "internalType": "uint256",
          "name": "",
          "type": "uint256"
        }
      ],
      "stateMutability": "view",
      "type": "function"
    },
    {
      "inputs": [
        {
          "internalType": "bytes32[]",
          "name": "positionKeys",
          "type": "bytes32[]"
        }
      ],
      "name": "liquidatePositions",
      "outputs": [],
      "stateMutability": "nonpayable",
      "type": "function"
    },
    {
      "inputs": [],
      "name": "maxTimeDelay",
      "outputs": [
        {
          "internalType": "uint256",
          "name": "",
          "type": "uint256"
        }
      ],
      "stateMutability": "view",
      "type": "function"
    },
    {
      "inputs": [],
      "name": "orderManager",
      "outputs": [
        {
          "internalType": "contract IOrderManager",
          "name": "",
          "type": "address"
        }
      ],
      "stateMutability": "view",
      "type": "function"
    },
    {
      "inputs": [],
      "name": "paused",
      "outputs": [
        {
          "internalType": "bool",
          "name": "",
          "type": "bool"
        }
      ],
      "stateMutability": "view",
      "type": "function"
    },
    {
      "inputs": [],
      "name": "pool",
      "outputs": [
        {
          "internalType": "contract IPool",
          "name": "",
          "type": "address"
        }
      ],
      "stateMutability": "view",
      "type": "function"
    },
    {
      "inputs": [],
      "name": "positionManager",
      "outputs": [
        {
          "internalType": "contract IPositionManager",
          "name": "",
          "type": "address"
        }
      ],
      "stateMutability": "view",
      "type": "function"
    },
    {
      "inputs": [],
      "name": "setPaused",
      "outputs": [],
      "stateMutability": "nonpayable",
      "type": "function"
    },
    {
      "inputs": [
        {
          "internalType": "address[]",
          "name": "tokens",
          "type": "address[]"
        },
        {
          "internalType": "uint256[]",
          "name": "prices",
          "type": "uint256[]"
        },
        {
          "internalType": "uint256",
          "name": "timestamp",
          "type": "uint256"
        },
        {
          "internalType": "bytes32[]",
          "name": "positionKeys",
          "type": "bytes32[]"
        },
        {
          "internalType": "uint256[]",
          "name": "sizeAmounts",
          "type": "uint256[]"
        },
        {
          "internalType": "uint256",
          "name": "orderId",
          "type": "uint256"
        },
        {
          "internalType": "enum TradingTypes.TradeType",
          "name": "tradeType",
          "type": "uint8"
        }
      ],
      "name": "setPricesAndExecuteADL",
      "outputs": [],
      "stateMutability": "nonpayable",
      "type": "function"
    },
    {
      "inputs": [
        {
          "internalType": "address[]",
          "name": "tokens",
          "type": "address[]"
        },
        {
          "internalType": "uint256[]",
          "name": "prices",
          "type": "uint256[]"
        },
        {
          "internalType": "uint256",
          "name": "timestamp",
          "type": "uint256"
        },
        {
          "internalType": "uint256[]",
          "name": "increaseOrderIds",
          "type": "uint256[]"
        },
        {
          "internalType": "uint256[]",
          "name": "decreaseOrderIds",
          "type": "uint256[]"
        }
      ],
      "name": "setPricesAndExecuteLimitOrders",
      "outputs": [],
      "stateMutability": "nonpayable",
      "type": "function"
    },
    {
      "inputs": [
        {
          "internalType": "address[]",
          "name": "tokens",
          "type": "address[]"
        },
        {
          "internalType": "uint256[]",
          "name": "prices",
          "type": "uint256[]"
        },
        {
          "internalType": "uint256",
          "name": "timestamp",
          "type": "uint256"
        },
        {
          "internalType": "uint256",
          "name": "increaseEndIndex",
          "type": "uint256"
        },
        {
          "internalType": "uint256",
          "name": "decreaseEndIndex",
          "type": "uint256"
        }
      ],
      "name": "setPricesAndExecuteMarketOrders",
      "outputs": [],
      "stateMutability": "nonpayable",
      "type": "function"
    },
    {
      "inputs": [
        {
          "internalType": "address[]",
          "name": "tokens",
          "type": "address[]"
        },
        {
          "internalType": "uint256[]",
          "name": "prices",
          "type": "uint256[]"
        },
        {
          "internalType": "uint256",
          "name": "timestamp",
          "type": "uint256"
        },
        {
          "internalType": "bytes32[]",
          "name": "positionKeys",
          "type": "bytes32[]"
        }
      ],
      "name": "setPricesAndLiquidatePositions",
      "outputs": [],
      "stateMutability": "nonpayable",
      "type": "function"
    },
    {
      "inputs": [],
      "name": "setUnPaused",
      "outputs": [],
      "stateMutability": "nonpayable",
      "type": "function"
    },
    {
      "inputs": [
        {
          "internalType": "uint256",
          "name": "newMaxTimeDelay",
          "type": "uint256"
        }
      ],
      "name": "updateMaxTimeDelay",
      "outputs": [],
      "stateMutability": "nonpayable",
      "type": "function"
    }
  ],
  "transactionHash": "0xf7f65a22764c6375a2a3f92a0635d7b061247101b01b7edfdc5981243ba9b3f6",
  "args": [
    "0xb07fB1a2F76574FD5243C1aA25Bb992cE9490B9C",
    "0xD2605f821EDB524958dbc6202E692f21802369E1",
    "0xeC672E5D027D456be20bE0DdB978e2925372B686",
    "0x68dceA198f713F30Ae88CAd713298A9006D09A63",
    60
  ],
  "numDeployments": 1,
  "solcInputHash": "e56e9f0b846e55f25388e85bcfa6efa0",
  "bytecode": "0x60a0346200014b57601f62005a4638819003918201601f19168301916001600160401b03831184841017620001505780849260a0946040528339810103126200014b578051906001600160a01b039081831683036200014b576020810151908282168092036200014b576040810151908382168092036200014b5760608101519384168094036200014b57608001519360ff196000541660005560805260018060a01b03199182600554161760055581600454161760045560065416176006556003556040516158df90816200016782396080518181816101580152818161031f015281816105bd0152818161086301528181610acc01528181610c2201528181611442015281816116c1015281816117e30152818161197101528181611c4301528181611f0a015281816121e80152818161230001528181612466015281816125c8015261265c0152f35b600080fd5b634e487b7160e01b600052604160045260246000fdfe608080604052600436101561001357600080fd5b600090813560e01c90816303897a95146126205750806316f0115b146125f75780631848effa146125b2578063349fdb091461243557806337a66d85146122cf578063531d87c1146121b75780635be766c3146121995780635c975abb14612177578063791b98bc1461214e578063a776034014611e6e578063afb566e414611b9b578063b298f25a1461191f578063be39f3aa146117a8578063bfa5ea9914611690578063c04c0f58146113f0578063cb0269c9146113d2578063d4053f7b146113b4578063da9d857b14610bb5578063e70da1b514610a9c578063ef09314a146107fc578063efc95de81461056b578063f2ac5dfe1461029b578063f9b6117f146102725763fdc860f01461012957600080fd5b3461026f5761013736612963565b6040516351331ad760e01b81526001600160a01b03929060209081816004817f000000000000000000000000000000000000000000000000000000000000000089165afa8015610264578291879161022a575b506024604051809781936335d2155560e11b8352336004840152165afa90811561021f5785916101e4575b506101d8935080156101db575b6101cb906129e7565b6101d36129a3565b614869565b80f35b503330146101c2565b905083813d8311610218575b6101fa818361285f565b810103126102145761020e6101d893612996565b386101b5565b8380fd5b503d6101f0565b6040513d87823e3d90fd5b82819392503d831161025d575b610241818361285f565b81010312610259576102538291612982565b3861018a565b8580fd5b503d610237565b6040513d88823e3d90fd5b80fd5b503461026f578060031936011261026f576004546040516001600160a01b039091168152602090f35b503461026f57608036600319011261026f57806001600160401b03600435818111610473576102ce903690600401612897565b90602435818111610566576102e7903690600401612905565b9060643590811161056657610300903690600401612905565b6040516351331ad760e01b8152909260209290916001600160a01b03907f00000000000000000000000000000000000000000000000000000000000000008216908581600481855afa90811561052457839187918a9161052f575b506024604051809481936335d2155560e11b8352336004840152165afa801561052457869189916104e2575b50916103946004936129e7565b61039c6129a3565b8551855114806104da575b6103b090612a28565b604051635ed6d55b60e11b815292839182905afa9081156104cf578791610496575b501691823b156102595761040392869283604051809681958294631e09986f60e21b84526044359160048501612a99565b03925af190811561048b578491610477575b5050303b1561047357610445918391604051938492839263180981eb60e31b845260048401526024830190612a65565b038183305af18015610468576104585750f35b610461906127c8565b61026f5780f35b6040513d84823e3d90fd5b5050fd5b610480906127c8565b610473578238610415565b6040513d86823e3d90fd5b90508481813d83116104c8575b6104ad818361285f565b810103126104c4576104be90612982565b386103d2565b8680fd5b503d6104a3565b6040513d89823e3d90fd5b5060016103a7565b82819392503d831161051d575b6104f9818361285f565b81010312610519576004916103946105118893612996565b919350610387565b8780fd5b503d6104ef565b6040513d8a823e3d90fd5b92505081813d831161055f575b610546818361285f565b8101031261051957856105598492612982565b3861035b565b503d61053c565b505050fd5b503461026f576020806003193601126107f8576004356001600160401b0381116107f45761059d903690600401612905565b6040516351331ad760e01b81529091906001600160a01b039082816004817f000000000000000000000000000000000000000000000000000000000000000086165afa90811561021f5785916107bf575b508260405180926335d2155560e11b8252336004830152816024958692165afa801561021f578590610785575b61062591506129e7565b61062d6129a3565b835b8351811015610781576106428185612e0e565b51303b156102595760405190630fdc860f60e41b82526004820152600190818482015286808260448183305af1918261076d575b505061070657610684612b1a565b6308c379a0146106a1575b61048b5761069c90612ba9565b61062f565b6106a9612b38565b806106b5575b5061068f565b905061070086916040516106c881612844565b602181527f6578656375746544656372656173654c696d69744f7264657273206572726f7287820152601d60f91b6040820152615854565b386106af565b508061076861071861069c9387612e0e565b5160405161072581612844565b602c81527f6578656375746544656372656173654c696d69744f726465727320636f6d706c878201526b32ba32b2171034b73232bc1d60a11b60408201526157fc565b612ba9565b610776906127c8565b6104c4578638610676565b8480f35b508281813d83116107b8575b61079b818361285f565b810103126107b4576107af61062591612996565b61061b565b8480fd5b503d610791565b90508281813d83116107ed575b6107d6818361285f565b810103126107b4576107e790612982565b386105ee565b503d6107cc565b8280fd5b5080fd5b503461026f5760a036600319011261026f57806001600160401b036004358181116104735761082f903690600401612897565b9060243590811161047357610848903690600401612905565b6040516351331ad760e01b81526001600160a01b03906020907f00000000000000000000000000000000000000000000000000000000000000008316908281600481855afa9081156104cf57849184918991610a65575b506024604051809481936335d2155560e11b8352336004840152165afa80156104cf5783918891610a27575b50916108d86004936129e7565b6108e06129a3565b865186511480610a1f575b6108f490612a28565b604051635ed6d55b60e11b815292839182905afa9182156102645786926109e9575b50501691823b156105665761094892849283604051809681958294631e09986f60e21b84526044359160048501612a99565b03925af18015610468576109d5575b5050303b1561026f5760405163531d87c160e01b815260643560048201528190818160248183305af18015610468576109c1575b5050303b1561026f5760405163bfa5ea9960e01b815260843560048201528190818160248183305af18015610468576104585750f35b6109ca906127c8565b61026f57803861098b565b6109de906127c8565b61026f578038610957565b90809250813d8311610a18575b610a00818361285f565b810103126107b457610a1190612982565b3880610916565b503d6109f6565b5060016108eb565b82819392503d8311610a5e575b610a3e818361285f565b810103126104c4576004916108d8610a568593612996565b9193506108cb565b503d610a34565b92505081813d8311610a95575b610a7c818361285f565b810103126104c45782610a8f8592612982565b3861089f565b503d610a72565b503461026f57610aab36612963565b6040516351331ad760e01b8152602092906001600160a01b039084816004817f000000000000000000000000000000000000000000000000000000000000000086165afa80156102645785918791610b7f575b506024604051809481936335d2155560e11b8352336004840152165afa93841561021f578594610b44575b5050610b376101d8936129e7565b610b3f6129a3565b613277565b90809450813d8311610b78575b610b5b818361285f565b8101031261021457610b37610b726101d894612996565b93610b29565b503d610b51565b82819392503d8311610bae575b610b96818361285f565b8101031261025957610ba88591612982565b38610afe565b503d610b8c565b503461026f57608036600319011261026f576001600160401b036004358181116107f457610be7903690600401612905565b906024359081116107f457610c00903690600401612905565b606435916004831015610214576040516351331ad760e01b81526020816004817f00000000000000000000000000000000000000000000000000000000000000006001600160a01b03165afa90811561021f578591611375575b506040516335d2155560e11b815233600482015290602090829060249082906001600160a01b03165afa801561021f57859061133a575b610c9b91506129e7565b610ca36129a3565b805182510361130257610cdd9260018060a01b03600454166040519485926340b4605b60e11b845260443560048501526024840190612af7565b8160446101609687935afa93841561021f5785946112d3575b5050610140830151156112a05760018060a01b03600554166040840151604051906330a66e1560e01b8252600482015261010081602481855afa90811561026457869161126f575b508251919492610d4d83612880565b92610d5b604051948561285f565b808452610d6a601f1991612880565b01875b81811061121257505060065487946001600160a01b039091169190855b8251871015610ef757610d9d8784612e0e565b519660405197636468402960e11b8952600489015261014088602481885afa978815610eec578b98610eb9575b50610dd5818a612e0e565b5160a089015110610e7457610dea818a612e0e565b51606087015110610e2f57610e0d610e2992610e06838c612e0e565b5190612e38565b97610e188289612e0e565b52610e238188612e0e565b50612ba9565b95610d8a565b60405162461bcd60e51b815260206004820152601860248201527f65786365656473206d617820747261646520616d6f756e7400000000000000006044820152606490fd5b60405162461bcd60e51b815260206004820152601960248201527f41444c2073697a65206578636565647320706f736974696f6e000000000000006044820152606490fd5b610ede9198506101403d61014011610ee5575b610ed6818361285f565b81019061301f565b9638610dca565b503d610ecc565b6040513d8d823e3d90fd5b908884878c9460c0850151036111b85784926101206040860151602460405180948193632f7ce47360e21b835260048301525afa92831561048b57610f85936020928691611187575b5082015160408781015160e0890151915163179a09e360e01b81526001600160a01b039093166004840152602483015215604482015293849190829081906064820190565b03915afa91821561117c578392611145575b50825b81518110156110dc57836020611033610fb38486612e0e565b5160018060a01b03600454169060018060a01b038482015116906040810151906060908782820151151592610fec60a080940151613157565b9460405196610ffa8861280d565b8752898701528160408701528501528a608085015283015260c0820152604051948580948193635b47525960e11b83526004830161321c565b03925af190811561021f5785916110a2575b50303b156107b45760405190630fdc860f60e41b8252600482015260006024820152848160448183305af190811561021f57859161108e575b505061108990612ba9565b610f9a565b611097906127c8565b61021457838761107e565b9450506020843d6020116110d4575b816110be6020938361285f565b810103126110cf5785935187611045565b600080fd5b3d91506110b1565b8360608601516004811015611131578190303b1561112e57604051630fdc860f60e41b8152604435600482015290611118906024830190612af7565b818160448183305af18015610468576104585750f35b50fd5b634e487b7160e01b82526021600452602482fd5b925090506020823d602011611174575b816111626020938361285f565b810103126110cf578391519085610f97565b3d9150611155565b6040513d85823e3d90fd5b6111ab91506101203d610120116111b1575b6111a3818361285f565b810190612e81565b88610f40565b503d611199565b60405162461bcd60e51b815260206004820152602c60248201527f41444c20706f736974696f6e20616d6f756e74206e6f74206d6174636820646560448201526b31b932b0b9b29037b93232b960a11b6064820152608490fd5b60209060409893969851611225816127f1565b8a81528a838201528a60408201528a60608201528a60808201528a60a08201528a60c08201528a60e08201528a6101008201528a6101208201528282880101520196949196610d6d565b61129391506101003d61010011611299575b61128b818361285f565b810190612f0e565b38610d3e565b503d611281565b60405162461bcd60e51b815260206004820152600b60248201526a1b9bc81b9959590810511360aa1b6044820152606490fd5b6112f3929450803d106112fb575b6112eb818361285f565b8101906147ad565b913880610cf6565b503d6112e1565b60405162461bcd60e51b815260206004820152601060248201526f0d8cadccee8d040dcdee840dac2e8c6d60831b6044820152606490fd5b506020813d60201161136d575b816113546020938361285f565b810103126107b457611368610c9b91612996565b610c91565b3d9150611347565b90506020813d6020116113ac575b816113906020938361285f565b810103126107b45760206113a5602492612982565b9150610c5a565b3d9150611383565b503461026f578060031936011261026f576020600154604051908152f35b503461026f578060031936011261026f576020600354604051908152f35b503461026f576020806003193601126107f8576004356001600160401b0381116107f457611422903690600401612905565b6040516351331ad760e01b81526001600160a01b039184919084826004817f000000000000000000000000000000000000000000000000000000000000000088165afa801561117c5784928491611658575b508560405180926335d2155560e11b8252336004830152816024988992165afa801561048b578490611622575b6114ab91506129e7565b6114b36129a3565b735a7D373dbf6090720067Cd9C66d4b40952F1c28d94835b82518110156107815783600654166114e38285612e0e565b519060405191636468402960e11b835260048301526101409182818a81855afa928315610524578893611603575b505085600554169086600454166115288588612e0e565b51928b3b156115ff5761012060405195638545be9160e01b8752805160048801528a89820151168d880152604081015160448801526060810151151560648801526080810151608488015260a081015160a488015260c081015160c488015260e081015160e48801526101008101516101048801520151610124860152306101448601526101648501526101848401526101a48301526101c482015285816101e4818b5af49081156102645786916115eb575b50506115e690612ba9565b6114cb565b6115f4906127c8565b6107b45784386115db565b8980fd5b61161a929350803d10610ee557610ed6818361285f565b903880611511565b508581813d8311611651575b611638818361285f565b810103126102145761164c6114ab91612996565b6114a1565b503d61162e565b809350868092503d8311611689575b611671818361285f565b810103126107f4576116838492612982565b38611474565b503d611667565b503461026f576020806003193601126107f8576040516351331ad760e01b81526001600160a01b03919081816004817f000000000000000000000000000000000000000000000000000000000000000087165afa801561048b5782918591611772575b506024604051809581936335d2155560e11b8352336004840152165afa90811561117c57839161173b575b83611728836129e7565b6117306129a3565b6101d8600435614572565b905081813d831161176b575b611751818361285f565b810103126107f85761176561172891612996565b3861171e565b503d611747565b82819392503d83116117a1575b611789818361285f565b810103126102145761179b8291612982565b386116f3565b503d61177f565b503461026f576020806003193601126107f8576004356117c66129a3565b6040516351331ad760e01b81526001600160a01b039083816004817f000000000000000000000000000000000000000000000000000000000000000086165afa801561021f57849186916118e9575b50602460405180948193637be53ca160e01b8352336004840152165afa90811561048b5784916118b4575b501561187f577fc4f93ed7d82b431d36b3c7670e42f8d5d8f19375008e1ab63c1f63c52e5c3f349160409160035491816003558351928352820152a180f35b60405162461bcd60e51b815260048101839052600d60248201526c37b7363ca837b7b620b236b4b760991b6044820152606490fd5b90508281813d83116118e2575b6118cb818361285f565b81010312610214576118dc90612996565b38611840565b503d6118c1565b82819392503d8311611918575b611900818361285f565b810103126107b4576119128491612982565b38611815565b503d6118f6565b503461026f576020806003193601126107f8576004356001600160401b0381116107f457611951903690600401612905565b6040516351331ad760e01b81529091906001600160a01b039082816004817f000000000000000000000000000000000000000000000000000000000000000086165afa90811561021f578591611b66575b508260405180926335d2155560e11b8252336004830152816024958692165afa801561021f578590611b30575b6119d991506129e7565b6119e16129a3565b835b8351811015610781576119f68185612e0e565b51303b15610259576040519063e70da1b560e01b82526004820152600190818482015286808260448183305af19182611b1c575b5050611aba57611a38612b1a565b6308c379a014611a55575b61048b57611a5090612ba9565b6119e3565b611a5d612b38565b80611a69575b50611a43565b9050611ab48691604051611a7c81612844565b602181527f65786563757465496e6372656173654c696d69744f7264657273206572726f7287820152601d60f91b6040820152615854565b38611a63565b5080610768611acc611a509387612e0e565b51604051611ad981612844565b602c81527f65786563757465496e6372656173654c696d69744f726465727320636f6d706c878201526b32ba32b2171034b73232bc1d60a11b60408201526157fc565b611b25906127c8565b6104c4578638611a2a565b508281813d8311611b5f575b611b46818361285f565b810103126107b457611b5a6119d991612996565b6119cf565b503d611b3c565b90508281813d8311611b94575b611b7d818361285f565b810103126107b457611b8e90612982565b386119a2565b503d611b73565b503461026f578060031960e03682011261112e576001600160401b0360043581811161056657611bcf903690600401612897565b916024358281116107b457611be8903690600401612905565b9160643581811161025957611c01903690600401612905565b9060843590811161025957611c1a903690600401612905565b9360c4359360048510156104c4576040516351331ad760e01b81526001600160a01b03906020907f00000000000000000000000000000000000000000000000000000000000000008316908281600481855afa908115610eec57849184918d91611e37575b506024604051809481936335d2155560e11b8352336004840152165afa8015610eec5783918c91611df5575b5091611cb86004936129e7565b611cc06129a3565b865186511480611ded575b611cd490612a28565b604051635ed6d55b60e11b815292839182905afa918215611de2578a92611da8575b50501691823b1561051957611d2892889283604051809681958294631e09986f60e21b84526044359160048501612a99565b03925af1908115610264578691611d94575b5050303b156107b4578492610445611d81611d7294604051978896879663da9d857b60e01b8852608060048901526084880190612a65565b91868303016024870152612a65565b9160a43560448501526064840190612af7565b611d9d906127c8565b6107b4578438611d3a565b90809250813d8311611ddb575b611dbf818361285f565b81010312611dd757611dd090612982565b3880611cf6565b8880fd5b503d611db5565b6040513d8c823e3d90fd5b506001611ccb565b82819392503d8311611e30575b611e0c818361285f565b81010312611e2c57600491611cb8611e248593612996565b919350611cab565b8a80fd5b503d611e02565b92505081813d8311611e67575b611e4e818361285f565b81010312611e2c5782611e618592612982565b38611c7f565b503d611e44565b503461026f5760a036600319011261026f576001600160401b03906004358281116107f857611ea1903690600401612897565b916024358181116107f457611eba903690600401612905565b60643582811161021457611ed2903690600401612905565b9160843590811161021457611eeb903690600401612905565b6040516351331ad760e01b8152909260209290916001600160a01b03907f00000000000000000000000000000000000000000000000000000000000000008216908581600481855afa90811561052457839187918a91612117575b506024604051809481936335d2155560e11b8352336004840152165afa9081156105245790869189916120d9575b5091611f816004936129e7565b611f896129a3565b8951855114806120d1575b611f9d90612a28565b604051635ed6d55b60e11b815292839182905afa9081156104cf57879161209c575b501690813b1561025957958591611ff19783604051809a81958294631e09986f60e21b84526044359160048501612a99565b03925af1801561048b57612088575b839450303b156105665783612030916040518093819263594c792d60e11b83528660048401526024830190612a65565b038183305af190811561048b578491612074575b5050303b15610473576104459183916040519384928392631df92bbd60e31b845260048401526024830190612a65565b61207d906127c8565b610473578238612044565b929093612094906127c8565b918390612000565b90508481813d83116120ca575b6120b3818361285f565b810103126104c4576120c490612982565b38611fbf565b503d6120a9565b506001611f94565b82819392503d8311612110575b6120f0818361285f565b8101031261051957600491611f816121088893612996565b919350611f74565b503d6120e6565b92505081813d8311612147575b61212e818361285f565b8101031261051957856121418492612982565b38611f46565b503d612124565b503461026f578060031936011261026f576006546040516001600160a01b039091168152602090f35b503461026f578060031936011261026f5760ff60209154166040519015158152f35b503461026f578060031936011261026f576020600254604051908152f35b503461026f576020806003193601126107f8576040516351331ad760e01b81526001600160a01b03919081816004817f000000000000000000000000000000000000000000000000000000000000000087165afa801561048b5782918591612299575b506024604051809581936335d2155560e11b8352336004840152165afa90811561117c578391612262575b8361224f836129e7565b6122576129a3565b6101d8600435612bce565b905081813d8311612292575b612278818361285f565b810103126107f85761228c61224f91612996565b38612245565b503d61226e565b82819392503d83116122c8575b6122b0818361285f565b81010312610214576122c28291612982565b3861221a565b503d6122a6565b503461026f578060031936011261026f576040516351331ad760e01b81526001600160a01b039060209081816004817f000000000000000000000000000000000000000000000000000000000000000087165afa801561048b57829185916123ff575b50602460405180958193630935e01b60e21b8352336004840152165afa91821561117c5783926123a5575b506123887f62e78cea01bee320cd4e420270b5ea74000d11b0c9f74754ebdbfc544b05a25892615784565b6123906129a3565b825460ff19166001178355604051338152a180f35b91508082813d83116123f8575b6123bc818361285f565b810103126107f4576123886123f17f62e78cea01bee320cd4e420270b5ea74000d11b0c9f74754ebdbfc544b05a25893612996565b925061235d565b503d6123b2565b82819392503d831161242e575b612416818361285f565b81010312610214576124288291612982565b38612332565b503d61240c565b503461026f578060031936011261026f576040516351331ad760e01b81526020906001600160a01b039082816004817f000000000000000000000000000000000000000000000000000000000000000086165afa801561048b578391859161257c575b50602460405180948193630935e01b60e21b8352336004840152165afa801561117c578390612546575b6124cc9150615784565b815460ff81161561250a5760ff191682556040513381527f5db9ee0a495bf2e6ff9c91a7834c1ba4fdd244a5e8aa4e537bd38aeae4b073aa9190a180f35b60405162461bcd60e51b815260048101839052601460248201527314185d5cd8589b194e881b9bdd081c185d5cd95960621b6044820152606490fd5b508181813d8311612575575b61255c818361285f565b810103126107f4576125706124cc91612996565b6124c2565b503d612552565b82819392503d83116125ab575b612593818361285f565b81010312610214576125a58391612982565b38612498565b503d612589565b503461026f578060031936011261026f576040517f00000000000000000000000000000000000000000000000000000000000000006001600160a01b03168152602090f35b503461026f578060031936011261026f576005546040516001600160a01b039091168152602090f35b823461026f57602091826003193601126107f8576001600160a01b036004358181169290839003610214576351331ad760e01b815284816004817f000000000000000000000000000000000000000000000000000000000000000086165afa90811561048b57829186918691612791575b506024604051809481936335d2155560e11b8352336004840152165afa90811561048b57918493918693859161274f575b50906126cf6044926129e7565b6126d76129a3565b60065416916040519485938492634850097560e01b845260048401523360248401525af1918215612743578092612713575b5050604051908152f35b9091508282813d831161273c575b61272b818361285f565b8101031261026f5750518280612709565b503d612721565b604051903d90823e3d90fd5b929450509181813d831161278a575b612768818361285f565b810103126102145791604485926126cf6127828796612996565b9192506126c2565b503d61275e565b92505081813d83116127c1575b6127a8818361285f565b8101031261021457846127bb8392612982565b87612691565b503d61279e565b6001600160401b0381116127db57604052565b634e487b7160e01b600052604160045260246000fd5b61014081019081106001600160401b038211176127db57604052565b60e081019081106001600160401b038211176127db57604052565b61012081019081106001600160401b038211176127db57604052565b606081019081106001600160401b038211176127db57604052565b90601f801991011681019081106001600160401b038211176127db57604052565b6001600160401b0381116127db5760051b60200190565b81601f820112156110cf578035916128ae83612880565b926128bc604051948561285f565b808452602092838086019260051b8201019283116110cf578301905b8282106128e6575050505090565b81356001600160a01b03811681036110cf5781529083019083016128d8565b81601f820112156110cf5780359161291c83612880565b9261292a604051948561285f565b808452602092838086019260051b8201019283116110cf578301905b828210612954575050505090565b81358152908301908301612946565b60409060031901126110cf576004359060243560048110156110cf5790565b51906001600160a01b03821682036110cf57565b519081151582036110cf57565b60ff600054166129af57565b60405162461bcd60e51b815260206004820152601060248201526f14185d5cd8589b194e881c185d5cd95960821b6044820152606490fd5b156129ee57565b60405162461bcd60e51b815260206004820152601260248201527137b7363ca837b9b4ba34b7b725b2b2b832b960711b6044820152606490fd5b15612a2f57565b60405162461bcd60e51b815260206004820152600e60248201526d696e76616c696420706172616d7360901b6044820152606490fd5b90815180825260208080930193019160005b828110612a85575050505090565b835185529381019392810192600101612a77565b9392916060850191606086528051809352608086019260208092019060005b818110612ada5750505085830390860152604091612ad591612a65565b930152565b82516001600160a01b031686529483019491830191600101612ab8565b906004821015612b045752565b634e487b7160e01b600052602160045260246000fd5b60009060033d11612b2757565b905060046000803e60005160e01c90565b600060443d10612b9557604051600319913d83016004833e81516001600160401b03918282113d602484011117612b9857818401948551938411612ba0573d85010160208487010111612b985750612b959291016020019061285f565b90565b949350505050565b50949350505050565b6000198114612bb85760010190565b634e487b7160e01b600052601160045260246000fd5b600180549060018060a01b03906004908282541691604095865180946386249bab60e01b8252818460209788935afa908115612e0357600091612dd6575b5080871015612dcc57808211612dc4575b50945b858110612c305750505050505050565b303b156110cf57865163e70da1b560e01b81528183820152602490600082820152604490600081838183305af19081612db5575b50612d5d578491612c73612b1a565b6308c379a014612c9d575b5050612c9257612c8d90612ba9565b612c20565b86513d6000823e3d90fd5b612ca5612b38565b9182612cb2575b50612c7e565b90919250612cff6000938b51612cc781612844565b602281527f65786563757465496e6372656173654d61726b65744f7264657273206572726f8a82015261391d60f11b8d820152615854565b8785541690813b15610214576064868580948a8f95838b9751998a98899763c250985960e01b89528801528601528401525af18015612d5357612d44575b8080612cac565b612d4d906127c8565b38612d3d565b89513d84823e3d90fd5b505080610768612c8d928951612d7281612844565b602d81527f65786563757465496e6372656173654d61726b65744f726465727320636f6d70888201526c3632ba32b2171034b73232bc1d60991b8b8201526157fc565b612dbe906127c8565b38612c64565b905038612c1d565b5050505050505050565b908582813d8311612dfc575b612dec818361285f565b8101031261026f57505138612c0c565b503d612de2565b88513d6000823e3d90fd5b8051821015612e225760209160051b010190565b634e487b7160e01b600052603260045260246000fd5b91908201809211612bb857565b15612e4c57565b60405162461bcd60e51b815260206004820152600d60248201526c1bdc99195c88195e1c1a5c9959609a1b6044820152606490fd5b90816101209103126110cf5760405190612e9a82612828565b80518252612eaa60208201612982565b6020830152612ebb60408201612982565b6040830152612ecc60608201612982565b6060830152612edd60808201612996565b608083015260a081015160a083015260c081015160c083015260e081015160e0830152610100809101519082015290565b809161010092839103126110cf57604051918201908282106001600160401b038311176127db5760e091604052805183526020810151602084015260408101516040840152606081015160608401526080810151608084015260a081015160a084015260c081015160c0840152015160e082015290565b15612f8c57565b60405162461bcd60e51b8152602060048201526012602482015271696e76616c69642074726164652073697a6560701b6044820152606490fd5b15612fcd57565b60405162461bcd60e51b815260206004820152601760248201527f6e6f7420726561636820747269676765722070726963650000000000000000006044820152606490fd5b91908203918211612bb857565b90816101409103126110cf5760405190613038826127f1565b8051825261304860208201612982565b60208301526040810151604083015261306360608201612996565b60608301526080810151608083015260a081015160a083015260c081015160c083015260e081015160e08301526101008082015190830152610120809101519082015290565b908160c09103126110cf576040519060c08201908282106001600160401b038311176127db5760a0916040528051835260208101516020840152604081015160408401526060810151606084015260808101516080840152015160a082015290565b1561311257565b60405162461bcd60e51b815260206004820152601a60248201527f6c7020737461626c6520746f6b656e206e6f7420656e6f7567680000000000006044820152606490fd5b600160ff1b8114612bb85760000390565b1561316f57565b60405162461bcd60e51b815260206004820152601960248201527f6c7020696e64657820746f6b656e206e6f7420656e6f756768000000000000006044820152606490fd5b6004821015612b045752565b91909160c08060e083019460018060a01b0381511684526020810151602085015260408101511515604085015260608101511515606085015261320b60808201516080860190612af7565b60a081015160a08501520151910152565b81516001600160a01b031681526020808301519082015260408083015160e08301949360c092839261325091860190612af7565b606081015160608501526080810151608085015260a0810151151560a08501520151910152565b6004549060446101206000936040519283809263f9d244fd60e01b82528660048301526132a7602483018a612af7565b6001600160a01b03165afa90811561117c578391613fec575b5060208101516001600160a01b031615613fe6576004841015613fd2578315613fb0575b60408101519160018060a01b036005541691604051632f7ce47360e21b815284600482015261012081602481875afa908115610264578691613f8f575b50608081015115613f4a576006546020838101516040516372c1cc1b60e11b81526001600160a01b0391821660048201529216919081602481855afa908115610524578891613f10575b50613ed7576040516330a66e1560e01b8152600481018790529461010086602481845afa958615610524578896613eb4575b506133b660e08501518015908115613e8e575b50612f85565b60208381015160c086015160405163179a09e360e01b81526001600160a01b039092166004830152602482018a905215156044820152969087606481865afa968715613cdc578997613e5a575b508660608601516004811015613dc057158015613e43575b15613e145760c086015115613de85760c08201516127108082810311613dd4576134569161344a9103836143a6565b60a08801511015612fc6565b60608601516004811015613dc057600114613d75575b50602085015160408087015160c0880151915163bc95baad60e01b81526001600160a01b0390931660048401526024830152151560448201529061014082606481875afa918215611de257906134f292918b92613d52575b506134d38960e089015161444b565b50608087015160e08801518251918b60806020860151950151956140dc565b5015613d165760c060249160405192838092632500ed8d60e21b82528b60048301525afa908115610524578891613ce7575b506040840151604051906301fd38f760e01b82526004820152602081602481865afa908115613cdc578991613caa575b50888112613c485760c085015115613c0c575061357b816020613587935191015190613012565b60e08501511115613168565b608083015191878313613b8e575b50506006546020830151608084015160e085015160c0860151604080516325584bd760e21b81523260048201526001600160a01b039586166024820152604481018c905260648101949094526084840192909252151560a483015260c482018890529097935091879160e49183918b91165af19586156127435780958197613b53575b5060018060a01b036004541660018060a01b03602085015116604085015160c086015115156060870151906004821015613b3f57906136809160e089015193604051956136648761280d565b86526020860152604085015260016060850152608084016131b4565b8660a083015260c0820152813b156107f4576136b583928392604051948580948193632670e98d60e01b8352600483016131c0565b03925af1801561046857908291613b2b575b505060608301516004811015611131576040516020810191600160f81b835260f81b60218201528560228201526022815261370181612844565b51902060048054604051631995c72560e01b81529182018390526001600160a01b0316608082602481845afa91821561048b579084918293613ab2575b506020830151806139ee575b505090606081015180613927575b50506004546001600160a01b0316919050813b156107f457829160248392604051948593849263eea0bfab60e01b845260048401525af1801561046857908291613913575b505087613883576004546001600160a01b0316803b156107f857818091602460405180948193633e5005e560e01b83528a60048401525af180156104685761386f575b5050916101409593917f462ad18c79032b6336d456416b46e1012c8ed1c03cd3ff073957ae8834539e729795935b61384c60018060a01b036020840151169760808401519260e060c08601511515950151956040519a8b5260208b015260408a01526060890190612af7565b608087015260a086015260c085015260e0840152610100830152610120820152a1565b61387982916127c8565b61026f57806137e0565b600188146138bd575b50916101409593917f462ad18c79032b6336d456416b46e1012c8ed1c03cd3ff073957ae8834539e7297959361380e565b6004546001600160a01b0316803b156107f85781809160246040518094819363121494ed60e31b83528a60048401525af18015610468576138ff575b5061388c565b61390982916127c8565b61026f57806138f9565b61391c906127c8565b61026f57803861379d565b6020916139ac9160018060a01b03600454169160018060a01b03858b015116916040808c015192015161396060c08d0151151592613157565b926040519461396e8661280d565b85528785015260036040850152876060850152608084015260a083015260c0820152604051948580948193635b47525960e11b83526004830161321c565b03925af1801561117c576139c3575b808391613758565b602090813d83116139e7575b6139d9818361285f565b810103126110cf57386139bb565b503d6139cf565b602091613a679160018060a01b03848b0151169060408b0151908b613a1b60c08a51920151151592613157565b9260405194613a298661280d565b85528785015260026040850152876060850152608084015260a083015260c0820152604051948580948193635b47525960e11b83526004830161321c565b03925af1801561048b5790849291613a83575b8092919261374a565b6020809293503d8311613aab575b613a9b818361285f565b810103126110cf57829038613a7a565b503d613a91565b915091506080813d608011613b23575b81613acf6080938361285f565b81010312610214576040518060808101106001600160401b036080830111176127db57606085926080830160405280518352602081015160208401526040810151604084015201516060820152913861373e565b3d9150613ac2565b613b34906127c8565b61026f5780386136c7565b634e487b7160e01b86526021600452602486fd5b955095506040853d604011613b86575b81613b706040938361285f565b8101031261025957602085519501519538613618565b3d9150613b63565b604001516001600160a01b031691613ba590614099565b91813b1561051957604051630d172a0160e01b81526001600160a01b0391821660048201529082166024820152604481019290925286908290606490829084905af1801561026457613bf9575b8080613595565b613c05909591956127c8565b9338613bf2565b613c3c613c268360606040613c4396015191015190613012565b91613c368960e0890151946144c9565b90612e38565b101561310b565b613587565b60c085015115613c8357613c7c613c69836020613c43955191015190613012565b613c7760e088015193613157565b612e38565b1015613168565b50613c9b8160606040613c4394015191015190613012565b613c3c8760e0870151926144c9565b90506020813d602011613cd4575b81613cc56020938361285f565b81010312611dd7575138613554565b3d9150613cb8565b6040513d8b823e3d90fd5b613d09915060c03d60c011613d0f575b613d01818361285f565b8101906130a9565b38613524565b503d613cf7565b60405162461bcd60e51b81526020600482015260146024820152731e995c9bc81c1bdcda5d1a5bdb88185b5bdd5b9d60621b6044820152606490fd5b613d6e9192506101403d61014011610ee557610ed6818361285f565b90386134c4565b60c086015191979115613da2575060a08501519080821015613d9b57505b955b3861346c565b9050613d93565b60a0860151915080821115613db957505b95613d95565b9050613db3565b634e487b7160e01b8b52602160045260248bfd5b634e487b7160e01b8c52601160045260248cfd5b60c08201516127108181018111613dd45761345691613e089101836143a6565b60a08801511115612fc6565b60c086015115613e3357613e2e60a0870151821015612fc6565b613456565b613e2e60a0870151821115612fc6565b5060608601516004811015613dc05760011461341b565b9096506020813d602011613e86575b81613e766020938361285f565b81010312611dd757519538613403565b3d9150613e69565b6040890151811015915081613ea5575b50386133b0565b90506060880151101538613e9e565b613ed09196506101003d610100116112995761128b818361285f565b943861339d565b60405162461bcd60e51b815260206004820152601160248201527030b1b1b7bab73a1034b990333937bd32b760791b6044820152606490fd5b90506020813d602011613f42575b81613f2b6020938361285f565b8101031261051957613f3c90612996565b3861336b565b3d9150613f1e565b60405162461bcd60e51b815260206004820152601860248201527f74726164652070616972206e6f7420737570706f7274656400000000000000006044820152606490fd5b613faa91506101203d610120116111b1576111a3818361285f565b38613321565b613fcd613fc561010083015160035490612e38565b421115612e45565b6132e4565b634e487b7160e01b83526021600452602483fd5b50505050565b9050610120813d61012011614091575b8161400a610120938361285f565b810103126107f4576040519061401f82612828565b8051825261402f60208201612982565b602083015260408101516040830152606081015160048110156107b45760608301526080810151608083015260a081015160a083015261407160c08201612996565b60c083015260e081015160e08301526101008091015190820152386132c0565b3d9150613ffc565b600081126140a45790565b612b9590613157565b91909160008382019384129112908015821691151617612bb857565b81810292918115918404141715612bb857565b949196959390926140f18160a0880151612e38565b97881561429e576141069060808801516140ad565b956000871261424e5781614230575b5050600085126141eb5761413a906141358461413088614099565b6144c9565b6140c9565b86101591826141cf575b50501561419557831161415a57612b9590614099565b60405162461bcd60e51b815260206004820152601360248201527232bc31b2b2b21036b0bc103837b9b4ba34b7b760691b6044820152606490fd5b60405162461bcd60e51b81526020600482015260126024820152711b195d995c9859d9481a5b98dbdc9c9958dd60721b6044820152606490fd5b6141e192506141359061413086614099565b8411153880614144565b60405162461bcd60e51b815260206004820152601d60248201527f636f6c6c61746572616c206e6f7420656e6f75676820666f7220706e6c0000006044820152606490fd5b8461424693979261424092614312565b906140ad565b933880614115565b60405162461bcd60e51b815260206004820152602260248201527f636f6c6c61746572616c206e6f7420656e6f75676820666f7220646563726561604482015261736560f01b6064820152608490fd5b505050505050509050600090600090565b9491969593909260a08601818151106142cd57816140f19151613012565b60405162461bcd60e51b815260206004820152601f60248201527f646563726561736520616d6f756e742065786365656420706f736974696f6e006044820152606490fd5b60c0810190815190818514801561439e575b61439457606001511561436a57508051808411156143525750612b959261434c915190613012565b9061444b565b614365929150612b959361434c91613012565b613157565b838111156143815750612b959261434c9151613012565b61436592915061434c90612b9594613012565b5050505050600090565b508115614324565b9060001981830981830291828083109203918083039214614440576127109082821115614403577fbc01a36e2eb1c432ca57a786c226809d495182a9930be0ded288ce703afb7e91940990828211900360fc1b910360041c170290565b60405162461bcd60e51b81526020600482015260156024820152744d6174683a206d756c446976206f766572666c6f7760581b6044820152606490fd5b505061271091500490565b90600019818309818302918280831092039180830392146144b3576c0c9f2c9cd04674edea400000009082821115614403577f7d33c22789773a07feda8b6f0930e26fa397c439f1d5cf4b2eb27d7306d2dc99940990828211900360e21b9103601e1c170290565b50506c0c9f2c9cd04674edea4000000091500490565b906c0c9f2c9cd04674edea4000000090600019828409928281029283808610950394808603951461454e5784831115614403578291096001821901821680920460028082600302188083028203028083028203028083028203028083028203028083028203028092029003029360018380600003040190848311900302920304170290565b50508092501561455c570490565b634e487b7160e01b600052601260045260246000fd5b60025460018060a01b036004818154169060409485518093631ca37ea160e11b8252818460209687935afa9081156147a257600091614775575b508086101561476c57808211614764575b50935b8481106145cf57505050505050565b303b156110cf578551630fdc860f60e41b81528183820152602490600082820152604490600081838183305af19081614755575b506146fd57600191614613612b1a565b6308c379a01461463d575b50506146325761462d90612ba9565b6145c0565b85513d6000823e3d90fd5b614645612b38565b9182614652575b5061461e565b9091925061469f6000938a5161466781612844565b602281527f6578656375746544656372656173654d61726b65744f7264657273206572726f8982015261391d60f11b8c820152615854565b8685541690813b15610214576064868580948189958f829051998a98899763c250985960e01b89528801528601528401525af180156146f3576146e4575b808061464c565b6146ed906127c8565b386146dd565b88513d84823e3d90fd5b50508061076861462d92885161471281612844565b602d81527f6578656375746544656372656173654d61726b65744f726465727320636f6d70878201526c3632ba32b2171034b73232bc1d60991b8a8201526157fc565b61475e906127c8565b38614603565b9050386145bd565b50505050505050565b908482813d831161479b575b61478b818361285f565b8101031261026f575051386145ac565b503d614781565b87513d6000823e3d90fd5b809161016092839103126110cf576040519182018281106001600160401b038211176127db57604052805182526147e660208201612982565b602083015260408101516040830152606081015160048110156110cf5760608301526080810151608083015260a081015160a083015260c081015160c083015261483260e08201612996565b60e0830152610100614845818301612996565b908301526101208082015190830152614862610140809201612996565b9082015290565b600454600061488f604051946340b4605b60e11b86528460048701526024860190612af7565b610160846044816001600160a01b0386165afa938415615777578194615754575b5060208401516001600160a01b031615613fe65760608401516004811015611131571561573a575b6040848101516005549151632f7ce47360e21b81526004810182905290956001600160a01b039092169361012082602481885afa91821561048b578492615717575b50600654602084015160408086015160e0870151915163bc95baad60e01b81526001600160a01b039384166004820152602481019190915290151560448201529691169061014087606481855afa9687156102645786976156f4575b5060a0870151156156e9576040516330a66e1560e01b8152600481018a90529361010085602481855afa9485156104cf5787956156c6575b506149dd60c087015160a08a01518082106000146156bf57505b8060c0890152801590811561569a5750612f85565b60209081015160e087015160405163179a09e360e01b81526001600160a01b039092166004830152602482018c905215156044820152949085606481865afa9485156104cf578795615666575b5084606087015160048110156155cb5715801561564f575b1561561f57610100870151156155f35760c082015161271080828103116155df57614a7e91614a729103836143a6565b60a08901511015612fc6565b606087015160048110156155cb579060018a939214615570575b5091614ace60c092602494614ab089868c015161444b565b5060808a0151858b01518251918b60806020860151950151956142af565b505060405192838092632500ed8d60e21b82528d60048301525afa908115610264578691615551575b50602060408601516024604051809581936301fd38f760e01b835260048301525afa91821561026457869261551d575b508582126154ce5760e085015161549f57614b4a91506020815191015190613012565b60c08401511190815b61537c5750508260808301511361528c575b6006546020830151608084015160c085015160e086015160405163cf2003bd60e01b81523260048201526001600160a01b039485166024820152604481018c905260648101939093526084830191909152151560a482015260c481018490529691606091889160e49183918991165af192831561048b57849585978695615246575b5060608201516004811015614df55761510357506004546001600160a01b0316803b156102595785809160246040518094819363be82e5b160e01b83528860048401525af18015610264579086916150ef575b50505b60018060a01b036004541660018060a01b03602083015116604083015160e08401511515606085015160048110156150db57614ca49086519260c08801519460405196614c898861280d565b8752602087015260408601528a6060860152608085016131b4565b60a083015260c0820152813b156104c457614cd887928392604051948580948193632670e98d60e01b8352600483016131c0565b03925af18015610264579086916150c7575b5050600654602082015160408084015160e0850151915163bc95baad60e01b81526001600160a01b03938416600482015260248101919091529015156044820152916101409183916064918391165afa908115610264579060a09187916150a6575b50015115614e09575b602081015160608201516001600160a01b03909116986004821015614df55791614dcc7f9b4ff42a2fc7960edd49c603150f69894e46d386129c040ae7519a427fee06139a989694926101609a98969460c060e08501511515940151946040519b8c5260208c015260408b015260608a0190612af7565b608088015260a087015260c086015260e0850152610100840152610120830152610140820152a1565b634e487b7160e01b87526021600452602487fd5b9693979491602088979492970151604089015160e08a015115156040519160208301936bffffffffffffffffffffffff199060601b168452603483015260f81b605482015260358152614e5b81612844565b519020968960018060a01b0360045416986024604051809b8193634cc42b5160e01b835260048301525afa978815611de2578a98614f69575b50895b8851811015614f5a57614eaa818a612e0e565b51606081015115614ec5575b50614ec090612ba9565b614e97565b60018060a01b036004541690608060a08201519101516004811015614f46579082918e933b15610214576064849283614f1995604051968795869463c250985960e01b865260048601526024850190612af7565b8160448401525af1801561046857614f32575b50614eb6565b614f3b906127c8565b611e2c578a38614f2c565b634e487b7160e01b8e52602160045260248efd5b50919396509194979396614d55565b9097503d808b833e614f7b818361285f565b6020828281010312611e2c578151906001600160401b0382116150a257808301601f8385010112156150a2578183015190614fb582612880565b93614fc3604051958661285f565b8285526020850193828201602060e0860283850101011161509e5793602085830101945b602060e0860282850101018610615005575050505050509638614e94565b60e086858501031261509a576040519161501e8361280d565b61502787612982565b83526020870151602084015261503f60408801612996565b604084015261505060608801612996565b6060840152608087015192600484101561509457602060e09282829660808695015260a08b015160a082015260c08b015160c0820152815201970196925050614fe7565b50508f80fd5b8f80fd5b8e80fd5b8b80fd5b6150c191506101403d61014011610ee557610ed6818361285f565b38614d4c565b6150d0906127c8565b6107b4578438614cea565b634e487b7160e01b8a52602160045260248afd5b6150f8906127c8565b6107b4578438614c3a565b60608201516004811015614df55760010361517357506004546001600160a01b0316803b15610259578580916024604051809481936304d3cb8160e41b83528860048401525af180156102645790869161515f575b5050614c3d565b615168906127c8565b6107b4578438615158565b60018060a01b03600454169051606083015191600483101561523257803b15610519579160648892836151c1956040519687958694634136de9f60e01b865260048601526024850190612af7565b8160448401525af180156102645790869161521e575b50506004546001600160a01b0316803b15610259578580916024604051809481936304d3cb8160e41b83528860048401525af180156102645790869161515f575050614c3d565b615227906127c8565b6107b45784386151d7565b634e487b7160e01b88526021600452602488fd5b9650935095506060853d606011615284575b816152656060938361285f565b8101031261021457845195604060208701519601519695969338614be7565b3d9150615258565b60018060a01b0360055416604085015160405190632f7ce47360e21b8252600482015261012081602481855afa90811561021f57859161535b575b5060065460409091015160808501516001600160a01b03918216939290911691906152f190614099565b92823b156104c457604051630d172a0160e01b81526001600160a01b03918216600482015291166024820152604481019290925284908290606490829084905af1801561048b57908491615347575b5050614b65565b615350906127c8565b6107f4578238615340565b61537691506101203d610120116111b1576111a3818361285f565b386152c7565b9094506060839294969301516004811015614df5576001600160a01b0382163b156104c4576153cb6064889283604051958694859363c1872cf360e01b85528a60048601526024850190612af7565b8a151560448401526001600160a01b03165af180156102645761548c575b50602081015160608201516001600160a01b03909116966004821015614df5579161545f7f9b4ff42a2fc7960edd49c603150f69894e46d386129c040ae7519a427fee06139896949261016098969460c060e0850151151594015194604051998a5260208a015260408901526060880190612af7565b608086015260a085015260c08401528160e0840152151561010083015280610120830152610140820152a1565b615498909591956127c8565b93386153e9565b6154b681606060406154c694015191015190613012565b91613c368560c0880151946144c9565b109081614b53565b60e08501516154f9576154eb8160206154c6935191015190613012565b613c7760c087015193613157565b61550e91506060604082015191015190613012565b6154c68360c0860151926144c9565b9091506020813d602011615549575b816155396020938361285f565b8101031261025957519038614b27565b3d915061552c565b61556a915060c03d60c011613d0f57613d01818361285f565b38614af7565b60c0926024949297614ace9260e08b0151156000146155ad575060a08a015190808210156155a657505b975b9294509250614a98565b905061559a565b60a08b01519150808211156155c457505b9761559c565b90506155be565b634e487b7160e01b89526021600452602489fd5b634e487b7160e01b8a52601160045260248afd5b60c082015161271081810181116155df57614a7e916156139101836143a6565b60a08901511115612fc6565b6101008701511561563f5761563a60a0880151821115612fc6565b614a7e565b61563a60a0880151821015612fc6565b50606087015160048110156155cb57600114614a42565b9094506020813d602011615692575b816156826020938361285f565b810103126104c457519338614a2a565b3d9150615675565b60408801518110159150816156b05750386133b0565b90506060870151101538613e9e565b90506149c8565b6156e29195506101003d610100116112995761128b818361285f565b93386149ae565b505050505050505050565b6157109197506101403d61014011610ee557610ed6818361285f565b9538614976565b6157339192506101203d610120116111b1576111a3818361285f565b903861491a565b61574f613fc561012086015160035490612e38565b6148d8565b6157709194506101603d610160116112fb576112eb818361285f565b92386148b0565b50604051903d90823e3d90fd5b1561578b57565b60405162461bcd60e51b815260206004820152600960248201526837b7363ca0b236b4b760b91b6044820152606490fd5b919082519283825260005b8481106157e8575050826000602080949584010152601f8019910116010190565b6020818301810151848301820152016157c7565b600091908291615841604051809261582d6020830195632d839cb360e21b87526040602485015260648401906157bc565b90604483015203601f19810183528261285f565b51906a636f6e736f6c652e6c6f675afa50565b6000919061589b61584184936040519283916158896020840196634b5c427760e01b88526040602486015260648501906157bc565b838103602319016044850152906157bc565b03601f19810183528261285f56fea264697066735822122018709ff69cae5d7a7a788d5ac371ccf4a34c33a5c5c538a393f1cee22eb2532f64736f6c63430008110033",
  "deployedBytecode": "0x608080604052600436101561001357600080fd5b600090813560e01c90816303897a95146126205750806316f0115b146125f75780631848effa146125b2578063349fdb091461243557806337a66d85146122cf578063531d87c1146121b75780635be766c3146121995780635c975abb14612177578063791b98bc1461214e578063a776034014611e6e578063afb566e414611b9b578063b298f25a1461191f578063be39f3aa146117a8578063bfa5ea9914611690578063c04c0f58146113f0578063cb0269c9146113d2578063d4053f7b146113b4578063da9d857b14610bb5578063e70da1b514610a9c578063ef09314a146107fc578063efc95de81461056b578063f2ac5dfe1461029b578063f9b6117f146102725763fdc860f01461012957600080fd5b3461026f5761013736612963565b6040516351331ad760e01b81526001600160a01b03929060209081816004817f000000000000000000000000000000000000000000000000000000000000000089165afa8015610264578291879161022a575b506024604051809781936335d2155560e11b8352336004840152165afa90811561021f5785916101e4575b506101d8935080156101db575b6101cb906129e7565b6101d36129a3565b614869565b80f35b503330146101c2565b905083813d8311610218575b6101fa818361285f565b810103126102145761020e6101d893612996565b386101b5565b8380fd5b503d6101f0565b6040513d87823e3d90fd5b82819392503d831161025d575b610241818361285f565b81010312610259576102538291612982565b3861018a565b8580fd5b503d610237565b6040513d88823e3d90fd5b80fd5b503461026f578060031936011261026f576004546040516001600160a01b039091168152602090f35b503461026f57608036600319011261026f57806001600160401b03600435818111610473576102ce903690600401612897565b90602435818111610566576102e7903690600401612905565b9060643590811161056657610300903690600401612905565b6040516351331ad760e01b8152909260209290916001600160a01b03907f00000000000000000000000000000000000000000000000000000000000000008216908581600481855afa90811561052457839187918a9161052f575b506024604051809481936335d2155560e11b8352336004840152165afa801561052457869189916104e2575b50916103946004936129e7565b61039c6129a3565b8551855114806104da575b6103b090612a28565b604051635ed6d55b60e11b815292839182905afa9081156104cf578791610496575b501691823b156102595761040392869283604051809681958294631e09986f60e21b84526044359160048501612a99565b03925af190811561048b578491610477575b5050303b1561047357610445918391604051938492839263180981eb60e31b845260048401526024830190612a65565b038183305af18015610468576104585750f35b610461906127c8565b61026f5780f35b6040513d84823e3d90fd5b5050fd5b610480906127c8565b610473578238610415565b6040513d86823e3d90fd5b90508481813d83116104c8575b6104ad818361285f565b810103126104c4576104be90612982565b386103d2565b8680fd5b503d6104a3565b6040513d89823e3d90fd5b5060016103a7565b82819392503d831161051d575b6104f9818361285f565b81010312610519576004916103946105118893612996565b919350610387565b8780fd5b503d6104ef565b6040513d8a823e3d90fd5b92505081813d831161055f575b610546818361285f565b8101031261051957856105598492612982565b3861035b565b503d61053c565b505050fd5b503461026f576020806003193601126107f8576004356001600160401b0381116107f45761059d903690600401612905565b6040516351331ad760e01b81529091906001600160a01b039082816004817f000000000000000000000000000000000000000000000000000000000000000086165afa90811561021f5785916107bf575b508260405180926335d2155560e11b8252336004830152816024958692165afa801561021f578590610785575b61062591506129e7565b61062d6129a3565b835b8351811015610781576106428185612e0e565b51303b156102595760405190630fdc860f60e41b82526004820152600190818482015286808260448183305af1918261076d575b505061070657610684612b1a565b6308c379a0146106a1575b61048b5761069c90612ba9565b61062f565b6106a9612b38565b806106b5575b5061068f565b905061070086916040516106c881612844565b602181527f6578656375746544656372656173654c696d69744f7264657273206572726f7287820152601d60f91b6040820152615854565b386106af565b508061076861071861069c9387612e0e565b5160405161072581612844565b602c81527f6578656375746544656372656173654c696d69744f726465727320636f6d706c878201526b32ba32b2171034b73232bc1d60a11b60408201526157fc565b612ba9565b610776906127c8565b6104c4578638610676565b8480f35b508281813d83116107b8575b61079b818361285f565b810103126107b4576107af61062591612996565b61061b565b8480fd5b503d610791565b90508281813d83116107ed575b6107d6818361285f565b810103126107b4576107e790612982565b386105ee565b503d6107cc565b8280fd5b5080fd5b503461026f5760a036600319011261026f57806001600160401b036004358181116104735761082f903690600401612897565b9060243590811161047357610848903690600401612905565b6040516351331ad760e01b81526001600160a01b03906020907f00000000000000000000000000000000000000000000000000000000000000008316908281600481855afa9081156104cf57849184918991610a65575b506024604051809481936335d2155560e11b8352336004840152165afa80156104cf5783918891610a27575b50916108d86004936129e7565b6108e06129a3565b865186511480610a1f575b6108f490612a28565b604051635ed6d55b60e11b815292839182905afa9182156102645786926109e9575b50501691823b156105665761094892849283604051809681958294631e09986f60e21b84526044359160048501612a99565b03925af18015610468576109d5575b5050303b1561026f5760405163531d87c160e01b815260643560048201528190818160248183305af18015610468576109c1575b5050303b1561026f5760405163bfa5ea9960e01b815260843560048201528190818160248183305af18015610468576104585750f35b6109ca906127c8565b61026f57803861098b565b6109de906127c8565b61026f578038610957565b90809250813d8311610a18575b610a00818361285f565b810103126107b457610a1190612982565b3880610916565b503d6109f6565b5060016108eb565b82819392503d8311610a5e575b610a3e818361285f565b810103126104c4576004916108d8610a568593612996565b9193506108cb565b503d610a34565b92505081813d8311610a95575b610a7c818361285f565b810103126104c45782610a8f8592612982565b3861089f565b503d610a72565b503461026f57610aab36612963565b6040516351331ad760e01b8152602092906001600160a01b039084816004817f000000000000000000000000000000000000000000000000000000000000000086165afa80156102645785918791610b7f575b506024604051809481936335d2155560e11b8352336004840152165afa93841561021f578594610b44575b5050610b376101d8936129e7565b610b3f6129a3565b613277565b90809450813d8311610b78575b610b5b818361285f565b8101031261021457610b37610b726101d894612996565b93610b29565b503d610b51565b82819392503d8311610bae575b610b96818361285f565b8101031261025957610ba88591612982565b38610afe565b503d610b8c565b503461026f57608036600319011261026f576001600160401b036004358181116107f457610be7903690600401612905565b906024359081116107f457610c00903690600401612905565b606435916004831015610214576040516351331ad760e01b81526020816004817f00000000000000000000000000000000000000000000000000000000000000006001600160a01b03165afa90811561021f578591611375575b506040516335d2155560e11b815233600482015290602090829060249082906001600160a01b03165afa801561021f57859061133a575b610c9b91506129e7565b610ca36129a3565b805182510361130257610cdd9260018060a01b03600454166040519485926340b4605b60e11b845260443560048501526024840190612af7565b8160446101609687935afa93841561021f5785946112d3575b5050610140830151156112a05760018060a01b03600554166040840151604051906330a66e1560e01b8252600482015261010081602481855afa90811561026457869161126f575b508251919492610d4d83612880565b92610d5b604051948561285f565b808452610d6a601f1991612880565b01875b81811061121257505060065487946001600160a01b039091169190855b8251871015610ef757610d9d8784612e0e565b519660405197636468402960e11b8952600489015261014088602481885afa978815610eec578b98610eb9575b50610dd5818a612e0e565b5160a089015110610e7457610dea818a612e0e565b51606087015110610e2f57610e0d610e2992610e06838c612e0e565b5190612e38565b97610e188289612e0e565b52610e238188612e0e565b50612ba9565b95610d8a565b60405162461bcd60e51b815260206004820152601860248201527f65786365656473206d617820747261646520616d6f756e7400000000000000006044820152606490fd5b60405162461bcd60e51b815260206004820152601960248201527f41444c2073697a65206578636565647320706f736974696f6e000000000000006044820152606490fd5b610ede9198506101403d61014011610ee5575b610ed6818361285f565b81019061301f565b9638610dca565b503d610ecc565b6040513d8d823e3d90fd5b908884878c9460c0850151036111b85784926101206040860151602460405180948193632f7ce47360e21b835260048301525afa92831561048b57610f85936020928691611187575b5082015160408781015160e0890151915163179a09e360e01b81526001600160a01b039093166004840152602483015215604482015293849190829081906064820190565b03915afa91821561117c578392611145575b50825b81518110156110dc57836020611033610fb38486612e0e565b5160018060a01b03600454169060018060a01b038482015116906040810151906060908782820151151592610fec60a080940151613157565b9460405196610ffa8861280d565b8752898701528160408701528501528a608085015283015260c0820152604051948580948193635b47525960e11b83526004830161321c565b03925af190811561021f5785916110a2575b50303b156107b45760405190630fdc860f60e41b8252600482015260006024820152848160448183305af190811561021f57859161108e575b505061108990612ba9565b610f9a565b611097906127c8565b61021457838761107e565b9450506020843d6020116110d4575b816110be6020938361285f565b810103126110cf5785935187611045565b600080fd5b3d91506110b1565b8360608601516004811015611131578190303b1561112e57604051630fdc860f60e41b8152604435600482015290611118906024830190612af7565b818160448183305af18015610468576104585750f35b50fd5b634e487b7160e01b82526021600452602482fd5b925090506020823d602011611174575b816111626020938361285f565b810103126110cf578391519085610f97565b3d9150611155565b6040513d85823e3d90fd5b6111ab91506101203d610120116111b1575b6111a3818361285f565b810190612e81565b88610f40565b503d611199565b60405162461bcd60e51b815260206004820152602c60248201527f41444c20706f736974696f6e20616d6f756e74206e6f74206d6174636820646560448201526b31b932b0b9b29037b93232b960a11b6064820152608490fd5b60209060409893969851611225816127f1565b8a81528a838201528a60408201528a60608201528a60808201528a60a08201528a60c08201528a60e08201528a6101008201528a6101208201528282880101520196949196610d6d565b61129391506101003d61010011611299575b61128b818361285f565b810190612f0e565b38610d3e565b503d611281565b60405162461bcd60e51b815260206004820152600b60248201526a1b9bc81b9959590810511360aa1b6044820152606490fd5b6112f3929450803d106112fb575b6112eb818361285f565b8101906147ad565b913880610cf6565b503d6112e1565b60405162461bcd60e51b815260206004820152601060248201526f0d8cadccee8d040dcdee840dac2e8c6d60831b6044820152606490fd5b506020813d60201161136d575b816113546020938361285f565b810103126107b457611368610c9b91612996565b610c91565b3d9150611347565b90506020813d6020116113ac575b816113906020938361285f565b810103126107b45760206113a5602492612982565b9150610c5a565b3d9150611383565b503461026f578060031936011261026f576020600154604051908152f35b503461026f578060031936011261026f576020600354604051908152f35b503461026f576020806003193601126107f8576004356001600160401b0381116107f457611422903690600401612905565b6040516351331ad760e01b81526001600160a01b039184919084826004817f000000000000000000000000000000000000000000000000000000000000000088165afa801561117c5784928491611658575b508560405180926335d2155560e11b8252336004830152816024988992165afa801561048b578490611622575b6114ab91506129e7565b6114b36129a3565b73__$1ee2e980a3520e4a8a3e6e6271a4f49a3f$__94835b82518110156107815783600654166114e38285612e0e565b519060405191636468402960e11b835260048301526101409182818a81855afa928315610524578893611603575b505085600554169086600454166115288588612e0e565b51928b3b156115ff5761012060405195638545be9160e01b8752805160048801528a89820151168d880152604081015160448801526060810151151560648801526080810151608488015260a081015160a488015260c081015160c488015260e081015160e48801526101008101516101048801520151610124860152306101448601526101648501526101848401526101a48301526101c482015285816101e4818b5af49081156102645786916115eb575b50506115e690612ba9565b6114cb565b6115f4906127c8565b6107b45784386115db565b8980fd5b61161a929350803d10610ee557610ed6818361285f565b903880611511565b508581813d8311611651575b611638818361285f565b810103126102145761164c6114ab91612996565b6114a1565b503d61162e565b809350868092503d8311611689575b611671818361285f565b810103126107f4576116838492612982565b38611474565b503d611667565b503461026f576020806003193601126107f8576040516351331ad760e01b81526001600160a01b03919081816004817f000000000000000000000000000000000000000000000000000000000000000087165afa801561048b5782918591611772575b506024604051809581936335d2155560e11b8352336004840152165afa90811561117c57839161173b575b83611728836129e7565b6117306129a3565b6101d8600435614572565b905081813d831161176b575b611751818361285f565b810103126107f85761176561172891612996565b3861171e565b503d611747565b82819392503d83116117a1575b611789818361285f565b810103126102145761179b8291612982565b386116f3565b503d61177f565b503461026f576020806003193601126107f8576004356117c66129a3565b6040516351331ad760e01b81526001600160a01b039083816004817f000000000000000000000000000000000000000000000000000000000000000086165afa801561021f57849186916118e9575b50602460405180948193637be53ca160e01b8352336004840152165afa90811561048b5784916118b4575b501561187f577fc4f93ed7d82b431d36b3c7670e42f8d5d8f19375008e1ab63c1f63c52e5c3f349160409160035491816003558351928352820152a180f35b60405162461bcd60e51b815260048101839052600d60248201526c37b7363ca837b7b620b236b4b760991b6044820152606490fd5b90508281813d83116118e2575b6118cb818361285f565b81010312610214576118dc90612996565b38611840565b503d6118c1565b82819392503d8311611918575b611900818361285f565b810103126107b4576119128491612982565b38611815565b503d6118f6565b503461026f576020806003193601126107f8576004356001600160401b0381116107f457611951903690600401612905565b6040516351331ad760e01b81529091906001600160a01b039082816004817f000000000000000000000000000000000000000000000000000000000000000086165afa90811561021f578591611b66575b508260405180926335d2155560e11b8252336004830152816024958692165afa801561021f578590611b30575b6119d991506129e7565b6119e16129a3565b835b8351811015610781576119f68185612e0e565b51303b15610259576040519063e70da1b560e01b82526004820152600190818482015286808260448183305af19182611b1c575b5050611aba57611a38612b1a565b6308c379a014611a55575b61048b57611a5090612ba9565b6119e3565b611a5d612b38565b80611a69575b50611a43565b9050611ab48691604051611a7c81612844565b602181527f65786563757465496e6372656173654c696d69744f7264657273206572726f7287820152601d60f91b6040820152615854565b38611a63565b5080610768611acc611a509387612e0e565b51604051611ad981612844565b602c81527f65786563757465496e6372656173654c696d69744f726465727320636f6d706c878201526b32ba32b2171034b73232bc1d60a11b60408201526157fc565b611b25906127c8565b6104c4578638611a2a565b508281813d8311611b5f575b611b46818361285f565b810103126107b457611b5a6119d991612996565b6119cf565b503d611b3c565b90508281813d8311611b94575b611b7d818361285f565b810103126107b457611b8e90612982565b386119a2565b503d611b73565b503461026f578060031960e03682011261112e576001600160401b0360043581811161056657611bcf903690600401612897565b916024358281116107b457611be8903690600401612905565b9160643581811161025957611c01903690600401612905565b9060843590811161025957611c1a903690600401612905565b9360c4359360048510156104c4576040516351331ad760e01b81526001600160a01b03906020907f00000000000000000000000000000000000000000000000000000000000000008316908281600481855afa908115610eec57849184918d91611e37575b506024604051809481936335d2155560e11b8352336004840152165afa8015610eec5783918c91611df5575b5091611cb86004936129e7565b611cc06129a3565b865186511480611ded575b611cd490612a28565b604051635ed6d55b60e11b815292839182905afa918215611de2578a92611da8575b50501691823b1561051957611d2892889283604051809681958294631e09986f60e21b84526044359160048501612a99565b03925af1908115610264578691611d94575b5050303b156107b4578492610445611d81611d7294604051978896879663da9d857b60e01b8852608060048901526084880190612a65565b91868303016024870152612a65565b9160a43560448501526064840190612af7565b611d9d906127c8565b6107b4578438611d3a565b90809250813d8311611ddb575b611dbf818361285f565b81010312611dd757611dd090612982565b3880611cf6565b8880fd5b503d611db5565b6040513d8c823e3d90fd5b506001611ccb565b82819392503d8311611e30575b611e0c818361285f565b81010312611e2c57600491611cb8611e248593612996565b919350611cab565b8a80fd5b503d611e02565b92505081813d8311611e67575b611e4e818361285f565b81010312611e2c5782611e618592612982565b38611c7f565b503d611e44565b503461026f5760a036600319011261026f576001600160401b03906004358281116107f857611ea1903690600401612897565b916024358181116107f457611eba903690600401612905565b60643582811161021457611ed2903690600401612905565b9160843590811161021457611eeb903690600401612905565b6040516351331ad760e01b8152909260209290916001600160a01b03907f00000000000000000000000000000000000000000000000000000000000000008216908581600481855afa90811561052457839187918a91612117575b506024604051809481936335d2155560e11b8352336004840152165afa9081156105245790869189916120d9575b5091611f816004936129e7565b611f896129a3565b8951855114806120d1575b611f9d90612a28565b604051635ed6d55b60e11b815292839182905afa9081156104cf57879161209c575b501690813b1561025957958591611ff19783604051809a81958294631e09986f60e21b84526044359160048501612a99565b03925af1801561048b57612088575b839450303b156105665783612030916040518093819263594c792d60e11b83528660048401526024830190612a65565b038183305af190811561048b578491612074575b5050303b15610473576104459183916040519384928392631df92bbd60e31b845260048401526024830190612a65565b61207d906127c8565b610473578238612044565b929093612094906127c8565b918390612000565b90508481813d83116120ca575b6120b3818361285f565b810103126104c4576120c490612982565b38611fbf565b503d6120a9565b506001611f94565b82819392503d8311612110575b6120f0818361285f565b8101031261051957600491611f816121088893612996565b919350611f74565b503d6120e6565b92505081813d8311612147575b61212e818361285f565b8101031261051957856121418492612982565b38611f46565b503d612124565b503461026f578060031936011261026f576006546040516001600160a01b039091168152602090f35b503461026f578060031936011261026f5760ff60209154166040519015158152f35b503461026f578060031936011261026f576020600254604051908152f35b503461026f576020806003193601126107f8576040516351331ad760e01b81526001600160a01b03919081816004817f000000000000000000000000000000000000000000000000000000000000000087165afa801561048b5782918591612299575b506024604051809581936335d2155560e11b8352336004840152165afa90811561117c578391612262575b8361224f836129e7565b6122576129a3565b6101d8600435612bce565b905081813d8311612292575b612278818361285f565b810103126107f85761228c61224f91612996565b38612245565b503d61226e565b82819392503d83116122c8575b6122b0818361285f565b81010312610214576122c28291612982565b3861221a565b503d6122a6565b503461026f578060031936011261026f576040516351331ad760e01b81526001600160a01b039060209081816004817f000000000000000000000000000000000000000000000000000000000000000087165afa801561048b57829185916123ff575b50602460405180958193630935e01b60e21b8352336004840152165afa91821561117c5783926123a5575b506123887f62e78cea01bee320cd4e420270b5ea74000d11b0c9f74754ebdbfc544b05a25892615784565b6123906129a3565b825460ff19166001178355604051338152a180f35b91508082813d83116123f8575b6123bc818361285f565b810103126107f4576123886123f17f62e78cea01bee320cd4e420270b5ea74000d11b0c9f74754ebdbfc544b05a25893612996565b925061235d565b503d6123b2565b82819392503d831161242e575b612416818361285f565b81010312610214576124288291612982565b38612332565b503d61240c565b503461026f578060031936011261026f576040516351331ad760e01b81526020906001600160a01b039082816004817f000000000000000000000000000000000000000000000000000000000000000086165afa801561048b578391859161257c575b50602460405180948193630935e01b60e21b8352336004840152165afa801561117c578390612546575b6124cc9150615784565b815460ff81161561250a5760ff191682556040513381527f5db9ee0a495bf2e6ff9c91a7834c1ba4fdd244a5e8aa4e537bd38aeae4b073aa9190a180f35b60405162461bcd60e51b815260048101839052601460248201527314185d5cd8589b194e881b9bdd081c185d5cd95960621b6044820152606490fd5b508181813d8311612575575b61255c818361285f565b810103126107f4576125706124cc91612996565b6124c2565b503d612552565b82819392503d83116125ab575b612593818361285f565b81010312610214576125a58391612982565b38612498565b503d612589565b503461026f578060031936011261026f576040517f00000000000000000000000000000000000000000000000000000000000000006001600160a01b03168152602090f35b503461026f578060031936011261026f576005546040516001600160a01b039091168152602090f35b823461026f57602091826003193601126107f8576001600160a01b036004358181169290839003610214576351331ad760e01b815284816004817f000000000000000000000000000000000000000000000000000000000000000086165afa90811561048b57829186918691612791575b506024604051809481936335d2155560e11b8352336004840152165afa90811561048b57918493918693859161274f575b50906126cf6044926129e7565b6126d76129a3565b60065416916040519485938492634850097560e01b845260048401523360248401525af1918215612743578092612713575b5050604051908152f35b9091508282813d831161273c575b61272b818361285f565b8101031261026f5750518280612709565b503d612721565b604051903d90823e3d90fd5b929450509181813d831161278a575b612768818361285f565b810103126102145791604485926126cf6127828796612996565b9192506126c2565b503d61275e565b92505081813d83116127c1575b6127a8818361285f565b8101031261021457846127bb8392612982565b87612691565b503d61279e565b6001600160401b0381116127db57604052565b634e487b7160e01b600052604160045260246000fd5b61014081019081106001600160401b038211176127db57604052565b60e081019081106001600160401b038211176127db57604052565b61012081019081106001600160401b038211176127db57604052565b606081019081106001600160401b038211176127db57604052565b90601f801991011681019081106001600160401b038211176127db57604052565b6001600160401b0381116127db5760051b60200190565b81601f820112156110cf578035916128ae83612880565b926128bc604051948561285f565b808452602092838086019260051b8201019283116110cf578301905b8282106128e6575050505090565b81356001600160a01b03811681036110cf5781529083019083016128d8565b81601f820112156110cf5780359161291c83612880565b9261292a604051948561285f565b808452602092838086019260051b8201019283116110cf578301905b828210612954575050505090565b81358152908301908301612946565b60409060031901126110cf576004359060243560048110156110cf5790565b51906001600160a01b03821682036110cf57565b519081151582036110cf57565b60ff600054166129af57565b60405162461bcd60e51b815260206004820152601060248201526f14185d5cd8589b194e881c185d5cd95960821b6044820152606490fd5b156129ee57565b60405162461bcd60e51b815260206004820152601260248201527137b7363ca837b9b4ba34b7b725b2b2b832b960711b6044820152606490fd5b15612a2f57565b60405162461bcd60e51b815260206004820152600e60248201526d696e76616c696420706172616d7360901b6044820152606490fd5b90815180825260208080930193019160005b828110612a85575050505090565b835185529381019392810192600101612a77565b9392916060850191606086528051809352608086019260208092019060005b818110612ada5750505085830390860152604091612ad591612a65565b930152565b82516001600160a01b031686529483019491830191600101612ab8565b906004821015612b045752565b634e487b7160e01b600052602160045260246000fd5b60009060033d11612b2757565b905060046000803e60005160e01c90565b600060443d10612b9557604051600319913d83016004833e81516001600160401b03918282113d602484011117612b9857818401948551938411612ba0573d85010160208487010111612b985750612b959291016020019061285f565b90565b949350505050565b50949350505050565b6000198114612bb85760010190565b634e487b7160e01b600052601160045260246000fd5b600180549060018060a01b03906004908282541691604095865180946386249bab60e01b8252818460209788935afa908115612e0357600091612dd6575b5080871015612dcc57808211612dc4575b50945b858110612c305750505050505050565b303b156110cf57865163e70da1b560e01b81528183820152602490600082820152604490600081838183305af19081612db5575b50612d5d578491612c73612b1a565b6308c379a014612c9d575b5050612c9257612c8d90612ba9565b612c20565b86513d6000823e3d90fd5b612ca5612b38565b9182612cb2575b50612c7e565b90919250612cff6000938b51612cc781612844565b602281527f65786563757465496e6372656173654d61726b65744f7264657273206572726f8a82015261391d60f11b8d820152615854565b8785541690813b15610214576064868580948a8f95838b9751998a98899763c250985960e01b89528801528601528401525af18015612d5357612d44575b8080612cac565b612d4d906127c8565b38612d3d565b89513d84823e3d90fd5b505080610768612c8d928951612d7281612844565b602d81527f65786563757465496e6372656173654d61726b65744f726465727320636f6d70888201526c3632ba32b2171034b73232bc1d60991b8b8201526157fc565b612dbe906127c8565b38612c64565b905038612c1d565b5050505050505050565b908582813d8311612dfc575b612dec818361285f565b8101031261026f57505138612c0c565b503d612de2565b88513d6000823e3d90fd5b8051821015612e225760209160051b010190565b634e487b7160e01b600052603260045260246000fd5b91908201809211612bb857565b15612e4c57565b60405162461bcd60e51b815260206004820152600d60248201526c1bdc99195c88195e1c1a5c9959609a1b6044820152606490fd5b90816101209103126110cf5760405190612e9a82612828565b80518252612eaa60208201612982565b6020830152612ebb60408201612982565b6040830152612ecc60608201612982565b6060830152612edd60808201612996565b608083015260a081015160a083015260c081015160c083015260e081015160e0830152610100809101519082015290565b809161010092839103126110cf57604051918201908282106001600160401b038311176127db5760e091604052805183526020810151602084015260408101516040840152606081015160608401526080810151608084015260a081015160a084015260c081015160c0840152015160e082015290565b15612f8c57565b60405162461bcd60e51b8152602060048201526012602482015271696e76616c69642074726164652073697a6560701b6044820152606490fd5b15612fcd57565b60405162461bcd60e51b815260206004820152601760248201527f6e6f7420726561636820747269676765722070726963650000000000000000006044820152606490fd5b91908203918211612bb857565b90816101409103126110cf5760405190613038826127f1565b8051825261304860208201612982565b60208301526040810151604083015261306360608201612996565b60608301526080810151608083015260a081015160a083015260c081015160c083015260e081015160e08301526101008082015190830152610120809101519082015290565b908160c09103126110cf576040519060c08201908282106001600160401b038311176127db5760a0916040528051835260208101516020840152604081015160408401526060810151606084015260808101516080840152015160a082015290565b1561311257565b60405162461bcd60e51b815260206004820152601a60248201527f6c7020737461626c6520746f6b656e206e6f7420656e6f7567680000000000006044820152606490fd5b600160ff1b8114612bb85760000390565b1561316f57565b60405162461bcd60e51b815260206004820152601960248201527f6c7020696e64657820746f6b656e206e6f7420656e6f756768000000000000006044820152606490fd5b6004821015612b045752565b91909160c08060e083019460018060a01b0381511684526020810151602085015260408101511515604085015260608101511515606085015261320b60808201516080860190612af7565b60a081015160a08501520151910152565b81516001600160a01b031681526020808301519082015260408083015160e08301949360c092839261325091860190612af7565b606081015160608501526080810151608085015260a0810151151560a08501520151910152565b6004549060446101206000936040519283809263f9d244fd60e01b82528660048301526132a7602483018a612af7565b6001600160a01b03165afa90811561117c578391613fec575b5060208101516001600160a01b031615613fe6576004841015613fd2578315613fb0575b60408101519160018060a01b036005541691604051632f7ce47360e21b815284600482015261012081602481875afa908115610264578691613f8f575b50608081015115613f4a576006546020838101516040516372c1cc1b60e11b81526001600160a01b0391821660048201529216919081602481855afa908115610524578891613f10575b50613ed7576040516330a66e1560e01b8152600481018790529461010086602481845afa958615610524578896613eb4575b506133b660e08501518015908115613e8e575b50612f85565b60208381015160c086015160405163179a09e360e01b81526001600160a01b039092166004830152602482018a905215156044820152969087606481865afa968715613cdc578997613e5a575b508660608601516004811015613dc057158015613e43575b15613e145760c086015115613de85760c08201516127108082810311613dd4576134569161344a9103836143a6565b60a08801511015612fc6565b60608601516004811015613dc057600114613d75575b50602085015160408087015160c0880151915163bc95baad60e01b81526001600160a01b0390931660048401526024830152151560448201529061014082606481875afa918215611de257906134f292918b92613d52575b506134d38960e089015161444b565b50608087015160e08801518251918b60806020860151950151956140dc565b5015613d165760c060249160405192838092632500ed8d60e21b82528b60048301525afa908115610524578891613ce7575b506040840151604051906301fd38f760e01b82526004820152602081602481865afa908115613cdc578991613caa575b50888112613c485760c085015115613c0c575061357b816020613587935191015190613012565b60e08501511115613168565b608083015191878313613b8e575b50506006546020830151608084015160e085015160c0860151604080516325584bd760e21b81523260048201526001600160a01b039586166024820152604481018c905260648101949094526084840192909252151560a483015260c482018890529097935091879160e49183918b91165af19586156127435780958197613b53575b5060018060a01b036004541660018060a01b03602085015116604085015160c086015115156060870151906004821015613b3f57906136809160e089015193604051956136648761280d565b86526020860152604085015260016060850152608084016131b4565b8660a083015260c0820152813b156107f4576136b583928392604051948580948193632670e98d60e01b8352600483016131c0565b03925af1801561046857908291613b2b575b505060608301516004811015611131576040516020810191600160f81b835260f81b60218201528560228201526022815261370181612844565b51902060048054604051631995c72560e01b81529182018390526001600160a01b0316608082602481845afa91821561048b579084918293613ab2575b506020830151806139ee575b505090606081015180613927575b50506004546001600160a01b0316919050813b156107f457829160248392604051948593849263eea0bfab60e01b845260048401525af1801561046857908291613913575b505087613883576004546001600160a01b0316803b156107f857818091602460405180948193633e5005e560e01b83528a60048401525af180156104685761386f575b5050916101409593917f462ad18c79032b6336d456416b46e1012c8ed1c03cd3ff073957ae8834539e729795935b61384c60018060a01b036020840151169760808401519260e060c08601511515950151956040519a8b5260208b015260408a01526060890190612af7565b608087015260a086015260c085015260e0840152610100830152610120820152a1565b61387982916127c8565b61026f57806137e0565b600188146138bd575b50916101409593917f462ad18c79032b6336d456416b46e1012c8ed1c03cd3ff073957ae8834539e7297959361380e565b6004546001600160a01b0316803b156107f85781809160246040518094819363121494ed60e31b83528a60048401525af18015610468576138ff575b5061388c565b61390982916127c8565b61026f57806138f9565b61391c906127c8565b61026f57803861379d565b6020916139ac9160018060a01b03600454169160018060a01b03858b015116916040808c015192015161396060c08d0151151592613157565b926040519461396e8661280d565b85528785015260036040850152876060850152608084015260a083015260c0820152604051948580948193635b47525960e11b83526004830161321c565b03925af1801561117c576139c3575b808391613758565b602090813d83116139e7575b6139d9818361285f565b810103126110cf57386139bb565b503d6139cf565b602091613a679160018060a01b03848b0151169060408b0151908b613a1b60c08a51920151151592613157565b9260405194613a298661280d565b85528785015260026040850152876060850152608084015260a083015260c0820152604051948580948193635b47525960e11b83526004830161321c565b03925af1801561048b5790849291613a83575b8092919261374a565b6020809293503d8311613aab575b613a9b818361285f565b810103126110cf57829038613a7a565b503d613a91565b915091506080813d608011613b23575b81613acf6080938361285f565b81010312610214576040518060808101106001600160401b036080830111176127db57606085926080830160405280518352602081015160208401526040810151604084015201516060820152913861373e565b3d9150613ac2565b613b34906127c8565b61026f5780386136c7565b634e487b7160e01b86526021600452602486fd5b955095506040853d604011613b86575b81613b706040938361285f565b8101031261025957602085519501519538613618565b3d9150613b63565b604001516001600160a01b031691613ba590614099565b91813b1561051957604051630d172a0160e01b81526001600160a01b0391821660048201529082166024820152604481019290925286908290606490829084905af1801561026457613bf9575b8080613595565b613c05909591956127c8565b9338613bf2565b613c3c613c268360606040613c4396015191015190613012565b91613c368960e0890151946144c9565b90612e38565b101561310b565b613587565b60c085015115613c8357613c7c613c69836020613c43955191015190613012565b613c7760e088015193613157565b612e38565b1015613168565b50613c9b8160606040613c4394015191015190613012565b613c3c8760e0870151926144c9565b90506020813d602011613cd4575b81613cc56020938361285f565b81010312611dd7575138613554565b3d9150613cb8565b6040513d8b823e3d90fd5b613d09915060c03d60c011613d0f575b613d01818361285f565b8101906130a9565b38613524565b503d613cf7565b60405162461bcd60e51b81526020600482015260146024820152731e995c9bc81c1bdcda5d1a5bdb88185b5bdd5b9d60621b6044820152606490fd5b613d6e9192506101403d61014011610ee557610ed6818361285f565b90386134c4565b60c086015191979115613da2575060a08501519080821015613d9b57505b955b3861346c565b9050613d93565b60a0860151915080821115613db957505b95613d95565b9050613db3565b634e487b7160e01b8b52602160045260248bfd5b634e487b7160e01b8c52601160045260248cfd5b60c08201516127108181018111613dd45761345691613e089101836143a6565b60a08801511115612fc6565b60c086015115613e3357613e2e60a0870151821015612fc6565b613456565b613e2e60a0870151821115612fc6565b5060608601516004811015613dc05760011461341b565b9096506020813d602011613e86575b81613e766020938361285f565b81010312611dd757519538613403565b3d9150613e69565b6040890151811015915081613ea5575b50386133b0565b90506060880151101538613e9e565b613ed09196506101003d610100116112995761128b818361285f565b943861339d565b60405162461bcd60e51b815260206004820152601160248201527030b1b1b7bab73a1034b990333937bd32b760791b6044820152606490fd5b90506020813d602011613f42575b81613f2b6020938361285f565b8101031261051957613f3c90612996565b3861336b565b3d9150613f1e565b60405162461bcd60e51b815260206004820152601860248201527f74726164652070616972206e6f7420737570706f7274656400000000000000006044820152606490fd5b613faa91506101203d610120116111b1576111a3818361285f565b38613321565b613fcd613fc561010083015160035490612e38565b421115612e45565b6132e4565b634e487b7160e01b83526021600452602483fd5b50505050565b9050610120813d61012011614091575b8161400a610120938361285f565b810103126107f4576040519061401f82612828565b8051825261402f60208201612982565b602083015260408101516040830152606081015160048110156107b45760608301526080810151608083015260a081015160a083015261407160c08201612996565b60c083015260e081015160e08301526101008091015190820152386132c0565b3d9150613ffc565b600081126140a45790565b612b9590613157565b91909160008382019384129112908015821691151617612bb857565b81810292918115918404141715612bb857565b949196959390926140f18160a0880151612e38565b97881561429e576141069060808801516140ad565b956000871261424e5781614230575b5050600085126141eb5761413a906141358461413088614099565b6144c9565b6140c9565b86101591826141cf575b50501561419557831161415a57612b9590614099565b60405162461bcd60e51b815260206004820152601360248201527232bc31b2b2b21036b0bc103837b9b4ba34b7b760691b6044820152606490fd5b60405162461bcd60e51b81526020600482015260126024820152711b195d995c9859d9481a5b98dbdc9c9958dd60721b6044820152606490fd5b6141e192506141359061413086614099565b8411153880614144565b60405162461bcd60e51b815260206004820152601d60248201527f636f6c6c61746572616c206e6f7420656e6f75676820666f7220706e6c0000006044820152606490fd5b8461424693979261424092614312565b906140ad565b933880614115565b60405162461bcd60e51b815260206004820152602260248201527f636f6c6c61746572616c206e6f7420656e6f75676820666f7220646563726561604482015261736560f01b6064820152608490fd5b505050505050509050600090600090565b9491969593909260a08601818151106142cd57816140f19151613012565b60405162461bcd60e51b815260206004820152601f60248201527f646563726561736520616d6f756e742065786365656420706f736974696f6e006044820152606490fd5b60c0810190815190818514801561439e575b61439457606001511561436a57508051808411156143525750612b959261434c915190613012565b9061444b565b614365929150612b959361434c91613012565b613157565b838111156143815750612b959261434c9151613012565b61436592915061434c90612b9594613012565b5050505050600090565b508115614324565b9060001981830981830291828083109203918083039214614440576127109082821115614403577fbc01a36e2eb1c432ca57a786c226809d495182a9930be0ded288ce703afb7e91940990828211900360fc1b910360041c170290565b60405162461bcd60e51b81526020600482015260156024820152744d6174683a206d756c446976206f766572666c6f7760581b6044820152606490fd5b505061271091500490565b90600019818309818302918280831092039180830392146144b3576c0c9f2c9cd04674edea400000009082821115614403577f7d33c22789773a07feda8b6f0930e26fa397c439f1d5cf4b2eb27d7306d2dc99940990828211900360e21b9103601e1c170290565b50506c0c9f2c9cd04674edea4000000091500490565b906c0c9f2c9cd04674edea4000000090600019828409928281029283808610950394808603951461454e5784831115614403578291096001821901821680920460028082600302188083028203028083028203028083028203028083028203028083028203028092029003029360018380600003040190848311900302920304170290565b50508092501561455c570490565b634e487b7160e01b600052601260045260246000fd5b60025460018060a01b036004818154169060409485518093631ca37ea160e11b8252818460209687935afa9081156147a257600091614775575b508086101561476c57808211614764575b50935b8481106145cf57505050505050565b303b156110cf578551630fdc860f60e41b81528183820152602490600082820152604490600081838183305af19081614755575b506146fd57600191614613612b1a565b6308c379a01461463d575b50506146325761462d90612ba9565b6145c0565b85513d6000823e3d90fd5b614645612b38565b9182614652575b5061461e565b9091925061469f6000938a5161466781612844565b602281527f6578656375746544656372656173654d61726b65744f7264657273206572726f8982015261391d60f11b8c820152615854565b8685541690813b15610214576064868580948189958f829051998a98899763c250985960e01b89528801528601528401525af180156146f3576146e4575b808061464c565b6146ed906127c8565b386146dd565b88513d84823e3d90fd5b50508061076861462d92885161471281612844565b602d81527f6578656375746544656372656173654d61726b65744f726465727320636f6d70878201526c3632ba32b2171034b73232bc1d60991b8a8201526157fc565b61475e906127c8565b38614603565b9050386145bd565b50505050505050565b908482813d831161479b575b61478b818361285f565b8101031261026f575051386145ac565b503d614781565b87513d6000823e3d90fd5b809161016092839103126110cf576040519182018281106001600160401b038211176127db57604052805182526147e660208201612982565b602083015260408101516040830152606081015160048110156110cf5760608301526080810151608083015260a081015160a083015260c081015160c083015261483260e08201612996565b60e0830152610100614845818301612996565b908301526101208082015190830152614862610140809201612996565b9082015290565b600454600061488f604051946340b4605b60e11b86528460048701526024860190612af7565b610160846044816001600160a01b0386165afa938415615777578194615754575b5060208401516001600160a01b031615613fe65760608401516004811015611131571561573a575b6040848101516005549151632f7ce47360e21b81526004810182905290956001600160a01b039092169361012082602481885afa91821561048b578492615717575b50600654602084015160408086015160e0870151915163bc95baad60e01b81526001600160a01b039384166004820152602481019190915290151560448201529691169061014087606481855afa9687156102645786976156f4575b5060a0870151156156e9576040516330a66e1560e01b8152600481018a90529361010085602481855afa9485156104cf5787956156c6575b506149dd60c087015160a08a01518082106000146156bf57505b8060c0890152801590811561569a5750612f85565b60209081015160e087015160405163179a09e360e01b81526001600160a01b039092166004830152602482018c905215156044820152949085606481865afa9485156104cf578795615666575b5084606087015160048110156155cb5715801561564f575b1561561f57610100870151156155f35760c082015161271080828103116155df57614a7e91614a729103836143a6565b60a08901511015612fc6565b606087015160048110156155cb579060018a939214615570575b5091614ace60c092602494614ab089868c015161444b565b5060808a0151858b01518251918b60806020860151950151956142af565b505060405192838092632500ed8d60e21b82528d60048301525afa908115610264578691615551575b50602060408601516024604051809581936301fd38f760e01b835260048301525afa91821561026457869261551d575b508582126154ce5760e085015161549f57614b4a91506020815191015190613012565b60c08401511190815b61537c5750508260808301511361528c575b6006546020830151608084015160c085015160e086015160405163cf2003bd60e01b81523260048201526001600160a01b039485166024820152604481018c905260648101939093526084830191909152151560a482015260c481018490529691606091889160e49183918991165af192831561048b57849585978695615246575b5060608201516004811015614df55761510357506004546001600160a01b0316803b156102595785809160246040518094819363be82e5b160e01b83528860048401525af18015610264579086916150ef575b50505b60018060a01b036004541660018060a01b03602083015116604083015160e08401511515606085015160048110156150db57614ca49086519260c08801519460405196614c898861280d565b8752602087015260408601528a6060860152608085016131b4565b60a083015260c0820152813b156104c457614cd887928392604051948580948193632670e98d60e01b8352600483016131c0565b03925af18015610264579086916150c7575b5050600654602082015160408084015160e0850151915163bc95baad60e01b81526001600160a01b03938416600482015260248101919091529015156044820152916101409183916064918391165afa908115610264579060a09187916150a6575b50015115614e09575b602081015160608201516001600160a01b03909116986004821015614df55791614dcc7f9b4ff42a2fc7960edd49c603150f69894e46d386129c040ae7519a427fee06139a989694926101609a98969460c060e08501511515940151946040519b8c5260208c015260408b015260608a0190612af7565b608088015260a087015260c086015260e0850152610100840152610120830152610140820152a1565b634e487b7160e01b87526021600452602487fd5b9693979491602088979492970151604089015160e08a015115156040519160208301936bffffffffffffffffffffffff199060601b168452603483015260f81b605482015260358152614e5b81612844565b519020968960018060a01b0360045416986024604051809b8193634cc42b5160e01b835260048301525afa978815611de2578a98614f69575b50895b8851811015614f5a57614eaa818a612e0e565b51606081015115614ec5575b50614ec090612ba9565b614e97565b60018060a01b036004541690608060a08201519101516004811015614f46579082918e933b15610214576064849283614f1995604051968795869463c250985960e01b865260048601526024850190612af7565b8160448401525af1801561046857614f32575b50614eb6565b614f3b906127c8565b611e2c578a38614f2c565b634e487b7160e01b8e52602160045260248efd5b50919396509194979396614d55565b9097503d808b833e614f7b818361285f565b6020828281010312611e2c578151906001600160401b0382116150a257808301601f8385010112156150a2578183015190614fb582612880565b93614fc3604051958661285f565b8285526020850193828201602060e0860283850101011161509e5793602085830101945b602060e0860282850101018610615005575050505050509638614e94565b60e086858501031261509a576040519161501e8361280d565b61502787612982565b83526020870151602084015261503f60408801612996565b604084015261505060608801612996565b6060840152608087015192600484101561509457602060e09282829660808695015260a08b015160a082015260c08b015160c0820152815201970196925050614fe7565b50508f80fd5b8f80fd5b8e80fd5b8b80fd5b6150c191506101403d61014011610ee557610ed6818361285f565b38614d4c565b6150d0906127c8565b6107b4578438614cea565b634e487b7160e01b8a52602160045260248afd5b6150f8906127c8565b6107b4578438614c3a565b60608201516004811015614df55760010361517357506004546001600160a01b0316803b15610259578580916024604051809481936304d3cb8160e41b83528860048401525af180156102645790869161515f575b5050614c3d565b615168906127c8565b6107b4578438615158565b60018060a01b03600454169051606083015191600483101561523257803b15610519579160648892836151c1956040519687958694634136de9f60e01b865260048601526024850190612af7565b8160448401525af180156102645790869161521e575b50506004546001600160a01b0316803b15610259578580916024604051809481936304d3cb8160e41b83528860048401525af180156102645790869161515f575050614c3d565b615227906127c8565b6107b45784386151d7565b634e487b7160e01b88526021600452602488fd5b9650935095506060853d606011615284575b816152656060938361285f565b8101031261021457845195604060208701519601519695969338614be7565b3d9150615258565b60018060a01b0360055416604085015160405190632f7ce47360e21b8252600482015261012081602481855afa90811561021f57859161535b575b5060065460409091015160808501516001600160a01b03918216939290911691906152f190614099565b92823b156104c457604051630d172a0160e01b81526001600160a01b03918216600482015291166024820152604481019290925284908290606490829084905af1801561048b57908491615347575b5050614b65565b615350906127c8565b6107f4578238615340565b61537691506101203d610120116111b1576111a3818361285f565b386152c7565b9094506060839294969301516004811015614df5576001600160a01b0382163b156104c4576153cb6064889283604051958694859363c1872cf360e01b85528a60048601526024850190612af7565b8a151560448401526001600160a01b03165af180156102645761548c575b50602081015160608201516001600160a01b03909116966004821015614df5579161545f7f9b4ff42a2fc7960edd49c603150f69894e46d386129c040ae7519a427fee06139896949261016098969460c060e0850151151594015194604051998a5260208a015260408901526060880190612af7565b608086015260a085015260c08401528160e0840152151561010083015280610120830152610140820152a1565b615498909591956127c8565b93386153e9565b6154b681606060406154c694015191015190613012565b91613c368560c0880151946144c9565b109081614b53565b60e08501516154f9576154eb8160206154c6935191015190613012565b613c7760c087015193613157565b61550e91506060604082015191015190613012565b6154c68360c0860151926144c9565b9091506020813d602011615549575b816155396020938361285f565b8101031261025957519038614b27565b3d915061552c565b61556a915060c03d60c011613d0f57613d01818361285f565b38614af7565b60c0926024949297614ace9260e08b0151156000146155ad575060a08a015190808210156155a657505b975b9294509250614a98565b905061559a565b60a08b01519150808211156155c457505b9761559c565b90506155be565b634e487b7160e01b89526021600452602489fd5b634e487b7160e01b8a52601160045260248afd5b60c082015161271081810181116155df57614a7e916156139101836143a6565b60a08901511115612fc6565b6101008701511561563f5761563a60a0880151821115612fc6565b614a7e565b61563a60a0880151821015612fc6565b50606087015160048110156155cb57600114614a42565b9094506020813d602011615692575b816156826020938361285f565b810103126104c457519338614a2a565b3d9150615675565b60408801518110159150816156b05750386133b0565b90506060870151101538613e9e565b90506149c8565b6156e29195506101003d610100116112995761128b818361285f565b93386149ae565b505050505050505050565b6157109197506101403d61014011610ee557610ed6818361285f565b9538614976565b6157339192506101203d610120116111b1576111a3818361285f565b903861491a565b61574f613fc561012086015160035490612e38565b6148d8565b6157709194506101603d610160116112fb576112eb818361285f565b92386148b0565b50604051903d90823e3d90fd5b1561578b57565b60405162461bcd60e51b815260206004820152600960248201526837b7363ca0b236b4b760b91b6044820152606490fd5b919082519283825260005b8481106157e8575050826000602080949584010152601f8019910116010190565b6020818301810151848301820152016157c7565b600091908291615841604051809261582d6020830195632d839cb360e21b87526040602485015260648401906157bc565b90604483015203601f19810183528261285f565b51906a636f6e736f6c652e6c6f675afa50565b6000919061589b61584184936040519283916158896020840196634b5c427760e01b88526040602486015260648501906157bc565b838103602319016044850152906157bc565b03601f19810183528261285f56fea264697066735822122018709ff69cae5d7a7a788d5ac371ccf4a34c33a5c5c538a393f1cee22eb2532f64736f6c63430008110033",
  "libraries": {
    "LiquidationLogic": "0x5a7D373dbf6090720067Cd9C66d4b40952F1c28d"
  },
  "devdoc": {
    "kind": "dev",
    "methods": {
      "paused()": {
        "details": "Returns true if the contract is paused, and false otherwise."
      }
    },
    "version": 1
  },
  "userdoc": {
    "kind": "user",
    "methods": {},
    "version": 1
  },
  "storageLayout": {
    "storage": [
      {
        "astId": 17,
        "contract": "contracts/trading/Executor.sol:Executor",
        "label": "_paused",
        "offset": 0,
        "slot": "0",
        "type": "t_bool"
      },
      {
        "astId": 4196,
        "contract": "contracts/trading/Executor.sol:Executor",
        "label": "increaseMarketOrderStartIndex",
        "offset": 0,
        "slot": "1",
        "type": "t_uint256"
      },
      {
        "astId": 4199,
        "contract": "contracts/trading/Executor.sol:Executor",
        "label": "decreaseMarketOrderStartIndex",
        "offset": 0,
        "slot": "2",
        "type": "t_uint256"
      },
      {
        "astId": 4202,
        "contract": "contracts/trading/Executor.sol:Executor",
        "label": "maxTimeDelay",
        "offset": 0,
        "slot": "3",
        "type": "t_uint256"
      },
      {
        "astId": 4208,
        "contract": "contracts/trading/Executor.sol:Executor",
        "label": "orderManager",
        "offset": 0,
        "slot": "4",
        "type": "t_contract(IOrderManager)2715"
      },
      {
        "astId": 4211,
        "contract": "contracts/trading/Executor.sol:Executor",
        "label": "pool",
        "offset": 0,
        "slot": "5",
        "type": "t_contract(IPool)3012"
      },
      {
        "astId": 4214,
        "contract": "contracts/trading/Executor.sol:Executor",
        "label": "positionManager",
        "offset": 0,
        "slot": "6",
        "type": "t_contract(IPositionManager)3318"
      }
    ],
    "types": {
      "t_bool": {
        "encoding": "inplace",
        "label": "bool",
        "numberOfBytes": "1"
      },
      "t_contract(IOrderManager)2715": {
        "encoding": "inplace",
        "label": "contract IOrderManager",
        "numberOfBytes": "20"
      },
      "t_contract(IPool)3012": {
        "encoding": "inplace",
        "label": "contract IPool",
        "numberOfBytes": "20"
      },
      "t_contract(IPositionManager)3318": {
        "encoding": "inplace",
        "label": "contract IPositionManager",
        "numberOfBytes": "20"
      },
      "t_uint256": {
        "encoding": "inplace",
        "label": "uint256",
        "numberOfBytes": "32"
      }
    }
  }
}