{
  "address": "0xA4899D35897033b927acFCf422bc745916139776",
  "abi": [
    {
      "inputs": [
        {
          "internalType": "contract IAddressesProvider",
          "name": "addressProvider",
          "type": "address"
        },
        {
          "internalType": "contract IPairInfo",
          "name": "_pairInfo",
          "type": "address"
        },
        {
          "internalType": "contract IPairVault",
          "name": "_pairVault",
          "type": "address"
        },
        {
          "internalType": "contract IOrderManager",
          "name": "_orderManager",
          "type": "address"
        },
        {
          "internalType": "contract IPositionManager",
          "name": "_tradingVault",
          "type": "address"
        },
        {
          "internalType": "uint256",
          "name": "_maxTimeDelay",
          "type": "uint256"
        }
      ],
      "stateMutability": "nonpayable",
      "type": "constructor"
    },
    {
      "anonymous": false,
      "inputs": [
        {
          "indexed": false,
          "internalType": "address",
          "name": "account",
          "type": "address"
        },
        {
          "indexed": false,
          "internalType": "uint256",
          "name": "orderId",
          "type": "uint256"
        },
        {
          "indexed": false,
          "internalType": "uint256",
          "name": "pairIndex",
          "type": "uint256"
        },
        {
          "indexed": false,
          "internalType": "enum TradingTypes.TradeType",
          "name": "tradeType",
          "type": "uint8"
        },
        {
          "indexed": false,
          "internalType": "bool",
          "name": "isLong",
          "type": "bool"
        },
        {
          "indexed": false,
          "internalType": "uint256",
          "name": "sizeAmount",
          "type": "uint256"
        },
        {
          "indexed": false,
          "internalType": "uint256",
          "name": "price",
          "type": "uint256"
        },
        {
          "indexed": false,
          "internalType": "int256",
          "name": "pnl",
          "type": "int256"
        },
        {
          "indexed": false,
          "internalType": "bool",
          "name": "needADL",
          "type": "bool"
        },
        {
          "indexed": false,
          "internalType": "uint256",
          "name": "tradingFee",
          "type": "uint256"
        },
        {
          "indexed": false,
          "internalType": "int256",
          "name": "fundingFee",
          "type": "int256"
        }
      ],
      "name": "ExecuteDecreaseOrder",
      "type": "event"
    },
    {
      "anonymous": false,
      "inputs": [
        {
          "indexed": false,
          "internalType": "address",
          "name": "account",
          "type": "address"
        },
        {
          "indexed": false,
          "internalType": "uint256",
          "name": "orderId",
          "type": "uint256"
        },
        {
          "indexed": false,
          "internalType": "uint256",
          "name": "pairIndex",
          "type": "uint256"
        },
        {
          "indexed": false,
          "internalType": "enum TradingTypes.TradeType",
          "name": "tradeType",
          "type": "uint8"
        },
        {
          "indexed": false,
          "internalType": "int256",
          "name": "collateral",
          "type": "int256"
        },
        {
          "indexed": false,
          "internalType": "bool",
          "name": "isLong",
          "type": "bool"
        },
        {
          "indexed": false,
          "internalType": "uint256",
          "name": "sizeAmount",
          "type": "uint256"
        },
        {
          "indexed": false,
          "internalType": "uint256",
          "name": "price",
          "type": "uint256"
        },
        {
          "indexed": false,
          "internalType": "uint256",
          "name": "tradingFee",
          "type": "uint256"
        },
        {
          "indexed": false,
          "internalType": "int256",
          "name": "fundingFee",
          "type": "int256"
        }
      ],
      "name": "ExecuteIncreaseOrder",
      "type": "event"
    },
    {
      "anonymous": false,
      "inputs": [
        {
          "indexed": false,
          "internalType": "bytes32",
          "name": "positionKey",
          "type": "bytes32"
        },
        {
          "indexed": false,
          "internalType": "address",
          "name": "account",
          "type": "address"
        },
        {
          "indexed": false,
          "internalType": "uint256",
          "name": "pairIndex",
          "type": "uint256"
        },
        {
          "indexed": false,
          "internalType": "bool",
          "name": "isLong",
          "type": "bool"
        },
        {
          "indexed": false,
          "internalType": "uint256",
          "name": "sizeAmount",
          "type": "uint256"
        },
        {
          "indexed": false,
          "internalType": "uint256",
          "name": "collateral",
          "type": "uint256"
        },
        {
          "indexed": false,
          "internalType": "uint256",
          "name": "price",
          "type": "uint256"
        },
        {
          "indexed": false,
          "internalType": "uint256",
          "name": "orderId",
          "type": "uint256"
        }
      ],
      "name": "LiquidatePosition",
      "type": "event"
    },
    {
      "anonymous": false,
      "inputs": [
        {
          "indexed": false,
          "internalType": "uint256",
          "name": "oldDelay",
          "type": "uint256"
        },
        {
          "indexed": false,
          "internalType": "uint256",
          "name": "newDelay",
          "type": "uint256"
        }
      ],
      "name": "UpdateMaxTimeDelay",
      "type": "event"
    },
    {
      "inputs": [],
      "name": "ADDRESS_PROVIDER",
      "outputs": [
        {
          "internalType": "contract IAddressesProvider",
          "name": "",
          "type": "address"
        }
      ],
      "stateMutability": "view",
      "type": "function"
    },
    {
      "inputs": [],
      "name": "decreaseMarketOrderStartIndex",
      "outputs": [
        {
          "internalType": "uint256",
          "name": "",
          "type": "uint256"
        }
      ],
      "stateMutability": "view",
      "type": "function"
    },
    {
      "inputs": [
        {
          "internalType": "bytes32[]",
          "name": "_positionKeys",
          "type": "bytes32[]"
        },
        {
          "internalType": "uint256[]",
          "name": "_sizeAmounts",
          "type": "uint256[]"
        },
        {
          "internalType": "uint256",
          "name": "_orderId",
          "type": "uint256"
        },
        {
          "internalType": "enum TradingTypes.TradeType",
          "name": "_tradeType",
          "type": "uint8"
        }
      ],
      "name": "executeADLAndDecreaseOrder",
      "outputs": [],
      "stateMutability": "nonpayable",
      "type": "function"
    },
    {
      "inputs": [
        {
          "internalType": "uint256[]",
          "name": "orderIds",
          "type": "uint256[]"
        }
      ],
      "name": "executeDecreaseLimitOrders",
      "outputs": [],
      "stateMutability": "nonpayable",
      "type": "function"
    },
    {
      "inputs": [
        {
          "internalType": "uint256",
          "name": "endIndex",
          "type": "uint256"
        }
      ],
      "name": "executeDecreaseMarketOrders",
      "outputs": [],
      "stateMutability": "nonpayable",
      "type": "function"
    },
    {
      "inputs": [
        {
          "internalType": "uint256",
          "name": "_orderId",
          "type": "uint256"
        },
        {
          "internalType": "enum TradingTypes.TradeType",
          "name": "_tradeType",
          "type": "uint8"
        }
      ],
      "name": "executeDecreaseOrder",
      "outputs": [],
      "stateMutability": "nonpayable",
      "type": "function"
    },
    {
      "inputs": [
        {
          "internalType": "uint256[]",
          "name": "orderIds",
          "type": "uint256[]"
        }
      ],
      "name": "executeIncreaseLimitOrders",
      "outputs": [],
      "stateMutability": "nonpayable",
      "type": "function"
    },
    {
      "inputs": [
        {
          "internalType": "uint256",
          "name": "endIndex",
          "type": "uint256"
        }
      ],
      "name": "executeIncreaseMarketOrders",
      "outputs": [],
      "stateMutability": "nonpayable",
      "type": "function"
    },
    {
      "inputs": [
        {
          "internalType": "uint256",
          "name": "_orderId",
          "type": "uint256"
        },
        {
          "internalType": "enum TradingTypes.TradeType",
          "name": "_tradeType",
          "type": "uint8"
        }
      ],
      "name": "executeIncreaseOrder",
      "outputs": [],
      "stateMutability": "nonpayable",
      "type": "function"
    },
    {
      "inputs": [],
      "name": "increaseMarketOrderStartIndex",
      "outputs": [
        {
          "internalType": "uint256",
          "name": "",
          "type": "uint256"
        }
      ],
      "stateMutability": "view",
      "type": "function"
    },
    {
      "inputs": [
        {
          "internalType": "bytes32[]",
          "name": "positionKeys",
          "type": "bytes32[]"
        }
      ],
      "name": "liquidatePositions",
      "outputs": [],
      "stateMutability": "nonpayable",
      "type": "function"
    },
    {
      "inputs": [],
      "name": "maxTimeDelay",
      "outputs": [
        {
          "internalType": "uint256",
          "name": "",
          "type": "uint256"
        }
      ],
      "stateMutability": "view",
      "type": "function"
    },
    {
      "inputs": [],
      "name": "orderManager",
      "outputs": [
        {
          "internalType": "contract IOrderManager",
          "name": "",
          "type": "address"
        }
      ],
      "stateMutability": "view",
      "type": "function"
    },
    {
      "inputs": [],
      "name": "pairInfo",
      "outputs": [
        {
          "internalType": "contract IPairInfo",
          "name": "",
          "type": "address"
        }
      ],
      "stateMutability": "view",
      "type": "function"
    },
    {
      "inputs": [],
      "name": "pairVault",
      "outputs": [
        {
          "internalType": "contract IPairVault",
          "name": "",
          "type": "address"
        }
      ],
      "stateMutability": "view",
      "type": "function"
    },
    {
      "inputs": [],
      "name": "positionManager",
      "outputs": [
        {
          "internalType": "contract IPositionManager",
          "name": "",
          "type": "address"
        }
      ],
      "stateMutability": "view",
      "type": "function"
    },
    {
      "inputs": [
        {
          "internalType": "address[]",
          "name": "tokens",
          "type": "address[]"
        },
        {
          "internalType": "uint256[]",
          "name": "prices",
          "type": "uint256[]"
        },
        {
          "internalType": "uint256",
          "name": "timestamp",
          "type": "uint256"
        },
        {
          "internalType": "bytes32[]",
          "name": "positionKeys",
          "type": "bytes32[]"
        },
        {
          "internalType": "uint256[]",
          "name": "sizeAmounts",
          "type": "uint256[]"
        },
        {
          "internalType": "uint256",
          "name": "orderId",
          "type": "uint256"
        },
        {
          "internalType": "enum TradingTypes.TradeType",
          "name": "tradeType",
          "type": "uint8"
        }
      ],
      "name": "setPricesAndExecuteADL",
      "outputs": [],
      "stateMutability": "nonpayable",
      "type": "function"
    },
    {
      "inputs": [
        {
          "internalType": "address[]",
          "name": "tokens",
          "type": "address[]"
        },
        {
          "internalType": "uint256[]",
          "name": "prices",
          "type": "uint256[]"
        },
        {
          "internalType": "uint256",
          "name": "timestamp",
          "type": "uint256"
        },
        {
          "internalType": "uint256[]",
          "name": "increaseOrderIds",
          "type": "uint256[]"
        },
        {
          "internalType": "uint256[]",
          "name": "decreaseOrderIds",
          "type": "uint256[]"
        }
      ],
      "name": "setPricesAndExecuteLimitOrders",
      "outputs": [],
      "stateMutability": "nonpayable",
      "type": "function"
    },
    {
      "inputs": [
        {
          "internalType": "address[]",
          "name": "tokens",
          "type": "address[]"
        },
        {
          "internalType": "uint256[]",
          "name": "prices",
          "type": "uint256[]"
        },
        {
          "internalType": "uint256",
          "name": "timestamp",
          "type": "uint256"
        },
        {
          "internalType": "uint256",
          "name": "increaseEndIndex",
          "type": "uint256"
        },
        {
          "internalType": "uint256",
          "name": "decreaseEndIndex",
          "type": "uint256"
        }
      ],
      "name": "setPricesAndExecuteMarketOrders",
      "outputs": [],
      "stateMutability": "nonpayable",
      "type": "function"
    },
    {
      "inputs": [
        {
          "internalType": "address[]",
          "name": "tokens",
          "type": "address[]"
        },
        {
          "internalType": "uint256[]",
          "name": "prices",
          "type": "uint256[]"
        },
        {
          "internalType": "uint256",
          "name": "timestamp",
          "type": "uint256"
        },
        {
          "internalType": "bytes32[]",
          "name": "positionKeys",
          "type": "bytes32[]"
        }
      ],
      "name": "setPricesAndLiquidatePositions",
      "outputs": [],
      "stateMutability": "nonpayable",
      "type": "function"
    },
    {
      "inputs": [
        {
          "internalType": "uint256",
          "name": "newMaxTimeDelay",
          "type": "uint256"
        }
      ],
      "name": "updateMaxTimeDelay",
      "outputs": [],
      "stateMutability": "nonpayable",
      "type": "function"
    }
  ],
  "transactionHash": "0xe74b9c85728218bac75d8644a131135d7db76029820eb6c008192ad8078c93af",
  "args": [
    "0x5FbDB2315678afecb367f032d93F642f64180aa3",
    "0xC9a43158891282A2B1475592D5719c001986Aaec",
    "0x1c85638e118b37167e9298c2268758e058DdfDA0",
    "0x49fd2BE640DB2910c2fAb69bB8531Ab6E76127ff",
    "0x7A9Ec1d04904907De0ED7b6839CcdD59c3716AC9",
    60
  ],
  "numDeployments": 1,
  "solcInputHash": "3bfb618664e377f23f48757fd7cd2af1",
  "bytecode": "0x60a0346200014557601f6200622938819003918201601f19168301916001600160401b038311848410176200014a5780849260c09460405283398101031262000145578051906001600160a01b03908183168303620001455760208101519082821680920362000145576040810151838116809103620001455760608201519184831680930362000145576080810151948516809503620001455760a001519460805260018060a01b03199283600454161760045582600554161760055581600354161760035560065416176006556002556040516160c8908162000161823960805181818161013701528181610312015281816105a8015281816107a801528181610a0901528181610b57015281816113010152818161143401528181611548015281816116d6015281816118fc01528181611bbe01528181611e9b0152611f8e0152f35b600080fd5b634e487b7160e01b600052604160045260246000fdfe608080604052600436101561001357600080fd5b600090813560e01c9081631848effa14611f7a57508063531d87c114611e6a5780635be766c314611e4c578063791b98bc14611e23578063a31a7b4414611dfa578063a776034014611b22578063afb566e414611854578063b298f25a14611684578063be39f3aa14611513578063bfa5ea9914611403578063c04c0f58146112af578063cb0269c914611291578063d4053f7b14611274578063da9d857b14610aea578063e70da1b5146109d9578063ef09314a14610741578063efc95de814610556578063f2ac5dfe1461028e578063f9b6117f14610265578063fc2a5b1d1461023c5763fdc860f01461010857600080fd5b346102395761011636612158565b6040516351331ad760e01b8152602092906001600160a01b039084816004817f000000000000000000000000000000000000000000000000000000000000000086165afa801561022e57859187916101f4575b506024604051809481936335d2155560e11b8352336004840152165afa9384156101e95785946101aa575b50506101a26101a793612198565b614f2c565b80f35b90809450813d83116101e2575b6101c18183612054565b810103126101de576101a26101d86101a79461218b565b93610194565b8380fd5b503d6101b7565b6040513d87823e3d90fd5b82819392503d8311610227575b61020b8183612054565b810103126102235761021d8591612177565b38610169565b8580fd5b503d610201565b6040513d88823e3d90fd5b80fd5b50346102395780600319360112610239576004546040516001600160a01b039091168152602090f35b50346102395780600319360112610239576003546040516001600160a01b039091168152602090f35b503461023957608036600319011261023957806001600160401b0360043581811161045e576102c190369060040161208c565b90602435818111610551576102da9036906004016120fa565b90606435908111610551576102f39036906004016120fa565b6040516351331ad760e01b8152909260209290916001600160a01b03907f00000000000000000000000000000000000000000000000000000000000000008216908581600481855afa90811561050f57839187918a9161051a575b506024604051809481936335d2155560e11b8352336004840152165afa801561050f57869189916104cd575b5091610387600493612198565b8551855114806104c5575b61039b906121d9565b604051635ed6d55b60e11b815292839182905afa9081156104ba578791610481575b501691823b15610223576103ee92869283604051809681958294631e09986f60e21b8452604435916004850161224a565b03925af1908115610476578491610462575b5050303b1561045e57610430918391604051938492839263180981eb60e31b845260048401526024830190612216565b038183305af18015610453576104435750f35b61044c90611fbd565b6102395780f35b6040513d84823e3d90fd5b5050fd5b61046b90611fbd565b61045e578238610400565b6040513d86823e3d90fd5b90508481813d83116104b3575b6104988183612054565b810103126104af576104a990612177565b386103bd565b8680fd5b503d61048e565b6040513d89823e3d90fd5b506001610392565b82819392503d8311610508575b6104e48183612054565b81010312610504576004916103876104fc889361218b565b91935061037a565b8780fd5b503d6104da565b6040513d8a823e3d90fd5b92505081813d831161054a575b6105318183612054565b8101031261050457856105448492612177565b3861034e565b503d610527565b505050fd5b50346102395760208060031936011261073d576004356001600160401b038111610739576105889036906004016120fa565b6040516351331ad760e01b815290916001600160a01b03919080826004817f000000000000000000000000000000000000000000000000000000000000000087165afa9182156101e9578592610702575b508060405180936335d2155560e11b8252336004830152816024968792165afa9081156101e95785916106cb575b506106129150612198565b825b82518110156106c7576106278184612544565b51303b156106c35760405190630fdc860f60e41b82526004820152600190818482015285808260448183305af191826106af575b50506106a5576106696122cb565b6308c379a014610691575b610686576106819061237c565b610614565b6040513d85823e3d90fd5b6106996122e9565b15610674575083610674565b506106819061237c565b6106b890611fbd565b61022357853861065b565b8480fd5b8380f35b905081813d83116106fb575b6106e18183612054565b810103126101de576106f56106129161218b565b38610607565b503d6106d7565b9080925081813d8311610732575b61071a8183612054565b810103126106c35761072b90612177565b90386105d9565b503d610710565b8280fd5b5080fd5b50346102395760a036600319011261023957806001600160401b0360043581811161045e5761077490369060040161208c565b9060243590811161045e5761078d9036906004016120fa565b6040516351331ad760e01b81526001600160a01b03906020907f00000000000000000000000000000000000000000000000000000000000000008316908281600481855afa9081156104ba578491849189916109a2575b506024604051809481936335d2155560e11b8352336004840152165afa80156104ba5783918891610964575b509161081d600493612198565b86518651148061095c575b610831906121d9565b604051635ed6d55b60e11b815292839182905afa91821561022e578692610926575b50501691823b156105515761088592849283604051809681958294631e09986f60e21b8452604435916004850161224a565b03925af1801561045357610912575b5050303b156102395760405163531d87c160e01b815260643560048201528190818160248183305af18015610453576108fe575b5050303b156102395760405163bfa5ea9960e01b815260843560048201528190818160248183305af18015610453576104435750f35b61090790611fbd565b6102395780386108c8565b61091b90611fbd565b610239578038610894565b90809250813d8311610955575b61093d8183612054565b810103126106c35761094e90612177565b3880610853565b503d610933565b506001610828565b82819392503d831161099b575b61097b8183612054565b810103126104af5760049161081d610993859361218b565b919350610810565b503d610971565b92505081813d83116109d2575b6109b98183612054565b810103126104af57826109cc8592612177565b386107e4565b503d6109af565b5034610239576109e836612158565b6040516351331ad760e01b8152602092906001600160a01b039084816004817f000000000000000000000000000000000000000000000000000000000000000086165afa801561022e5785918791610ab4575b506024604051809481936335d2155560e11b8352336004840152165afa9384156101e9578594610a79575b5050610a746101a793612198565b6129c3565b90809450813d8311610aad575b610a908183612054565b810103126101de57610a74610aa76101a79461218b565b93610a66565b503d610a86565b82819392503d8311610ae3575b610acb8183612054565b8101031261022357610add8591612177565b38610a3b565b503d610ac1565b5034610239576080366003190112610239576001600160401b0360043581811161073957610b1c9036906004016120fa565b9060243590811161073957610b359036906004016120fa565b6064359160048310156101de576040516351331ad760e01b81526020816004817f00000000000000000000000000000000000000000000000000000000000000006001600160a01b03165afa9081156101e9578591611235575b506040516335d2155560e11b815233600482015290602090829060249082906001600160a01b03165afa80156101e95785906111fa575b610bd09150612198565b80518251036111c2576003546040516340b4605b60e11b815260443560048201529384916001600160a01b031690610c0c9060248401906122a8565b8160446101609687935afa9384156101e9578594611193575b505061014083015115611160576004805460408581015190516330a66e1560e01b8152928301526001600160a01b03169061010081602481855afa90811561022e57869161112f575b508251919492610c7d83612075565b92610c8b6040519485612054565b808452610c9a601f1991612075565b01875b8181106110d257505060065487946001600160a01b039091169190855b8251871015610e2757610ccd8784612544565b519660405197636468402960e11b8952600489015261014088602481885afa978815610e1c578b98610de9575b50610d05818a612544565b5160a089015110610da457610d1a818a612544565b51606087015110610d5f57610d3d610d5992610d36838c612544565b519061256e565b97610d488289612544565b52610d538188612544565b5061237c565b95610cba565b60405162461bcd60e51b815260206004820152601860248201527f65786365656473206d617820747261646520616d6f756e7400000000000000006044820152606490fd5b60405162461bcd60e51b815260206004820152601960248201527f41444c2073697a65206578636565647320706f736974696f6e000000000000006044820152606490fd5b610e0e9198506101403d61014011610e15575b610e068183612054565b81019061273e565b9638610cfa565b503d610dfc565b6040513d8d823e3d90fd5b908884878c9460c08501510361107857849260e06040860151602460405180948193632f7ce47360e21b835260048301525afa92831561047657610eb2936020928691611049575b505160408781015160e0890151915163179a09e360e01b81526001600160a01b039093166004840152602483015215604482015293849190829081906064820190565b03915afa918215610686578392611012575b50825b8151811015610fe357836020610f7b610ee08486612544565b5160018060a01b03600354169060018060a01b03848201511690604081015190610f1460a060608301511515920151612876565b9160405193610f2285612002565b84528684015286604084015286606084015289608084015260a083015260c08201528460e08201528461010082015284610120820152846101408201526040519485809481936302b9d03760e11b83526004830161293b565b03925af19081156101e9578591610fa5575b5090610f9b610fa092614082565b61237c565b610ec7565b919450506020813d602011610fdb575b81610fc260209383612054565b81010312610fd65751859390610f9b610f8d565b600080fd5b3d9150610fb5565b8360608601516004811015610ffe576101a790604435614f2c565b634e487b7160e01b82526021600452602482fd5b925090506020823d602011611041575b8161102f60209383612054565b81010312610fd6578391519085610ec4565b3d9150611022565b61106b915060e03d60e011611071575b6110638183612054565b8101906125b7565b88610e6f565b503d611059565b60405162461bcd60e51b815260206004820152602c60248201527f41444c20706f736974696f6e20616d6f756e74206e6f74206d6174636820646560448201526b31b932b0b9b29037b93232b960a11b6064820152608490fd5b602090604098939698516110e581611fe6565b8a81528a838201528a60408201528a60608201528a60808201528a60a08201528a60c08201528a60e08201528a6101008201528a6101208201528282880101520196949196610c9d565b61115391506101003d61010011611159575b61114b8183612054565b81019061262d565b38610c6e565b503d611141565b60405162461bcd60e51b815260206004820152600b60248201526a1b9bc81b9959590810511360aa1b6044820152606490fd5b6111b3929450803d106111bb575b6111ab8183612054565b810190613fd6565b913880610c25565b503d6111a1565b60405162461bcd60e51b815260206004820152601060248201526f0d8cadccee8d040dcdee840dac2e8c6d60831b6044820152606490fd5b506020813d60201161122d575b8161121460209383612054565b810103126106c357611228610bd09161218b565b610bc6565b3d9150611207565b90506020813d60201161126c575b8161125060209383612054565b810103126106c3576020611265602492612177565b9150610b8f565b3d9150611243565b503461023957806003193601126102395760209054604051908152f35b50346102395780600319360112610239576020600254604051908152f35b50346102395760209081600319360112610239576004356001600160401b03811161073d576112e29036906004016120fa565b6040516351331ad760e01b815290926001600160a01b039181816004817f000000000000000000000000000000000000000000000000000000000000000087165afa9081156104765790829185916113cd575b506024604051809581936335d2155560e11b8352336004840152165afa908115610686578391611396575b5061136b9150612198565b805b82518110156113925780610f9b61138761138d9386612544565b51615c55565b61136d565b5080f35b905081813d83116113c6575b6113ac8183612054565b8101031261073d576113c061136b9161218b565b38611360565b503d6113a2565b82819392503d83116113fc575b6113e48183612054565b810103126101de576113f68291612177565b38611335565b503d6113da565b50346102395760208060031936011261073d576040516351331ad760e01b81526001600160a01b03919081816004817f000000000000000000000000000000000000000000000000000000000000000087165afa801561047657829185916114dd575b506024604051809581936335d2155560e11b8352336004840152165afa9081156106865783916114a6575b8361149b83612198565b6101a7600435613e32565b905081813d83116114d6575b6114bc8183612054565b8101031261073d576114d061149b9161218b565b38611491565b503d6114b2565b82819392503d831161150c575b6114f48183612054565b810103126101de576115068291612177565b38611466565b503d6114ea565b50346102395760208060031936011261073d576040516351331ad760e01b815260048035916001600160a01b039184908290817f000000000000000000000000000000000000000000000000000000000000000086165afa80156101e9578491869161164e575b50602460405180948193637be53ca160e01b8352336004840152165afa908115610476578491611619575b50156115e4577fc4f93ed7d82b431d36b3c7670e42f8d5d8f19375008e1ab63c1f63c52e5c3f349160409160025491816002558351928352820152a180f35b60405162461bcd60e51b815260048101839052600d60248201526c37b7363ca837b7b620b236b4b760991b6044820152606490fd5b90508281813d8311611647575b6116308183612054565b810103126101de576116419061218b565b386115a5565b503d611626565b82819392503d831161167d575b6116658183612054565b810103126106c3576116778491612177565b3861157a565b503d61165b565b50346102395760208060031936011261073d576004356001600160401b038111610739576116b69036906004016120fa565b6040516351331ad760e01b815290916001600160a01b03919080826004817f000000000000000000000000000000000000000000000000000000000000000087165afa9182156101e957859261181d575b508060405180936335d2155560e11b8252336004830152816024968792165afa9081156101e95785916117e6575b506117409150612198565b825b82518110156106c7576117558184612544565b51303b156106c3576040519063e70da1b560e01b82526004820152600190818482015285808260448183305af191826117d2575b50506117c8576117976122cb565b6308c379a0146117b4575b610686576117af9061237c565b611742565b6117bc6122e9565b156117a25750836117a2565b506117af9061237c565b6117db90611fbd565b610223578538611789565b905081813d8311611816575b6117fc8183612054565b810103126101de576118106117409161218b565b38611735565b503d6117f2565b9080925081813d831161184d575b6118358183612054565b810103126106c35761184690612177565b9038611707565b503d61182b565b5034610239578060031960e036820112611b1f576001600160401b036004358181116105515761188890369060040161208c565b916024358281116106c3576118a19036906004016120fa565b91606435818111610223576118ba9036906004016120fa565b90608435908111610223576118d39036906004016120fa565b9360c4359360048510156104af576040516351331ad760e01b81526001600160a01b03906020907f00000000000000000000000000000000000000000000000000000000000000008316908281600481855afa908115610e1c57849184918d91611ae8575b506024604051809481936335d2155560e11b8352336004840152165afa8015610e1c5783918c91611aa6575b5091611971600493612198565b865186511480611a9e575b611985906121d9565b604051635ed6d55b60e11b815292839182905afa918215611a93578a92611a59575b50501691823b15610504576119d992889283604051809681958294631e09986f60e21b8452604435916004850161224a565b03925af190811561022e578691611a45575b5050303b156106c3578492610430611a32611a2394604051978896879663da9d857b60e01b8852608060048901526084880190612216565b91868303016024870152612216565b9160a435604485015260648401906122a8565b611a4e90611fbd565b6106c35784386119eb565b90809250813d8311611a8c575b611a708183612054565b81010312611a8857611a8190612177565b38806119a7565b8880fd5b503d611a66565b6040513d8c823e3d90fd5b50600161197c565b82819392503d8311611ae1575b611abd8183612054565b81010312611add57600491611971611ad5859361218b565b919350611964565b8a80fd5b503d611ab3565b92505081813d8311611b18575b611aff8183612054565b81010312611add5782611b128592612177565b38611938565b503d611af5565b50fd5b50346102395760a0366003190112610239576001600160401b039060043582811161073d57611b5590369060040161208c565b9160243581811161073957611b6e9036906004016120fa565b6064358281116101de57611b869036906004016120fa565b916084359081116101de57611b9f9036906004016120fa565b6040516351331ad760e01b8152909260209290916001600160a01b03907f00000000000000000000000000000000000000000000000000000000000000008216908581600481855afa90811561050f57839187918a91611dc3575b506024604051809481936335d2155560e11b8352336004840152165afa90811561050f579086918991611d85575b5091611c35600493612198565b895185511480611d7d575b611c49906121d9565b604051635ed6d55b60e11b815292839182905afa9081156104ba578791611d48575b501690813b1561022357958591611c9d9783604051809a81958294631e09986f60e21b8452604435916004850161224a565b03925af1801561047657611d34575b839450303b156105515783611cdc916040518093819263594c792d60e11b83528660048401526024830190612216565b038183305af1908115610476578491611d20575b5050303b1561045e576104309183916040519384928392631df92bbd60e31b845260048401526024830190612216565b611d2990611fbd565b61045e578238611cf0565b929093611d4090611fbd565b918390611cac565b90508481813d8311611d76575b611d5f8183612054565b810103126104af57611d7090612177565b38611c6b565b503d611d55565b506001611c40565b82819392503d8311611dbc575b611d9c8183612054565b8101031261050457600491611c35611db4889361218b565b919350611c28565b503d611d92565b92505081813d8311611df3575b611dda8183612054565b810103126105045785611ded8492612177565b38611bfa565b503d611dd0565b50346102395780600319360112610239576005546040516001600160a01b039091168152602090f35b50346102395780600319360112610239576006546040516001600160a01b039091168152602090f35b50346102395780600319360112610239576020600154604051908152f35b50346102395760208060031936011261073d576040516351331ad760e01b81526001600160a01b03919081816004817f000000000000000000000000000000000000000000000000000000000000000087165afa80156104765782918591611f44575b506024604051809581936335d2155560e11b8352336004840152165afa908115610686578391611f0d575b83611f0283612198565b6101a76004356123a1565b905081813d8311611f3d575b611f238183612054565b8101031261073d57611f37611f029161218b565b38611ef8565b503d611f19565b82819392503d8311611f73575b611f5b8183612054565b810103126101de57611f6d8291612177565b38611ecd565b503d611f51565b90503461073d578160031936011261073d577f00000000000000000000000000000000000000000000000000000000000000006001600160a01b03168152602090f35b6001600160401b038111611fd057604052565b634e487b7160e01b600052604160045260246000fd5b61014081019081106001600160401b03821117611fd057604052565b61016081019081106001600160401b03821117611fd057604052565b60e081019081106001600160401b03821117611fd057604052565b606081019081106001600160401b03821117611fd057604052565b90601f801991011681019081106001600160401b03821117611fd057604052565b6001600160401b038111611fd05760051b60200190565b81601f82011215610fd6578035916120a383612075565b926120b16040519485612054565b808452602092838086019260051b820101928311610fd6578301905b8282106120db575050505090565b81356001600160a01b0381168103610fd65781529083019083016120cd565b81601f82011215610fd65780359161211183612075565b9261211f6040519485612054565b808452602092838086019260051b820101928311610fd6578301905b828210612149575050505090565b8135815290830190830161213b565b6040906003190112610fd657600435906024356004811015610fd65790565b51906001600160a01b0382168203610fd657565b51908115158203610fd657565b1561219f57565b60405162461bcd60e51b815260206004820152601260248201527137b7363ca837b9b4ba34b7b725b2b2b832b960711b6044820152606490fd5b156121e057565b60405162461bcd60e51b815260206004820152600e60248201526d696e76616c696420706172616d7360901b6044820152606490fd5b90815180825260208080930193019160005b828110612236575050505090565b835185529381019392810192600101612228565b9392916060850191606086528051809352608086019260208092019060005b81811061228b575050508583039086015260409161228691612216565b930152565b82516001600160a01b031686529483019491830191600101612269565b9060048210156122b55752565b634e487b7160e01b600052602160045260246000fd5b60009060033d116122d857565b905060046000803e60005160e01c90565b600060443d1061234657604051600319913d83016004833e81516001600160401b03918282113d60248401111761234957818401948551938411612351573d85010160208487010111612349575061234692910160200190612054565b90565b949350505050565b50949350505050565b919261237560409295946060850196855260208501906122a8565b1515910152565b600019811461238b5760010190565b634e487b7160e01b600052601160045260246000fd5b60009081549060018060a01b036003602082825416936040948551928380926386249bab60e01b825260049586915afa90811561253a578891612509575b50808710156124ff578082116124f7575b50945b8581106124035750505050505050565b303b156104af57845163e70da1b560e01b8152818382015260249088828201526044908981838183305af190816124e8575b506124dd576001916124456122cb565b6308c379a01461246e575b50506124645761245f9061237c565b6123f3565b84513d88823e3d90fd5b6124766122e9565b156124505790915088918686541690813b15611add576064868c809460018995838f51998a98899763c250985960e01b89528801528601528401525af180156124d3576124c4575b80612450565b6124cd90611fbd565b386124be565b87513d8b823e3d90fd5b505061245f9061237c565b6124f190611fbd565b38612435565b9050386123f0565b5050505050505050565b90506020813d8211612532575b8161252360209383612054565b810103126105045751386123df565b3d9150612516565b86513d8a823e3d90fd5b80518210156125585760209160051b010190565b634e487b7160e01b600052603260045260246000fd5b9190820180921161238b57565b1561258257565b60405162461bcd60e51b815260206004820152600d60248201526c1bdc99195c88195e1c1a5c9959609a1b6044820152606490fd5b908160e0910312610fd65760c0604051916125d18361201e565b6125da81612177565b83526125e860208201612177565b60208401526125f960408201612177565b604084015261260a6060820161218b565b60608401526080810151608084015260a081015160a0840152015160c082015290565b80916101009283910312610fd657604051918201908282106001600160401b03831117611fd05760e091604052805183526020810151602084015260408101516040840152606081015160608401526080810151608084015260a081015160a084015260c081015160c0840152015160e082015290565b156126ab57565b60405162461bcd60e51b8152602060048201526012602482015271696e76616c69642074726164652073697a6560701b6044820152606490fd5b156126ec57565b60405162461bcd60e51b815260206004820152601760248201527f6e6f7420726561636820747269676765722070726963650000000000000000006044820152606490fd5b9190820391821161238b57565b9081610140910312610fd6576040519061275782611fe6565b8051825261276760208201612177565b6020830152604081015160408301526127826060820161218b565b60608301526080810151608083015260a081015160a083015260c081015160c083015260e081015160e08301526101008082015190830152610120809101519082015290565b908160c0910312610fd6576040519060c08201908282106001600160401b03831117611fd05760a0916040528051835260208101516020840152604081015160408401526060810151606084015260808101516080840152015160a082015290565b1561283157565b60405162461bcd60e51b815260206004820152601a60248201527f6c7020737461626c6520746f6b656e206e6f7420656e6f7567680000000000006044820152606490fd5b600160ff1b811461238b5760000390565b1561288e57565b60405162461bcd60e51b815260206004820152601960248201527f6c7020696e64657820746f6b656e206e6f7420656e6f756768000000000000006044820152606490fd5b60048210156122b55752565b91909160c08060e083019460018060a01b0381511684526020810151602085015260408101511515604085015260608101511515606085015261292a608082015160808601906122a8565b60a081015160a08501520151910152565b81516001600160a01b0316815260208083015190820152604080830151610160830194939161296d91908401906122a8565b606081015160608301526080810151608083015260a0810151151560a083015260c081015160c083015260e081015160e08301526101008082015190830152610120808201519083015261014080910151910152565b600354906000916040519163f9d244fd60e01b83528060048401526129eb60248401866122a8565b6101a080846044816001600160a01b0387165afa9384156101e95785946137e8575b505060208301516001600160a01b0316156137e15760048510156137cd5784156137ab575b604083810151600480549251632f7ce47360e21b81529081018290529094916001600160a01b031660e082602481845afa9182156104ba57879261378a575b50606082015115613745576006546020848101516040516372c1cc1b60e11b81526001600160a01b039182166004820152921692919081602481865afa90811561335a57899161370b575b506136d257610100602491604051928380926330a66e1560e01b82528b60048301525afa90811561050f5788916136b1575b50612b0760e0850151801590811561368b575b506126a4565b825160c085015160405163179a09e360e01b81526001600160a01b039092166004830152602482018990521515604482015295602087606481865afa96871561335a578997613657575b5086606086015160048110156135bd57158015613640575b156136115760c0860151156135e55760c083015161271080828103116135d157612ba491612b98910383613bec565b60a088015110156126e5565b606086015160048110156135bd57600114613572575b50602085015160408087015160c0880151915163bc95baad60e01b81526001600160a01b0390931660048401526024830152151560448201529161014083606481875afa928315611a93578a9361354b575b50612c4090612c1f8960e0890151613c91565b5060808701519060e088015181519060806020840151930151938c88613922565b501561350f5761012085015115801561348b575b1561345257610160850151159182156133cd575b50501561339457600554604051632500ed8d60e21b8152600481018890529060c090829060249082906001600160a01b03165afa90811561050f578891613365575b506040840151604051906301fd38f760e01b82526004820152602081602481865afa90811561335a578991613328575b508881126132c65760c08501511561328a5750612d01816020612d0d935191015190612731565b60e08501511115612887565b60808301519187831361320c575b50506006546020830151608084015160e085015160c0860151604080516370bf730b60e11b81526001600160a01b039586166004820152602481018c9052604481019490945260648401929092521515608483015260a482018890529097935091879160c49183918b91165af195861561320057809581976131c5575b506003546020840151604085015160c086015160608701516001600160a01b03948516949093169290151560048210156131b15790612e009160e08901519360405195612de48761201e565b86526020860152604085015260016060850152608084016128d3565b8660a083015260c0820152813b1561073957612e3583928392604051948580948193632670e98d60e01b8352600483016128df565b03925af180156104535790829161319d575b50610120840151806130ba575b5061016084015180612fd7575b505087612f47576003546001600160a01b0316803b1561073d57818091602460405180948193633e5005e560e01b83528a60048401525af1801561045357612f33575b5050916101409593917f462ad18c79032b6336d456416b46e1012c8ed1c03cd3ff073957ae8834539e729795935b612f1060018060a01b036020840151169760808401519260e060c08601511515950151956040519a8b5260208b015260408a015260608901906122a8565b608087015260a086015260c085015260e0840152610100830152610120820152a1565b612f3d8291611fbd565b6102395780612ea4565b60018814612f81575b50916101409593917f462ad18c79032b6336d456416b46e1012c8ed1c03cd3ff073957ae8834539e72979593612ed2565b6003546001600160a01b0316803b1561073d5781809160246040518094819363121494ed60e31b83528a60048401525af1801561045357612fc3575b50612f50565b612fcd8291611fbd565b6102395780612fbd565b600354602086810151604088015161014089015160c08a01519395613079956001600160a01b03908116959416931515919061301290612876565b926040519461302086612002565b85528785015260036040850152876060850152608084015260a083015260c08201528460e08201528461010082015284610120820152846101408201526040519485809481936302b9d03760e11b83526004830161293b565b03925af180156104535761308f575b8190612e61565b602090813d83116130b3575b6130a58183612054565b81010312610fd65738613088565b503d61309b565b600354602086810151604088015161010089015160c08a0151939561315c956001600160a01b0390811695941693151591906130f590612876565b926040519461310386612002565b85528785015260026040850152876060850152608084015260a083015260c08201528460e08201528461010082015284610120820152846101408201526040519485809481936302b9d03760e11b83526004830161293b565b03925af1801561045357613172575b8190612e54565b602090813d8311613196575b6131888183612054565b81010312610fd6573861316b565b503d61317e565b6131a690611fbd565b610239578038612e47565b634e487b7160e01b86526021600452602486fd5b955095506040853d6040116131f8575b816131e260409383612054565b8101031261022357602085519501519538612d98565b3d91506131d5565b604051903d90823e3d90fd5b602001516001600160a01b031691613223906138df565b91813b1561050457604051630d172a0160e01b81526001600160a01b0391821660048201529082166024820152604481019290925286908290606490829084905af1801561022e57613277575b8080612d1b565b61328390959195611fbd565b9338613270565b6132ba6132a483606060406132c196015191015190612731565b916132b48960e089015194613d0f565b9061256e565b101561282a565b612d0d565b60c085015115613301576132fa6132e78360206132c1955191015190612731565b6132f560e088015193612876565b61256e565b1015612887565b5061331981606060406132c194015191015190612731565b6132ba8760e087015192613d0f565b90506020813d602011613352575b8161334360209383612054565b81010312611a88575138612cda565b3d9150613336565b6040513d8b823e3d90fd5b613387915060c03d60c01161338d575b61337f8183612054565b8101906127c8565b38612caa565b503d613375565b60405162461bcd60e51b8152602060048201526011602482015270736c20616c72656164792065786973747360781b6044820152606490fd5b51604051630bc628fb60e01b81526004810191909152600360248201529150602090829060449082906001600160a01b03165afa90811561050f578891613418575b50153880612c68565b90506020813d60201161344a575b8161343360209383612054565b81010312610504576134449061218b565b3861340f565b3d9150613426565b60405162461bcd60e51b8152602060048201526011602482015270747020616c72656164792065786973747360781b6044820152606490fd5b508151604051630bc628fb60e01b81526004810191909152600260248201526020816044816001600160a01b0386165afa908115611a93578a916134d1575b5015612c54565b90506020813d602011613507575b816134ec60209383612054565b81010312613503576134fd9061218b565b386134ca565b8980fd5b3d91506134df565b60405162461bcd60e51b81526020600482015260146024820152731e995c9bc81c1bdcda5d1a5bdb88185b5bdd5b9d60621b6044820152606490fd5b612c4091935061356b906101403d61014011610e1557610e068183612054565b9290612c0c565b60c08601519197911561359f575060a0850151908082101561359857505b955b38612bba565b9050613590565b60a08601519150808211156135b657505b95613592565b90506135b0565b634e487b7160e01b8b52602160045260248bfd5b634e487b7160e01b8c52601160045260248cfd5b60c083015161271081810181116135d157612ba491613605910183613bec565b60a088015111156126e5565b60c0860151156136305761362b60a08701518210156126e5565b612ba4565b61362b60a08701518211156126e5565b50606086015160048110156135bd57600114612b69565b9096506020813d602011613683575b8161367360209383612054565b81010312611a8857519538612b51565b3d9150613666565b60408401518110159150816136a2575b5038612b01565b9050606083015110153861369b565b6136cc91506101003d610100116111595761114b8183612054565b38612aee565b60405162461bcd60e51b815260206004820152601160248201527030b1b1b7bab73a1034b990333937bd32b760791b6044820152606490fd5b90506020813d60201161373d575b8161372660209383612054565b81010312611a88576137379061218b565b38612abc565b3d9150613719565b60405162461bcd60e51b815260206004820152601860248201527f74726164652070616972206e6f7420737570706f7274656400000000000000006044820152606490fd5b6137a491925060e03d60e011611071576110638183612054565b9038612a71565b6137c86137c06101808501516002549061256e565b42111561257b565b612a32565b634e487b7160e01b84526021600452602484fd5b5050505050565b908092945081813d83116138d8575b6138018183612054565b810103126106c3576040519182018281106001600160401b038211176138c4576040528051825261383460208201612177565b602083015260408101516040830152606081015160048110156102235760608301526080810151608083015260a081015160a083015261387660c0820161218b565b60c083015260e081015160e083015261010080820151908301526101208082015190830152610140808201519083015261016080820151908301526101808091015190820152913880612a0d565b634e487b7160e01b86526041600452602486fd5b503d6137f7565b600081126138ea5790565b61234690612876565b9190916000838201938412911290801582169115161761238b57565b8181029291811591840414171561238b57565b949196959390926139378160a088015161256e565b978815613ae45761394c9060808801516138f3565b9560008712613a945781613a76575b505060008512613a31576139809061397b84613976886138df565b613d0f565b61390f565b8610159182613a15575b5050156139db5783116139a057612346906138df565b60405162461bcd60e51b815260206004820152601360248201527232bc31b2b2b21036b0bc103837b9b4ba34b7b760691b6044820152606490fd5b60405162461bcd60e51b81526020600482015260126024820152711b195d995c9859d9481a5b98dbdc9c9958dd60721b6044820152606490fd5b613a27925061397b90613976866138df565b841115388061398a565b60405162461bcd60e51b815260206004820152601d60248201527f636f6c6c61746572616c206e6f7420656e6f75676820666f7220706e6c0000006044820152606490fd5b84613a8c939792613a8692613b58565b906138f3565b93388061395b565b60405162461bcd60e51b815260206004820152602260248201527f636f6c6c61746572616c206e6f7420656e6f75676820666f7220646563726561604482015261736560f01b6064820152608490fd5b505050505050509050600090600090565b9491969593909260a0860181815110613b1357816139379151612731565b60405162461bcd60e51b815260206004820152601f60248201527f646563726561736520616d6f756e742065786365656420706f736974696f6e006044820152606490fd5b60c08101908151908185148015613be4575b613bda576060015115613bb05750805180841115613b98575061234692613b92915190612731565b90613c91565b613bab92915061234693613b9291612731565b612876565b83811115613bc7575061234692613b929151612731565b613bab929150613b929061234694612731565b5050505050600090565b508115613b6a565b9060001981830981830291828083109203918083039214613c86576127109082821115613c49577fbc01a36e2eb1c432ca57a786c226809d495182a9930be0ded288ce703afb7e91940990828211900360fc1b910360041c170290565b60405162461bcd60e51b81526020600482015260156024820152744d6174683a206d756c446976206f766572666c6f7760581b6044820152606490fd5b505061271091500490565b9060001981830981830291828083109203918083039214613cf9576c0c9f2c9cd04674edea400000009082821115613c49577f7d33c22789773a07feda8b6f0930e26fa397c439f1d5cf4b2eb27d7306d2dc99940990828211900360e21b9103601e1c170290565b50506c0c9f2c9cd04674edea4000000091500490565b906c0c9f2c9cd04674edea40000000906000198284099282810292838086109503948086039514613d945784831115613c49578291096001821901821680920460028082600302188083028203028083028203028083028203028083028203028083028203028092029003029360018380600003040190848311900302920304170290565b505080925015613da2570490565b634e487b7160e01b600052601260045260246000fd5b90612710906000198284099282810292838086109503948086039514613d945784831115613c49578291096001821901821680920460028082600302188083028203028083028203028083028203028083028203028083028203028092029003029360018380600003040190848311900302920304170290565b600180546003805460408051631ca37ea160e11b8152909593946001600160a01b03949092600492906020908290859082908a165afa908115613fcb57600091613f9a575b50808710156124ff57808211613f92575b50945b858110613e9b5750505050505050565b303b15610fd6578651630fdc860f60e41b81528183820152602490600082820152604490600081838183305af19081613f83575b50613f78578491613ede6122cb565b6308c379a014613f08575b5050613efd57613ef89061237c565b613e8b565b86513d6000823e3d90fd5b613f106122e9565b15613ee9579091506000918787541690813b156101de57606486858094818f95818b9751998a98899763c250985960e01b89528801528601528401525af18015613f6e57613f5f575b80613ee9565b613f6890611fbd565b38613f59565b89513d84823e3d90fd5b5050613ef89061237c565b613f8c90611fbd565b38613ecf565b905038613e88565b906020823d8211613fc3575b81613fb360209383612054565b8101031261023957505138613e77565b3d9150613fa6565b88513d6000823e3d90fd5b9081610160910312610fd65760405190613fef82612002565b80518252613fff60208201612177565b60208301526040810151604083015260608101516004811015610fd65760608301526080810151608083015260a081015160a083015260c081015160c083015261404b60e0820161218b565b60e083015261010061405e81830161218b565b90830152610120808201519083015261407b61014080920161218b565b9082015290565b6003546040516340b4605b60e11b8152600481018390526000602482018190529092916001600160a01b03169061016084604481855afa938415614f1f578194614efc575b5060208401516001600160a01b031615614ef65760608401516004811015610ffe5715614edc575b60408401519360018060a01b036004541660405193632f7ce47360e21b855286600486015260e085602481855afa948515610476578495614ebb575b50600654602084015160408086015160e0870151915163bc95baad60e01b81526001600160a01b039384166004820152602481019190915290151560448201529691169061014087606481855afa96871561022e578697614e98575b5060a087015115614e8d57610100602494604051958680926330a66e1560e01b82528d60048301525afa93841561022e578694614e6a575b506141ee60c086015160a0890151808210600014614e6357505b8060c08801528015908115614e3e57506126a4565b5160e085015160405163179a09e360e01b81526001600160a01b039092166004830152602482018a90521515604482015292602084606481855afa93841561022e578694614e0a575b508360608601516004811015614a2a57158015614df3575b15614dc35761010086015115614da35760c08201516127108082810311614d8f5761427f91612b98910383613bec565b60608601516004811015614a2a57600114614d3e575b506142c9906142a88560c0880151613c91565b5060808601519060c08701518151906080602084015193015193888c613af5565b5050600554604051632500ed8d60e21b8152600481018a90529060c090829060249082906001600160a01b03165afa90811561022e578691614d1f575b50602060408601516024604051809581936301fd38f760e01b835260048301525afa91821561022e578692614ceb575b50858212614c9c5760e0850151614c6d5761435991506020815191015190612731565b60c08401511190815b614b7957505082608083015113614a84575b6006546020830151608084015160c085015160e08601516040516387d4f0d560e01b81526001600160a01b039485166004820152602481018c9052604481019390935260648301919091521515608482015260a481018490529691606091889160c49183918991165af192831561047657849585978695614a3e575b50606082015160048110156145ec576148fa57506003546001600160a01b0316803b156102235785809160246040518094819363be82e5b160e01b83528860048401525af1801561022e579086916148e6575b50505b60018060a01b036003541660018060a01b03602083015116604083015160e08401511515606085015160048110156148d2576144ad9086519260c088015194604051966144928861201e565b8752602087015260408601528a6060860152608085016128d3565b60a083015260c0820152813b156104af576144e187928392604051948580948193632670e98d60e01b8352600483016128df565b03925af1801561022e579086916148be575b5050600654602082015160408084015160e0850151915163bc95baad60e01b81526001600160a01b03938416600482015260248101919091529015156044820152916101409183916064918391165afa90811561022e579060a091879161489d575b50015115614600575b602081015160608201516001600160a01b039091169860048210156145ec57916145c36000805160206160738339815191529a989694926101609a98969460c060e08501511515940151946040519b8c5260208c015260408b015260608a01906122a8565b608088015260a087015260c086015260e0850152610100840152610120830152610140820152a1565b634e487b7160e01b87526021600452602487fd5b9693979491602088979492970151604089015160e08a015115156040519160208301936bffffffffffffffffffffffff199060601b168452603483015260f81b60548201526035815261465281612039565b519020968960018060a01b0360035416986024604051809b8193634cc42b5160e01b835260048301525afa978815611a93578a98614760575b50895b8851811015614751576146a1818a612544565b516060810151156146bc575b506146b79061237c565b61468e565b60018060a01b036003541690608060a0820151910151600481101561473d579082918e933b156101de57606484928361471095604051968795869463c250985960e01b8652600486015260248501906122a8565b8160448401525af1801561045357614729575b506146ad565b61473290611fbd565b611add578a38614723565b634e487b7160e01b8e52602160045260248efd5b5091939650919497939661455e565b9097503d808b833e6147728183612054565b6020828281010312611add578151906001600160401b03821161489957808301601f8385010112156148995781830151906147ac82612075565b936147ba6040519586612054565b8285526020850193828201602060e086028385010101116148955793602085830101945b602060e08602828501010186106147fc57505050505050963861468b565b60e086858501031261489157604051916148158361201e565b61481e87612177565b8352602087015160208401526148366040880161218b565b60408401526148476060880161218b565b6060840152608087015192600484101561488b57602060e09282829660808695015260a08b015160a082015260c08b015160c08201528152019701969250506147de565b50508f80fd5b8f80fd5b8e80fd5b8b80fd5b6148b891506101403d61014011610e1557610e068183612054565b38614555565b6148c790611fbd565b6106c35784386144f3565b634e487b7160e01b8a52602160045260248afd5b6148ef90611fbd565b6106c3578438614443565b606082015160048110156145ec5760010361496a57506003546001600160a01b0316803b15610223578580916024604051809481936304d3cb8160e41b83528860048401525af1801561022e57908691614956575b5050614446565b61495f90611fbd565b6106c357843861494f565b60035490516060830151916001600160a01b03166004831015614a2a57803b15610504579160648892836149b9956040519687958694634136de9f60e01b8652600486015260248501906122a8565b8160448401525af1801561022e57908691614a16575b50506003546001600160a01b0316803b15610223578580916024604051809481936304d3cb8160e41b83528860048401525af1801561022e57908691614956575050614446565b614a1f90611fbd565b6106c35784386149cf565b634e487b7160e01b88526021600452602488fd5b9650935095506060853d606011614a7c575b81614a5d60609383612054565b810103126101de578451956040602087015196015196959693386143f0565b3d9150614a50565b600480546040868101519051632f7ce47360e21b81529283015260e090829060249082906001600160a01b03165afa908115610476578491614b5a575b5060065460209091015160055460808501516001600160a01b03928316938316929190911690614af0906138df565b92823b156104af57604051630d172a0160e01b81526001600160a01b03918216600482015291166024820152604481019290925284908290606490829084905af1801561047657908491614b46575b5050614374565b614b4f90611fbd565b610739578238614b3f565b614b73915060e03d60e011611071576110638183612054565b38614ac1565b90945060608392949693015160048110156145ec57813b156104af5785614bba9288928360405180968195829463c1872cf360e01b84528b6004850161235a565b03925af1801561022e57614c5a575b50602081015160608201516001600160a01b039091169660048210156145ec5791614c2d6000805160206160738339815191529896949261016098969460c060e0850151151594015194604051998a5260208a0152604089015260608801906122a8565b608086015260a085015260c08401528160e0840152151561010083015280610120830152610140820152a1565b614c6690959195611fbd565b9338614bc9565b614c848160606040614c9494015191015190612731565b916132b48560c088015194613d0f565b109081614362565b60e0850151614cc757614cb9816020614c94935191015190612731565b6132f560c087015193612876565b614cdc91506060604082015191015190612731565b614c948360c086015192613d0f565b9091506020813d602011614d17575b81614d0760209383612054565b8101031261022357519038614336565b3d9150614cfa565b614d38915060c03d60c01161338d5761337f8183612054565b38614306565b936142c9919460e087015115600014614d71575060a08601519080821015614d6a57505b935b90614295565b9050614d62565b60a0870151915080821115614d8857505b93614d64565b9050614d82565b634e487b7160e01b89526011600452602489fd5b60c08201516127108181018111614d8f5761427f91613605910183613bec565b61010086015115614de357614dde60a08701518211156126e5565b61427f565b614dde60a08701518210156126e5565b5060608601516004811015614a2a5760011461424f565b9093506020813d602011614e36575b81614e2660209383612054565b8101031261022357519238614237565b3d9150614e19565b6040870151811015915081614e54575038612b01565b9050606086015110153861369b565b90506141d9565b614e869194506101003d610100116111595761114b8183612054565b92386141bf565b505050505050505050565b614eb49197506101403d61014011610e1557610e068183612054565b9538614187565b614ed591955060e03d60e011611071576110638183612054565b933861412b565b614ef16137c06101208601516002549061256e565b6140ef565b50505050565b614f189194506101603d610160116111bb576111ab8183612054565b92386140c7565b50604051903d90823e3d90fd5b6003546000614f52604051946340b4605b60e11b865284600487015260248601906122a8565b610160846044816001600160a01b0386165afa938415614f1f578194615c32575b5060208401516001600160a01b031615614ef65760608401516004811015610ffe5715615c18575b60408401519360018060a01b036004541660405193632f7ce47360e21b855286600486015260e085602481855afa948515610476578495615bf7575b50600654602084015160408086015160e0870151915163bc95baad60e01b81526001600160a01b039384166004820152602481019190915290151560448201529691169061014087606481855afa96871561022e578697615bd4575b5060a087015115614e8d57610100602494604051958680926330a66e1560e01b82528d60048301525afa93841561022e578694615bb1575b5061509960c086015160a0890151808210600014614e6357508060c08801528015908115614e3e57506126a4565b5160e085015160405163179a09e360e01b81526001600160a01b039092166004830152602482018a90521515604482015292602084606481855afa93841561022e578694615b7d575b508360608601516004811015614a2a57158015615b66575b15615b365761010086015115615b165760c08201516127108082810311614d8f5761512a91612b98910383613bec565b60608601516004811015614a2a57600114615ac5575b50615153906142a88560c0880151613c91565b5050600554604051632500ed8d60e21b8152600481018a90529060c090829060249082906001600160a01b03165afa90811561022e578691615aa6575b50602060408601516024604051809581936301fd38f760e01b835260048301525afa91821561022e578692615a72575b50858212615a315760e0850151615a12576151e391506020815191015190612731565b60c08401511190815b61594d57505082608083015113615858575b6006546020830151608084015160c085015160e08601516040516387d4f0d560e01b81526001600160a01b039485166004820152602481018c9052604481019390935260648301919091521515608482015260a481018490529691606091889160c49183918991165af192831561047657849585978695615812575b50606082015160048110156145ec576156e257506003546001600160a01b0316803b156102235785809160246040518094819363be82e5b160e01b83528860048401525af1801561022e579086916156ce575b50505b60018060a01b036003541660018060a01b03602083015116604083015160e08401511515606085015160048110156148d25761531c9086519260c088015194604051966144928861201e565b60a083015260c0820152813b156104af5761535087928392604051948580948193632670e98d60e01b8352600483016128df565b03925af1801561022e579086916156ba575b5050600654602082015160408084015160e0850151915163bc95baad60e01b81526001600160a01b03938416600482015260248101919091529015156044820152916101409183916064918391165afa90811561022e579060a0918791615699575b5001511561543157602081015160608201516001600160a01b039091169860048210156145ec57916145c36000805160206160738339815191529a989694926101609a98969460c060e08501511515940151946040519b8c5260208c015260408b015260608a01906122a8565b9693979491602088979492970151604089015160e08a015115156040519160208301936bffffffffffffffffffffffff199060601b168452603483015260f81b60548201526035815261548381612039565b519020968960018060a01b0360035416986024604051809b8193634cc42b5160e01b835260048301525afa978815611a93578a9861556e575b50895b8851811015614751576154d2818a612544565b516060810151156154ed575b506154e89061237c565b6154bf565b60018060a01b036003541690608060a0820151910151600481101561473d579082918e933b156101de57606484928361554195604051968795869463c250985960e01b8652600486015260248501906122a8565b8160448401525af180156104535761555a575b506154de565b61556390611fbd565b611add578a38615554565b9097503d808b833e6155808183612054565b6020828281010312611add578151906001600160401b03821161489957808301601f8385010112156148995781830151906155ba82612075565b936155c86040519586612054565b8285526020850193828201602060e086028385010101116148955793602085830101945b602060e086028285010101861061560a5750505050505096386154bc565b60e086858501031261489157604051916156238361201e565b61562c87612177565b8352602087015160208401526156446040880161218b565b60408401526156556060880161218b565b6060840152608087015192600484101561488b57602060e09282829660808695015260a08b015160a082015260c08b015160c08201528152019701969250506155ec565b6156b491506101403d61014011610e1557610e068183612054565b386153c4565b6156c390611fbd565b6106c3578438615362565b6156d790611fbd565b6106c35784386152cd565b606082015160048110156145ec5760010361575257506003546001600160a01b0316803b15610223578580916024604051809481936304d3cb8160e41b83528860048401525af1801561022e5790869161573e575b50506152d0565b61574790611fbd565b6106c3578438615737565b60035490516060830151916001600160a01b03166004831015614a2a57803b15610504579160648892836157a1956040519687958694634136de9f60e01b8652600486015260248501906122a8565b8160448401525af1801561022e579086916157fe575b50506003546001600160a01b0316803b15610223578580916024604051809481936304d3cb8160e41b83528860048401525af1801561022e5790869161573e5750506152d0565b61580790611fbd565b6106c35784386157b7565b9650935095506060853d606011615850575b8161583160609383612054565b810103126101de5784519560406020870151960151969596933861527a565b3d9150615824565b600480546040868101519051632f7ce47360e21b81529283015260e090829060249082906001600160a01b03165afa90811561047657849161592e575b5060065460209091015160055460808501516001600160a01b039283169383169291909116906158c4906138df565b92823b156104af57604051630d172a0160e01b81526001600160a01b03918216600482015291166024820152604481019290925284908290606490829084905af180156104765790849161591a575b50506151fe565b61592390611fbd565b610739578238615913565b615947915060e03d60e011611071576110638183612054565b38615895565b90945060608392949693015160048110156145ec576001600160a01b0382163b156104af57856159979288928360405180968195829463c1872cf360e01b84528b6004850161235a565b03926001600160a01b03165af1801561022e57614c5a5750602081015160608201516001600160a01b039091169660048210156145ec5791614c2d6000805160206160738339815191529896949261016098969460c060e0850151151594015194604051998a5260208a0152604089015260608801906122a8565b614c848160606040615a2994015191015190612731565b1090816151ec565b60e0850151615a4e57614cb9816020615a29935191015190612731565b615a6391506060604082015191015190612731565b615a298360c086015192613d0f565b9091506020813d602011615a9e575b81615a8e60209383612054565b81010312610223575190386151c0565b3d9150615a81565b615abf915060c03d60c01161338d5761337f8183612054565b38615190565b93615153919460e087015115600014615af8575060a08601519080821015615af157505b935b90615140565b9050615ae9565b60a0870151915080821115615b0f57505b93615aeb565b9050615b09565b60c08201516127108181018111614d8f5761512a91613605910183613bec565b61010086015115615b5657615b5160a08701518211156126e5565b61512a565b615b5160a08701518210156126e5565b5060608601516004811015614a2a576001146150fa565b9093506020813d602011615ba9575b81615b9960209383612054565b81010312610223575192386150e2565b3d9150615b8c565b615bcd9194506101003d610100116111595761114b8183612054565b923861506b565b615bf09197506101403d61014011610e1557610e068183612054565b9538615033565b615c1191955060e03d60e011611071576110638183612054565b9338614fd7565b615c2d6137c06101208601516002549061256e565b614f9b565b615c4e9194506101603d610160116111bb576111ab8183612054565b9238614f73565b600654604051636468402960e11b8152600481018390526001600160a01b03909116929190600061014082602481885afa918215614f1f57819261604f575b5060a08201511561604857600480546040848101519051632f7ce47360e21b8152928301526001600160a01b03169060e081602481855afa9081156106865796602091615d279798859161602a575b50516040868101516060880151915163179a09e360e01b81526001600160a01b03909316600484015260248301521515604482015296879190829081906064820190565b03915afa948515610453578295615ff6575b50615d56615d4c8660a086015186613b58565b60808501516138f3565b9061010060408501516024604051809481936330a66e1560e01b835260048301525afa908115610686578391615fd5575b50828213615fa157505060015b15614ef6576003546020830151604084015160608501511515926001600160a01b039081169216823b156106c357604051638ffb8b2f60e01b81526001600160a01b039190911660048201526024810191909152911515604483015282908290606490829084905af1801561045357615f92575b5090816020615ea760018060a01b036003541660018060a01b038386015116604086015160608701511515615e4060a0890151612876565b9160405193615e4e85612002565b8452868401528660408401528660608401528a608084015260a083015260c08201528460e08201528461010082015284610120820152846101408201526040519485809481936302b9d03760e11b83526004830161293b565b03925af19283156132005792615f3c575b50907faac40228c5d58dfc6360c331165fa5a8fa13f51c87a6124cb1999a4c6117bb79936101009392615eea83614082565b60018060a01b036020820151169060408101516060820151151590608060a084015193015193604051978852602088015260408701526060860152608085015260a084015260c083015260e0820152a1565b9291506020833d602011615f8a575b81615f5860209383612054565b81010312610fd657915190917faac40228c5d58dfc6360c331165fa5a8fa13f51c87a6124cb1999a4c6117bb79615eb8565b3d9150615f4b565b615f9b90611fbd565b38615e08565b61271091615fc9615fce9260a0615fc08189015160c08a015190613c91565b91015190613bec565b613db8565b1015615d94565b615ff091506101003d610100116111595761114b8183612054565b38615d87565b9094506020813d602011616022575b8161601260209383612054565b8101031261073d57519338615d39565b3d9150616005565b616042915060e03d8111611071576110638183612054565b38615ce3565b5050509050565b61606b9192506101403d61014011610e1557610e068183612054565b9038615c9456fe9b4ff42a2fc7960edd49c603150f69894e46d386129c040ae7519a427fee0613a26469706673582212202a7f6a179fd1e13dd42aa23a6da4cd1f7c941c7aa262669045ea30cd3a06073564736f6c63430008110033",
  "devdoc": {
    "kind": "dev",
    "methods": {},
    "version": 1
  },
  "userdoc": {
    "kind": "user",
    "methods": {},
    "version": 1
  },
  "storageLayout": {
    "storage": [
      {
        "astId": 25193,
        "contract": "contracts/trading/Executor.sol:Executor",
        "label": "increaseMarketOrderStartIndex",
        "offset": 0,
        "slot": "0",
        "type": "t_uint256"
      },
      {
        "astId": 25196,
        "contract": "contracts/trading/Executor.sol:Executor",
        "label": "decreaseMarketOrderStartIndex",
        "offset": 0,
        "slot": "1",
        "type": "t_uint256"
      },
      {
        "astId": 25199,
        "contract": "contracts/trading/Executor.sol:Executor",
        "label": "maxTimeDelay",
        "offset": 0,
        "slot": "2",
        "type": "t_uint256"
      },
      {
        "astId": 25205,
        "contract": "contracts/trading/Executor.sol:Executor",
        "label": "orderManager",
        "offset": 0,
        "slot": "3",
        "type": "t_contract(IOrderManager)17081"
      },
      {
        "astId": 25208,
        "contract": "contracts/trading/Executor.sol:Executor",
        "label": "pairInfo",
        "offset": 0,
        "slot": "4",
        "type": "t_contract(IPairInfo)24068"
      },
      {
        "astId": 25211,
        "contract": "contracts/trading/Executor.sol:Executor",
        "label": "pairVault",
        "offset": 0,
        "slot": "5",
        "type": "t_contract(IPairVault)24214"
      },
      {
        "astId": 25214,
        "contract": "contracts/trading/Executor.sol:Executor",
        "label": "positionManager",
        "offset": 0,
        "slot": "6",
        "type": "t_contract(IPositionManager)17384"
      }
    ],
    "types": {
      "t_contract(IOrderManager)17081": {
        "encoding": "inplace",
        "label": "contract IOrderManager",
        "numberOfBytes": "20"
      },
      "t_contract(IPairInfo)24068": {
        "encoding": "inplace",
        "label": "contract IPairInfo",
        "numberOfBytes": "20"
      },
      "t_contract(IPairVault)24214": {
        "encoding": "inplace",
        "label": "contract IPairVault",
        "numberOfBytes": "20"
      },
      "t_contract(IPositionManager)17384": {
        "encoding": "inplace",
        "label": "contract IPositionManager",
        "numberOfBytes": "20"
      },
      "t_uint256": {
        "encoding": "inplace",
        "label": "uint256",
        "numberOfBytes": "32"
      }
    }
  }
}