{
  "address": "0x505fe0E4463B9d548831D405d165265a8Ac06270",
  "abi": [
    {
      "inputs": [
        {
          "internalType": "contract IPool",
          "name": "_pool",
          "type": "address"
        }
      ],
      "stateMutability": "nonpayable",
      "type": "constructor"
    },
    {
      "anonymous": false,
      "inputs": [
        {
          "indexed": true,
          "internalType": "address",
          "name": "previousOwner",
          "type": "address"
        },
        {
          "indexed": true,
          "internalType": "address",
          "name": "newOwner",
          "type": "address"
        }
      ],
      "name": "OwnershipTransferred",
      "type": "event"
    },
    {
      "anonymous": false,
      "inputs": [
        {
          "indexed": false,
          "internalType": "address",
          "name": "account",
          "type": "address"
        }
      ],
      "name": "Paused",
      "type": "event"
    },
    {
      "anonymous": false,
      "inputs": [
        {
          "indexed": true,
          "internalType": "uint256",
          "name": "pairIndex",
          "type": "uint256"
        },
        {
          "indexed": true,
          "internalType": "address",
          "name": "pairToken",
          "type": "address"
        },
        {
          "indexed": true,
          "internalType": "address",
          "name": "account",
          "type": "address"
        },
        {
          "indexed": false,
          "internalType": "uint256",
          "name": "amount",
          "type": "uint256"
        }
      ],
      "name": "Stake",
      "type": "event"
    },
    {
      "anonymous": false,
      "inputs": [
        {
          "indexed": false,
          "internalType": "address",
          "name": "account",
          "type": "address"
        }
      ],
      "name": "Unpaused",
      "type": "event"
    },
    {
      "anonymous": false,
      "inputs": [
        {
          "indexed": true,
          "internalType": "uint256",
          "name": "pairIndex",
          "type": "uint256"
        },
        {
          "indexed": true,
          "internalType": "address",
          "name": "pairToken",
          "type": "address"
        },
        {
          "indexed": true,
          "internalType": "address",
          "name": "account",
          "type": "address"
        },
        {
          "indexed": false,
          "internalType": "uint256",
          "name": "amount",
          "type": "uint256"
        }
      ],
      "name": "Unstake",
      "type": "event"
    },
    {
      "inputs": [
        {
          "internalType": "address",
          "name": "",
          "type": "address"
        }
      ],
      "name": "isHandler",
      "outputs": [
        {
          "internalType": "bool",
          "name": "",
          "type": "bool"
        }
      ],
      "stateMutability": "view",
      "type": "function"
    },
    {
      "inputs": [
        {
          "internalType": "uint256",
          "name": "",
          "type": "uint256"
        }
      ],
      "name": "maxStakeAmount",
      "outputs": [
        {
          "internalType": "uint256",
          "name": "",
          "type": "uint256"
        }
      ],
      "stateMutability": "view",
      "type": "function"
    },
    {
      "inputs": [],
      "name": "owner",
      "outputs": [
        {
          "internalType": "address",
          "name": "",
          "type": "address"
        }
      ],
      "stateMutability": "view",
      "type": "function"
    },
    {
      "inputs": [],
      "name": "pause",
      "outputs": [],
      "stateMutability": "nonpayable",
      "type": "function"
    },
    {
      "inputs": [],
      "name": "paused",
      "outputs": [
        {
          "internalType": "bool",
          "name": "",
          "type": "bool"
        }
      ],
      "stateMutability": "view",
      "type": "function"
    },
    {
      "inputs": [],
      "name": "pool",
      "outputs": [
        {
          "internalType": "contract IPool",
          "name": "",
          "type": "address"
        }
      ],
      "stateMutability": "view",
      "type": "function"
    },
    {
      "inputs": [],
      "name": "renounceOwnership",
      "outputs": [],
      "stateMutability": "nonpayable",
      "type": "function"
    },
    {
      "inputs": [
        {
          "internalType": "address",
          "name": "_handler",
          "type": "address"
        },
        {
          "internalType": "bool",
          "name": "enable",
          "type": "bool"
        }
      ],
      "name": "setHandler",
      "outputs": [],
      "stateMutability": "nonpayable",
      "type": "function"
    },
    {
      "inputs": [
        {
          "internalType": "uint256",
          "name": "_pairIndex",
          "type": "uint256"
        },
        {
          "internalType": "uint256",
          "name": "_maxStakeAmount",
          "type": "uint256"
        }
      ],
      "name": "setMaxStakeAmount",
      "outputs": [],
      "stateMutability": "nonpayable",
      "type": "function"
    },
    {
      "inputs": [
        {
          "internalType": "contract IPool",
          "name": "_pool",
          "type": "address"
        }
      ],
      "name": "setPairInfo",
      "outputs": [],
      "stateMutability": "nonpayable",
      "type": "function"
    },
    {
      "inputs": [
        {
          "internalType": "uint256",
          "name": "pairIndex",
          "type": "uint256"
        },
        {
          "internalType": "uint256",
          "name": "amount",
          "type": "uint256"
        }
      ],
      "name": "stake",
      "outputs": [],
      "stateMutability": "nonpayable",
      "type": "function"
    },
    {
      "inputs": [
        {
          "internalType": "uint256",
          "name": "pairIndex",
          "type": "uint256"
        },
        {
          "internalType": "address",
          "name": "funder",
          "type": "address"
        },
        {
          "internalType": "address",
          "name": "account",
          "type": "address"
        },
        {
          "internalType": "uint256",
          "name": "amount",
          "type": "uint256"
        }
      ],
      "name": "stakeForAccount",
      "outputs": [],
      "stateMutability": "nonpayable",
      "type": "function"
    },
    {
      "inputs": [
        {
          "internalType": "uint256",
          "name": "",
          "type": "uint256"
        }
      ],
      "name": "totalStaked",
      "outputs": [
        {
          "internalType": "uint256",
          "name": "",
          "type": "uint256"
        }
      ],
      "stateMutability": "view",
      "type": "function"
    },
    {
      "inputs": [
        {
          "internalType": "address",
          "name": "newOwner",
          "type": "address"
        }
      ],
      "name": "transferOwnership",
      "outputs": [],
      "stateMutability": "nonpayable",
      "type": "function"
    },
    {
      "inputs": [],
      "name": "unpause",
      "outputs": [],
      "stateMutability": "nonpayable",
      "type": "function"
    },
    {
      "inputs": [
        {
          "internalType": "uint256",
          "name": "pairIndex",
          "type": "uint256"
        },
        {
          "internalType": "uint256",
          "name": "amount",
          "type": "uint256"
        }
      ],
      "name": "unstake",
      "outputs": [],
      "stateMutability": "nonpayable",
      "type": "function"
    },
    {
      "inputs": [
        {
          "internalType": "uint256",
          "name": "pairIndex",
          "type": "uint256"
        },
        {
          "internalType": "address",
          "name": "account",
          "type": "address"
        },
        {
          "internalType": "address",
          "name": "receiver",
          "type": "address"
        },
        {
          "internalType": "uint256",
          "name": "amount",
          "type": "uint256"
        }
      ],
      "name": "unstakeForAccount",
      "outputs": [],
      "stateMutability": "nonpayable",
      "type": "function"
    },
    {
      "inputs": [
        {
          "internalType": "uint256",
          "name": "",
          "type": "uint256"
        },
        {
          "internalType": "address",
          "name": "",
          "type": "address"
        }
      ],
      "name": "userStaked",
      "outputs": [
        {
          "internalType": "uint256",
          "name": "",
          "type": "uint256"
        }
      ],
      "stateMutability": "view",
      "type": "function"
    }
  ],
  "transactionHash": "0x2561794430f53c6f24494dac15c0931c7ebf8b7e9cf168366fefcb3918990818",
  "args": [
    "0xD2605f821EDB524958dbc6202E692f21802369E1"
  ],
  "numDeployments": 1,
  "solcInputHash": "a0a35a8cc001b329f8e259ab1e7a3059",
  "bytecode": "0x6080346100b557601f61102e38819003918201601f19168301916001600160401b038311848410176100ba578084926020946040528339810103126100b557516001600160a01b0390818116908190036100b55760ff19600054166000556001805560025460018060a01b0319903382821617600255604051933391167f8be0079c531659141344cd1fd0a4f28419497f9722a3daafe3b4186f6b6457e0600080a36003541617600355610f5d90816100d18239f35b600080fd5b634e487b7160e01b600052604160045260246000fdfe6080604081815260048036101561001557600080fd5b600092833560e01c90816316f0115b14610568575080633f4ba83a1461050a57806341cb8c20146104e357806346ea87af146104a557806350ae34b81461046157806353d51a6c1461043b5780635c975abb14610419578063715018a6146103bc5780637b0472f0146103985780638456cb59146103375780638c6e3617146102fb5780638da5cb5b146102d257806396ddecfc146102ab5780639cb7de4b146102555780639e2c8a5b1461022b578063f2fde38b14610160578063f49a9b8a146101135763f99ec3e2146100e957600080fd5b3461010f57602036600319011261010f5760209282913581526005845220549051908152f35b8280fd5b83823461015c57602036600319011261015c57356001600160a01b0381169081900361015c576101416105f7565b6bffffffffffffffffffffffff60a01b600354161760035580f35b5080fd5b503461010f57602036600319011261010f5761017a61058d565b906101836105f7565b6001600160a01b039182169283156101d9575050600254826bffffffffffffffffffffffff60a01b821617600255167f8be0079c531659141344cd1fd0a4f28419497f9722a3daafe3b4186f6b6457e08380a380f35b906020608492519162461bcd60e51b8352820152602660248201527f4f776e61626c653a206e6577206f776e657220697320746865207a65726f206160448201526564647265737360d01b6064820152fd5b83346102525761024f61023d366105e1565b9061024661064f565b33903390610cbb565b80f35b80fd5b50503461015c578060031936011261015c5761026f61058d565b90602435918215158093036102a7576102866105f7565b60018060a01b03168352600760205282209060ff8019835416911617905580f35b8380fd5b50503461015c576102bb366105e1565b91906102c56105f7565b8352600560205282205580f35b50503461015c578160031936011261015c5760025490516001600160a01b039091168152602090f35b50503461015c5761032a61024f9160ff610314366105a8565b9591939094338952600760205288205416610693565b61033261064f565b610844565b50503461015c578160031936011261015c5760207f62e78cea01bee320cd4e420270b5ea74000d11b0c9f74754ebdbfc544b05a258916103756105f7565b61037d61064f565b61038561064f565b835460ff1916600117845551338152a180f35b83346102525761024f6103aa366105e1565b906103b361064f565b33903390610844565b83346102525780600319360112610252576103d56105f7565b600280546001600160a01b0319811690915581906001600160a01b03167f8be0079c531659141344cd1fd0a4f28419497f9722a3daafe3b4186f6b6457e08280a380f35b50503461015c578160031936011261015c5760ff602092541690519015158152f35b50503461015c5761045461024f9160ff610314366105a8565b61045c61064f565b610cbb565b503461010f578160031936011261010f576024356001600160a01b03811691908290036102a757928291846020953583528552828220908252845220549051908152f35b50503461015c57602036600319011261015c5760209160ff9082906001600160a01b036104d061058d565b1681526007855220541690519015158152f35b503461010f57602036600319011261010f5760209282913581526006845220549051908152f35b50503461015c578160031936011261015c5760207f5db9ee0a495bf2e6ff9c91a7834c1ba4fdd244a5e8aa4e537bd38aeae4b073aa916105486105f7565b610550610ede565b610558610ede565b835460ff1916845551338152a180f35b84903461015c578160031936011261015c576003546001600160a01b03168152602090f35b600435906001600160a01b03821682036105a357565b600080fd5b60809060031901126105a357600435906001600160a01b039060243582811681036105a3579160443590811681036105a3579060643590565b60409060031901126105a3576004359060243590565b6002546001600160a01b0316330361060b57565b606460405162461bcd60e51b815260206004820152602060248201527f4f776e61626c653a2063616c6c6572206973206e6f7420746865206f776e65726044820152fd5b60ff6000541661065b57565b60405162461bcd60e51b815260206004820152601060248201526f14185d5cd8589b194e881c185d5cd95960821b6044820152606490fd5b1561069a57565b606460405162461bcd60e51b815260206004820152602060248201527f4c505374616b696e67506f6f6c3a2068616e646c657220666f7262696464656e6044820152fd5b90601f8019910116810190811067ffffffffffffffff82111761070057604052565b634e487b7160e01b600052604160045260246000fd5b51906001600160a01b03821682036105a357565b519081151582036105a357565b809161012092839103126105a35760405191820182811067ffffffffffffffff821117610700576040528051825261077160208201610716565b602083015261078260408201610716565b604083015261079360608201610716565b60608301526107a46080820161072a565b608083015260a081015160a083015260c081015160c083015260e081015160e0830152610100809101519082015290565b156107dc57565b60405162461bcd60e51b815260206004820152601b60248201527f4c505374616b696e67506f6f6c3a20696e76616c6964207061697200000000006044820152606490fd5b9190820180921161082e57565b634e487b7160e01b600052601160045260246000fd5b909291928215610a3a5760035460408051632f7ce47360e21b81526004810185905290946101209290916001600160a01b039184908290602490829086165afa938415610a2f57600094610a00575b505060808301511515806109f1575b6108ab906107d5565b846000526020926004845281876000209816978860005284526108d2838860002054610821565b866000526005855287600020541061099e5760609086600052600485528760002089600052855287600020610908858254610821565b9055866000526006855287600020610921858254610821565b905501805187516323b872dd60e01b8682015295831660248701523060448701526064808701859052865282169460a081019067ffffffffffffffff821181831017610700577ff7373f56c201647feae85a62d3cf56286ed3a43d20c5eb7f9883d6ea690ef7c096610994928a52610a8b565b51169451908152a4565b865162461bcd60e51b815260048101859052602660248201527f4c505374616b696e67506f6f6c203a657863656564206d6178207374616b6520604482015265185b5bdd5b9d60d21b6064820152608490fd5b506060830151811615156108a2565b610a20929450803d10610a28575b610a1881836106de565b810190610737565b913880610893565b503d610a0e565b87513d6000823e3d90fd5b60405162461bcd60e51b815260206004820152602360248201527f4c505374616b696e67506f6f6c3a20696e76616c6964207374616b6520616d6f6044820152621d5b9d60ea1b6064820152608490fd5b60018060a01b0316906040516040810167ffffffffffffffff9082811082821117610700576040526020938483527f5361666545524332303a206c6f772d6c6576656c2063616c6c206661696c6564858401526000808587829751910182855af1903d15610bcf573d928311610bbb5790610b2693929160405192610b1988601f19601f84011601856106de565b83523d868885013e610bda565b90815190838215928315610b99575b505050905015610b425750565b6084906040519062461bcd60e51b82526004820152602a60248201527f5361666545524332303a204552433230206f7065726174696f6e20646964206e6044820152691bdd081cdd58d8d9595960b21b6064820152fd5b848092939450010312610252575081610bb2910161072a565b80388381610b35565b634e487b7160e01b85526041600452602485fd5b90610b269392506060915b91929015610c3c5750815115610bee575090565b3b15610bf75790565b60405162461bcd60e51b815260206004820152601d60248201527f416464726573733a2063616c6c20746f206e6f6e2d636f6e74726163740000006044820152606490fd5b825190915015610c4f5750805190602001fd5b6040519062461bcd60e51b82528160208060048301528251908160248401526000935b828510610c95575050604492506000838284010152601f80199101168101030190fd5b8481018201518686016044015293810193859350610c72565b9190820391821161082e57565b909260018060a01b03908160035416916040948551632f7ce47360e21b81528060049587878301528160246101209485935afa918215610ed3579060609291600092610eb6575b50500190610d148383511615156107d5565b856000526020948086528388600020991698896000528652876000205415610e735784151580610e54575b15610e0357866000528086528760002089600052865287600020610d64868254610cae565b9055866000526006865287600020610d7d868254610cae565b90558251885163a9059cbb60e01b88820152928516602484015260448084018790528352841690608083019067ffffffffffffffff821184831017610dee575088527ff8eefa3aa6ce8b1d9be01c317b1a8f8e5f5aaeb5bfb5e6c583df94a342bbd9c7959493929161099491610a8b565b604190634e487b7160e01b6000525260246000fd5b875162461bcd60e51b8152908101869052602560248201527f4c505374616b696e67506f6f6c3a20696e76616c696420756e7374616b6520616044820152641b5bdd5b9d60da1b6064820152608490fd5b5086600052808652876000208960005286528760002054851115610d3f565b875162461bcd60e51b8152908101869052601a60248201527f4c505374616b696e67506f6f6c3a206e6f6e65207374616b65640000000000006044820152606490fd5b610ecc9250803d10610a2857610a1881836106de565b3880610d02565b88513d6000823e3d90fd5b60ff6000541615610eeb57565b60405162461bcd60e51b815260206004820152601460248201527314185d5cd8589b194e881b9bdd081c185d5cd95960621b6044820152606490fdfea2646970667358221220954eabdc6157cea9ad12de22230ccd70116e539f15e077cdddd86f4cce53457264736f6c63430008110033",
  "devdoc": {
    "kind": "dev",
    "methods": {
      "owner()": {
        "details": "Returns the address of the current owner."
      },
      "paused()": {
        "details": "Returns true if the contract is paused, and false otherwise."
      },
      "renounceOwnership()": {
        "details": "Leaves the contract without owner. It will not be possible to call `onlyOwner` functions. Can only be called by the current owner. NOTE: Renouncing ownership will leave the contract without an owner, thereby disabling any functionality that is only available to the owner."
      },
      "transferOwnership(address)": {
        "details": "Transfers ownership of the contract to a new account (`newOwner`). Can only be called by the current owner."
      }
    },
    "version": 1
  },
  "userdoc": {
    "kind": "user",
    "methods": {},
    "version": 1
  },
  "storageLayout": {
    "storage": [
      {
        "astId": 299,
        "contract": "contracts/earn/LPStakingPool.sol:LPStakingPool",
        "label": "_paused",
        "offset": 0,
        "slot": "0",
        "type": "t_bool"
      },
      {
        "astId": 400,
        "contract": "contracts/earn/LPStakingPool.sol:LPStakingPool",
        "label": "_status",
        "offset": 0,
        "slot": "1",
        "type": "t_uint256"
      },
      {
        "astId": 7,
        "contract": "contracts/earn/LPStakingPool.sol:LPStakingPool",
        "label": "_owner",
        "offset": 0,
        "slot": "2",
        "type": "t_address"
      },
      {
        "astId": 4606,
        "contract": "contracts/earn/LPStakingPool.sol:LPStakingPool",
        "label": "pool",
        "offset": 0,
        "slot": "3",
        "type": "t_contract(IPool)7948"
      },
      {
        "astId": 4612,
        "contract": "contracts/earn/LPStakingPool.sol:LPStakingPool",
        "label": "userStaked",
        "offset": 0,
        "slot": "4",
        "type": "t_mapping(t_uint256,t_mapping(t_address,t_uint256))"
      },
      {
        "astId": 4616,
        "contract": "contracts/earn/LPStakingPool.sol:LPStakingPool",
        "label": "maxStakeAmount",
        "offset": 0,
        "slot": "5",
        "type": "t_mapping(t_uint256,t_uint256)"
      },
      {
        "astId": 4620,
        "contract": "contracts/earn/LPStakingPool.sol:LPStakingPool",
        "label": "totalStaked",
        "offset": 0,
        "slot": "6",
        "type": "t_mapping(t_uint256,t_uint256)"
      },
      {
        "astId": 4624,
        "contract": "contracts/earn/LPStakingPool.sol:LPStakingPool",
        "label": "isHandler",
        "offset": 0,
        "slot": "7",
        "type": "t_mapping(t_address,t_bool)"
      }
    ],
    "types": {
      "t_address": {
        "encoding": "inplace",
        "label": "address",
        "numberOfBytes": "20"
      },
      "t_bool": {
        "encoding": "inplace",
        "label": "bool",
        "numberOfBytes": "1"
      },
      "t_contract(IPool)7948": {
        "encoding": "inplace",
        "label": "contract IPool",
        "numberOfBytes": "20"
      },
      "t_mapping(t_address,t_bool)": {
        "encoding": "mapping",
        "key": "t_address",
        "label": "mapping(address => bool)",
        "numberOfBytes": "32",
        "value": "t_bool"
      },
      "t_mapping(t_address,t_uint256)": {
        "encoding": "mapping",
        "key": "t_address",
        "label": "mapping(address => uint256)",
        "numberOfBytes": "32",
        "value": "t_uint256"
      },
      "t_mapping(t_uint256,t_mapping(t_address,t_uint256))": {
        "encoding": "mapping",
        "key": "t_uint256",
        "label": "mapping(uint256 => mapping(address => uint256))",
        "numberOfBytes": "32",
        "value": "t_mapping(t_address,t_uint256)"
      },
      "t_mapping(t_uint256,t_uint256)": {
        "encoding": "mapping",
        "key": "t_uint256",
        "label": "mapping(uint256 => uint256)",
        "numberOfBytes": "32",
        "value": "t_uint256"
      },
      "t_uint256": {
        "encoding": "inplace",
        "label": "uint256",
        "numberOfBytes": "32"
      }
    }
  }
}