{
  "address": "0x610178dA211FEF7D417bC0e6FeD39F05609AD788",
  "abi": [
    {
      "inputs": [
        {
          "internalType": "string",
          "name": "name",
          "type": "string"
        }
      ],
      "stateMutability": "nonpayable",
      "type": "constructor"
    },
    {
      "anonymous": false,
      "inputs": [
        {
          "indexed": true,
          "internalType": "address",
          "name": "owner",
          "type": "address"
        },
        {
          "indexed": true,
          "internalType": "address",
          "name": "spender",
          "type": "address"
        },
        {
          "indexed": false,
          "internalType": "uint256",
          "name": "value",
          "type": "uint256"
        }
      ],
      "name": "Approval",
      "type": "event"
    },
    {
      "anonymous": false,
      "inputs": [
        {
          "indexed": true,
          "internalType": "address",
          "name": "from",
          "type": "address"
        },
        {
          "indexed": true,
          "internalType": "address",
          "name": "to",
          "type": "address"
        },
        {
          "indexed": false,
          "internalType": "uint256",
          "name": "value",
          "type": "uint256"
        }
      ],
      "name": "Transfer",
      "type": "event"
    },
    {
      "inputs": [
        {
          "internalType": "address",
          "name": "owner",
          "type": "address"
        },
        {
          "internalType": "address",
          "name": "spender",
          "type": "address"
        }
      ],
      "name": "allowance",
      "outputs": [
        {
          "internalType": "uint256",
          "name": "",
          "type": "uint256"
        }
      ],
      "stateMutability": "view",
      "type": "function"
    },
    {
      "inputs": [
        {
          "internalType": "address",
          "name": "spender",
          "type": "address"
        },
        {
          "internalType": "uint256",
          "name": "amount",
          "type": "uint256"
        }
      ],
      "name": "approve",
      "outputs": [
        {
          "internalType": "bool",
          "name": "",
          "type": "bool"
        }
      ],
      "stateMutability": "nonpayable",
      "type": "function"
    },
    {
      "inputs": [
        {
          "internalType": "address",
          "name": "account",
          "type": "address"
        }
      ],
      "name": "balanceOf",
      "outputs": [
        {
          "internalType": "uint256",
          "name": "",
          "type": "uint256"
        }
      ],
      "stateMutability": "view",
      "type": "function"
    },
    {
      "inputs": [],
      "name": "decimals",
      "outputs": [
        {
          "internalType": "uint8",
          "name": "",
          "type": "uint8"
        }
      ],
      "stateMutability": "view",
      "type": "function"
    },
    {
      "inputs": [
        {
          "internalType": "address",
          "name": "spender",
          "type": "address"
        },
        {
          "internalType": "uint256",
          "name": "subtractedValue",
          "type": "uint256"
        }
      ],
      "name": "decreaseAllowance",
      "outputs": [
        {
          "internalType": "bool",
          "name": "",
          "type": "bool"
        }
      ],
      "stateMutability": "nonpayable",
      "type": "function"
    },
    {
      "inputs": [],
      "name": "deposit",
      "outputs": [],
      "stateMutability": "payable",
      "type": "function"
    },
    {
      "inputs": [
        {
          "internalType": "address",
          "name": "spender",
          "type": "address"
        },
        {
          "internalType": "uint256",
          "name": "addedValue",
          "type": "uint256"
        }
      ],
      "name": "increaseAllowance",
      "outputs": [
        {
          "internalType": "bool",
          "name": "",
          "type": "bool"
        }
      ],
      "stateMutability": "nonpayable",
      "type": "function"
    },
    {
      "inputs": [
        {
          "internalType": "address",
          "name": "account",
          "type": "address"
        },
        {
          "internalType": "uint256",
          "name": "amount",
          "type": "uint256"
        }
      ],
      "name": "mint",
      "outputs": [],
      "stateMutability": "nonpayable",
      "type": "function"
    },
    {
      "inputs": [],
      "name": "name",
      "outputs": [
        {
          "internalType": "string",
          "name": "",
          "type": "string"
        }
      ],
      "stateMutability": "view",
      "type": "function"
    },
    {
      "inputs": [],
      "name": "symbol",
      "outputs": [
        {
          "internalType": "string",
          "name": "",
          "type": "string"
        }
      ],
      "stateMutability": "view",
      "type": "function"
    },
    {
      "inputs": [],
      "name": "totalSupply",
      "outputs": [
        {
          "internalType": "uint256",
          "name": "",
          "type": "uint256"
        }
      ],
      "stateMutability": "view",
      "type": "function"
    },
    {
      "inputs": [
        {
          "internalType": "address",
          "name": "recipient",
          "type": "address"
        },
        {
          "internalType": "uint256",
          "name": "amount",
          "type": "uint256"
        }
      ],
      "name": "transfer",
      "outputs": [
        {
          "internalType": "bool",
          "name": "",
          "type": "bool"
        }
      ],
      "stateMutability": "nonpayable",
      "type": "function"
    },
    {
      "inputs": [
        {
          "internalType": "address",
          "name": "sender",
          "type": "address"
        },
        {
          "internalType": "address",
          "name": "recipient",
          "type": "address"
        },
        {
          "internalType": "uint256",
          "name": "amount",
          "type": "uint256"
        }
      ],
      "name": "transferFrom",
      "outputs": [
        {
          "internalType": "bool",
          "name": "",
          "type": "bool"
        }
      ],
      "stateMutability": "nonpayable",
      "type": "function"
    },
    {
      "inputs": [
        {
          "internalType": "uint256",
          "name": "amount",
          "type": "uint256"
        }
      ],
      "name": "withdraw",
      "outputs": [],
      "stateMutability": "nonpayable",
      "type": "function"
    },
    {
      "inputs": [
        {
          "internalType": "address",
          "name": "token",
          "type": "address"
        },
        {
          "internalType": "address",
          "name": "account",
          "type": "address"
        },
        {
          "internalType": "uint256",
          "name": "amount",
          "type": "uint256"
        }
      ],
      "name": "withdrawToken",
      "outputs": [],
      "stateMutability": "nonpayable",
      "type": "function"
    }
  ],
  "transactionHash": "0x11117304b77a46e58dbde8674422688494e17b3b3fa3741b40d09bba467363cb",
  "args": [
    "ETH"
  ],
  "numDeployments": 1,
  "solcInputHash": "3bfb618664e377f23f48757fd7cd2af1",
  "bytecode": "0x6080604052346200035357620011bc803803806200001d8162000358565b92833981016020918281830312620003535780516001600160401b039182821162000353570191601f81818501121562000353578351938385116200025057601f1994620000718382018716880162000358565b938185528782840101116200035357869160005b8281106200033f575050906000918401015281519083821162000250576003928354926001938481811c9116801562000334575b898210146200031e57838111620002d3575b508088848211600114620002725760009162000266575b5060001982871b1c191690841b1784555b8051948511620002505760049687548481811c9116801562000245575b828210146200023057838111620001e5575b5080928611600114620001795750849550908492916000956200016d575b50501b92600019911b1c19161790555b601260ff196005541617600555604051610e3d90816200037f8239f35b01519350388062000140565b939295859081168860005285600020956000905b89838310620001ca5750505010620001af575b50505050811b01905562000150565b01519060f884600019921b161c1916905538808080620001a0565b8587015189559097019694850194889350908101906200018d565b88600052816000208480890160051c820192848a1062000226575b0160051c019085905b8281106200021957505062000122565b6000815501859062000209565b9250819262000200565b602289634e487b7160e01b6000525260246000fd5b90607f169062000110565b634e487b7160e01b600052604160045260246000fd5b905082015138620000e2565b8886931690876000528a6000209160005b8c828210620002bc5750508311620002a3575b5050811b018455620000f3565b84015160001983891b60f8161c19169055388062000296565b838801518555899690940193928301920162000283565b85600052886000208480840160051c8201928b851062000314575b0160051c019085905b82811062000307575050620000cb565b60008155018590620002f7565b92508192620002ee565b634e487b7160e01b600052602260045260246000fd5b90607f1690620000b9565b818101840151868201850152830162000085565b600080fd5b6040519190601f01601f191682016001600160401b03811183821017620002505760405256fe608060408181526004918236101561001657600080fd5b600092833560e01c9184836301e33667146107d4575050816306fdde03146106df578163095ea7b3146106b557816318160ddd1461069657816323b872dd146106015781632e1a7d4d146103fe578163313ce567146103dc578163395093511461037557816340c10f191461035057816370a082311461031957816395d89b41146101fe57508063a457c2d71461016e578063a9059cbb1461013e578063d0e30db0146101225763dd62ed3e146100cc57600080fd5b3461011e578060031936011261011e576100e4610862565b6001600160a01b03602435818116929083900361011a579160209491849316825260018552828220908252845220549051908152f35b8480fd5b5080fd5b828060031936011261013b576101383433610bb4565b80f35b80fd5b503461011e578060031936011261011e5760209061016761015d610862565b602435903361097c565b5160018152f35b503461011e578060031936011261011e576101676020926101f783610191610862565b338452600187528184206001600160a01b038216855287529220548451906101b8826108f2565b602582527f45524332303a2064656372656173656420616c6c6f77616e63652062656c6f778783015264207a65726f60d81b8683015260243590610946565b9033610c95565b82843461013b578060031936011261013b5781519181845492600184811c9181861695861561030f575b60209687851081146102fc579087899a92868b999a9b5291826000146102d2575050600114610277575b858861027389610264848a0385610924565b519282849384528301906108b2565b0390f35b815286935091907f8a35acfbc15ff81a39ae7d344fd709f28e8600b4aa8c65c6b64bfe7fe36bd19b5b8284106102ba575050508201018161026461027388610252565b8054848a0186015288955087949093019281016102a0565b60ff19168882015294151560051b8701909401945085935061026492506102739150899050610252565b634e487b7160e01b835260228a52602483fd5b92607f1692610228565b50503461011e57602036600319011261011e5760209181906001600160a01b03610341610862565b16815280845220549051908152f35b50503461011e5736600319011261013b5761013861036c610862565b60243590610bb4565b82843461013b578160031936011261013b5761038f610862565b338252600160209081528383206001600160a01b03831684529052828220546024358101929083106103c957602084610167858533610c95565b634e487b7160e01b815260118552602490fd5b50503461011e578160031936011261011e5760209060ff600554169051908152f35b919050346105fd57602090816003193601126105f95782353385528483528082862054106105b757331561056b5733855284835261047e8286205482845191610446836108f2565b602283527f45524332303a206275726e20616d6f756e7420657863656564732062616c616e8784015261636560f01b86840152610946565b33865285845282862055600254818103908111610558578580809381936002558186518281527fddf252ad1be2c89b69c2b068fc378daa952ba7f163c4a11628f55a4df523b3ef893392a3335af13d15610553573d67ffffffffffffffff8111610540578251906104f8601f8201601f1916860183610924565b815285843d92013e5b1561050a578380f35b5162461bcd60e51b8152918201526012602482015271756e61626c6520746f20776974686472617760701b604482015260649150fd5b634e487b7160e01b865260418552602486fd5b610501565b634e487b7160e01b865260118552602486fd5b505162461bcd60e51b815291820152602160248201527f45524332303a206275726e2066726f6d20746865207a65726f206164647265736044820152607360f81b606482015260849150fd5b505162461bcd60e51b815291820152601b60248201527f546f6b656e3a20696e73756666696369656e742062616c616e63650000000000604482015260649150fd5b8380fd5b8280fd5b50503461011e5761016761062961068e6020948461061e3661087d565b82969181959361097c565b6001600160a01b0385168152600188528181203382528852205485519190610650836108f2565b602883527f45524332303a207472616e7366657220616d6f756e742065786365656473206188840152676c6c6f77616e636560c01b87840152610946565b903390610c95565b50503461011e578160031936011261011e576020906002549051908152f35b50503461011e578060031936011261011e576020906101676106d5610862565b6024359033610c95565b82843461013b578060031936011261013b578151918160035492600184811c918186169586156107ca575b60209687851081146102fc578899509688969785829a5291826000146107a3575050600114610747575b5050506102739291610264910385610924565b9190869350600383527fc2575a0e9e593c00f959f8c92f12db2869c3395a3b0502d05e2516446f71f85b5b82841061078b5750505082010181610264610273610734565b8054848a018601528895508794909301928101610772565b60ff19168782015293151560051b8601909301935084925061026491506102739050610734565b92607f169261070a565b918285913461011e5760448460209381936107ee3661087d565b63a9059cbb60e01b86526001600160a01b03918216938601939093526024850192909252165af19081156108595750610825575080f35b6020813d8211610851575b8161083d60209383610924565b8101031261011e57518015150361013b5780f35b3d9150610830565b513d84823e3d90fd5b600435906001600160a01b038216820361087857565b600080fd5b6060906003190112610878576001600160a01b0390600435828116810361087857916024359081168103610878579060443590565b919082519283825260005b8481106108de575050826000602080949584010152601f8019910116010190565b6020818301810151848301820152016108bd565b6060810190811067ffffffffffffffff82111761090e57604052565b634e487b7160e01b600052604160045260246000fd5b90601f8019910116810190811067ffffffffffffffff82111761090e57604052565b909181831161095457500390565b60405162461bcd60e51b8152602060048201529081906109789060248301906108b2565b0390fd5b9291909260409182519061098f826108f2565b602d82526109db8187856020957f7472616e736665722c2073656e6465723a2025732c20726563697069656e743a878201526c2025732c20746869733a20257360981b89820152610d97565b60018060a01b0380931692600096848852878452610a4b868920548751610a01816108f2565b603081527f7472616e736665722c20746f6b656e3a2025732c205f6d736753656e6465723a878201526f2025732c2062616c616e63653a20257360801b8982015233903090610d97565b8415610b625716938415610b1357838752868352610aaf8188205483835191610a73836108f2565b602683527f45524332303a207472616e7366657220616d6f756e74206578636565647320628784015265616c616e636560d01b85840152610946565b8488528784528188205584875280872054828101809111610aff578188877fddf252ad1be2c89b69c2b068fc378daa952ba7f163c4a11628f55a4df523b3ef9798999a52808652205551908152a3565b634e487b7160e01b88526011600452602488fd5b5162461bcd60e51b815260048101839052602360248201527f45524332303a207472616e7366657220746f20746865207a65726f206164647260448201526265737360e81b6064820152608490fd5b855162461bcd60e51b815260048101859052602560248201527f45524332303a207472616e736665722066726f6d20746865207a65726f206164604482015264647265737360d81b6064820152608490fd5b6001600160a01b0316908115610c5057600254818101809111610c3a57600255600090828252816020526040822054818101809111610c26577fddf252ad1be2c89b69c2b068fc378daa952ba7f163c4a11628f55a4df523b3ef916020918585528483526040852055604051908152a3565b634e487b7160e01b83526011600452602483fd5b634e487b7160e01b600052601160045260246000fd5b60405162461bcd60e51b815260206004820152601f60248201527f45524332303a206d696e7420746f20746865207a65726f2061646472657373006044820152606490fd5b6001600160a01b03908116918215610d465716918215610cf65760207f8c5be1e5ebec7d5bd14f71427d1e84f3dd0314c0f7b2291e5b200ac8c7c3b925918360005260018252604060002085600052825280604060002055604051908152a3565b60405162461bcd60e51b815260206004820152602260248201527f45524332303a20617070726f766520746f20746865207a65726f206164647265604482015261737360f01b6064820152608490fd5b60405162461bcd60e51b8152602060048201526024808201527f45524332303a20617070726f76652066726f6d20746865207a65726f206164646044820152637265737360e01b6064820152608490fd5b9092610df46000948594604051938492610dca6020850197638ef3f39960e01b89526080602487015260a48601906108b2565b6001600160a01b03918216604486015292166064840152608483015203601f198101835282610924565b51906a636f6e736f6c652e6c6f675afa5056fea26469706673582212208d935b880cc567b7c30649a5740cc3ae9ecd3ff878d448c71fdf94bc69a23f2564736f6c63430008110033",
  "devdoc": {
    "details": "Implementation of the {IERC20} interface. This implementation is agnostic to the way tokens are created. This means that a supply mechanism has to be added in a derived contract using {_mint}. For a generic mechanism see {ERC20PresetMinterPauser}. TIP: For a detailed writeup see our guide https://forum.zeppelin.solutions/t/how-to-implement-erc20-supply-mechanisms/226[How to implement supply mechanisms]. We have followed general OpenZeppelin guidelines: functions revert instead of returning `false` on failure. This behavior is nonetheless conventional and does not conflict with the expectations of ERC20 applications. Additionally, an {Approval} event is emitted on calls to {transferFrom}. This allows applications to reconstruct the allowance for all accounts just by listening to said events. Other implementations of the EIP may not emit these events, as it isn't required by the specification. Finally, the non-standard {decreaseAllowance} and {increaseAllowance} functions have been added to mitigate the well-known issues around setting allowances. See {IERC20-approve}.",
    "kind": "dev",
    "methods": {
      "allowance(address,address)": {
        "details": "See {IERC20-allowance}."
      },
      "approve(address,uint256)": {
        "details": "See {IERC20-approve}. Requirements: - `spender` cannot be the zero address."
      },
      "balanceOf(address)": {
        "details": "See {IERC20-balanceOf}."
      },
      "constructor": {
        "details": "Sets the values for {name} and {symbol}, initializes {decimals} with a default value of 18. To select a different value for {decimals}, use {_setupDecimals}. All three of these values are immutable: they can only be set once during construction."
      },
      "decimals()": {
        "details": "Returns the number of decimals used to get its user representation. For example, if `decimals` equals `2`, a balance of `505` tokens should be displayed to a user as `5,05` (`505 / 10 ** 2`). Tokens usually opt for a value of 18, imitating the relationship between Ether and Wei. This is the value {ERC20} uses, unless {_setupDecimals} is called. NOTE: This information is only used for _display_ purposes: it in no way affects any of the arithmetic of the contract, including {IERC20-balanceOf} and {IERC20-transfer}."
      },
      "decreaseAllowance(address,uint256)": {
        "details": "Atomically decreases the allowance granted to `spender` by the caller. This is an alternative to {approve} that can be used as a mitigation for problems described in {IERC20-approve}. Emits an {Approval} event indicating the updated allowance. Requirements: - `spender` cannot be the zero address. - `spender` must have allowance for the caller of at least `subtractedValue`."
      },
      "increaseAllowance(address,uint256)": {
        "details": "Atomically increases the allowance granted to `spender` by the caller. This is an alternative to {approve} that can be used as a mitigation for problems described in {IERC20-approve}. Emits an {Approval} event indicating the updated allowance. Requirements: - `spender` cannot be the zero address."
      },
      "name()": {
        "details": "Returns the name of the token."
      },
      "symbol()": {
        "details": "Returns the symbol of the token, usually a shorter version of the name."
      },
      "totalSupply()": {
        "details": "See {IERC20-totalSupply}."
      },
      "transfer(address,uint256)": {
        "details": "See {IERC20-transfer}. Requirements: - `recipient` cannot be the zero address. - the caller must have a balance of at least `amount`."
      },
      "transferFrom(address,address,uint256)": {
        "details": "See {IERC20-transferFrom}. Emits an {Approval} event indicating the updated allowance. This is not required by the EIP. See the note at the beginning of {ERC20}. Requirements: - `sender` and `recipient` cannot be the zero address. - `sender` must have a balance of at least `amount`. - the caller must have allowance for ``sender``'s tokens of at least `amount`."
      }
    },
    "version": 1
  },
  "userdoc": {
    "kind": "user",
    "methods": {},
    "version": 1
  },
  "storageLayout": {
    "storage": [
      {
        "astId": 18866,
        "contract": "contracts/mock/Token.sol:Token",
        "label": "_balances",
        "offset": 0,
        "slot": "0",
        "type": "t_mapping(t_address,t_uint256)"
      },
      {
        "astId": 18872,
        "contract": "contracts/mock/Token.sol:Token",
        "label": "_allowances",
        "offset": 0,
        "slot": "1",
        "type": "t_mapping(t_address,t_mapping(t_address,t_uint256))"
      },
      {
        "astId": 18874,
        "contract": "contracts/mock/Token.sol:Token",
        "label": "_totalSupply",
        "offset": 0,
        "slot": "2",
        "type": "t_uint256"
      },
      {
        "astId": 18876,
        "contract": "contracts/mock/Token.sol:Token",
        "label": "_name",
        "offset": 0,
        "slot": "3",
        "type": "t_string_storage"
      },
      {
        "astId": 18878,
        "contract": "contracts/mock/Token.sol:Token",
        "label": "_symbol",
        "offset": 0,
        "slot": "4",
        "type": "t_string_storage"
      },
      {
        "astId": 18880,
        "contract": "contracts/mock/Token.sol:Token",
        "label": "_decimals",
        "offset": 0,
        "slot": "5",
        "type": "t_uint8"
      }
    ],
    "types": {
      "t_address": {
        "encoding": "inplace",
        "label": "address",
        "numberOfBytes": "20"
      },
      "t_mapping(t_address,t_mapping(t_address,t_uint256))": {
        "encoding": "mapping",
        "key": "t_address",
        "label": "mapping(address => mapping(address => uint256))",
        "numberOfBytes": "32",
        "value": "t_mapping(t_address,t_uint256)"
      },
      "t_mapping(t_address,t_uint256)": {
        "encoding": "mapping",
        "key": "t_address",
        "label": "mapping(address => uint256)",
        "numberOfBytes": "32",
        "value": "t_uint256"
      },
      "t_string_storage": {
        "encoding": "bytes",
        "label": "string",
        "numberOfBytes": "32"
      },
      "t_uint256": {
        "encoding": "inplace",
        "label": "uint256",
        "numberOfBytes": "32"
      },
      "t_uint8": {
        "encoding": "inplace",
        "label": "uint8",
        "numberOfBytes": "1"
      }
    }
  }
}