{
  "address": "0x4b4a5676F8875B9c1377e93bC90D56E082866A0C",
  "abi": [
    {
      "inputs": [],
      "stateMutability": "nonpayable",
      "type": "constructor"
    },
    {
      "inputs": [],
      "name": "aggregator",
      "outputs": [
        {
          "internalType": "address",
          "name": "",
          "type": "address"
        }
      ],
      "stateMutability": "view",
      "type": "function"
    },
    {
      "inputs": [],
      "name": "answer",
      "outputs": [
        {
          "internalType": "int256",
          "name": "",
          "type": "int256"
        }
      ],
      "stateMutability": "view",
      "type": "function"
    },
    {
      "inputs": [
        {
          "internalType": "uint80",
          "name": "",
          "type": "uint80"
        }
      ],
      "name": "answers",
      "outputs": [
        {
          "internalType": "int256",
          "name": "",
          "type": "int256"
        }
      ],
      "stateMutability": "view",
      "type": "function"
    },
    {
      "inputs": [],
      "name": "decimals",
      "outputs": [
        {
          "internalType": "uint256",
          "name": "",
          "type": "uint256"
        }
      ],
      "stateMutability": "view",
      "type": "function"
    },
    {
      "inputs": [],
      "name": "description",
      "outputs": [
        {
          "internalType": "string",
          "name": "",
          "type": "string"
        }
      ],
      "stateMutability": "view",
      "type": "function"
    },
    {
      "inputs": [
        {
          "internalType": "uint80",
          "name": "_roundId",
          "type": "uint80"
        }
      ],
      "name": "getRoundData",
      "outputs": [
        {
          "internalType": "uint80",
          "name": "",
          "type": "uint80"
        },
        {
          "internalType": "int256",
          "name": "",
          "type": "int256"
        },
        {
          "internalType": "uint256",
          "name": "",
          "type": "uint256"
        },
        {
          "internalType": "uint256",
          "name": "",
          "type": "uint256"
        },
        {
          "internalType": "uint80",
          "name": "",
          "type": "uint80"
        }
      ],
      "stateMutability": "view",
      "type": "function"
    },
    {
      "inputs": [],
      "name": "gov",
      "outputs": [
        {
          "internalType": "address",
          "name": "",
          "type": "address"
        }
      ],
      "stateMutability": "view",
      "type": "function"
    },
    {
      "inputs": [
        {
          "internalType": "address",
          "name": "",
          "type": "address"
        }
      ],
      "name": "isAdmin",
      "outputs": [
        {
          "internalType": "bool",
          "name": "",
          "type": "bool"
        }
      ],
      "stateMutability": "view",
      "type": "function"
    },
    {
      "inputs": [],
      "name": "latestAnswer",
      "outputs": [
        {
          "internalType": "int256",
          "name": "",
          "type": "int256"
        }
      ],
      "stateMutability": "view",
      "type": "function"
    },
    {
      "inputs": [],
      "name": "latestRound",
      "outputs": [
        {
          "internalType": "uint80",
          "name": "",
          "type": "uint80"
        }
      ],
      "stateMutability": "view",
      "type": "function"
    },
    {
      "inputs": [],
      "name": "roundId",
      "outputs": [
        {
          "internalType": "uint80",
          "name": "",
          "type": "uint80"
        }
      ],
      "stateMutability": "view",
      "type": "function"
    },
    {
      "inputs": [
        {
          "internalType": "address",
          "name": "_account",
          "type": "address"
        },
        {
          "internalType": "bool",
          "name": "_isAdmin",
          "type": "bool"
        }
      ],
      "name": "setAdmin",
      "outputs": [],
      "stateMutability": "nonpayable",
      "type": "function"
    },
    {
      "inputs": [
        {
          "internalType": "int256",
          "name": "_answer",
          "type": "int256"
        }
      ],
      "name": "setLatestAnswer",
      "outputs": [],
      "stateMutability": "nonpayable",
      "type": "function"
    }
  ],
  "transactionHash": "0xffb28852f07641b5915114bbc2c890e8ce61660658c2dd0f5d2fc49359f4472b",
  "args": [],
  "numDeployments": 1,
  "solcInputHash": "76cda7cc02cbb84b9779c6e013b766cd",
  "bytecode": "0x608080604052346100fb576002546001908181811c911680156100f1575b60208210146100db57601f811161008e575b507f4d6f636b5072696365466565640000000000000000000000000000000000001a600255600580546001600160a01b031916339081179091556000908152600760205260409020805460ff1916909117905561050190816101018239f35b6002600052601f0160051c7f405787fa12a823e0f2b7631cc41b3ba8828b3321ca811111fa75cd3aa3bb5ace9081019082905b8281106100cf57505061002f565b600081550182906100c1565b634e487b7160e01b600052602260045260246000fd5b90607f169061001d565b600080fdfe6040608081526004908136101561001557600080fd5b600091823560e01c806304ea97b0146103f057806312d43a51146103c7578063245a7bfc1461039e57806324d7806c14610360578063313ce567146103435780634b0bddd2146102e25780634c295ca3146102aa57806350d25bcd1461012f578063668a0f02146101035780637284e4161461014c57806385bb7d691461012f5780638cd221c91461010357639a6fc8f5146100b057600080fd5b346100ff5760203660031901126100ff5735906001600160501b0382168092036100ff57918060a093838252600660205280822054815194855260208501528301528060608301526080820152f35b8280fd5b50503461012b578160031936011261012b576020906001600160501b03600154169051908152f35b5080fd5b50503461012b578160031936011261012b57602091549051908152f35b5090346100ff57826003193601126100ff5780518360025460019581871c8783169788156102a0575b6020938483108a1461028d57848798999a848952918260001461027157505060011461021d575b5050601f801995869203011683019583871067ffffffffffffffff88111761020a575085929391838652818452845191828186015281955b8387106101f25750508394508582601f949501015201168101030190f35b868101820151898801890152958101958895506101d4565b634e487b7160e01b835260419052602482fd5b600285528492507f405787fa12a823e0f2b7631cc41b3ba8828b3321ca811111fa75cd3aa3bb5ace5b82841061025b5750505083018101388061019c565b8054888501860152879650928401928101610246565b925093505060ff191682860152151560051b840101388061019c565b634e487b7160e01b865260228952602486fd5b90607f1690610175565b50346100ff5760203660031901126100ff57356001600160501b0381168091036100ff57828291602094526006845220549051908152f35b50503461012b578060031936011261012b576102fc61046d565b906024359182151580930361033f576005546001600160a01b0391906103259083163314610488565b168352600760205282209060ff8019835416911617905580f35b8380fd5b50346100ff57826003193601126100ff5760209250549051908152f35b50503461012b57602036600319011261012b5760209160ff9082906001600160a01b0361038b61046d565b1681526007855220541690519015158152f35b50503461012b578160031936011261012b5760035490516001600160a01b039091168152602090f35b50503461012b578160031936011261012b5760055490516001600160a01b039091168152602090f35b5090346100ff5760203660031901126100ff57813591338452600760205261041d60ff8386205416610488565b600154906001600160501b03906001828416019082821161045a57501680916001600160501b031916176001558284558352600660205282205580f35b634e487b7160e01b875260119052602486fd5b600435906001600160a01b038216820361048357565b600080fd5b1561048f57565b60405162461bcd60e51b8152602060048201526014602482015273283934b1b2a332b2b21d103337b93134b23232b760611b6044820152606490fdfea2646970667358221220ace45d48ee3fc1fc30f2e154d02250a2b157ede4d0a4fd31ee5806c4445822d964736f6c63430008110033",
  "devdoc": {
    "kind": "dev",
    "methods": {},
    "version": 1
  },
  "userdoc": {
    "kind": "user",
    "methods": {},
    "version": 1
  },
  "storageLayout": {
    "storage": [
      {
        "astId": 22281,
        "contract": "contracts/mock/MockPriceFeed.sol:MockPriceFeed",
        "label": "answer",
        "offset": 0,
        "slot": "0",
        "type": "t_int256"
      },
      {
        "astId": 22283,
        "contract": "contracts/mock/MockPriceFeed.sol:MockPriceFeed",
        "label": "roundId",
        "offset": 0,
        "slot": "1",
        "type": "t_uint80"
      },
      {
        "astId": 22287,
        "contract": "contracts/mock/MockPriceFeed.sol:MockPriceFeed",
        "label": "description",
        "offset": 0,
        "slot": "2",
        "type": "t_string_storage"
      },
      {
        "astId": 22290,
        "contract": "contracts/mock/MockPriceFeed.sol:MockPriceFeed",
        "label": "aggregator",
        "offset": 0,
        "slot": "3",
        "type": "t_address"
      },
      {
        "astId": 22292,
        "contract": "contracts/mock/MockPriceFeed.sol:MockPriceFeed",
        "label": "decimals",
        "offset": 0,
        "slot": "4",
        "type": "t_uint256"
      },
      {
        "astId": 22294,
        "contract": "contracts/mock/MockPriceFeed.sol:MockPriceFeed",
        "label": "gov",
        "offset": 0,
        "slot": "5",
        "type": "t_address"
      },
      {
        "astId": 22298,
        "contract": "contracts/mock/MockPriceFeed.sol:MockPriceFeed",
        "label": "answers",
        "offset": 0,
        "slot": "6",
        "type": "t_mapping(t_uint80,t_int256)"
      },
      {
        "astId": 22302,
        "contract": "contracts/mock/MockPriceFeed.sol:MockPriceFeed",
        "label": "isAdmin",
        "offset": 0,
        "slot": "7",
        "type": "t_mapping(t_address,t_bool)"
      }
    ],
    "types": {
      "t_address": {
        "encoding": "inplace",
        "label": "address",
        "numberOfBytes": "20"
      },
      "t_bool": {
        "encoding": "inplace",
        "label": "bool",
        "numberOfBytes": "1"
      },
      "t_int256": {
        "encoding": "inplace",
        "label": "int256",
        "numberOfBytes": "32"
      },
      "t_mapping(t_address,t_bool)": {
        "encoding": "mapping",
        "key": "t_address",
        "label": "mapping(address => bool)",
        "numberOfBytes": "32",
        "value": "t_bool"
      },
      "t_mapping(t_uint80,t_int256)": {
        "encoding": "mapping",
        "key": "t_uint80",
        "label": "mapping(uint80 => int256)",
        "numberOfBytes": "32",
        "value": "t_int256"
      },
      "t_string_storage": {
        "encoding": "bytes",
        "label": "string",
        "numberOfBytes": "32"
      },
      "t_uint256": {
        "encoding": "inplace",
        "label": "uint256",
        "numberOfBytes": "32"
      },
      "t_uint80": {
        "encoding": "inplace",
        "label": "uint80",
        "numberOfBytes": "10"
      }
    }
  }
}