{
  "address": "0xE6E340D132b5f46d1e472DebcD681B2aBc16e57E",
  "abi": [
    {
      "inputs": [
        {
          "internalType": "contract IAddressesProvider",
          "name": "addressProvider",
          "type": "address"
        },
        {
          "internalType": "contract IPairInfo",
          "name": "_pairInfo",
          "type": "address"
        },
        {
          "internalType": "contract IPairVault",
          "name": "_pairVault",
          "type": "address"
        },
        {
          "internalType": "contract ITradingVault",
          "name": "_tradingVault",
          "type": "address"
        },
        {
          "internalType": "contract IVaultPriceFeed",
          "name": "_vaultPriceFeed",
          "type": "address"
        }
      ],
      "stateMutability": "nonpayable",
      "type": "constructor"
    },
    {
      "anonymous": false,
      "inputs": [
        {
          "indexed": false,
          "internalType": "address",
          "name": "account",
          "type": "address"
        },
        {
          "indexed": false,
          "internalType": "uint256",
          "name": "orderId",
          "type": "uint256"
        },
        {
          "indexed": false,
          "internalType": "enum TradingTypes.TradeType",
          "name": "tradeType",
          "type": "uint8"
        }
      ],
      "name": "CancelDecreaseOrder",
      "type": "event"
    },
    {
      "anonymous": false,
      "inputs": [
        {
          "indexed": false,
          "internalType": "address",
          "name": "account",
          "type": "address"
        },
        {
          "indexed": false,
          "internalType": "uint256",
          "name": "orderId",
          "type": "uint256"
        },
        {
          "indexed": false,
          "internalType": "enum TradingTypes.TradeType",
          "name": "tradeType",
          "type": "uint8"
        }
      ],
      "name": "CancelIncreaseOrder",
      "type": "event"
    },
    {
      "anonymous": false,
      "inputs": [
        {
          "indexed": false,
          "internalType": "address",
          "name": "account",
          "type": "address"
        },
        {
          "indexed": false,
          "internalType": "uint256",
          "name": "orderId",
          "type": "uint256"
        },
        {
          "indexed": false,
          "internalType": "enum TradingTypes.TradeType",
          "name": "tradeType",
          "type": "uint8"
        },
        {
          "indexed": false,
          "internalType": "int256",
          "name": "collateral",
          "type": "int256"
        },
        {
          "indexed": false,
          "internalType": "uint256",
          "name": "pairIndex",
          "type": "uint256"
        },
        {
          "indexed": false,
          "internalType": "uint256",
          "name": "openPrice",
          "type": "uint256"
        },
        {
          "indexed": false,
          "internalType": "uint256",
          "name": "sizeAmount",
          "type": "uint256"
        },
        {
          "indexed": false,
          "internalType": "bool",
          "name": "isLong",
          "type": "bool"
        },
        {
          "indexed": false,
          "internalType": "bool",
          "name": "abovePrice",
          "type": "bool"
        }
      ],
      "name": "CreateDecreaseOrder",
      "type": "event"
    },
    {
      "anonymous": false,
      "inputs": [
        {
          "indexed": false,
          "internalType": "address",
          "name": "account",
          "type": "address"
        },
        {
          "indexed": false,
          "internalType": "uint256",
          "name": "orderId",
          "type": "uint256"
        },
        {
          "indexed": false,
          "internalType": "uint256",
          "name": "pairIndex",
          "type": "uint256"
        },
        {
          "indexed": false,
          "internalType": "enum TradingTypes.TradeType",
          "name": "tradeType",
          "type": "uint8"
        },
        {
          "indexed": false,
          "internalType": "int256",
          "name": "collateral",
          "type": "int256"
        },
        {
          "indexed": false,
          "internalType": "uint256",
          "name": "openPrice",
          "type": "uint256"
        },
        {
          "indexed": false,
          "internalType": "bool",
          "name": "isLong",
          "type": "bool"
        },
        {
          "indexed": false,
          "internalType": "uint256",
          "name": "sizeAmount",
          "type": "uint256"
        },
        {
          "indexed": false,
          "internalType": "uint256",
          "name": "tpPrice",
          "type": "uint256"
        },
        {
          "indexed": false,
          "internalType": "uint256",
          "name": "tpAmount",
          "type": "uint256"
        },
        {
          "indexed": false,
          "internalType": "uint256",
          "name": "slPrice",
          "type": "uint256"
        },
        {
          "indexed": false,
          "internalType": "uint256",
          "name": "slAmount",
          "type": "uint256"
        }
      ],
      "name": "CreateIncreaseOrder",
      "type": "event"
    },
    {
      "anonymous": false,
      "inputs": [
        {
          "indexed": false,
          "internalType": "uint8",
          "name": "version",
          "type": "uint8"
        }
      ],
      "name": "Initialized",
      "type": "event"
    },
    {
      "anonymous": false,
      "inputs": [
        {
          "indexed": false,
          "internalType": "address",
          "name": "oldAddress",
          "type": "address"
        },
        {
          "indexed": false,
          "internalType": "address",
          "name": "newAddress",
          "type": "address"
        }
      ],
      "name": "UpdatePositionManager",
      "type": "event"
    },
    {
      "inputs": [],
      "name": "ADDRESS_PROVIDER",
      "outputs": [
        {
          "internalType": "contract IAddressesProvider",
          "name": "",
          "type": "address"
        }
      ],
      "stateMutability": "view",
      "type": "function"
    },
    {
      "inputs": [
        {
          "internalType": "uint256",
          "name": "pairIndex",
          "type": "uint256"
        },
        {
          "internalType": "uint256",
          "name": "size",
          "type": "uint256"
        }
      ],
      "name": "_checkTradingAmount",
      "outputs": [
        {
          "internalType": "bool",
          "name": "",
          "type": "bool"
        }
      ],
      "stateMutability": "nonpayable",
      "type": "function"
    },
    {
      "inputs": [
        {
          "components": [
            {
              "internalType": "address",
              "name": "account",
              "type": "address"
            },
            {
              "internalType": "uint256",
              "name": "pairIndex",
              "type": "uint256"
            },
            {
              "internalType": "bool",
              "name": "isLong",
              "type": "bool"
            },
            {
              "internalType": "bool",
              "name": "isIncrease",
              "type": "bool"
            },
            {
              "internalType": "enum TradingTypes.TradeType",
              "name": "tradeType",
              "type": "uint8"
            },
            {
              "internalType": "uint256",
              "name": "orderId",
              "type": "uint256"
            },
            {
              "internalType": "uint256",
              "name": "sizeAmount",
              "type": "uint256"
            }
          ],
          "internalType": "struct IOrderManager.PositionOrder",
          "name": "order",
          "type": "tuple"
        }
      ],
      "name": "addOrderToPosition",
      "outputs": [],
      "stateMutability": "nonpayable",
      "type": "function"
    },
    {
      "inputs": [
        {
          "internalType": "uint256",
          "name": "orderId",
          "type": "uint256"
        },
        {
          "internalType": "enum TradingTypes.TradeType",
          "name": "tradeType",
          "type": "uint8"
        },
        {
          "internalType": "bool",
          "name": "isIncrease",
          "type": "bool"
        }
      ],
      "name": "cancelOrder",
      "outputs": [],
      "stateMutability": "nonpayable",
      "type": "function"
    },
    {
      "inputs": [
        {
          "components": [
            {
              "internalType": "address",
              "name": "account",
              "type": "address"
            },
            {
              "internalType": "uint256",
              "name": "pairIndex",
              "type": "uint256"
            },
            {
              "internalType": "enum TradingTypes.TradeType",
              "name": "tradeType",
              "type": "uint8"
            },
            {
              "internalType": "int256",
              "name": "collateral",
              "type": "int256"
            },
            {
              "internalType": "uint256",
              "name": "openPrice",
              "type": "uint256"
            },
            {
              "internalType": "bool",
              "name": "isLong",
              "type": "bool"
            },
            {
              "internalType": "int256",
              "name": "sizeAmount",
              "type": "int256"
            },
            {
              "internalType": "uint256",
              "name": "tpPrice",
              "type": "uint256"
            },
            {
              "internalType": "uint256",
              "name": "tp",
              "type": "uint256"
            },
            {
              "internalType": "uint256",
              "name": "slPrice",
              "type": "uint256"
            },
            {
              "internalType": "uint256",
              "name": "sl",
              "type": "uint256"
            }
          ],
          "internalType": "struct TradingTypes.CreateOrderRequest",
          "name": "request",
          "type": "tuple"
        }
      ],
      "name": "createOrder",
      "outputs": [
        {
          "internalType": "uint256",
          "name": "orderId",
          "type": "uint256"
        }
      ],
      "stateMutability": "nonpayable",
      "type": "function"
    },
    {
      "inputs": [
        {
          "internalType": "uint256",
          "name": "",
          "type": "uint256"
        }
      ],
      "name": "decreaseLimitOrders",
      "outputs": [
        {
          "internalType": "uint256",
          "name": "orderId",
          "type": "uint256"
        },
        {
          "internalType": "address",
          "name": "account",
          "type": "address"
        },
        {
          "internalType": "uint256",
          "name": "pairIndex",
          "type": "uint256"
        },
        {
          "internalType": "enum TradingTypes.TradeType",
          "name": "tradeType",
          "type": "uint8"
        },
        {
          "internalType": "int256",
          "name": "collateral",
          "type": "int256"
        },
        {
          "internalType": "uint256",
          "name": "triggerPrice",
          "type": "uint256"
        },
        {
          "internalType": "uint256",
          "name": "sizeAmount",
          "type": "uint256"
        },
        {
          "internalType": "bool",
          "name": "isLong",
          "type": "bool"
        },
        {
          "internalType": "bool",
          "name": "abovePrice",
          "type": "bool"
        },
        {
          "internalType": "uint256",
          "name": "blockTime",
          "type": "uint256"
        },
        {
          "internalType": "bool",
          "name": "needADL",
          "type": "bool"
        }
      ],
      "stateMutability": "view",
      "type": "function"
    },
    {
      "inputs": [],
      "name": "decreaseLimitOrdersIndex",
      "outputs": [
        {
          "internalType": "uint256",
          "name": "",
          "type": "uint256"
        }
      ],
      "stateMutability": "view",
      "type": "function"
    },
    {
      "inputs": [
        {
          "internalType": "uint256",
          "name": "",
          "type": "uint256"
        }
      ],
      "name": "decreaseMarketOrders",
      "outputs": [
        {
          "internalType": "uint256",
          "name": "orderId",
          "type": "uint256"
        },
        {
          "internalType": "address",
          "name": "account",
          "type": "address"
        },
        {
          "internalType": "uint256",
          "name": "pairIndex",
          "type": "uint256"
        },
        {
          "internalType": "enum TradingTypes.TradeType",
          "name": "tradeType",
          "type": "uint8"
        },
        {
          "internalType": "int256",
          "name": "collateral",
          "type": "int256"
        },
        {
          "internalType": "uint256",
          "name": "triggerPrice",
          "type": "uint256"
        },
        {
          "internalType": "uint256",
          "name": "sizeAmount",
          "type": "uint256"
        },
        {
          "internalType": "bool",
          "name": "isLong",
          "type": "bool"
        },
        {
          "internalType": "bool",
          "name": "abovePrice",
          "type": "bool"
        },
        {
          "internalType": "uint256",
          "name": "blockTime",
          "type": "uint256"
        },
        {
          "internalType": "bool",
          "name": "needADL",
          "type": "bool"
        }
      ],
      "stateMutability": "view",
      "type": "function"
    },
    {
      "inputs": [],
      "name": "decreaseMarketOrdersIndex",
      "outputs": [
        {
          "internalType": "uint256",
          "name": "",
          "type": "uint256"
        }
      ],
      "stateMutability": "view",
      "type": "function"
    },
    {
      "inputs": [
        {
          "internalType": "uint256",
          "name": "orderId",
          "type": "uint256"
        },
        {
          "internalType": "enum TradingTypes.TradeType",
          "name": "tradeType",
          "type": "uint8"
        }
      ],
      "name": "getDecreaseOrder",
      "outputs": [
        {
          "components": [
            {
              "internalType": "uint256",
              "name": "orderId",
              "type": "uint256"
            },
            {
              "internalType": "address",
              "name": "account",
              "type": "address"
            },
            {
              "internalType": "uint256",
              "name": "pairIndex",
              "type": "uint256"
            },
            {
              "internalType": "enum TradingTypes.TradeType",
              "name": "tradeType",
              "type": "uint8"
            },
            {
              "internalType": "int256",
              "name": "collateral",
              "type": "int256"
            },
            {
              "internalType": "uint256",
              "name": "triggerPrice",
              "type": "uint256"
            },
            {
              "internalType": "uint256",
              "name": "sizeAmount",
              "type": "uint256"
            },
            {
              "internalType": "bool",
              "name": "isLong",
              "type": "bool"
            },
            {
              "internalType": "bool",
              "name": "abovePrice",
              "type": "bool"
            },
            {
              "internalType": "uint256",
              "name": "blockTime",
              "type": "uint256"
            },
            {
              "internalType": "bool",
              "name": "needADL",
              "type": "bool"
            }
          ],
          "internalType": "struct TradingTypes.DecreasePositionOrder",
          "name": "order",
          "type": "tuple"
        }
      ],
      "stateMutability": "view",
      "type": "function"
    },
    {
      "inputs": [
        {
          "internalType": "uint256",
          "name": "orderId",
          "type": "uint256"
        },
        {
          "internalType": "enum TradingTypes.TradeType",
          "name": "tradeType",
          "type": "uint8"
        }
      ],
      "name": "getIncreaseOrder",
      "outputs": [
        {
          "components": [
            {
              "internalType": "uint256",
              "name": "orderId",
              "type": "uint256"
            },
            {
              "internalType": "address",
              "name": "account",
              "type": "address"
            },
            {
              "internalType": "uint256",
              "name": "pairIndex",
              "type": "uint256"
            },
            {
              "internalType": "enum TradingTypes.TradeType",
              "name": "tradeType",
              "type": "uint8"
            },
            {
              "internalType": "int256",
              "name": "collateral",
              "type": "int256"
            },
            {
              "internalType": "uint256",
              "name": "openPrice",
              "type": "uint256"
            },
            {
              "internalType": "bool",
              "name": "isLong",
              "type": "bool"
            },
            {
              "internalType": "uint256",
              "name": "sizeAmount",
              "type": "uint256"
            },
            {
              "internalType": "uint256",
              "name": "tpPrice",
              "type": "uint256"
            },
            {
              "internalType": "uint256",
              "name": "tp",
              "type": "uint256"
            },
            {
              "internalType": "uint256",
              "name": "slPrice",
              "type": "uint256"
            },
            {
              "internalType": "uint256",
              "name": "sl",
              "type": "uint256"
            },
            {
              "internalType": "uint256",
              "name": "blockTime",
              "type": "uint256"
            }
          ],
          "internalType": "struct TradingTypes.IncreasePositionOrder",
          "name": "order",
          "type": "tuple"
        }
      ],
      "stateMutability": "view",
      "type": "function"
    },
    {
      "inputs": [
        {
          "internalType": "bytes32",
          "name": "key",
          "type": "bytes32"
        }
      ],
      "name": "getPositionOrders",
      "outputs": [
        {
          "components": [
            {
              "internalType": "address",
              "name": "account",
              "type": "address"
            },
            {
              "internalType": "uint256",
              "name": "pairIndex",
              "type": "uint256"
            },
            {
              "internalType": "bool",
              "name": "isLong",
              "type": "bool"
            },
            {
              "internalType": "bool",
              "name": "isIncrease",
              "type": "bool"
            },
            {
              "internalType": "enum TradingTypes.TradeType",
              "name": "tradeType",
              "type": "uint8"
            },
            {
              "internalType": "uint256",
              "name": "orderId",
              "type": "uint256"
            },
            {
              "internalType": "uint256",
              "name": "sizeAmount",
              "type": "uint256"
            }
          ],
          "internalType": "struct IOrderManager.PositionOrder[]",
          "name": "",
          "type": "tuple[]"
        }
      ],
      "stateMutability": "view",
      "type": "function"
    },
    {
      "inputs": [
        {
          "internalType": "uint256",
          "name": "",
          "type": "uint256"
        }
      ],
      "name": "increaseLimitOrders",
      "outputs": [
        {
          "internalType": "uint256",
          "name": "orderId",
          "type": "uint256"
        },
        {
          "internalType": "address",
          "name": "account",
          "type": "address"
        },
        {
          "internalType": "uint256",
          "name": "pairIndex",
          "type": "uint256"
        },
        {
          "internalType": "enum TradingTypes.TradeType",
          "name": "tradeType",
          "type": "uint8"
        },
        {
          "internalType": "int256",
          "name": "collateral",
          "type": "int256"
        },
        {
          "internalType": "uint256",
          "name": "openPrice",
          "type": "uint256"
        },
        {
          "internalType": "bool",
          "name": "isLong",
          "type": "bool"
        },
        {
          "internalType": "uint256",
          "name": "sizeAmount",
          "type": "uint256"
        },
        {
          "internalType": "uint256",
          "name": "tpPrice",
          "type": "uint256"
        },
        {
          "internalType": "uint256",
          "name": "tp",
          "type": "uint256"
        },
        {
          "internalType": "uint256",
          "name": "slPrice",
          "type": "uint256"
        },
        {
          "internalType": "uint256",
          "name": "sl",
          "type": "uint256"
        },
        {
          "internalType": "uint256",
          "name": "blockTime",
          "type": "uint256"
        }
      ],
      "stateMutability": "view",
      "type": "function"
    },
    {
      "inputs": [],
      "name": "increaseLimitOrdersIndex",
      "outputs": [
        {
          "internalType": "uint256",
          "name": "",
          "type": "uint256"
        }
      ],
      "stateMutability": "view",
      "type": "function"
    },
    {
      "inputs": [
        {
          "internalType": "uint256",
          "name": "",
          "type": "uint256"
        }
      ],
      "name": "increaseMarketOrders",
      "outputs": [
        {
          "internalType": "uint256",
          "name": "orderId",
          "type": "uint256"
        },
        {
          "internalType": "address",
          "name": "account",
          "type": "address"
        },
        {
          "internalType": "uint256",
          "name": "pairIndex",
          "type": "uint256"
        },
        {
          "internalType": "enum TradingTypes.TradeType",
          "name": "tradeType",
          "type": "uint8"
        },
        {
          "internalType": "int256",
          "name": "collateral",
          "type": "int256"
        },
        {
          "internalType": "uint256",
          "name": "openPrice",
          "type": "uint256"
        },
        {
          "internalType": "bool",
          "name": "isLong",
          "type": "bool"
        },
        {
          "internalType": "uint256",
          "name": "sizeAmount",
          "type": "uint256"
        },
        {
          "internalType": "uint256",
          "name": "tpPrice",
          "type": "uint256"
        },
        {
          "internalType": "uint256",
          "name": "tp",
          "type": "uint256"
        },
        {
          "internalType": "uint256",
          "name": "slPrice",
          "type": "uint256"
        },
        {
          "internalType": "uint256",
          "name": "sl",
          "type": "uint256"
        },
        {
          "internalType": "uint256",
          "name": "blockTime",
          "type": "uint256"
        }
      ],
      "stateMutability": "view",
      "type": "function"
    },
    {
      "inputs": [],
      "name": "increaseMarketOrdersIndex",
      "outputs": [
        {
          "internalType": "uint256",
          "name": "",
          "type": "uint256"
        }
      ],
      "stateMutability": "view",
      "type": "function"
    },
    {
      "inputs": [
        {
          "internalType": "address",
          "name": "",
          "type": "address"
        }
      ],
      "name": "isHandler",
      "outputs": [
        {
          "internalType": "bool",
          "name": "",
          "type": "bool"
        }
      ],
      "stateMutability": "view",
      "type": "function"
    },
    {
      "inputs": [],
      "name": "pairInfo",
      "outputs": [
        {
          "internalType": "contract IPairInfo",
          "name": "",
          "type": "address"
        }
      ],
      "stateMutability": "view",
      "type": "function"
    },
    {
      "inputs": [],
      "name": "pairVault",
      "outputs": [
        {
          "internalType": "contract IPairVault",
          "name": "",
          "type": "address"
        }
      ],
      "stateMutability": "view",
      "type": "function"
    },
    {
      "inputs": [
        {
          "internalType": "bytes32",
          "name": "",
          "type": "bytes32"
        }
      ],
      "name": "positionDecreaseTotalAmount",
      "outputs": [
        {
          "internalType": "uint256",
          "name": "",
          "type": "uint256"
        }
      ],
      "stateMutability": "view",
      "type": "function"
    },
    {
      "inputs": [
        {
          "internalType": "bytes32",
          "name": "",
          "type": "bytes32"
        },
        {
          "internalType": "enum TradingTypes.TradeType",
          "name": "",
          "type": "uint8"
        }
      ],
      "name": "positionHasTpSl",
      "outputs": [
        {
          "internalType": "bool",
          "name": "",
          "type": "bool"
        }
      ],
      "stateMutability": "view",
      "type": "function"
    },
    {
      "inputs": [],
      "name": "positionManager",
      "outputs": [
        {
          "internalType": "contract IPositionManager",
          "name": "",
          "type": "address"
        }
      ],
      "stateMutability": "view",
      "type": "function"
    },
    {
      "inputs": [
        {
          "internalType": "bytes32",
          "name": "",
          "type": "bytes32"
        },
        {
          "internalType": "bytes32",
          "name": "",
          "type": "bytes32"
        }
      ],
      "name": "positionOrderIndex",
      "outputs": [
        {
          "internalType": "uint256",
          "name": "",
          "type": "uint256"
        }
      ],
      "stateMutability": "view",
      "type": "function"
    },
    {
      "inputs": [
        {
          "internalType": "bytes32",
          "name": "",
          "type": "bytes32"
        },
        {
          "internalType": "uint256",
          "name": "",
          "type": "uint256"
        }
      ],
      "name": "positionOrders",
      "outputs": [
        {
          "internalType": "address",
          "name": "account",
          "type": "address"
        },
        {
          "internalType": "uint256",
          "name": "pairIndex",
          "type": "uint256"
        },
        {
          "internalType": "bool",
          "name": "isLong",
          "type": "bool"
        },
        {
          "internalType": "bool",
          "name": "isIncrease",
          "type": "bool"
        },
        {
          "internalType": "enum TradingTypes.TradeType",
          "name": "tradeType",
          "type": "uint8"
        },
        {
          "internalType": "uint256",
          "name": "orderId",
          "type": "uint256"
        },
        {
          "internalType": "uint256",
          "name": "sizeAmount",
          "type": "uint256"
        }
      ],
      "stateMutability": "view",
      "type": "function"
    },
    {
      "inputs": [
        {
          "internalType": "uint256",
          "name": "orderId",
          "type": "uint256"
        }
      ],
      "name": "removeDecreaseLimitOrders",
      "outputs": [],
      "stateMutability": "nonpayable",
      "type": "function"
    },
    {
      "inputs": [
        {
          "internalType": "uint256",
          "name": "orderId",
          "type": "uint256"
        }
      ],
      "name": "removeDecreaseMarketOrders",
      "outputs": [],
      "stateMutability": "nonpayable",
      "type": "function"
    },
    {
      "inputs": [
        {
          "internalType": "uint256",
          "name": "orderId",
          "type": "uint256"
        }
      ],
      "name": "removeIncreaseLimitOrders",
      "outputs": [],
      "stateMutability": "nonpayable",
      "type": "function"
    },
    {
      "inputs": [
        {
          "internalType": "uint256",
          "name": "orderId",
          "type": "uint256"
        }
      ],
      "name": "removeIncreaseMarketOrders",
      "outputs": [],
      "stateMutability": "nonpayable",
      "type": "function"
    },
    {
      "inputs": [
        {
          "components": [
            {
              "internalType": "address",
              "name": "account",
              "type": "address"
            },
            {
              "internalType": "uint256",
              "name": "pairIndex",
              "type": "uint256"
            },
            {
              "internalType": "bool",
              "name": "isLong",
              "type": "bool"
            },
            {
              "internalType": "bool",
              "name": "isIncrease",
              "type": "bool"
            },
            {
              "internalType": "enum TradingTypes.TradeType",
              "name": "tradeType",
              "type": "uint8"
            },
            {
              "internalType": "uint256",
              "name": "orderId",
              "type": "uint256"
            },
            {
              "internalType": "uint256",
              "name": "sizeAmount",
              "type": "uint256"
            }
          ],
          "internalType": "struct IOrderManager.PositionOrder",
          "name": "order",
          "type": "tuple"
        }
      ],
      "name": "removeOrderFromPosition",
      "outputs": [],
      "stateMutability": "nonpayable",
      "type": "function"
    },
    {
      "inputs": [
        {
          "internalType": "address",
          "name": "_handler",
          "type": "address"
        },
        {
          "internalType": "bool",
          "name": "_isHandler",
          "type": "bool"
        }
      ],
      "name": "setHandler",
      "outputs": [],
      "stateMutability": "nonpayable",
      "type": "function"
    },
    {
      "inputs": [
        {
          "internalType": "uint256",
          "name": "orderId",
          "type": "uint256"
        },
        {
          "internalType": "enum TradingTypes.TradeType",
          "name": "tradeType",
          "type": "uint8"
        },
        {
          "internalType": "bool",
          "name": "needADL",
          "type": "bool"
        }
      ],
      "name": "setOrderNeedADL",
      "outputs": [],
      "stateMutability": "nonpayable",
      "type": "function"
    },
    {
      "inputs": [
        {
          "internalType": "bytes32",
          "name": "key",
          "type": "bytes32"
        },
        {
          "internalType": "enum TradingTypes.TradeType",
          "name": "tradeType",
          "type": "uint8"
        },
        {
          "internalType": "bool",
          "name": "has",
          "type": "bool"
        }
      ],
      "name": "setPositionHasTpSl",
      "outputs": [],
      "stateMutability": "nonpayable",
      "type": "function"
    },
    {
      "inputs": [],
      "name": "tradingVault",
      "outputs": [
        {
          "internalType": "contract ITradingVault",
          "name": "",
          "type": "address"
        }
      ],
      "stateMutability": "view",
      "type": "function"
    },
    {
      "inputs": [
        {
          "internalType": "address",
          "name": "newAddress",
          "type": "address"
        }
      ],
      "name": "updatePositionManager",
      "outputs": [],
      "stateMutability": "nonpayable",
      "type": "function"
    },
    {
      "inputs": [],
      "name": "vaultPriceFeed",
      "outputs": [
        {
          "internalType": "contract IVaultPriceFeed",
          "name": "",
          "type": "address"
        }
      ],
      "stateMutability": "view",
      "type": "function"
    }
  ],
  "transactionHash": "0x56a9a0be3859aa48280fdadfb06034d0cecf56181f424b3284c47429a8b639aa",
  "args": [
    "0x5FbDB2315678afecb367f032d93F642f64180aa3",
    "0x7a2088a1bFc9d81c55368AE168C2C02570cB814F",
    "0x09635F643e140090A9A8Dcd712eD6285858ceBef",
    "0x67d269191c92Caf3cD7723F116c85e6E9bf55933",
    "0xB7f8BC63BbcaD18155201308C8f3540b07f84F5e"
  ],
  "numDeployments": 1,
  "solcInputHash": "88b9facc694daac1217da6c3f2e56500",
  "bytecode": "0x60a0346200011b57601f6200467638819003918201601f191683019291906001600160401b0384118385101762000120578160a092849260409687528339810103126200011b5780516001600160a01b039182821682036200011b576020810151918383168093036200011b5784820151908482168092036200011b576060830151928584168094036200011b57608001519485168095036200011b5733600052603360205285600020600160ff1982541617905560805260018060a01b0319928386541617855582604154161760415581604254161760425560435416176043555161453f9081620001378239608051818181610557015281816108be015281816111490152818161144a0152818161388f0152613bc00152f35b600080fd5b634e487b7160e01b600052604160045260246000fdfe60806040908082526004908136101561001757600080fd5b60009060e08235811c918262c5ecd21461160b57508163021a34dd146115715781630573a06e146113905781630bc628fb1461134e5781630f727949146111785781631848effa146111345781632670e98d14610d515781633946fd4214610d325781633954552914610d005781633e5005e514610cb15781634136de9f14610c3c57816346ea87af14610bfe578163499a83c714610bd55781634cc42b5114610ae65781634d3cb81014610a97578163671e110714610a165781636881d8cb146108835781636db415cc146108565781636e30e016146107d5578163791b98bc146107ac57816379f5927e1461078d5781638168c0b6146106eb57816386249bab146106cc57816390a4a7681461067d5781639cb7de4b1461050f578163a31a7b44146104e6578163ab9b4ca8146104c7578163be82e5b114610478578163c1872cf314610383578163c25098591461035c578163eeaa783a14610333578163f1bd27a81461030a578163f9d244fd1461025257508063fc2a5b1d146102265763fca5c793146101a757600080fd5b34610223576020366003190112610223578261021f91833581526036602052209283549360018060a01b036001820154169360028201549560ff60038401541691830154600584015460068501549160078601549460ff600960088901549801541697519a8b9a60ff808960081c169816968c6116a8565b0390f35b80fd5b50823461024e578160031936011261024e57805490516001600160a01b039091168152602090f35b5080fd5b84915034610306576101a0925061027161026b3661197d565b906140d8565b908251928251845260018060a01b03602084015116602085015280830151908401526102a560608301516060850190611685565b6080820151608084015260a082015160a084015260c0820151151560c0840152808201519083015261010080820151908301526101208082015190830152610140808201519083015261016080820151908301526101808091015190820152f35b8280fd5b82853461024e578160031936011261024e5760425490516001600160a01b039091168152602090f35b82853461024e578160031936011261024e5760435490516001600160a01b039091168152602090f35b82346102235761037c61036e3661199c565b91610377613038565b613782565b6001805580f35b5050903461024e576103943661199c565b923033148015610463575b6103a89061436f565b8082101561045057816103d257505082936009916103cf9452603660205284205b016119e9565b80f35b90918452603a6020528484209160ff6003840154168281101561043d570361040357506103cf9293506009906103c9565b606490602086519162461bcd60e51b835282015260146024820152730e8e4c2c8ca40e8f2e0ca40dcdee840dac2e8c6d60631b6044820152fd5b634e487b7160e01b865260218352602486fd5b634e487b7160e01b855260219052602484fd5b5033855260336020528585205460ff1661039f565b50509134610306576020366003190112610306576103cf9130331480156104b2575b6104a39061436f565b3583526036602052822061409c565b5033845260336020528184205460ff1661049a565b82853461024e578160031936011261024e576020906039549051908152f35b82853461024e578160031936011261024e5760415490516001600160a01b039091168152602090f35b5050823461024e578060031936011261024e5761052a61180e565b906024359182151583036106795781516351331ad760e01b81526020956001600160a01b039291878183817f000000000000000000000000000000000000000000000000000000000000000088165afa90811561063857849189918991610642575b506024875180948193630935e01b60e21b83523388840152165afa9081156106385787916105ff575b50156105d05750946033916103cf95961686525283206119e9565b835162461bcd60e51b8152908101879052600960248201526837b7363ca0b236b4b760b91b6044820152606490fd5b90508781813d8311610631575b61061681836117ed565b8101031261062d57610627906119dc565b886105b5565b8680fd5b503d61060c565b85513d89823e3d90fd5b92505081813d8311610672575b61065981836117ed565b8101031261062d578761066c85926119c8565b8a61058c565b503d61064f565b8380fd5b50509134610306576020366003190112610306576103cf9130331480156106b7575b6106a89061436f565b35835260386020528220613fd5565b5033845260336020528184205460ff1661069f565b82853461024e578160031936011261024e576020906035549051908152f35b8491503461030657610160925061070a6107043661197d565b90614251565b908251928251845260018060a01b036020840151166020850152808301519084015261073e60608301516060850190611685565b6080820151608084015260a082015160a084015260c082015160c08401528082015115159083015261010080820151151590830152610120808201519083015261014080910151151590820152f35b82853461024e578160031936011261024e57602090603b549051908152f35b82853461024e578160031936011261024e5760445490516001600160a01b039091168152602090f35b83858434610223576020366003190112610223578161021f91843581526038602052209182549260018060a01b036001820154169460028201549060ff60038401541690830154600584015460ff600686015416600786015491600887015493600988015495600a89015497600c600b8b01549a01549a519d8e9d8e611911565b838584346102235781600319360112610223575061087a6020926024359035613ef5565b90519015158152f35b5050823461024e5760209283600319360112610306576108a161180e565b82516351331ad760e01b815290916001600160a01b0391868183817f000000000000000000000000000000000000000000000000000000000000000087165afa9081156109d5578391889188916109df575b506024875180948193637be53ca160e01b83523388840152165afa9081156109d557869161099c575b501561096957507ff105ec4818f6dabbb000fe156cb8096a5e98f3124a5c11a0533c0fc4a7bb678e9394816044549316918260018060a01b0319851617604455845193168352820152a180f35b835162461bcd60e51b8152908101869052600d60248201526c37b7363ca837b7b620b236b4b760991b6044820152606490fd5b90508681813d83116109ce575b6109b381836117ed565b810103126109ca576109c4906119dc565b8761091c565b8580fd5b503d6109a9565b85513d88823e3d90fd5b92505081813d8311610a0f575b6109f681836117ed565b810103126109ca5786610a0984926119c8565b896108f3565b503d6109ec565b83858434610223576020366003190112610223578161021f91843581526034602052209182549260018060a01b036001820154169460028201549060ff60038401541690830154600584015460ff600686015416600786015491600887015493600988015495600a89015497600c600b8b01549a01549a519d8e9d8e611911565b50509134610306576020366003190112610306576103cf913033148015610ad1575b610ac29061436f565b358352603a602052822061409c565b5033845260336020528184205460ff16610ab9565b929190503461022357602090816003193601126102235782358152603c8252848120938454936001600160401b038511610bc2575094939290918451916005610b338383831b01856117ed565b8184528284018096865283862086915b848310610b985750505050508451958695828701938388525180945286019493905b838210610b725786860387f35b918496508286610b8860019496988498516118bc565b0196019201869594929391610b65565b8386600192610bad859e999b9a9c9d9e611a06565b81520192019201919099989795969499610b43565b634e487b7160e01b835260419052602482fd5b82858534610306576020366003190112610306576020928291358152603e845220549051908152f35b82853461024e57602036600319011261024e5760209160ff9082906001600160a01b03610c2961180e565b1681526033855220541690519015158152f35b8285853461030657606036600319011261030657602435908082101561067957604435918215158303610cad576103cf93610c93923033148015610c98575b610c849061436f565b358652603f6020528520611829565b6119e9565b5033875260336020528187205460ff16610c7b565b8480fd5b50509134610306576020366003190112610306576103cf913033148015610ceb575b610cdc9061436f565b35835260346020528220613fd5565b5033845260336020528184205460ff16610cd3565b828585346103065781600319360112610306576020928291358152603d84528181206024358252845220549051908152f35b82853461024e578160031936011261024e576020906037549051908152f35b8285853461030657610d6236611841565b91303314801561111f575b610d769061436f565b60018060a01b03928381511660a082019485519460808401918251968288101561110c57898091885196610da9886117d2565b603b885260209a8b89017f72656d6f76654f7264657246726f6d506f736974696f6e206163636f756e742090528a89017a012b99037b93232b924b21012b9903a3930b232aa3cb8329012b99602d1b90528a519182918d830194637c7a8d8f60e11b865260249b8c85016080905260a48501610e2491613265565b926044850152606484015260ff16608483015203601f1981018252610e4990826117ed565b51905a6a636f6e736f6c652e6c6f6790fa508451168685015186860151151590610e7292613589565b966060850190815115158451848110156110fa5790610e9391835191614461565b898b52603d8952878b20818c528952878b20548a8c52603c8a52888c20546000199291908381019081116110e857811061103c575b508a8c52603d8a52888c20908c5289528a88812055898b52603c8952878b20908154801561102a570190610efc8282611709565b6110195785818e809355826001820155826002820155826003820155015555518351838110156110075790610f7291885191610f37836117b7565b601d83527f706f736974696f6e4f72646572732072656d6f7665206f7264657249640000008b84015260ff610f6a61375d565b921692614495565b51159283610fa9575b505050610f86578480f35b610f9f9260c0603e920151948652528320918254611c95565b9055818080808480f35b90918093505182811015610ff55715928315610fcb575b505050868080610f7b565b5192509080831015610fe4575050600114868080610fc0565b634e487b7160e01b88526021905286fd5b50634e487b7160e01b88526021825287fd5b634e487b7160e01b8b5260218452858bfd5b634e487b7160e01b8d528c8652878dfd5b634e487b7160e01b8d5260318652878dfd5b8b8d52603c8b52898d208054848101919082116110d6576110669161106091611709565b50611a06565b606081015115156080820151888110156110c3578f928f928f8f603c889261109a6110a5956110ab9860a089015191614461565b978952528620611709565b906143b3565b8d8252603d8d528b822091528b52898d20558c610ec8565b50634e487b7160e01b8f5260218852898ffd5b634e487b7160e01b8f5260118852898ffd5b634e487b7160e01b8e5260118752888efd5b634e487b7160e01b8c5260218552868cfd5b634e487b7160e01b8a526021835260248afd5b5033845260336020528084205460ff16610d6d565b82853461024e578160031936011261024e57517f00000000000000000000000000000000000000000000000000000000000000006001600160a01b03168152602090f35b505091346103065761118936611841565b903033148015611339575b61119d9061436f565b8151602080840151838501519194926111c292151591906001600160a01b0316613589565b93606082018051151590608084019182519084821015611313576111ed9060a0870192835191614461565b888a52603c8852868a205490603d8952878b20908b528852868a2055878952603c8752858920805490600160401b821015611326576110a5828892600161123695018155611709565b51825184811015611313579061128291875191611252836117b7565b601a8352791c1bdcda5d1a5bdb93dc99195c9cc8185919081bdc99195c925960321b8a84015260ff610f6a61375d565b511591826112b8575b5050611295578480f35b6112ae9260c0603e9201519486525283209182546132cd565b9055388080808480f35b90809250518181101561130057159182156112d7575b5050388061128b565b519150808210156112ed575060011438806112ce565b634e487b7160e01b875260219052602486fd5b634e487b7160e01b885260218252602488fd5b634e487b7160e01b8a526021855260248afd5b634e487b7160e01b8b526041865260248bfd5b5033845260336020528084205460ff16611194565b8285853461030657816003193601126103065760243590808210156106795760ff918360209561138593358152603f875220611829565b541690519015158152f35b8484843461022357610160366003190112610223578251916113b18361173b565b6113b961180e565b8352602094602435868501526044358281101561067957858501526064356060850152608435608085015260a43580151581036106795760a085015260c43560c085015260e4359084015261010435610100840152610124356101208401526101443561014084015261142a613038565b825184516351331ad760e01b81526001600160a01b0391821692878282817f000000000000000000000000000000000000000000000000000000000000000087165afa9182156115675790889291869261152c575b5060249088519485938492635401a55160e11b84523390840152165afa9283156115215780936114dd575b5050816114c3916114c8949391156114d3575b50611a6e565b611d04565b906001805551908152f35b90503314866114bd565b909192508582813d831161151a575b6114f681836117ed565b8101031261022357506114c892916115106114c3926119dc565b92938192506114aa565b503d6114ec565b8551903d90823e3d90fd5b8092508391933d8311611560575b61154481836117ed565b81010312610cad5790602461155989936119c8565b919061147f565b503d61153a565b87513d87823e3d90fd5b838584346102235781600319360112610223576024359083358152603c6020528281209081548310156102235750906115a991611709565b506115ff60018060a01b03825416936001830154936002840154916003850154940154948151968752602087015260ff821615159086015260ff8160081c161515606086015260ff608086019160101c16611685565b60a083015260c0820152f35b8390858734610679576020366003190112610679579061021f91839482358152603a6020522080549160018060a01b036001830154169260028301549160ff6003850154169084015460058501549060068601549260078701549560ff600960088a0154990154169860ff808960081c169816968c6116a8565b9060048210156116925752565b634e487b7160e01b600052602160045260246000fd5b9996936101409996936116de929d9c9996936101608d019e8d5260018060a01b031660208d015260408c015260608b0190611685565b608089015260a088015260c0870152151560e086015215156101008501526101208401521515910152565b8054821015611725576000526005602060002091020190600090565b634e487b7160e01b600052603260045260246000fd5b61016081019081106001600160401b0382111761175757604052565b634e487b7160e01b600052604160045260246000fd5b60e081019081106001600160401b0382111761175757604052565b6001600160401b03811161175757604052565b6101a081019081106001600160401b0382111761175757604052565b604081019081106001600160401b0382111761175757604052565b606081019081106001600160401b0382111761175757604052565b90601f801991011681019081106001600160401b0382111761175757604052565b600435906001600160a01b038216820361182457565b600080fd5b90600481101561169257600052602052604060002090565b60e0906003190112611824576040516118598161176d565b6004356001600160a01b0381168103611824578152602435602082015260443580151581036118245760408201526064358015158103611824576060820152608435600481101561182457608082015260a43560a082015260c43560c082015290565b60c0809160018060a01b0381511684526020810151602085015260408101511515604085015260608101511515606085015261190060808201516080860190611685565b60a081015160a08501520151910152565b9a98969492909d9c9b99979593916101a08c019e8c52600160a01b600190031660208c015260408b015260608a0161194891611685565b608089015260a0880152151560c087015260e08601526101008501526101208401526101408301526101608201526101800152565b6040906003190112611824576004359060243560048110156118245790565b606090600319011261182457600435906024356004811015611824579060443580151581036118245790565b51906001600160a01b038216820361182457565b5190811515820361182457565b9060ff801983541691151516179055565b60048210156116925752565b90604051611a138161176d565b60c06004829460018060a01b03815416845260018101546020850152611a5d60ff600283015481811615156040880152818160081c161515606088015260101c16608086016119fa565b600381015460a08501520154910152565b15611a7557565b60405162461bcd60e51b81526020600482015260096024820152686e6f2061636365737360b81b6044820152606490fd5b908160e09103126118245760c060405191611ac08361176d565b611ac9816119c8565b8352611ad7602082016119c8565b6020840152611ae8604082016119c8565b6040840152611af9606082016119dc565b60608401526080810151608084015260a081015160a0840152015160c082015290565b80916101409283910312611824576040519182018281106001600160401b038211176117575760405280518252611b55602082016119c8565b602083015260408101516040830152611b70606082016119dc565b60608301526080810151608083015260a081015160a083015260c081015160c083015260e081015160e08301526101008082015190830152610120809101519082015290565b6001600160a01b0390911681526020810191909152901515604082015260600190565b8091610100928391031261182457604051918201908282106001600160401b038311176117575760e091604052805183526020810151602084015260408101516040840152606081015160608401526080810151608084015260a081015160a084015260c081015160c0840152015160e082015290565b15611c5757565b60405162461bcd60e51b815260206004820152601660248201527574702f736c2065786365656473206d61782073697a6560501b6044820152606490fd5b91908203918211611ca257565b634e487b7160e01b600052601160045260246000fd5b15611cbf57565b60405162461bcd60e51b815260206004820152601f60248201527f646563726561736520616d6f756e742065786365656420706f736974696f6e006044820152606490fd5b6044546000916001600160a01b039091169081156130045780516042546040516372c1cc1b60e11b81526001600160a01b0392831660048201819052949290911690602081602481855afa908115612ff9578691612fbf575b50612f86576040805460208501519151632f7ce47360e21b815260048101929092529091906001600160a01b031660e083602481845afa928315612f7b578793612f4a575b50606083015115612f0a5760408501516004811015612ef657158015612edf575b612a7c575b5050505060408101516004811015612a68576002148015612a51575b61294a575b60c0810190838251818113600014612382575050602081015191604082015190600482101561236e5760608301519060808401519060a0850151151590519160e086015193611e62610100880151966101406101208a0151990151996040519b611e528d61173b565b8c5260208c015260408b016119fa565b6060890152608088015260a087015260c086015260e085015261010084015261012083015261014082015260018060a01b03815116916020820151604083015160048110156121d9576060840151608085015160a0860151151560c08701519060e088015192610100890151946101208a0151966101408b0151986040519c611eea8e61179b565b8b8e5260208e015260408d0152611f049060608d016119fa565b60808b015260a08a015260c089015260e0880152610100870152610120860152610140850152610160840152426101808401526040820151600481101561235a576121ed57603554808452611f5881613fae565b603555815260346020908152604080832085518155918501516001830180546001600160a01b0319166001600160a01b03929092169190911790558401516002820155606084015160048110156121d957611fb69060038301613fbd565b6080840151600482015560a08401516005820155611fdd60c08501511515600683016119e9565b60e0840151600782015561010084015160088201556101208401516009820155610140840151600a820155610160840151600b820155600c6101808501519101555b60018060a01b03602084015116604084015160c08501511515606086015160048110156121c55761207c9087519260e089015194604051966120608861176d565b87526020870152604086015260016060860152608085016119fa565b60a083015260c0820152303b1561024e57604051630f72794960e01b8152906120a99060048301906118bc565b818160e48183305af180156121ba579082916121a6575b505060018060a01b0360208401511691835191602082015190604083015190600482101561219257509161018093917fe83629b11df9fcc6b9ebc666eb284c939d1710576a8d3eac23474d70fae8d47895936060830151608084015160a085015115159060c08601519261216160e088015195610100890151976101406101208b01519a01519a6040519c8d5260208d015260408c015260608b0190611685565b608089015260a088015260c087015260e0860152610100850152610120840152610140830152610160820152a15190565b634e487b7160e01b81526021600452602490fd5b6121af90611788565b6102235780386120c0565b6040513d84823e3d90fd5b634e487b7160e01b85526021600452602485fd5b634e487b7160e01b83526021600452602483fd5b6040820151600481101561235a5760010361233d5760395480845261221181613fae565b603955815260386020908152604080832085518155918501516001830180546001600160a01b0319166001600160a01b03929092169190911790558401516002820155606084015160048110156121d95761226f9060038301613fbd565b6080840151600482015560a0840151600582015561229660c08501511515600683016119e9565b60e0840151600782015561010084015160088201556101208401516009820155610140840151600a820155610160840151600b820155600c610180850151910155612338835160395490604051906122ed826117b7565b60078252661bdc99195c925960ca1b60208301526040519161230e836117b7565b60188352770d2dcc6e4cac2e6ca98d2dad2e89ee4c8cae4e692dcc8caf60431b6020840152614495565b61201f565b60405162461bcd60e51b81528061235660048201613f81565b0390fd5b634e487b7160e01b82526021600452602482fd5b634e487b7160e01b86526021600452602486fd5b1215612919576020810151916040820151600481101561236e576123d960608401519160a06123b6608087015195516132b6565b950151151595604051976123c98961176d565b88526020880152604087016119fa565b6060850152608084015260a083015260c082015260018060a01b03815116916020820151604083015160048110156121d957606084015160808501519061244a60a08701519360c0880151151595604051996124348b61173b565b888b5260208b015260408a0152606089016119fa565b608087015260a086015260c085015260e08401528061010084015242610120840152806101408401526040820151600481101561235a576126cb5760375480845260c083015115156101008501526124a181613fae565b603755815260366020908152604080832085518155918501516001830180546001600160a01b0319166001600160a01b03929092169190911790558401516002820155606084015160048110156121d957906125036125709260038301613fbd565b6080850151600482015560a0850151600582015560c085015160068201556125546007820161253860e08801511515826119e9565b610100870151815461ff00191690151560081b61ff0016179055565b61012085015160088201556009610140860151151591016119e9565b60018060a01b03602084015116604084015160e08501511515606086015160048110156121c5576125cc9087519260c089015194604051966125b18861176d565b875260208701526040860152856060860152608085016119fa565b60a083015260c0820152303b1561024e57604051630f72794960e01b8152906125f99060048301906118bc565b818160e48183305af180156121ba576126bc575b506020830151835160408401516001600160a01b0390921693909260048310156121925750917fe71a68544c2c9cf2a006d283baa849468003198fa8d8026335170198a30349dd9391836060610120950151602082015160808301519161269860c060a08601519501511515956101008c0151151597604051998a5260208a01526040890190611685565b6060870152608086015260a085015260c084015260e0830152610100820152a15190565b6126c590611788565b3861260d565b6040820151600481101561235a5760010361276257603b5480845260c0830151156101008501526126fb81613fae565b603b558152603a6020908152604080832085518155918501516001830180546001600160a01b0319166001600160a01b03929092169190911790558401516002820155606084015160048110156121d9579061250361275d9260038301613fbd565b612570565b6040820151600481101561235a5760020361283d57603b5480845260c08301511561010085015261279281613fae565b603b558152603a6020908152604080832085518155918501516001830180546001600160a01b0319166001600160a01b03929092169190911790558401516002820155606084015160048110156121d957906125036127f49260038301613fbd565b8151602083015160c08401516128179290151591906001600160a01b0316613589565b8152603f602052604081206002825260205260408120600160ff19825416179055612570565b6040820151600481101561235a5760030361233d57603b5480845260c0830151151561010085015261286e81613fae565b603b558152603a6020908152604080832085518155918501516001830180546001600160a01b0319166001600160a01b03929092169190911790558401516002820155606084015160048110156121d957906125036128d09260038301613fbd565b8151602083015160c08401516128f39290151591906001600160a01b0316613589565b8152603f602052604081206003825260205260408120600160ff19825416179055612570565b60405162461bcd60e51b8152602060048201526009602482015268073697a6520657120360bc1b6044820152606490fd5b604254602082015160a083015160405163bc95baad60e01b8152610140939092849284926001600160a01b0316918391829161298d911515908b60048501611bb6565b03915afa908115612a4657906129c392918691612a19575b5060a0610100850151910151809111159182612a0b575b5050611c50565b606081015115611de95760405162461bcd60e51b81526020600482015260166024820152751b9bc818dbdb1b185d195c985b081c995c5d5a5c995960521b6044820152606490fd5b8401511115905038806129bc565b612a399150823d8411612a3f575b612a3181836117ed565b810190611b1c565b386129a5565b503d612a27565b6040513d87823e3d90fd5b5060408101516004811015612a6857600314611de4565b634e487b7160e01b84526021600452602484fd5b60c08501518015908115612ec0575b5015612e8657612ad9906101406020870151612ab060a089019182511515908b613589565b94602089015191511515918a6040519687948593849363bc95baad60e01b855260048501611bb6565b03915afa918215612e7b578892612e58575b5060435484516040516341976e0960e01b81526001600160a01b039182166004820152949160209186916024918391165afa938415612e15578994612e20575b5061010060408401516024604051809581936330a66e1560e01b835260048301525afa918215612e15578992612de2575b5060c087015189811215612c74575b5060c087015189811315612c0e575b5050505050606083015190858213612b93575b80611dc8565b602001516001600160a01b031690612baa906132b6565b604051926323b872dd60e01b6020850152856024850152604484015260648301526064825260a082018281106001600160401b03821117612bfa57604052612bf2919061308e565b388080612b8d565b634e487b7160e01b86526041600452602486fd5b612c6a94612c6393612c3c92612c2860608c0151916132b6565b8251916080602085015194015194896134e0565b505060a0612c4d60c08901516132b6565b930151908952603e602052604089205490611c95565b1015611cb8565b3880808080612b7a565b612c939060608901519084516020860151916080870151938989613309565b508015612da65780612cb4916101008a015111159081612d96575b50611c50565b610100870151158015612d74575b15612d3b57610140870151158015612d19575b15612ce05738612b6b565b60405162461bcd60e51b8152602060048201526011602482015270736c20616c72656164792065786973747360781b6044820152606490fd5b50808952603f6020526040892060038a5260205260ff60408a20541615612cd5565b60405162461bcd60e51b8152602060048201526011602482015270747020616c72656164792065786973747360781b6044820152606490fd5b50808952603f6020526040892060028a5260205260ff60408a20541615612cc2565b9050610140890151111538612cae565b60405162461bcd60e51b81526020600482015260146024820152731e995c9bc81c1bdcda5d1a5bdb88185b5bdd5b9d60621b6044820152606490fd5b612e079192506101003d61010011612e0e575b612dff81836117ed565b810190611bd9565b9038612b5c565b503d612df5565b6040513d8b823e3d90fd5b9093506020813d602011612e50575b81612e3c602093836117ed565b81010312612e4c57519238612b2b565b8880fd5b3d9150612e2f565b612e749192506101403d61014011612a3f57612a3181836117ed565b9038612aeb565b6040513d8a823e3d90fd5b60405162461bcd60e51b8152602060048201526012602482015271696e76616c69642074726164652073697a6560701b6044820152606490fd5b612ed99150612ed36020880151916132b6565b90613ef5565b38612a8b565b5060408501516004811015612ef657600114611dc3565b634e487b7160e01b88526021600452602488fd5b60405162461bcd60e51b81526020600482015260186024820152771d1c985919481c185a5c881b9bdd081cdd5c1c1bdc9d195960421b6044820152606490fd5b612f6d91935060e03d60e011612f74575b612f6581836117ed565b810190611aa6565b9138611da2565b503d612f5b565b6040513d89823e3d90fd5b60405162461bcd60e51b815260206004820152601160248201527030b1b1b7bab73a1034b990333937bd32b760791b6044820152606490fd5b90506020813d602011612ff1575b81612fda602093836117ed565b810103126109ca57612feb906119dc565b38611d5d565b3d9150612fcd565b6040513d88823e3d90fd5b60405162461bcd60e51b815260206004820152600c60248201526b7a65726f206164647265737360a01b6044820152606490fd5b600260015414613049576002600155565b60405162461bcd60e51b815260206004820152601f60248201527f5265656e7472616e637947756172643a207265656e7472616e742063616c6c006044820152606490fd5b60018060a01b0316906040516130a3816117b7565b6020928382527f5361666545524332303a206c6f772d6c6576656c2063616c6c206661696c6564848301526000808486829651910182855af13d156131c6573d916001600160401b0383116131b2579061311d9392916040519261311088601f19601f84011601856117ed565b83523d868885013e6131d0565b90815190838215928315613190575b5050509050156131395750565b6084906040519062461bcd60e51b82526004820152602a60248201527f5361666545524332303a204552433230206f7065726174696f6e20646964206e6044820152691bdd081cdd58d8d9595960b21b6064820152fd5b8480929394500103126102235750816131a991016119dc565b8038838161312c565b634e487b7160e01b85526041600452602485fd5b9061311d92916060915b9192901561323257508151156131e4575090565b3b156131ed5790565b60405162461bcd60e51b815260206004820152601d60248201527f416464726573733a2063616c6c20746f206e6f6e2d636f6e74726163740000006044820152606490fd5b8251909150156132455750805190602001fd5b60405162461bcd60e51b8152602060048201529081906123569060248301905b919082519283825260005b848110613291575050826000602080949584010152601f8019910116010190565b602081830181015184830182015201613270565b600160ff1b8114611ca25760000390565b600081126132c15790565b6132ca906132a5565b90565b91908201809211611ca257565b91909160008382019384129112908015821691151617611ca257565b81810292918115918404141715611ca257565b969593909294919661332060a082019687516132cd565b9788156134cf576133359060808301516132da565b956000871261347f57519081613461575b50506000851261341c5761336b9061336684613361886132b6565b6135c4565b6132f6565b8610159182613400575b5050156133c657831161338b576132ca906132b6565b60405162461bcd60e51b815260206004820152601360248201527232bc31b2b2b21036b0bc103837b9b4ba34b7b760691b6044820152606490fd5b60405162461bcd60e51b81526020600482015260126024820152711b195d995c9859d9481a5b98dbdc9c9958dd60721b6044820152606490fd5b613412925061336690613361866132b6565b8411153880613375565b60405162461bcd60e51b815260206004820152601d60248201527f636f6c6c61746572616c206e6f7420656e6f75676820666f7220706e6c0000006044820152606490fd5b8461347793979261347192613504565b906132da565b933880613346565b60405162461bcd60e51b815260206004820152602260248201527f636f6c6c61746572616c206e6f7420656e6f75676820666f7220646563726561604482015261736560f01b6064820152608490fd5b505050505050509050600090600090565b969593909294919661332060a08201966134fd8189511015611cb8565b8751611c95565b60c081019081519081851461357f576060015115613555575080518084111561353d57506132ca92613537915190611c95565b906136a9565b6135509291506132ca9361353791611c95565b6132a5565b8381111561356c57506132ca926135379151611c95565b613550929150613537906132ca94611c95565b5050505050600090565b9160405191602083019360018060601b03199060601b1684526034830152151560f81b6054820152603581526135be816117d2565b51902090565b9068327cb2734119d3b7a9601e1b9060001982840992828102928380861095039480860395146136855784831115613648578291096001821901821680920460028082600302188083028203028083028203028083028203028083028203028083028203028092029003029360018380600003040190848311900302920304170290565b60405162461bcd60e51b81526020600482015260156024820152744d6174683a206d756c446976206f766572666c6f7760581b6044820152606490fd5b505080925015613693570490565b634e487b7160e01b600052601260045260246000fd5b90600019818309818302918280831092039180830392146137105768327cb2734119d3b7a9601e1b9082821115613648577f7d33c22789773a07feda8b6f0930e26fa397c439f1d5cf4b2eb27d7306d2dc99940990828211900360e21b9103601e1c170290565b505068327cb2734119d3b7a9601e1b9004919050565b60405190613733826117b7565b601b82527a18d85b98d95b125b98dc99585cd953dc99195c881bdc99195c9259602a1b6020830152565b6040519061376a826117b7565b600982526874726164655479706560b81b6020830152565b90929160009160049485811015613ee25761382f9392916080916137ba6137a7613726565b6137af61375d565b8460ff851692614495565b6137c2613726565b93858060409661381761384589516137d9816117b7565b600a815260209c81696973496e63726561736560b01b8f809401528c51948593840196637d24491d60e01b885260249d8e86015260a4850190613265565b908b6044850152602319848303016064850152613265565b871515608483015203601f1981018352826117ed565b51906a636f6e736f6c652e6c6f675afa5015613b8c57613864916140d8565b84810180519194916001600160a01b039190821615613b815784516351331ad760e01b815287818b817f000000000000000000000000000000000000000000000000000000000000000087165afa908115613b4057839189918691613b4a575b508751635401a55160e11b815233818e015292839188918391165afa908115613b40578491613b0b575b508015613aff575b6138ff90611a6e565b81855416968587019760e08951878d8a519485938492632f7ce47360e21b84528301525afa908115611567578591613ae1575b5060808801518483878313613abd575b5091505082511697519760c088015115159860608901998a518d811015613aaa57613996908b519260e08d0151948c519661397c8861176d565b8752878701528b86015260016060860152608085016119fa565b60a083015260c0820152303b15610cad578651632670e98d60e01b8152906139c1908c8301906118bc565b848160e48183305af1801561156757908591613a96575b505087518a811015613a8457613a535760349087518552526139fb858420613fd5565b5116935194519680881015613a43575050507f7e93a6b00cb3caacf000d7018943b12e2b4ad29e7849df14ebd51caf4fd739b89394613a3e915193849384614023565b0390a1565b634e487b7160e01b825260219052fd5b87518a811015613a8457600114613a6b575b506139fb565b6038908751855252613a7e858420613fd5565b38613a65565b634e487b7160e01b855260218b528585fd5b613a9f90611788565b6106795783386139d8565b50634e487b7160e01b875260218d528787fd5b613ad89301511690613ad286865116916132b6565b9161404d565b38808483613942565b613af9915060e03d8111612f7457612f6581836117ed565b38613932565b508051821633146138f6565b90508781813d8311613b39575b613b2281836117ed565b8101031261067957613b33906119dc565b386138ee565b503d613b18565b86513d86823e3d90fd5b92505081813d8311613b7a575b613b6181836117ed565b810103126106795787613b7484926119c8565b386138c4565b503d613b57565b505050505050509050565b613b9591614251565b84810180519194916001600160a01b039190821615613b815784516351331ad760e01b815287818b817f000000000000000000000000000000000000000000000000000000000000000087165afa908115613b4057839189918691613eab575b508751635401a55160e11b815233818e015292839188918391165afa908115613b40578491613e76575b508015613e6a575b613c3090611a6e565b81855416968587019760e08951878d8a519485938492632f7ce47360e21b84528301525afa908115611567578591613e4c575b5060808801518483878313613e2e575b509150508251169780519860e08901908c8251151560608c019c8d5192831015613e1b578b928d92613ccb9260c08551950151955196613cb28861176d565b8752898701528d8601528a6060860152608085016119fa565b60a083015260c0820152303b1561062d578851632670e98d60e01b815290613cf690828f01906118bc565b868160e48183305af18015613e1157613dfa575b5090613d20918585511691519051151591613589565b88518b811015613de857613d8557506036908751855252613d4285842061409c565b5116935194519680881015613a43575050507fb225fd6bcccad9342bc10ccc7e25ef77175b77348c8393d669ac2dbc98a1ae299394613a3e915193849384614023565b88518b811015613de857600103613daf5750603a908751855252613daa85842061409c565b613d42565b8452603f81528584208851908b821015613de857603a9291613dd091611829565b60ff1981541690558751855252613daa85842061409c565b634e487b7160e01b865260218c528686fd5b95613e09613d20939297611788565b959091613d0a565b89513d89823e3d90fd5b8f8a60218d92634e487b7160e01b835252fd5b613e439301511690613ad286865116916132b6565b38808483613c73565b613e64915060e03d8111612f7457612f6581836117ed565b38613c63565b50805182163314613c27565b90508781813d8311613ea4575b613e8d81836117ed565b8101031261067957613e9e906119dc565b38613c1f565b503d613e83565b92505081813d8311613edb575b613ec281836117ed565b810103126106795787613ed584926119c8565b38613bf5565b503d613eb8565b634e487b7160e01b845260218652602484fd5b6040805490516330a66e1560e01b815260048101929092526101009291908390829060249082906001600160a01b03165afa928315613f7557600093613f56575b505060408201518110159182613f4b57505090565b606001511015919050565b613f6d929350803d10612e0e57612dff81836117ed565b903880613f36565b6040513d6000823e3d90fd5b606090602081526012602082015271696e76616c6964207472616465207479706560701b60408201520190565b6000198114611ca25760010190565b9060048110156116925760ff80198354169116179055565b600c60009182815582600182015582600282015582600382015582600482015582600582015582600682015582600782015582600882015582600982015582600a82015582600b8201550155565b6001600160a01b039091168152602081019190915260608101929161404b9160400190611685565b565b60405163a9059cbb60e01b60208201526001600160a01b03909216602483015260448083019390935291815260808101916001600160401b038311828410176117575761404b9260405261308e565b60096000918281558260018201558260028201558260038201558260048201558260058201558260068201558260078201558260088201550155565b9190916040908151906140ea8261179b565b60009485835285602084015285848401528560608401528560808401528560a08401528560c08401528560e08401526101009186838501526101208781860152610140918883870152610160938985880152610180968a8882015250600481101561423d578061420157509588600c969782999a52603460205220938751976141728961179b565b8554895260018601546001600160a01b031660208a015260028601549089015260038501546141a79060ff1660608a016119fa565b60048501546080890152600585015460a089015260ff600686015416151560c0890152600785015460e0890152600885015490880152600984015490870152600a83015490860152600b8201549085015201549082015290565b600103614225579588600c969782999a52603860205220938751976141728961179b565b865162461bcd60e51b81528061235660048201613f81565b634e487b7160e01b8a52602160045260248afd5b906040918251916142618361173b565b600080845280602085015280858501528060608501528060808501528060a08501528060c08501528060e0850152610100928184860152610120928284870152826101408097015260048110156121d95760ff94926009949288921560001461435a578152603660205220918651966142d98861173b565b8354885260018401546001600160a01b03166020890152600284015490880152600383015461430d908616606089016119fa565b60048301546080880152600583015460a0880152600683015460c0880152846007840154818116151560e08a015260081c1615159087015260088201549086015201541615159082015290565b8152603a60205220918651966142d98861173b565b1561437657565b60405162461bcd60e51b81526020600482015260156024820152742430b7323632b0b136329d103337b93134b23232b760591b6044820152606490fd5b919061444b57805182546001600160a01b0319166001600160a01b03919091161782556020810151600183015560408101516002830191906143f7901515836119e9565b6060810151825461ff00191690151560081b61ff00161782556080810151906004821015611692578260c09262ff0000600495549160101b169062ff0000191617905560a081015160038501550151910155565b634e487b7160e01b600052600060045260246000fd5b91604051916020830193151560f81b845260048110156116925760f81b60218301526022820152602281526135be816117d2565b906144f66000949385946144e26040519485936144cb602086019863c67ea9d160e01b8a526080602488015260a4870190613265565b916044860152602319858303016064860152613265565b90608483015203601f1981018352826117ed565b51906a636f6e736f6c652e6c6f675afa5056fea2646970667358221220a56d890244d73ff2146b2995d77938d06615caec44b45dd8ef8035ff8c0bef1064736f6c63430008110033",
  "devdoc": {
    "kind": "dev",
    "methods": {},
    "version": 1
  },
  "userdoc": {
    "kind": "user",
    "methods": {},
    "version": 1
  },
  "storageLayout": {
    "storage": [
      {
        "astId": 6,
        "contract": "contracts/trading/OrderManager.sol:OrderManager",
        "label": "_initialized",
        "offset": 0,
        "slot": "0",
        "type": "t_uint8"
      },
      {
        "astId": 9,
        "contract": "contracts/trading/OrderManager.sol:OrderManager",
        "label": "_initializing",
        "offset": 1,
        "slot": "0",
        "type": "t_bool"
      },
      {
        "astId": 182,
        "contract": "contracts/trading/OrderManager.sol:OrderManager",
        "label": "_status",
        "offset": 0,
        "slot": "1",
        "type": "t_uint256"
      },
      {
        "astId": 251,
        "contract": "contracts/trading/OrderManager.sol:OrderManager",
        "label": "__gap",
        "offset": 0,
        "slot": "2",
        "type": "t_array(t_uint256)49_storage"
      },
      {
        "astId": 6539,
        "contract": "contracts/trading/OrderManager.sol:OrderManager",
        "label": "isHandler",
        "offset": 0,
        "slot": "51",
        "type": "t_mapping(t_address,t_bool)"
      },
      {
        "astId": 13353,
        "contract": "contracts/trading/OrderManager.sol:OrderManager",
        "label": "increaseMarketOrders",
        "offset": 0,
        "slot": "52",
        "type": "t_mapping(t_uint256,t_struct(IncreasePositionOrder)6745_storage)"
      },
      {
        "astId": 13356,
        "contract": "contracts/trading/OrderManager.sol:OrderManager",
        "label": "increaseMarketOrdersIndex",
        "offset": 0,
        "slot": "53",
        "type": "t_uint256"
      },
      {
        "astId": 13361,
        "contract": "contracts/trading/OrderManager.sol:OrderManager",
        "label": "decreaseMarketOrders",
        "offset": 0,
        "slot": "54",
        "type": "t_mapping(t_uint256,t_struct(DecreasePositionOrder)6769_storage)"
      },
      {
        "astId": 13364,
        "contract": "contracts/trading/OrderManager.sol:OrderManager",
        "label": "decreaseMarketOrdersIndex",
        "offset": 0,
        "slot": "55",
        "type": "t_uint256"
      },
      {
        "astId": 13369,
        "contract": "contracts/trading/OrderManager.sol:OrderManager",
        "label": "increaseLimitOrders",
        "offset": 0,
        "slot": "56",
        "type": "t_mapping(t_uint256,t_struct(IncreasePositionOrder)6745_storage)"
      },
      {
        "astId": 13372,
        "contract": "contracts/trading/OrderManager.sol:OrderManager",
        "label": "increaseLimitOrdersIndex",
        "offset": 0,
        "slot": "57",
        "type": "t_uint256"
      },
      {
        "astId": 13377,
        "contract": "contracts/trading/OrderManager.sol:OrderManager",
        "label": "decreaseLimitOrders",
        "offset": 0,
        "slot": "58",
        "type": "t_mapping(t_uint256,t_struct(DecreasePositionOrder)6769_storage)"
      },
      {
        "astId": 13380,
        "contract": "contracts/trading/OrderManager.sol:OrderManager",
        "label": "decreaseLimitOrdersIndex",
        "offset": 0,
        "slot": "59",
        "type": "t_uint256"
      },
      {
        "astId": 13386,
        "contract": "contracts/trading/OrderManager.sol:OrderManager",
        "label": "positionOrders",
        "offset": 0,
        "slot": "60",
        "type": "t_mapping(t_bytes32,t_array(t_struct(PositionOrder)4998_storage)dyn_storage)"
      },
      {
        "astId": 13392,
        "contract": "contracts/trading/OrderManager.sol:OrderManager",
        "label": "positionOrderIndex",
        "offset": 0,
        "slot": "61",
        "type": "t_mapping(t_bytes32,t_mapping(t_bytes32,t_uint256))"
      },
      {
        "astId": 13396,
        "contract": "contracts/trading/OrderManager.sol:OrderManager",
        "label": "positionDecreaseTotalAmount",
        "offset": 0,
        "slot": "62",
        "type": "t_mapping(t_bytes32,t_uint256)"
      },
      {
        "astId": 13403,
        "contract": "contracts/trading/OrderManager.sol:OrderManager",
        "label": "positionHasTpSl",
        "offset": 0,
        "slot": "63",
        "type": "t_mapping(t_bytes32,t_mapping(t_enum(TradeType)6638,t_bool))"
      },
      {
        "astId": 13406,
        "contract": "contracts/trading/OrderManager.sol:OrderManager",
        "label": "pairInfo",
        "offset": 0,
        "slot": "64",
        "type": "t_contract(IPairInfo)11580"
      },
      {
        "astId": 13409,
        "contract": "contracts/trading/OrderManager.sol:OrderManager",
        "label": "pairVault",
        "offset": 0,
        "slot": "65",
        "type": "t_contract(IPairVault)11675"
      },
      {
        "astId": 13412,
        "contract": "contracts/trading/OrderManager.sol:OrderManager",
        "label": "tradingVault",
        "offset": 0,
        "slot": "66",
        "type": "t_contract(ITradingVault)5775"
      },
      {
        "astId": 13415,
        "contract": "contracts/trading/OrderManager.sol:OrderManager",
        "label": "vaultPriceFeed",
        "offset": 0,
        "slot": "67",
        "type": "t_contract(IVaultPriceFeed)5810"
      },
      {
        "astId": 13418,
        "contract": "contracts/trading/OrderManager.sol:OrderManager",
        "label": "positionManager",
        "offset": 0,
        "slot": "68",
        "type": "t_contract(IPositionManager)5275"
      }
    ],
    "types": {
      "t_address": {
        "encoding": "inplace",
        "label": "address",
        "numberOfBytes": "20"
      },
      "t_array(t_struct(PositionOrder)4998_storage)dyn_storage": {
        "base": "t_struct(PositionOrder)4998_storage",
        "encoding": "dynamic_array",
        "label": "struct IOrderManager.PositionOrder[]",
        "numberOfBytes": "32"
      },
      "t_array(t_uint256)49_storage": {
        "base": "t_uint256",
        "encoding": "inplace",
        "label": "uint256[49]",
        "numberOfBytes": "1568"
      },
      "t_bool": {
        "encoding": "inplace",
        "label": "bool",
        "numberOfBytes": "1"
      },
      "t_bytes32": {
        "encoding": "inplace",
        "label": "bytes32",
        "numberOfBytes": "32"
      },
      "t_contract(IPairInfo)11580": {
        "encoding": "inplace",
        "label": "contract IPairInfo",
        "numberOfBytes": "20"
      },
      "t_contract(IPairVault)11675": {
        "encoding": "inplace",
        "label": "contract IPairVault",
        "numberOfBytes": "20"
      },
      "t_contract(IPositionManager)5275": {
        "encoding": "inplace",
        "label": "contract IPositionManager",
        "numberOfBytes": "20"
      },
      "t_contract(ITradingVault)5775": {
        "encoding": "inplace",
        "label": "contract ITradingVault",
        "numberOfBytes": "20"
      },
      "t_contract(IVaultPriceFeed)5810": {
        "encoding": "inplace",
        "label": "contract IVaultPriceFeed",
        "numberOfBytes": "20"
      },
      "t_enum(TradeType)6638": {
        "encoding": "inplace",
        "label": "enum TradingTypes.TradeType",
        "numberOfBytes": "1"
      },
      "t_int256": {
        "encoding": "inplace",
        "label": "int256",
        "numberOfBytes": "32"
      },
      "t_mapping(t_address,t_bool)": {
        "encoding": "mapping",
        "key": "t_address",
        "label": "mapping(address => bool)",
        "numberOfBytes": "32",
        "value": "t_bool"
      },
      "t_mapping(t_bytes32,t_array(t_struct(PositionOrder)4998_storage)dyn_storage)": {
        "encoding": "mapping",
        "key": "t_bytes32",
        "label": "mapping(bytes32 => struct IOrderManager.PositionOrder[])",
        "numberOfBytes": "32",
        "value": "t_array(t_struct(PositionOrder)4998_storage)dyn_storage"
      },
      "t_mapping(t_bytes32,t_mapping(t_bytes32,t_uint256))": {
        "encoding": "mapping",
        "key": "t_bytes32",
        "label": "mapping(bytes32 => mapping(bytes32 => uint256))",
        "numberOfBytes": "32",
        "value": "t_mapping(t_bytes32,t_uint256)"
      },
      "t_mapping(t_bytes32,t_mapping(t_enum(TradeType)6638,t_bool))": {
        "encoding": "mapping",
        "key": "t_bytes32",
        "label": "mapping(bytes32 => mapping(enum TradingTypes.TradeType => bool))",
        "numberOfBytes": "32",
        "value": "t_mapping(t_enum(TradeType)6638,t_bool)"
      },
      "t_mapping(t_bytes32,t_uint256)": {
        "encoding": "mapping",
        "key": "t_bytes32",
        "label": "mapping(bytes32 => uint256)",
        "numberOfBytes": "32",
        "value": "t_uint256"
      },
      "t_mapping(t_enum(TradeType)6638,t_bool)": {
        "encoding": "mapping",
        "key": "t_enum(TradeType)6638",
        "label": "mapping(enum TradingTypes.TradeType => bool)",
        "numberOfBytes": "32",
        "value": "t_bool"
      },
      "t_mapping(t_uint256,t_struct(DecreasePositionOrder)6769_storage)": {
        "encoding": "mapping",
        "key": "t_uint256",
        "label": "mapping(uint256 => struct TradingTypes.DecreasePositionOrder)",
        "numberOfBytes": "32",
        "value": "t_struct(DecreasePositionOrder)6769_storage"
      },
      "t_mapping(t_uint256,t_struct(IncreasePositionOrder)6745_storage)": {
        "encoding": "mapping",
        "key": "t_uint256",
        "label": "mapping(uint256 => struct TradingTypes.IncreasePositionOrder)",
        "numberOfBytes": "32",
        "value": "t_struct(IncreasePositionOrder)6745_storage"
      },
      "t_struct(DecreasePositionOrder)6769_storage": {
        "encoding": "inplace",
        "label": "struct TradingTypes.DecreasePositionOrder",
        "members": [
          {
            "astId": 6747,
            "contract": "contracts/trading/OrderManager.sol:OrderManager",
            "label": "orderId",
            "offset": 0,
            "slot": "0",
            "type": "t_uint256"
          },
          {
            "astId": 6749,
            "contract": "contracts/trading/OrderManager.sol:OrderManager",
            "label": "account",
            "offset": 0,
            "slot": "1",
            "type": "t_address"
          },
          {
            "astId": 6751,
            "contract": "contracts/trading/OrderManager.sol:OrderManager",
            "label": "pairIndex",
            "offset": 0,
            "slot": "2",
            "type": "t_uint256"
          },
          {
            "astId": 6754,
            "contract": "contracts/trading/OrderManager.sol:OrderManager",
            "label": "tradeType",
            "offset": 0,
            "slot": "3",
            "type": "t_enum(TradeType)6638"
          },
          {
            "astId": 6756,
            "contract": "contracts/trading/OrderManager.sol:OrderManager",
            "label": "collateral",
            "offset": 0,
            "slot": "4",
            "type": "t_int256"
          },
          {
            "astId": 6758,
            "contract": "contracts/trading/OrderManager.sol:OrderManager",
            "label": "triggerPrice",
            "offset": 0,
            "slot": "5",
            "type": "t_uint256"
          },
          {
            "astId": 6760,
            "contract": "contracts/trading/OrderManager.sol:OrderManager",
            "label": "sizeAmount",
            "offset": 0,
            "slot": "6",
            "type": "t_uint256"
          },
          {
            "astId": 6762,
            "contract": "contracts/trading/OrderManager.sol:OrderManager",
            "label": "isLong",
            "offset": 0,
            "slot": "7",
            "type": "t_bool"
          },
          {
            "astId": 6764,
            "contract": "contracts/trading/OrderManager.sol:OrderManager",
            "label": "abovePrice",
            "offset": 1,
            "slot": "7",
            "type": "t_bool"
          },
          {
            "astId": 6766,
            "contract": "contracts/trading/OrderManager.sol:OrderManager",
            "label": "blockTime",
            "offset": 0,
            "slot": "8",
            "type": "t_uint256"
          },
          {
            "astId": 6768,
            "contract": "contracts/trading/OrderManager.sol:OrderManager",
            "label": "needADL",
            "offset": 0,
            "slot": "9",
            "type": "t_bool"
          }
        ],
        "numberOfBytes": "320"
      },
      "t_struct(IncreasePositionOrder)6745_storage": {
        "encoding": "inplace",
        "label": "struct TradingTypes.IncreasePositionOrder",
        "members": [
          {
            "astId": 6719,
            "contract": "contracts/trading/OrderManager.sol:OrderManager",
            "label": "orderId",
            "offset": 0,
            "slot": "0",
            "type": "t_uint256"
          },
          {
            "astId": 6721,
            "contract": "contracts/trading/OrderManager.sol:OrderManager",
            "label": "account",
            "offset": 0,
            "slot": "1",
            "type": "t_address"
          },
          {
            "astId": 6723,
            "contract": "contracts/trading/OrderManager.sol:OrderManager",
            "label": "pairIndex",
            "offset": 0,
            "slot": "2",
            "type": "t_uint256"
          },
          {
            "astId": 6726,
            "contract": "contracts/trading/OrderManager.sol:OrderManager",
            "label": "tradeType",
            "offset": 0,
            "slot": "3",
            "type": "t_enum(TradeType)6638"
          },
          {
            "astId": 6728,
            "contract": "contracts/trading/OrderManager.sol:OrderManager",
            "label": "collateral",
            "offset": 0,
            "slot": "4",
            "type": "t_int256"
          },
          {
            "astId": 6730,
            "contract": "contracts/trading/OrderManager.sol:OrderManager",
            "label": "openPrice",
            "offset": 0,
            "slot": "5",
            "type": "t_uint256"
          },
          {
            "astId": 6732,
            "contract": "contracts/trading/OrderManager.sol:OrderManager",
            "label": "isLong",
            "offset": 0,
            "slot": "6",
            "type": "t_bool"
          },
          {
            "astId": 6734,
            "contract": "contracts/trading/OrderManager.sol:OrderManager",
            "label": "sizeAmount",
            "offset": 0,
            "slot": "7",
            "type": "t_uint256"
          },
          {
            "astId": 6736,
            "contract": "contracts/trading/OrderManager.sol:OrderManager",
            "label": "tpPrice",
            "offset": 0,
            "slot": "8",
            "type": "t_uint256"
          },
          {
            "astId": 6738,
            "contract": "contracts/trading/OrderManager.sol:OrderManager",
            "label": "tp",
            "offset": 0,
            "slot": "9",
            "type": "t_uint256"
          },
          {
            "astId": 6740,
            "contract": "contracts/trading/OrderManager.sol:OrderManager",
            "label": "slPrice",
            "offset": 0,
            "slot": "10",
            "type": "t_uint256"
          },
          {
            "astId": 6742,
            "contract": "contracts/trading/OrderManager.sol:OrderManager",
            "label": "sl",
            "offset": 0,
            "slot": "11",
            "type": "t_uint256"
          },
          {
            "astId": 6744,
            "contract": "contracts/trading/OrderManager.sol:OrderManager",
            "label": "blockTime",
            "offset": 0,
            "slot": "12",
            "type": "t_uint256"
          }
        ],
        "numberOfBytes": "416"
      },
      "t_struct(PositionOrder)4998_storage": {
        "encoding": "inplace",
        "label": "struct IOrderManager.PositionOrder",
        "members": [
          {
            "astId": 4984,
            "contract": "contracts/trading/OrderManager.sol:OrderManager",
            "label": "account",
            "offset": 0,
            "slot": "0",
            "type": "t_address"
          },
          {
            "astId": 4986,
            "contract": "contracts/trading/OrderManager.sol:OrderManager",
            "label": "pairIndex",
            "offset": 0,
            "slot": "1",
            "type": "t_uint256"
          },
          {
            "astId": 4988,
            "contract": "contracts/trading/OrderManager.sol:OrderManager",
            "label": "isLong",
            "offset": 0,
            "slot": "2",
            "type": "t_bool"
          },
          {
            "astId": 4990,
            "contract": "contracts/trading/OrderManager.sol:OrderManager",
            "label": "isIncrease",
            "offset": 1,
            "slot": "2",
            "type": "t_bool"
          },
          {
            "astId": 4993,
            "contract": "contracts/trading/OrderManager.sol:OrderManager",
            "label": "tradeType",
            "offset": 2,
            "slot": "2",
            "type": "t_enum(TradeType)6638"
          },
          {
            "astId": 4995,
            "contract": "contracts/trading/OrderManager.sol:OrderManager",
            "label": "orderId",
            "offset": 0,
            "slot": "3",
            "type": "t_uint256"
          },
          {
            "astId": 4997,
            "contract": "contracts/trading/OrderManager.sol:OrderManager",
            "label": "sizeAmount",
            "offset": 0,
            "slot": "4",
            "type": "t_uint256"
          }
        ],
        "numberOfBytes": "160"
      },
      "t_uint256": {
        "encoding": "inplace",
        "label": "uint256",
        "numberOfBytes": "32"
      },
      "t_uint8": {
        "encoding": "inplace",
        "label": "uint8",
        "numberOfBytes": "1"
      }
    }
  }
}