{
  "address": "0x49fd2BE640DB2910c2fAb69bB8531Ab6E76127ff",
  "abi": [
    {
      "inputs": [
        {
          "internalType": "contract IAddressesProvider",
          "name": "addressProvider",
          "type": "address"
        },
        {
          "internalType": "contract IPairInfo",
          "name": "_pairInfo",
          "type": "address"
        },
        {
          "internalType": "contract IPairVault",
          "name": "_pairVault",
          "type": "address"
        },
        {
          "internalType": "contract IPositionManager",
          "name": "_tradingVault",
          "type": "address"
        }
      ],
      "stateMutability": "nonpayable",
      "type": "constructor"
    },
    {
      "anonymous": false,
      "inputs": [
        {
          "indexed": false,
          "internalType": "address",
          "name": "account",
          "type": "address"
        },
        {
          "indexed": false,
          "internalType": "uint256",
          "name": "orderId",
          "type": "uint256"
        },
        {
          "indexed": false,
          "internalType": "enum TradingTypes.TradeType",
          "name": "tradeType",
          "type": "uint8"
        }
      ],
      "name": "CancelDecreaseOrder",
      "type": "event"
    },
    {
      "anonymous": false,
      "inputs": [
        {
          "indexed": false,
          "internalType": "address",
          "name": "account",
          "type": "address"
        },
        {
          "indexed": false,
          "internalType": "uint256",
          "name": "orderId",
          "type": "uint256"
        },
        {
          "indexed": false,
          "internalType": "enum TradingTypes.TradeType",
          "name": "tradeType",
          "type": "uint8"
        }
      ],
      "name": "CancelIncreaseOrder",
      "type": "event"
    },
    {
      "anonymous": false,
      "inputs": [
        {
          "indexed": false,
          "internalType": "address",
          "name": "account",
          "type": "address"
        },
        {
          "indexed": false,
          "internalType": "uint256",
          "name": "orderId",
          "type": "uint256"
        },
        {
          "indexed": false,
          "internalType": "enum TradingTypes.TradeType",
          "name": "tradeType",
          "type": "uint8"
        },
        {
          "indexed": false,
          "internalType": "int256",
          "name": "collateral",
          "type": "int256"
        },
        {
          "indexed": false,
          "internalType": "uint256",
          "name": "pairIndex",
          "type": "uint256"
        },
        {
          "indexed": false,
          "internalType": "uint256",
          "name": "openPrice",
          "type": "uint256"
        },
        {
          "indexed": false,
          "internalType": "uint256",
          "name": "sizeAmount",
          "type": "uint256"
        },
        {
          "indexed": false,
          "internalType": "bool",
          "name": "isLong",
          "type": "bool"
        },
        {
          "indexed": false,
          "internalType": "bool",
          "name": "abovePrice",
          "type": "bool"
        }
      ],
      "name": "CreateDecreaseOrder",
      "type": "event"
    },
    {
      "anonymous": false,
      "inputs": [
        {
          "indexed": false,
          "internalType": "address",
          "name": "account",
          "type": "address"
        },
        {
          "indexed": false,
          "internalType": "uint256",
          "name": "orderId",
          "type": "uint256"
        },
        {
          "indexed": false,
          "internalType": "uint256",
          "name": "pairIndex",
          "type": "uint256"
        },
        {
          "indexed": false,
          "internalType": "enum TradingTypes.TradeType",
          "name": "tradeType",
          "type": "uint8"
        },
        {
          "indexed": false,
          "internalType": "int256",
          "name": "collateral",
          "type": "int256"
        },
        {
          "indexed": false,
          "internalType": "uint256",
          "name": "openPrice",
          "type": "uint256"
        },
        {
          "indexed": false,
          "internalType": "bool",
          "name": "isLong",
          "type": "bool"
        },
        {
          "indexed": false,
          "internalType": "uint256",
          "name": "sizeAmount",
          "type": "uint256"
        },
        {
          "indexed": false,
          "internalType": "uint256",
          "name": "tpPrice",
          "type": "uint256"
        },
        {
          "indexed": false,
          "internalType": "uint256",
          "name": "tpAmount",
          "type": "uint256"
        },
        {
          "indexed": false,
          "internalType": "uint256",
          "name": "slPrice",
          "type": "uint256"
        },
        {
          "indexed": false,
          "internalType": "uint256",
          "name": "slAmount",
          "type": "uint256"
        }
      ],
      "name": "CreateIncreaseOrder",
      "type": "event"
    },
    {
      "anonymous": false,
      "inputs": [
        {
          "indexed": false,
          "internalType": "uint8",
          "name": "version",
          "type": "uint8"
        }
      ],
      "name": "Initialized",
      "type": "event"
    },
    {
      "anonymous": false,
      "inputs": [
        {
          "indexed": false,
          "internalType": "address",
          "name": "oldAddress",
          "type": "address"
        },
        {
          "indexed": false,
          "internalType": "address",
          "name": "newAddress",
          "type": "address"
        }
      ],
      "name": "UpdatePositionManager",
      "type": "event"
    },
    {
      "inputs": [],
      "name": "ADDRESS_PROVIDER",
      "outputs": [
        {
          "internalType": "contract IAddressesProvider",
          "name": "",
          "type": "address"
        }
      ],
      "stateMutability": "view",
      "type": "function"
    },
    {
      "inputs": [
        {
          "components": [
            {
              "internalType": "address",
              "name": "account",
              "type": "address"
            },
            {
              "internalType": "uint256",
              "name": "pairIndex",
              "type": "uint256"
            },
            {
              "internalType": "bool",
              "name": "isLong",
              "type": "bool"
            },
            {
              "internalType": "bool",
              "name": "isIncrease",
              "type": "bool"
            },
            {
              "internalType": "enum TradingTypes.TradeType",
              "name": "tradeType",
              "type": "uint8"
            },
            {
              "internalType": "uint256",
              "name": "orderId",
              "type": "uint256"
            },
            {
              "internalType": "uint256",
              "name": "sizeAmount",
              "type": "uint256"
            }
          ],
          "internalType": "struct IOrderManager.PositionOrder",
          "name": "order",
          "type": "tuple"
        }
      ],
      "name": "addOrderToPosition",
      "outputs": [],
      "stateMutability": "nonpayable",
      "type": "function"
    },
    {
      "inputs": [],
      "name": "addressExecutor",
      "outputs": [
        {
          "internalType": "address",
          "name": "",
          "type": "address"
        }
      ],
      "stateMutability": "view",
      "type": "function"
    },
    {
      "inputs": [
        {
          "internalType": "address",
          "name": "account",
          "type": "address"
        },
        {
          "internalType": "uint256",
          "name": "pairIndex",
          "type": "uint256"
        },
        {
          "internalType": "bool",
          "name": "isLong",
          "type": "bool"
        }
      ],
      "name": "cancelAllPositionOrders",
      "outputs": [],
      "stateMutability": "nonpayable",
      "type": "function"
    },
    {
      "inputs": [
        {
          "internalType": "uint256",
          "name": "orderId",
          "type": "uint256"
        },
        {
          "internalType": "enum TradingTypes.TradeType",
          "name": "tradeType",
          "type": "uint8"
        },
        {
          "internalType": "bool",
          "name": "isIncrease",
          "type": "bool"
        }
      ],
      "name": "cancelOrder",
      "outputs": [],
      "stateMutability": "nonpayable",
      "type": "function"
    },
    {
      "inputs": [
        {
          "components": [
            {
              "internalType": "address",
              "name": "account",
              "type": "address"
            },
            {
              "internalType": "uint256",
              "name": "pairIndex",
              "type": "uint256"
            },
            {
              "internalType": "enum TradingTypes.TradeType",
              "name": "tradeType",
              "type": "uint8"
            },
            {
              "internalType": "int256",
              "name": "collateral",
              "type": "int256"
            },
            {
              "internalType": "uint256",
              "name": "openPrice",
              "type": "uint256"
            },
            {
              "internalType": "bool",
              "name": "isLong",
              "type": "bool"
            },
            {
              "internalType": "int256",
              "name": "sizeAmount",
              "type": "int256"
            },
            {
              "internalType": "uint256",
              "name": "tpPrice",
              "type": "uint256"
            },
            {
              "internalType": "uint256",
              "name": "tp",
              "type": "uint256"
            },
            {
              "internalType": "uint256",
              "name": "slPrice",
              "type": "uint256"
            },
            {
              "internalType": "uint256",
              "name": "sl",
              "type": "uint256"
            }
          ],
          "internalType": "struct TradingTypes.CreateOrderRequest",
          "name": "request",
          "type": "tuple"
        }
      ],
      "name": "createOrder",
      "outputs": [
        {
          "internalType": "uint256",
          "name": "orderId",
          "type": "uint256"
        }
      ],
      "stateMutability": "nonpayable",
      "type": "function"
    },
    {
      "inputs": [
        {
          "internalType": "uint256",
          "name": "",
          "type": "uint256"
        }
      ],
      "name": "decreaseLimitOrders",
      "outputs": [
        {
          "internalType": "uint256",
          "name": "orderId",
          "type": "uint256"
        },
        {
          "internalType": "address",
          "name": "account",
          "type": "address"
        },
        {
          "internalType": "uint256",
          "name": "pairIndex",
          "type": "uint256"
        },
        {
          "internalType": "enum TradingTypes.TradeType",
          "name": "tradeType",
          "type": "uint8"
        },
        {
          "internalType": "int256",
          "name": "collateral",
          "type": "int256"
        },
        {
          "internalType": "uint256",
          "name": "triggerPrice",
          "type": "uint256"
        },
        {
          "internalType": "uint256",
          "name": "sizeAmount",
          "type": "uint256"
        },
        {
          "internalType": "bool",
          "name": "isLong",
          "type": "bool"
        },
        {
          "internalType": "bool",
          "name": "abovePrice",
          "type": "bool"
        },
        {
          "internalType": "uint256",
          "name": "blockTime",
          "type": "uint256"
        },
        {
          "internalType": "bool",
          "name": "needADL",
          "type": "bool"
        }
      ],
      "stateMutability": "view",
      "type": "function"
    },
    {
      "inputs": [],
      "name": "decreaseLimitOrdersIndex",
      "outputs": [
        {
          "internalType": "uint256",
          "name": "",
          "type": "uint256"
        }
      ],
      "stateMutability": "view",
      "type": "function"
    },
    {
      "inputs": [
        {
          "internalType": "uint256",
          "name": "",
          "type": "uint256"
        }
      ],
      "name": "decreaseMarketOrders",
      "outputs": [
        {
          "internalType": "uint256",
          "name": "orderId",
          "type": "uint256"
        },
        {
          "internalType": "address",
          "name": "account",
          "type": "address"
        },
        {
          "internalType": "uint256",
          "name": "pairIndex",
          "type": "uint256"
        },
        {
          "internalType": "enum TradingTypes.TradeType",
          "name": "tradeType",
          "type": "uint8"
        },
        {
          "internalType": "int256",
          "name": "collateral",
          "type": "int256"
        },
        {
          "internalType": "uint256",
          "name": "triggerPrice",
          "type": "uint256"
        },
        {
          "internalType": "uint256",
          "name": "sizeAmount",
          "type": "uint256"
        },
        {
          "internalType": "bool",
          "name": "isLong",
          "type": "bool"
        },
        {
          "internalType": "bool",
          "name": "abovePrice",
          "type": "bool"
        },
        {
          "internalType": "uint256",
          "name": "blockTime",
          "type": "uint256"
        },
        {
          "internalType": "bool",
          "name": "needADL",
          "type": "bool"
        }
      ],
      "stateMutability": "view",
      "type": "function"
    },
    {
      "inputs": [],
      "name": "decreaseMarketOrdersIndex",
      "outputs": [
        {
          "internalType": "uint256",
          "name": "",
          "type": "uint256"
        }
      ],
      "stateMutability": "view",
      "type": "function"
    },
    {
      "inputs": [
        {
          "internalType": "uint256",
          "name": "orderId",
          "type": "uint256"
        },
        {
          "internalType": "enum TradingTypes.TradeType",
          "name": "tradeType",
          "type": "uint8"
        }
      ],
      "name": "getDecreaseOrder",
      "outputs": [
        {
          "components": [
            {
              "internalType": "uint256",
              "name": "orderId",
              "type": "uint256"
            },
            {
              "internalType": "address",
              "name": "account",
              "type": "address"
            },
            {
              "internalType": "uint256",
              "name": "pairIndex",
              "type": "uint256"
            },
            {
              "internalType": "enum TradingTypes.TradeType",
              "name": "tradeType",
              "type": "uint8"
            },
            {
              "internalType": "int256",
              "name": "collateral",
              "type": "int256"
            },
            {
              "internalType": "uint256",
              "name": "triggerPrice",
              "type": "uint256"
            },
            {
              "internalType": "uint256",
              "name": "sizeAmount",
              "type": "uint256"
            },
            {
              "internalType": "bool",
              "name": "isLong",
              "type": "bool"
            },
            {
              "internalType": "bool",
              "name": "abovePrice",
              "type": "bool"
            },
            {
              "internalType": "uint256",
              "name": "blockTime",
              "type": "uint256"
            },
            {
              "internalType": "bool",
              "name": "needADL",
              "type": "bool"
            }
          ],
          "internalType": "struct TradingTypes.DecreasePositionOrder",
          "name": "order",
          "type": "tuple"
        }
      ],
      "stateMutability": "view",
      "type": "function"
    },
    {
      "inputs": [
        {
          "internalType": "uint256",
          "name": "orderId",
          "type": "uint256"
        },
        {
          "internalType": "enum TradingTypes.TradeType",
          "name": "tradeType",
          "type": "uint8"
        }
      ],
      "name": "getIncreaseOrder",
      "outputs": [
        {
          "components": [
            {
              "internalType": "uint256",
              "name": "orderId",
              "type": "uint256"
            },
            {
              "internalType": "address",
              "name": "account",
              "type": "address"
            },
            {
              "internalType": "uint256",
              "name": "pairIndex",
              "type": "uint256"
            },
            {
              "internalType": "enum TradingTypes.TradeType",
              "name": "tradeType",
              "type": "uint8"
            },
            {
              "internalType": "int256",
              "name": "collateral",
              "type": "int256"
            },
            {
              "internalType": "uint256",
              "name": "openPrice",
              "type": "uint256"
            },
            {
              "internalType": "bool",
              "name": "isLong",
              "type": "bool"
            },
            {
              "internalType": "uint256",
              "name": "sizeAmount",
              "type": "uint256"
            },
            {
              "internalType": "uint256",
              "name": "tpPrice",
              "type": "uint256"
            },
            {
              "internalType": "uint256",
              "name": "tp",
              "type": "uint256"
            },
            {
              "internalType": "uint256",
              "name": "slPrice",
              "type": "uint256"
            },
            {
              "internalType": "uint256",
              "name": "sl",
              "type": "uint256"
            },
            {
              "internalType": "uint256",
              "name": "blockTime",
              "type": "uint256"
            }
          ],
          "internalType": "struct TradingTypes.IncreasePositionOrder",
          "name": "order",
          "type": "tuple"
        }
      ],
      "stateMutability": "view",
      "type": "function"
    },
    {
      "inputs": [
        {
          "internalType": "bytes32",
          "name": "key",
          "type": "bytes32"
        }
      ],
      "name": "getPositionOrders",
      "outputs": [
        {
          "components": [
            {
              "internalType": "address",
              "name": "account",
              "type": "address"
            },
            {
              "internalType": "uint256",
              "name": "pairIndex",
              "type": "uint256"
            },
            {
              "internalType": "bool",
              "name": "isLong",
              "type": "bool"
            },
            {
              "internalType": "bool",
              "name": "isIncrease",
              "type": "bool"
            },
            {
              "internalType": "enum TradingTypes.TradeType",
              "name": "tradeType",
              "type": "uint8"
            },
            {
              "internalType": "uint256",
              "name": "orderId",
              "type": "uint256"
            },
            {
              "internalType": "uint256",
              "name": "sizeAmount",
              "type": "uint256"
            }
          ],
          "internalType": "struct IOrderManager.PositionOrder[]",
          "name": "",
          "type": "tuple[]"
        }
      ],
      "stateMutability": "view",
      "type": "function"
    },
    {
      "inputs": [
        {
          "internalType": "uint256",
          "name": "",
          "type": "uint256"
        }
      ],
      "name": "increaseLimitOrders",
      "outputs": [
        {
          "internalType": "uint256",
          "name": "orderId",
          "type": "uint256"
        },
        {
          "internalType": "address",
          "name": "account",
          "type": "address"
        },
        {
          "internalType": "uint256",
          "name": "pairIndex",
          "type": "uint256"
        },
        {
          "internalType": "enum TradingTypes.TradeType",
          "name": "tradeType",
          "type": "uint8"
        },
        {
          "internalType": "int256",
          "name": "collateral",
          "type": "int256"
        },
        {
          "internalType": "uint256",
          "name": "openPrice",
          "type": "uint256"
        },
        {
          "internalType": "bool",
          "name": "isLong",
          "type": "bool"
        },
        {
          "internalType": "uint256",
          "name": "sizeAmount",
          "type": "uint256"
        },
        {
          "internalType": "uint256",
          "name": "tpPrice",
          "type": "uint256"
        },
        {
          "internalType": "uint256",
          "name": "tp",
          "type": "uint256"
        },
        {
          "internalType": "uint256",
          "name": "slPrice",
          "type": "uint256"
        },
        {
          "internalType": "uint256",
          "name": "sl",
          "type": "uint256"
        },
        {
          "internalType": "uint256",
          "name": "blockTime",
          "type": "uint256"
        }
      ],
      "stateMutability": "view",
      "type": "function"
    },
    {
      "inputs": [],
      "name": "increaseLimitOrdersIndex",
      "outputs": [
        {
          "internalType": "uint256",
          "name": "",
          "type": "uint256"
        }
      ],
      "stateMutability": "view",
      "type": "function"
    },
    {
      "inputs": [
        {
          "internalType": "uint256",
          "name": "",
          "type": "uint256"
        }
      ],
      "name": "increaseMarketOrders",
      "outputs": [
        {
          "internalType": "uint256",
          "name": "orderId",
          "type": "uint256"
        },
        {
          "internalType": "address",
          "name": "account",
          "type": "address"
        },
        {
          "internalType": "uint256",
          "name": "pairIndex",
          "type": "uint256"
        },
        {
          "internalType": "enum TradingTypes.TradeType",
          "name": "tradeType",
          "type": "uint8"
        },
        {
          "internalType": "int256",
          "name": "collateral",
          "type": "int256"
        },
        {
          "internalType": "uint256",
          "name": "openPrice",
          "type": "uint256"
        },
        {
          "internalType": "bool",
          "name": "isLong",
          "type": "bool"
        },
        {
          "internalType": "uint256",
          "name": "sizeAmount",
          "type": "uint256"
        },
        {
          "internalType": "uint256",
          "name": "tpPrice",
          "type": "uint256"
        },
        {
          "internalType": "uint256",
          "name": "tp",
          "type": "uint256"
        },
        {
          "internalType": "uint256",
          "name": "slPrice",
          "type": "uint256"
        },
        {
          "internalType": "uint256",
          "name": "sl",
          "type": "uint256"
        },
        {
          "internalType": "uint256",
          "name": "blockTime",
          "type": "uint256"
        }
      ],
      "stateMutability": "view",
      "type": "function"
    },
    {
      "inputs": [],
      "name": "increaseMarketOrdersIndex",
      "outputs": [
        {
          "internalType": "uint256",
          "name": "",
          "type": "uint256"
        }
      ],
      "stateMutability": "view",
      "type": "function"
    },
    {
      "inputs": [
        {
          "internalType": "address",
          "name": "",
          "type": "address"
        }
      ],
      "name": "isHandler",
      "outputs": [
        {
          "internalType": "bool",
          "name": "",
          "type": "bool"
        }
      ],
      "stateMutability": "view",
      "type": "function"
    },
    {
      "inputs": [],
      "name": "pairInfo",
      "outputs": [
        {
          "internalType": "contract IPairInfo",
          "name": "",
          "type": "address"
        }
      ],
      "stateMutability": "view",
      "type": "function"
    },
    {
      "inputs": [],
      "name": "pairVault",
      "outputs": [
        {
          "internalType": "contract IPairVault",
          "name": "",
          "type": "address"
        }
      ],
      "stateMutability": "view",
      "type": "function"
    },
    {
      "inputs": [
        {
          "internalType": "bytes32",
          "name": "",
          "type": "bytes32"
        }
      ],
      "name": "positionDecreaseTotalAmount",
      "outputs": [
        {
          "internalType": "uint256",
          "name": "",
          "type": "uint256"
        }
      ],
      "stateMutability": "view",
      "type": "function"
    },
    {
      "inputs": [
        {
          "internalType": "bytes32",
          "name": "",
          "type": "bytes32"
        },
        {
          "internalType": "enum TradingTypes.TradeType",
          "name": "",
          "type": "uint8"
        }
      ],
      "name": "positionHasTpSl",
      "outputs": [
        {
          "internalType": "bool",
          "name": "",
          "type": "bool"
        }
      ],
      "stateMutability": "view",
      "type": "function"
    },
    {
      "inputs": [],
      "name": "positionManager",
      "outputs": [
        {
          "internalType": "contract IPositionManager",
          "name": "",
          "type": "address"
        }
      ],
      "stateMutability": "view",
      "type": "function"
    },
    {
      "inputs": [
        {
          "internalType": "bytes32",
          "name": "",
          "type": "bytes32"
        },
        {
          "internalType": "bytes32",
          "name": "",
          "type": "bytes32"
        }
      ],
      "name": "positionOrderIndex",
      "outputs": [
        {
          "internalType": "uint256",
          "name": "",
          "type": "uint256"
        }
      ],
      "stateMutability": "view",
      "type": "function"
    },
    {
      "inputs": [
        {
          "internalType": "bytes32",
          "name": "",
          "type": "bytes32"
        },
        {
          "internalType": "uint256",
          "name": "",
          "type": "uint256"
        }
      ],
      "name": "positionOrders",
      "outputs": [
        {
          "internalType": "address",
          "name": "account",
          "type": "address"
        },
        {
          "internalType": "uint256",
          "name": "pairIndex",
          "type": "uint256"
        },
        {
          "internalType": "bool",
          "name": "isLong",
          "type": "bool"
        },
        {
          "internalType": "bool",
          "name": "isIncrease",
          "type": "bool"
        },
        {
          "internalType": "enum TradingTypes.TradeType",
          "name": "tradeType",
          "type": "uint8"
        },
        {
          "internalType": "uint256",
          "name": "orderId",
          "type": "uint256"
        },
        {
          "internalType": "uint256",
          "name": "sizeAmount",
          "type": "uint256"
        }
      ],
      "stateMutability": "view",
      "type": "function"
    },
    {
      "inputs": [
        {
          "internalType": "uint256",
          "name": "orderId",
          "type": "uint256"
        }
      ],
      "name": "removeDecreaseLimitOrders",
      "outputs": [],
      "stateMutability": "nonpayable",
      "type": "function"
    },
    {
      "inputs": [
        {
          "internalType": "uint256",
          "name": "orderId",
          "type": "uint256"
        }
      ],
      "name": "removeDecreaseMarketOrders",
      "outputs": [],
      "stateMutability": "nonpayable",
      "type": "function"
    },
    {
      "inputs": [
        {
          "internalType": "uint256",
          "name": "orderId",
          "type": "uint256"
        }
      ],
      "name": "removeIncreaseLimitOrders",
      "outputs": [],
      "stateMutability": "nonpayable",
      "type": "function"
    },
    {
      "inputs": [
        {
          "internalType": "uint256",
          "name": "orderId",
          "type": "uint256"
        }
      ],
      "name": "removeIncreaseMarketOrders",
      "outputs": [],
      "stateMutability": "nonpayable",
      "type": "function"
    },
    {
      "inputs": [
        {
          "components": [
            {
              "internalType": "address",
              "name": "account",
              "type": "address"
            },
            {
              "internalType": "uint256",
              "name": "pairIndex",
              "type": "uint256"
            },
            {
              "internalType": "bool",
              "name": "isLong",
              "type": "bool"
            },
            {
              "internalType": "bool",
              "name": "isIncrease",
              "type": "bool"
            },
            {
              "internalType": "enum TradingTypes.TradeType",
              "name": "tradeType",
              "type": "uint8"
            },
            {
              "internalType": "uint256",
              "name": "orderId",
              "type": "uint256"
            },
            {
              "internalType": "uint256",
              "name": "sizeAmount",
              "type": "uint256"
            }
          ],
          "internalType": "struct IOrderManager.PositionOrder",
          "name": "order",
          "type": "tuple"
        }
      ],
      "name": "removeOrderFromPosition",
      "outputs": [],
      "stateMutability": "nonpayable",
      "type": "function"
    },
    {
      "inputs": [],
      "name": "router",
      "outputs": [
        {
          "internalType": "address",
          "name": "",
          "type": "address"
        }
      ],
      "stateMutability": "view",
      "type": "function"
    },
    {
      "inputs": [
        {
          "internalType": "address",
          "name": "_addressExecutor",
          "type": "address"
        }
      ],
      "name": "setExecutor",
      "outputs": [],
      "stateMutability": "nonpayable",
      "type": "function"
    },
    {
      "inputs": [
        {
          "internalType": "uint256",
          "name": "orderId",
          "type": "uint256"
        },
        {
          "internalType": "enum TradingTypes.TradeType",
          "name": "tradeType",
          "type": "uint8"
        },
        {
          "internalType": "bool",
          "name": "needADL",
          "type": "bool"
        }
      ],
      "name": "setOrderNeedADL",
      "outputs": [],
      "stateMutability": "nonpayable",
      "type": "function"
    },
    {
      "inputs": [
        {
          "internalType": "bytes32",
          "name": "key",
          "type": "bytes32"
        },
        {
          "internalType": "enum TradingTypes.TradeType",
          "name": "tradeType",
          "type": "uint8"
        },
        {
          "internalType": "bool",
          "name": "has",
          "type": "bool"
        }
      ],
      "name": "setPositionHasTpSl",
      "outputs": [],
      "stateMutability": "nonpayable",
      "type": "function"
    },
    {
      "inputs": [
        {
          "internalType": "address",
          "name": "_router",
          "type": "address"
        }
      ],
      "name": "setRouter",
      "outputs": [],
      "stateMutability": "nonpayable",
      "type": "function"
    },
    {
      "inputs": [],
      "name": "tradingVault",
      "outputs": [
        {
          "internalType": "contract IPositionManager",
          "name": "",
          "type": "address"
        }
      ],
      "stateMutability": "view",
      "type": "function"
    },
    {
      "inputs": [
        {
          "internalType": "address",
          "name": "newAddress",
          "type": "address"
        }
      ],
      "name": "updatePositionManager",
      "outputs": [],
      "stateMutability": "nonpayable",
      "type": "function"
    }
  ],
  "transactionHash": "0x3d47a4ea8024df77284cd9ebe4cf748d979b1251a8122c62d582cb9619a4a422",
  "args": [
    "0x5FbDB2315678afecb367f032d93F642f64180aa3",
    "0xC9a43158891282A2B1475592D5719c001986Aaec",
    "0x1c85638e118b37167e9298c2268758e058DdfDA0",
    "0x7A9Ec1d04904907De0ED7b6839CcdD59c3716AC9"
  ],
  "numDeployments": 1,
  "solcInputHash": "da5bb6fb662aa4263794c0d818844897",
  "bytecode": "0x60a034620000fa57601f6200438138819003918201601f191683019291906001600160401b03841183851017620000ff578160809284926040968752833981010312620000fa5780516001600160a01b03918282168203620000fa57602081015191838316809303620000fa578482015191848316809303620000fa5760600151938416809403620000fa5733600052603360205284600020600160ff1982541617905560805260018060a01b0319918285541617845581604154161760415560425416176042555161426b908162000116823960805181818161050301528181610a260152818161116a0152818161127a0152612ab20152f35b600080fd5b634e487b7160e01b600052604160045260246000fdfe60806040908082526004908136101561001757600080fd5b60009060e08235811c918262c5ecd2146115ca57508163021a34dd146115305781630573a06e1461143c5781630bc628fb146113fa5781630f727949146112a95781631848effa146112655781631c3c0ea81461112d5781632670e98d14610e915781633946fd4214610e725781633954552914610e405781633e5005e514610e045781634136de9f14610d9e57816346ea87af14610d60578163499a83c714610d375781634cc42b5114610c475781634d3cb81014610c0b578163671e110714610b8a5781636881d8cb146109eb5781636e30e0161461096a578163791b98bc1461094157816379f5927e146109225781638168c0b61461088057816386249bab146108615781638ffb8b2f1461070257816390a4a768146106c6578163a31a7b441461069d578163ab9b4ca81461067e578163bd40e1c014610655578163be82e5b114610619578163c0d78655146104c6578163c1872cf3146103d8578163c250985914610372578163f1bd27a814610349578163f887ea4014610320578163f9d244fd1461026857508063fc2a5b1d1461023c5763fca5c793146101bd57600080fd5b34610239576020366003190112610239578261023591833581526036602052209283549360018060a01b036001820154169360028201549560ff60038401541691830154600584015460068501549160078601549460ff600960088901549801541697519a8b9a60ff808960081c169816968c611667565b0390f35b80fd5b508234610264578160031936011261026457805490516001600160a01b039091168152602090f35b5080fd5b8491503461031c576101a0925061028761028136611936565b90613e47565b908251928251845260018060a01b03602084015116602085015280830151908401526102bb60608301516060850190611644565b6080820151608084015260a082015160a084015260c0820151151560c0840152808201519083015261010080820151908301526101208082015190830152610140808201519083015261016080820151908301526101808091015190820152f35b8280fd5b82853461026457816003193601126102645760455490516001600160a01b039091168152602090f35b82853461026457816003193601126102645760425490516001600160a01b039091168152602090f35b8234610239576103bb61038436611955565b9161038d613221565b604554336001600160a01b03918216149081156103ca575b5080156103c2575b6103b690611a52565b6137d8565b6001805580f35b5060016103ad565b9050604454163314866103a5565b50509034610264576103e936611955565b926103ff60018060a01b036044541633146141e9565b808210156104b3578161043557505082936009916104329452603660205284205b019060ff801983541691151516179055565b80f35b90918452603a6020528484209160ff600384015416828110156104a057036104665750610432929350600990610420565b606490602086519162461bcd60e51b835282015260146024820152730e8e4c2c8ca40e8f2e0ca40dcdee840dac2e8c6d60631b6044820152fd5b634e487b7160e01b865260218352602486fd5b634e487b7160e01b855260219052602484fd5b8285853461031c57602091826003193601126105b9576104e46117b8565b81516351331ad760e01b8152936001600160a01b0393919291818682817f000000000000000000000000000000000000000000000000000000000000000089165afa90811561060f57859688969596926105cd575b50906024839285519687938492637be53ca160e01b84523390840152165afa9182156105c457508591610589575b5061057291506119a2565b166001600160601b0360a01b604554161760455580f35b905081813d83116105bd575b61059f8183611796565b810103126105b9576105b361057291611995565b85610567565b8380fd5b503d610595565b513d87823e3d90fd5b83809296508193503d8311610608575b6105e78183611796565b8101031261060457859360246105fd8493611981565b9250610539565b8680fd5b503d6105dd565b83513d89823e3d90fd5b5050913461031c57602036600319011261031c576104329161064660018060a01b036044541633146141e9565b35835260366020528220613e0b565b82853461026457816003193601126102645760445490516001600160a01b039091168152602090f35b8285346102645781600319360112610264576020906039549051908152f35b82853461026457816003193601126102645760415490516001600160a01b039091168152602090f35b5050913461031c57602036600319011261031c57610432916106f360018060a01b036044541633146141e9565b35835260386020528220613d93565b8285853461031c5760609283600319360112610239576107206117b8565b916107296117d3565b60448054909161075d9161075290336001600160a01b0391821614908115610855575b50611a52565b602495863590613638565b808452603c6020908082528786205415610851578786205460001981019290831161083f578387525286852061079c91610796916116c8565b506119ea565b60a0810151906080810151908582101561082d57890151151590303b15610604576107db9089519363c250985960e01b85528785015288840190611644565b83820152848160648183305af18015610823576107f9575b5061075d565b67ffffffffffffffff8111610810578652876107f3565b5050634e487b7160e01b83525060419052fd5b87513d87823e3d90fd5b634e487b7160e01b8752602186528787fd5b634e487b7160e01b8752601186528787fd5b8580f35b8816331490508a61074c565b8285346102645781600319360112610264576020906035549051908152f35b8491503461031c57610160925061089f61089936611936565b90613fe1565b908251928251845260018060a01b03602084015116602085015280830151908401526108d360608301516060850190611644565b6080820151608084015260a082015160a084015260c082015160c08401528082015115159083015261010080820151151590830152610120808201519083015261014080910151151590820152f35b828534610264578160031936011261026457602090603b549051908152f35b82853461026457816003193601126102645760435490516001600160a01b039091168152602090f35b83858434610239576020366003190112610239578161023591843581526038602052209182549260018060a01b036001820154169460028201549060ff60038401541690830154600584015460ff600686015416600786015491600887015493600988015495600a89015497600c600b8b01549a01549a519d8e9d8e6118ca565b5050913461031c576020806003193601126105b957610a086117b8565b82516351331ad760e01b81526001600160a01b0394919291828282817f00000000000000000000000000000000000000000000000000000000000000008a165afa918215610b805790869392918892610b42575b50906024839287519889938492637be53ca160e01b84523390840152165afa948515610b38578695610ada575b50610ab47ff105ec4818f6dabbb000fe156cb8096a5e98f3124a5c11a0533c0fc4a7bb678e956119a2565b81604354931691826001600160601b0360a01b851617604355845193168352820152a180f35b94508085813d8311610b31575b610af18183611796565b81010312610b2d57610ab4610b267ff105ec4818f6dabbb000fe156cb8096a5e98f3124a5c11a0533c0fc4a7bb678e96611995565b9550610a89565b8580fd5b503d610ae7565b84513d88823e3d90fd5b83809295508193503d8311610b79575b610b5c8183611796565b810103126106045785926024610b728493611981565b9250610a5c565b503d610b52565b85513d89823e3d90fd5b83858434610239576020366003190112610239578161023591843581526034602052209182549260018060a01b036001820154169460028201549060ff60038401541690830154600584015460ff600686015416600786015491600887015493600988015495600a89015497600c600b8b01549a01549a519d8e9d8e6118ca565b5050913461031c57602036600319011261031c5761043291610c3860018060a01b036044541633146141e9565b358352603a6020528220613e0b565b929190503461023957602090816003193601126102395782358152603c82528481209384549367ffffffffffffffff8511610d24575094939290918451916005610c958383831b0185611796565b8184528284018096865283862086915b848310610cfa5750505050508451958695828701938388525180945286019493905b838210610cd45786860387f35b918496508286610cea6001949698849851611875565b0196019201869594929391610cc7565b8386600192610d0f859e999b9a9c9d9e6119ea565b81520192019201919099989795969499610ca5565b634e487b7160e01b835260419052602482fd5b8285853461031c57602036600319011261031c576020928291358152603e845220549051908152f35b8285346102645760203660031901126102645760209160ff9082906001600160a01b03610d8b6117b8565b1681526033855220541690519015158152f35b8285853461031c57606036600319011261031c5760243591818310156105b95761043292610df391610dce6117d3565b93610de460018060a01b036044541633146141e9565b358652603f60205285206117e2565b9060ff801983541691151516179055565b5050913461031c57602036600319011261031c5761043291610e3160018060a01b036044541633146141e9565b35835260346020528220613d93565b8285853461031c578160031936011261031c576020928291358152603d84528181206024358252845220549051908152f35b8285346102645781600319360112610264576020906037549051908152f35b5050913461031c57610ea2366117fa565b9060018060a01b03806045541633148015611120575b8015611118575b610ec890611a52565b82511691610ee26020938483015184840151151591613638565b9360608201805115159060808401918251848110156111055790610f0b9160a0870151916141b5565b878952603d8752858920818a52875285892054888a52603c8852868a20546000199291908381019081116110f2578110611049575b50888a52603d8852868a20908a5287528886812055878952603c87528589209081548015611036570190610f7482826116c8565b6110245785818c80935582600182015582600282015582600382015501555551159182610fc9575b5050610fa6578480f35b610fbf9260c0603e920151948652528320918254611c58565b9055388080808480f35b9080925051818110156110115715918215610fe8575b50503880610f9c565b51915080821015610ffe57506001143880610fdf565b634e487b7160e01b875260219052602486fd5b634e487b7160e01b885260218252602488fd5b634e487b7160e01b8b528a865260248bfd5b634e487b7160e01b8b526031865260248bfd5b898b52603c8952878b208054848101919082116110df5761106d91610796916116c8565b606081015115156080820151888110156110cc57916110ad848f8f95908f8f92906110a36110b398603c9360a08a0151916141b5565b98835252206116c8565b906140ff565b8a8c52603d8a52888c20908c528952878b205538610f40565b634e487b7160e01b8e526021895260248efd5b634e487b7160e01b8d526011885260248dfd5b634e487b7160e01b8c526011875260248cfd5b634e487b7160e01b8a526021855260248afd5b506001610ebf565b5080604454163314610eb8565b8285853461031c57602091826003193601126105b95761114b6117b8565b81516351331ad760e01b8152936001600160a01b0393919291818682817f000000000000000000000000000000000000000000000000000000000000000089165afa90811561060f5785968896959692611227575b50906024839285519687938492637be53ca160e01b84523390840152165afa9182156105c4575085916111f0575b506111d991506119a2565b166001600160601b0360a01b604454161760445580f35b905081813d8311611220575b6112068183611796565b810103126105b95761121a6111d991611995565b856111ce565b503d6111fc565b83809296508193503d831161125e575b6112418183611796565b8101031261060457859360246112578493611981565b92506111a0565b503d611237565b828534610264578160031936011261026457517f00000000000000000000000000000000000000000000000000000000000000006001600160a01b03168152602090f35b5050913461031c576112ba366117fa565b9060018060a01b038060455416331480156113ed575b80156113e5575b6112e090611a52565b825116916112fa6020938483015184840151151591613638565b93606082018051151590608084019182518481101561110557906113239160a0870151916141b5565b878952603c87528589205490603d8852868a20908a52875285892055868852603c8652848820805490680100000000000000008210156113d2576110ad8287926001611371950181556116c8565b5115918261139d575b5050611384578480f35b610fbf9260c0603e920151948652528320918254613373565b90809250518181101561101157159182156113bc575b5050388061137a565b51915080821015610ffe575060011438806113b3565b634e487b7160e01b8a526041855260248afd5b5060016112d7565b50806044541633146112d0565b8285853461031c578160031936011261031c5760243590808210156105b95760ff918360209561143193358152603f8752206117e2565b541690519015158152f35b9050839134610239576101603660031901126102395782519361145e856116fa565b6114666117b8565b855260243560208601526044359081101561026457838501526064356060850152608435608085015260a435908115158203610239575060a084015260c43560c084015260e4359083015261010435610100830152610124356101208301526101443561014083015260209161150d906114de613221565b61150860018060a01b038083511681604554163314918215611522575b5081156115185750611a52565b611cc7565b906001805551908152f35b905033148661074c565b6044541633149150876114fb565b838584346102395781600319360112610239576024359083358152603c602052828120908154831015610239575090611568916116c8565b506115be60018060a01b03825416936001830154936002840154916003850154940154948151968752602087015260ff821615159086015260ff8160081c161515606086015260ff608086019160101c16611644565b60a083015260c0820152f35b83908587346105b95760203660031901126105b9579061023591839482358152603a6020522080549160018060a01b036001830154169260028301549160ff6003850154169084015460058501549060068601549260078701549560ff600960088a0154990154169860ff808960081c169816968c611667565b9060048210156116515752565b634e487b7160e01b600052602160045260246000fd5b99969361014099969361169d929d9c9996936101608d019e8d5260018060a01b031660208d015260408c015260608b0190611644565b608089015260a088015260c0870152151560e086015215156101008501526101208401521515910152565b80548210156116e4576000526005602060002091020190600090565b634e487b7160e01b600052603260045260246000fd5b610160810190811067ffffffffffffffff82111761171757604052565b634e487b7160e01b600052604160045260246000fd5b60e0810190811067ffffffffffffffff82111761171757604052565b67ffffffffffffffff811161171757604052565b6101a0810190811067ffffffffffffffff82111761171757604052565b6060810190811067ffffffffffffffff82111761171757604052565b90601f8019910116810190811067ffffffffffffffff82111761171757604052565b600435906001600160a01b03821682036117ce57565b600080fd5b6044359081151582036117ce57565b90600481101561165157600052602052604060002090565b60e09060031901126117ce576040516118128161172d565b6004356001600160a01b03811681036117ce578152602435602082015260443580151581036117ce57604082015260643580151581036117ce57606082015260843560048110156117ce57608082015260a43560a082015260c43560c082015290565b60c0809160018060a01b038151168452602081015160208501526040810151151560408501526060810151151560608501526118b960808201516080860190611644565b60a081015160a08501520151910152565b9a98969492909d9c9b99979593916101a08c019e8c52600160a01b600190031660208c015260408b015260608a0161190191611644565b608089015260a0880152151560c087015260e08601526101008501526101208401526101408301526101608201526101800152565b60409060031901126117ce576004359060243560048110156117ce5790565b60609060031901126117ce576004359060243560048110156117ce579060443580151581036117ce5790565b51906001600160a01b03821682036117ce57565b519081151582036117ce57565b156119a957565b60405162461bcd60e51b815260206004820152600d60248201526c37b7363ca837b7b620b236b4b760991b6044820152606490fd5b60048210156116515752565b906040516119f78161172d565b60c06004829460018060a01b03815416845260018101546020850152611a4160ff600283015481811615156040880152818160081c161515606088015260101c16608086016119de565b600381015460a08501520154910152565b15611a5957565b60405162461bcd60e51b81526020600482015260096024820152686e6f2061636365737360b81b6044820152606490fd5b908160e09103126117ce5760c060405191611aa48361172d565b611aad81611981565b8352611abb60208201611981565b6020840152611acc60408201611981565b6040840152611add60608201611995565b60608401526080810151608084015260a081015160a0840152015160c082015290565b809161014092839103126117ce5760405191820182811067ffffffffffffffff8211176117175760405280518252611b3a60208201611981565b602083015260408101516040830152611b5560608201611995565b60608301526080810151608083015260a081015160a083015260c081015160c083015260e081015160e08301526101008082015190830152610120809101519082015290565b809161010092839103126117ce576040519182019082821067ffffffffffffffff8311176117175760e091604052805183526020810151602084015260408101516040840152606081015160608401526080810151608084015260a081015160a084015260c081015160c0840152015160e082015290565b15611c1a57565b60405162461bcd60e51b815260206004820152601660248201527574702f736c2065786365656473206d61782073697a6560501b6044820152606490fd5b91908203918211611c6557565b634e487b7160e01b600052601160045260246000fd5b15611c8257565b60405162461bcd60e51b815260206004820152601f60248201527f646563726561736520616d6f756e742065786365656420706f736974696f6e006044820152606490fd5b6043546000916001600160a01b039091169081156131ed5780516042546040516372c1cc1b60e11b81526001600160a01b0392831660048201819052949290911690602081602481855afa9081156131e25786916131a8575b5061316f576040805460208501519151632f7ce47360e21b815260048101929092529091906001600160a01b031660e083602481845afa928315613164578793613133575b506060830151156130ee57604085015160048110156130da571580156130c3575b612a12575b50505050604081015160048110156129fe5760021480156129e7575b6128db575b60c081019083825181811360001461230f57505060208101519160408201519060048210156122fb5760608301519060808401519060a0850151151590519160e086015193611e25610100880151966101406101208a0151990151996040519b611e158d6116fa565b8c5260208c015260408b016119de565b6060890152608088015260a087015260c086015260e085015261010084015261012083015261014082015260018060a01b03815116916020820151604083015160048110156121a3576060840151608085015160a0860151151560c08701519060e088015192610100890151946101208a0151966101408b0151986040519c611ead8e61175d565b8b8e5260208e015260408d0152611ec79060608d016119de565b60808b015260a08a015260c089015260e088015261010087015261012086015261014085015261016084015242610180840152604082015160048110156122e7576121b757603554808452611f1b81613d6c565b6035558152603460205260408120835181556001810160018060a01b036020860151166001600160601b0360a01b82541617905560408401516002820155606084015160048110156121a357611f749060038301613d7b565b6080840151600482015560a08401516005820155611fa760c08501511515600683019060ff801983541691151516179055565b60e0840151600782015561010084015160088201556101208401516009820155610140840151600a820155610160840151600b820155600c6101808501519101555b60018060a01b03602084015116604084015160c085015115156060860151600481101561218f576120469087519260e0890151946040519661202a8861172d565b87526020870152604086015260016060860152608085016119de565b60a083015260c0820152303b1561026457604051630f72794960e01b815290612073906004830190611875565b818160e48183305af1801561218457908291612170575b505060018060a01b0360208401511691835191602082015190604083015190600482101561215c57509161018093917fe83629b11df9fcc6b9ebc666eb284c939d1710576a8d3eac23474d70fae8d47895936060830151608084015160a085015115159060c08601519261212b60e088015195610100890151976101406101208b01519a01519a6040519c8d5260208d015260408c015260608b0190611644565b608089015260a088015260c087015260e0860152610100850152610120840152610140830152610160820152a15190565b634e487b7160e01b81526021600452602490fd5b61217990611749565b61023957803861208a565b6040513d84823e3d90fd5b634e487b7160e01b85526021600452602485fd5b634e487b7160e01b83526021600452602483fd5b604082015160048110156122e7576001036122ad576039548084526121db81613d6c565b6039558152603860205260408120835181556001810160018060a01b036020860151166001600160601b0360a01b82541617905560408401516002820155606084015160048110156121a3576122349060038301613d7b565b6080840151600482015560a0840151600582015561226760c08501511515600683019060ff801983541691151516179055565b60e0840151600782015561010084015160088201556101208401516009820155610140840151600a820155610160840151600b820155600c610180850151910155611fe9565b60405162461bcd60e51b8152602060048201526012602482015271696e76616c6964207472616465207479706560701b6044820152606490fd5b634e487b7160e01b82526021600452602482fd5b634e487b7160e01b86526021600452602486fd5b12156128aa57602081015191604082015160048110156122fb5761236660608401519160a06123436080870151955161335c565b950151151595604051976123568961172d565b88526020880152604087016119de565b6060850152608084015260a083015260c082015260018060a01b03815116916020820151604083015160048110156121a35760608401516080850151906123d760a08701519360c0880151151595604051996123c18b6116fa565b888b5260208b015260408a0152606089016119de565b608087015260a086015260c085015260e0840152806101008401524261012084015280610140840152604082015160048110156122e75761266b5760375480845260c0830151151561010085015261242e81613d6c565b6037558152603660205260408120835181556001810160018060a01b036020860151166001600160601b0360a01b82541617905560408401516002820155606084015160048110156121a3579061248b6125109260038301613d7b565b6080850151600482015560a0850151600582015560c085015160068201556124e8600782016124cc60e08801511515829060ff801983541691151516179055565b610100870151815461ff00191690151560081b61ff0016179055565b61012085015160088201556009610140860151151591019060ff801983541691151516179055565b60018060a01b03602084015116604084015160e085015115156060860151600481101561218f5761256c9087519260c089015194604051966125518861172d565b875260208701526040860152856060860152608085016119de565b60a083015260c0820152303b1561026457604051630f72794960e01b815290612599906004830190611875565b818160e48183305af180156121845761265c575b506020830151835160408401516001600160a01b03909216939092600483101561215c5750917fe71a68544c2c9cf2a006d283baa849468003198fa8d8026335170198a30349dd9391836060610120950151602082015160808301519161263860c060a08601519501511515956101008c0151151597604051998a5260208a01526040890190611644565b6060870152608086015260a085015260c084015260e0830152610100820152a15190565b61266590611749565b386125ad565b604082015160048110156122e7576001036126fd57603b5480845260c08301511561010085015261269b81613d6c565b603b558152603a60205260408120835181556001810160018060a01b036020860151166001600160601b0360a01b82541617905560408401516002820155606084015160048110156121a3579061248b6126f89260038301613d7b565b612510565b604082015160048110156122e7576002036127d357603b5480845260c08301511561010085015261272d81613d6c565b603b558152603a60205260408120835181556001810160018060a01b036020860151166001600160601b0360a01b82541617905560408401516002820155606084015160048110156121a3579061248b61278a9260038301613d7b565b8151602083015160c08401516127ad9290151591906001600160a01b0316613638565b8152603f602052604081206002825260205260408120600160ff19825416179055612510565b604082015160048110156122e7576003036122ad57603b5480845260c0830151151561010085015261280481613d6c565b603b558152603a60205260408120835181556001810160018060a01b036020860151166001600160601b0360a01b82541617905560408401516002820155606084015160048110156121a3579061248b6128619260038301613d7b565b8151602083015160c08401516128849290151591906001600160a01b0316613638565b8152603f602052604081206003825260205260408120600160ff19825416179055612510565b60405162461bcd60e51b8152602060048201526009602482015268073697a6520657120360bc1b6044820152606490fd5b604254602082015160a083015160405163bc95baad60e01b81526001600160a01b03868116600483015260248201939093529015156044820152610140929091839183916064918391165afa9081156129dc5790612959929186916129af575b5060a06101008501519101518091111591826129a1575b5050611c13565b606081015115611dac5760405162461bcd60e51b81526020600482015260166024820152751b9bc818dbdb1b185d195c985b081c995c5d5a5c995960521b6044820152606490fd5b840151111590503880612952565b6129cf9150823d84116129d5575b6129c78183611796565b810190611b00565b3861293b565b503d6129bd565b6040513d87823e3d90fd5b50604081015160048110156129fe57600314611da7565b634e487b7160e01b84526021600452602484fd5b60c0850151801590811561303e575b501561300457612a89906101406020870151612a4660a089019182511515908b613638565b6020890151915160405163bc95baad60e01b81526001600160a01b038c166004820152602481019390935215156044830152949093849190829081906064820190565b03915afa918215612ff9578892612fd6575b50604051631f94a27560e31b8152926020846004817f00000000000000000000000000000000000000000000000000000000000000006001600160a01b03165afa938415612f57578994612f9a575b5084516040516341976e0960e01b81526001600160a01b0391821660048201529460209186916024918391165afa938415612f57578994612f62575b5061010060408401516024604051809581936330a66e1560e01b835260048301525afa918215612f57578992612f24575b5060c087015189811215612db6575b5060c087015189811315612d50575b5050505050606083015190858213612b8e575b80611d8b565b602001516001600160a01b031690612be590612ba99061335c565b6040516323b872dd60e01b60208201526001600160a01b0387811660248301529490941660448501526064808501919091528352608483611796565b6040519182604081011067ffffffffffffffff604085011117612d3c5785809160408501604052602085527f5361666545524332303a206c6f772d6c6576656c2063616c6c206661696c6564602086015260208151910182855af13d15612d2e573d9167ffffffffffffffff8311612d1a5790612c8493929160405192612c766020601f19601f8401160185611796565b83523d88602085013e613277565b8051908115918215612cf8575b505015612ca057388080612b88565b60405162461bcd60e51b815260206004820152602a60248201527f5361666545524332303a204552433230206f7065726174696f6e20646964206e6044820152691bdd081cdd58d8d9595960b21b6064820152608490fd5b81925090602091810103126105b9576020612d139101611995565b3880612c91565b634e487b7160e01b87526041600452602487fd5b90612c849291606091613277565b634e487b7160e01b86526041600452602486fd5b612dac94612da593612d7e92612d6a60608c01519161335c565b825191608060208501519401519489613582565b505060a0612d8f60c089015161335c565b930151908952603e602052604089205490611c58565b1015611c7b565b3880808080612b75565b612dd590606089015190845160208601519160808701519389896133af565b508015612ee85780612df6916101008a015111159081612ed8575b50611c13565b610100870151158015612eb6575b15612e7d57610140870151158015612e5b575b15612e225738612b66565b60405162461bcd60e51b8152602060048201526011602482015270736c20616c72656164792065786973747360781b6044820152606490fd5b50808952603f6020526040892060038a5260205260ff60408a20541615612e17565b60405162461bcd60e51b8152602060048201526011602482015270747020616c72656164792065786973747360781b6044820152606490fd5b50808952603f6020526040892060028a5260205260ff60408a20541615612e04565b9050610140890151111538612df0565b60405162461bcd60e51b81526020600482015260146024820152731e995c9bc81c1bdcda5d1a5bdb88185b5bdd5b9d60621b6044820152606490fd5b612f499192506101003d61010011612f50575b612f418183611796565b810190611b9b565b9038612b57565b503d612f37565b6040513d8b823e3d90fd5b9093506020813d602011612f92575b81612f7e60209383611796565b81010312612f8e57519238612b26565b8880fd5b3d9150612f71565b9093506020813d602011612fce575b81612fb660209383611796565b81010312612f8e57612fc790611981565b9238612aea565b3d9150612fa9565b612ff29192506101403d610140116129d5576129c78183611796565b9038612a9b565b6040513d8a823e3d90fd5b60405162461bcd60e51b8152602060048201526012602482015271696e76616c69642074726164652073697a6560701b6044820152606490fd5b905061304e60208701519161335c565b604051916330a66e1560e01b8352600483015261010082602481865afa918215612f575789926130a0575b5060408201518110159182613091575b505038612a21565b60600151101590503880613089565b6130bc9192506101003d61010011612f5057612f418183611796565b9038613079565b50604085015160048110156130da57600114611d86565b634e487b7160e01b88526021600452602488fd5b60405162461bcd60e51b815260206004820152601860248201527f74726164652070616972206e6f7420737570706f7274656400000000000000006044820152606490fd5b61315691935060e03d60e01161315d575b61314e8183611796565b810190611a8a565b9138611d65565b503d613144565b6040513d89823e3d90fd5b60405162461bcd60e51b815260206004820152601160248201527030b1b1b7bab73a1034b990333937bd32b760791b6044820152606490fd5b90506020813d6020116131da575b816131c360209383611796565b81010312610b2d576131d490611995565b38611d20565b3d91506131b6565b6040513d88823e3d90fd5b60405162461bcd60e51b815260206004820152600c60248201526b7a65726f206164647265737360a01b6044820152606490fd5b600260015414613232576002600155565b60405162461bcd60e51b815260206004820152601f60248201527f5265656e7472616e637947756172643a207265656e7472616e742063616c6c006044820152606490fd5b919290156132d9575081511561328b575090565b3b156132945790565b60405162461bcd60e51b815260206004820152601d60248201527f416464726573733a2063616c6c20746f206e6f6e2d636f6e74726163740000006044820152606490fd5b8251909150156132ec5750805190602001fd5b6040519062461bcd60e51b82528160208060048301528251908160248401526000935b828510613332575050604492506000838284010152601f80199101168101030190fd5b848101820151868601604401529381019385935061330f565b600160ff1b8114611c655760000390565b600081126133675790565b6133709061334b565b90565b91908201809211611c6557565b91909160008382019384129112908015821691151617611c6557565b81810292918115918404141715611c6557565b949196959390926133c48160a0880151613373565b978815613571576133d9906080880151613380565b95600087126135215781613503575b5050600085126134be5761340d90613408846134038861335c565b613674565b61339c565b86101591826134a2575b50501561346857831161342d576133709061335c565b60405162461bcd60e51b815260206004820152601360248201527232bc31b2b2b21036b0bc103837b9b4ba34b7b760691b6044820152606490fd5b60405162461bcd60e51b81526020600482015260126024820152711b195d995c9859d9481a5b98dbdc9c9958dd60721b6044820152606490fd5b6134b49250613408906134038661335c565b8411153880613417565b60405162461bcd60e51b815260206004820152601d60248201527f636f6c6c61746572616c206e6f7420656e6f75676820666f7220706e6c0000006044820152606490fd5b84613519939792613513926135a4565b90613380565b9338806133e8565b60405162461bcd60e51b815260206004820152602260248201527f636f6c6c61746572616c206e6f7420656e6f75676820666f7220646563726561604482015261736560f01b6064820152608490fd5b505050505050509050600090600090565b949196959390926133c48160a0880161359e8282511015611c7b565b51611c58565b60c08101908151908185148015613630575b6136265760600151156135fc57508051808411156135e45750613370926135de915190611c58565b9061375a565b6135f7929150613370936135de91611c58565b61334b565b838111156136135750613370926135de9151611c58565b6135f79291506135de9061337094611c58565b5050505050600090565b5081156135b6565b916040519160208301936001600160601b03199060601b1684526034830152151560f81b60548201526035815261366e8161177a565b51902090565b906c0c9f2c9cd04674edea4000000090600019828409928281029283808610950394808603951461373657848311156136f9578291096001821901821680920460028082600302188083028203028083028203028083028203028083028203028083028203028092029003029360018380600003040190848311900302920304170290565b60405162461bcd60e51b81526020600482015260156024820152744d6174683a206d756c446976206f766572666c6f7760581b6044820152606490fd5b505080925015613744570490565b634e487b7160e01b600052601260045260246000fd5b90600019818309818302918280831092039180830392146137c2576c0c9f2c9cd04674edea4000000090828211156136f9577f7d33c22789773a07feda8b6f0930e26fa397c439f1d5cf4b2eb27d7306d2dc99940990828211900360e21b9103601e1c170290565b50506c0c9f2c9cd04674edea4000000091500490565b9115613a7f576137e791613e47565b6020810180516001600160a01b03939290600090851615613a78576040858154169581840194602460e0875199855192838092632f7ce47360e21b825260049d8e8301525afa9081156139af578591613a5a575b5060808601518581136139d0575b50508181511695519560c0860151151596606087019788518b8110156139bd5761389d9089519260e08b0151948951966138828861172d565b875260208701528886015260016060860152608085016119de565b60a083015260c0820152303b156139b9578351632670e98d60e01b8152906138c8908a830190611875565b848160e48183305af180156139af5790859161399b575b50508551888110156139885761395e57845184526034602052613903838520613d93565b511692519351918683101561394b57507f7e93a6b00cb3caacf000d7018943b12e2b4ad29e7849df14ebd51caf4fd739b894955090613946915193849384613de1565b0390a1565b634e487b7160e01b815260218752602490fd5b8551888110156139885760010361390357845184526038602052613983838520613d93565b613903565b634e487b7160e01b855260218952602485fd5b6139a490611749565b6105b95783386138df565b84513d87823e3d90fd5b8480fd5b634e487b7160e01b885260218c52602488fd5b836020816043541693015116916139ea858551169261335c565b92813b15613a56578651630d172a0160e01b81526001600160a01b039182168d82019081529390911660208401526040830193909352869183919082908490829060600103925af180156139af57613a43575b80613849565b613a4f90949194611749565b9238613a3d565b8780fd5b613a72915060e03d811161315d5761314e8183611796565b3861383b565b5050509050565b613a8891613fe1565b60208082018051909392906001600160a01b0390600090821615613d645760e090604092808454169784860196875199865195868092632f7ce47360e21b825260049d8e83015260249889915afa908115610823578591613d46575b506080880151858113613cbd575b5050828251169780519860e08901908c8251151560608c019c8d5192831015613caa578b928d92613b499260c08551950151955196613b308861172d565b8752898701528d8601528a6060860152608085016119de565b60a083015260c0820152303b15610604578851632670e98d60e01b815290613b7490828f0190611875565b868160e48183305af18015613ca057908791613c8c575b505090613ba2918585511691519051151591613638565b88518b811015613c7a57613c1757506036908751855252613bc4858420613e0b565b5116935194519680881015613c07575050507fb225fd6bcccad9342bc10ccc7e25ef77175b77348c8393d669ac2dbc98a1ae299394613946915193849384613de1565b634e487b7160e01b825260219052fd5b88518b811015613c7a57600103613c415750603a908751855252613c3c858420613e0b565b613bc4565b8452603f81528584208851908b821015613c7a57603a9291613c62916117e2565b60ff1981541690558751855252613c3c858420613e0b565b634e487b7160e01b865260218c528686fd5b613c9590611749565b610b2d578538613b8b565b89513d89823e3d90fd5b8f8a60218d92634e487b7160e01b835252fd5b848381604354169301511691613cd6868651169261335c565b92813b15613a565790879291838f613d1e8d5197889687958694630d172a0160e01b8652850160409194939294606082019560018060a01b0380921683521660208201520152565b03925af1801561082357613d33575b80613af2565b613d3f90949194611749565b9238613d2d565b613d5e915060e03d811161315d5761314e8183611796565b38613ae4565b505050509050565b6000198114611c655760010190565b9060048110156116515760ff80198354169116179055565b600c60009182815582600182015582600282015582600382015582600482015582600582015582600682015582600782015582600882015582600982015582600a82015582600b8201550155565b6001600160a01b0390911681526020810191909152606081019291613e099160400190611644565b565b60096000918281558260018201558260028201558260038201558260048201558260058201558260068201558260078201558260088201550155565b919091604090815190613e598261175d565b60009485835285602084015285848401528560608401528560808401528560a08401528560c08401528560e08401526101009186838501526101208781860152610140918883870152610160938985880152610180968a88820152506004811015613fcd5780613f7057509588600c969782999a5260346020522093875197613ee18961175d565b8554895260018601546001600160a01b031660208a01526002860154908901526003850154613f169060ff1660608a016119de565b60048501546080890152600585015460a089015260ff600686015416151560c0890152600785015460e0890152600885015490880152600984015490870152600a83015490860152600b8201549085015201549082015290565b600103613f94579588600c969782999a5260386020522093875197613ee18961175d565b865162461bcd60e51b8152602060048201526012602482015271696e76616c6964207472616465207479706560701b6044820152606490fd5b634e487b7160e01b8a52602160045260248afd5b90604091825191613ff1836116fa565b600080845280602085015280858501528060608501528060808501528060a08501528060c08501528060e0850152610100928184860152610120928284870152826101408097015260048110156121a35760ff9492600994928892156000146140ea57815260366020522091865196614069886116fa565b8354885260018401546001600160a01b03166020890152600284015490880152600383015461409d908616606089016119de565b60048301546080880152600583015460a0880152600683015460c0880152846007840154818116151560e08a015260081c1615159087015260088201549086015201541615159082015290565b8152603a6020522091865196614069886116fa565b919061419f5760018060a01b038151166001600160601b0360a01b83541617825560208101516001830155600282019061414b60408201511515839060ff801983541691151516179055565b6060810151825461ff00191690151560081b61ff00161782556080810151906004821015611651578260c09262ff0000600495549160101b169062ff0000191617905560a081015160038501550151910155565b634e487b7160e01b600052600060045260246000fd5b91604051916020830193151560f81b845260048110156116515760f81b602183015260228201526022815261366e8161177a565b156141f057565b60405162461bcd60e51b815260206004820152601b60248201527f506f736974696f6e204d616e616765723a20666f7262696464656e00000000006044820152606490fdfea2646970667358221220ff91547a6a8e7731abb2f09f0c47cfa45ae518774c124db9fbf06ca0bb4d037864736f6c63430008110033",
  "devdoc": {
    "kind": "dev",
    "methods": {},
    "version": 1
  },
  "userdoc": {
    "kind": "user",
    "methods": {},
    "version": 1
  },
  "storageLayout": {
    "storage": [
      {
        "astId": 6,
        "contract": "contracts/trading/OrderManager.sol:OrderManager",
        "label": "_initialized",
        "offset": 0,
        "slot": "0",
        "type": "t_uint8"
      },
      {
        "astId": 9,
        "contract": "contracts/trading/OrderManager.sol:OrderManager",
        "label": "_initializing",
        "offset": 1,
        "slot": "0",
        "type": "t_bool"
      },
      {
        "astId": 182,
        "contract": "contracts/trading/OrderManager.sol:OrderManager",
        "label": "_status",
        "offset": 0,
        "slot": "1",
        "type": "t_uint256"
      },
      {
        "astId": 251,
        "contract": "contracts/trading/OrderManager.sol:OrderManager",
        "label": "__gap",
        "offset": 0,
        "slot": "2",
        "type": "t_array(t_uint256)49_storage"
      },
      {
        "astId": 3932,
        "contract": "contracts/trading/OrderManager.sol:OrderManager",
        "label": "isHandler",
        "offset": 0,
        "slot": "51",
        "type": "t_mapping(t_address,t_bool)"
      },
      {
        "astId": 4377,
        "contract": "contracts/trading/OrderManager.sol:OrderManager",
        "label": "increaseMarketOrders",
        "offset": 0,
        "slot": "52",
        "type": "t_mapping(t_uint256,t_struct(IncreasePositionOrder)4102_storage)"
      },
      {
        "astId": 4380,
        "contract": "contracts/trading/OrderManager.sol:OrderManager",
        "label": "increaseMarketOrdersIndex",
        "offset": 0,
        "slot": "53",
        "type": "t_uint256"
      },
      {
        "astId": 4385,
        "contract": "contracts/trading/OrderManager.sol:OrderManager",
        "label": "decreaseMarketOrders",
        "offset": 0,
        "slot": "54",
        "type": "t_mapping(t_uint256,t_struct(DecreasePositionOrder)4126_storage)"
      },
      {
        "astId": 4388,
        "contract": "contracts/trading/OrderManager.sol:OrderManager",
        "label": "decreaseMarketOrdersIndex",
        "offset": 0,
        "slot": "55",
        "type": "t_uint256"
      },
      {
        "astId": 4393,
        "contract": "contracts/trading/OrderManager.sol:OrderManager",
        "label": "increaseLimitOrders",
        "offset": 0,
        "slot": "56",
        "type": "t_mapping(t_uint256,t_struct(IncreasePositionOrder)4102_storage)"
      },
      {
        "astId": 4396,
        "contract": "contracts/trading/OrderManager.sol:OrderManager",
        "label": "increaseLimitOrdersIndex",
        "offset": 0,
        "slot": "57",
        "type": "t_uint256"
      },
      {
        "astId": 4401,
        "contract": "contracts/trading/OrderManager.sol:OrderManager",
        "label": "decreaseLimitOrders",
        "offset": 0,
        "slot": "58",
        "type": "t_mapping(t_uint256,t_struct(DecreasePositionOrder)4126_storage)"
      },
      {
        "astId": 4404,
        "contract": "contracts/trading/OrderManager.sol:OrderManager",
        "label": "decreaseLimitOrdersIndex",
        "offset": 0,
        "slot": "59",
        "type": "t_uint256"
      },
      {
        "astId": 4410,
        "contract": "contracts/trading/OrderManager.sol:OrderManager",
        "label": "positionOrders",
        "offset": 0,
        "slot": "60",
        "type": "t_mapping(t_bytes32,t_array(t_struct(PositionOrder)2783_storage)dyn_storage)"
      },
      {
        "astId": 4416,
        "contract": "contracts/trading/OrderManager.sol:OrderManager",
        "label": "positionOrderIndex",
        "offset": 0,
        "slot": "61",
        "type": "t_mapping(t_bytes32,t_mapping(t_bytes32,t_uint256))"
      },
      {
        "astId": 4420,
        "contract": "contracts/trading/OrderManager.sol:OrderManager",
        "label": "positionDecreaseTotalAmount",
        "offset": 0,
        "slot": "62",
        "type": "t_mapping(t_bytes32,t_uint256)"
      },
      {
        "astId": 4427,
        "contract": "contracts/trading/OrderManager.sol:OrderManager",
        "label": "positionHasTpSl",
        "offset": 0,
        "slot": "63",
        "type": "t_mapping(t_bytes32,t_mapping(t_enum(TradeType)3995,t_bool))"
      },
      {
        "astId": 4430,
        "contract": "contracts/trading/OrderManager.sol:OrderManager",
        "label": "pairInfo",
        "offset": 0,
        "slot": "64",
        "type": "t_contract(IPairInfo)4224"
      },
      {
        "astId": 4433,
        "contract": "contracts/trading/OrderManager.sol:OrderManager",
        "label": "pairVault",
        "offset": 0,
        "slot": "65",
        "type": "t_contract(IPairVault)4325"
      },
      {
        "astId": 4436,
        "contract": "contracts/trading/OrderManager.sol:OrderManager",
        "label": "tradingVault",
        "offset": 0,
        "slot": "66",
        "type": "t_contract(IPositionManager)3232"
      },
      {
        "astId": 4439,
        "contract": "contracts/trading/OrderManager.sol:OrderManager",
        "label": "positionManager",
        "offset": 0,
        "slot": "67",
        "type": "t_contract(IPositionManager)3232"
      },
      {
        "astId": 4441,
        "contract": "contracts/trading/OrderManager.sol:OrderManager",
        "label": "addressExecutor",
        "offset": 0,
        "slot": "68",
        "type": "t_address"
      },
      {
        "astId": 4443,
        "contract": "contracts/trading/OrderManager.sol:OrderManager",
        "label": "router",
        "offset": 0,
        "slot": "69",
        "type": "t_address"
      }
    ],
    "types": {
      "t_address": {
        "encoding": "inplace",
        "label": "address",
        "numberOfBytes": "20"
      },
      "t_array(t_struct(PositionOrder)2783_storage)dyn_storage": {
        "base": "t_struct(PositionOrder)2783_storage",
        "encoding": "dynamic_array",
        "label": "struct IOrderManager.PositionOrder[]",
        "numberOfBytes": "32"
      },
      "t_array(t_uint256)49_storage": {
        "base": "t_uint256",
        "encoding": "inplace",
        "label": "uint256[49]",
        "numberOfBytes": "1568"
      },
      "t_bool": {
        "encoding": "inplace",
        "label": "bool",
        "numberOfBytes": "1"
      },
      "t_bytes32": {
        "encoding": "inplace",
        "label": "bytes32",
        "numberOfBytes": "32"
      },
      "t_contract(IPairInfo)4224": {
        "encoding": "inplace",
        "label": "contract IPairInfo",
        "numberOfBytes": "20"
      },
      "t_contract(IPairVault)4325": {
        "encoding": "inplace",
        "label": "contract IPairVault",
        "numberOfBytes": "20"
      },
      "t_contract(IPositionManager)3232": {
        "encoding": "inplace",
        "label": "contract IPositionManager",
        "numberOfBytes": "20"
      },
      "t_enum(TradeType)3995": {
        "encoding": "inplace",
        "label": "enum TradingTypes.TradeType",
        "numberOfBytes": "1"
      },
      "t_int256": {
        "encoding": "inplace",
        "label": "int256",
        "numberOfBytes": "32"
      },
      "t_mapping(t_address,t_bool)": {
        "encoding": "mapping",
        "key": "t_address",
        "label": "mapping(address => bool)",
        "numberOfBytes": "32",
        "value": "t_bool"
      },
      "t_mapping(t_bytes32,t_array(t_struct(PositionOrder)2783_storage)dyn_storage)": {
        "encoding": "mapping",
        "key": "t_bytes32",
        "label": "mapping(bytes32 => struct IOrderManager.PositionOrder[])",
        "numberOfBytes": "32",
        "value": "t_array(t_struct(PositionOrder)2783_storage)dyn_storage"
      },
      "t_mapping(t_bytes32,t_mapping(t_bytes32,t_uint256))": {
        "encoding": "mapping",
        "key": "t_bytes32",
        "label": "mapping(bytes32 => mapping(bytes32 => uint256))",
        "numberOfBytes": "32",
        "value": "t_mapping(t_bytes32,t_uint256)"
      },
      "t_mapping(t_bytes32,t_mapping(t_enum(TradeType)3995,t_bool))": {
        "encoding": "mapping",
        "key": "t_bytes32",
        "label": "mapping(bytes32 => mapping(enum TradingTypes.TradeType => bool))",
        "numberOfBytes": "32",
        "value": "t_mapping(t_enum(TradeType)3995,t_bool)"
      },
      "t_mapping(t_bytes32,t_uint256)": {
        "encoding": "mapping",
        "key": "t_bytes32",
        "label": "mapping(bytes32 => uint256)",
        "numberOfBytes": "32",
        "value": "t_uint256"
      },
      "t_mapping(t_enum(TradeType)3995,t_bool)": {
        "encoding": "mapping",
        "key": "t_enum(TradeType)3995",
        "label": "mapping(enum TradingTypes.TradeType => bool)",
        "numberOfBytes": "32",
        "value": "t_bool"
      },
      "t_mapping(t_uint256,t_struct(DecreasePositionOrder)4126_storage)": {
        "encoding": "mapping",
        "key": "t_uint256",
        "label": "mapping(uint256 => struct TradingTypes.DecreasePositionOrder)",
        "numberOfBytes": "32",
        "value": "t_struct(DecreasePositionOrder)4126_storage"
      },
      "t_mapping(t_uint256,t_struct(IncreasePositionOrder)4102_storage)": {
        "encoding": "mapping",
        "key": "t_uint256",
        "label": "mapping(uint256 => struct TradingTypes.IncreasePositionOrder)",
        "numberOfBytes": "32",
        "value": "t_struct(IncreasePositionOrder)4102_storage"
      },
      "t_struct(DecreasePositionOrder)4126_storage": {
        "encoding": "inplace",
        "label": "struct TradingTypes.DecreasePositionOrder",
        "members": [
          {
            "astId": 4104,
            "contract": "contracts/trading/OrderManager.sol:OrderManager",
            "label": "orderId",
            "offset": 0,
            "slot": "0",
            "type": "t_uint256"
          },
          {
            "astId": 4106,
            "contract": "contracts/trading/OrderManager.sol:OrderManager",
            "label": "account",
            "offset": 0,
            "slot": "1",
            "type": "t_address"
          },
          {
            "astId": 4108,
            "contract": "contracts/trading/OrderManager.sol:OrderManager",
            "label": "pairIndex",
            "offset": 0,
            "slot": "2",
            "type": "t_uint256"
          },
          {
            "astId": 4111,
            "contract": "contracts/trading/OrderManager.sol:OrderManager",
            "label": "tradeType",
            "offset": 0,
            "slot": "3",
            "type": "t_enum(TradeType)3995"
          },
          {
            "astId": 4113,
            "contract": "contracts/trading/OrderManager.sol:OrderManager",
            "label": "collateral",
            "offset": 0,
            "slot": "4",
            "type": "t_int256"
          },
          {
            "astId": 4115,
            "contract": "contracts/trading/OrderManager.sol:OrderManager",
            "label": "triggerPrice",
            "offset": 0,
            "slot": "5",
            "type": "t_uint256"
          },
          {
            "astId": 4117,
            "contract": "contracts/trading/OrderManager.sol:OrderManager",
            "label": "sizeAmount",
            "offset": 0,
            "slot": "6",
            "type": "t_uint256"
          },
          {
            "astId": 4119,
            "contract": "contracts/trading/OrderManager.sol:OrderManager",
            "label": "isLong",
            "offset": 0,
            "slot": "7",
            "type": "t_bool"
          },
          {
            "astId": 4121,
            "contract": "contracts/trading/OrderManager.sol:OrderManager",
            "label": "abovePrice",
            "offset": 1,
            "slot": "7",
            "type": "t_bool"
          },
          {
            "astId": 4123,
            "contract": "contracts/trading/OrderManager.sol:OrderManager",
            "label": "blockTime",
            "offset": 0,
            "slot": "8",
            "type": "t_uint256"
          },
          {
            "astId": 4125,
            "contract": "contracts/trading/OrderManager.sol:OrderManager",
            "label": "needADL",
            "offset": 0,
            "slot": "9",
            "type": "t_bool"
          }
        ],
        "numberOfBytes": "320"
      },
      "t_struct(IncreasePositionOrder)4102_storage": {
        "encoding": "inplace",
        "label": "struct TradingTypes.IncreasePositionOrder",
        "members": [
          {
            "astId": 4076,
            "contract": "contracts/trading/OrderManager.sol:OrderManager",
            "label": "orderId",
            "offset": 0,
            "slot": "0",
            "type": "t_uint256"
          },
          {
            "astId": 4078,
            "contract": "contracts/trading/OrderManager.sol:OrderManager",
            "label": "account",
            "offset": 0,
            "slot": "1",
            "type": "t_address"
          },
          {
            "astId": 4080,
            "contract": "contracts/trading/OrderManager.sol:OrderManager",
            "label": "pairIndex",
            "offset": 0,
            "slot": "2",
            "type": "t_uint256"
          },
          {
            "astId": 4083,
            "contract": "contracts/trading/OrderManager.sol:OrderManager",
            "label": "tradeType",
            "offset": 0,
            "slot": "3",
            "type": "t_enum(TradeType)3995"
          },
          {
            "astId": 4085,
            "contract": "contracts/trading/OrderManager.sol:OrderManager",
            "label": "collateral",
            "offset": 0,
            "slot": "4",
            "type": "t_int256"
          },
          {
            "astId": 4087,
            "contract": "contracts/trading/OrderManager.sol:OrderManager",
            "label": "openPrice",
            "offset": 0,
            "slot": "5",
            "type": "t_uint256"
          },
          {
            "astId": 4089,
            "contract": "contracts/trading/OrderManager.sol:OrderManager",
            "label": "isLong",
            "offset": 0,
            "slot": "6",
            "type": "t_bool"
          },
          {
            "astId": 4091,
            "contract": "contracts/trading/OrderManager.sol:OrderManager",
            "label": "sizeAmount",
            "offset": 0,
            "slot": "7",
            "type": "t_uint256"
          },
          {
            "astId": 4093,
            "contract": "contracts/trading/OrderManager.sol:OrderManager",
            "label": "tpPrice",
            "offset": 0,
            "slot": "8",
            "type": "t_uint256"
          },
          {
            "astId": 4095,
            "contract": "contracts/trading/OrderManager.sol:OrderManager",
            "label": "tp",
            "offset": 0,
            "slot": "9",
            "type": "t_uint256"
          },
          {
            "astId": 4097,
            "contract": "contracts/trading/OrderManager.sol:OrderManager",
            "label": "slPrice",
            "offset": 0,
            "slot": "10",
            "type": "t_uint256"
          },
          {
            "astId": 4099,
            "contract": "contracts/trading/OrderManager.sol:OrderManager",
            "label": "sl",
            "offset": 0,
            "slot": "11",
            "type": "t_uint256"
          },
          {
            "astId": 4101,
            "contract": "contracts/trading/OrderManager.sol:OrderManager",
            "label": "blockTime",
            "offset": 0,
            "slot": "12",
            "type": "t_uint256"
          }
        ],
        "numberOfBytes": "416"
      },
      "t_struct(PositionOrder)2783_storage": {
        "encoding": "inplace",
        "label": "struct IOrderManager.PositionOrder",
        "members": [
          {
            "astId": 2769,
            "contract": "contracts/trading/OrderManager.sol:OrderManager",
            "label": "account",
            "offset": 0,
            "slot": "0",
            "type": "t_address"
          },
          {
            "astId": 2771,
            "contract": "contracts/trading/OrderManager.sol:OrderManager",
            "label": "pairIndex",
            "offset": 0,
            "slot": "1",
            "type": "t_uint256"
          },
          {
            "astId": 2773,
            "contract": "contracts/trading/OrderManager.sol:OrderManager",
            "label": "isLong",
            "offset": 0,
            "slot": "2",
            "type": "t_bool"
          },
          {
            "astId": 2775,
            "contract": "contracts/trading/OrderManager.sol:OrderManager",
            "label": "isIncrease",
            "offset": 1,
            "slot": "2",
            "type": "t_bool"
          },
          {
            "astId": 2778,
            "contract": "contracts/trading/OrderManager.sol:OrderManager",
            "label": "tradeType",
            "offset": 2,
            "slot": "2",
            "type": "t_enum(TradeType)3995"
          },
          {
            "astId": 2780,
            "contract": "contracts/trading/OrderManager.sol:OrderManager",
            "label": "orderId",
            "offset": 0,
            "slot": "3",
            "type": "t_uint256"
          },
          {
            "astId": 2782,
            "contract": "contracts/trading/OrderManager.sol:OrderManager",
            "label": "sizeAmount",
            "offset": 0,
            "slot": "4",
            "type": "t_uint256"
          }
        ],
        "numberOfBytes": "160"
      },
      "t_uint256": {
        "encoding": "inplace",
        "label": "uint256",
        "numberOfBytes": "32"
      },
      "t_uint8": {
        "encoding": "inplace",
        "label": "uint8",
        "numberOfBytes": "1"
      }
    }
  }
}