{
  "address": "0x367761085BF3C12e5DA2Df99AC6E1a824612b8fb",
  "abi": [
    {
      "inputs": [
        {
          "internalType": "contract IAddressesProvider",
          "name": "addressProvider",
          "type": "address"
        },
        {
          "internalType": "contract IPairInfo",
          "name": "_pairInfo",
          "type": "address"
        },
        {
          "internalType": "contract IPairVault",
          "name": "_pairVault",
          "type": "address"
        },
        {
          "internalType": "address",
          "name": "_feeReceiver",
          "type": "address"
        },
        {
          "internalType": "address",
          "name": "_slipReceiver",
          "type": "address"
        },
        {
          "internalType": "address",
          "name": "_weth",
          "type": "address"
        }
      ],
      "stateMutability": "nonpayable",
      "type": "constructor"
    },
    {
      "anonymous": false,
      "inputs": [
        {
          "indexed": true,
          "internalType": "address",
          "name": "funder",
          "type": "address"
        },
        {
          "indexed": true,
          "internalType": "address",
          "name": "account",
          "type": "address"
        },
        {
          "indexed": true,
          "internalType": "uint256",
          "name": "pairIndex",
          "type": "uint256"
        },
        {
          "indexed": false,
          "internalType": "uint256",
          "name": "indexAmount",
          "type": "uint256"
        },
        {
          "indexed": false,
          "internalType": "uint256",
          "name": "stableAmount",
          "type": "uint256"
        },
        {
          "indexed": false,
          "internalType": "uint256",
          "name": "lpAmount",
          "type": "uint256"
        }
      ],
      "name": "AddLiquidity",
      "type": "event"
    },
    {
      "anonymous": false,
      "inputs": [
        {
          "indexed": true,
          "internalType": "address",
          "name": "account",
          "type": "address"
        },
        {
          "indexed": true,
          "internalType": "address",
          "name": "receiver",
          "type": "address"
        },
        {
          "indexed": true,
          "internalType": "uint256",
          "name": "pairIndex",
          "type": "uint256"
        },
        {
          "indexed": false,
          "internalType": "uint256",
          "name": "indexAmount",
          "type": "uint256"
        },
        {
          "indexed": false,
          "internalType": "uint256",
          "name": "stableAmount",
          "type": "uint256"
        },
        {
          "indexed": false,
          "internalType": "uint256",
          "name": "lpAmount",
          "type": "uint256"
        }
      ],
      "name": "RemoveLiquidity",
      "type": "event"
    },
    {
      "anonymous": false,
      "inputs": [
        {
          "indexed": true,
          "internalType": "address",
          "name": "funder",
          "type": "address"
        },
        {
          "indexed": true,
          "internalType": "address",
          "name": "receiver",
          "type": "address"
        },
        {
          "indexed": true,
          "internalType": "uint256",
          "name": "pairIndex",
          "type": "uint256"
        },
        {
          "indexed": false,
          "internalType": "bool",
          "name": "isBuy",
          "type": "bool"
        },
        {
          "indexed": false,
          "internalType": "uint256",
          "name": "amountIn",
          "type": "uint256"
        },
        {
          "indexed": false,
          "internalType": "uint256",
          "name": "amountOut",
          "type": "uint256"
        }
      ],
      "name": "Swap",
      "type": "event"
    },
    {
      "inputs": [],
      "name": "ADDRESS_PROVIDER",
      "outputs": [
        {
          "internalType": "contract IAddressesProvider",
          "name": "",
          "type": "address"
        }
      ],
      "stateMutability": "view",
      "type": "function"
    },
    {
      "inputs": [],
      "name": "PRICE_PRECISION",
      "outputs": [
        {
          "internalType": "uint256",
          "name": "",
          "type": "uint256"
        }
      ],
      "stateMutability": "view",
      "type": "function"
    },
    {
      "inputs": [
        {
          "internalType": "uint256",
          "name": "_pairIndex",
          "type": "uint256"
        },
        {
          "internalType": "uint256",
          "name": "_indexAmount",
          "type": "uint256"
        },
        {
          "internalType": "uint256",
          "name": "_stableAmount",
          "type": "uint256"
        }
      ],
      "name": "addLiquidity",
      "outputs": [
        {
          "internalType": "uint256",
          "name": "",
          "type": "uint256"
        }
      ],
      "stateMutability": "nonpayable",
      "type": "function"
    },
    {
      "inputs": [
        {
          "internalType": "uint256",
          "name": "_pairIndex",
          "type": "uint256"
        },
        {
          "internalType": "uint256",
          "name": "_stableAmount",
          "type": "uint256"
        }
      ],
      "name": "addLiquidityETH",
      "outputs": [
        {
          "internalType": "uint256",
          "name": "",
          "type": "uint256"
        }
      ],
      "stateMutability": "payable",
      "type": "function"
    },
    {
      "inputs": [
        {
          "internalType": "address",
          "name": "_funder",
          "type": "address"
        },
        {
          "internalType": "address",
          "name": "_account",
          "type": "address"
        },
        {
          "internalType": "uint256",
          "name": "_pairIndex",
          "type": "uint256"
        },
        {
          "internalType": "uint256",
          "name": "_indexAmount",
          "type": "uint256"
        },
        {
          "internalType": "uint256",
          "name": "_stableAmount",
          "type": "uint256"
        }
      ],
      "name": "addLiquidityForAccount",
      "outputs": [
        {
          "internalType": "uint256",
          "name": "",
          "type": "uint256"
        }
      ],
      "stateMutability": "nonpayable",
      "type": "function"
    },
    {
      "inputs": [],
      "name": "feeReceiver",
      "outputs": [
        {
          "internalType": "address",
          "name": "",
          "type": "address"
        }
      ],
      "stateMutability": "view",
      "type": "function"
    },
    {
      "inputs": [
        {
          "internalType": "uint256",
          "name": "_pairIndex",
          "type": "uint256"
        },
        {
          "internalType": "uint256",
          "name": "_lpAmount",
          "type": "uint256"
        }
      ],
      "name": "getDepositAmount",
      "outputs": [
        {
          "internalType": "uint256",
          "name": "depositIndexAmount",
          "type": "uint256"
        },
        {
          "internalType": "uint256",
          "name": "depositStableAmount",
          "type": "uint256"
        }
      ],
      "stateMutability": "view",
      "type": "function"
    },
    {
      "inputs": [
        {
          "internalType": "uint256",
          "name": "_pairIndex",
          "type": "uint256"
        },
        {
          "internalType": "uint256",
          "name": "_indexAmount",
          "type": "uint256"
        },
        {
          "internalType": "uint256",
          "name": "_stableAmount",
          "type": "uint256"
        }
      ],
      "name": "getMintLpAmount",
      "outputs": [
        {
          "internalType": "uint256",
          "name": "mintAmount",
          "type": "uint256"
        },
        {
          "internalType": "address",
          "name": "slipToken",
          "type": "address"
        },
        {
          "internalType": "uint256",
          "name": "slipAmount",
          "type": "uint256"
        }
      ],
      "stateMutability": "view",
      "type": "function"
    },
    {
      "inputs": [
        {
          "internalType": "uint256",
          "name": "_pairIndex",
          "type": "uint256"
        },
        {
          "internalType": "uint256",
          "name": "_lpAmount",
          "type": "uint256"
        }
      ],
      "name": "getReceivedAmount",
      "outputs": [
        {
          "internalType": "uint256",
          "name": "receiveIndexTokenAmount",
          "type": "uint256"
        },
        {
          "internalType": "uint256",
          "name": "receiveStableTokenAmount",
          "type": "uint256"
        }
      ],
      "stateMutability": "view",
      "type": "function"
    },
    {
      "inputs": [
        {
          "internalType": "address",
          "name": "",
          "type": "address"
        }
      ],
      "name": "isHandler",
      "outputs": [
        {
          "internalType": "bool",
          "name": "",
          "type": "bool"
        }
      ],
      "stateMutability": "view",
      "type": "function"
    },
    {
      "inputs": [
        {
          "internalType": "uint256",
          "name": "_pairIndex",
          "type": "uint256"
        }
      ],
      "name": "lpFairPrice",
      "outputs": [
        {
          "internalType": "uint256",
          "name": "",
          "type": "uint256"
        }
      ],
      "stateMutability": "view",
      "type": "function"
    },
    {
      "inputs": [],
      "name": "pairInfo",
      "outputs": [
        {
          "internalType": "contract IPairInfo",
          "name": "",
          "type": "address"
        }
      ],
      "stateMutability": "view",
      "type": "function"
    },
    {
      "inputs": [],
      "name": "pairVault",
      "outputs": [
        {
          "internalType": "contract IPairVault",
          "name": "",
          "type": "address"
        }
      ],
      "stateMutability": "view",
      "type": "function"
    },
    {
      "inputs": [
        {
          "internalType": "uint256",
          "name": "_pairIndex",
          "type": "uint256"
        },
        {
          "internalType": "uint256",
          "name": "_amount",
          "type": "uint256"
        }
      ],
      "name": "removeLiquidity",
      "outputs": [
        {
          "internalType": "uint256",
          "name": "receivedIndexAmount",
          "type": "uint256"
        },
        {
          "internalType": "uint256",
          "name": "receivedStableAmount",
          "type": "uint256"
        }
      ],
      "stateMutability": "nonpayable",
      "type": "function"
    },
    {
      "inputs": [
        {
          "internalType": "address",
          "name": "_account",
          "type": "address"
        },
        {
          "internalType": "address",
          "name": "_receiver",
          "type": "address"
        },
        {
          "internalType": "uint256",
          "name": "_pairIndex",
          "type": "uint256"
        },
        {
          "internalType": "uint256",
          "name": "_amount",
          "type": "uint256"
        }
      ],
      "name": "removeLiquidityForAccount",
      "outputs": [
        {
          "internalType": "uint256",
          "name": "",
          "type": "uint256"
        },
        {
          "internalType": "uint256",
          "name": "",
          "type": "uint256"
        }
      ],
      "stateMutability": "nonpayable",
      "type": "function"
    },
    {
      "inputs": [
        {
          "internalType": "contract IPairInfo",
          "name": "_pairStorage",
          "type": "address"
        },
        {
          "internalType": "contract IPairVault",
          "name": "_pairVault",
          "type": "address"
        }
      ],
      "name": "setContract",
      "outputs": [],
      "stateMutability": "nonpayable",
      "type": "function"
    },
    {
      "inputs": [
        {
          "internalType": "address",
          "name": "_feeReceiver",
          "type": "address"
        },
        {
          "internalType": "address",
          "name": "_slipReceiver",
          "type": "address"
        }
      ],
      "name": "setReceiver",
      "outputs": [],
      "stateMutability": "nonpayable",
      "type": "function"
    },
    {
      "inputs": [],
      "name": "slipReceiver",
      "outputs": [
        {
          "internalType": "address",
          "name": "",
          "type": "address"
        }
      ],
      "stateMutability": "view",
      "type": "function"
    },
    {
      "inputs": [
        {
          "internalType": "uint256",
          "name": "_pairIndex",
          "type": "uint256"
        },
        {
          "internalType": "bool",
          "name": "_isBuy",
          "type": "bool"
        },
        {
          "internalType": "uint256",
          "name": "_amountIn",
          "type": "uint256"
        },
        {
          "internalType": "uint256",
          "name": "_minOut",
          "type": "uint256"
        }
      ],
      "name": "swap",
      "outputs": [
        {
          "internalType": "uint256",
          "name": "amountIn",
          "type": "uint256"
        },
        {
          "internalType": "uint256",
          "name": "amountOut",
          "type": "uint256"
        }
      ],
      "stateMutability": "nonpayable",
      "type": "function"
    },
    {
      "inputs": [
        {
          "internalType": "address",
          "name": "_funder",
          "type": "address"
        },
        {
          "internalType": "address",
          "name": "_receiver",
          "type": "address"
        },
        {
          "internalType": "uint256",
          "name": "_pairIndex",
          "type": "uint256"
        },
        {
          "internalType": "bool",
          "name": "_isBuy",
          "type": "bool"
        },
        {
          "internalType": "uint256",
          "name": "_amountIn",
          "type": "uint256"
        },
        {
          "internalType": "uint256",
          "name": "_minOut",
          "type": "uint256"
        }
      ],
      "name": "swapForAccount",
      "outputs": [
        {
          "internalType": "uint256",
          "name": "amountIn",
          "type": "uint256"
        },
        {
          "internalType": "uint256",
          "name": "amountOut",
          "type": "uint256"
        }
      ],
      "stateMutability": "nonpayable",
      "type": "function"
    },
    {
      "inputs": [
        {
          "internalType": "uint256",
          "name": "_pairIndex",
          "type": "uint256"
        },
        {
          "internalType": "uint256",
          "name": "_minOut",
          "type": "uint256"
        }
      ],
      "name": "swapInEth",
      "outputs": [
        {
          "internalType": "uint256",
          "name": "amountIn",
          "type": "uint256"
        },
        {
          "internalType": "uint256",
          "name": "amountOut",
          "type": "uint256"
        }
      ],
      "stateMutability": "payable",
      "type": "function"
    },
    {
      "inputs": [
        {
          "internalType": "address",
          "name": "",
          "type": "address"
        },
        {
          "internalType": "address",
          "name": "",
          "type": "address"
        }
      ],
      "name": "userPairTokens",
      "outputs": [
        {
          "internalType": "uint256",
          "name": "",
          "type": "uint256"
        }
      ],
      "stateMutability": "view",
      "type": "function"
    },
    {
      "inputs": [],
      "name": "weth",
      "outputs": [
        {
          "internalType": "address",
          "name": "",
          "type": "address"
        }
      ],
      "stateMutability": "view",
      "type": "function"
    },
    {
      "stateMutability": "payable",
      "type": "receive"
    }
  ],
  "transactionHash": "0x47a34060bfcd9009e8521df3bf4c66277222afdca925e16a23aee4c69276b64d",
  "args": [
    "0x5FbDB2315678afecb367f032d93F642f64180aa3",
    "0xC9a43158891282A2B1475592D5719c001986Aaec",
    "0x1c85638e118b37167e9298c2268758e058DdfDA0",
    "0xf39Fd6e51aad88F6F4ce6aB8827279cffFb92266",
    "0xf39Fd6e51aad88F6F4ce6aB8827279cffFb92266",
    "0x2279B7A0a67DB372996a5FaB50D91eAA73d2eBe6"
  ],
  "numDeployments": 1,
  "solcInputHash": "d12abf55450080ab9ed90de90073e0f7",
  "bytecode": "0x60a0346200012b57601f620043c338819003918201601f19168301916001600160401b03831184841017620001305780849260c0946040528339810103126200012b5780516001600160a01b039081811681036200012b576020830151928284168094036200012b576040810151908382168092036200012b578380926200008a6060840162000146565b90620000a760a06200009f6080870162000146565b950162000146565b953360005260006020526040600020600160ff1982541617905560805260018060a01b03199788600154161760015587600254161760025516856003541617600355168360045416176004551690600554161760055560405161426790816200015c82396080518181816105c6015281816118cf015281816119db015261403a0152f35b600080fd5b634e487b7160e01b600052604160045260246000fd5b51906001600160a01b03821682036200012b5756fe608080604052600436101561001d575b50361561001b57600080fd5b005b600090813560e01c9081630552415114611a51575080630738aa3114611a0a5780631848effa146119c55780632bf6e0a514611882578063346d5d75146115ab5780633fc8cef314611582578063422f10431461156657806346ea87af146115285780634b57f96e146115095780634c3c0f5814610fca578063653c45e614610f925780637a5240751461081b5780637a9d1ac4146106d057806386dcb95e146105845780638ffc80a11461042a57806392771c3c1461041057806395082d25146103e85780639d7de6b314610230578063a31a7b4414610207578063b3f00674146101de578063bef77c591461018f578063e05def241461014e5763fc2a5b1d0361000f573461014b578060031936011261014b576001546040516001600160a01b039091168152602090f35b80fd5b503461014b57608036600319011261014b57604061018361016d611a76565b610175611a8c565b9060643591604435916135f0565b82519182526020820152f35b503461014b57604036600319011261014b576101a9611a76565b60406101b3611a8c565b9260018060a01b03809316815260066020522091166000526020526020604060002054604051908152f35b503461014b578060031936011261014b576003546040516001600160a01b039091168152602090f35b503461014b578060031936011261014b576002546040516001600160a01b039091168152602090f35b503461014b5761024c61024236611aa2565b81929130336135f0565b909160018060a01b039060e0826001541691602460405180948193632f7ce47360e21b835260048301525afa9081156103dd5785916103ae575b508315158061039e575b610330575b826102ab575b6040848482519182526020820152f35b6020015116926020604051809563a9059cbb60e01b82528184816102d3883360048401611c94565b03925af18015610323576102e8575b8061029b565b6020843d821161031b575b8161030060209383611b31565b8101031261014b5750610314604093611b66565b50386102e2565b3d91506102f3565b50604051903d90823e3d90fd5b848260055416803b1561039a57818091602460405180948193632e1a7d4d60e01b83528b60048401525af1801561038f57610377575b50506103728433611cee565b610295565b61038090611ad2565b61038b578438610366565b8480fd5b6040513d84823e3d90fd5b5080fd5b5081815116826005541614610290565b6103d0915060e03d60e0116103d6575b6103c88183611b31565b810190611baf565b38610286565b503d6103be565b6040513d87823e3d90fd5b503461014b578060031936011261014b5760405168327cb2734119d3b7a9601e1b8152602090f35b503461014b57604061018361042436611aa2565b90613d31565b50602461043636611aa2565b9060018060a01b0360e0816001541660405195868092632f7ce47360e21b82528660048301525afa9384156103dd578594610563575b508481855116826005541680911480610554575b61048990611c37565b803b1561039a578160049160405192838092630d0e30db60e41b825234905af1801561038f57610540575b505060208094015116938360405180966323b872dd60e01b82528184816104e089303360048501611c72565b03925af1801561032357610506575b50906104fe9134903330612bd0565b604051908152f35b8385813d8311610539575b61051b8183611b31565b8101031261014b57506105316104fe9394611b66565b5083926104ef565b503d610511565b61054990611ad2565b61038b5784386104b4565b50604086015183161515610480565b61057d91945060e03d60e0116103d6576103c88183611b31565b923861046c565b503461014b57604036600319011261014b5761059e611a76565b6105a6611a8c565b6040516351331ad760e01b81526001600160a01b039190602080826004817f000000000000000000000000000000000000000000000000000000000000000088165afa80156106885784928791610693575b508190602460405180958193637be53ca160e01b8352336004840152165afa908115610688578691610651575b506106309150611b73565b8160018060a01b031993168360035416176003551690600454161760045580f35b905081813d8311610681575b6106678183611b31565b8101031261038b5761067b61063091611b66565b38610625565b503d61065d565b6040513d88823e3d90fd5b809350828092503d83116106c9575b6106ac8183611b31565b810103126106c557806106bf8593611b52565b906105f8565b8580fd5b503d6106a2565b503461014b57608036600319011261014b5760043560243580151581036108165761070360643560443583853033611e68565b919092821515918261080e575b50816107a1575b5061072d575b6040809350519182526020820152f35b60055483906001600160a01b0316803b1561039a578190602460405180948193632e1a7d4d60e01b83528760048401525af180156107965761077e575b50604092506107798133611cee565b61071d565b6107888491611ad2565b610792578261076a565b8280fd5b6040513d86823e3d90fd5b600154604051632f7ce47360e21b815260048101929092526001600160a01b03925060e0908290602490829086165afa80156103dd57829186916107ef575b50511690600554161438610717565b610808915060e03d60e0116103d6576103c88183611b31565b386107e0565b915038610710565b600080fd5b5061082536611aa2565b5090602460e060018060a01b036001541660405192838092632f7ce47360e21b82528760048301525afa90811561038f578291610f73575b5080516005546001600160a01b03908116926108859290911683149081610f5c575b50611c37565b803b1561039a578160049160405192838092630d0e30db60e41b825234905af1801561038f57610f4d575b5060055460405163095ea7b360e01b81529192919060209082906001600160a01b03168186816108e4343060048401611c94565b03925af18015610ecb57610f14575b50600090818061095360405161090881611afb565b601a815279737761702066756e64657220257320726563656976657220257360301b60208201526040519182916307e763af60e51b60208401526060602484015260848301906126d4565b30604483015233606483015203610972601f1991828101845283611b31565b8280835160206a636f6e736f6c652e6c6f679501855afa506040519061099782611b16565b602c82527f737761702070616972496e64657820257320697342757920257320657870656360208301526b74416d6f756e74496e20257360a01b6040830152610a1f6040519182610a01602082019563e41b6f6f60e01b87526080602484015260a48301906126d4565b89604483015287606483015234608483015203908101835282611b31565b51915afa503415610ed657600154604051632f7ce47360e21b815260048101839052919060e090839060249082906001600160a01b03165afa918215610ecb578392610eaa575b5060408201516001600160a01b031615610e7157600254604051632500ed8d60e21b8152600481018390526001600160a01b0390911693909260c084602481885afa93841561038f578294610e41575b508051610acb906001600160a01b0316614019565b93610ad7858251612734565b610b396040830151610b338184604051610af081611b16565b602b81527f7377617020696e646578546f74616c44656c746120257320737461626c65546f60208201526a74616c44656c746120257360a81b6040820152614165565b82611e5b565b93610ba7610b55610b4e60a0870151886127ee565b8097611dec565b86604051610b6281611b16565b602d81527f7377617020657870656374496e64657844656c7461202573206578706563745360208201526c7461626c6544656c746120257360981b6040820152614165565b9381811115610e0657610bc7610c1592610bc18934612734565b92611dec565b80821015610dfe5750915b610c0583604051610be281611afb565b60118152707377617020696e646578496e44656c746160781b602082015261410d565b6060604082015191015190611dec565b610c6e8183604051610c2681611b16565b603081527f7377617020616d6f756e744f757420737461626c65546f6b656e20257320617660208201526f61696c61626c65537461626c6520257360801b6040820152614165565b8015610dc757610ca391610c8d9180821015610dbf5750955b86612856565b82519096879130906001600160a01b031661250d565b6002546020909101516001600160a01b039081169116803b156108165784600091610ce79383604051809681958294630d172a0160e01b8452339060048501611c72565b03925af18015610db357610da1575b50604051908152836020820152826040820152339060008051602061421283398151915260603092a4348210610d36576040809350519182526020820152f35b610d408234611dec565b6005549093906001600160a01b0316803b1561039a57818091602460405180948193632e1a7d4d60e01b83528a60048401525af1801561038f57610d8d575b505061077960409333611cee565b610d978291611ad2565b61014b5780610d7f565b610dab9150611ad2565b600038610cf6565b6040513d6000823e3d90fd5b905095610c87565b60405162461bcd60e51b815260206004820152600f60248201526e37379039ba30b13632903a37b5b2b760891b6044820152606490fd5b905091610bd2565b60405162461bcd60e51b81526020600482015260136024820152723737903732b2b21034b73232bc103a37b5b2b760691b6044820152606490fd5b610e6391945060c03d8111610e6a575b610e5b8183611b31565b810190611df9565b9238610ab6565b503d610e51565b60405162461bcd60e51b815260206004820152601160248201527039bbb0b81034b73b30b634b2103830b4b960791b6044820152606490fd5b610ec491925060e03d60e0116103d6576103c88183611b31565b9038610a66565b6040513d85823e3d90fd5b60405162461bcd60e51b815260206004820152601660248201527539bbb0b81034b73b30b634b21030b6b7bab73a1034b760511b6044820152606490fd5b6020813d602011610f45575b81610f2d60209383611b31565b8101031261079257610f3e90611b66565b50386108f3565b3d9150610f20565b610f5690611ad2565b386108b0565b604001516001600160a01b0316151590503861087f565b610f8c915060e03d60e0116103d6576103c88183611b31565b3861085d565b503461014b5760a036600319011261014b5760206104fe610fb1611a76565b610fb9611a8c565b608435916064359160443591612bd0565b503461014b57602490610fdc36611ab8565b909291829182918515801590611500575b610ff6906129da565b600154604051632f7ce47360e21b815260048101839052976001600160a01b03959160e0918a91829089165afa9283156103235760249882946114df575b50611046866040860151161515611c37565b60c086600254166040519a8b8092632500ed8d60e21b82528760048301525afa97881561038f5760609983996114bb575b506110e0906110c38360405161108c81611afb565b601b81527a19d95d135a5b9d131c105b5bdd5b9d081a5b99195e105b5bdd5b9d602a1b6020820152836110bd612a17565b916141b0565b610bc160c08701610bc16110d88251856127ee565b9151866127ee565b936110ed87825116614019565b6110f8811515612a3f565b836111038285612734565b809b61111682611111613b4c565b61410d565b6040611123858351612734565b910190611131825182611e5b565b6111db575b505050505050916111b06111aa6111b69361119b876111c898976040519061115d82611b16565b602382527f6765744d696e744c70416d6f756e74206166746572466565496e646578416d6f6020830152621d5b9d60ea1b60408301526110bd612b31565b6111a5868c611e5b565b611dec565b916139e1565b90612856565b956111bf613b4c565b906110bd612b31565b6040519384521660208301526040820152f35b9b859c9a85986112b685969760808a9b9f8f60a061120f6112649261125b9f9c6112089061126b96611e5b565b9b51611e5b565b9d8e611255818d6040519061122382611afb565b601f82527f6765744d696e744c70416d6f756e7420696e646578546f74616c44656c74610060208301526110bd612a7b565b8b611e5b565b9a01518a6127ee565b8099611dec565b9b6112af8d60405161127c81611afb565b602081527f6765744d696e744c70416d6f756e7420657870656374496e64657844656c746160208201528b6110bd612aa7565b015161337a565b999098868611156113a3575050505050976113788b9c61136d611366849b996111b0996113616111c89f9d6111aa9b6111b69f829c6112fb61119b9d61135c93611dec565b9250828082111561139b5761130f91611dec565b80925b6040519061131f82611b16565b602282527f6765744d696e744c70416d6f756e74206e65656453776170496e64657844656c602083015261746160f01b60408301526110bd612b61565b612856565b613551565b9586612856565b9d8e9151169b611dec565b61138d81611384613b8f565b866110bd612b8b565b9597988397508d9250611136565b508092611312565b929d999450929e9794509894508181116113d8575b50505050505050916111b06111aa6111b69361119b876111c8989761138d565b6111b0969d508a9b506111b698506111aa95936114779361146c6111c89d61140a61147d99969c9e9c61147296611dec565b975087808211156114b35761141e91611dec565b80975b6040519061142e82611b16565b602382527f6765744d696e744c70416d6f756e74206e65656453776170537461626c6544656020830152626c746160e81b60408301526110bd612ad4565b85613551565b612734565b90611dec565b61119b611492828b6020829e0151169a611dec565b80976114a9826114a0613b8f565b866110bd612b31565b95979883976113b8565b508097611421565b6110e09199506114d89060c03d8111610e6a57610e5b8183611b31565b9890611077565b6114f991945060e03d60e0116103d6576103c88183611b31565b9238611034565b50811515610fed565b503461014b57602036600319011261014b5760206104fe6004356139e1565b503461014b57602036600319011261014b5760209060ff906040906001600160a01b03611553611a76565b1681528084522054166040519015158152f35b503461014b5760206104fe61157a36611ab8565b913333612bd0565b503461014b578060031936011261014b576005546040516001600160a01b039091168152602090f35b503461014b5760246115bc36611aa2565b6115c78115156129da565b600154604051632f7ce47360e21b815260048101849052936001600160a01b039160e0918691829085165afa9384156103dd57859461185e575b50806116166024926040870151161515611c37565b60c0816002541660405193848092632500ed8d60e21b82528860048301525afa918215610688579186916117b395949360409892611836575b5061165f61168991885116614019565b9361166b851515612a3f565b6116838961167a878651612734565b940151966139e1565b90612734565b916116c783895161169981611afb565b601c81527b6765744d696e744c70416d6f756e74206465706f73697444656c746160201b602082015261410d565b6116da836116d58785611e5b565b611e5b565b906116f36116ec60a08a0151846127ee565b8093611dec565b9561173f878b5161170381611b16565b602181527f6765744465706f736974416d6f756e7420657870656374496e64657844656c746020820152606160f81b8d820152856110bd612aa7565b8196848410156000146117e8575050509061175991611dec565b8181106117c8575060c06117846117a6936117ac935b61135c8761177b613bc4565b836110bd613c0d565b9561179a85611791613c40565b896110bd613c85565b01946117a68651611dc6565b906128ea565b9351611dc6565b610183816117bf613c40565b846110bd613c85565b6117ac9193506117846117a6936117e28360c09497611dec565b9561176f565b91965091506117f79250611dec565b818110611819575060c06117846117a6936117ac939561135c8761177b613bc4565b925060c06117846117a693611831866117ac95611dec565b61176f565b61168991925061185661165f9160c03d8111610e6a57610e5b8183611b31565b92915061164f565b602491945061187b9060e03d60e0116103d6576103c88183611b31565b9390611601565b503461014b57604036600319011261014b576001600160a01b03600435818116908190036107925760243591808316809303611984576040516351331ad760e01b815260209081816004817f000000000000000000000000000000000000000000000000000000000000000087165afa8015610688578291879161198f575b50602460405180958193637be53ca160e01b8352336004840152165afa9081156103dd578591611954575b506119379150611b73565b60018060a01b031990816001541617600155600254161760025580f35b905081813d8311611988575b61196a8183611b31565b810103126119845761197e61193791611b66565b3861192c565b8380fd5b503d611960565b82819392503d83116119be575b6119a68183611b31565b810103126106c5576119b88291611b52565b38611901565b503d61199c565b503461014b578060031936011261014b576040517f00000000000000000000000000000000000000000000000000000000000000006001600160a01b03168152602090f35b503461014b5760c036600319011261014b57611a24611a76565b90611a2d611a8c565b9060643590811515820361014b57604061018360a43560843585604435888a611e68565b90503461039a578160031936011261039a576004546001600160a01b03168152602090f35b600435906001600160a01b038216820361081657565b602435906001600160a01b038216820361081657565b6040906003190112610816576004359060243590565b606090600319011261081657600435906024359060443590565b6001600160401b038111611ae557604052565b634e487b7160e01b600052604160045260246000fd5b604081019081106001600160401b03821117611ae557604052565b606081019081106001600160401b03821117611ae557604052565b90601f801991011681019081106001600160401b03821117611ae557604052565b51906001600160a01b038216820361081657565b5190811515820361081657565b15611b7a57565b60405162461bcd60e51b815260206004820152600d60248201526c37b7363ca837b7b620b236b4b760991b6044820152606490fd5b908160e0910312610816576040519060e08201908282106001600160401b03831117611ae55760c091604052611be481611b52565b8352611bf260208201611b52565b6020840152611c0360408201611b52565b6040840152611c1460608201611b66565b60608401526080810151608084015260a081015160a0840152015160c082015290565b15611c3e57565b60405162461bcd60e51b815260206004820152600c60248201526b34b73b30b634b2103830b4b960a11b6044820152606490fd5b6001600160a01b03918216815291166020820152604081019190915260600190565b6001600160a01b039091168152602081019190915260400190565b3d15611ce9573d906001600160401b038211611ae55760405191611cdd601f8201601f191660200184611b31565b82523d6000602084013e565b606090565b814710611d81576000918291829182916001600160a01b03165af1611d11611caf565b5015611d1957565b60405162461bcd60e51b815260206004820152603a60248201527f416464726573733a20756e61626c6520746f2073656e642076616c75652c20726044820152791958da5c1a595b9d081b585e481a185d99481c995d995c9d195960321b6064820152608490fd5b60405162461bcd60e51b815260206004820152601d60248201527f416464726573733a20696e73756666696369656e742062616c616e63650000006044820152606490fd5b90612710918203918211611dd657565b634e487b7160e01b600052601160045260246000fd5b91908203918211611dd657565b908160c0910312610816576040519060c08201908282106001600160401b03831117611ae55760a0916040528051835260208101516020840152604081015160408401526060810151606084015260808101516080840152015160a082015290565b91908201809211611dd657565b9192909593949560008080611ed0611ef5604051611e8581611afb565b601a815279737761702066756e64657220257320726563656976657220257360301b60208201526040519283916307e763af60e51b60208401526060602484015260848301906126d4565b6001600160a01b038a811660448401528816606483015203601f198101835282611b31565b6020815191016a636f6e736f6c652e6c6f675afa508080611f81611fa3604051611f1e81611b16565b602c81527f737761702070616972496e64657820257320697342757920257320657870656360208201526b74416d6f756e74496e20257360a01b604082015260405192839163e41b6f6f60e01b60208401526080602484015260a48301906126d4565b8a604483015288151560648301528c608483015203601f198101835282611b31565b6020815191016a636f6e736f6c652e6c6f675afa508615610ed657600154604051632f7ce47360e21b815260048101879052919060e090839060249082906001600160a01b03165afa9182156103235781926124ed575b5060408201516001600160a01b031615610e7157600254604051632500ed8d60e21b8152600481018890526001600160a01b039091169860c0826024818d5afa918215610ecb5783926124cd575b50835161205d906001600160a01b0316614019565b996120698b8451612734565b906040840151906120818284604051610af081611b16565b61208b8284611e5b565b926120a461209d60a08a0151866127ee565b8095611dec565b936120b68582604051610b6281611b16565b8a156123d1575050508082111561239557612125926120d98d9261211794611dec565b8082101561238e57505b61135c816040516120f381611afb565b60128152717377617020737461626c65496e44656c746160701b602082015261410d565b916020815191015190611dec565b61217c818360405161213681611b16565b602e81527f7377617020616d6f756e744f757420696e646578546f6b656e2025732061766160208201526d696c61626c65496e64657820257360901b6040820152614165565b801561234e57808210156123465750905b612198829983612856565b996121d9838c6040516121aa81611afb565b601d81527f7377617020616d6f756e74496e20257320616d6f756e744f75742025730000006020820152614165565b821061230b576002546001600160a01b0316803b1561039a57818b60848a836040519586948593631ea746b160e21b855260048501528c1515602485015260448401528860648401525af1801561038f576122fc575b5060025483519192916001600160a01b039182169116813b156119845791839186836122729560405196879586948593630d172a0160e01b855260048501611c72565b03925af1801561038f57908a9392916122e2575b5050602001516002546000805160206142128339815191529360609390926122bc926001600160a01b039081169189911661250d565b604080519415158552602085018a905284018890526001600160a01b03908116941692a4565b819293506122ef90611ad2565b61014b5790818992612286565b61230590611ad2565b3861222f565b60405162461bcd60e51b81526020600482015260136024820152721a5b9cdd59999a58da595b9d081b5a5b93dd5d606a1b6044820152606490fd5b90509061218d565b60405162461bcd60e51b815260206004820152601860248201527737379030bb30b4b630b136329034b73232bc103a37b5b2b760411b6044820152606490fd5b90506120e3565b60405162461bcd60e51b81526020600482015260146024820152733737903732b2b21039ba30b13632903a37b5b2b760611b6044820152606490fd5b93509391509c5082829695961115610e06576123f492610bc18d610bc793612734565b6124058183604051610c2681611b16565b8015610dc757808210156124c55750905b61243a612424839a84612856565b8251909b8c9189906001600160a01b031661250d565b6002546020909101516001600160a01b039182169116813b156119845791839291858461247f969460405197889586948593630d172a0160e01b855260048501611c72565b03925af19081156124b9575091606091600080516020614212833981519152936124aa575b506122bc565b6124b390611ad2565b386124a4565b604051903d90823e3d90fd5b905090612416565b6124e691925060c03d8111610e6a57610e5b8183611b31565b9038612048565b61250691925060e03d81116103d6576103c88183611b31565b9038611ffa565b9061254390612535612548956040519586936323b872dd60e01b602086015260248501611c72565b03601f198101845283611b31565b61254a565b565b6040516125a8916001600160a01b031661256382611afb565b6000806020958685527f5361666545524332303a206c6f772d6c6576656c2063616c6c206661696c656487860152868151910182855af16125a2611caf565b91612637565b8051828115918215612618575b50509050156125c15750565b6084906040519062461bcd60e51b82526004820152602a60248201527f5361666545524332303a204552433230206f7065726174696f6e20646964206e6044820152691bdd081cdd58d8d9595960b21b6064820152fd5b8380929350010312610816578161262f9101611b66565b8082386125b5565b91929015612699575081511561264b575090565b3b156126545790565b60405162461bcd60e51b815260206004820152601d60248201527f416464726573733a2063616c6c20746f206e6f6e2d636f6e74726163740000006044820152606490fd5b8251909150156126ac5750805190602001fd5b60405162461bcd60e51b8152602060048201529081906126d09060248301906126d4565b0390fd5b919082519283825260005b848110612700575050826000602080949584010152601f8019910116010190565b6020818301810151848301820152016126df565b811561271e570490565b634e487b7160e01b600052601260045260246000fd5b90600019818309818302918280831092039180830392146127d85768327cb2734119d3b7a9601e1b908282111561279b577f7d33c22789773a07feda8b6f0930e26fa397c439f1d5cf4b2eb27d7306d2dc99940990828211900360e21b9103601e1c170290565b60405162461bcd60e51b81526020600482015260156024820152744d6174683a206d756c446976206f766572666c6f7760581b6044820152606490fd5b505068327cb2734119d3b7a9601e1b9004919050565b906000198183098183029182808310920391808303921461284b57612710908282111561279b577fbc01a36e2eb1c432ca57a786c226809d495182a9930be0ded288ce703afb7e91940990828211900360fc1b910360041c170290565b505061271091500490565b9068327cb2734119d3b7a9601e1b9060001982840992828102928380861095039480860395146128da578483111561279b578291096001821901821680920460028082600302188083028203028083028203028083028203028083028203028083028203028092029003029360018380600003040190848311900302920304170290565b5050906128e79250612714565b90565b906127109060001982840992828102928380861095039480860395146128da578483111561279b578291096001821901821680920460028082600302188083028203028083028203028083028203028083028203028083028203028092029003029360018380600003040190848311900302920304170290565b9160001982840992828102928380861095039480860395146128da578483111561279b578291096001821901821680920460028082600302188083028203028083028203028083028203028083028203028083028203028092029003029360018380600003040190848311900302920304170290565b156129e157565b60405162461bcd60e51b815260206004820152600e60248201526d1a5b9d985b1a5908185b5bdd5b9d60921b6044820152606490fd5b60405190612a2482611afb565b600c82526b1cdd18589b19505b5bdd5b9d60a21b6020830152565b15612a4657565b60405162461bcd60e51b815260206004820152600d60248201526c696e76616c696420707269636560981b6044820152606490fd5b60405190612a8882611afb565b601082526f737461626c65546f74616c44656c746160801b6020830152565b60405190612ab482611afb565b6011825270657870656374537461626c6544656c746160781b6020830152565b60405190612ae182611afb565b600f82526e73776170537461626c6544656c746160881b6020830152565b60405190612b0c82611afb565b60168252756164644c697175696469747920736c697044656c746160501b6020830152565b60405190612b3e82611afb565b601482527318599d195c91995954dd18589b19505b5bdd5b9d60621b6020830152565b60405190612b6e82611afb565b600e82526d73776170496e64657844656c746160901b6020830152565b60405190612b9882611afb565b601382527218599d195c919959525b99195e105b5bdd5b9d606a1b6020830152565b6040919493926060820195825260208201520152565b91929093602495946000831580159061334a575b612bed906129da565b600154604051632f7ce47360e21b8152600481018890529860e0918a919082906001600160a01b03165afa80156103235760249798829161332c575b506040810151612c43906001600160a01b03161515611c37565b600254604051632500ed8d60e21b8152600481018990529860c0918a919082906001600160a01b03165afa97881561038f57829861330c575b50612cbb84604051612c8d81611afb565b6018815277185919131a5c5d5a591a5d1e481a5b99195e105b5bdd5b9d60421b6020820152876110bd612a17565b306001600160a01b038716036132da575b612cda60c0820151866127ee565b90612da1612d9a612cef60c0840151886127ee565b93612d5785604051612d0081611afb565b601b81527a185919131a5c5d5a591a5d1e481a5b99195e119959505b5bdd5b9d602a1b60208201528360405191612d3683611afb565b600f83526e1cdd18589b19519959505b5bdd5b9d608a1b60208401526141b0565b8351600354612d749183916001600160a01b039081169116613353565b6020840151600354612d949187916001600160a01b039081169116613353565b88611dec565b9286611dec565b8151909390612db8906001600160a01b0316614019565b99612dc48b1515612a3f565b84612dd08c8351612734565b612dda8d87612734565b9c8d9185604081960191612def835182611e5b565b613035575b50505050612e0c612e55936111a584612e1594611e5b565b6111b08d6139e1565b9b60405190612e2382611afb565b601e82527f6164644c697175696469747920696e6465784465706f73697444656c7461000060208301526110bd612b31565b60408201516001600160a01b0316803b1561039a5781612e8e81928d6040519485809481936340c10f1960e01b83523060048401611c94565b03925af1801561038f57613026575b5060018060a01b03604083015116815260066020526040812060018060a01b038616600052602052612ed48a604060002054611e5b565b6040838101516001600160a01b0390811684526006602090815282852089831660009081529152919091209190915560025416803b1561039a578185612f349286838e60405196879586948593633431529d60e21b855260048501612bba565b03925af1801561038f57613012575b50509181612faa827fae2a8a26a2b64d8d971277b87c24d1a12181aef23cf76b898a32ce8dd14c7591979695612f91612fe99660018060a01b0383511660018060a01b036002541690613353565b602001516002546001600160a01b039081169116613353565b60405190612fb782611afb565b602082527f6164644c6971756964697479206166746572466565496e646578416d6f756e7460208301526110bd612b31565b6040516001600160a01b0391821695909116939091829161300c91899184612bba565b0390a490565b61301c8291611ad2565b61014b5780612f43565b61302f90611ad2565b38612e9d565b856130468661304d93979697611e5b565b9351611e5b565b916130908360405161305e81611afb565b601c81527b6164644c697175696469747920696e646578546f74616c44656c746160201b6020820152836110bd612a7b565b61309a8382611e5b565b906130ac6116ec60a08c0151846127ee565b976130f0896040516130bd81611afb565b601d81527f6164644c697175696469747920657870656374496e64657844656c74610000006020820152856110bd612aa7565b6130fe8760808d015161337a565b999095848411156131de57505050936131ba6131a0613199613192612e559b8a98611361612e159c6111a59a8f9a61313990612e0c9f611dec565b9050808a11156131d35761135c613150828c611dec565b80925b6040519061316082611afb565b601f82527f6164644c6971756964697479206e65656453776170496e64657844656c74610060208301526110bd612b61565b9687612856565b809d611dec565b8b51600454919d916001600160a01b039081169116613353565b6131c68b611384612aff565b9450829650879150612df4565b61135c8a8092613153565b9350935097959496505081811161320a575b5050505050612e15612e0c612e55936111a58980956131c6565b612e559650612e1594611477612e0c956114726111a59e966132326132919761328a97611dec565b94858911156132cf5761146c613248878b611dec565b80975b6040519061325882611afb565b602082527f6164644c6971756964697479206e65656453776170537461626c6544656c746160208301526110bd612ad4565b8092611dec565b6020880151600454919a8b96909287926132b99186916001600160a01b039182169116613353565b6132c5826114a0612aff565b95508296506131f0565b61146c89809761324b565b6132ef85308860018060a01b0385511661250d565b61330784308860018060a01b0360208601511661250d565b612ccc565b61332591985060c03d8111610e6a57610e5b8183611b31565b9638612c7c565b613344915060e03d81116103d6576103c88183611b31565b38612c29565b50821515612be4565b612543612548939261253560405194859263a9059cbb60e01b602085015260248401611c94565b919080156133d95782156133a85761339d6133986133a49285612734565b61340e565b8093612714565b9190565b60405162461bcd60e51b8152602060048201526009602482015268496e76616c6964206b60b81b6044820152606490fd5b60405162461bcd60e51b815260206004820152600d60248201526c496e76616c696420707269636560981b6044820152606490fd5b801561354b576134d9816000908360801c8061353f575b508060401c80613532575b508060201c80613525575b508060101c80613518575b508060081c8061350b575b508060041c806134fe575b508060021c806134f1575b50600191828092811c6134ea575b1c1b6134818185612714565b01811c61348e8185612714565b01811c61349b8185612714565b01811c6134a88185612714565b01811c6134b58185612714565b01811c6134c28185612714565b01811c6134cf8185612714565b01901c8092612714565b808210156134e5575090565b905090565b0181613475565b6002915091019038613467565b600491509101903861345c565b6008915091019038613451565b6010915091019038613446565b602091509101903861343b565b6040915091019038613430565b91505060809038613425565b50600090565b909181156135ba57821515806135b1575b1561357a57613574826128e794611e5b565b91612964565b60405162461bcd60e51b815260206004820152600f60248201526e496e76616c6964207265736572766560881b6044820152606490fd5b50801515613562565b60405162461bcd60e51b815260206004820152600e60248201526d125b9d985b1a5908185b5bdd5b9d60921b6044820152606490fd5b60009493916136008315156129da565b60018060a01b03908160015416966040978851632f7ce47360e21b815260e0816024816004958c878301525afa9081156139d75783916139b9575b508981019161364e868451161515611c37565b85835116845260209260068452868c86209816978886528452888c8620541061397f579160c09b9391879695938b9a9998600254169d8e602488519e8f928391632500ed8d60e21b8352878301525afa9b8c1561397557859c613955575b506136b78a8c613d31565b9e909c8d6136ca82518884015190611dec565b10613912578f908060608a6136e493015191015190611dec565b106138cf57803b156106c557858f613715928f8f84908c5196879586948593631a8c15b360e21b85528c8501612bba565b03925af1801561389e576138bc575b5087815116803b156106c5578561375281928d8a51948580948193632770a7eb60e21b8352308b8401611c94565b03925af1801561389e579086916138a8575b505087815116855260068452858520896000528452876137888b8860002054611dec565b91511685526006845285852089600052845285600020558660025416928783511693803b156106c557858d6137d5928a838b51809681958294630d172a0160e01b9d8e85528c8501611c72565b03925af1801561389e578992918791613885575b505081600254169301511692823b1561038b5791869391858f9461381a82968a519889978896879586528501611c72565b03925af1801561387b57613867575b5050906138607f6291bcce50c38c39d79a98ff5fad7f35319722e73285b50a6140dbfac75d511e93925192839216958a8984612bba565b0390a49190565b6138718291611ad2565b61014b5780613829565b83513d84823e3d90fd5b61389191929350611ad2565b61038b57879085386137e9565b87513d88823e3d90fd5b6138b190611ad2565b61038b578438613764565b6138c890959195611ad2565b9338613724565b865162461bcd60e51b8152808401869052601f60248201527f696e73756666696369656e7420737461626c65546f6b656e20616d6f756e74006044820152606490fd5b875162461bcd60e51b8152808501879052601e60248201527f696e73756666696369656e7420696e646578546f6b656e20616d6f756e7400006044820152606490fd5b61396e919c5060c03d8111610e6a57610e5b8183611b31565b9a386136ac565b86513d87823e3d90fd5b8b5162461bcd60e51b81528083018590526014602482015273696e73756666696369656e742062616c616e636560601b6044820152606490fd5b6139d1915060e03d81116103d6576103c88183611b31565b3861363b565b8a513d85823e3d90fd5b90602460018060a01b0380600154169360e0604095865194858092632f7ce47360e21b82528560048301525afa928315613b2157600093613b2c575b5060c08260025416916024875180948193632500ed8d60e21b835260048301525afa8015613b2157613a7291600091613b03575b5085613a69613a6285875116614019565b8351612734565b91015190611e5b565b918215613aef5784015184516318160ddd60e01b81529160209183916004918391165afa938415613ae55750600093613ab2575b50916128e79192612856565b6020813d8211613add575b81613aca60209383611b31565b81010312611984575192506128e7613aa6565b3d9150613abd565b513d6000823e3d90fd5b5068327cb2734119d3b7a9601e1b93505050565b613b1b915060c03d8111610e6a57610e5b8183611b31565b38613a51565b85513d6000823e3d90fd5b613b4591935060e03d81116103d6576103c88183611b31565b9138613a1d565b60405190613b5982611b16565b60218252606160f81b6040837f6765744d696e744c70416d6f756e7420696e6465784465706f73697444656c7460208201520152565b60405190613b9c82611afb565b60198252786765744d696e744c70416d6f756e7420736c697044656c746160381b6020830152565b60405190613bd182611b16565b6027825266656e44656c746160c81b6040837f6765744465706f736974416d6f756e74206465706f736974496e646578546f6b60208201520152565b60405190613c1a82611afb565b60178252766465706f736974537461626c65546f6b656e44656c746160481b6020830152565b60405190613c4d82611b16565b60238252621d5b9d60ea1b6040837f6765744465706f736974416d6f756e74206465706f736974496e646578416d6f60208201520152565b60405190613c9282611afb565b601382527219195c1bdcda5d14dd18589b19505b5bdd5b9d606a1b6020830152565b60405190613cc182611b16565b60288252676b656e44656c746160c01b6040837f6765745265636569766564416d6f756e742072656365697665496e646578546f60208201520152565b60405190613d0b82611afb565b601782527672656365697665537461626c65546f6b656e44656c746160481b6020830152565b9190613d3e8115156129da565b60015460408051632f7ce47360e21b8152600481018690529092916001600160a01b039060e0908390602490829085165afa91821561400e579060249291600092613fee575b50613d958186840151161515611c37565b60c08160025416865194858092632500ed8d60e21b82528b60048301525afa928315613b2157600093613fc6575b50613dd3613df791835116614019565b93613ddf851515612a3f565b61168386613dee878751612734565b950151986139e1565b91613e36838651613e0781611afb565b601e81527f6765745265636569766564416d6f756e74207265636569766544656c74610000602082015261410d565b613e556116ec60a0613e4c866111a58c87611e5b565b940151846127ee565b613ea1818751613e6481611b16565b602281527f6765745265636569766564416d6f756e7420657870656374496e64657844656c602082015261746160f01b89820152856110bd612aa7565b6000908198848411600014613f7e5750505090613ebd91611dec565b818110613f625750613ee46133a49286925b61135c84613edb613cb4565b836110bd613cfe565b9283815191613ef283611b16565b602983527f6765745265636569766564416d6f756e742072656365697665496e646578546f6020840152681ad95b905b5bdd5b9d60ba1b818401525191613f3883611afb565b60188352771c9958d95a5d9954dd18589b19551bdad95b905b5bdd5b9d60421b60208401526141b0565b6133a4929550613f7681613ee49293611dec565b958692613ecf565b90919493506133a4959850613f939250611dec565b818110613fae5750613ee49095869261135c84613edb613cb4565b9150613fbd82613ee492611dec565b91958692613ecf565b613df7919350613fe6613dd39160c03d8111610e6a57610e5b8183611b31565b939150613dc3565b61400791925060e03d81116103d6576103c88183611b31565b9038613d84565b84513d6000823e3d90fd5b604051631f94a27560e31b8152906020906001600160a01b039082846004817f000000000000000000000000000000000000000000000000000000000000000086165afa938415610db3576000946140d0575b506040516341976e0960e01b8152908216600482015292829184916024918391165afa908115610db3576000916140a4575b50905090565b82813d83116140c9575b6140b88183611b31565b8101031261014b575051803861409e565b503d6140ae565b90938382813d8311614106575b6140e78183611b31565b8101031261014b57509060246140fd8493611b52565b9491925061406c565b503d6140dd565b600091908291614152604051809261413e6020830195632d839cb360e21b87526040602485015260648401906126d4565b90604483015203601f198101835282611b31565b51906a636f6e736f6c652e6c6f675afa50565b600092916141528493604051928391614197602084019663ca47c4eb60e01b88526060602486015260848501906126d4565b916044840152606483015203601f198101835282611b31565b906141526000949385946141fd6040519485936141e6602086019863c67ea9d160e01b8a526080602488015260a48701906126d4565b9160448601526023198583030160648601526126d4565b90608483015203601f198101835282611b3156fe2424e4440d8e90b9be053a61916674e21e7603a28f7dccf3ff7b88b755c2e619a2646970667358221220aa93df769c6d4f717d49a843b45a0e1f5ac61da3970929ba88b4f090acda419464736f6c63430008110033",
  "devdoc": {
    "kind": "dev",
    "methods": {},
    "version": 1
  },
  "userdoc": {
    "kind": "user",
    "methods": {},
    "version": 1
  },
  "storageLayout": {
    "storage": [
      {
        "astId": 17714,
        "contract": "contracts/pair/PairLiquidity.sol:PairLiquidity",
        "label": "isHandler",
        "offset": 0,
        "slot": "0",
        "type": "t_mapping(t_address,t_bool)"
      },
      {
        "astId": 19959,
        "contract": "contracts/pair/PairLiquidity.sol:PairLiquidity",
        "label": "pairInfo",
        "offset": 0,
        "slot": "1",
        "type": "t_contract(IPairInfo)23457"
      },
      {
        "astId": 19962,
        "contract": "contracts/pair/PairLiquidity.sol:PairLiquidity",
        "label": "pairVault",
        "offset": 0,
        "slot": "2",
        "type": "t_contract(IPairVault)23605"
      },
      {
        "astId": 19964,
        "contract": "contracts/pair/PairLiquidity.sol:PairLiquidity",
        "label": "feeReceiver",
        "offset": 0,
        "slot": "3",
        "type": "t_address"
      },
      {
        "astId": 19966,
        "contract": "contracts/pair/PairLiquidity.sol:PairLiquidity",
        "label": "slipReceiver",
        "offset": 0,
        "slot": "4",
        "type": "t_address"
      },
      {
        "astId": 19968,
        "contract": "contracts/pair/PairLiquidity.sol:PairLiquidity",
        "label": "weth",
        "offset": 0,
        "slot": "5",
        "type": "t_address"
      },
      {
        "astId": 19974,
        "contract": "contracts/pair/PairLiquidity.sol:PairLiquidity",
        "label": "userPairTokens",
        "offset": 0,
        "slot": "6",
        "type": "t_mapping(t_address,t_mapping(t_address,t_uint256))"
      }
    ],
    "types": {
      "t_address": {
        "encoding": "inplace",
        "label": "address",
        "numberOfBytes": "20"
      },
      "t_bool": {
        "encoding": "inplace",
        "label": "bool",
        "numberOfBytes": "1"
      },
      "t_contract(IPairInfo)23457": {
        "encoding": "inplace",
        "label": "contract IPairInfo",
        "numberOfBytes": "20"
      },
      "t_contract(IPairVault)23605": {
        "encoding": "inplace",
        "label": "contract IPairVault",
        "numberOfBytes": "20"
      },
      "t_mapping(t_address,t_bool)": {
        "encoding": "mapping",
        "key": "t_address",
        "label": "mapping(address => bool)",
        "numberOfBytes": "32",
        "value": "t_bool"
      },
      "t_mapping(t_address,t_mapping(t_address,t_uint256))": {
        "encoding": "mapping",
        "key": "t_address",
        "label": "mapping(address => mapping(address => uint256))",
        "numberOfBytes": "32",
        "value": "t_mapping(t_address,t_uint256)"
      },
      "t_mapping(t_address,t_uint256)": {
        "encoding": "mapping",
        "key": "t_address",
        "label": "mapping(address => uint256)",
        "numberOfBytes": "32",
        "value": "t_uint256"
      },
      "t_uint256": {
        "encoding": "inplace",
        "label": "uint256",
        "numberOfBytes": "32"
      }
    }
  }
}