{
  "address": "0xC9a43158891282A2B1475592D5719c001986Aaec",
  "abi": [
    {
      "inputs": [
        {
          "internalType": "contract IAddressesProvider",
          "name": "addressProvider",
          "type": "address"
        }
      ],
      "stateMutability": "nonpayable",
      "type": "constructor"
    },
    {
      "anonymous": false,
      "inputs": [
        {
          "indexed": true,
          "internalType": "address",
          "name": "indexToken",
          "type": "address"
        },
        {
          "indexed": true,
          "internalType": "address",
          "name": "stableToken",
          "type": "address"
        },
        {
          "indexed": false,
          "internalType": "address",
          "name": "lpToken",
          "type": "address"
        },
        {
          "indexed": false,
          "internalType": "uint256",
          "name": "index",
          "type": "uint256"
        }
      ],
      "name": "PairAdded",
      "type": "event"
    },
    {
      "inputs": [],
      "name": "ADDRESS_PROVIDER",
      "outputs": [
        {
          "internalType": "contract IAddressesProvider",
          "name": "",
          "type": "address"
        }
      ],
      "stateMutability": "view",
      "type": "function"
    },
    {
      "inputs": [],
      "name": "FUNDING_RATE_PERCENTAGE",
      "outputs": [
        {
          "internalType": "uint256",
          "name": "",
          "type": "uint256"
        }
      ],
      "stateMutability": "view",
      "type": "function"
    },
    {
      "inputs": [],
      "name": "PERCENTAGE",
      "outputs": [
        {
          "internalType": "uint256",
          "name": "",
          "type": "uint256"
        }
      ],
      "stateMutability": "view",
      "type": "function"
    },
    {
      "inputs": [
        {
          "internalType": "address",
          "name": "_indexToken",
          "type": "address"
        },
        {
          "internalType": "address",
          "name": "_stableToken",
          "type": "address"
        },
        {
          "internalType": "address",
          "name": "_pairLiquidity",
          "type": "address"
        }
      ],
      "name": "addPair",
      "outputs": [],
      "stateMutability": "nonpayable",
      "type": "function"
    },
    {
      "inputs": [
        {
          "internalType": "uint256",
          "name": "",
          "type": "uint256"
        }
      ],
      "name": "fundingFeeConfigs",
      "outputs": [
        {
          "internalType": "int256",
          "name": "minFundingRate",
          "type": "int256"
        },
        {
          "internalType": "int256",
          "name": "maxFundingRate",
          "type": "int256"
        },
        {
          "internalType": "int256",
          "name": "defaultFundingRate",
          "type": "int256"
        },
        {
          "internalType": "uint256",
          "name": "fundingWeightFactor",
          "type": "uint256"
        },
        {
          "internalType": "uint256",
          "name": "liquidityPremiumFactor",
          "type": "uint256"
        },
        {
          "internalType": "int256",
          "name": "interest",
          "type": "int256"
        },
        {
          "internalType": "uint256",
          "name": "lpDistributeP",
          "type": "uint256"
        }
      ],
      "stateMutability": "view",
      "type": "function"
    },
    {
      "inputs": [
        {
          "internalType": "uint256",
          "name": "_pairIndex",
          "type": "uint256"
        }
      ],
      "name": "getFundingFeeConfig",
      "outputs": [
        {
          "components": [
            {
              "internalType": "int256",
              "name": "minFundingRate",
              "type": "int256"
            },
            {
              "internalType": "int256",
              "name": "maxFundingRate",
              "type": "int256"
            },
            {
              "internalType": "int256",
              "name": "defaultFundingRate",
              "type": "int256"
            },
            {
              "internalType": "uint256",
              "name": "fundingWeightFactor",
              "type": "uint256"
            },
            {
              "internalType": "uint256",
              "name": "liquidityPremiumFactor",
              "type": "uint256"
            },
            {
              "internalType": "int256",
              "name": "interest",
              "type": "int256"
            },
            {
              "internalType": "uint256",
              "name": "lpDistributeP",
              "type": "uint256"
            }
          ],
          "internalType": "struct IPairInfo.FundingFeeConfig",
          "name": "",
          "type": "tuple"
        }
      ],
      "stateMutability": "view",
      "type": "function"
    },
    {
      "inputs": [
        {
          "internalType": "uint256",
          "name": "_pairIndex",
          "type": "uint256"
        }
      ],
      "name": "getPair",
      "outputs": [
        {
          "components": [
            {
              "internalType": "address",
              "name": "indexToken",
              "type": "address"
            },
            {
              "internalType": "address",
              "name": "stableToken",
              "type": "address"
            },
            {
              "internalType": "address",
              "name": "pairToken",
              "type": "address"
            },
            {
              "internalType": "bool",
              "name": "enable",
              "type": "bool"
            },
            {
              "internalType": "uint256",
              "name": "kOfSwap",
              "type": "uint256"
            },
            {
              "internalType": "uint256",
              "name": "expectIndexTokenP",
              "type": "uint256"
            },
            {
              "internalType": "uint256",
              "name": "addLpFeeP",
              "type": "uint256"
            }
          ],
          "internalType": "struct IPairInfo.Pair",
          "name": "",
          "type": "tuple"
        }
      ],
      "stateMutability": "view",
      "type": "function"
    },
    {
      "inputs": [
        {
          "internalType": "uint256",
          "name": "_pairIndex",
          "type": "uint256"
        }
      ],
      "name": "getTradingConfig",
      "outputs": [
        {
          "components": [
            {
              "internalType": "uint256",
              "name": "minLeverage",
              "type": "uint256"
            },
            {
              "internalType": "uint256",
              "name": "maxLeverage",
              "type": "uint256"
            },
            {
              "internalType": "uint256",
              "name": "minTradeAmount",
              "type": "uint256"
            },
            {
              "internalType": "uint256",
              "name": "maxTradeAmount",
              "type": "uint256"
            },
            {
              "internalType": "uint256",
              "name": "maxPositionAmount",
              "type": "uint256"
            },
            {
              "internalType": "uint256",
              "name": "maintainMarginRate",
              "type": "uint256"
            },
            {
              "internalType": "uint256",
              "name": "priceSlipP",
              "type": "uint256"
            },
            {
              "internalType": "uint256",
              "name": "maxPriceDeviationP",
              "type": "uint256"
            }
          ],
          "internalType": "struct IPairInfo.TradingConfig",
          "name": "",
          "type": "tuple"
        }
      ],
      "stateMutability": "view",
      "type": "function"
    },
    {
      "inputs": [
        {
          "internalType": "uint256",
          "name": "_pairIndex",
          "type": "uint256"
        }
      ],
      "name": "getTradingFeeConfig",
      "outputs": [
        {
          "components": [
            {
              "internalType": "uint256",
              "name": "takerFeeP",
              "type": "uint256"
            },
            {
              "internalType": "uint256",
              "name": "makerFeeP",
              "type": "uint256"
            }
          ],
          "internalType": "struct IPairInfo.TradingFeeConfig",
          "name": "",
          "type": "tuple"
        }
      ],
      "stateMutability": "view",
      "type": "function"
    },
    {
      "inputs": [
        {
          "internalType": "address",
          "name": "",
          "type": "address"
        }
      ],
      "name": "isHandler",
      "outputs": [
        {
          "internalType": "bool",
          "name": "",
          "type": "bool"
        }
      ],
      "stateMutability": "view",
      "type": "function"
    },
    {
      "inputs": [
        {
          "internalType": "address",
          "name": "",
          "type": "address"
        },
        {
          "internalType": "address",
          "name": "",
          "type": "address"
        }
      ],
      "name": "isPairListed",
      "outputs": [
        {
          "internalType": "bool",
          "name": "",
          "type": "bool"
        }
      ],
      "stateMutability": "view",
      "type": "function"
    },
    {
      "inputs": [
        {
          "internalType": "address",
          "name": "",
          "type": "address"
        },
        {
          "internalType": "address",
          "name": "",
          "type": "address"
        }
      ],
      "name": "pairIndexes",
      "outputs": [
        {
          "internalType": "uint256",
          "name": "",
          "type": "uint256"
        }
      ],
      "stateMutability": "view",
      "type": "function"
    },
    {
      "inputs": [
        {
          "internalType": "uint256",
          "name": "",
          "type": "uint256"
        }
      ],
      "name": "pairs",
      "outputs": [
        {
          "internalType": "address",
          "name": "indexToken",
          "type": "address"
        },
        {
          "internalType": "address",
          "name": "stableToken",
          "type": "address"
        },
        {
          "internalType": "address",
          "name": "pairToken",
          "type": "address"
        },
        {
          "internalType": "bool",
          "name": "enable",
          "type": "bool"
        },
        {
          "internalType": "uint256",
          "name": "kOfSwap",
          "type": "uint256"
        },
        {
          "internalType": "uint256",
          "name": "expectIndexTokenP",
          "type": "uint256"
        },
        {
          "internalType": "uint256",
          "name": "addLpFeeP",
          "type": "uint256"
        }
      ],
      "stateMutability": "view",
      "type": "function"
    },
    {
      "inputs": [],
      "name": "pairsCount",
      "outputs": [
        {
          "internalType": "uint256",
          "name": "",
          "type": "uint256"
        }
      ],
      "stateMutability": "view",
      "type": "function"
    },
    {
      "inputs": [
        {
          "internalType": "uint256",
          "name": "",
          "type": "uint256"
        }
      ],
      "name": "tradingConfigs",
      "outputs": [
        {
          "internalType": "uint256",
          "name": "minLeverage",
          "type": "uint256"
        },
        {
          "internalType": "uint256",
          "name": "maxLeverage",
          "type": "uint256"
        },
        {
          "internalType": "uint256",
          "name": "minTradeAmount",
          "type": "uint256"
        },
        {
          "internalType": "uint256",
          "name": "maxTradeAmount",
          "type": "uint256"
        },
        {
          "internalType": "uint256",
          "name": "maxPositionAmount",
          "type": "uint256"
        },
        {
          "internalType": "uint256",
          "name": "maintainMarginRate",
          "type": "uint256"
        },
        {
          "internalType": "uint256",
          "name": "priceSlipP",
          "type": "uint256"
        },
        {
          "internalType": "uint256",
          "name": "maxPriceDeviationP",
          "type": "uint256"
        }
      ],
      "stateMutability": "view",
      "type": "function"
    },
    {
      "inputs": [
        {
          "internalType": "uint256",
          "name": "",
          "type": "uint256"
        }
      ],
      "name": "tradingFeeConfigs",
      "outputs": [
        {
          "internalType": "uint256",
          "name": "takerFeeP",
          "type": "uint256"
        },
        {
          "internalType": "uint256",
          "name": "makerFeeP",
          "type": "uint256"
        }
      ],
      "stateMutability": "view",
      "type": "function"
    },
    {
      "inputs": [
        {
          "internalType": "uint256",
          "name": "_pairIndex",
          "type": "uint256"
        },
        {
          "components": [
            {
              "internalType": "int256",
              "name": "minFundingRate",
              "type": "int256"
            },
            {
              "internalType": "int256",
              "name": "maxFundingRate",
              "type": "int256"
            },
            {
              "internalType": "int256",
              "name": "defaultFundingRate",
              "type": "int256"
            },
            {
              "internalType": "uint256",
              "name": "fundingWeightFactor",
              "type": "uint256"
            },
            {
              "internalType": "uint256",
              "name": "liquidityPremiumFactor",
              "type": "uint256"
            },
            {
              "internalType": "int256",
              "name": "interest",
              "type": "int256"
            },
            {
              "internalType": "uint256",
              "name": "lpDistributeP",
              "type": "uint256"
            }
          ],
          "internalType": "struct IPairInfo.FundingFeeConfig",
          "name": "_fundingFeeConfig",
          "type": "tuple"
        }
      ],
      "name": "updateFundingFeeConfig",
      "outputs": [],
      "stateMutability": "nonpayable",
      "type": "function"
    },
    {
      "inputs": [
        {
          "internalType": "uint256",
          "name": "_pairIndex",
          "type": "uint256"
        },
        {
          "components": [
            {
              "internalType": "address",
              "name": "indexToken",
              "type": "address"
            },
            {
              "internalType": "address",
              "name": "stableToken",
              "type": "address"
            },
            {
              "internalType": "address",
              "name": "pairToken",
              "type": "address"
            },
            {
              "internalType": "bool",
              "name": "enable",
              "type": "bool"
            },
            {
              "internalType": "uint256",
              "name": "kOfSwap",
              "type": "uint256"
            },
            {
              "internalType": "uint256",
              "name": "expectIndexTokenP",
              "type": "uint256"
            },
            {
              "internalType": "uint256",
              "name": "addLpFeeP",
              "type": "uint256"
            }
          ],
          "internalType": "struct IPairInfo.Pair",
          "name": "_pair",
          "type": "tuple"
        }
      ],
      "name": "updatePair",
      "outputs": [],
      "stateMutability": "nonpayable",
      "type": "function"
    },
    {
      "inputs": [
        {
          "internalType": "uint256",
          "name": "_pairIndex",
          "type": "uint256"
        },
        {
          "internalType": "address",
          "name": "_account",
          "type": "address"
        },
        {
          "internalType": "bool",
          "name": "_enable",
          "type": "bool"
        }
      ],
      "name": "updatePairMiner",
      "outputs": [],
      "stateMutability": "nonpayable",
      "type": "function"
    },
    {
      "inputs": [
        {
          "internalType": "uint256",
          "name": "_pairIndex",
          "type": "uint256"
        },
        {
          "components": [
            {
              "internalType": "uint256",
              "name": "minLeverage",
              "type": "uint256"
            },
            {
              "internalType": "uint256",
              "name": "maxLeverage",
              "type": "uint256"
            },
            {
              "internalType": "uint256",
              "name": "minTradeAmount",
              "type": "uint256"
            },
            {
              "internalType": "uint256",
              "name": "maxTradeAmount",
              "type": "uint256"
            },
            {
              "internalType": "uint256",
              "name": "maxPositionAmount",
              "type": "uint256"
            },
            {
              "internalType": "uint256",
              "name": "maintainMarginRate",
              "type": "uint256"
            },
            {
              "internalType": "uint256",
              "name": "priceSlipP",
              "type": "uint256"
            },
            {
              "internalType": "uint256",
              "name": "maxPriceDeviationP",
              "type": "uint256"
            }
          ],
          "internalType": "struct IPairInfo.TradingConfig",
          "name": "_tradingConfig",
          "type": "tuple"
        }
      ],
      "name": "updateTradingConfig",
      "outputs": [],
      "stateMutability": "nonpayable",
      "type": "function"
    },
    {
      "inputs": [
        {
          "internalType": "uint256",
          "name": "_pairIndex",
          "type": "uint256"
        },
        {
          "components": [
            {
              "internalType": "uint256",
              "name": "takerFeeP",
              "type": "uint256"
            },
            {
              "internalType": "uint256",
              "name": "makerFeeP",
              "type": "uint256"
            }
          ],
          "internalType": "struct IPairInfo.TradingFeeConfig",
          "name": "_tradingFeeConfig",
          "type": "tuple"
        }
      ],
      "name": "updateTradingFeeConfig",
      "outputs": [],
      "stateMutability": "nonpayable",
      "type": "function"
    }
  ],
  "transactionHash": "0xe65b12ea6061660f0aecff2d7530f5bf7bed085325aa21bf076e5018259f01ad",
  "args": [
    "0x5FbDB2315678afecb367f032d93F642f64180aa3"
  ],
  "numDeployments": 1,
  "solcInputHash": "3bfb618664e377f23f48757fd7cd2af1",
  "bytecode": "0x60a0346100ad57601f612b4538819003918201601f19168301916001600160401b038311848410176100b2578084926020946040528339810103126100ad57516001600160a01b03811681036100ad573360005260006020526040600020600160ff19825416179055608052604051612a7c90816100c982396080518181816102810152818161050701528181610706015281816107cf015281816108c701528181610aff0152610d380152f35b600080fd5b634e487b7160e01b600052604160045260246000fdfe6080604052600436101562000014575b600080fd5b60003560e01c80630da67fe714620001f55780631848effa14620001ea5780631f49703414620001df578063293315f214620001d457806330a66e1514620001c957806346ea87af14620001be578063714b008f14620001b35780637734bd4614620001a85780637f1b4a24146200019d5780638327f0e114620001925780639b0f8cb814620001875780639c3d5770146200017c578063affb60601462000171578063b81b2b711462000166578063b91ac788146200015b578063bdf391cc1462000150578063cbc2a5c71462000145578063d2963262146200013a578063d355a9b4146200012f578063daf0925714620001245763f1ec23cf146200011a57600080fd5b6200000f62000cd0565b506200000f62000caf565b506200000f62000c33565b506200000f62000b63565b506200000f62000ab9565b506200000f620009c8565b506200000f62000948565b506200000f62000927565b506200000f6200087e565b506200000f6200082f565b506200000f62000775565b506200000f620006be565b506200000f62000674565b506200000f6200060f565b506200000f620004be565b506200000f62000465565b506200000f62000340565b506200000f62000320565b506200000f620002b0565b506200000f62000268565b50346200000f5760203660031901126200000f57600060206040516200021b8162000d95565b8281520152600435600052600560205260408060002081516200023e8162000d95565b60206001835493848452015491019081528251918252516020820152f35b60009103126200000f57565b50346200000f5760003660031901126200000f576040517f00000000000000000000000000000000000000000000000000000000000000006001600160a01b03168152602090f35b50346200000f5760203660031901126200000f57600435600052600660205260e06040600020805490600181015490600281015460038201546004830154916006600585015494015494604051968752602087015260408601526060850152608084015260a083015260c0820152f35b50346200000f5760003660031901126200000f5760206040516127108152f35b50346200000f5760203660031901126200000f576200044f604060e08151620003698162000dc8565b600091818380935282602082015282858201528260608201528260808201528260a08201528260c0820152015260043581526004602052206007620003ad62000e3b565b918054835260018101546020840152600281015460408401526003810154606084015260048101546080840152600581015460a0840152600681015460c0840152015460e08201526040519182918291909160e080610100830194805184526020810151602085015260408101516040850152606081015160608501526080810151608085015260a081015160a085015260c081015160c08501520151910152565b0390f35b6001600160a01b038116036200000f57565b50346200000f5760203660031901126200000f57600435620004878162000453565b60018060a01b03166000526000602052602060ff604060002054166040519015158152f35b60e09060231901126200000f57602490565b50346200000f576101003660031901126200000f5762000583620004e236620004ac565b6040516351331ad760e01b81526200057a90602090816001600160a01b0381836004817f000000000000000000000000000000000000000000000000000000000000000085165afa928315620005ff575b600093620005c9575b50604051637be53ca160e01b8152336004820152928391829081602481015b0392165afa918215620005b9575b60009262000585575b505062000f36565b6004356200162c565b005b620005a99250803d10620005b1575b620005a0818362000e18565b81019062000f1e565b388062000572565b503d62000594565b620005c362000f11565b62000569565b620005ef919350823d8411620005f7575b620005e6818362000e18565b81019062000ef9565b91386200053c565b503d620005da565b6200060962000f11565b62000533565b50346200000f5760203660031901126200000f5760043560005260056020526040806000206001815491015482519182526020820152f35b60409060031901126200000f57600435620006628162000453565b90602435620006718162000453565b90565b50346200000f576020620006b56200068c3662000647565b6001600160a01b0391821660009081526002855260408082209290931681526020919091522090565b54604051908152f35b50346200000f576101203660031901126200000f576101003660231901126200000f576040516351331ad760e01b81526200075d90602090816001600160a01b0381836004817f000000000000000000000000000000000000000000000000000000000000000085165afa928315620005ff57600093620005c95750604051637be53ca160e01b8152336004820152928391829081602481016200055b565b620005836004356200150d565b801515036200000f57565b50346200000f5760603660031901126200000f57620005836024356200079b8162000453565b60443590620007aa826200076a565b6040516351331ad760e01b81526200082690602090816001600160a01b0381836004817f000000000000000000000000000000000000000000000000000000000000000085165afa928315620005ff57600093620005c95750604051637be53ca160e01b8152336004820152928391829081602481016200055b565b60043562001765565b50346200000f57602060ff62000872620008493662000647565b6001600160a01b0391821660009081526007865260408082209290931681526020919091522090565b54166040519015158152f35b50346200000f576101003660031901126200000f5762000583620008a236620004ac565b6040516351331ad760e01b81526200091e90602090816001600160a01b0381836004817f000000000000000000000000000000000000000000000000000000000000000085165afa928315620005ff57600093620005c95750604051637be53ca160e01b8152336004820152928391829081602481016200055b565b6004356200142b565b50346200000f5760003660031901126200000f576020600154604051908152f35b50346200000f5760203660031901126200000f57600435600052600360205260e0604060002060018060a01b038082541691816001820154169160ff6002830154600384015492600560048601549501549560405197885260208801528116604087015260a01c1615156060850152608084015260a083015260c0820152f35b50346200000f5760203660031901126200000f57620009e662000e5c565b5060043560005260036020526200044f604060002060056040519162000a0c8362000de6565b80546001600160a01b0390811684526001820154811660208501526002820154908116604085015260a01c60ff161515606084015260038101546080840152600481015460a0840152015460c08201526040519182918291909160c08060e083019460018060a01b0380825116855280602083015116602086015260408201511660408501526060810151151560608501526080810151608085015260a081015160a08501520151910152565b50346200000f5760603660031901126200000f5760403660231901126200000f576040516351331ad760e01b815262000b5690602090816001600160a01b0381836004817f000000000000000000000000000000000000000000000000000000000000000085165afa928315620005ff57600093620005c95750604051637be53ca160e01b8152336004820152928391829081602481016200055b565b620005836004356200159a565b50346200000f5760203660031901126200000f5762000b8162000e5c565b5060043560005260066020526200044f604060002060066040519162000ba78362000de6565b8054835260018101546020840152600281015460408401526003810154606084015260048101546080840152600581015460a0840152015460c08201526040519182918291909160c08060e0830194805184526020810151602085015260408101516040850152606081015160608501526080810151608085015260a081015160a08501520151910152565b50346200000f5760203660031901126200000f5760043560005260046020526101006040600020805490600181015490600281015460038201546004830154906005840154926007600686015495015495604051978852602088015260408701526060860152608085015260a084015260c083015260e0820152f35b50346200000f5760003660031901126200000f576020604051620f42408152f35b50346200000f5760603660031901126200000f576200058360043562000cf68162000453565b60243562000d048162000453565b6044359162000d138362000453565b6040516351331ad760e01b815262000d8f90602090816001600160a01b0381836004817f000000000000000000000000000000000000000000000000000000000000000085165afa928315620005ff57600093620005c95750604051637be53ca160e01b8152336004820152928391829081602481016200055b565b62001018565b6040810190811067ffffffffffffffff82111762000db257604052565b634e487b7160e01b600052604160045260246000fd5b610100810190811067ffffffffffffffff82111762000db257604052565b60e0810190811067ffffffffffffffff82111762000db257604052565b67ffffffffffffffff811162000db257604052565b90601f8019910116810190811067ffffffffffffffff82111762000db257604052565b6040519062000e4a8262000dc8565b565b9062000e4a604051928362000e18565b6040519062000e6b8262000de6565b8160c06000918281528260208201528260408201528260608201528260808201528260a08201520152565b9060405162000ea58162000de6565b60c06005829460ff60018060a01b038083541686528060018401541660208701526002830154908116604087015260a01c161515606085015260038101546080850152600481015460a08501520154910152565b908160209103126200000f5751620006718162000453565b506040513d6000823e3d90fd5b908160209103126200000f575162000671816200076a565b1562000f3e57565b60405162461bcd60e51b815260206004820152600d60248201526c37b7363ca837b7b620b236b4b760991b6044820152606490fd5b1562000f7b57565b60405162461bcd60e51b815260206004820152600c60248201526b7a65726f206164647265737360a01b6044820152606490fd5b1562000fb757565b60405162461bcd60e51b81526020600482015260136024820152721c185a5c88185b1c9958591e481b1a5cdd1959606a1b6044820152606490fd5b6000198114620010025760010190565b634e487b7160e01b600052601160045260246000fd5b6001600160a01b03808316939082169291838514620011ec577feda679f3434de965730a28b8b694f2a348c09a2c1bb3e226633b6af24841adc1926002620011ad92620010d66200118d9588151580620011e2575b620010789062000f73565b620010ce620010c8620010c4620010bd88620010a68860018060a01b03166000526007602052604060002090565b9060018060a01b0316600052602052604060002090565b5460ff1690565b1590565b62000faf565b848362001252565b94836200110c620010ff8896620010a68660018060a01b03166000526007602052604060002090565b805460ff19166001179055565b6200116a6200114b600154806200113a85620010a68960018060a01b03166000526002602052604060002090565b556000526003602052604060002090565b80546001600160a01b0319166001600160a01b03909516949094178455565b6001830180546001600160a01b0319166001600160a01b03909216919091179055565b0180546001600160a01b0319166001600160a01b03909216919091179055565b60015490620011c5620011c08362000ff2565b600155565b604080516001600160a01b039290921682526020820192909252a3565b508915156200106d565b60405162461bcd60e51b81526020600482015260116024820152706964656e746963616c206164647265737360781b6044820152606490fd5b9081519160005b8381106200123e575050016000815290565b80602080928401015181850152016200122c565b90620012d091620013106200131d6111f193620012726020860162000e4c565b94808652620018566020870139604080516001600160a01b038681166020830152831681830152908152601f199190620012dd90620012b360608262000e18565b604051988991620012c960208401809b62001225565b9062001225565b0383810189528862000e18565b604051938491602083019687906028926bffffffffffffffffffffffff19809260601b16835260601b1660148201520190565b0390810183528262000e18565b5190209151906000f5906001600160a01b038216803b156200000f57604051631e2c2eb160e21b81526001600160a01b03929092166004830152600160248301526000908290604490829084905af1801562001394575b6200137d575090565b806200138d620006719262000e03565b806200025c565b6200139e62000f11565b62001374565b15620013ac57565b60405162461bcd60e51b815260206004820152601060248201526f1c185a5c881b9bdd08195e1a5cdd195960821b6044820152606490fd5b15620013ec57565b60405162461bcd60e51b815260206004820152600b60248201526a657863656564203130302560a81b6044820152606490fd5b3562000671816200076a565b60c0620014446005926000526003602052604060002090565b80549093906001600160a01b0316151580620014dd575b6200146690620013a4565b60a081013562001485612710808311159081620014ce575b50620013e4565b620014b862001497606084016200141f565b60028701805460ff60a01b191691151560a01b60ff60a01b16919091179055565b6080820135600386015560048501550135910155565b9050848401351115386200147e565b506001840154620014669062001503906001600160a01b03165b6001600160a01b031690565b151590506200145b565b60c43590620015316127108084111590816200158b575b816200157c5750620013e4565b6000526004602052604060002090602435825560443560018301556064356002830155608435600383015560a4356004830155600582015560e4356006820155600761010435910155565b9050610104351115386200147e565b80915060e43511159062001524565b60243590620015b7612710808411159081620015d15750620013e4565b600052600560205260406000209081556001604435910155565b90506044351115386200147e565b15620015e757565b60405162461bcd60e51b815260206004820152601c60248201527f657863656564206d61782066756e64696e6720726174652031303025000000006044820152606490fd5b9080356000811315908162001755575b501562001710576200169d62000e4a926200166960208401356000811215908162001701575b50620015df565b6200168d61271080606086013511159081620016f0575b81620016e05750620013e4565b6000526006602052604060002090565b9060c0600691803584556020810135600185015560408101356002850155606081013560038501556080810135600485015560a081013560058501550135910155565b905060c08501351115386200147e565b809150608086013511159062001680565b620f4240915013153862001662565b60405162461bcd60e51b815260206004820152601c60248201527f657863656564206d696e2066756e64696e6720726174652031303025000000006044820152606490fd5b620f423f1913159050386200163c565b620014f7620014f76040620017926200178c620017bf956000526003602052604060002090565b62000e96565b80516001600160a01b03161515806200182c575b620017b190620013a4565b01516001600160a01b031690565b91823b156200000f57604051631e2c2eb160e21b81526001600160a01b0392909216600483015215156024820152906000908290604490829084905af180156200181c575b6200180c5750565b806200138d62000e4a9262000e03565b6200182662000f11565b62001804565b506020810151620017b1906200184b906001600160a01b0316620014f7565b15159050620017a656fe608034620003a8576001600160401b0390601f90601f19620011f13881900384810183168401919086831185841017620002ac578085926040948552833981010312620003a8576200005182620003cd565b93620000616020809401620003cd565b936200006c620003ad565b60078152664d5958204c507360c81b8582015262000089620003ad565b91600683526504d59582d4c560d41b86840152815192848411620002ac5760039384546001948582811c921680156200039d575b8a8310146200038757818584931162000331575b508990858311600114620002ce57600092620002c2575b505060001982871b1c191690841b1784555b8051948511620002ac5760049687548481811c91168015620002a1575b828210146200028c5783811162000241575b5080928611600114620001d5575084955090849291600095620001c9575b50501b92600019911b1c19161790555b60058054336001600160a01b031980831682179093556040519492936001600160a01b0393909284929083167f8be0079c531659141344cd1fd0a4f28419497f9722a3daafe3b4186f6b6457e0600080a31683600654161760065516906007541617600755610e0e9081620003e38239f35b01519350388062000147565b939295859081168860005285600020956000905b898383106200022657505050106200020b575b50505050811b01905562000157565b01519060f884600019921b161c1916905538808080620001fc565b858701518955909701969485019488935090810190620001e9565b88600052816000208480890160051c820192848a1062000282575b0160051c019085905b8281106200027557505062000129565b6000815501859062000265565b925081926200025c565b602289634e487b7160e01b6000525260246000fd5b90607f169062000117565b634e487b7160e01b600052604160045260246000fd5b015190503880620000e8565b908987941691886000528b6000209260005b8d8282106200031a575050841162000301575b505050811b018455620000fa565b015160001983891b60f8161c19169055388080620002f3565b8385015186558a97909501949384019301620002e0565b90915086600052896000208580850160051c8201928c86106200037d575b918891869594930160051c01915b8281106200036d575050620000d1565b600081558594508891016200035d565b925081926200034f565b634e487b7160e01b600052602260045260246000fd5b91607f1691620000bd565b600080fd5b60408051919082016001600160401b03811183821017620002ac57604052565b51906001600160a01b0382168203620003a85756fe6080604081815260048036101561001557600080fd5b600092833560e01c90816306fdde031461094057508063095ea7b3146109165780630dfe1681146108ed57806318160ddd146108ce57806323b872dd14610804578063313ce567146107e8578063395093511461079857806340c10f19146106c3578063648ec7b91461068557806370a082311461064e578063715018a6146105f157806378b0bac41461059b5780638da5cb5b1461057257806395d89b41146104525780639dc29fac1461031b578063a457c2d714610274578063a9059cbb14610243578063d21220a71461021a578063dd62ed3e146101cd5763f2fde38b146100ff57600080fd5b346101c95760203660031901126101c957610118610a7e565b90610121610aaf565b6001600160a01b03918216928315610177575050600554826bffffffffffffffffffffffff60a01b821617600555167f8be0079c531659141344cd1fd0a4f28419497f9722a3daafe3b4186f6b6457e08380a380f35b906020608492519162461bcd60e51b8352820152602660248201527f4f776e61626c653a206e6577206f776e657220697320746865207a65726f206160448201526564647265737360d01b6064820152fd5b8280fd5b505034610216578060031936011261021657806020926101eb610a7e565b6101f3610a99565b6001600160a01b0391821683526001865283832091168252845220549051908152f35b5080fd5b50503461021657816003193601126102165760075490516001600160a01b039091168152602090f35b50503461021657806003193601126102165760209061026d610263610a7e565b6024359033610b2a565b5160018152f35b50823461031857826003193601126103185761028e610a7e565b918360243592338152600160205281812060018060a01b03861682526020522054908282106102c75760208561026d8585038733610c98565b608490602086519162461bcd60e51b8352820152602560248201527f45524332303a2064656372656173656420616c6c6f77616e63652062656c6f77604482015264207a65726f60d81b6064820152fd5b80fd5b50829034610216578260031936011261021657610336610a7e565b6024353384526020916008835261035260ff8787205416610d9a565b6001600160a01b03169283156104055783855284835285852054908282106103b75750908495817fddf252ad1be2c89b69c2b068fc378daa952ba7f163c4a11628f55a4df523b3ef94938688528785520381872055816002540360025551908152a380f35b865162461bcd60e51b8152908101849052602260248201527f45524332303a206275726e20616d6f756e7420657863656564732062616c616e604482015261636560f01b6064820152608490fd5b855162461bcd60e51b8152908101839052602160248201527f45524332303a206275726e2066726f6d20746865207a65726f206164647265736044820152607360f81b6064820152608490fd5b50919034610216578160031936011261021657805190828454600181811c90808316928315610568575b60209384841081146105555783885290811561053957506001146104e4575b505050829003601f01601f191682019267ffffffffffffffff8411838510176104d157508291826104cd925282610a35565b0390f35b634e487b7160e01b815260418552602490fd5b8787529192508591837f8a35acfbc15ff81a39ae7d344fd709f28e8600b4aa8c65c6b64bfe7fe36bd19b5b838510610525575050505083010138808061049b565b80548886018301529301928490820161050f565b60ff1916878501525050151560051b840101905038808061049b565b634e487b7160e01b895260228a52602489fd5b91607f169161047c565b50503461021657816003193601126102165760055490516001600160a01b039091168152602090f35b5050346102165780600319360112610216576105b5610a7e565b90602435918215158093036105ed576105cc610aaf565b60018060a01b03168352600860205282209060ff8019835416911617905580f35b8380fd5b833461031857806003193601126103185761060a610aaf565b600580546001600160a01b0319811690915581906001600160a01b03167f8be0079c531659141344cd1fd0a4f28419497f9722a3daafe3b4186f6b6457e08280a380f35b5050346102165760203660031901126102165760209181906001600160a01b03610676610a7e565b16815280845220549051908152f35b5050346102165760203660031901126102165760209160ff9082906001600160a01b036106b0610a7e565b1681526008855220541690519015158152f35b5090346101c957806003193601126101c9576106dd610a7e565b906024359133855260086020526106f960ff8387205416610d9a565b6001600160a01b031692831561075657506020827fddf252ad1be2c89b69c2b068fc378daa952ba7f163c4a11628f55a4df523b3ef9261073c8795600254610b07565b60025585855284835280852082815401905551908152a380f35b6020606492519162461bcd60e51b8352820152601f60248201527f45524332303a206d696e7420746f20746865207a65726f2061646472657373006044820152fd5b50503461021657806003193601126102165761026d6020926107e16107bb610a7e565b338352600186528483206001600160a01b03821684528652918490205460243590610b07565b9033610c98565b5050346102165781600319360112610216576020905160128152f35b5082903461021657606036600319011261021657610820610a7e565b610828610a99565b91846044359460018060a01b038416815260016020528181203382526020522054906000198203610862575b60208661026d878787610b2a565b84821061088b57509183916108806020969561026d95033383610c98565b919394819350610854565b606490602087519162461bcd60e51b8352820152601d60248201527f45524332303a20696e73756666696369656e7420616c6c6f77616e63650000006044820152fd5b5050346102165781600319360112610216576020906002549051908152f35b50503461021657816003193601126102165760065490516001600160a01b039091168152602090f35b50503461021657806003193601126102165760209061026d610936610a7e565b6024359033610c98565b84915083346101c957826003193601126101c95782600354600181811c90808316928315610a2b575b602093848410811461055557838852908115610a0f57506001146109b957505050829003601f01601f191682019267ffffffffffffffff8411838510176104d157508291826104cd925282610a35565b600387529192508591837fc2575a0e9e593c00f959f8c92f12db2869c3395a3b0502d05e2516446f71f85b5b8385106109fb575050505083010185808061049b565b8054888601830152930192849082016109e5565b60ff1916878501525050151560051b840101905085808061049b565b91607f1691610969565b6020808252825181830181905290939260005b828110610a6a57505060409293506000838284010152601f8019910116010190565b818101860151848201604001528501610a48565b600435906001600160a01b0382168203610a9457565b600080fd5b602435906001600160a01b0382168203610a9457565b6005546001600160a01b03163303610ac357565b606460405162461bcd60e51b815260206004820152602060248201527f4f776e61626c653a2063616c6c6572206973206e6f7420746865206f776e65726044820152fd5b91908201809211610b1457565b634e487b7160e01b600052601160045260246000fd5b6001600160a01b03908116918215610c455716918215610bf457600082815280602052604081205491808310610ba057604082827fddf252ad1be2c89b69c2b068fc378daa952ba7f163c4a11628f55a4df523b3ef958760209652828652038282205586815220818154019055604051908152a3565b60405162461bcd60e51b815260206004820152602660248201527f45524332303a207472616e7366657220616d6f756e7420657863656564732062604482015265616c616e636560d01b6064820152608490fd5b60405162461bcd60e51b815260206004820152602360248201527f45524332303a207472616e7366657220746f20746865207a65726f206164647260448201526265737360e81b6064820152608490fd5b60405162461bcd60e51b815260206004820152602560248201527f45524332303a207472616e736665722066726f6d20746865207a65726f206164604482015264647265737360d81b6064820152608490fd5b6001600160a01b03908116918215610d495716918215610cf95760207f8c5be1e5ebec7d5bd14f71427d1e84f3dd0314c0f7b2291e5b200ac8c7c3b925918360005260018252604060002085600052825280604060002055604051908152a3565b60405162461bcd60e51b815260206004820152602260248201527f45524332303a20617070726f766520746f20746865207a65726f206164647265604482015261737360f01b6064820152608490fd5b60405162461bcd60e51b8152602060048201526024808201527f45524332303a20617070726f76652066726f6d20746865207a65726f206164646044820152637265737360e01b6064820152608490fd5b15610da157565b60405162461bcd60e51b815260206004820152600f60248201526e36b4b732b9103337b93134b23232b760891b6044820152606490fdfea26469706673582212201480c652fa8d9c8d23f4fe5232ff44c52dcafd85826e48ddf20d35ac7f4551fc64736f6c63430008110033a2646970667358221220249690574ceaafc6009629ea3cc010c6de026bf4d37f66ed49ddede7aac4e73564736f6c63430008110033",
  "devdoc": {
    "kind": "dev",
    "methods": {},
    "version": 1
  },
  "userdoc": {
    "kind": "user",
    "methods": {},
    "version": 1
  },
  "storageLayout": {
    "storage": [
      {
        "astId": 18308,
        "contract": "contracts/pair/PairInfo.sol:PairInfo",
        "label": "isHandler",
        "offset": 0,
        "slot": "0",
        "type": "t_mapping(t_address,t_bool)"
      },
      {
        "astId": 20060,
        "contract": "contracts/pair/PairInfo.sol:PairInfo",
        "label": "pairsCount",
        "offset": 0,
        "slot": "1",
        "type": "t_uint256"
      },
      {
        "astId": 20066,
        "contract": "contracts/pair/PairInfo.sol:PairInfo",
        "label": "pairIndexes",
        "offset": 0,
        "slot": "2",
        "type": "t_mapping(t_address,t_mapping(t_address,t_uint256))"
      },
      {
        "astId": 20071,
        "contract": "contracts/pair/PairInfo.sol:PairInfo",
        "label": "pairs",
        "offset": 0,
        "slot": "3",
        "type": "t_mapping(t_uint256,t_struct(Pair)23998_storage)"
      },
      {
        "astId": 20076,
        "contract": "contracts/pair/PairInfo.sol:PairInfo",
        "label": "tradingConfigs",
        "offset": 0,
        "slot": "4",
        "type": "t_mapping(t_uint256,t_struct(TradingConfig)24015_storage)"
      },
      {
        "astId": 20081,
        "contract": "contracts/pair/PairInfo.sol:PairInfo",
        "label": "tradingFeeConfigs",
        "offset": 0,
        "slot": "5",
        "type": "t_mapping(t_uint256,t_struct(TradingFeeConfig)24020_storage)"
      },
      {
        "astId": 20086,
        "contract": "contracts/pair/PairInfo.sol:PairInfo",
        "label": "fundingFeeConfigs",
        "offset": 0,
        "slot": "6",
        "type": "t_mapping(t_uint256,t_struct(FundingFeeConfig)24035_storage)"
      },
      {
        "astId": 20092,
        "contract": "contracts/pair/PairInfo.sol:PairInfo",
        "label": "isPairListed",
        "offset": 0,
        "slot": "7",
        "type": "t_mapping(t_address,t_mapping(t_address,t_bool))"
      }
    ],
    "types": {
      "t_address": {
        "encoding": "inplace",
        "label": "address",
        "numberOfBytes": "20"
      },
      "t_bool": {
        "encoding": "inplace",
        "label": "bool",
        "numberOfBytes": "1"
      },
      "t_int256": {
        "encoding": "inplace",
        "label": "int256",
        "numberOfBytes": "32"
      },
      "t_mapping(t_address,t_bool)": {
        "encoding": "mapping",
        "key": "t_address",
        "label": "mapping(address => bool)",
        "numberOfBytes": "32",
        "value": "t_bool"
      },
      "t_mapping(t_address,t_mapping(t_address,t_bool))": {
        "encoding": "mapping",
        "key": "t_address",
        "label": "mapping(address => mapping(address => bool))",
        "numberOfBytes": "32",
        "value": "t_mapping(t_address,t_bool)"
      },
      "t_mapping(t_address,t_mapping(t_address,t_uint256))": {
        "encoding": "mapping",
        "key": "t_address",
        "label": "mapping(address => mapping(address => uint256))",
        "numberOfBytes": "32",
        "value": "t_mapping(t_address,t_uint256)"
      },
      "t_mapping(t_address,t_uint256)": {
        "encoding": "mapping",
        "key": "t_address",
        "label": "mapping(address => uint256)",
        "numberOfBytes": "32",
        "value": "t_uint256"
      },
      "t_mapping(t_uint256,t_struct(FundingFeeConfig)24035_storage)": {
        "encoding": "mapping",
        "key": "t_uint256",
        "label": "mapping(uint256 => struct IPairInfo.FundingFeeConfig)",
        "numberOfBytes": "32",
        "value": "t_struct(FundingFeeConfig)24035_storage"
      },
      "t_mapping(t_uint256,t_struct(Pair)23998_storage)": {
        "encoding": "mapping",
        "key": "t_uint256",
        "label": "mapping(uint256 => struct IPairInfo.Pair)",
        "numberOfBytes": "32",
        "value": "t_struct(Pair)23998_storage"
      },
      "t_mapping(t_uint256,t_struct(TradingConfig)24015_storage)": {
        "encoding": "mapping",
        "key": "t_uint256",
        "label": "mapping(uint256 => struct IPairInfo.TradingConfig)",
        "numberOfBytes": "32",
        "value": "t_struct(TradingConfig)24015_storage"
      },
      "t_mapping(t_uint256,t_struct(TradingFeeConfig)24020_storage)": {
        "encoding": "mapping",
        "key": "t_uint256",
        "label": "mapping(uint256 => struct IPairInfo.TradingFeeConfig)",
        "numberOfBytes": "32",
        "value": "t_struct(TradingFeeConfig)24020_storage"
      },
      "t_struct(FundingFeeConfig)24035_storage": {
        "encoding": "inplace",
        "label": "struct IPairInfo.FundingFeeConfig",
        "members": [
          {
            "astId": 24022,
            "contract": "contracts/pair/PairInfo.sol:PairInfo",
            "label": "minFundingRate",
            "offset": 0,
            "slot": "0",
            "type": "t_int256"
          },
          {
            "astId": 24024,
            "contract": "contracts/pair/PairInfo.sol:PairInfo",
            "label": "maxFundingRate",
            "offset": 0,
            "slot": "1",
            "type": "t_int256"
          },
          {
            "astId": 24026,
            "contract": "contracts/pair/PairInfo.sol:PairInfo",
            "label": "defaultFundingRate",
            "offset": 0,
            "slot": "2",
            "type": "t_int256"
          },
          {
            "astId": 24028,
            "contract": "contracts/pair/PairInfo.sol:PairInfo",
            "label": "fundingWeightFactor",
            "offset": 0,
            "slot": "3",
            "type": "t_uint256"
          },
          {
            "astId": 24030,
            "contract": "contracts/pair/PairInfo.sol:PairInfo",
            "label": "liquidityPremiumFactor",
            "offset": 0,
            "slot": "4",
            "type": "t_uint256"
          },
          {
            "astId": 24032,
            "contract": "contracts/pair/PairInfo.sol:PairInfo",
            "label": "interest",
            "offset": 0,
            "slot": "5",
            "type": "t_int256"
          },
          {
            "astId": 24034,
            "contract": "contracts/pair/PairInfo.sol:PairInfo",
            "label": "lpDistributeP",
            "offset": 0,
            "slot": "6",
            "type": "t_uint256"
          }
        ],
        "numberOfBytes": "224"
      },
      "t_struct(Pair)23998_storage": {
        "encoding": "inplace",
        "label": "struct IPairInfo.Pair",
        "members": [
          {
            "astId": 23985,
            "contract": "contracts/pair/PairInfo.sol:PairInfo",
            "label": "indexToken",
            "offset": 0,
            "slot": "0",
            "type": "t_address"
          },
          {
            "astId": 23987,
            "contract": "contracts/pair/PairInfo.sol:PairInfo",
            "label": "stableToken",
            "offset": 0,
            "slot": "1",
            "type": "t_address"
          },
          {
            "astId": 23989,
            "contract": "contracts/pair/PairInfo.sol:PairInfo",
            "label": "pairToken",
            "offset": 0,
            "slot": "2",
            "type": "t_address"
          },
          {
            "astId": 23991,
            "contract": "contracts/pair/PairInfo.sol:PairInfo",
            "label": "enable",
            "offset": 20,
            "slot": "2",
            "type": "t_bool"
          },
          {
            "astId": 23993,
            "contract": "contracts/pair/PairInfo.sol:PairInfo",
            "label": "kOfSwap",
            "offset": 0,
            "slot": "3",
            "type": "t_uint256"
          },
          {
            "astId": 23995,
            "contract": "contracts/pair/PairInfo.sol:PairInfo",
            "label": "expectIndexTokenP",
            "offset": 0,
            "slot": "4",
            "type": "t_uint256"
          },
          {
            "astId": 23997,
            "contract": "contracts/pair/PairInfo.sol:PairInfo",
            "label": "addLpFeeP",
            "offset": 0,
            "slot": "5",
            "type": "t_uint256"
          }
        ],
        "numberOfBytes": "192"
      },
      "t_struct(TradingConfig)24015_storage": {
        "encoding": "inplace",
        "label": "struct IPairInfo.TradingConfig",
        "members": [
          {
            "astId": 24000,
            "contract": "contracts/pair/PairInfo.sol:PairInfo",
            "label": "minLeverage",
            "offset": 0,
            "slot": "0",
            "type": "t_uint256"
          },
          {
            "astId": 24002,
            "contract": "contracts/pair/PairInfo.sol:PairInfo",
            "label": "maxLeverage",
            "offset": 0,
            "slot": "1",
            "type": "t_uint256"
          },
          {
            "astId": 24004,
            "contract": "contracts/pair/PairInfo.sol:PairInfo",
            "label": "minTradeAmount",
            "offset": 0,
            "slot": "2",
            "type": "t_uint256"
          },
          {
            "astId": 24006,
            "contract": "contracts/pair/PairInfo.sol:PairInfo",
            "label": "maxTradeAmount",
            "offset": 0,
            "slot": "3",
            "type": "t_uint256"
          },
          {
            "astId": 24008,
            "contract": "contracts/pair/PairInfo.sol:PairInfo",
            "label": "maxPositionAmount",
            "offset": 0,
            "slot": "4",
            "type": "t_uint256"
          },
          {
            "astId": 24010,
            "contract": "contracts/pair/PairInfo.sol:PairInfo",
            "label": "maintainMarginRate",
            "offset": 0,
            "slot": "5",
            "type": "t_uint256"
          },
          {
            "astId": 24012,
            "contract": "contracts/pair/PairInfo.sol:PairInfo",
            "label": "priceSlipP",
            "offset": 0,
            "slot": "6",
            "type": "t_uint256"
          },
          {
            "astId": 24014,
            "contract": "contracts/pair/PairInfo.sol:PairInfo",
            "label": "maxPriceDeviationP",
            "offset": 0,
            "slot": "7",
            "type": "t_uint256"
          }
        ],
        "numberOfBytes": "256"
      },
      "t_struct(TradingFeeConfig)24020_storage": {
        "encoding": "inplace",
        "label": "struct IPairInfo.TradingFeeConfig",
        "members": [
          {
            "astId": 24017,
            "contract": "contracts/pair/PairInfo.sol:PairInfo",
            "label": "takerFeeP",
            "offset": 0,
            "slot": "0",
            "type": "t_uint256"
          },
          {
            "astId": 24019,
            "contract": "contracts/pair/PairInfo.sol:PairInfo",
            "label": "makerFeeP",
            "offset": 0,
            "slot": "1",
            "type": "t_uint256"
          }
        ],
        "numberOfBytes": "64"
      },
      "t_uint256": {
        "encoding": "inplace",
        "label": "uint256",
        "numberOfBytes": "32"
      }
    }
  }
}