{
  "address": "0x367761085BF3C12e5DA2Df99AC6E1a824612b8fb",
  "abi": [
    {
      "inputs": [
        {
          "internalType": "contract IAddressesProvider",
          "name": "addressProvider",
          "type": "address"
        },
        {
          "internalType": "contract IPairInfo",
          "name": "_pairInfo",
          "type": "address"
        },
        {
          "internalType": "contract IPairVault",
          "name": "_pairVault",
          "type": "address"
        },
        {
          "internalType": "address",
          "name": "_feeReceiver",
          "type": "address"
        },
        {
          "internalType": "address",
          "name": "_slipReceiver",
          "type": "address"
        },
        {
          "internalType": "address",
          "name": "_weth",
          "type": "address"
        }
      ],
      "stateMutability": "nonpayable",
      "type": "constructor"
    },
    {
      "anonymous": false,
      "inputs": [
        {
          "indexed": true,
          "internalType": "address",
          "name": "funder",
          "type": "address"
        },
        {
          "indexed": true,
          "internalType": "address",
          "name": "account",
          "type": "address"
        },
        {
          "indexed": true,
          "internalType": "uint256",
          "name": "pairIndex",
          "type": "uint256"
        },
        {
          "indexed": false,
          "internalType": "uint256",
          "name": "indexAmount",
          "type": "uint256"
        },
        {
          "indexed": false,
          "internalType": "uint256",
          "name": "stableAmount",
          "type": "uint256"
        },
        {
          "indexed": false,
          "internalType": "uint256",
          "name": "lpAmount",
          "type": "uint256"
        }
      ],
      "name": "AddLiquidity",
      "type": "event"
    },
    {
      "anonymous": false,
      "inputs": [
        {
          "indexed": true,
          "internalType": "address",
          "name": "account",
          "type": "address"
        },
        {
          "indexed": true,
          "internalType": "address",
          "name": "receiver",
          "type": "address"
        },
        {
          "indexed": true,
          "internalType": "uint256",
          "name": "pairIndex",
          "type": "uint256"
        },
        {
          "indexed": false,
          "internalType": "uint256",
          "name": "indexAmount",
          "type": "uint256"
        },
        {
          "indexed": false,
          "internalType": "uint256",
          "name": "stableAmount",
          "type": "uint256"
        },
        {
          "indexed": false,
          "internalType": "uint256",
          "name": "lpAmount",
          "type": "uint256"
        }
      ],
      "name": "RemoveLiquidity",
      "type": "event"
    },
    {
      "anonymous": false,
      "inputs": [
        {
          "indexed": true,
          "internalType": "address",
          "name": "funder",
          "type": "address"
        },
        {
          "indexed": true,
          "internalType": "address",
          "name": "receiver",
          "type": "address"
        },
        {
          "indexed": true,
          "internalType": "uint256",
          "name": "pairIndex",
          "type": "uint256"
        },
        {
          "indexed": false,
          "internalType": "bool",
          "name": "isBuy",
          "type": "bool"
        },
        {
          "indexed": false,
          "internalType": "uint256",
          "name": "amountIn",
          "type": "uint256"
        },
        {
          "indexed": false,
          "internalType": "uint256",
          "name": "amountOut",
          "type": "uint256"
        }
      ],
      "name": "Swap",
      "type": "event"
    },
    {
      "inputs": [],
      "name": "ADDRESS_PROVIDER",
      "outputs": [
        {
          "internalType": "contract IAddressesProvider",
          "name": "",
          "type": "address"
        }
      ],
      "stateMutability": "view",
      "type": "function"
    },
    {
      "inputs": [],
      "name": "PRICE_PRECISION",
      "outputs": [
        {
          "internalType": "uint256",
          "name": "",
          "type": "uint256"
        }
      ],
      "stateMutability": "view",
      "type": "function"
    },
    {
      "inputs": [
        {
          "internalType": "uint256",
          "name": "_pairIndex",
          "type": "uint256"
        },
        {
          "internalType": "uint256",
          "name": "_indexAmount",
          "type": "uint256"
        },
        {
          "internalType": "uint256",
          "name": "_stableAmount",
          "type": "uint256"
        }
      ],
      "name": "addLiquidity",
      "outputs": [
        {
          "internalType": "uint256",
          "name": "",
          "type": "uint256"
        }
      ],
      "stateMutability": "nonpayable",
      "type": "function"
    },
    {
      "inputs": [
        {
          "internalType": "uint256",
          "name": "_pairIndex",
          "type": "uint256"
        },
        {
          "internalType": "uint256",
          "name": "_stableAmount",
          "type": "uint256"
        }
      ],
      "name": "addLiquidityETH",
      "outputs": [
        {
          "internalType": "uint256",
          "name": "",
          "type": "uint256"
        }
      ],
      "stateMutability": "payable",
      "type": "function"
    },
    {
      "inputs": [
        {
          "internalType": "address",
          "name": "_funder",
          "type": "address"
        },
        {
          "internalType": "address",
          "name": "_account",
          "type": "address"
        },
        {
          "internalType": "uint256",
          "name": "_pairIndex",
          "type": "uint256"
        },
        {
          "internalType": "uint256",
          "name": "_indexAmount",
          "type": "uint256"
        },
        {
          "internalType": "uint256",
          "name": "_stableAmount",
          "type": "uint256"
        }
      ],
      "name": "addLiquidityForAccount",
      "outputs": [
        {
          "internalType": "uint256",
          "name": "",
          "type": "uint256"
        }
      ],
      "stateMutability": "nonpayable",
      "type": "function"
    },
    {
      "inputs": [],
      "name": "feeReceiver",
      "outputs": [
        {
          "internalType": "address",
          "name": "",
          "type": "address"
        }
      ],
      "stateMutability": "view",
      "type": "function"
    },
    {
      "inputs": [
        {
          "internalType": "uint256",
          "name": "_pairIndex",
          "type": "uint256"
        },
        {
          "internalType": "uint256",
          "name": "_lpAmount",
          "type": "uint256"
        }
      ],
      "name": "getDepositAmount",
      "outputs": [
        {
          "internalType": "uint256",
          "name": "depositIndexAmount",
          "type": "uint256"
        },
        {
          "internalType": "uint256",
          "name": "depositStableAmount",
          "type": "uint256"
        }
      ],
      "stateMutability": "view",
      "type": "function"
    },
    {
      "inputs": [
        {
          "internalType": "uint256",
          "name": "_pairIndex",
          "type": "uint256"
        },
        {
          "internalType": "uint256",
          "name": "_indexAmount",
          "type": "uint256"
        },
        {
          "internalType": "uint256",
          "name": "_stableAmount",
          "type": "uint256"
        }
      ],
      "name": "getMintLpAmount",
      "outputs": [
        {
          "internalType": "uint256",
          "name": "mintAmount",
          "type": "uint256"
        },
        {
          "internalType": "address",
          "name": "slipToken",
          "type": "address"
        },
        {
          "internalType": "uint256",
          "name": "slipAmount",
          "type": "uint256"
        }
      ],
      "stateMutability": "view",
      "type": "function"
    },
    {
      "inputs": [
        {
          "internalType": "uint256",
          "name": "_pairIndex",
          "type": "uint256"
        },
        {
          "internalType": "uint256",
          "name": "_lpAmount",
          "type": "uint256"
        }
      ],
      "name": "getReceivedAmount",
      "outputs": [
        {
          "internalType": "uint256",
          "name": "receiveIndexTokenAmount",
          "type": "uint256"
        },
        {
          "internalType": "uint256",
          "name": "receiveStableTokenAmount",
          "type": "uint256"
        }
      ],
      "stateMutability": "view",
      "type": "function"
    },
    {
      "inputs": [
        {
          "internalType": "address",
          "name": "",
          "type": "address"
        }
      ],
      "name": "isHandler",
      "outputs": [
        {
          "internalType": "bool",
          "name": "",
          "type": "bool"
        }
      ],
      "stateMutability": "view",
      "type": "function"
    },
    {
      "inputs": [
        {
          "internalType": "uint256",
          "name": "_pairIndex",
          "type": "uint256"
        }
      ],
      "name": "lpFairPrice",
      "outputs": [
        {
          "internalType": "uint256",
          "name": "",
          "type": "uint256"
        }
      ],
      "stateMutability": "view",
      "type": "function"
    },
    {
      "inputs": [],
      "name": "pairInfo",
      "outputs": [
        {
          "internalType": "contract IPairInfo",
          "name": "",
          "type": "address"
        }
      ],
      "stateMutability": "view",
      "type": "function"
    },
    {
      "inputs": [],
      "name": "pairVault",
      "outputs": [
        {
          "internalType": "contract IPairVault",
          "name": "",
          "type": "address"
        }
      ],
      "stateMutability": "view",
      "type": "function"
    },
    {
      "inputs": [
        {
          "internalType": "uint256",
          "name": "_pairIndex",
          "type": "uint256"
        },
        {
          "internalType": "uint256",
          "name": "_amount",
          "type": "uint256"
        }
      ],
      "name": "removeLiquidity",
      "outputs": [
        {
          "internalType": "uint256",
          "name": "receivedIndexAmount",
          "type": "uint256"
        },
        {
          "internalType": "uint256",
          "name": "receivedStableAmount",
          "type": "uint256"
        }
      ],
      "stateMutability": "nonpayable",
      "type": "function"
    },
    {
      "inputs": [
        {
          "internalType": "address",
          "name": "_account",
          "type": "address"
        },
        {
          "internalType": "address",
          "name": "_receiver",
          "type": "address"
        },
        {
          "internalType": "uint256",
          "name": "_pairIndex",
          "type": "uint256"
        },
        {
          "internalType": "uint256",
          "name": "_amount",
          "type": "uint256"
        }
      ],
      "name": "removeLiquidityForAccount",
      "outputs": [
        {
          "internalType": "uint256",
          "name": "",
          "type": "uint256"
        },
        {
          "internalType": "uint256",
          "name": "",
          "type": "uint256"
        }
      ],
      "stateMutability": "nonpayable",
      "type": "function"
    },
    {
      "inputs": [
        {
          "internalType": "contract IPairInfo",
          "name": "_pairStorage",
          "type": "address"
        },
        {
          "internalType": "contract IPairVault",
          "name": "_pairVault",
          "type": "address"
        }
      ],
      "name": "setContract",
      "outputs": [],
      "stateMutability": "nonpayable",
      "type": "function"
    },
    {
      "inputs": [
        {
          "internalType": "address",
          "name": "_feeReceiver",
          "type": "address"
        },
        {
          "internalType": "address",
          "name": "_slipReceiver",
          "type": "address"
        }
      ],
      "name": "setReceiver",
      "outputs": [],
      "stateMutability": "nonpayable",
      "type": "function"
    },
    {
      "inputs": [],
      "name": "slipReceiver",
      "outputs": [
        {
          "internalType": "address",
          "name": "",
          "type": "address"
        }
      ],
      "stateMutability": "view",
      "type": "function"
    },
    {
      "inputs": [
        {
          "internalType": "uint256",
          "name": "_pairIndex",
          "type": "uint256"
        },
        {
          "internalType": "bool",
          "name": "_isBuy",
          "type": "bool"
        },
        {
          "internalType": "uint256",
          "name": "_amountIn",
          "type": "uint256"
        },
        {
          "internalType": "uint256",
          "name": "_minOut",
          "type": "uint256"
        }
      ],
      "name": "swap",
      "outputs": [
        {
          "internalType": "uint256",
          "name": "amountIn",
          "type": "uint256"
        },
        {
          "internalType": "uint256",
          "name": "amountOut",
          "type": "uint256"
        }
      ],
      "stateMutability": "nonpayable",
      "type": "function"
    },
    {
      "inputs": [
        {
          "internalType": "address",
          "name": "_funder",
          "type": "address"
        },
        {
          "internalType": "address",
          "name": "_receiver",
          "type": "address"
        },
        {
          "internalType": "uint256",
          "name": "_pairIndex",
          "type": "uint256"
        },
        {
          "internalType": "bool",
          "name": "_isBuy",
          "type": "bool"
        },
        {
          "internalType": "uint256",
          "name": "_amountIn",
          "type": "uint256"
        },
        {
          "internalType": "uint256",
          "name": "_minOut",
          "type": "uint256"
        }
      ],
      "name": "swapForAccount",
      "outputs": [
        {
          "internalType": "uint256",
          "name": "amountIn",
          "type": "uint256"
        },
        {
          "internalType": "uint256",
          "name": "amountOut",
          "type": "uint256"
        }
      ],
      "stateMutability": "nonpayable",
      "type": "function"
    },
    {
      "inputs": [
        {
          "internalType": "uint256",
          "name": "_pairIndex",
          "type": "uint256"
        },
        {
          "internalType": "uint256",
          "name": "_minOut",
          "type": "uint256"
        }
      ],
      "name": "swapInEth",
      "outputs": [
        {
          "internalType": "uint256",
          "name": "amountIn",
          "type": "uint256"
        },
        {
          "internalType": "uint256",
          "name": "amountOut",
          "type": "uint256"
        }
      ],
      "stateMutability": "payable",
      "type": "function"
    },
    {
      "inputs": [],
      "name": "weth",
      "outputs": [
        {
          "internalType": "address",
          "name": "",
          "type": "address"
        }
      ],
      "stateMutability": "view",
      "type": "function"
    },
    {
      "stateMutability": "payable",
      "type": "receive"
    }
  ],
  "transactionHash": "0x30414a5151876a6a5d2dfa27c19c160e92217f8971f1cdcb5781c6b392b5a96a",
  "args": [
    "0x5FbDB2315678afecb367f032d93F642f64180aa3",
    "0xC9a43158891282A2B1475592D5719c001986Aaec",
    "0x1c85638e118b37167e9298c2268758e058DdfDA0",
    "0xf39Fd6e51aad88F6F4ce6aB8827279cffFb92266",
    "0xf39Fd6e51aad88F6F4ce6aB8827279cffFb92266",
    "0x2279B7A0a67DB372996a5FaB50D91eAA73d2eBe6"
  ],
  "numDeployments": 1,
  "solcInputHash": "a747a9dbf9f336ed76268b3b4081867a",
  "bytecode": "0x60a0346200012b57601f6200446a38819003918201601f19168301916001600160401b03831184841017620001305780849260c0946040528339810103126200012b5780516001600160a01b039081811681036200012b576020830151928284168094036200012b576040810151908382168092036200012b578380926200008a6060840162000146565b90620000a760a06200009f6080870162000146565b950162000146565b953360005260006020526040600020600160ff1982541617905560805260018060a01b03199788600154161760015587600254161760025516856003541617600355168360045416176004551690600554161760055560405161430e90816200015c8239608051818181610576015281816110e5015281816111f901526141010152f35b600080fd5b634e487b7160e01b600052604160045260246000fd5b51906001600160a01b03821682036200012b5756fe60a080604052600436101561001d575b50361561001b57600080fd5b005b600090813560e01c908163055241511461126f575080630738aa31146112285780631848effa146111e35780632bf6e0a514611098578063346d5d751461107e5780633fc8cef314611055578063422f10431461103957806346ea87af14610ffb5780634b57f96e14610fdc5780634c3c0f5814610fa5578063653c45e614610f6d5780637a524075146107d35780637a9d1ac41461068857806386dcb95e146105345780638ffc80a1146103d257806392771c3c146103b857806395082d25146103905780639d7de6b3146101d6578063a31a7b44146101ad578063b3f0067414610184578063e05def24146101435763fc2a5b1d0361000f57346101405780600319360112610140576001546040516001600160a01b039091168152602090f35b80fd5b5034610140576080366003190112610140576040610178610162611294565b61016a6112aa565b906064359160443591612e3c565b82519182526020820152f35b50346101405780600319360112610140576003546040516001600160a01b039091168152602090f35b50346101405780600319360112610140576002546040516001600160a01b039091168152602090f35b5034610140576101f26101e8366112c0565b8192913033612e3c565b909160018060a01b039060e0826001541691602460405180948193632f7ce47360e21b835260048301525afa908115610385578591610356575b5083151580610346575b6102d8575b82610251575b6040848482519182526020820152f35b60209081015160405163a9059cbb60e01b8152336004820152602481018590529592869160449183918691165af180156102cb57610290575b80610241565b6020843d82116102c3575b816102a860209383611352565b8101031261014057506102bc604093611388565b503861028a565b3d915061029b565b50604051903d90823e3d90fd5b848260055416803b1561034257818091602460405180948193632e1a7d4d60e01b83528b60048401525af180156103375761031f575b505061031a84336114d5565b61023b565b610328906112f0565b61033357843861030e565b8480fd5b6040513d84823e3d90fd5b5080fd5b5081815116826005541614610236565b610378915060e03d60e01161037e575b6103708183611352565b8101906113d1565b3861022c565b503d610366565b6040513d87823e3d90fd5b503461014057806003193601126101405760206040516c0c9f2c9cd04674edea400000008152f35b50346101405760406101786103cc366112c0565b90613dfa565b5060246103de366112c0565b9060018060a01b0360e0816001541660405195868092632f7ce47360e21b82528660048301525afa938415610385578594610513575b508481855116826005541680911480610504575b6104319061145a565b803b15610342578160049160405192838092630d0e30db60e41b825234905af18015610337576104f0575b50506020938401516040516323b872dd60e01b81523360048201523060248201526044810185905295918591879160649183918691165af180156102cb576104b6575b50906104ae913490333061240f565b604051908152f35b8385813d83116104e9575b6104cb8183611352565b8101031261014057506104e16104ae9394611388565b50839261049f565b503d6104c1565b6104f9906112f0565b61033357843861045c565b50604086015183161515610428565b61052d91945060e03d60e01161037e576103708183611352565b9238610414565b50346101405760403660031901126101405761054e611294565b6105566112aa565b6040516351331ad760e01b81526001600160a01b039190602080826004817f000000000000000000000000000000000000000000000000000000000000000088165afa8015610640578492879161064b575b508190602460405180958193637be53ca160e01b8352336004840152165afa908115610640578691610609575b506105e09150611395565b816bffffffffffffffffffffffff60a01b93168360035416176003551690600454161760045580f35b905081813d8311610639575b61061f8183611352565b81010312610333576106336105e091611388565b386105d5565b503d610615565b6040513d88823e3d90fd5b809350828092503d8311610681575b6106648183611352565b8101031261067d57806106778593611374565b906105a8565b8580fd5b503d61065a565b50346101405760803660031901126101405760043560243580151581036107ce576106bb60643560443583853033611653565b91909282151591826107c6575b5081610759575b506106e5575b6040809350519182526020820152f35b60055483906001600160a01b0316803b15610342578190602460405180948193632e1a7d4d60e01b83528760048401525af1801561074e57610736575b506040925061073181336114d5565b6106d5565b61074084916112f0565b61074a5782610722565b8280fd5b6040513d86823e3d90fd5b600154604051632f7ce47360e21b815260048101929092526001600160a01b03925060e0908290602490829086165afa801561038557829186916107a7575b505116906005541614386106cf565b6107c0915060e03d60e01161037e576103708183611352565b38610798565b9150386106c8565b600080fd5b506107dd366112c0565b5090602460e060018060a01b036001541660405192838092632f7ce47360e21b82528760048301525afa908115610337578291610f4e575b5080516005546001600160a01b039081169261083d9290911683149081610f37575b5061145a565b803b15610342578160049160405192838092630d0e30db60e41b825234905af1801561033757610f28575b5060055460405163095ea7b360e01b8152306004820152346024820152919291906020908290604490829087906001600160a01b03165af18015610ea657610eef575b50600090818061090e6040516108c08161131a565b601a81527f737761702066756e64657220257320726563656976657220257300000000000060208201526040519182916307e763af60e51b6020840152606060248401526084830190611f27565b3060448301523360648301520361092d601f1991828101845283611352565b8280835160206a636f6e736f6c652e6c6f679501855afa506040519061095282611336565b602c82527f737761702070616972496e64657820257320697342757920257320657870656360208301526b74416d6f756e74496e20257360a01b60408301526109da60405191826109bc602082019563e41b6f6f60e01b87526080602484015260a4830190611f27565b89604483015287606483015234608483015203908101835282611352565b51915afa503415610eb157600154604051632f7ce47360e21b815260048101839052919060e090839060249082906001600160a01b03165afa918215610ea6578392610e85575b5060408201516001600160a01b031615610e4c57600254604051632500ed8d60e21b8152600481018390526001600160a01b0390911693909260c084602481885afa938415610337578294610e1c575b508051610a86906001600160a01b03166140e0565b93610a92858251611f87565b610af46040830151610aee8184604051610aab81611336565b602b81527f7377617020696e646578546f74616c44656c746120257320737461626c65546f60208201526a74616c44656c746120257360a81b604082015261422c565b82611646565b93610b62610b10610b0960a087015188612042565b80976115d6565b86604051610b1d81611336565b602d81527f7377617020657870656374496e64657844656c7461202573206578706563745360208201526c7461626c6544656c746120257360981b604082015261422c565b9381811115610de157610b82610bd092610b7c8934611f87565b926115d6565b80821015610dd95750915b610bc083604051610b9d8161131a565b60118152707377617020696e646578496e44656c746160781b60208201526141d4565b60606040820151910151906115d6565b610c298183604051610be181611336565b603081527f7377617020616d6f756e744f757420737461626c65546f6b656e20257320617660208201526f61696c61626c65537461626c6520257360801b604082015261422c565b8015610da257610c5e91610c489180821015610d9a5750955b866120aa565b82519096879130906001600160a01b0316611d4a565b6002546020909101516001600160a01b039081169116803b156107ce57604051630d172a0160e01b81526001600160a01b03929092166004830152336024830152604482018590526000908290606490829084905af18015610d8e57610d7c575b5060405190815283602082015282604082015233907f2424e4440d8e90b9be053a61916674e21e7603a28f7dccf3ff7b88b755c2e61960603092a4348210610d11576040809350519182526020820152f35b610d1b82346115d6565b6005549093906001600160a01b0316803b1561034257818091602460405180948193632e1a7d4d60e01b83528a60048401525af1801561033757610d68575b5050610731604093336114d5565b610d7282916112f0565b6101405780610d5a565b610d8691506112f0565b600038610cbf565b6040513d6000823e3d90fd5b905095610c42565b60405162461bcd60e51b815260206004820152600f60248201526e37379039ba30b13632903a37b5b2b760891b6044820152606490fd5b905091610b8d565b60405162461bcd60e51b81526020600482015260136024820152723737903732b2b21034b73232bc103a37b5b2b760691b6044820152606490fd5b610e3e91945060c03d8111610e45575b610e368183611352565b8101906115e3565b9238610a71565b503d610e2c565b60405162461bcd60e51b815260206004820152601160248201527039bbb0b81034b73b30b634b2103830b4b960791b6044820152606490fd5b610e9f91925060e03d60e01161037e576103708183611352565b9038610a21565b6040513d85823e3d90fd5b60405162461bcd60e51b815260206004820152601660248201527539bbb0b81034b73b30b634b21030b6b7bab73a1034b760511b6044820152606490fd5b6020813d602011610f20575b81610f0860209383611352565b8101031261074a57610f1990611388565b50386108ab565b3d9150610efb565b610f31906112f0565b38610868565b604001516001600160a01b03161515905038610837565b610f67915060e03d60e01161037e576103708183611352565b38610815565b50346101405760a03660031901126101405760206104ae610f8c611294565b610f946112aa565b60843591606435916044359161240f565b5034610140576060610fbf610fb9366112d6565b9161347d565b604080519384526001600160a01b03909216602084015290820152f35b50346101405760203660031901126101405760206104ae600435613295565b50346101405760203660031901126101405760209060ff906040906001600160a01b03611026611294565b1681528084522054166040519015158152f35b50346101405760206104ae61104d366112d6565b91333361240f565b50346101405780600319360112610140576005546040516001600160a01b039091168152602090f35b5034610140576040610178611092366112c0565b90613a9a565b5034610140576040366003190112610140576001600160a01b036004358181169081900361074a57602435918083168093036111a2576040516351331ad760e01b815260209081816004817f000000000000000000000000000000000000000000000000000000000000000087165afa801561064057829187916111ad575b50602460405180958193637be53ca160e01b8352336004840152165afa908115610385578591611172575b5061114d9150611395565b6bffffffffffffffffffffffff60a01b90816001541617600155600254161760025580f35b905081813d83116111a6575b6111888183611352565b810103126111a25761119c61114d91611388565b38611142565b8380fd5b503d61117e565b82819392503d83116111dc575b6111c48183611352565b8101031261067d576111d68291611374565b38611117565b503d6111ba565b50346101405780600319360112610140576040517f00000000000000000000000000000000000000000000000000000000000000006001600160a01b03168152602090f35b50346101405760c036600319011261014057611242611294565b9061124b6112aa565b9060643590811515820361014057604061017860a43560843585604435888a611653565b9050346103425781600319360112610342576004546001600160a01b03168152602090f35b600435906001600160a01b03821682036107ce57565b602435906001600160a01b03821682036107ce57565b60409060031901126107ce576004359060243590565b60609060031901126107ce57600435906024359060443590565b67ffffffffffffffff811161130457604052565b634e487b7160e01b600052604160045260246000fd5b6040810190811067ffffffffffffffff82111761130457604052565b6060810190811067ffffffffffffffff82111761130457604052565b90601f8019910116810190811067ffffffffffffffff82111761130457604052565b51906001600160a01b03821682036107ce57565b519081151582036107ce57565b1561139c57565b60405162461bcd60e51b815260206004820152600d60248201526c37b7363ca837b7b620b236b4b760991b6044820152606490fd5b908160e09103126107ce576040519060e082019082821067ffffffffffffffff8311176113045760c09160405261140781611374565b835261141560208201611374565b602084015261142660408201611374565b604084015261143760608201611388565b60608401526080810151608084015260a081015160a0840152015160c082015290565b1561146157565b60405162461bcd60e51b815260206004820152600c60248201526b34b73b30b634b2103830b4b960a11b6044820152606490fd5b3d156114d0573d9067ffffffffffffffff821161130457604051916114c4601f8201601f191660200184611352565b82523d6000602084013e565b606090565b81471061156b576000918291829182916001600160a01b03165af16114f8611495565b501561150057565b60405162461bcd60e51b815260206004820152603a60248201527f416464726573733a20756e61626c6520746f2073656e642076616c75652c207260448201527f6563697069656e74206d617920686176652072657665727465640000000000006064820152608490fd5b60405162461bcd60e51b815260206004820152601d60248201527f416464726573733a20696e73756666696369656e742062616c616e63650000006044820152606490fd5b906127109182039182116115c057565b634e487b7160e01b600052601160045260246000fd5b919082039182116115c057565b908160c09103126107ce576040519060c082019082821067ffffffffffffffff8311176113045760a0916040528051835260208101516020840152604081015160408401526060810151606084015260808101516080840152015160a082015290565b919082018092116115c057565b91929095939495600080806116be6116e36040516116708161131a565b601a81527f737761702066756e64657220257320726563656976657220257300000000000060208201526040519283916307e763af60e51b6020840152606060248401526084830190611f27565b6001600160a01b038a811660448401528816606483015203601f198101835282611352565b6020815191016a636f6e736f6c652e6c6f675afa50808061176f61179160405161170c81611336565b602c81527f737761702070616972496e64657820257320697342757920257320657870656360208201526b74416d6f756e74496e20257360a01b604082015260405192839163e41b6f6f60e01b60208401526080602484015260a4830190611f27565b8a604483015288151560648301528c608483015203601f198101835282611352565b6020815191016a636f6e736f6c652e6c6f675afa508615610eb157600154604051632f7ce47360e21b815260048101879052919060e090839060249082906001600160a01b03165afa9182156102cb578192611d2a575b5060408201516001600160a01b031615610e4c57600254604051632500ed8d60e21b8152600481018890526001600160a01b039091169860c0826024818d5afa918215610ea6578392611d0a575b50835161184b906001600160a01b03166140e0565b996118578b8451611f87565b9060408401519061186f8284604051610aab81611336565b6118798284611646565b9261189261188b60a08a015186612042565b80956115d6565b936118a48582604051610b1d81611336565b8a15611beb5750505080821115611baf57611918926118c78d9261190a946115d6565b80821015611ba857505b611905816040516118e18161131a565b60128152717377617020737461626c65496e44656c746160701b60208201526141d4565b6120aa565b9160208151910151906115d6565b61196f818360405161192981611336565b602e81527f7377617020616d6f756e744f757420696e646578546f6b656e2025732061766160208201526d696c61626c65496e64657820257360901b604082015261422c565b8015611b635780821015611b5b5750905b61198b8299836120aa565b996119cc838c60405161199d8161131a565b601d81527f7377617020616d6f756e74496e20257320616d6f756e744f7574202573000000602082015261422c565b8210611b20576002546001600160a01b0316803b1561034257818b60848a836040519586948593631ea746b160e21b855260048501528c1515602485015260448401528860648401525af1801561033757611b11575b5060025483519192916001600160a01b039182169116813b156111a257604051630d172a0160e01b81526001600160a01b0391821660048201529086166024820152604481019290925282908290606490829084905af1801561033757908a939291611af7575b5050602001516002547f2424e4440d8e90b9be053a61916674e21e7603a28f7dccf3ff7b88b755c2e619936060939092611ad1926001600160a01b0390811691899116611d4a565b604080519415158552602085018a905284018890526001600160a01b03908116941692a4565b81929350611b04906112f0565b6101405790818992611a89565b611b1a906112f0565b38611a22565b60405162461bcd60e51b81526020600482015260136024820152721a5b9cdd59999a58da595b9d081b5a5b93dd5d606a1b6044820152606490fd5b905090611980565b60405162461bcd60e51b815260206004820152601860248201527f6e6f20617661696c61626c6520696e64657820746f6b656e00000000000000006044820152606490fd5b90506118d1565b60405162461bcd60e51b81526020600482015260146024820152733737903732b2b21039ba30b13632903a37b5b2b760611b6044820152606490fd5b93509391509c5082829695961115610de157611c0e92610b7c8d610b8293611f87565b611c1f8183604051610be181611336565b8015610da25780821015611d025750905b611c54611c3e839a846120aa565b8251909b8c9189906001600160a01b0316611d4a565b6002546020909101516001600160a01b039182169116813b156111a257604051630d172a0160e01b81526001600160a01b0391821660048201529085166024820152604481019290925290919081908390606490829084905af1908115611cf65750916060917f2424e4440d8e90b9be053a61916674e21e7603a28f7dccf3ff7b88b755c2e61993611ce7575b50611ad1565b611cf0906112f0565b38611ce1565b604051903d90823e3d90fd5b905090611c30565b611d2391925060c03d8111610e4557610e368183611352565b9038611836565b611d4391925060e03d811161037e576103708183611352565b90386117e8565b6040516323b872dd60e01b60208201526001600160a01b0392831660248201529290911660448301526064820192909252611d9b91611d9682608481015b03601f198101845283611352565b611d9d565b565b604051611dfb916001600160a01b0316611db68261131a565b6000806020958685527f5361666545524332303a206c6f772d6c6576656c2063616c6c206661696c656487860152868151910182855af1611df5611495565b91611e8a565b8051828115918215611e6b575b5050905015611e145750565b6084906040519062461bcd60e51b82526004820152602a60248201527f5361666545524332303a204552433230206f7065726174696f6e20646964206e6044820152691bdd081cdd58d8d9595960b21b6064820152fd5b83809293500103126107ce5781611e829101611388565b808238611e08565b91929015611eec5750815115611e9e575090565b3b15611ea75790565b60405162461bcd60e51b815260206004820152601d60248201527f416464726573733a2063616c6c20746f206e6f6e2d636f6e74726163740000006044820152606490fd5b825190915015611eff5750805190602001fd5b60405162461bcd60e51b815260206004820152908190611f23906024830190611f27565b0390fd5b919082519283825260005b848110611f53575050826000602080949584010152601f8019910116010190565b602081830181015184830182015201611f32565b8115611f71570490565b634e487b7160e01b600052601260045260246000fd5b906000198183098183029182808310920391808303921461202c576c0c9f2c9cd04674edea400000009082821115611fef577f7d33c22789773a07feda8b6f0930e26fa397c439f1d5cf4b2eb27d7306d2dc99940990828211900360e21b9103601e1c170290565b60405162461bcd60e51b81526020600482015260156024820152744d6174683a206d756c446976206f766572666c6f7760581b6044820152606490fd5b50506c0c9f2c9cd04674edea4000000091500490565b906000198183098183029182808310920391808303921461209f576127109082821115611fef577fbc01a36e2eb1c432ca57a786c226809d495182a9930be0ded288ce703afb7e91940990828211900360fc1b910360041c170290565b505061271091500490565b906c0c9f2c9cd04674edea4000000090600019828409928281029283808610950394808603951461212f5784831115611fef578291096001821901821680920460028082600302188083028203028083028203028083028203028083028203028083028203028092029003029360018380600003040190848311900302920304170290565b50509061213c9250611f67565b90565b9061271090600019828409928281029283808610950394808603951461212f5784831115611fef578291096001821901821680920460028082600302188083028203028083028203028083028203028083028203028083028203028092029003029360018380600003040190848311900302920304170290565b91600019828409928281029283808610950394808603951461212f5784831115611fef578291096001821901821680920460028082600302188083028203028083028203028083028203028083028203028083028203028092029003029360018380600003040190848311900302920304170290565b1561223657565b60405162461bcd60e51b815260206004820152600e60248201526d1a5b9d985b1a5908185b5bdd5b9d60921b6044820152606490fd5b604051906122798261131a565b600c82526b1cdd18589b19505b5bdd5b9d60a21b6020830152565b1561229b57565b60405162461bcd60e51b815260206004820152600d60248201526c696e76616c696420707269636560981b6044820152606490fd5b604051906122dd8261131a565b601082526f737461626c65546f74616c44656c746160801b6020830152565b604051906123098261131a565b6011825270657870656374537461626c6544656c746160781b6020830152565b604051906123368261131a565b600f82526e73776170537461626c6544656c746160881b6020830152565b604051906123618261131a565b60168252756164644c697175696469747920736c697044656c746160501b6020830152565b604051906123938261131a565b601482527318599d195c91995954dd18589b19505b5bdd5b9d60621b6020830152565b604051906123c38261131a565b600e82526d73776170496e64657844656c746160901b6020830152565b604051906123ed8261131a565b601382527218599d195c919959525b99195e105b5bdd5b9d606a1b6020830152565b919290936024959460008315801590612b84575b61242c9061222f565b600154604051632f7ce47360e21b8152600481018890529860e0918a919082906001600160a01b03165afa80156102cb57602497988291612b66575b506040810151612482906001600160a01b0316151561145a565b600254604051632500ed8d60e21b8152600481018990529860c0918a919082906001600160a01b03165afa978815610337578298612b46575b50612505846040516124cc8161131a565b601881527f6164644c697175696469747920696e646578416d6f756e7400000000000000006020820152876124ff61226c565b91614277565b306001600160a01b03871603612b14575b61252460c082015186612042565b906125ed6125e661253960c084015188612042565b936125a38560405161254a8161131a565b601b81527f6164644c697175696469747920696e646578466565416d6f756e740000000000602082015283604051916125828361131a565b600f83526e1cdd18589b19519959505b5bdd5b9d608a1b6020840152614277565b83516003546125c09183916001600160a01b039081169116612b8d565b60208401516003546125e09187916001600160a01b039081169116612b8d565b886115d6565b92866115d6565b8151909390612604906001600160a01b03166140e0565b996126108b1515612294565b8461261c8c8351611f87565b6126268d87611f87565b9c8d918560408196019161263b835182611646565b61283f575b5050505061265d6126ac936126588461266c94611646565b6115d6565b6126668d613295565b906120aa565b9b6040519061267a8261131a565b601e82527f6164644c697175696469747920696e6465784465706f73697444656c7461000060208301526124ff612386565b60408201516001600160a01b0316803b15610342576040516340c10f1960e01b81526001600160a01b0387166004820152602481018c90529082908290604490829084905af1801561033757612830575b506002546001600160a01b0316803b1561034257604051633431529d60e21b8152600481018b905260248101859052604481018690529082908290606490829084905af180156103375761281c575b505091816127b3827fae2a8a26a2b64d8d971277b87c24d1a12181aef23cf76b898a32ce8dd14c759197969561279a6127f29660018060a01b0383511660018060a01b036002541690612b8d565b602001516002546001600160a01b039081169116612b8d565b604051906127c08261131a565b602082527f6164644c6971756964697479206166746572466565496e646578416d6f756e7460208301526124ff612386565b6040805194855260208501929092529083018690526001600160a01b03908116931691606090a490565b61282682916112f0565b610140578061274c565b612839906112f0565b386126fd565b856128508661285793979697611646565b9351611646565b9161289b836040516128688161131a565b601c81527f6164644c697175696469747920696e646578546f74616c44656c7461000000006020820152836124ff6122d0565b6128a58382611646565b906128be6128b760a08c015184612042565b80936115d6565b97612902896040516128cf8161131a565b601d81527f6164644c697175696469747920657870656374496e64657844656c74610000006020820152856124ff6122fc565b6129108760808d0151612bc6565b999095848411156129fe57505050936129d16129b76129b06129a96126ac9b8a986129a461266c9c6126589a8f9a61294b9061265d9f6115d6565b9050808a11156129f357611905612962828c6115d6565b80925b604051906129728261131a565b601f82527f6164644c6971756964697479206e65656453776170496e64657844656c74610060208301526124ff6123b6565b612d9d565b96876120aa565b809d6115d6565b8b51600454919d916001600160a01b039081169116612b8d565b6129e68b6129dd612354565b866124ff6123e0565b9450829650879150612640565b6119058a8092612965565b93509350979594965050818111612a2a575b505050505061266c61265d6126ac936126588980956129e6565b6126ac965061266c94612ab561265d95612ab06126589e96612a52612ac297612abb976115d6565b9485891115612b0957612aaa612a68878b6115d6565b80975b60405190612a788261131a565b602082527f6164644c6971756964697479206e65656453776170537461626c6544656c746160208301526124ff612329565b85612d9d565b611f87565b906115d6565b80926115d6565b6020880151600454919a8b9690928792612aea9186916001600160a01b039182169116612b8d565b612aff82612af6612354565b866124ff612386565b9550829650612a10565b612aaa898097612a6b565b612b2985308860018060a01b03855116611d4a565b612b4184308860018060a01b03602086015116611d4a565b612516565b612b5f91985060c03d8111610e4557610e368183611352565b96386124bb565b612b7e915060e03d811161037e576103708183611352565b38612468565b50821515612423565b60405163a9059cbb60e01b60208201526001600160a01b0390921660248301526044820192909252611d9b91611d968260648101611d88565b91908015612c25578215612bf457612be9612be4612bf09285611f87565b612c5a565b8093611f67565b9190565b60405162461bcd60e51b8152602060048201526009602482015268496e76616c6964206b60b81b6044820152606490fd5b60405162461bcd60e51b815260206004820152600d60248201526c496e76616c696420707269636560981b6044820152606490fd5b8015612d9757612d25816000908360801c80612d8b575b508060401c80612d7e575b508060201c80612d71575b508060101c80612d64575b508060081c80612d57575b508060041c80612d4a575b508060021c80612d3d575b50600191828092811c612d36575b1c1b612ccd8185611f67565b01811c612cda8185611f67565b01811c612ce78185611f67565b01811c612cf48185611f67565b01811c612d018185611f67565b01811c612d0e8185611f67565b01811c612d1b8185611f67565b01901c8092611f67565b80821015612d31575090565b905090565b0181612cc1565b6002915091019038612cb3565b6004915091019038612ca8565b6008915091019038612c9d565b6010915091019038612c92565b6020915091019038612c87565b6040915091019038612c7c565b91505060809038612c71565b50600090565b90918115612e065782151580612dfd575b15612dc657612dc08261213c94611646565b916121b9565b60405162461bcd60e51b815260206004820152600f60248201526e496e76616c6964207265736572766560881b6044820152606490fd5b50801515612dae565b60405162461bcd60e51b815260206004820152600e60248201526d125b9d985b1a5908185b5bdd5b9d60921b6044820152606490fd5b6024949360009392612e4f82151561222f565b600154604051632f7ce47360e21b8152600481018690529760e09189919082906001600160a01b03165afa968715610385578597613275575b506040870151612ea2906001600160a01b0316151561145a565b60408781015190516370a0823160e01b81526001600160a01b038581166004830152909160209183916024918391165afa908115610640579083918791613240575b501061320457600254604051632500ed8d60e21b8152600481018690526001600160a01b0390911697909560c0876024818c5afa9687156102cb5781976131e4575b50612f318487613dfa565b999097612f4481516020830151906115d6565b891161319f578060606040612f5e930151910151906115d6565b8a1161315a57803b1561034257604051631a8c15b360e21b81526004810188905260248101899052604481018b90529082908290606490829084905af180156103375761314b575b5060408201519091906001600160a01b0316803b1561074a57604051632770a7eb60e21b81526001600160a01b0387166004820152602481018690529083908290604490829084905af18015610ea657908391613137575b505060025481516001600160a01b039081169116803b156111a257604051630d172a0160e01b8082526001600160a01b0393841660048301529286166024820152604481018a90529084908290606490829084905af1801561074e57908491613123575b50506002546020909201516001600160a01b03928316921690823b156111a2576040519081526001600160a01b0391821660048201529084166024820152604481018a90529082908290606490829084905af180156103375761310f575b50506040805186815260208101899052908101929092526001600160a01b039081169216907f6291bcce50c38c39d79a98ff5fad7f35319722e73285b50a6140dbfac75d511e90606090a49190565b61311982916112f0565b61014057806130c0565b61312c906112f0565b61074a578238613062565b613140906112f0565b610342578138612ffe565b613154906112f0565b38612fa6565b60405162461bcd60e51b815260206004820152601f60248201527f696e73756666696369656e7420737461626c65546f6b656e20616d6f756e74006044820152606490fd5b60405162461bcd60e51b815260206004820152601e60248201527f696e73756666696369656e7420696e646578546f6b656e20616d6f756e7400006044820152606490fd5b6131fd91975060c03d8111610e4557610e368183611352565b9538612f26565b60405162461bcd60e51b8152602060048201526014602482015273696e73756666696369656e742062616c616e636560601b6044820152606490fd5b9150506020813d60201161326d575b8161325c60209383611352565b8101031261067d5782905138612ee4565b3d915061324f565b61328e91975060e03d811161037e576103708183611352565b9538612e88565b90602460018060a01b0380600154169360e0604095865194858092632f7ce47360e21b82528560048301525afa9283156133d6576000936133e1575b5060c08260025416916024875180948193632500ed8d60e21b835260048301525afa80156133d657613326916000916133b8575b508561331d613316858751166140e0565b8351611f87565b91015190611646565b9182156133a35784015184516318160ddd60e01b81529160209183916004918391165afa9384156133995750600093613366575b509161213c91926120aa565b6020813d8211613391575b8161337e60209383611352565b810103126111a25751925061213c61335a565b3d9150613371565b513d6000823e3d90fd5b506c0c9f2c9cd04674edea4000000093505050565b6133d0915060c03d8111610e4557610e368183611352565b38613305565b85513d6000823e3d90fd5b6133fa91935060e03d811161037e576103708183611352565b91386132d1565b6040519061340e82611336565b60218252606160f81b6040837f6765744d696e744c70416d6f756e7420696e6465784465706f73697444656c7460208201520152565b604051906134518261131a565b601982527f6765744d696e744c70416d6f756e7420736c697044656c7461000000000000006020830152565b92909160009360009380158061399c575b61398b57600154604051632f7ce47360e21b8152600481018490529392919060e090859060249082906001600160a01b03165afa928315610d8e5760249460009461396b575b5060408401516134ee906001600160a01b0316151561145a565b600254604051632500ed8d60e21b8152600481018590529560c09187919082906001600160a01b03165afa948515610d8e57600095613945575b5090816135716135a19360405161353e8161131a565b601b81527f6765744d696e744c70416d6f756e7420696e646578416d6f756e7400000000006020820152846124ff61226c565b600060805261359960c0860161359361358b825186612042565b915184612042565b936115d6565b6080526115d6565b82519092906135b8906001600160a01b03166140e0565b6135c3811515612294565b6000916135d282608051611f87565b956135e4876135df613401565b6141d4565b60406135f1848351611f87565b9101906135ff825182611646565b613696575b50505050829161266661367961367f9361366f6136919760405161362781611336565b602381527f6765744d696e744c70416d6f756e74206166746572466565496e646578416d6f6020820152621d5b9d60ea1b6040820152613665612386565b9060805190614277565b6126588689611646565b91613295565b92613688613401565b906124ff612386565b929190565b996136ab876128508a869d979e989698611646565b936136ef856040516136bc8161131a565b601f81527f6765744d696e744c70416d6f756e7420696e646578546f74616c44656c7461006020820152856124ff6122d0565b6136f98584611646565b936137638d608061371861371160a08c01518a612042565b80996115d6565b9961375c8b6040516137298161131a565b602081527f6765744d696e744c70416d6f756e7420657870656374496e64657844656c746160208201528b6124ff6122fc565b0151612bc6565b979096868611156138475750505050506138026137fb61367f956136919897956129a48e8c61190561379b6126669a6136799a6115d6565b91828082111561383f576137ae916115d6565b80925b604051906137be82611336565b602282527f6765744d696e744c70416d6f756e74206e65656453776170496e64657844656c602083015261746160f01b60408301526124ff6123b6565b9a8b6120aa565b9860018060a01b039051169961381a8a6080516115d6565b608052613835613828613444565b60805190836124ff6123e0565b9383959650613604565b5080926137b1565b809298949e965081939d97955011613874575b505050505050613691929161266661367961367f93613835565b889c506138fd959b5061367f965092613691989492612aaa61389c612ab094612ab5976115d6565b96878082111561393d576138af916115d6565b80975b604051906138bf82611336565b602382527f6765744d696e744c70416d6f756e74206e65656453776170537461626c6544656020830152626c746160e81b60408301526124ff612329565b9161266661367961391d85809a602060018060a01b03910151169b6115d6565b946139338661392a613444565b836124ff612386565b938395963861385a565b5080976138b2565b6135a1929195506139639060c03d8111610e4557610e368183611352565b949091613528565b61398491945060e03d811161037e576103708183611352565b92386134d4565b505050915050600090600090600090565b50821561348e565b604051906139b182611336565b6027825266656e44656c746160c81b6040837f6765744465706f736974416d6f756e74206465706f736974496e646578546f6b60208201520152565b604051906139fa8261131a565b601782527f6465706f736974537461626c65546f6b656e44656c74610000000000000000006020830152565b60405190613a3382611336565b60238252621d5b9d60ea1b6040837f6765744465706f736974416d6f756e74206465706f736974496e646578416d6f60208201520152565b60405190613a788261131a565b601382527219195c1bdcda5d14dd18589b19505b5bdd5b9d606a1b6020830152565b8115613d6d579160249260018060a01b039283600154169160e0604093845197888092632f7ce47360e21b82528560048301525afa948515613d6257602496600096613d42575b50613af2818588015116151561145a565b60c08160025416855198898092632500ed8d60e21b82528660048301525afa908115613d3757613c8b959697600092613d0f575b50613b36613b60918951166140e0565b93613b42851515612294565b613b5a86613b51878651611f87565b94015194613295565b90611f87565b91613b9f838651613b708161131a565b601c81527f6765744d696e744c70416d6f756e74206465706f73697444656c74610000000060208201526141d4565b613bb283613bad8385611646565b611646565b90613c17613bce613bc760a08c015185612042565b80946115d6565b87606160f81b82995191613be183611336565b602183527f6765744465706f736974416d6f756e7420657870656374496e64657844656c746020840152820152846124ff6122fc565b600095869190848410613cc15750505090613c31916115d6565b818110613ca1575060c0613c5c613c7e93613c84935b61190587613c536139a4565b836124ff6139ed565b96613c7285613c69613a26565b8a6124ff613a6b565b0195613c7e87516115b0565b9061213f565b94516115b0565b91612bf083613c98613a26565b836124ff613a6b565b613c84919350613c5c613c7e93613cbb8360c094976115d6565b95613c47565b9196509150613cd092506115d6565b818110613cf2575060c0613c5c613c7e93613c84939561190587613c536139a4565b925060c0613c5c613c7e93613d0a86613c84956115d6565b613c47565b613b60919250613d2f613b369160c03d8111610e4557610e368183611352565b929150613b26565b84513d6000823e3d90fd5b613d5b91965060e03d811161037e576103708183611352565b9438613ae1565b83513d6000823e3d90fd5b5050600090600090565b60405190613d8482611336565b60288252676b656e44656c746160c01b6040837f6765745265636569766564416d6f756e742072656365697665496e646578546f60208201520152565b60405190613dce8261131a565b601782527f72656365697665537461626c65546f6b656e44656c74610000000000000000006020830152565b919080156140d75760015460408051632f7ce47360e21b8152600481018690529092916001600160a01b039060e0908390602490829085165afa918215613d375790602492916000926140b7575b50613e59818684015116151561145a565b60c08160025416865194858092632500ed8d60e21b82528b60048301525afa9283156133d65760009361408f575b50613e97613ebb918351166140e0565b93613ea3851515612294565b613b5a86613eb2878751611f87565b95015198613295565b91613efa838651613ecb8161131a565b601e81527f6765745265636569766564416d6f756e74207265636569766544656c7461000060208201526141d4565b613f196128b760a0613f10866126588c87611646565b94015184612042565b613f65818751613f2881611336565b602281527f6765745265636569766564416d6f756e7420657870656374496e64657844656c602082015261746160f01b89820152856124ff6122fc565b60009081988484116000146140475750505090613f81916115d6565b81811061402b5750613fa8612bf09286925b61190584613f9f613d77565b836124ff613dc1565b9283815191613fb683611336565b602983527f6765745265636569766564416d6f756e742072656365697665496e646578546f6020840152681ad95b905b5bdd5b9d60ba1b818401525191613ffc8361131a565b601883527f72656365697665537461626c65546f6b656e416d6f756e7400000000000000006020840152614277565b612bf092955061403f81613fa892936115d6565b958692613f93565b9091949350612bf095985061405c92506115d6565b8181106140775750613fa89095869261190584613f9f613d77565b915061408682613fa8926115d6565b91958692613f93565b613ebb9193506140af613e979160c03d8111610e4557610e368183611352565b939150613e87565b6140d091925060e03d811161037e576103708183611352565b9038613e48565b50600091508190565b604051631f94a27560e31b8152906020906001600160a01b039082846004817f000000000000000000000000000000000000000000000000000000000000000086165afa938415610d8e57600094614197575b506040516341976e0960e01b8152908216600482015292829184916024918391165afa908115610d8e5760009161416b575b50905090565b82813d8311614190575b61417f8183611352565b810103126101405750518038614165565b503d614175565b90938382813d83116141cd575b6141ae8183611352565b8101031261014057509060246141c48493611374565b94919250614133565b503d6141a4565b60009190829161421960405180926142056020830195632d839cb360e21b8752604060248501526064840190611f27565b90604483015203601f198101835282611352565b51906a636f6e736f6c652e6c6f675afa50565b60009291614219849360405192839161425e602084019663ca47c4eb60e01b8852606060248601526084850190611f27565b916044840152606483015203601f198101835282611352565b906142196000949385946142c46040519485936142ad602086019863c67ea9d160e01b8a526080602488015260a4870190611f27565b916044860152602319858303016064860152611f27565b90608483015203601f19810183528261135256fea264697066735822122006c07968bcad0aec7c27dafdca587f4acca3e512632b9bebea9ada6f739ba5a864736f6c63430008110033",
  "devdoc": {
    "kind": "dev",
    "methods": {},
    "version": 1
  },
  "userdoc": {
    "kind": "user",
    "methods": {},
    "version": 1
  },
  "storageLayout": {
    "storage": [
      {
        "astId": 18308,
        "contract": "contracts/pair/PairLiquidity.sol:PairLiquidity",
        "label": "isHandler",
        "offset": 0,
        "slot": "0",
        "type": "t_mapping(t_address,t_bool)"
      },
      {
        "astId": 20610,
        "contract": "contracts/pair/PairLiquidity.sol:PairLiquidity",
        "label": "pairInfo",
        "offset": 0,
        "slot": "1",
        "type": "t_contract(IPairInfo)24068"
      },
      {
        "astId": 20613,
        "contract": "contracts/pair/PairLiquidity.sol:PairLiquidity",
        "label": "pairVault",
        "offset": 0,
        "slot": "2",
        "type": "t_contract(IPairVault)24214"
      },
      {
        "astId": 20615,
        "contract": "contracts/pair/PairLiquidity.sol:PairLiquidity",
        "label": "feeReceiver",
        "offset": 0,
        "slot": "3",
        "type": "t_address"
      },
      {
        "astId": 20617,
        "contract": "contracts/pair/PairLiquidity.sol:PairLiquidity",
        "label": "slipReceiver",
        "offset": 0,
        "slot": "4",
        "type": "t_address"
      },
      {
        "astId": 20619,
        "contract": "contracts/pair/PairLiquidity.sol:PairLiquidity",
        "label": "weth",
        "offset": 0,
        "slot": "5",
        "type": "t_address"
      }
    ],
    "types": {
      "t_address": {
        "encoding": "inplace",
        "label": "address",
        "numberOfBytes": "20"
      },
      "t_bool": {
        "encoding": "inplace",
        "label": "bool",
        "numberOfBytes": "1"
      },
      "t_contract(IPairInfo)24068": {
        "encoding": "inplace",
        "label": "contract IPairInfo",
        "numberOfBytes": "20"
      },
      "t_contract(IPairVault)24214": {
        "encoding": "inplace",
        "label": "contract IPairVault",
        "numberOfBytes": "20"
      },
      "t_mapping(t_address,t_bool)": {
        "encoding": "mapping",
        "key": "t_address",
        "label": "mapping(address => bool)",
        "numberOfBytes": "32",
        "value": "t_bool"
      }
    }
  }
}