{
  "address": "0xD2605f821EDB524958dbc6202E692f21802369E1",
  "abi": [
    {
      "inputs": [
        {
          "internalType": "contract IAddressesProvider",
          "name": "addressProvider",
          "type": "address"
        },
        {
          "internalType": "contract IPoolTokenFactory",
          "name": "_poolTokenFactory",
          "type": "address"
        },
        {
          "internalType": "address",
          "name": "_feeReceiver0",
          "type": "address"
        },
        {
          "internalType": "address",
          "name": "_feeReceiver1",
          "type": "address"
        }
      ],
      "stateMutability": "nonpayable",
      "type": "constructor"
    },
    {
      "anonymous": false,
      "inputs": [
        {
          "indexed": true,
          "internalType": "address",
          "name": "funder",
          "type": "address"
        },
        {
          "indexed": true,
          "internalType": "address",
          "name": "account",
          "type": "address"
        },
        {
          "indexed": true,
          "internalType": "uint256",
          "name": "pairIndex",
          "type": "uint256"
        },
        {
          "indexed": false,
          "internalType": "uint256",
          "name": "indexAmount",
          "type": "uint256"
        },
        {
          "indexed": false,
          "internalType": "uint256",
          "name": "stableAmount",
          "type": "uint256"
        },
        {
          "indexed": false,
          "internalType": "uint256",
          "name": "lpAmount",
          "type": "uint256"
        },
        {
          "indexed": false,
          "internalType": "uint256",
          "name": "indexFeeAmount",
          "type": "uint256"
        },
        {
          "indexed": false,
          "internalType": "uint256",
          "name": "stableFeeAmount",
          "type": "uint256"
        },
        {
          "indexed": false,
          "internalType": "address",
          "name": "slipToken",
          "type": "address"
        },
        {
          "indexed": false,
          "internalType": "uint256",
          "name": "slipFeeAmount",
          "type": "uint256"
        }
      ],
      "name": "AddLiquidity",
      "type": "event"
    },
    {
      "anonymous": false,
      "inputs": [
        {
          "indexed": true,
          "internalType": "address",
          "name": "indexToken",
          "type": "address"
        },
        {
          "indexed": true,
          "internalType": "address",
          "name": "stableToken",
          "type": "address"
        },
        {
          "indexed": false,
          "internalType": "address",
          "name": "lpToken",
          "type": "address"
        },
        {
          "indexed": false,
          "internalType": "uint256",
          "name": "index",
          "type": "uint256"
        }
      ],
      "name": "PairAdded",
      "type": "event"
    },
    {
      "anonymous": false,
      "inputs": [
        {
          "indexed": true,
          "internalType": "address",
          "name": "account",
          "type": "address"
        },
        {
          "indexed": true,
          "internalType": "address",
          "name": "receiver",
          "type": "address"
        },
        {
          "indexed": true,
          "internalType": "uint256",
          "name": "pairIndex",
          "type": "uint256"
        },
        {
          "indexed": false,
          "internalType": "uint256",
          "name": "indexAmount",
          "type": "uint256"
        },
        {
          "indexed": false,
          "internalType": "uint256",
          "name": "stableAmount",
          "type": "uint256"
        },
        {
          "indexed": false,
          "internalType": "uint256",
          "name": "lpAmount",
          "type": "uint256"
        }
      ],
      "name": "RemoveLiquidity",
      "type": "event"
    },
    {
      "anonymous": false,
      "inputs": [
        {
          "indexed": true,
          "internalType": "address",
          "name": "funder",
          "type": "address"
        },
        {
          "indexed": true,
          "internalType": "address",
          "name": "receiver",
          "type": "address"
        },
        {
          "indexed": true,
          "internalType": "uint256",
          "name": "pairIndex",
          "type": "uint256"
        },
        {
          "indexed": false,
          "internalType": "bool",
          "name": "isBuy",
          "type": "bool"
        },
        {
          "indexed": false,
          "internalType": "uint256",
          "name": "amountIn",
          "type": "uint256"
        },
        {
          "indexed": false,
          "internalType": "uint256",
          "name": "amountOut",
          "type": "uint256"
        }
      ],
      "name": "Swap",
      "type": "event"
    },
    {
      "anonymous": false,
      "inputs": [
        {
          "indexed": true,
          "internalType": "uint256",
          "name": "pairIndex",
          "type": "uint256"
        },
        {
          "indexed": false,
          "internalType": "uint256",
          "name": "averagePrice",
          "type": "uint256"
        }
      ],
      "name": "UpdateAveragePrice",
      "type": "event"
    },
    {
      "anonymous": false,
      "inputs": [
        {
          "indexed": true,
          "internalType": "uint256",
          "name": "pairIndex",
          "type": "uint256"
        },
        {
          "indexed": false,
          "internalType": "int256",
          "name": "profit",
          "type": "int256"
        },
        {
          "indexed": false,
          "internalType": "int256",
          "name": "realisedPnl",
          "type": "int256"
        },
        {
          "indexed": false,
          "internalType": "uint256",
          "name": "stableTotalAmount",
          "type": "uint256"
        }
      ],
      "name": "UpdateProfit",
      "type": "event"
    },
    {
      "anonymous": false,
      "inputs": [
        {
          "indexed": true,
          "internalType": "uint256",
          "name": "pairIndex",
          "type": "uint256"
        },
        {
          "indexed": false,
          "internalType": "int256",
          "name": "indexAmount",
          "type": "int256"
        },
        {
          "indexed": false,
          "internalType": "int256",
          "name": "stableAmount",
          "type": "int256"
        },
        {
          "indexed": false,
          "internalType": "uint256",
          "name": "indexReservedAmount",
          "type": "uint256"
        },
        {
          "indexed": false,
          "internalType": "uint256",
          "name": "stableReservedAmount",
          "type": "uint256"
        }
      ],
      "name": "UpdateReserveAmount",
      "type": "event"
    },
    {
      "anonymous": false,
      "inputs": [
        {
          "indexed": true,
          "internalType": "uint256",
          "name": "pairIndex",
          "type": "uint256"
        },
        {
          "indexed": false,
          "internalType": "int256",
          "name": "indexAmount",
          "type": "int256"
        },
        {
          "indexed": false,
          "internalType": "int256",
          "name": "stableAmount",
          "type": "int256"
        },
        {
          "indexed": false,
          "internalType": "uint256",
          "name": "indexTotalAmount",
          "type": "uint256"
        },
        {
          "indexed": false,
          "internalType": "uint256",
          "name": "stableTotalAmount",
          "type": "uint256"
        }
      ],
      "name": "UpdateTotalAmount",
      "type": "event"
    },
    {
      "inputs": [],
      "name": "ADDRESS_PROVIDER",
      "outputs": [
        {
          "internalType": "contract IAddressesProvider",
          "name": "",
          "type": "address"
        }
      ],
      "stateMutability": "view",
      "type": "function"
    },
    {
      "inputs": [],
      "name": "FUNDING_RATE_PERCENTAGE",
      "outputs": [
        {
          "internalType": "uint256",
          "name": "",
          "type": "uint256"
        }
      ],
      "stateMutability": "view",
      "type": "function"
    },
    {
      "inputs": [],
      "name": "PERCENTAGE",
      "outputs": [
        {
          "internalType": "uint256",
          "name": "",
          "type": "uint256"
        }
      ],
      "stateMutability": "view",
      "type": "function"
    },
    {
      "inputs": [],
      "name": "PRICE_PRECISION",
      "outputs": [
        {
          "internalType": "uint256",
          "name": "",
          "type": "uint256"
        }
      ],
      "stateMutability": "view",
      "type": "function"
    },
    {
      "inputs": [
        {
          "internalType": "uint256",
          "name": "_pairIndex",
          "type": "uint256"
        },
        {
          "internalType": "uint256",
          "name": "_indexAmount",
          "type": "uint256"
        },
        {
          "internalType": "uint256",
          "name": "_stableAmount",
          "type": "uint256"
        },
        {
          "internalType": "bytes",
          "name": "data",
          "type": "bytes"
        }
      ],
      "name": "addLiquidity",
      "outputs": [
        {
          "internalType": "uint256",
          "name": "",
          "type": "uint256"
        }
      ],
      "stateMutability": "nonpayable",
      "type": "function"
    },
    {
      "inputs": [
        {
          "internalType": "address",
          "name": "_funder",
          "type": "address"
        },
        {
          "internalType": "address",
          "name": "_account",
          "type": "address"
        },
        {
          "internalType": "uint256",
          "name": "_pairIndex",
          "type": "uint256"
        },
        {
          "internalType": "uint256",
          "name": "_indexAmount",
          "type": "uint256"
        },
        {
          "internalType": "uint256",
          "name": "_stableAmount",
          "type": "uint256"
        },
        {
          "internalType": "bytes",
          "name": "data",
          "type": "bytes"
        }
      ],
      "name": "addLiquidityForAccount",
      "outputs": [
        {
          "internalType": "uint256",
          "name": "",
          "type": "uint256"
        }
      ],
      "stateMutability": "nonpayable",
      "type": "function"
    },
    {
      "inputs": [
        {
          "internalType": "address",
          "name": "_indexToken",
          "type": "address"
        },
        {
          "internalType": "address",
          "name": "_stableToken",
          "type": "address"
        }
      ],
      "name": "addPair",
      "outputs": [],
      "stateMutability": "nonpayable",
      "type": "function"
    },
    {
      "inputs": [
        {
          "internalType": "uint256",
          "name": "_pairIndex",
          "type": "uint256"
        },
        {
          "internalType": "uint256",
          "name": "_profit",
          "type": "uint256"
        }
      ],
      "name": "decreaseProfit",
      "outputs": [],
      "stateMutability": "nonpayable",
      "type": "function"
    },
    {
      "inputs": [
        {
          "internalType": "uint256",
          "name": "_pairIndex",
          "type": "uint256"
        },
        {
          "internalType": "uint256",
          "name": "_indexAmount",
          "type": "uint256"
        },
        {
          "internalType": "uint256",
          "name": "_stableAmount",
          "type": "uint256"
        }
      ],
      "name": "decreaseReserveAmount",
      "outputs": [],
      "stateMutability": "nonpayable",
      "type": "function"
    },
    {
      "inputs": [
        {
          "internalType": "uint256",
          "name": "_pairIndex",
          "type": "uint256"
        },
        {
          "internalType": "uint256",
          "name": "_indexAmount",
          "type": "uint256"
        },
        {
          "internalType": "uint256",
          "name": "_stableAmount",
          "type": "uint256"
        }
      ],
      "name": "decreaseTotalAmount",
      "outputs": [],
      "stateMutability": "nonpayable",
      "type": "function"
    },
    {
      "inputs": [],
      "name": "feeReceiver0",
      "outputs": [
        {
          "internalType": "address",
          "name": "",
          "type": "address"
        }
      ],
      "stateMutability": "view",
      "type": "function"
    },
    {
      "inputs": [],
      "name": "feeReceiver1",
      "outputs": [
        {
          "internalType": "address",
          "name": "",
          "type": "address"
        }
      ],
      "stateMutability": "view",
      "type": "function"
    },
    {
      "inputs": [
        {
          "internalType": "uint256",
          "name": "",
          "type": "uint256"
        }
      ],
      "name": "fundingFeeConfigs",
      "outputs": [
        {
          "internalType": "int256",
          "name": "minFundingRate",
          "type": "int256"
        },
        {
          "internalType": "int256",
          "name": "maxFundingRate",
          "type": "int256"
        },
        {
          "internalType": "int256",
          "name": "defaultFundingRate",
          "type": "int256"
        },
        {
          "internalType": "uint256",
          "name": "fundingWeightFactor",
          "type": "uint256"
        },
        {
          "internalType": "uint256",
          "name": "liquidityPremiumFactor",
          "type": "uint256"
        },
        {
          "internalType": "int256",
          "name": "interest",
          "type": "int256"
        },
        {
          "internalType": "uint256",
          "name": "lpDistributeP",
          "type": "uint256"
        }
      ],
      "stateMutability": "view",
      "type": "function"
    },
    {
      "inputs": [
        {
          "internalType": "uint256",
          "name": "_pairIndex",
          "type": "uint256"
        },
        {
          "internalType": "uint256",
          "name": "_lpAmount",
          "type": "uint256"
        }
      ],
      "name": "getDepositAmount",
      "outputs": [
        {
          "internalType": "uint256",
          "name": "depositIndexAmount",
          "type": "uint256"
        },
        {
          "internalType": "uint256",
          "name": "depositStableAmount",
          "type": "uint256"
        }
      ],
      "stateMutability": "view",
      "type": "function"
    },
    {
      "inputs": [
        {
          "internalType": "uint256",
          "name": "_pairIndex",
          "type": "uint256"
        }
      ],
      "name": "getFundingFeeConfig",
      "outputs": [
        {
          "components": [
            {
              "internalType": "int256",
              "name": "minFundingRate",
              "type": "int256"
            },
            {
              "internalType": "int256",
              "name": "maxFundingRate",
              "type": "int256"
            },
            {
              "internalType": "int256",
              "name": "defaultFundingRate",
              "type": "int256"
            },
            {
              "internalType": "uint256",
              "name": "fundingWeightFactor",
              "type": "uint256"
            },
            {
              "internalType": "uint256",
              "name": "liquidityPremiumFactor",
              "type": "uint256"
            },
            {
              "internalType": "int256",
              "name": "interest",
              "type": "int256"
            },
            {
              "internalType": "uint256",
              "name": "lpDistributeP",
              "type": "uint256"
            }
          ],
          "internalType": "struct IPool.FundingFeeConfig",
          "name": "",
          "type": "tuple"
        }
      ],
      "stateMutability": "view",
      "type": "function"
    },
    {
      "inputs": [
        {
          "internalType": "uint256",
          "name": "_pairIndex",
          "type": "uint256"
        },
        {
          "internalType": "uint256",
          "name": "_indexAmount",
          "type": "uint256"
        },
        {
          "internalType": "uint256",
          "name": "_stableAmount",
          "type": "uint256"
        }
      ],
      "name": "getMintLpAmount",
      "outputs": [
        {
          "internalType": "uint256",
          "name": "mintAmount",
          "type": "uint256"
        },
        {
          "internalType": "address",
          "name": "slipToken",
          "type": "address"
        },
        {
          "internalType": "uint256",
          "name": "slipAmount",
          "type": "uint256"
        }
      ],
      "stateMutability": "view",
      "type": "function"
    },
    {
      "inputs": [
        {
          "internalType": "uint256",
          "name": "_pairIndex",
          "type": "uint256"
        }
      ],
      "name": "getPair",
      "outputs": [
        {
          "components": [
            {
              "internalType": "uint256",
              "name": "pairIndex",
              "type": "uint256"
            },
            {
              "internalType": "address",
              "name": "indexToken",
              "type": "address"
            },
            {
              "internalType": "address",
              "name": "stableToken",
              "type": "address"
            },
            {
              "internalType": "address",
              "name": "pairToken",
              "type": "address"
            },
            {
              "internalType": "bool",
              "name": "enable",
              "type": "bool"
            },
            {
              "internalType": "uint256",
              "name": "kOfSwap",
              "type": "uint256"
            },
            {
              "internalType": "uint256",
              "name": "expectIndexTokenP",
              "type": "uint256"
            },
            {
              "internalType": "uint256",
              "name": "addLpFeeP",
              "type": "uint256"
            },
            {
              "internalType": "uint256",
              "name": "lpFeeDistributeP",
              "type": "uint256"
            }
          ],
          "internalType": "struct IPool.Pair",
          "name": "",
          "type": "tuple"
        }
      ],
      "stateMutability": "view",
      "type": "function"
    },
    {
      "inputs": [
        {
          "internalType": "uint256",
          "name": "_pairIndex",
          "type": "uint256"
        },
        {
          "internalType": "uint256",
          "name": "_lpAmount",
          "type": "uint256"
        }
      ],
      "name": "getReceivedAmount",
      "outputs": [
        {
          "internalType": "uint256",
          "name": "receiveIndexTokenAmount",
          "type": "uint256"
        },
        {
          "internalType": "uint256",
          "name": "receiveStableTokenAmount",
          "type": "uint256"
        }
      ],
      "stateMutability": "view",
      "type": "function"
    },
    {
      "inputs": [
        {
          "internalType": "uint256",
          "name": "_pairIndex",
          "type": "uint256"
        }
      ],
      "name": "getTradingConfig",
      "outputs": [
        {
          "components": [
            {
              "internalType": "uint256",
              "name": "minLeverage",
              "type": "uint256"
            },
            {
              "internalType": "uint256",
              "name": "maxLeverage",
              "type": "uint256"
            },
            {
              "internalType": "uint256",
              "name": "minTradeAmount",
              "type": "uint256"
            },
            {
              "internalType": "uint256",
              "name": "maxTradeAmount",
              "type": "uint256"
            },
            {
              "internalType": "uint256",
              "name": "maxPositionAmount",
              "type": "uint256"
            },
            {
              "internalType": "uint256",
              "name": "maintainMarginRate",
              "type": "uint256"
            },
            {
              "internalType": "uint256",
              "name": "priceSlipP",
              "type": "uint256"
            },
            {
              "internalType": "uint256",
              "name": "maxPriceDeviationP",
              "type": "uint256"
            }
          ],
          "internalType": "struct IPool.TradingConfig",
          "name": "",
          "type": "tuple"
        }
      ],
      "stateMutability": "view",
      "type": "function"
    },
    {
      "inputs": [
        {
          "internalType": "uint256",
          "name": "_pairIndex",
          "type": "uint256"
        }
      ],
      "name": "getTradingFeeConfig",
      "outputs": [
        {
          "components": [
            {
              "internalType": "uint256",
              "name": "takerFeeP",
              "type": "uint256"
            },
            {
              "internalType": "uint256",
              "name": "makerFeeP",
              "type": "uint256"
            },
            {
              "internalType": "uint256",
              "name": "lpFeeDistributeP",
              "type": "uint256"
            },
            {
              "internalType": "uint256",
              "name": "keeperFeeDistributeP",
              "type": "uint256"
            }
          ],
          "internalType": "struct IPool.TradingFeeConfig",
          "name": "",
          "type": "tuple"
        }
      ],
      "stateMutability": "view",
      "type": "function"
    },
    {
      "inputs": [
        {
          "internalType": "uint256",
          "name": "_pairIndex",
          "type": "uint256"
        }
      ],
      "name": "getVault",
      "outputs": [
        {
          "components": [
            {
              "internalType": "uint256",
              "name": "indexTotalAmount",
              "type": "uint256"
            },
            {
              "internalType": "uint256",
              "name": "indexReservedAmount",
              "type": "uint256"
            },
            {
              "internalType": "uint256",
              "name": "stableTotalAmount",
              "type": "uint256"
            },
            {
              "internalType": "uint256",
              "name": "stableReservedAmount",
              "type": "uint256"
            },
            {
              "internalType": "uint256",
              "name": "averagePrice",
              "type": "uint256"
            },
            {
              "internalType": "int256",
              "name": "realisedPnl",
              "type": "int256"
            }
          ],
          "internalType": "struct IPool.Vault",
          "name": "vault",
          "type": "tuple"
        }
      ],
      "stateMutability": "view",
      "type": "function"
    },
    {
      "inputs": [
        {
          "internalType": "uint256",
          "name": "_pairIndex",
          "type": "uint256"
        },
        {
          "internalType": "uint256",
          "name": "_profit",
          "type": "uint256"
        }
      ],
      "name": "increaseProfit",
      "outputs": [],
      "stateMutability": "nonpayable",
      "type": "function"
    },
    {
      "inputs": [
        {
          "internalType": "uint256",
          "name": "_pairIndex",
          "type": "uint256"
        },
        {
          "internalType": "uint256",
          "name": "_indexAmount",
          "type": "uint256"
        },
        {
          "internalType": "uint256",
          "name": "_stableAmount",
          "type": "uint256"
        }
      ],
      "name": "increaseReserveAmount",
      "outputs": [],
      "stateMutability": "nonpayable",
      "type": "function"
    },
    {
      "inputs": [
        {
          "internalType": "uint256",
          "name": "_pairIndex",
          "type": "uint256"
        },
        {
          "internalType": "uint256",
          "name": "_indexAmount",
          "type": "uint256"
        },
        {
          "internalType": "uint256",
          "name": "_stableAmount",
          "type": "uint256"
        }
      ],
      "name": "increaseTotalAmount",
      "outputs": [],
      "stateMutability": "nonpayable",
      "type": "function"
    },
    {
      "inputs": [
        {
          "internalType": "address",
          "name": "",
          "type": "address"
        }
      ],
      "name": "isHandler",
      "outputs": [
        {
          "internalType": "bool",
          "name": "",
          "type": "bool"
        }
      ],
      "stateMutability": "view",
      "type": "function"
    },
    {
      "inputs": [
        {
          "internalType": "address",
          "name": "",
          "type": "address"
        },
        {
          "internalType": "address",
          "name": "",
          "type": "address"
        }
      ],
      "name": "isPairListed",
      "outputs": [
        {
          "internalType": "bool",
          "name": "",
          "type": "bool"
        }
      ],
      "stateMutability": "view",
      "type": "function"
    },
    {
      "inputs": [
        {
          "internalType": "uint256",
          "name": "_pairIndex",
          "type": "uint256"
        },
        {
          "internalType": "bool",
          "name": "_isBuy",
          "type": "bool"
        },
        {
          "internalType": "uint256",
          "name": "_amountIn",
          "type": "uint256"
        },
        {
          "internalType": "uint256",
          "name": "_amountOut",
          "type": "uint256"
        }
      ],
      "name": "liqiitySwap",
      "outputs": [],
      "stateMutability": "nonpayable",
      "type": "function"
    },
    {
      "inputs": [
        {
          "internalType": "uint256",
          "name": "_pairIndex",
          "type": "uint256"
        }
      ],
      "name": "lpFairPrice",
      "outputs": [
        {
          "internalType": "uint256",
          "name": "",
          "type": "uint256"
        }
      ],
      "stateMutability": "view",
      "type": "function"
    },
    {
      "inputs": [
        {
          "internalType": "address",
          "name": "",
          "type": "address"
        },
        {
          "internalType": "address",
          "name": "",
          "type": "address"
        }
      ],
      "name": "pairIndexes",
      "outputs": [
        {
          "internalType": "uint256",
          "name": "",
          "type": "uint256"
        }
      ],
      "stateMutability": "view",
      "type": "function"
    },
    {
      "inputs": [
        {
          "internalType": "uint256",
          "name": "",
          "type": "uint256"
        }
      ],
      "name": "pairs",
      "outputs": [
        {
          "internalType": "uint256",
          "name": "pairIndex",
          "type": "uint256"
        },
        {
          "internalType": "address",
          "name": "indexToken",
          "type": "address"
        },
        {
          "internalType": "address",
          "name": "stableToken",
          "type": "address"
        },
        {
          "internalType": "address",
          "name": "pairToken",
          "type": "address"
        },
        {
          "internalType": "bool",
          "name": "enable",
          "type": "bool"
        },
        {
          "internalType": "uint256",
          "name": "kOfSwap",
          "type": "uint256"
        },
        {
          "internalType": "uint256",
          "name": "expectIndexTokenP",
          "type": "uint256"
        },
        {
          "internalType": "uint256",
          "name": "addLpFeeP",
          "type": "uint256"
        },
        {
          "internalType": "uint256",
          "name": "lpFeeDistributeP",
          "type": "uint256"
        }
      ],
      "stateMutability": "view",
      "type": "function"
    },
    {
      "inputs": [],
      "name": "pairsCount",
      "outputs": [
        {
          "internalType": "uint256",
          "name": "",
          "type": "uint256"
        }
      ],
      "stateMutability": "view",
      "type": "function"
    },
    {
      "inputs": [],
      "name": "poolTokenFactory",
      "outputs": [
        {
          "internalType": "contract IPoolTokenFactory",
          "name": "",
          "type": "address"
        }
      ],
      "stateMutability": "view",
      "type": "function"
    },
    {
      "inputs": [
        {
          "internalType": "address",
          "name": "_receiver",
          "type": "address"
        },
        {
          "internalType": "uint256",
          "name": "_pairIndex",
          "type": "uint256"
        },
        {
          "internalType": "uint256",
          "name": "_amount",
          "type": "uint256"
        },
        {
          "internalType": "bytes",
          "name": "data",
          "type": "bytes"
        }
      ],
      "name": "removeLiquidity",
      "outputs": [
        {
          "internalType": "uint256",
          "name": "receivedIndexAmount",
          "type": "uint256"
        },
        {
          "internalType": "uint256",
          "name": "receivedStableAmount",
          "type": "uint256"
        }
      ],
      "stateMutability": "nonpayable",
      "type": "function"
    },
    {
      "inputs": [
        {
          "internalType": "address",
          "name": "_feeReceiver0",
          "type": "address"
        },
        {
          "internalType": "address",
          "name": "_feeReceiver1",
          "type": "address"
        }
      ],
      "name": "setReceiver",
      "outputs": [],
      "stateMutability": "nonpayable",
      "type": "function"
    },
    {
      "inputs": [
        {
          "internalType": "address",
          "name": "_tradingVault",
          "type": "address"
        }
      ],
      "name": "setTradingVault",
      "outputs": [],
      "stateMutability": "nonpayable",
      "type": "function"
    },
    {
      "inputs": [
        {
          "internalType": "uint256",
          "name": "_pairIndex",
          "type": "uint256"
        },
        {
          "internalType": "bool",
          "name": "_isBuy",
          "type": "bool"
        },
        {
          "internalType": "uint256",
          "name": "_amountIn",
          "type": "uint256"
        },
        {
          "internalType": "uint256",
          "name": "_minOut",
          "type": "uint256"
        },
        {
          "internalType": "bytes",
          "name": "data",
          "type": "bytes"
        }
      ],
      "name": "swap",
      "outputs": [
        {
          "internalType": "uint256",
          "name": "amountIn",
          "type": "uint256"
        },
        {
          "internalType": "uint256",
          "name": "amountOut",
          "type": "uint256"
        }
      ],
      "stateMutability": "nonpayable",
      "type": "function"
    },
    {
      "inputs": [
        {
          "internalType": "address",
          "name": "_funder",
          "type": "address"
        },
        {
          "internalType": "address",
          "name": "_receiver",
          "type": "address"
        },
        {
          "internalType": "uint256",
          "name": "_pairIndex",
          "type": "uint256"
        },
        {
          "internalType": "bool",
          "name": "_isBuy",
          "type": "bool"
        },
        {
          "internalType": "uint256",
          "name": "_amountIn",
          "type": "uint256"
        },
        {
          "internalType": "uint256",
          "name": "_minOut",
          "type": "uint256"
        },
        {
          "internalType": "bytes",
          "name": "data",
          "type": "bytes"
        }
      ],
      "name": "swapForAccount",
      "outputs": [
        {
          "internalType": "uint256",
          "name": "amountIn",
          "type": "uint256"
        },
        {
          "internalType": "uint256",
          "name": "amountOut",
          "type": "uint256"
        }
      ],
      "stateMutability": "nonpayable",
      "type": "function"
    },
    {
      "inputs": [
        {
          "internalType": "uint256",
          "name": "",
          "type": "uint256"
        }
      ],
      "name": "tradingConfigs",
      "outputs": [
        {
          "internalType": "uint256",
          "name": "minLeverage",
          "type": "uint256"
        },
        {
          "internalType": "uint256",
          "name": "maxLeverage",
          "type": "uint256"
        },
        {
          "internalType": "uint256",
          "name": "minTradeAmount",
          "type": "uint256"
        },
        {
          "internalType": "uint256",
          "name": "maxTradeAmount",
          "type": "uint256"
        },
        {
          "internalType": "uint256",
          "name": "maxPositionAmount",
          "type": "uint256"
        },
        {
          "internalType": "uint256",
          "name": "maintainMarginRate",
          "type": "uint256"
        },
        {
          "internalType": "uint256",
          "name": "priceSlipP",
          "type": "uint256"
        },
        {
          "internalType": "uint256",
          "name": "maxPriceDeviationP",
          "type": "uint256"
        }
      ],
      "stateMutability": "view",
      "type": "function"
    },
    {
      "inputs": [
        {
          "internalType": "uint256",
          "name": "",
          "type": "uint256"
        }
      ],
      "name": "tradingFeeConfigs",
      "outputs": [
        {
          "internalType": "uint256",
          "name": "takerFeeP",
          "type": "uint256"
        },
        {
          "internalType": "uint256",
          "name": "makerFeeP",
          "type": "uint256"
        },
        {
          "internalType": "uint256",
          "name": "lpFeeDistributeP",
          "type": "uint256"
        },
        {
          "internalType": "uint256",
          "name": "keeperFeeDistributeP",
          "type": "uint256"
        }
      ],
      "stateMutability": "view",
      "type": "function"
    },
    {
      "inputs": [],
      "name": "tradingVault",
      "outputs": [
        {
          "internalType": "address",
          "name": "",
          "type": "address"
        }
      ],
      "stateMutability": "view",
      "type": "function"
    },
    {
      "inputs": [
        {
          "internalType": "uint256",
          "name": "_pairIndex",
          "type": "uint256"
        },
        {
          "internalType": "uint256",
          "name": "_averagePrice",
          "type": "uint256"
        }
      ],
      "name": "updateAveragePrice",
      "outputs": [],
      "stateMutability": "nonpayable",
      "type": "function"
    },
    {
      "inputs": [
        {
          "internalType": "uint256",
          "name": "_pairIndex",
          "type": "uint256"
        },
        {
          "components": [
            {
              "internalType": "int256",
              "name": "minFundingRate",
              "type": "int256"
            },
            {
              "internalType": "int256",
              "name": "maxFundingRate",
              "type": "int256"
            },
            {
              "internalType": "int256",
              "name": "defaultFundingRate",
              "type": "int256"
            },
            {
              "internalType": "uint256",
              "name": "fundingWeightFactor",
              "type": "uint256"
            },
            {
              "internalType": "uint256",
              "name": "liquidityPremiumFactor",
              "type": "uint256"
            },
            {
              "internalType": "int256",
              "name": "interest",
              "type": "int256"
            },
            {
              "internalType": "uint256",
              "name": "lpDistributeP",
              "type": "uint256"
            }
          ],
          "internalType": "struct IPool.FundingFeeConfig",
          "name": "_fundingFeeConfig",
          "type": "tuple"
        }
      ],
      "name": "updateFundingFeeConfig",
      "outputs": [],
      "stateMutability": "nonpayable",
      "type": "function"
    },
    {
      "inputs": [
        {
          "internalType": "uint256",
          "name": "_pairIndex",
          "type": "uint256"
        },
        {
          "components": [
            {
              "internalType": "uint256",
              "name": "pairIndex",
              "type": "uint256"
            },
            {
              "internalType": "address",
              "name": "indexToken",
              "type": "address"
            },
            {
              "internalType": "address",
              "name": "stableToken",
              "type": "address"
            },
            {
              "internalType": "address",
              "name": "pairToken",
              "type": "address"
            },
            {
              "internalType": "bool",
              "name": "enable",
              "type": "bool"
            },
            {
              "internalType": "uint256",
              "name": "kOfSwap",
              "type": "uint256"
            },
            {
              "internalType": "uint256",
              "name": "expectIndexTokenP",
              "type": "uint256"
            },
            {
              "internalType": "uint256",
              "name": "addLpFeeP",
              "type": "uint256"
            },
            {
              "internalType": "uint256",
              "name": "lpFeeDistributeP",
              "type": "uint256"
            }
          ],
          "internalType": "struct IPool.Pair",
          "name": "_pair",
          "type": "tuple"
        }
      ],
      "name": "updatePair",
      "outputs": [],
      "stateMutability": "nonpayable",
      "type": "function"
    },
    {
      "inputs": [
        {
          "internalType": "uint256",
          "name": "_pairIndex",
          "type": "uint256"
        },
        {
          "internalType": "address",
          "name": "_account",
          "type": "address"
        },
        {
          "internalType": "bool",
          "name": "_enable",
          "type": "bool"
        }
      ],
      "name": "updatePairMiner",
      "outputs": [],
      "stateMutability": "nonpayable",
      "type": "function"
    },
    {
      "inputs": [
        {
          "internalType": "uint256",
          "name": "_pairIndex",
          "type": "uint256"
        },
        {
          "components": [
            {
              "internalType": "uint256",
              "name": "minLeverage",
              "type": "uint256"
            },
            {
              "internalType": "uint256",
              "name": "maxLeverage",
              "type": "uint256"
            },
            {
              "internalType": "uint256",
              "name": "minTradeAmount",
              "type": "uint256"
            },
            {
              "internalType": "uint256",
              "name": "maxTradeAmount",
              "type": "uint256"
            },
            {
              "internalType": "uint256",
              "name": "maxPositionAmount",
              "type": "uint256"
            },
            {
              "internalType": "uint256",
              "name": "maintainMarginRate",
              "type": "uint256"
            },
            {
              "internalType": "uint256",
              "name": "priceSlipP",
              "type": "uint256"
            },
            {
              "internalType": "uint256",
              "name": "maxPriceDeviationP",
              "type": "uint256"
            }
          ],
          "internalType": "struct IPool.TradingConfig",
          "name": "_tradingConfig",
          "type": "tuple"
        }
      ],
      "name": "updateTradingConfig",
      "outputs": [],
      "stateMutability": "nonpayable",
      "type": "function"
    },
    {
      "inputs": [
        {
          "internalType": "uint256",
          "name": "_pairIndex",
          "type": "uint256"
        },
        {
          "components": [
            {
              "internalType": "uint256",
              "name": "takerFeeP",
              "type": "uint256"
            },
            {
              "internalType": "uint256",
              "name": "makerFeeP",
              "type": "uint256"
            },
            {
              "internalType": "uint256",
              "name": "lpFeeDistributeP",
              "type": "uint256"
            },
            {
              "internalType": "uint256",
              "name": "keeperFeeDistributeP",
              "type": "uint256"
            }
          ],
          "internalType": "struct IPool.TradingFeeConfig",
          "name": "_tradingFeeConfig",
          "type": "tuple"
        }
      ],
      "name": "updateTradingFeeConfig",
      "outputs": [],
      "stateMutability": "nonpayable",
      "type": "function"
    },
    {
      "inputs": [
        {
          "internalType": "uint256",
          "name": "",
          "type": "uint256"
        }
      ],
      "name": "vaults",
      "outputs": [
        {
          "internalType": "uint256",
          "name": "indexTotalAmount",
          "type": "uint256"
        },
        {
          "internalType": "uint256",
          "name": "indexReservedAmount",
          "type": "uint256"
        },
        {
          "internalType": "uint256",
          "name": "stableTotalAmount",
          "type": "uint256"
        },
        {
          "internalType": "uint256",
          "name": "stableReservedAmount",
          "type": "uint256"
        },
        {
          "internalType": "uint256",
          "name": "averagePrice",
          "type": "uint256"
        },
        {
          "internalType": "int256",
          "name": "realisedPnl",
          "type": "int256"
        }
      ],
      "stateMutability": "view",
      "type": "function"
    }
  ],
  "transactionHash": "0x15da428fa06bfd7311a0a49c93490eaf707362f1b1d96cfe0500974da45da252",
  "args": [
    "0xb07fB1a2F76574FD5243C1aA25Bb992cE9490B9C",
    "0x615a1bDF8Ab19456993b9B133F8417aBe931E882",
    "0xa6932e7D4262A9E7D9f6982Bf8849199ab631686",
    "0xa6932e7D4262A9E7D9f6982Bf8849199ab631686"
  ],
  "numDeployments": 1,
  "solcInputHash": "a0a35a8cc001b329f8e259ab1e7a3059",
  "bytecode": "0x60c0346200012857601f6200470738819003918201601f19168301916001600160401b038311848410176200012d57808492608094604052833981010312620001285780516001600160a01b0390818116810362000128576020830151828116810362000128576200008260606200007a6040870162000143565b950162000143565b913360005260006020526040600020600160ff1982541617905560805260a0528160018060a01b0319931683600a541617600a551690600b541617600b556040516145ae9081620001598239608051818181610268015281816107c801528181610b9801528181610e9a01528181610fc201528181611291015281816116860152818161177d0152818161205901526144a1015260a05181818161088c0152610e260152f35b600080fd5b634e487b7160e01b600052604160045260246000fd5b51906001600160a01b0382168203620001285756fe60406101c081526004908136101561001657600080fd5b60009160e08335811c90816302805454146121605781630da67fe7146120d35781630e72150f146120885781631848effa146120435781631c27b53e14611fe15781631f49703414611f7b578163293315f214611f5d5781632d23f44914611e5157816330a66e1514611d63578163346d5d7514611d49578163424b8d2314611ce8578163456914b2146119bf57816346ea87af146119815781634b57f96e146119595781634c3c0f581461191e57816354ab60f9146118635781635b4e215e1461173f57816360dc001a1461164b57816365ded096146113d25781636a3056cc146113a5578163714b008f146112545781637522bbc11461122a5781637734bd46146111e05781637c7c829d146111295781637f1b4a24146110dc5781638327f0e114610f8157816386dcb95e14610e5557816388e4048e14610e105781638c64ea4a14610db257816392771c3c14610d985781639403b63414610d3f57816395082d2514610d165781639b0f8cb814610b4a5781639c3d577014610af9578163b543013114610aa6578163b6f3e08714610784578163b81b2b7114610764578163b91ac788146106d6578163bdf391cc1461064d578163d0c54a741461061d578163d296326214610549578163d2b1e6ec1461051f578163d355a9b4146104a9578163d7a1c1ea1461042b57508063daf092571461040d578063f1bd27a8146103e05763ff4faf291461022a57600080fd5b346103dc576101403660031901126103dc576101203660231901126103dc5781516351331ad760e01b81526001600160a01b039290602090818185817f000000000000000000000000000000000000000000000000000000000000000089165afa9081156103a5578591839188916103af575b506024855180948193637be53ca160e01b8352338a840152165afa9081156103a557916102d86007926102f695948991610378575b506123a1565b84358752528420928060018501541615159081610368575b506124a1565b60e4359061031161271080841115908161035a575b506124e0565b60a4358015158091036103565760038401805460ff60a01b191660a09290921b60ff60a01b1691909117905560c4359083015560058201556101043560069091015580f35b8480fd5b90506101043511153861030b565b90506002840154161515386102f0565b6103989150833d851161039e575b6103908183612349565b810190612389565b386102d2565b503d610386565b83513d88823e3d90fd5b6103cf9150823d84116103d5575b6103c78183612349565b81019061236a565b3861029d565b503d6103bd565b8280fd5b50503461040957816003193601126104095760095490516001600160a01b039091168152602090f35b5080fd5b50503461040957816003193601126104095760209051620f42408152f35b8385849234610409573660031901126104a15761044661225c565b9061044f612272565b916064359182151583036104a45760c435906001600160401b0382116104a15750610495949561048191369101612219565b93909260a435926084359260443591612727565b82519182526020820152f35b80fd5b600080fd5b90503461051b57602036600319011261051b578261010094833581526001602052208054936001820154936002830154906003840154908401549160058501549360076006870154960154978151998a5260208a01528801526060870152608086015260a085015260c0840152820152f35b8380fd5b50505034610409578160031936011261040957600b5490516001600160a01b039091168152602090f35b828486346104a15760203660031901126104a15780829160c0835161056d8161232e565b82815282602082015282858201528260608201528260808201528260a08201520152833581526003602052208151916105a58361232e565b81549384845260018301549160208501928352600284015481860190815260038501549260608701938452850154936080870194855260c0600660058801549760a08a0198895201549701968752825197885251602088015251908601525160608501525160808401525160a08301525160c0820152f35b84346104a15761064a61062f366121ff565b9161064560018060a01b0360095416331461251a565b612575565b80f35b91939050346104a15760203660031901126104a1575061067061012093356123dd565b908251928251845260018060a01b039081602085015116602086015281818501511690850152606083015116606084015260808201511515608084015260a082015160a084015260c082015160c084015280820151908301526101008091015190820152f35b90503461051b57602036600319011261051b578261012094833581526007602052209081549360018060a01b0360ff8160018601541695826002870154169260038701549187015493600588015495600760068a01549901549981519b8c5260208c01528a01528116606089015260a01c161515608087015260a086015260c0850152830152610100820152f35b505050346104095781600319360112610409576020906006549051908152f35b505090346103dc57806003193601126103dc5761079f61225c565b916107a8612272565b82516351331ad760e01b81526001600160a01b03936020929091838186817f00000000000000000000000000000000000000000000000000000000000000008a165afa908115610a9c57908692918991610a7f575b508484518092637be53ca160e01b82523389830152816024968792165afa9081156109b9579161083788939284938c91610a6857506123a1565b16961694868614610a335785151580610a2a575b156109fa578588526005845282882087600052845260ff8360002054166109c357825193630b04656760e21b85528686860152878386015280856044818c867f0000000000000000000000000000000000000000000000000000000000000000165af19485156109b957899561099a575b508689526005815283892088600052815283600020600160ff19825416179055600760065491888b52878152858b208a6000528152828660002055828b5252838920908155600360018201916001600160601b0360a01b928984825416179055600281018a84825416179055019185169082541617905560065493600019851461098957505060018301600655516001600160a01b0391909116815260208101919091527feda679f3434de965730a28b8b694f2a348c09a2c1bb3e226633b6af24841adc190604090a380f35b634e487b7160e01b88526011905286fd5b816109b29296503d87116103d5576103c78183612349565b93386108bc565b84513d8b823e3d90fd5b5060649392601392519362461bcd60e51b8552840152820152721c185a5c88185b1c9958591e481b1a5cdd1959606a1b6044820152fd5b5060649392600c92519362461bcd60e51b85528401528201526b7a65726f206164647265737360a01b6044820152fd5b5086151561084b565b5060649392601192519362461bcd60e51b8552840152820152706964656e746963616c206164647265737360781b6044820152fd5b6103989150883d8a1161039e576103908183612349565b610a969150853d87116103d5576103c78183612349565b386107fd565b83513d8a823e3d90fd5b5050346103dc5760a03660031901126103dc57610ac1612288565b90608435936001600160401b0385116104a15750610ae6610495939436908301612219565b9290916064359160443591353033612727565b50505034610409578060031936011261040957602091610b1761225c565b82610b20612272565b9260018060a01b03809316815260058652209116600052825260ff81600020541690519015158152f35b9290503461051b57606036600319011261051b57610b66612272565b92604435908115158092036104a45782516351331ad760e01b815286956001600160a01b0392909160209190828189817f000000000000000000000000000000000000000000000000000000000000000089165afa908115610cef57859184918b91610cf9575b508851637be53ca160e01b8152338b8201529283916024918391165afa908115610cef578593899361010060078b8e610c11610c8c9883988391610a6857506123a1565b8835815282865220855193610c2585612312565b8154855289600183015416809686015289600283015416809786015260038201549860ff606087019a8c81168c5260a01c161515608087015282015460a0860152600582015460c0860152600682015490850152015491015215159081610ce557506124a1565b511690813b15610ce15786604492819587519889968795631e2c2eb160e21b8752169085015260248401525af1908115610cd85750610cc85750f35b610cd1906122e4565b6104a15780f35b513d84823e3d90fd5b8680fd5b90501515386102f0565b87513d8b823e3d90fd5b610d109150823d84116103d5576103c78183612349565b38610bcd565b50505034610409578160031936011261040957602090516c0c9f2c9cd04674edea400000008152f35b505091346104a15760203660031901126104a1575060a0610d6260c09335612688565b825192815184526020820151602085015280820151908401526060810151606084015260808101516080840152015160a0820152f35b8385346104a15750610495610dac36612246565b9061437d565b505090346103dc5760203660031901126103dc578060c09383358152600860205220805492600182015492600283015490600560038501549385015494015494815196875260208701528501526060840152608083015260a0820152f35b50505034610409578160031936011261040957517f00000000000000000000000000000000000000000000000000000000000000006001600160a01b03168152602090f35b5050346103dc57816003193601126103dc57610e6f61225c565b91610e78612272565b81516351331ad760e01b81526001600160a01b039391929160209190828282817f00000000000000000000000000000000000000000000000000000000000000008a165afa918215610f7757918392918794928a92610f55575b5060249086519586938492637be53ca160e01b84523390840152165afa928315610f4c575090610f0b92918792610f2f575b50506123a1565b816001600160601b0360a01b931683600a541617600a551690600b541617600b5580f35b610f459250803d1061039e576103908183612349565b3880610f04565b513d88823e3d90fd5b6024919250610f7090843d86116103d5576103c78183612349565b9190610ed2565b84513d8a823e3d90fd5b505090346103dc576101203660031901126103dc576101003660231901126103dc5780516351331ad760e01b8152602091906001600160a01b0390838186817f000000000000000000000000000000000000000000000000000000000000000086165afa9081156103a55790849187916110bf575b506024845180948193637be53ca160e01b8352338a840152165afa9081156110b5579061102991869161109e57506123a1565b600160c4359261104b612710808611159081611090575b8161035a57506124e0565b8435865252832091602435835560443560018401556064356002840155608435600384015560a43590830155600582015560e435600682015560076101043591015580f35b80915060e435111590611040565b6103989150843d861161039e576103908183612349565b82513d87823e3d90fd5b6110d69150823d84116103d5576103c78183612349565b38610ff6565b5050346103dc57816003193601126103dc57602092826110fa61225c565b91611103612272565b6001600160a01b0393841682529386522091166000908152908352819020549051908152f35b50505034610409577f56150ce04aef562b211a1147ad2dad770a18c937c2a5309f2a476929bbcb07976111da9161115f366121ff565b91949061117760018060a01b0360095416331461251a565b85875260086020528387206111b86111b26003600184019361119a8686546125f0565b80955501936111aa8786546125f0565b8095556125fd565b946125fd565b9451948594859094939260609260808301968352602083015260408201520152565b0390a280f35b5050346103dc5760203660031901126103dc576080928291358152600260205220908154916001810154916003600283015492015492815194855260208501528301526060820152f35b50505034610409578160031936011261040957600a5490516001600160a01b039091168152602090f35b90503461051b5761010036600319011261051b573660231901126103dc5781516351331ad760e01b8152602092906001600160a01b0390848185817f000000000000000000000000000000000000000000000000000000000000000086165afa9081156103a5579085918791611388575b506024845180948193637be53ca160e01b83523389840152165afa9081156110b557906112f891869161137157506123a1565b60036084359361131a612710808711159081611363575b8161135657506124e0565b8335865252832091602435835560443560018401556064356002840155600383015560a4359082015560c4356005820155600660e43591015580f35b905060e43511153861030b565b80915060a43511159061130f565b6103989150853d871161039e576103908183612349565b61139f9150823d84116103d5576103c78183612349565b386112c5565b84346104a15761064a6113b7366121ff565b916113cd60018060a01b0360095416331461251a565b61260e565b5050346103dc5760803660031901126103dc578035916113f0612288565b6044356064359361140c60018060a01b0360095416331461251a565b858752602092600884528488208551611424816122f7565b8154815260018201549186820192835260028101549384898401526005600383015492836060860152878101546080860152015460a084015260001461155957506114739250519051906125f0565b851161151657506080939291856008928160005283835284600020600281549101906114a0838354612552565b8092558651926000845285840152868301526060820152600080516020614559833981519152968791a285600052526111da81600020926114f360026114e78387546125f0565b958681550154916125fd565b925193849384606091949392608082019582526000602083015260408201520152565b835162461bcd60e51b8152908101839052601b60248201527f7377617020696e64657820746f6b656e206e6f7420656e6f75676800000000006044820152606490fd5b915050611565916125f0565b851161160857506080939291856008928160005283835284600020600261158d838354612552565b918281550154908651928352600085840152868301526060820152600080516020614559833981519152968791a285600052526111da81600020926115e5600285549501916115dd8184546125f0565b8093556125fd565b925193849384606091949392608082019560008352602083015260408201520152565b835162461bcd60e51b8152908101839052601c60248201527f7377617020737461626c6520746f6b656e206e6f7420656e6f756768000000006044820152606490fd5b5050346103dc5760208060031936011261051b5761166761225c565b83516351331ad760e01b81526001600160a01b039391929190828183817f000000000000000000000000000000000000000000000000000000000000000089165afa801561173557859284928992611713575b5060249088519485938492637be53ca160e01b84523390840152165afa918215611709576116f2939495508692610f2f5750506123a1565b166001600160601b0360a01b600954161760095580f35b85513d88823e3d90fd5b602491925061172e90843d86116103d5576103c78183612349565b91906116ba565b86513d89823e3d90fd5b505090346103dc5760a03660031901126103dc5760803660231901126103dc5780516351331ad760e01b81526020906001600160a01b0390828186817f000000000000000000000000000000000000000000000000000000000000000086165afa90811561185957908391879161183c575b506024855180948193637be53ca160e01b8352338a840152165afa90811561183257600292916117e791879161037857506123a1565b6024359361180161271080871115908161182557506124e0565b35855252822090815560443560018201556064356002820155600360843591015580f35b905060443511153861030b565b83513d87823e3d90fd5b6118539150823d84116103d5576103c78183612349565b386117b1565b84513d88823e3d90fd5b828585346104095761187436612246565b61188c60018060a09594951b0360095416331461251a565b8284526008602052818420600560028201916118a9848454612552565b80935501928354938385019487858712911290801582169115161761190b5784905551918252602082019290925260408101919091527fefd935e60c4eff76b8f62741f2003dd00361087e92324f8f701c349954a2b5fe9080606081016111da565b634e487b7160e01b875260118852602487fd5b505050346104095760609061193b611935366121ff565b91613fb6565b83519283526001600160a01b03909116602083015291810191909152f35b505091346104a15760203660031901126104a1575061197a60209235613edf565b9051908152f35b505050346104095760203660031901126104095760209160ff9082906001600160a01b036119ad61225c565b16815280855220541690519015158152f35b505082346104a15760803660031901126104a1576119db61225c565b9060243591604435916064356001600160401b03811161040957611a029036908701612219565b959094611a108515156133b4565b611a19816123dd565b93606085019560018060a01b0395611a358789511615156133f1565b611a3e84612688565b97611a49838661437d565b9a909b8a519a8d611a6060209d8e840151906125f0565b10611ca5578e810151606090910151611a78916125f0565b8c11611c6157611a898c8e8961260e565b89835116333b15611c5d579089918f611ac790519485938493638019bf8b60e01b85528d850152896024850152606060448501526064840191612706565b038183335af18015611c535790899291611c40575b505116803b15610ce15786809160248e5180948193630852cd8d60e31b8352888c8401525af18015611c3657938a95938d8d948a8c958e9b99611c08575b50509181611b478a868881968f98611b3f8d611b819f9e9c8f9e809d85015116612e95565b015116612e95565b8051948552898b86015284015216907f6291bcce50c38c39d79a98ff5fad7f35319722e73285b50a6140dbfac75d511e60603392a46123dd565b948983611b96575b8984868351928352820152f35b90950151895163a9059cbb60e01b815233928101928352602083019390935291948592169082908590829060400103925af1908115611bfd5750611be0575b808284828089611b89565b611bf690823d841161039e576103908183612349565b5084611bd5565b8651903d90823e3d90fd5b939799509450945050611c1d919597506122e4565b611c3257868895938a95938d8d948a38611b1a565b8580fd5b8c513d89823e3d90fd5b611c4c909891986122e4565b968d611adc565b8d513d8a823e3d90fd5b8980fd5b508c5162461bcd60e51b81528088018b9052601f60248201527f696e73756666696369656e7420737461626c65546f6b656e20616d6f756e74006044820152606490fd5b8e5162461bcd60e51b8152808a018d9052601e60248201527f696e73756666696369656e7420696e646578546f6b656e20616d6f756e7400006044820152606490fd5b505091346104a15760c03660031901126104a157611d0461225c565b92611d0d612272565b9160a435906001600160401b0382116104a1575091611d356020959261197a94369101612219565b929091608435916064359160443591613468565b8385346104a15750610495611d5d36612246565b90614225565b9190503461051b57602036600319011261051b57828461010095848351611d89816122c8565b82815282602082015282858201528260608201528260808201528260a08201528260c0820152015282358152600160205220835191611dc7836122c8565b8154948584526001830154916020850192835260028401549180860192835260038501549160608701928352850154926080870193845260058601549460a0880195865288600760068901549860c08b01998a52015498019788528251998a525160208a015251908801525160608701525160808601525160a08501525160c08401525190820152f35b8285853461040957611e6236612246565b9091611e7960018060a01b0360095416331461251a565b828452600860205280842060028101908154611e996003830154826125f0565b8511611f1a5790611eac856005936125f0565b80935501928354938185039487831281871281169187139015161761190b5791611efe6111da92867fefd935e60c4eff76b8f62741f2003dd00361087e92324f8f701c349954a2b5fe979695556125fd565b9251938493846040919493926060820195825260208201520152565b835162461bcd60e51b81526020818a0152601760248201527f737461626c6520746f6b656e206e6f7420656e6f7567680000000000000000006044820152606490fd5b50505034610409578160031936011261040957602090516127108152f35b939050346104a15760203660031901126104a1578290823581526003602052208054926001820154926002830154600384015491840154926006600586015495015495815197885260208801528601526060850152608084015260a083015260c0820152f35b505090346103dc5760207f63eff9ad83aa78e212443a2702156d22d36e10bc8a296255ad3728c445726b439161201636612246565b8092919561202f60018060a01b0360095416331461251a565b86885260088552828820015551908152a280f35b50505034610409578160031936011261040957517f00000000000000000000000000000000000000000000000000000000000000006001600160a01b03168152602090f35b505091346104a15760803660031901126104a157606435906001600160401b0382116104a157506020926120c261197a9236908301612219565b916044359060243590353333613468565b5050346103dc5760203660031901126103dc57828291608094606084516120f981612297565b828152826020820152828682015201523581526002602052209080519061211f82612297565b825492838352600181015460208401908152606060036002840154938587019485520154940193845282519485525160208501525190830152516060820152f35b50505034610409577f56150ce04aef562b211a1147ad2dad770a18c937c2a5309f2a476929bbcb07976111da612195366121ff565b929091946121ae60018060a01b0360095416331461251a565b8587526008602052808720600360018201916121cb868454612552565b80935501916121db868454612552565b80935551948594859094939260609260808301968352602083015260408201520152565b60609060031901126104a457600435906024359060443590565b9181601f840112156104a4578235916001600160401b0383116104a457602083818601950101116104a457565b60409060031901126104a4576004359060243590565b600435906001600160a01b03821682036104a457565b602435906001600160a01b03821682036104a457565b6024359081151582036104a457565b608081019081106001600160401b038211176122b257604052565b634e487b7160e01b600052604160045260246000fd5b61010081019081106001600160401b038211176122b257604052565b6001600160401b0381116122b257604052565b60c081019081106001600160401b038211176122b257604052565b61012081019081106001600160401b038211176122b257604052565b60e081019081106001600160401b038211176122b257604052565b90601f801991011681019081106001600160401b038211176122b257604052565b908160209103126104a457516001600160a01b03811681036104a45790565b908160209103126104a4575180151581036104a45790565b156123a857565b60405162461bcd60e51b815260206004820152600d60248201526c37b7363ca837b7b620b236b4b760991b6044820152606490fd5b60408051916123eb83612312565b60009081845281602085015281838501528160608501528160808501528160a08501528160c08501528160e0850152816101008095015281526007602052209060076040519261243a84612312565b8054845260018101546001600160a01b0390811660208601526002820154811660408601526003820154908116606086015260a090811c60ff1615156080860152600482015490850152600581015460c0850152600681015460e085015201549082015290565b156124a857565b60405162461bcd60e51b815260206004820152601060248201526f1c185a5c881b9bdd08195e1a5cdd195960821b6044820152606490fd5b156124e757565b60405162461bcd60e51b815260206004820152600b60248201526a657863656564203130302560a81b6044820152606490fd5b1561252157565b60405162461bcd60e51b81526020600482015260096024820152683337b93134b23232b760b91b6044820152606490fd5b9190820180921161255f57565b634e487b7160e01b600052601160045260246000fd5b91600080516020614559833981519152918360005260086020526125db604060002060026125a4848354612552565b9182815501906125b5858354612552565b809255604051948594859094939260609260808301968352602083015260408201520152565b0390a2565b9061271091820391821161255f57565b9190820391821161255f57565b600160ff1b811461255f5760000390565b9190600080516020614559833981519152918360005260086020526125db60406000209261266461265e60026126458488546125f0565b9687815501926126568685546125f0565b8094556125fd565b936125fd565b93604051948594859094939260609260808301968352602083015260408201520152565b60a06040918251612698816122f7565b60009281848093528260208201528286820152826060820152826080820152015281526008602052206005604051916126d0836122f7565b8054835260018101546020840152600281015460408401526003810154606084015260048101546080840152015460a082015290565b908060209392818452848401376000828201840152601f01601f1916010190565b93969795909194976000918815612e5757612741876123dd565b60608101519091906001600160a01b031615612e1e5761276088612688565b6020830151612777906001600160a01b0316614483565b9a6127838c835161310c565b60408301516127928183612552565b916127ab6127a460c0890151856131c7565b80946125f0565b928b15612c6e57505080821115612c32576127ea926127ce8f926127dc946125f0565b80821015612c2b575061322f565b9160208151910151906125f0565b8015612be65780821015612bdf57505b612805819b8261322f565b9b8110612ba45761282160018060a01b0360095416331461251a565b8885526008602052604085209460405161283a816122f7565b8654815260018701549060208101918252600288015497886040830152600560038201549182606085015260048101546080850152015460a08301528a600014612a9f575061289292939495969750519051906125f0565b8211612a5a5788815260086020526040812081815492612a46575091898d61296793600260809998979601906128c9838354612552565b8092556040519260008452602084015260408301526060820152600080516020614559833981519152978891a2896000526008602052896040600020966002612913848a546125f0565b9889815501549760009861294e612929866125fd565b9160405193849384606091949392608082019582526000602083015260408201520152565b0390a25b602084015187906001600160a01b0316612e95565b60208201516040909201516001600160a01b0390811693921691333b1561035657916129ca8594928d969460405197889586956345fc75ad60e01b875260048701526024860152866044860152606485015260a0608485015260a4840191612706565b038183335af1908115612a3a5750916060917f2424e4440d8e90b9be053a61916674e21e7603a28f7dccf3ff7b88b755c2e61993612a2b575b505b604080519415158552602085018a905284018890526001600160a01b03908116941692a4565b612a34906122e4565b38612a03565b604051903d90823e3d90fd5b634e487b7160e01b81526011600452602490fd5b60405162461bcd60e51b815260206004820152601b60248201527f7377617020696e64657820746f6b656e206e6f7420656e6f75676800000000006044820152606490fd5b915050612aac91966125f0565b8111612b5f5761296790896080818f818a52600860205260408a206002612ad4838354612552565b918281550154906040519283528b602084015260408301526060820152600080516020614559833981519152928391a28188526008602052604088209760028954919901612b238582546125f0565b809155612b57612b32866125fd565b9160405193849384606091949392608082019560008352602083015260408201520152565b0390a2612952565b60405162461bcd60e51b815260206004820152601c60248201527f7377617020737461626c6520746f6b656e206e6f7420656e6f756768000000006044820152606490fd5b60405162461bcd60e51b81526020600482015260136024820152721a5b9cdd59999a58da595b9d081b5a5b93dd5d606a1b6044820152606490fd5b90506127fa565b60405162461bcd60e51b815260206004820152601860248201527f6e6f20617661696c61626c6520696e64657820746f6b656e00000000000000006044820152606490fd5b905061322f565b60405162461bcd60e51b81526020600482015260146024820152733737903732b2b21039ba30b13632903a37b5b2b760611b6044820152606490fd5b93925093949e50508282979596971115612de357612cb492612c938e612c999361310c565b926125f0565b80821015612ddb5750915b60606040820151910151906125f0565b8015612da45780821015612d9c5750925b612cd0849a8561322f565b60208401516040850151919c6001600160a01b03928316939290911691333b156103565791612d368594928f969460405197889586956345fc75ad60e01b875260048701526024860152604485015285606485015260a0608485015260a4840191612706565b038183335af1908115612a3a575092847f2424e4440d8e90b9be053a61916674e21e7603a28f7dccf3ff7b88b755c2e6199593612d8893606096612d8d575b50604001516001600160a01b0316612e95565b612a05565b612d96906122e4565b38612d75565b905092612cc5565b60405162461bcd60e51b815260206004820152600f60248201526e37379039ba30b13632903a37b5b2b760891b6044820152606490fd5b905091612ca4565b60405162461bcd60e51b81526020600482015260136024820152723737903732b2b21034b73232bc103a37b5b2b760691b6044820152606490fd5b60405162461bcd60e51b815260206004820152601160248201527039bbb0b81034b73b30b634b2103830b4b960791b6044820152606490fd5b60405162461bcd60e51b815260206004820152601660248201527539bbb0b81034b73b30b634b21030b6b7bab73a1034b760511b6044820152606490fd5b6040805163a9059cbb60e01b60208083019182526001600160a01b0395909516602483015260448083019690965294815294939091601f199190612eda606488612349565b83516001600160401b03979093916001600160a01b031690848601898111868210176122b25786528685527f5361666545524332303a206c6f772d6c6576656c2063616c6c206661696c656487860152600080948192519082855af1913d15613009573d988911612ff557869798612f5f8798612f6d985193601f8401160183612349565b81528093883d92013e613018565b805190838215928315612fdd575b50505015612f87575050565b60849250519062461bcd60e51b82526004820152602a60248201527f5361666545524332303a204552433230206f7065726174696f6e20646964206e6044820152691bdd081cdd58d8d9595960b21b6064820152fd5b612fed9350820181019101612389565b388381612f7b565b634e487b7160e01b84526041600452602484fd5b509150612f6d93949596506060915b9192901561307a575081511561302c575090565b3b156130355790565b60405162461bcd60e51b815260206004820152601d60248201527f416464726573733a2063616c6c20746f206e6f6e2d636f6e74726163740000006044820152606490fd5b82519091501561308d5750805190602001fd5b6040519062461bcd60e51b82528160208060048301528251908160248401526000935b8285106130d3575050604492506000838284010152601f80199101168101030190fd5b84810182015186860160440152938101938593506130b0565b81156130f6570490565b634e487b7160e01b600052601260045260246000fd5b90600019818309818302918280831092039180830392146131b1576c0c9f2c9cd04674edea400000009082821115613174577f7d33c22789773a07feda8b6f0930e26fa397c439f1d5cf4b2eb27d7306d2dc99940990828211900360e21b9103601e1c170290565b60405162461bcd60e51b81526020600482015260156024820152744d6174683a206d756c446976206f766572666c6f7760581b6044820152606490fd5b50506c0c9f2c9cd04674edea4000000091500490565b9060001981830981830291828083109203918083039214613224576127109082821115613174577fbc01a36e2eb1c432ca57a786c226809d495182a9930be0ded288ce703afb7e91940990828211900360fc1b910360041c170290565b505061271091500490565b906c0c9f2c9cd04674edea400000009060001982840992828102928380861095039480860395146132b45784831115613174578291096001821901821680920460028082600302188083028203028083028203028083028203028083028203028083028203028092029003029360018380600003040190848311900302920304170290565b5050906132c192506130ec565b90565b906127109060001982840992828102928380861095039480860395146132b45784831115613174578291096001821901821680920460028082600302188083028203028083028203028083028203028083028203028083028203028092029003029360018380600003040190848311900302920304170290565b9160001982840992828102928380861095039480860395146132b45784831115613174578291096001821901821680920460028082600302188083028203028083028203028083028203028083028203028083028203028092029003029360018380600003040190848311900302920304170290565b156133bb57565b60405162461bcd60e51b815260206004820152600e60248201526d1a5b9d985b1a5908185b5bdd5b9d60921b6044820152606490fd5b156133f857565b60405162461bcd60e51b815260206004820152600c60248201526b34b73b30b634b2103830b4b960a11b6044820152606490fd5b1561343357565b60405162461bcd60e51b815260206004820152600d60248201526c696e76616c696420707269636560981b6044820152606490fd5b959394929561016052610180526101a0528360e052600093159081158092613c8e575b613494906133b4565b6134bc6134a36101a0516123dd565b60c0819052606001516001600160a01b031615156133f1565b6134c86101a051612688565b9260c0518360018060a01b0360208301511691604060018060a01b03910151169388938996613c28575b88613bb7575b333b15611c5d57613536918a9160405193849283926307b3f34760e21b845260e05160048501528d6024850152606060448501526064840191612706565b038183335af18015613bac57613b99575b50613aea575b50508380613a3d575b50505082610140528260a05260e060c05101613580613578825160e0516131c7565b9151846131c7565b60c0516020810151600a54610100928301519394936135b7926001600160a01b039081169216906135b190866131c7565b91612e95565b60c0516020810151600b54918301516135eb926001600160a01b039283169216906135b1906135e5906125e0565b866131c7565b60c0516040810151600a5491830151613616926001600160a01b039283169216906135b190876131c7565b60c0516040810151600b549183015161364a926001600160a01b039283169216906135b190613644906125e0565b876131c7565b6136568260e0516125f0565b6101405261366483866125f0565b60a05260c0516020015161368e90613684906001600160a01b0316614483565b808352151561342c565b61369a8151855161310c565b906136a981516101405161310c565b610120528691876080526040889601906136c4825182612552565b6137ff575b5050506136e76136f9916136e260a05161012051612552565b6125f0565b6136f36101a051613edf565b9061322f565b60c051606001519095906001600160a01b0316803b15610409576040516340c10f1960e01b8152610180516001600160a01b03166004820152602481018890529082908290604490829084905af180156137f4576137e0575b505061376760a051610140516101a051612575565b6040519360e051855260208501528460408501526060840152608083015260018060a01b036080511660a083015260c08201526101a0519060018060a01b036101805116907fc826382e93639d859a4edb6417a74d592d691ac2a0e04706872fddb582dae91360e060018060a01b03610160511692a490565b6137ea82916122e4565b6104a15780613752565b6040513d84823e3d90fd5b6138156138209161012098939594985190612552565b9360a0519051612552565b9261382b8482612552565b9161383e6127a460c080510151856131c7565b93613850895160a060c0510151613c97565b9590968585116000146139455750505050926138a16136e7936138796138a7946136f9976125f0565b61012051908082111561393e5761388f916125f0565b925b61389c8a518561322f565b613e6e565b906125f0565b60c051602001516001600160a01b03166080528551613937906138ca908361322f565b966138d888610140516125f0565b6101405260c0516020810151600a5491830151613907926001600160a01b039283169216906135b1908c6131c7565b60c0516135b161393160018060a01b036020840151169360018060a01b03600b54169301516125e0565b8a6131c7565b91386136c9565b5092613891565b809297955081939a96945011613967575b50505050506136e76136f991613937565b6136e79498506136f99550916139a76139876138a1936139ac96956125f0565b60a0519080821115613a365761399c916125f0565b935b8a519285613e6e565b61310c565b60018060a01b03604060c051015116608052613a2d81966139cf8360a0516125f0565b60a05260c0516040810151600a54918301516139fd926001600160a01b039283169216906135b190876131c7565b60c0516135b1613a2760018060a01b036040840151169360018060a01b03600b54169301516125e0565b856131c7565b91388080613956565b509361399e565b613a4b602091602494612552565b91604051938480926370a0823160e01b82523060048301525afa918215613adf578592613aab575b5011613a8157388083613556565b60405162461bcd60e51b8152602060048201526002602482015261747360f01b6044820152606490fd5b9091506020813d602011613ad7575b81613ac760209383612349565b810103126104a457519038613a73565b3d9150613aba565b6040513d87823e3d90fd5b6020613afb60249360e05190612552565b91604051938480926370a0823160e01b82523060048301525afa918215613b8e578792613b5a575b5011613b3057388061354d565b60405162461bcd60e51b8152602060048201526002602482015261746960f01b6044820152606490fd5b9091506020813d602011613b86575b81613b7660209383612349565b810103126104a457519038613b23565b3d9150613b69565b6040513d89823e3d90fd5b613ba5909891986122e4565b9638613547565b6040513d8b823e3d90fd5b6040516370a0823160e01b8152306004820152909650602081602481895afa908115613c1d578a91613beb575b50956134f8565b90506020813d602011613c15575b81613c0660209383612349565b81010312611c5d575138613be4565b3d9150613bf9565b6040513d8c823e3d90fd5b6040516370a0823160e01b8152306004820152909450602081602481875afa908115613c1d578a91613c5c575b50936134f2565b90506020813d602011613c86575b81613c7760209383612349565b81010312611c5d575138613c55565b3d9150613c6a565b5083151561348b565b91908015613cf6578215613cc557613cba613cb5613cc1928561310c565b613d2b565b80936130ec565b9190565b60405162461bcd60e51b8152602060048201526009602482015268496e76616c6964206b60b81b6044820152606490fd5b60405162461bcd60e51b815260206004820152600d60248201526c496e76616c696420707269636560981b6044820152606490fd5b8015613e6857613df6816000908360801c80613e5c575b508060401c80613e4f575b508060201c80613e42575b508060101c80613e35575b508060081c80613e28575b508060041c80613e1b575b508060021c80613e0e575b50600191828092811c613e07575b1c1b613d9e81856130ec565b01811c613dab81856130ec565b01811c613db881856130ec565b01811c613dc581856130ec565b01811c613dd281856130ec565b01811c613ddf81856130ec565b01811c613dec81856130ec565b01901c80926130ec565b80821015613e02575090565b905090565b0181613d92565b6002915091019038613d84565b6004915091019038613d79565b6008915091019038613d6e565b6010915091019038613d63565b6020915091019038613d58565b6040915091019038613d4d565b91505060809038613d42565b50600090565b90918115613ed75782151580613ece575b15613e9757613e91826132c194612552565b9161333e565b60405162461bcd60e51b815260206004820152600f60248201526e496e76616c6964207265736572766560881b6044820152606490fd5b50801515613e7f565b505050600090565b90613ef2613eec836123dd565b92612688565b91613f2260018060a01b03936040613f19613f1287602087015116614483565b835161310c565b91015190612552565b908115613fa257606001516040516318160ddd60e01b81529360209185916004918391165afa928315613f9657600093613f63575b50916132c1919261322f565b6020813d8211613f8e575b81613f7b60209383612349565b8101031261051b575192506132c1613f57565b3d9150613f6e565b6040513d6000823e3d90fd5b506c0c9f2c9cd04674edea40000000925050565b6000938493909284919080158061421d575b61421057613fd5846123dd565b9160018060a01b03613fee8160608601511615156133f1565b61401e613ffa87612688565b9361401860e08701612c936140108251856131c7565b9151876131c7565b936125f0565b936020810161402f83825116614483565b9161403b83151561342c565b87614046848761310c565b96604061405486835161310c565b910190614062825182612552565b61408f575b505050505050505061408a93926136e26136f39361408493612552565b91613edf565b929190565b89979e919294976140aa979e978a6140b1939d96989d612552565b9351612552565b956140bc8784612552565b936140d56140ce60c0890151876131c7565b80966125f0565b966140e48d60a0830151613c97565b98909987871160001461416b57505050505050946141496141426136e2966138a16136f39b976140849b9761408a9f9e9b61415498614122916125f0565b9050808911156141635761413690896125f0565b925b61389c8c8561322f565b968761322f565b9b8c9151169c6125f0565b505b9383969782963880614067565b508792614138565b939a50939550989e97949f509a9492508181116141a0575b505050505050505061408a93926136e26136f39361408493614156565b899e506136e296979d5061408a9b9a50936139a76141ed946136f39b6140849b98956141d26138a1966141fc9a6125f0565b905080821115614209576141e5916125f0565b945b85613e6e565b80946040829c0151169b6125f0565b9483969782953880614183565b50946141e7565b5050925050915080918190565b508115613fc8565b919091821561437457614237816123dd565b9260018060a01b036142508160608701511615156133f1565b61429661426b61425f85612688565b92602088015116614483565b9261427784151561342c565b614290604061428786865161310c565b94015195613edf565b9061310c565b906142aa826142a58684612552565b612552565b6142c26142bb60c0890151836131c7565b80926125f0565b600095869184841061433957505050906142db916125f0565b81811061431f575060e0916142ef9161322f565b93019283519061271091820382811161255f5761430b916132c4565b9351810390811161255f576132c1916132c4565b6142ef919350916143338360e094956125f0565b9361322f565b919650915061434892506125f0565b81811061435d575060e0916142ef919361322f565b925060e09161436f846142ef936125f0565b61322f565b50600091508190565b919080156143745761438e836123dd565b60608101516001600160a01b0391906143aa90831615156133f1565b6143ea6143c56143b987612688565b93602084015116614483565b936143d185151561342c565b61429060406143e187875161310c565b95015197613edf565b9161441161440a60c0614401866136e28b87612552565b940151846131c7565b80936125f0565b6000908197848411600014614451575050509061442d916125f0565b81811061443f575090613cc19161322f565b613cc1929194508061433391956125f0565b919750915061446092506125f0565b818110614473575090613cc1919361322f565b93509061436f84613cc1936125f0565b604051631f94a27560e31b815260206001600160a01b0381836004817f000000000000000000000000000000000000000000000000000000000000000085165afa928315613f9657600093614536575b5060248293948260405196879485936341976e0960e01b8552166004840152165afa908115613f965760009161450a575b50905090565b82813d831161452f575b61451e8183612349565b810103126104a15750518038614504565b503d614514565b829350614551602491843d86116103d5576103c78183612349565b93506144d356fe20f7411220a575a66d53613925a30fcd2faeb040572d77208808a70a0de8f0b7a2646970667358221220b81e2eeeced08ae0d262310f2ce12b66b28783b63e4167be53433330f58cf58864736f6c63430008110033",
  "devdoc": {
    "kind": "dev",
    "methods": {},
    "version": 1
  },
  "userdoc": {
    "kind": "user",
    "methods": {},
    "version": 1
  },
  "storageLayout": {
    "storage": [
      {
        "astId": 9127,
        "contract": "contracts/pool/Pool.sol:Pool",
        "label": "isHandler",
        "offset": 0,
        "slot": "0",
        "type": "t_mapping(t_address,t_bool)"
      },
      {
        "astId": 9586,
        "contract": "contracts/pool/Pool.sol:Pool",
        "label": "tradingConfigs",
        "offset": 0,
        "slot": "1",
        "type": "t_mapping(t_uint256,t_struct(TradingConfig)7789_storage)"
      },
      {
        "astId": 9591,
        "contract": "contracts/pool/Pool.sol:Pool",
        "label": "tradingFeeConfigs",
        "offset": 0,
        "slot": "2",
        "type": "t_mapping(t_uint256,t_struct(TradingFeeConfig)7798_storage)"
      },
      {
        "astId": 9596,
        "contract": "contracts/pool/Pool.sol:Pool",
        "label": "fundingFeeConfigs",
        "offset": 0,
        "slot": "3",
        "type": "t_mapping(t_uint256,t_struct(FundingFeeConfig)7813_storage)"
      },
      {
        "astId": 9602,
        "contract": "contracts/pool/Pool.sol:Pool",
        "label": "pairIndexes",
        "offset": 0,
        "slot": "4",
        "type": "t_mapping(t_address,t_mapping(t_address,t_uint256))"
      },
      {
        "astId": 9608,
        "contract": "contracts/pool/Pool.sol:Pool",
        "label": "isPairListed",
        "offset": 0,
        "slot": "5",
        "type": "t_mapping(t_address,t_mapping(t_address,t_bool))"
      },
      {
        "astId": 9610,
        "contract": "contracts/pool/Pool.sol:Pool",
        "label": "pairsCount",
        "offset": 0,
        "slot": "6",
        "type": "t_uint256"
      },
      {
        "astId": 9615,
        "contract": "contracts/pool/Pool.sol:Pool",
        "label": "pairs",
        "offset": 0,
        "slot": "7",
        "type": "t_mapping(t_uint256,t_struct(Pair)7772_storage)"
      },
      {
        "astId": 9620,
        "contract": "contracts/pool/Pool.sol:Pool",
        "label": "vaults",
        "offset": 0,
        "slot": "8",
        "type": "t_mapping(t_uint256,t_struct(Vault)7858_storage)"
      },
      {
        "astId": 9622,
        "contract": "contracts/pool/Pool.sol:Pool",
        "label": "tradingVault",
        "offset": 0,
        "slot": "9",
        "type": "t_address"
      },
      {
        "astId": 9624,
        "contract": "contracts/pool/Pool.sol:Pool",
        "label": "feeReceiver0",
        "offset": 0,
        "slot": "10",
        "type": "t_address"
      },
      {
        "astId": 9626,
        "contract": "contracts/pool/Pool.sol:Pool",
        "label": "feeReceiver1",
        "offset": 0,
        "slot": "11",
        "type": "t_address"
      }
    ],
    "types": {
      "t_address": {
        "encoding": "inplace",
        "label": "address",
        "numberOfBytes": "20"
      },
      "t_bool": {
        "encoding": "inplace",
        "label": "bool",
        "numberOfBytes": "1"
      },
      "t_int256": {
        "encoding": "inplace",
        "label": "int256",
        "numberOfBytes": "32"
      },
      "t_mapping(t_address,t_bool)": {
        "encoding": "mapping",
        "key": "t_address",
        "label": "mapping(address => bool)",
        "numberOfBytes": "32",
        "value": "t_bool"
      },
      "t_mapping(t_address,t_mapping(t_address,t_bool))": {
        "encoding": "mapping",
        "key": "t_address",
        "label": "mapping(address => mapping(address => bool))",
        "numberOfBytes": "32",
        "value": "t_mapping(t_address,t_bool)"
      },
      "t_mapping(t_address,t_mapping(t_address,t_uint256))": {
        "encoding": "mapping",
        "key": "t_address",
        "label": "mapping(address => mapping(address => uint256))",
        "numberOfBytes": "32",
        "value": "t_mapping(t_address,t_uint256)"
      },
      "t_mapping(t_address,t_uint256)": {
        "encoding": "mapping",
        "key": "t_address",
        "label": "mapping(address => uint256)",
        "numberOfBytes": "32",
        "value": "t_uint256"
      },
      "t_mapping(t_uint256,t_struct(FundingFeeConfig)7813_storage)": {
        "encoding": "mapping",
        "key": "t_uint256",
        "label": "mapping(uint256 => struct IPool.FundingFeeConfig)",
        "numberOfBytes": "32",
        "value": "t_struct(FundingFeeConfig)7813_storage"
      },
      "t_mapping(t_uint256,t_struct(Pair)7772_storage)": {
        "encoding": "mapping",
        "key": "t_uint256",
        "label": "mapping(uint256 => struct IPool.Pair)",
        "numberOfBytes": "32",
        "value": "t_struct(Pair)7772_storage"
      },
      "t_mapping(t_uint256,t_struct(TradingConfig)7789_storage)": {
        "encoding": "mapping",
        "key": "t_uint256",
        "label": "mapping(uint256 => struct IPool.TradingConfig)",
        "numberOfBytes": "32",
        "value": "t_struct(TradingConfig)7789_storage"
      },
      "t_mapping(t_uint256,t_struct(TradingFeeConfig)7798_storage)": {
        "encoding": "mapping",
        "key": "t_uint256",
        "label": "mapping(uint256 => struct IPool.TradingFeeConfig)",
        "numberOfBytes": "32",
        "value": "t_struct(TradingFeeConfig)7798_storage"
      },
      "t_mapping(t_uint256,t_struct(Vault)7858_storage)": {
        "encoding": "mapping",
        "key": "t_uint256",
        "label": "mapping(uint256 => struct IPool.Vault)",
        "numberOfBytes": "32",
        "value": "t_struct(Vault)7858_storage"
      },
      "t_struct(FundingFeeConfig)7813_storage": {
        "encoding": "inplace",
        "label": "struct IPool.FundingFeeConfig",
        "members": [
          {
            "astId": 7800,
            "contract": "contracts/pool/Pool.sol:Pool",
            "label": "minFundingRate",
            "offset": 0,
            "slot": "0",
            "type": "t_int256"
          },
          {
            "astId": 7802,
            "contract": "contracts/pool/Pool.sol:Pool",
            "label": "maxFundingRate",
            "offset": 0,
            "slot": "1",
            "type": "t_int256"
          },
          {
            "astId": 7804,
            "contract": "contracts/pool/Pool.sol:Pool",
            "label": "defaultFundingRate",
            "offset": 0,
            "slot": "2",
            "type": "t_int256"
          },
          {
            "astId": 7806,
            "contract": "contracts/pool/Pool.sol:Pool",
            "label": "fundingWeightFactor",
            "offset": 0,
            "slot": "3",
            "type": "t_uint256"
          },
          {
            "astId": 7808,
            "contract": "contracts/pool/Pool.sol:Pool",
            "label": "liquidityPremiumFactor",
            "offset": 0,
            "slot": "4",
            "type": "t_uint256"
          },
          {
            "astId": 7810,
            "contract": "contracts/pool/Pool.sol:Pool",
            "label": "interest",
            "offset": 0,
            "slot": "5",
            "type": "t_int256"
          },
          {
            "astId": 7812,
            "contract": "contracts/pool/Pool.sol:Pool",
            "label": "lpDistributeP",
            "offset": 0,
            "slot": "6",
            "type": "t_uint256"
          }
        ],
        "numberOfBytes": "224"
      },
      "t_struct(Pair)7772_storage": {
        "encoding": "inplace",
        "label": "struct IPool.Pair",
        "members": [
          {
            "astId": 7755,
            "contract": "contracts/pool/Pool.sol:Pool",
            "label": "pairIndex",
            "offset": 0,
            "slot": "0",
            "type": "t_uint256"
          },
          {
            "astId": 7757,
            "contract": "contracts/pool/Pool.sol:Pool",
            "label": "indexToken",
            "offset": 0,
            "slot": "1",
            "type": "t_address"
          },
          {
            "astId": 7759,
            "contract": "contracts/pool/Pool.sol:Pool",
            "label": "stableToken",
            "offset": 0,
            "slot": "2",
            "type": "t_address"
          },
          {
            "astId": 7761,
            "contract": "contracts/pool/Pool.sol:Pool",
            "label": "pairToken",
            "offset": 0,
            "slot": "3",
            "type": "t_address"
          },
          {
            "astId": 7763,
            "contract": "contracts/pool/Pool.sol:Pool",
            "label": "enable",
            "offset": 20,
            "slot": "3",
            "type": "t_bool"
          },
          {
            "astId": 7765,
            "contract": "contracts/pool/Pool.sol:Pool",
            "label": "kOfSwap",
            "offset": 0,
            "slot": "4",
            "type": "t_uint256"
          },
          {
            "astId": 7767,
            "contract": "contracts/pool/Pool.sol:Pool",
            "label": "expectIndexTokenP",
            "offset": 0,
            "slot": "5",
            "type": "t_uint256"
          },
          {
            "astId": 7769,
            "contract": "contracts/pool/Pool.sol:Pool",
            "label": "addLpFeeP",
            "offset": 0,
            "slot": "6",
            "type": "t_uint256"
          },
          {
            "astId": 7771,
            "contract": "contracts/pool/Pool.sol:Pool",
            "label": "lpFeeDistributeP",
            "offset": 0,
            "slot": "7",
            "type": "t_uint256"
          }
        ],
        "numberOfBytes": "256"
      },
      "t_struct(TradingConfig)7789_storage": {
        "encoding": "inplace",
        "label": "struct IPool.TradingConfig",
        "members": [
          {
            "astId": 7774,
            "contract": "contracts/pool/Pool.sol:Pool",
            "label": "minLeverage",
            "offset": 0,
            "slot": "0",
            "type": "t_uint256"
          },
          {
            "astId": 7776,
            "contract": "contracts/pool/Pool.sol:Pool",
            "label": "maxLeverage",
            "offset": 0,
            "slot": "1",
            "type": "t_uint256"
          },
          {
            "astId": 7778,
            "contract": "contracts/pool/Pool.sol:Pool",
            "label": "minTradeAmount",
            "offset": 0,
            "slot": "2",
            "type": "t_uint256"
          },
          {
            "astId": 7780,
            "contract": "contracts/pool/Pool.sol:Pool",
            "label": "maxTradeAmount",
            "offset": 0,
            "slot": "3",
            "type": "t_uint256"
          },
          {
            "astId": 7782,
            "contract": "contracts/pool/Pool.sol:Pool",
            "label": "maxPositionAmount",
            "offset": 0,
            "slot": "4",
            "type": "t_uint256"
          },
          {
            "astId": 7784,
            "contract": "contracts/pool/Pool.sol:Pool",
            "label": "maintainMarginRate",
            "offset": 0,
            "slot": "5",
            "type": "t_uint256"
          },
          {
            "astId": 7786,
            "contract": "contracts/pool/Pool.sol:Pool",
            "label": "priceSlipP",
            "offset": 0,
            "slot": "6",
            "type": "t_uint256"
          },
          {
            "astId": 7788,
            "contract": "contracts/pool/Pool.sol:Pool",
            "label": "maxPriceDeviationP",
            "offset": 0,
            "slot": "7",
            "type": "t_uint256"
          }
        ],
        "numberOfBytes": "256"
      },
      "t_struct(TradingFeeConfig)7798_storage": {
        "encoding": "inplace",
        "label": "struct IPool.TradingFeeConfig",
        "members": [
          {
            "astId": 7791,
            "contract": "contracts/pool/Pool.sol:Pool",
            "label": "takerFeeP",
            "offset": 0,
            "slot": "0",
            "type": "t_uint256"
          },
          {
            "astId": 7793,
            "contract": "contracts/pool/Pool.sol:Pool",
            "label": "makerFeeP",
            "offset": 0,
            "slot": "1",
            "type": "t_uint256"
          },
          {
            "astId": 7795,
            "contract": "contracts/pool/Pool.sol:Pool",
            "label": "lpFeeDistributeP",
            "offset": 0,
            "slot": "2",
            "type": "t_uint256"
          },
          {
            "astId": 7797,
            "contract": "contracts/pool/Pool.sol:Pool",
            "label": "keeperFeeDistributeP",
            "offset": 0,
            "slot": "3",
            "type": "t_uint256"
          }
        ],
        "numberOfBytes": "128"
      },
      "t_struct(Vault)7858_storage": {
        "encoding": "inplace",
        "label": "struct IPool.Vault",
        "members": [
          {
            "astId": 7847,
            "contract": "contracts/pool/Pool.sol:Pool",
            "label": "indexTotalAmount",
            "offset": 0,
            "slot": "0",
            "type": "t_uint256"
          },
          {
            "astId": 7849,
            "contract": "contracts/pool/Pool.sol:Pool",
            "label": "indexReservedAmount",
            "offset": 0,
            "slot": "1",
            "type": "t_uint256"
          },
          {
            "astId": 7851,
            "contract": "contracts/pool/Pool.sol:Pool",
            "label": "stableTotalAmount",
            "offset": 0,
            "slot": "2",
            "type": "t_uint256"
          },
          {
            "astId": 7853,
            "contract": "contracts/pool/Pool.sol:Pool",
            "label": "stableReservedAmount",
            "offset": 0,
            "slot": "3",
            "type": "t_uint256"
          },
          {
            "astId": 7855,
            "contract": "contracts/pool/Pool.sol:Pool",
            "label": "averagePrice",
            "offset": 0,
            "slot": "4",
            "type": "t_uint256"
          },
          {
            "astId": 7857,
            "contract": "contracts/pool/Pool.sol:Pool",
            "label": "realisedPnl",
            "offset": 0,
            "slot": "5",
            "type": "t_int256"
          }
        ],
        "numberOfBytes": "192"
      },
      "t_uint256": {
        "encoding": "inplace",
        "label": "uint256",
        "numberOfBytes": "32"
      }
    }
  }
}