{
  "address": "0x68dceA198f713F30Ae88CAd713298A9006D09A63",
  "abi": [
    {
      "inputs": [
        {
          "internalType": "contract IAddressesProvider",
          "name": "addressProvider",
          "type": "address"
        },
        {
          "internalType": "contract IPool",
          "name": "_pairInfo",
          "type": "address"
        },
        {
          "internalType": "uint256",
          "name": "_fundingInterval",
          "type": "uint256"
        }
      ],
      "stateMutability": "nonpayable",
      "type": "constructor"
    },
    {
      "anonymous": false,
      "inputs": [
        {
          "indexed": false,
          "internalType": "bytes32",
          "name": "positionKey",
          "type": "bytes32"
        },
        {
          "indexed": false,
          "internalType": "address",
          "name": "account",
          "type": "address"
        },
        {
          "indexed": false,
          "internalType": "uint256",
          "name": "pairIndex",
          "type": "uint256"
        },
        {
          "indexed": false,
          "internalType": "bool",
          "name": "isLong",
          "type": "bool"
        }
      ],
      "name": "ClosePosition",
      "type": "event"
    },
    {
      "anonymous": false,
      "inputs": [
        {
          "indexed": false,
          "internalType": "bytes32",
          "name": "positionKey",
          "type": "bytes32"
        },
        {
          "indexed": false,
          "internalType": "address",
          "name": "account",
          "type": "address"
        },
        {
          "indexed": false,
          "internalType": "uint256",
          "name": "pairIndex",
          "type": "uint256"
        },
        {
          "indexed": false,
          "internalType": "bool",
          "name": "isLong",
          "type": "bool"
        },
        {
          "indexed": false,
          "internalType": "int256",
          "name": "collateral",
          "type": "int256"
        },
        {
          "indexed": false,
          "internalType": "uint256",
          "name": "sizeAmount",
          "type": "uint256"
        },
        {
          "indexed": false,
          "internalType": "uint256",
          "name": "price",
          "type": "uint256"
        },
        {
          "indexed": false,
          "internalType": "uint256",
          "name": "tradingFee",
          "type": "uint256"
        },
        {
          "indexed": false,
          "internalType": "int256",
          "name": "fundingFee",
          "type": "int256"
        },
        {
          "indexed": false,
          "internalType": "int256",
          "name": "realisedPnl",
          "type": "int256"
        },
        {
          "indexed": false,
          "internalType": "uint256",
          "name": "transferOut",
          "type": "uint256"
        }
      ],
      "name": "DecreasePosition",
      "type": "event"
    },
    {
      "anonymous": false,
      "inputs": [
        {
          "indexed": false,
          "internalType": "bytes32",
          "name": "positionKey",
          "type": "bytes32"
        },
        {
          "indexed": false,
          "internalType": "address",
          "name": "account",
          "type": "address"
        },
        {
          "indexed": false,
          "internalType": "uint256",
          "name": "pairIndex",
          "type": "uint256"
        },
        {
          "indexed": false,
          "internalType": "int256",
          "name": "collateral",
          "type": "int256"
        },
        {
          "indexed": false,
          "internalType": "bool",
          "name": "isLong",
          "type": "bool"
        },
        {
          "indexed": false,
          "internalType": "uint256",
          "name": "sizeAmount",
          "type": "uint256"
        },
        {
          "indexed": false,
          "internalType": "uint256",
          "name": "price",
          "type": "uint256"
        },
        {
          "indexed": false,
          "internalType": "uint256",
          "name": "tradingFee",
          "type": "uint256"
        },
        {
          "indexed": false,
          "internalType": "int256",
          "name": "fundingFee",
          "type": "int256"
        },
        {
          "indexed": false,
          "internalType": "uint256",
          "name": "transferOut",
          "type": "uint256"
        }
      ],
      "name": "IncreasePosition",
      "type": "event"
    },
    {
      "anonymous": false,
      "inputs": [
        {
          "indexed": false,
          "internalType": "uint256",
          "name": "pairIndex",
          "type": "uint256"
        },
        {
          "indexed": false,
          "internalType": "uint256",
          "name": "profit",
          "type": "uint256"
        },
        {
          "indexed": false,
          "internalType": "uint256",
          "name": "lastFundingTime",
          "type": "uint256"
        }
      ],
      "name": "NeedBuyIndexToken",
      "type": "event"
    },
    {
      "anonymous": false,
      "inputs": [
        {
          "indexed": false,
          "internalType": "address",
          "name": "account",
          "type": "address"
        }
      ],
      "name": "Paused",
      "type": "event"
    },
    {
      "anonymous": false,
      "inputs": [
        {
          "indexed": false,
          "internalType": "address",
          "name": "account",
          "type": "address"
        }
      ],
      "name": "Unpaused",
      "type": "event"
    },
    {
      "anonymous": false,
      "inputs": [
        {
          "indexed": false,
          "internalType": "uint256",
          "name": "oldInterval",
          "type": "uint256"
        },
        {
          "indexed": false,
          "internalType": "uint256",
          "name": "newInterval",
          "type": "uint256"
        }
      ],
      "name": "UpdateFundingInterval",
      "type": "event"
    },
    {
      "anonymous": false,
      "inputs": [
        {
          "indexed": false,
          "internalType": "uint256",
          "name": "pairIndex",
          "type": "uint256"
        },
        {
          "indexed": false,
          "internalType": "int256",
          "name": "fundingRate",
          "type": "int256"
        },
        {
          "indexed": false,
          "internalType": "uint256",
          "name": "lastFundingTime",
          "type": "uint256"
        }
      ],
      "name": "UpdateFundingRate",
      "type": "event"
    },
    {
      "anonymous": false,
      "inputs": [
        {
          "indexed": false,
          "internalType": "bytes32",
          "name": "positionKey",
          "type": "bytes32"
        },
        {
          "indexed": false,
          "internalType": "address",
          "name": "account",
          "type": "address"
        },
        {
          "indexed": false,
          "internalType": "uint256",
          "name": "pairIndex",
          "type": "uint256"
        },
        {
          "indexed": false,
          "internalType": "bool",
          "name": "isLong",
          "type": "bool"
        },
        {
          "indexed": false,
          "internalType": "uint256",
          "name": "collateral",
          "type": "uint256"
        },
        {
          "indexed": false,
          "internalType": "uint256",
          "name": "positionAmount",
          "type": "uint256"
        },
        {
          "indexed": false,
          "internalType": "uint256",
          "name": "averagePrice",
          "type": "uint256"
        },
        {
          "indexed": false,
          "internalType": "int256",
          "name": "entryFundingRate",
          "type": "int256"
        },
        {
          "indexed": false,
          "internalType": "uint256",
          "name": "entryFundingTime",
          "type": "uint256"
        },
        {
          "indexed": false,
          "internalType": "int256",
          "name": "realisedPnl",
          "type": "int256"
        },
        {
          "indexed": false,
          "internalType": "uint256",
          "name": "price",
          "type": "uint256"
        }
      ],
      "name": "UpdatePosition",
      "type": "event"
    },
    {
      "inputs": [],
      "name": "ADDRESS_PROVIDER",
      "outputs": [
        {
          "internalType": "contract IAddressesProvider",
          "name": "",
          "type": "address"
        }
      ],
      "stateMutability": "view",
      "type": "function"
    },
    {
      "inputs": [],
      "name": "addressExecutor",
      "outputs": [
        {
          "internalType": "address",
          "name": "",
          "type": "address"
        }
      ],
      "stateMutability": "view",
      "type": "function"
    },
    {
      "inputs": [],
      "name": "addressOrderManager",
      "outputs": [
        {
          "internalType": "address",
          "name": "",
          "type": "address"
        }
      ],
      "stateMutability": "view",
      "type": "function"
    },
    {
      "inputs": [
        {
          "internalType": "address",
          "name": "claimToken",
          "type": "address"
        },
        {
          "internalType": "address",
          "name": "keeper",
          "type": "address"
        }
      ],
      "name": "claimKeeperTradingFee",
      "outputs": [
        {
          "internalType": "uint256",
          "name": "",
          "type": "uint256"
        }
      ],
      "stateMutability": "nonpayable",
      "type": "function"
    },
    {
      "inputs": [
        {
          "internalType": "address",
          "name": "claimToken",
          "type": "address"
        }
      ],
      "name": "claimStakingTradingFee",
      "outputs": [
        {
          "internalType": "uint256",
          "name": "",
          "type": "uint256"
        }
      ],
      "stateMutability": "nonpayable",
      "type": "function"
    },
    {
      "inputs": [
        {
          "internalType": "uint256",
          "name": "",
          "type": "uint256"
        }
      ],
      "name": "cumulativeFundingRates",
      "outputs": [
        {
          "internalType": "int256",
          "name": "",
          "type": "int256"
        }
      ],
      "stateMutability": "view",
      "type": "function"
    },
    {
      "inputs": [
        {
          "internalType": "address",
          "name": "_keeper",
          "type": "address"
        },
        {
          "internalType": "address",
          "name": "_account",
          "type": "address"
        },
        {
          "internalType": "uint256",
          "name": "_pairIndex",
          "type": "uint256"
        },
        {
          "internalType": "int256",
          "name": "_collateral",
          "type": "int256"
        },
        {
          "internalType": "uint256",
          "name": "_sizeAmount",
          "type": "uint256"
        },
        {
          "internalType": "bool",
          "name": "_isLong",
          "type": "bool"
        },
        {
          "internalType": "uint256",
          "name": "_price",
          "type": "uint256"
        }
      ],
      "name": "decreasePosition",
      "outputs": [
        {
          "internalType": "uint256",
          "name": "tradingFee",
          "type": "uint256"
        },
        {
          "internalType": "int256",
          "name": "fundingFee",
          "type": "int256"
        },
        {
          "internalType": "int256",
          "name": "pnl",
          "type": "int256"
        }
      ],
      "stateMutability": "nonpayable",
      "type": "function"
    },
    {
      "inputs": [],
      "name": "fundingInterval",
      "outputs": [
        {
          "internalType": "uint256",
          "name": "",
          "type": "uint256"
        }
      ],
      "stateMutability": "view",
      "type": "function"
    },
    {
      "inputs": [
        {
          "internalType": "uint256",
          "name": "_pairIndex",
          "type": "uint256"
        }
      ],
      "name": "getCurrentFundingRate",
      "outputs": [
        {
          "internalType": "int256",
          "name": "",
          "type": "int256"
        }
      ],
      "stateMutability": "view",
      "type": "function"
    },
    {
      "inputs": [
        {
          "internalType": "bool",
          "name": "_increase",
          "type": "bool"
        },
        {
          "internalType": "address",
          "name": "_account",
          "type": "address"
        },
        {
          "internalType": "uint256",
          "name": "_pairIndex",
          "type": "uint256"
        },
        {
          "internalType": "bool",
          "name": "_isLong",
          "type": "bool"
        },
        {
          "internalType": "uint256",
          "name": "_sizeAmount",
          "type": "uint256"
        }
      ],
      "name": "getFundingFee",
      "outputs": [
        {
          "internalType": "int256",
          "name": "",
          "type": "int256"
        }
      ],
      "stateMutability": "view",
      "type": "function"
    },
    {
      "inputs": [
        {
          "internalType": "address",
          "name": "_account",
          "type": "address"
        },
        {
          "internalType": "uint256",
          "name": "_pairIndex",
          "type": "uint256"
        },
        {
          "internalType": "bool",
          "name": "_isLong",
          "type": "bool"
        }
      ],
      "name": "getPosition",
      "outputs": [
        {
          "components": [
            {
              "internalType": "bytes32",
              "name": "key",
              "type": "bytes32"
            },
            {
              "internalType": "address",
              "name": "account",
              "type": "address"
            },
            {
              "internalType": "uint256",
              "name": "pairIndex",
              "type": "uint256"
            },
            {
              "internalType": "bool",
              "name": "isLong",
              "type": "bool"
            },
            {
              "internalType": "uint256",
              "name": "collateral",
              "type": "uint256"
            },
            {
              "internalType": "uint256",
              "name": "positionAmount",
              "type": "uint256"
            },
            {
              "internalType": "uint256",
              "name": "averagePrice",
              "type": "uint256"
            },
            {
              "internalType": "int256",
              "name": "entryFundingRate",
              "type": "int256"
            },
            {
              "internalType": "uint256",
              "name": "entryFundingTime",
              "type": "uint256"
            },
            {
              "internalType": "int256",
              "name": "realisedPnl",
              "type": "int256"
            }
          ],
          "internalType": "struct Position.Info",
          "name": "",
          "type": "tuple"
        }
      ],
      "stateMutability": "view",
      "type": "function"
    },
    {
      "inputs": [
        {
          "internalType": "bytes32",
          "name": "key",
          "type": "bytes32"
        }
      ],
      "name": "getPositionByKey",
      "outputs": [
        {
          "components": [
            {
              "internalType": "bytes32",
              "name": "key",
              "type": "bytes32"
            },
            {
              "internalType": "address",
              "name": "account",
              "type": "address"
            },
            {
              "internalType": "uint256",
              "name": "pairIndex",
              "type": "uint256"
            },
            {
              "internalType": "bool",
              "name": "isLong",
              "type": "bool"
            },
            {
              "internalType": "uint256",
              "name": "collateral",
              "type": "uint256"
            },
            {
              "internalType": "uint256",
              "name": "positionAmount",
              "type": "uint256"
            },
            {
              "internalType": "uint256",
              "name": "averagePrice",
              "type": "uint256"
            },
            {
              "internalType": "int256",
              "name": "entryFundingRate",
              "type": "int256"
            },
            {
              "internalType": "uint256",
              "name": "entryFundingTime",
              "type": "uint256"
            },
            {
              "internalType": "int256",
              "name": "realisedPnl",
              "type": "int256"
            }
          ],
          "internalType": "struct Position.Info",
          "name": "",
          "type": "tuple"
        }
      ],
      "stateMutability": "view",
      "type": "function"
    },
    {
      "inputs": [
        {
          "internalType": "address",
          "name": "_account",
          "type": "address"
        },
        {
          "internalType": "uint256",
          "name": "_pairIndex",
          "type": "uint256"
        },
        {
          "internalType": "bool",
          "name": "_isLong",
          "type": "bool"
        }
      ],
      "name": "getPositionKey",
      "outputs": [
        {
          "internalType": "bytes32",
          "name": "",
          "type": "bytes32"
        }
      ],
      "stateMutability": "pure",
      "type": "function"
    },
    {
      "inputs": [
        {
          "internalType": "uint256",
          "name": "_pairIndex",
          "type": "uint256"
        },
        {
          "internalType": "bool",
          "name": "_isLong",
          "type": "bool"
        },
        {
          "internalType": "uint256",
          "name": "_sizeAmount",
          "type": "uint256"
        }
      ],
      "name": "getTradingFee",
      "outputs": [
        {
          "internalType": "uint256",
          "name": "tradingFee",
          "type": "uint256"
        }
      ],
      "stateMutability": "view",
      "type": "function"
    },
    {
      "inputs": [
        {
          "internalType": "address",
          "name": "token",
          "type": "address"
        },
        {
          "internalType": "uint256",
          "name": "_pairIndex",
          "type": "uint256"
        },
        {
          "internalType": "bool",
          "name": "_isLong",
          "type": "bool"
        }
      ],
      "name": "getValidPrice",
      "outputs": [
        {
          "internalType": "uint256",
          "name": "",
          "type": "uint256"
        }
      ],
      "stateMutability": "view",
      "type": "function"
    },
    {
      "inputs": [
        {
          "internalType": "address",
          "name": "_keeper",
          "type": "address"
        },
        {
          "internalType": "address",
          "name": "_account",
          "type": "address"
        },
        {
          "internalType": "uint256",
          "name": "_pairIndex",
          "type": "uint256"
        },
        {
          "internalType": "int256",
          "name": "_collateral",
          "type": "int256"
        },
        {
          "internalType": "uint256",
          "name": "_sizeAmount",
          "type": "uint256"
        },
        {
          "internalType": "bool",
          "name": "_isLong",
          "type": "bool"
        },
        {
          "internalType": "uint256",
          "name": "_price",
          "type": "uint256"
        }
      ],
      "name": "increasePosition",
      "outputs": [
        {
          "internalType": "uint256",
          "name": "tradingFee",
          "type": "uint256"
        },
        {
          "internalType": "int256",
          "name": "fundingFee",
          "type": "int256"
        }
      ],
      "stateMutability": "nonpayable",
      "type": "function"
    },
    {
      "inputs": [
        {
          "internalType": "address",
          "name": "",
          "type": "address"
        }
      ],
      "name": "isFrozen",
      "outputs": [
        {
          "internalType": "bool",
          "name": "",
          "type": "bool"
        }
      ],
      "stateMutability": "view",
      "type": "function"
    },
    {
      "inputs": [
        {
          "internalType": "address",
          "name": "",
          "type": "address"
        }
      ],
      "name": "isHandler",
      "outputs": [
        {
          "internalType": "bool",
          "name": "",
          "type": "bool"
        }
      ],
      "stateMutability": "view",
      "type": "function"
    },
    {
      "inputs": [
        {
          "internalType": "address",
          "name": "",
          "type": "address"
        },
        {
          "internalType": "address",
          "name": "",
          "type": "address"
        }
      ],
      "name": "keeperTradingFee",
      "outputs": [
        {
          "internalType": "uint256",
          "name": "",
          "type": "uint256"
        }
      ],
      "stateMutability": "view",
      "type": "function"
    },
    {
      "inputs": [
        {
          "internalType": "uint256",
          "name": "",
          "type": "uint256"
        }
      ],
      "name": "lastFundingRates",
      "outputs": [
        {
          "internalType": "int256",
          "name": "",
          "type": "int256"
        }
      ],
      "stateMutability": "view",
      "type": "function"
    },
    {
      "inputs": [
        {
          "internalType": "uint256",
          "name": "",
          "type": "uint256"
        }
      ],
      "name": "lastFundingTimes",
      "outputs": [
        {
          "internalType": "uint256",
          "name": "",
          "type": "uint256"
        }
      ],
      "stateMutability": "view",
      "type": "function"
    },
    {
      "inputs": [
        {
          "internalType": "uint256",
          "name": "",
          "type": "uint256"
        }
      ],
      "name": "longTracker",
      "outputs": [
        {
          "internalType": "uint256",
          "name": "",
          "type": "uint256"
        }
      ],
      "stateMutability": "view",
      "type": "function"
    },
    {
      "inputs": [
        {
          "internalType": "uint256",
          "name": "",
          "type": "uint256"
        }
      ],
      "name": "netExposureAmountChecker",
      "outputs": [
        {
          "internalType": "int256",
          "name": "",
          "type": "int256"
        }
      ],
      "stateMutability": "view",
      "type": "function"
    },
    {
      "inputs": [],
      "name": "paused",
      "outputs": [
        {
          "internalType": "bool",
          "name": "",
          "type": "bool"
        }
      ],
      "stateMutability": "view",
      "type": "function"
    },
    {
      "inputs": [],
      "name": "pool",
      "outputs": [
        {
          "internalType": "contract IPool",
          "name": "",
          "type": "address"
        }
      ],
      "stateMutability": "view",
      "type": "function"
    },
    {
      "inputs": [
        {
          "internalType": "bytes32",
          "name": "",
          "type": "bytes32"
        }
      ],
      "name": "positions",
      "outputs": [
        {
          "internalType": "bytes32",
          "name": "key",
          "type": "bytes32"
        },
        {
          "internalType": "address",
          "name": "account",
          "type": "address"
        },
        {
          "internalType": "uint256",
          "name": "pairIndex",
          "type": "uint256"
        },
        {
          "internalType": "bool",
          "name": "isLong",
          "type": "bool"
        },
        {
          "internalType": "uint256",
          "name": "collateral",
          "type": "uint256"
        },
        {
          "internalType": "uint256",
          "name": "positionAmount",
          "type": "uint256"
        },
        {
          "internalType": "uint256",
          "name": "averagePrice",
          "type": "uint256"
        },
        {
          "internalType": "int256",
          "name": "entryFundingRate",
          "type": "int256"
        },
        {
          "internalType": "uint256",
          "name": "entryFundingTime",
          "type": "uint256"
        },
        {
          "internalType": "int256",
          "name": "realisedPnl",
          "type": "int256"
        }
      ],
      "stateMutability": "view",
      "type": "function"
    },
    {
      "inputs": [
        {
          "internalType": "address",
          "name": "_addressExecutor",
          "type": "address"
        }
      ],
      "name": "setExecutor",
      "outputs": [],
      "stateMutability": "nonpayable",
      "type": "function"
    },
    {
      "inputs": [
        {
          "internalType": "address",
          "name": "_addressOrderManager",
          "type": "address"
        }
      ],
      "name": "setOrderManager",
      "outputs": [],
      "stateMutability": "nonpayable",
      "type": "function"
    },
    {
      "inputs": [],
      "name": "setPaused",
      "outputs": [],
      "stateMutability": "nonpayable",
      "type": "function"
    },
    {
      "inputs": [],
      "name": "setUnPaused",
      "outputs": [],
      "stateMutability": "nonpayable",
      "type": "function"
    },
    {
      "inputs": [
        {
          "internalType": "uint256",
          "name": "",
          "type": "uint256"
        }
      ],
      "name": "shortTracker",
      "outputs": [
        {
          "internalType": "uint256",
          "name": "",
          "type": "uint256"
        }
      ],
      "stateMutability": "view",
      "type": "function"
    },
    {
      "inputs": [
        {
          "internalType": "address",
          "name": "",
          "type": "address"
        }
      ],
      "name": "stakingTradingFee",
      "outputs": [
        {
          "internalType": "uint256",
          "name": "",
          "type": "uint256"
        }
      ],
      "stateMutability": "view",
      "type": "function"
    },
    {
      "inputs": [
        {
          "internalType": "address",
          "name": "token",
          "type": "address"
        },
        {
          "internalType": "address",
          "name": "to",
          "type": "address"
        },
        {
          "internalType": "uint256",
          "name": "amount",
          "type": "uint256"
        }
      ],
      "name": "transferTokenTo",
      "outputs": [],
      "stateMutability": "nonpayable",
      "type": "function"
    },
    {
      "inputs": [
        {
          "internalType": "uint256",
          "name": "_pairIndex",
          "type": "uint256"
        },
        {
          "internalType": "uint256",
          "name": "_price",
          "type": "uint256"
        }
      ],
      "name": "updateCumulativeFundingRate",
      "outputs": [],
      "stateMutability": "nonpayable",
      "type": "function"
    },
    {
      "inputs": [
        {
          "internalType": "uint256",
          "name": "newInterval",
          "type": "uint256"
        }
      ],
      "name": "updateFundingInterval",
      "outputs": [],
      "stateMutability": "nonpayable",
      "type": "function"
    }
  ],
  "transactionHash": "0xbbf2f44b92d46ec64b9cd46e52796ec864492bac047fdd4729c53503be948a31",
  "args": [
    "0xb07fB1a2F76574FD5243C1aA25Bb992cE9490B9C",
    "0xD2605f821EDB524958dbc6202E692f21802369E1",
    28800
  ],
  "numDeployments": 1,
  "solcInputHash": "a0a35a8cc001b329f8e259ab1e7a3059",
  "bytecode": "0x60a0346200010a57601f62004c5e38819003918201601f19168301916001600160401b038311848410176200010f578084926060946040528339810103126200010a578051906001600160a01b039081831683036200010a5760208101519182168092036200010a576040015191600160005533600052600160205260406000209060ff19916001838254161790556080526002541660025560018060a01b0319600e541617600e55600b55604051614b38908162000126823960805181818161042701528181611438015281816125d5015281816129a301528181612b1701528181612c8c01528181612e5c01528181612ffd0152818161314f015281816131ae01526134250152f35b600080fd5b634e487b7160e01b600052604160045260246000fdfe61028080604052600436101561001457600080fd5b60006102005260003560e01c90816301fd38f7146135ca575080630298e273146135b15780630d172a011461355657806314df7137146133e557806316f0115b146133b9578063179a09e31461317e5780631848effa146131365780631ae3afe8146130f85780631c3c0ea814612fc657806323fc616014612f965780632cbc82bf14612f665780632e4d2cda14612de3578063349fdb0914612c5857806337a66d8514612ae357806337e415a01461296e5780633f73d999146129165780634202502c146128ea57806346ea87af146128a757806348500975146127e9578063514ea4bf146127485780635c975abb1461272257806383d532e8146126e15780638c1b753a1461256c5780639391faf91461253c57806395612f5c146115ea5780639849e412146115c9578063ad249b521461159b578063bc95baad1461155f578063bd40e1c014611533578063c0da840d14611401578063c8d0805214611349578063cf2003bd14610251578063e054d7f214610221578063e5839836146101de5763f879ffd2146101a757600080fd5b346101d75760203660031901126101d7576004356102005152600960205260206040610200512054604051908152f35b6102005180fd5b346101d75760203660031901126101d7576001600160a01b036101ff6135f2565b1661020051526004602052602060ff6040610200512054166040519015158152f35b346101d75760203660031901126101d7576004356102005152600760205260206040610200512054604051908152f35b346101d75761025f36613651565b9195949290610260526101405261028160018060a01b03600f5416331461379d565b610289613a3e565b6102916139fa565b600e54604051632f7ce47360e21b815260048101859052610120916001600160a01b0316908281602481855afa9283156107da57610200519361131a575b505060405180916330a66e1560e01b82528660048301528160246101009485935afa9182156107da5761020051926112ed575b5050604081015187101590816112de575b50156112aa57610327610260518585613f49565b908161020051526003602052604061020051209660018060a01b0360018901541615611265576103578482613dca565b966103668260058b0154613997565b60058a01556004890154610200519061037d6139fa565b610387878a614150565b610395610260518a8a614653565b6101808190526102005181126112235750610260511561120257610180516103bc916138c6565b985b88610200515260086020526040610200518c600783832054910155600a602052205460088c015561040b6104036103fc89878d6102605115906142b3565b809c6138c6565b938b87614383565b83610822575b50604051631f94a27560e31b81526020816004817f00000000000000000000000000000000000000000000000000000000000000006001600160a01b03165afa9081156107da5761020051916107e8575b506020858101516040516341976e0960e01b81526001600160a01b0391821660048201529283916024918391165afa9081156107da57610200519161078b575b50978984878d95849b9a989560609f600080516020614ae38339815191529e6106879c9a6104d26104d79361400e565b61408c565b8060c05261020051811360001461077b57506104fe906104f860c051613f35565b90613887565b61050e60c05160098a01546138aa565b60098901558b6005890154156000146106d957507ff1d296a817e8ecfa2709fcd52c61a6dddc7e87ed697b3ba601e88dbee8849c209495506105566105fb9261056e926138aa565b610200516101405190808213156106d15750906138aa565b6102005190818113156106cb576105859150613f35565b8c8c82977f1ffb81f32d2d371994fb39b875fbe035d34386083d2a85a3cf2894709c4581a2608060405188815260018060a01b03851660208201528560408201526102605115156060820152a18c6105e060048d0154613923565b9760405198899860c05196610180519661026051928c6139a4565b0390a1836102005152600360205260006009610200516040812090838255806001830155836002830155600382015582600482015582600582015582600682015582600782015582600882015501555b86816106aa575b5050506004810154600582015460068301549060078401549260096008860154950154956040519a8b9a61026051928c6139a4565b0390a16001610200515560405190815261018051602082015260c0516040820152f35b6040909201516106c392906001600160a01b0316613a94565b898086610652565b50610585565b9050906138aa565b92610747967ff1d296a817e8ecfa2709fcd52c61a6dddc7e87ed697b3ba601e88dbee8849c209661073161071461076c9661014051906138aa565b946102005161014051818112600014610774576104f89150613923565b9889946107426102005182136138df565b613f35565b60048c01558c60405197889760c051956101805195610140519261026051928c6139a4565b0390a161064b565b5090613887565b61078591926138aa565b906104fe565b959398979694919a9290506020863d6020116107d2575b816107af6020938361371e565b810103126107cd5794519199969795969395929490939091896104a2565b600080fd5b3d91506107a2565b6040513d61020051823e3d90fd5b90506020813d60201161081a575b816108036020938361371e565b810103126101d75761081490613740565b8b610462565b3d91506107f6565b8861020051526005602052610200519060408220549150610260516000146111f95761085661085086613923565b836138aa565b8a6102005152600560205261020051906040822055610260516000146111de5750896102005152600660205260406102005120610894868254613997565b90555b600e54604051632500ed8d60e21b8152600481018c905291906001600160a01b031660c083602481845afa9283156107da5761020051936111ae575b508b61020051808613600014610ce9575090506102005152600560205261020051836040822054136000146109ff5750600e546001600160a01b031691823b156101d7576040519262a0151560e21b84528c6004850152876024850152610200516044850152836064816102005180945af19283156107da5787936109e1575b50916109736109799261096e608061097f9796015186613dca565b613887565b92613887565b90613e48565b600e546001600160a01b0316803b156101d75760405191630e13da9f60e11b83528a60048401526024830152816044816102005180945af180156107da576109ca575b505b8a610411565b6109d39061369f565b6102005180156109c2575b80fd5b6109ed9192935061369f565b61020051806109de5790869291610953565b6040812054909391508313610cd6575084905b600e546001600160a01b0316803b156101d75760405190637c7c829d60e01b82528c6004830152836024830152610200516044830152816064816102005180945af180156107da57610cc0575b5060800190888251808211600014610c32575050610a81610a8792518a613997565b90613dca565b600e546001600160a01b0316803b156101d75760405191632d23f44960e01b83528b60048401526024830152816044816102005180945af180156107da57610c1c575b505b80610b53575b50876102005152600560205261020051604081205415610af3575b506109c4565b600e546001600160a01b031690813b156109de575060405190630e13da9f60e11b8252896004830152610200516024830152816044816102005180945af180156107da5715610aed575b610b469061369f565b610200518015610aed5780fd5b600e546001600160a01b031690610b6b908890613dca565b90803b156101d7576040519162a0151560e21b83528a60048401526102005160248401526044830152816064816102005180945af180156107da57610c06575b50600e546001600160a01b0316803b156101d75760405190630e13da9f60e11b8252896004830152876024830152816044816102005180945af180156107da5715610ad257610bf99061369f565b610200518015610ad25780fd5b610c0f9061369f565b610200518015610bab5780fd5b610c259061369f565b610200518015610aca5780fd5b610c41935090610a8191613997565b6040860151600e54610c619183916001600160a01b039081169116613a94565b600e546001600160a01b0316803b156101d757604051916354ab60f960e01b83528b60048401526024830152816044816102005180945af180156107da57610caa575b50610acc565b610cb39061369f565b610200518015610ca45780fd5b610cc99061369f565b610200518015610a5f5780fd5b909150610ce38186613997565b91610a12565b8086121561108357509050610200515260056020526102005183604082205412600014610df55750600e546001600160a01b031691823b156101d7576040519262a0151560e21b84528c6004850152610200516024850152826044850152836064816102005180945af19283156107da578793610dd7575b509161096e610d896109799361096e87966080610d80610d8f9a613923565b91015190613dca565b93613923565b600e546001600160a01b0316803b156101d75760405191630e13da9f60e11b83528a60048401526024830152816044816102005180945af180156107da57610b3d57506109c4565b610de39192935061369f565b61020051806109de5790869291610d61565b6040812054909391508312611068575084905b600e5461020080518d905260056020525160408120546001600160a01b039092169112611054576060820151905b803b156101d75760405191637c7c829d60e01b83528d60048401526102005160248401526044830152816064816102005180945af180156107da5761103e575b5060800190888251808211600014610fd0575050610a81610e9892518a613997565b6040860151600e54610eb89183916001600160a01b039081169116613a94565b600e546001600160a01b0316803b156101d757604051916354ab60f960e01b83528b60048401526024830152816044816102005180945af180156107da57610fba575b505b80610f225750876102005152600560205261020051604081205415610af357506109c4565b600e546001600160a01b0316803b156101d7576040519162a0151560e21b83528a60048401526024830152610200516044830152816064816102005180945af180156107da57610c065750600e546001600160a01b0316803b156101d75760405190630e13da9f60e11b8252896004830152876024830152816044816102005180945af180156107da5715610ad257610bf99061369f565b610fc39061369f565b610200518015610efb5780fd5b610fdf935090610a8191613997565b600e546001600160a01b0316803b156101d75760405191632d23f44960e01b83528b60048401526024830152816044816102005180945af180156107da57611028575b50610efd565b6110319061369f565b6102005180156110225780fd5b6110479061369f565b610200518015610e765780fd5b611062608083015184613dca565b90610e36565b611073919250613923565b61107d8186613997565b91610e08565b9193509193505260056020526102005180604081205413600014611152575050600e546001600160a01b03169050803b156101d7576040519062a0151560e21b8252896004830152846024830152610200516044830152816064816102005180945af180156107da5761113c575b505b600e546001600160a01b0316803b156101d75760405190630e13da9f60e11b8252896004830152876024830152816044816102005180945af180156107da57610b3d57506109c4565b6111459061369f565b6102005180156110f15780fd5b813b156109de57506040519162a0151560e21b83528a60048401526102005160248401526044830152816064816102005180945af180156107da57611198575b506110f3565b6111a19061369f565b6102005180156111925780fd5b6111d091935060c03d81116111d7575b6111c8818361371e565b810190613934565b918e6108d3565b503d6111be565b6040906007602052206111f2868254613997565b9055610897565b61085685610850565b989061121d9061077461121761018051613f35565b8761495c565b906103be565b6102605161124857506112429061123c61018051613923565b906138c6565b986103be565b61125e919a925061125890613f35565b8561495c565b50906103be565b60405162461bcd60e51b815260206004820152601760248201527f706f736974696f6e20616c726561647920636c6f7365640000000000000000006044820152606490fd5b60405162461bcd60e51b815260206004820152600c60248201526b696e76616c69642073697a6560a01b6044820152606490fd5b60609150015186111587610313565b61130c9250803d10611313575b611304818361371e565b810190613f96565b8780610302565b503d6112fa565b61133a929350803d10611342575b611332818361371e565b8101906137e9565b9087806102cf565b503d611328565b346101d75760203660031901126101d757611362614a3e565b50600435610200515260036020526113fd6113826040610200512061400e565b604051918291829190916101408101928051825260018060a01b036020820151166020830152604081015160408301526060810151151560608301526080810151608083015260a081015160a083015260c081015160c083015260e081015160e0830152610100808201519083015261012080910151910152565b0390f35b346101d7576020806003193601126101d75761141b6135f2565b6040516351331ad760e01b81526001600160a01b039280826004817f000000000000000000000000000000000000000000000000000000000000000088165afa80156107da57849261020051916114fa575b508190602460405180958193637be53ca160e01b8352336004840152165afa9081156107da5761020051916114c3575b506114a89150613761565b166001600160601b0360a01b60105416176010556102005180f35b905081813d83116114f3575b6114d9818361371e565b810103126101d7576114ed6114a891613754565b8461149d565b503d6114cf565b809350828092503d831161152c575b611513818361371e565b810103126101d757806115268593613740565b9061146d565b503d611509565b346101d75761020051806003193601126109de57600f546040516001600160a01b039091168152602090f35b346101d75761157f6115703661361e565b91611579614a3e565b50613f49565b610200515260036020526113fd6113826040610200512061400e565b346101d75760403660031901126101d7576115b46139fa565b6115c2602435600435614150565b6102005180f35b346101d75761020051806003193601126109de576020600b54604051908152f35b346101d75760246115fa36613651565b60a09795929796939491965260e05261022052611615613a3e565b61162a60018060a01b03600f5416331461379d565b6116326139fa565b600e54604051632f7ce47360e21b815260e0516004820152936101209185919082906001600160a01b03165afa9283156107da576102005193612519575b506080830151156124d45761168b8460e05161022051613f49565b806101a052610200515260036020526040610200512080610100526101a05190556116b860a05186613dca565b9461010051936116e0826005870154801561248b575b80151580612482575b61245b57613887565b6005860155600461010051019687546101e0528461020051946117016139fa565b61170f60a05160e051614150565b886117208160e05161022051614653565b60808190526102005181126123f8575080156123c5576117f4926117e5926117c76117bc6117ae6117cc9561175a6080516101e0516138c6565b6101e0525b60e05161020051526008602052610200516008604080832054926101005193600785016101c0526007850155600a60205220549182610120528181016102405201558b60a0519160e0516142b3565b80610160526101e0516138c6565b916101605189614383565b6138aa565b95610200518089126000146104f857506104f888613f35565b946107426102005182136138df565b885582611903575b506101406118c19484600080516020614ae38339815191529994600080516020614ac383398151915294826005986118df575b5050604051926101a051845260018060a01b036102205116602085015260e05160408501526060840152891515608084015260a083015260a05160c08301526101605160e0830152608051610100830152610120820152a15492015492610100516006810154906101c05154600961024051549201549260405197889760a0519660e051610220516101a0518c6139a4565b0390a160016102005155604080516101605181526080516020820152f35b610220516040909201516118fc92906001600160a01b0316613a94565b8b8261182f565b60e05161020051526005602052610200519060408220549150876000146123b45761192e84836138aa565b60e051610200515260056020526102005190604082205588600014612399575060e051610200515260066020526040610200512061196d858254613887565b90555b600e54604051632500ed8d60e21b815260e051600482015291906001600160a01b031660c083602481845afa9283156107da576102005193612379575b506102005180851315611e2157505060e051610200515260056020526102005183604082205413600014611afd5750600e546001600160a01b031691823b156101d7576040519262a0151560e21b845260e0516004850152866024850152610200516044850152836064816102005180945af19283156107da578693611adf575b50916109736109799261096e6080611a499796015186613dca565b600e546001600160a01b0316803b156101d75760405191630e13da9f60e11b835260e05160048401526024830152816044816102005180945af180156107da57611ac9575b506101406118c194600594600080516020614ae38339815191529994600080516020614ac3833981519152945b9450949950945094506117fc565b611ad29061369f565b610200518015611a8e5780fd5b611aeb9192935061369f565b61020051806109de5790859291611a2e565b6040812054909391508313611e0e575083905b600e546001600160a01b0316803b156101d75760405190637c7c829d60e01b825260e0516004830152836024830152610200516044830152816064816102005180945af180156107da57611df8575b5060800190815160a05190808211600014611d68575050610a81611b86925160a051613997565b600e546001600160a01b0316803b156101d75760405191632d23f44960e01b835260e05160048401526024830152816044816102005180945af180156107da57611d52575b505b80611c83575b5060e0516102005152600560205261020051604081205415611c21575b506101406118c194600594600080516020614ae38339815191529994600080516020614ac383398151915294611abb565b600e546001600160a01b031690813b156109de575060405190630e13da9f60e11b825260e0516004830152610200516024830152816044816102005180945af180156107da5715611bf0575b611c769061369f565b610200518015611bf05780fd5b611c9b60018060a01b03600e54169160a05190613dca565b90803b156101d7576040519162a0151560e21b835260e05160048401526102005160248401526044830152816064816102005180945af180156107da57611d3c575b50600e546001600160a01b0316803b156101d75760405190630e13da9f60e11b825260e051600483015260a0516024830152816044816102005180945af180156107da5715611bd357611d2f9061369f565b610200518015611bd35780fd5b611d459061369f565b610200518015611cdd5780fd5b611d5b9061369f565b610200518015611bcb5780fd5b611d77935090610a8191613997565b6040830151600e54611d979183916001600160a01b039081169116613a94565b600e546001600160a01b0316803b156101d757604051916354ab60f960e01b835260e05160048401526024830152816044816102005180945af180156107da57611de2575b50611bcd565b611deb9061369f565b610200518015611ddc5780fd5b611e019061369f565b610200518015611b5f5780fd5b909150611e1b8185613997565b91611b10565b8085121561221f57505060e051610200515260056020526102005183604082205412600014611f4f5750600e546001600160a01b031691823b156101d7576040519262a0151560e21b845260e0516004850152610200516024850152826044850152836064816102005180945af19283156107da578693611f31575b509161096e610d896109799361096e87966080610d80611ebc9a613923565b600e546001600160a01b0316803b156101d75760405191630e13da9f60e11b835260e05160048401526024830152816044816102005180945af180156107da57611c6d57506101406118c194600594600080516020614ae38339815191529994600080516020614ac383398151915294611abb565b611f3d9192935061369f565b61020051806109de5790859291611e9d565b6040812054909391508312612204575083905b600e5460e05161020080519190915260056020525160408120546001600160a01b0390921691126121f0576060820151905b803b156101d75760405191637c7c829d60e01b835260e05160048401526102005160248401526044830152816064816102005180945af180156107da576121da575b5060800190815160a0519080821160001461216a575050610a81611ffd925160a051613997565b6040830151600e5461201d9183916001600160a01b039081169116613a94565b600e546001600160a01b0316803b156101d757604051916354ab60f960e01b835260e05160048401526024830152816044816102005180945af180156107da57612154575b505b806120b6575060e0516102005152600560205261020051604081205415611c2157506101406118c194600594600080516020614ae38339815191529994600080516020614ac383398151915294611abb565b600e546001600160a01b0316803b156101d7576040519162a0151560e21b835260e05160048401526024830152610200516044830152816064816102005180945af180156107da57611d3c5750600e546001600160a01b0316803b156101d75760405190630e13da9f60e11b825260e051600483015260a0516024830152816044816102005180945af180156107da5715611bd357611d2f9061369f565b61215d9061369f565b6102005180156120625780fd5b612179935090610a8191613997565b600e546001600160a01b0316803b156101d75760405191632d23f44960e01b835260e05160048401526024830152816044816102005180945af180156107da576121c4575b50612064565b6121cd9061369f565b6102005180156121be5780fd5b6121e39061369f565b610200518015611fd65780fd5b6121fe608083015184613dca565b90611f94565b61220f919250613923565b6122198185613997565b91611f62565b919350915060e051905260056020526102005180604081205413600014612322575050600e546001600160a01b03169050803b156101d7576040519062a0151560e21b825260e0516004830152836024830152610200516044830152816064816102005180945af180156107da5761230c575b505b600e546001600160a01b0316803b156101d75760405190630e13da9f60e11b825260e051600483015260a0516024830152816044816102005180945af180156107da57611c6d57506101406118c194600594600080516020614ae38339815191529994600080516020614ac383398151915294611abb565b6123159061369f565b6102005180156122925780fd5b813b156109de57506040519162a0151560e21b835260e05160048401526102005160248401526044830152816064816102005180945af180156107da5761236a575b50612294565b6123739061369f565b87612364565b61239291935060c03d81116111d7576111c8818361371e565b918b6119ad565b6040906007602052206123ad858254613887565b9055611970565b61192e6123c085613923565b610850565b956117f4926117e5926117c76117bc6117ae6123f26117cc966107746123ec608051613f35565b8d61495c565b9b61175f565b8161242b57506117f4926117e5926117c76117bc6117ae6117cc956124226080516101e0516138aa565b6101e05261175f565b6117cc919750926117e5926117c76117bc6117ae61245461244e6117f499613f35565b8b61495c565b509b61175f565b6006880161247b6124718c61096e845486613dca565b6109798585613887565b9055613887565b508915156116d7565b6001880160018060a01b0361022051166001600160601b0360a01b82541617905560e05160028901556003880160ff1981541660ff8b15151617905560a05160068901556116ce565b60405162461bcd60e51b815260206004820152601860248201527f74726164652070616972206e6f7420737570706f7274656400000000000000006044820152606490fd5b6125359193506101203d6101201161134257611332818361371e565b9185611670565b346101d75760203660031901126101d7576004356102005152600860205260206040610200512054604051908152f35b346101d7576020806003193601126101d75760043560018060a01b039081600e54166040518091632f7ce47360e21b82528360048301528160246101209485935afa9182156107da5761020051926126c4575b5050604051631f94a27560e31b815284816004817f000000000000000000000000000000000000000000000000000000000000000088165afa9081156107da57859285916102005193612684575b508301516040516341976e0960e01b8152911660048201529384916024918391165afa9081156107da576102005191612653575b61264b9250614733565b604051908152f35b90508282813d831161267d575b61266a818361371e565b810103126101d75761264b915190612641565b503d612660565b93849193508092503d83116126bd575b61269e818361371e565b810103126101d757602484866126b48195613740565b9391925061260d565b503d612694565b6126da9250803d1061134257611332818361371e565b84806125bf565b346101d75760a03660031901126101d757600435801515036101d757612705613608565b6064359081151582036101d75760209161264b9160443590614653565b346101d75761020051806003193601126109de57602060ff600254166040519015158152f35b346101d75760203660031901126101d757600435610200515260036020526101406040610200512080549060018060a01b0360018201541690600281015460ff60038301541660048301546005840154906006850154926007860154946009600888015497015497604051998a5260208a0152604089015215156060880152608087015260a086015260c085015260e0840152610100830152610120820152f35b346101d75760403660031901126101d75760206128046135f2565b61280c613608565b90612815613a3e565b600f546001600160a01b03918291612830908316331461379d565b6128386139fa565b16806102005152600d845261020051916040832090841680935284526040610200512054928380612875575b859060016102005155604051908152f35b61287f9183613a94565b6102005152600d83526102005190604082209152825261020051604081205582808083612864565b346101d75760203660031901126101d7576001600160a01b036128c86135f2565b1661020051526001602052602060ff6040610200512054166040519015158152f35b346101d75761020051806003193601126109de576010546040516001600160a01b039091168152602090f35b346101d75760403660031901126101d75761292f6135f2565b612937613608565b9060018060a01b038091166102005152600d6020526102005190604082209216905260205260206040610200512054604051908152f35b346101d7576020806003193601126101d7576040516351331ad760e01b81526004803592916001600160a01b039183908290817f000000000000000000000000000000000000000000000000000000000000000086165afa80156107da5783916102005191612aad575b50602460405180948193637be53ca160e01b8352336004840152165afa9081156107da576102005191612a4c575b7f2671c06c8f001757af00d7be47b46a5eed07be3b5ce4fa7260e8b2105043532460408486612a3486613761565b600b549181600b558351928352820152a16102005180f35b9180915082813d8311612aa6575b612a64818361371e565b810103126101d7577f2671c06c8f001757af00d7be47b46a5eed07be3b5ce4fa7260e8b2105043532492612a34612a9c604094613754565b9293505092612a06565b503d612a5a565b82819392503d8311612adc575b612ac4818361371e565b810103126101d757612ad68391613740565b856129d8565b503d612aba565b346101d75761020051806003193601126109de576040516351331ad760e01b81526001600160a01b039060209081816004817f000000000000000000000000000000000000000000000000000000000000000087165afa80156107da5782916102005191612c22575b50602460405180958193630935e01b60e21b8352336004840152165afa9182156107da576102005192612bc8575b50612ba57f62e78cea01bee320cd4e420270b5ea74000d11b0c9f74754ebdbfc544b05a25892614a8a565b612bad6139fa565b600160ff196002541617600255604051338152a16102005180f35b91508082813d8311612c1b575b612bdf818361371e565b810103126101d757612ba5612c147f62e78cea01bee320cd4e420270b5ea74000d11b0c9f74754ebdbfc544b05a25893613754565b9250612b7a565b503d612bd5565b82819392503d8311612c51575b612c39818361371e565b810103126101d757612c4b8291613740565b84612b4c565b503d612c2f565b346101d75761020051806003193601126109de576040516351331ad760e01b81526020906001600160a01b039082816004817f000000000000000000000000000000000000000000000000000000000000000086165afa80156107da5783916102005191612dad575b50602460405180948193630935e01b60e21b8352336004840152165afa80156107da576102005190612d77575b612cf89150614a8a565b6002549060ff821615612d3c577f5db9ee0a495bf2e6ff9c91a7834c1ba4fdd244a5e8aa4e537bd38aeae4b073aa9160ff1916600255604051338152a16102005180f35b6064906040519062461bcd60e51b82526004820152601460248201527314185d5cd8589b194e881b9bdd081c185d5cd95960621b6044820152fd5b508181813d8311612da6575b612d8d818361371e565b810103126101d757612da1612cf891613754565b612cee565b503d612d83565b82819392503d8311612ddc575b612dc4818361371e565b810103126101d757612dd68391613740565b84612cc1565b503d612dba565b346101d75760603660031901126101d75760043560243580151581036101d75760018060a01b039081600e5416926040518094632f7ce47360e21b82528260048301528160246101209788935afa9485156107da576102005195612f47575b5050604051631f94a27560e31b81526020949085816004817f000000000000000000000000000000000000000000000000000000000000000089165afa9081156107da57869286916102005193612f07575b508301516040516341976e0960e01b8152911660048201529485916024918391165afa9182156107da576102005192612ed6575b61264b9350604435916142b3565b91508383813d8311612f00575b612eed818361371e565b810103126101d75761264b925191612ec8565b503d612ee3565b93849193508092503d8311612f40575b612f21818361371e565b810103126101d75760248587612f378195613740565b93919250612e94565b503d612f17565b612f5e929550803d1061134257611332818361371e565b928480612e42565b346101d75760203660031901126101d7576004356102005152600660205260206040610200512054604051908152f35b346101d75760203660031901126101d7576004356102005152600a60205260206040610200512054604051908152f35b346101d7576020806003193601126101d757612fe06135f2565b6040516351331ad760e01b81526001600160a01b039280826004817f000000000000000000000000000000000000000000000000000000000000000088165afa80156107da57849261020051916130bf575b508190602460405180958193637be53ca160e01b8352336004840152165afa9081156107da576102005191613088575b5061306d9150613761565b166001600160601b0360a01b600f541617600f556102005180f35b905081813d83116130b8575b61309e818361371e565b810103126101d7576130b261306d91613754565b84613062565b503d613094565b809350828092503d83116130f1575b6130d8818361371e565b810103126101d757806130eb8593613740565b90613032565b503d6130ce565b346101d75760203660031901126101d7576001600160a01b036131196135f2565b166102005152600c60205260206040610200512054604051908152f35b346101d75761020051806003193601126109de576040517f00000000000000000000000000000000000000000000000000000000000000006001600160a01b03168152602090f35b346101d75761318c3661361e565b50604051631f94a27560e31b8152602092916001600160a01b039184816004817f000000000000000000000000000000000000000000000000000000000000000087165afa80156107da5783916102005191613381575b501682604051946341976e0960e01b865216938460048201528581602481855afa9485156107da5786916102005196613350575b50604460405180948193637641b69960e01b835260048301526102005160248301525afa80156107da5761020051859161331f575b61326992508181811115613316579061326491613997565b613d03565b91600e5416906040519182916330a66e1560e01b835260048301528160246101009485935afa9081156107da5760e09261020051926132f9575b50500151106132b457604051908152f35b60405162461bcd60e51b815260048101839052601a60248201527f657863656564206d617820707269636520646576696174696f6e0000000000006044820152606490fd5b61330f9250803d1061131357611304818361371e565b85806132a3565b61326491613997565b50508481813d8311613349575b613336818361371e565b810103126101d75783613269915161324c565b503d61332c565b8281939297503d831161337a575b613368818361371e565b810103126101d7578590519487613217565b503d61335e565b809250868092503d83116133b2575b61339a818361371e565b810103126101d7576133ac8391613740565b866131e3565b503d613390565b346101d75761020051806003193601126109de57600e546040516001600160a01b039091168152602090f35b346101d7576020806003193601126101d7576133ff6135f2565b613407613a3e565b6040516351331ad760e01b81526001600160a01b03919083816004817f000000000000000000000000000000000000000000000000000000000000000087165afa9081156107da5783918591610200519161351f575b50602460405180948193637be53ca160e01b8352336004840152165afa80156107da5761020051906134e9575b6134949150613761565b61349c6139fa565b16806102005152600c8252604061020051205490816134c6575b5060016102005155604051908152f35b6134d1823383613a94565b6102005152600c8252610200516040812055826134b6565b508381813d8311613518575b6134ff818361371e565b810103126101d75761351361349491613754565b61348a565b503d6134f5565b92505081813d831161354f575b613536818361371e565b810103126101d757836135498492613740565b8661345d565b503d61352c565b346101d75760603660031901126101d7576115c26135726135f2565b61357a613608565b600f546001600160a01b03908116331480156135a4575b61359a9061379d565b6044359216613a94565b5060105481163314613591565b346101d757602061264b6135c43661361e565b91613f49565b346107cd5760203660031901126107cd57602090600435600052600582526040600020548152f35b600435906001600160a01b03821682036107cd57565b602435906001600160a01b03821682036107cd57565b60609060031901126107cd576004356001600160a01b03811681036107cd57906024359060443580151581036107cd5790565b60e09060031901126107cd576001600160a01b039060043582811681036107cd579160243590811681036107cd579060443590606435906084359060a43580151581036107cd579060c43590565b67ffffffffffffffff81116136b357604052565b634e487b7160e01b600052604160045260246000fd5b610140810190811067ffffffffffffffff8211176136b357604052565b6080810190811067ffffffffffffffff8211176136b357604052565b6040810190811067ffffffffffffffff8211176136b357604052565b90601f8019910116810190811067ffffffffffffffff8211176136b357604052565b51906001600160a01b03821682036107cd57565b519081151582036107cd57565b1561376857565b60405162461bcd60e51b815260206004820152600d60248201526c37b7363ca837b7b620b236b4b760991b6044820152606490fd5b156137a457565b60405162461bcd60e51b815260206004820152601b60248201527f506f736974696f6e204d616e616765723a20666f7262696464656e00000000006044820152606490fd5b809161012092839103126107cd5760405191820182811067ffffffffffffffff8211176136b3576040528051825261382360208201613740565b602083015261383460408201613740565b604083015261384560608201613740565b606083015261385660808201613754565b608083015260a081015160a083015260c081015160c083015260e081015160e0830152610100809101519082015290565b9190820180921161389457565b634e487b7160e01b600052601160045260246000fd5b9190916000838201938412911290801582169115161761389457565b8181039291600013801582851316918412161761389457565b156138e657565b60405162461bcd60e51b81526020600482015260156024820152740c6ded8d8c2e8cae4c2d840dcdee840cadcdeeaced605b1b6044820152606490fd5b600160ff1b81146138945760000390565b908160c09103126107cd576040519060c082019082821067ffffffffffffffff8311176136b35760a0916040528051835260208101516020840152604081015160408401526060810151606084015260808101516080840152015160a082015290565b9190820391821161389457565b979491926101409996939c9b9a9794919c6101608a019d8a5260018060a01b031660208a0152604089015215156060880152608087015260a086015260c085015260e08401526101008301526101208201520152565b60ff60025416613a0657565b60405162461bcd60e51b815260206004820152601060248201526f14185d5cd8589b194e881c185d5cd95960821b6044820152606490fd5b600260005414613a4f576002600055565b60405162461bcd60e51b815260206004820152601f60248201527f5265656e7472616e637947756172643a207265656e7472616e742063616c6c006044820152606490fd5b60405163a9059cbb60e01b60208083019182526001600160a01b039485166024840152604480840196909652948252929091613acf836136e6565b1660405191613add83613702565b8483527f5361666545524332303a206c6f772d6c6576656c2063616c6c206661696c656485840152600080948192519082855af13d15613bfc573d9167ffffffffffffffff8311613be85790613b5393929160405192613b4688601f19601f840116018561371e565b83523d868885013e613c06565b90815190838215928315613bc6575b505050905015613b6f5750565b6084906040519062461bcd60e51b82526004820152602a60248201527f5361666545524332303a204552433230206f7065726174696f6e20646964206e6044820152691bdd081cdd58d8d9595960b21b6064820152fd5b8480929394500103126109de575081613bdf9101613754565b80388381613b62565b634e487b7160e01b85526041600452602485fd5b90613b5392916060915b91929015613c685750815115613c1a575090565b3b15613c235790565b60405162461bcd60e51b815260206004820152601d60248201527f416464726573733a2063616c6c20746f206e6f6e2d636f6e74726163740000006044820152606490fd5b825190915015613c7b5750805190602001fd5b60405162461bcd60e51b815260206004820152908190613c9f906024830190613ca3565b0390fd5b919082519283825260005b848110613ccf575050826000602080949584010152601f8019910116010190565b602081830181015184830182015201613cae565b8115613ced570490565b634e487b7160e01b600052601260045260246000fd5b90612710906000198284099282810292838086109503948086039514613dba5784831115613d7d578291096001821901821680920460028082600302188083028203028083028203028083028203028083028203028083028203028092029003029360018380600003040190848311900302920304170290565b60405162461bcd60e51b81526020600482015260156024820152744d6174683a206d756c446976206f766572666c6f7760581b6044820152606490fd5b505090613dc79250613ce3565b90565b9060001981830981830291828083109203918083039214613e32576c0c9f2c9cd04674edea400000009082821115613d7d577f7d33c22789773a07feda8b6f0930e26fa397c439f1d5cf4b2eb27d7306d2dc99940990828211900360e21b9103601e1c170290565b50506c0c9f2c9cd04674edea4000000091500490565b906c0c9f2c9cd04674edea40000000906000198284099282810292838086109503948086039514613dba5784831115613d7d578291096001821901821680920460028082600302188083028203028083028203028083028203028083028203028083028203028092029003029360018380600003040190848311900302920304170290565b9060001981830981830291828083109203918083039214613f2a576127109082821115613d7d577fbc01a36e2eb1c432ca57a786c226809d495182a9930be0ded288ce703afb7e91940990828211900360fc1b910360041c170290565b505061271091500490565b60008112613f405790565b613dc790613923565b916040519160208301936001600160601b03199060601b1684526034830152151560f81b6054820152603581526060810181811067ffffffffffffffff8211176136b35760405251902090565b809161010092839103126107cd576040519182019082821067ffffffffffffffff8311176136b35760e091604052805183526020810151602084015260408101516040840152606081015160608401526080810151608084015260a081015160a084015260c081015160c0840152015160e082015290565b9060405161401b816136c9565b8254815260018301546001600160a01b0316602082015260028301546040820152600383015460ff161515606082015260048301546080820152600583015460a0820152600683015460c0820152600783015460e08201526008830154610100820152600990920154610120830152565b60c08101908151908185148015614112575b6141085760600151156140de57508051808411156140c65750613dc792610a81915190613997565b6140d9929150613dc793610a8191613997565b613923565b838111156140f55750613dc792610a819151613997565b6140d9929150610a8190613dc794613997565b5050505050600090565b50811561409e565b8181029291811591840414171561389457565b818102929160008212600160ff1b82141661389457818405149015171561389457565b906000918083526020600a815260408085205415614244576141758186205442613997565b94600b5480961061423c576141f26060956141ec6141d16141ca7f30ee8c76a6febcb0400fb07183d873b5c18cf9e5ca6a47104676795b989c606d9a898752600a89526141c58888205442613997565b613ce3565b9288614733565b9187855260098752828686205560088752858520549261412d565b906138aa565b8482526008845282822055614212600b5461420d8142613ce3565b61411a565b848252600a84528282205560088352818082205491600a85522054928251948552840152820152a1565b505050505050565b9250600a9061425c600b9593955461420d8142613ce3565b948352522055565b908160809103126107cd5760405190608082019082821067ffffffffffffffff8311176136b3576060916040528051835260208101516020840152604081015160408401520151606082015290565b916024936142c091613dca565b91608060018060a01b03600e541660405195868092630da67fe760e01b82528560048301525afa93841561437757600094614347575b5060009081526005602052604081205412614329571561431b57613dc7915190613ecd565b6020613dc792015190613ecd565b1561433c576020613dc792015190613ecd565b613dc7915190613ecd565b61436991945060803d8111614370575b614361818361371e565b810190614264565b92386142f6565b503d614357565b6040513d6000823e3d90fd5b9060009060409283519461439686613702565b601f86526020927f6469737472696275746554726164696e674665652074726164696e6746656500848801528551946143ce86613702565b600686526535b2b2b832b960d11b858701526144208751966144088789019a631f118ca960e21b8c52608060248b015260a48a0190613ca3565b908460448a01526023198983030160648a0152613ca3565b9281808860018060a01b03809416968760848301520398614449601f199a8b810183528261371e565b516a636f6e736f6c652e6c6f679b8c5afa5080600e54168551895190630da67fe760e01b82526004820152608081602481855afa90811561464957849161462b575b506144998a82015186613ecd565b966144ab888c83019486865116613a94565b83600e54169051813b15614627578591606483928e519485938492633431529d60e21b845260048401528160248401528d60448401525af1801561461d57946145de98946145fa989460009e9c98948f9e9c98948d95614601575b50614518606061451f92015187613ecd565b8096613997565b95828251168452600d8952848420908f528852838e20614540868254613887565b905551168152600c865220614556838254613887565b9055875197614564896136e6565b604189527f6469737472696275746554726164696e67466565206c70416d6f756e74202573858a01527f206b6565706572416d6f756e74202573207374616b696e67416d6f756e742025818a0152607360f81b60608a01525196879485019863a7a8785360e01b8a526080602487015260a4860190613ca3565b926044850152606484015260848301520390810183528261371e565b51915afa50565b606061451f92956146146145189361369f565b95925050614506565b8b513d87823e3d90fd5b8580fd5b614643915060803d811161437057614361818361371e565b3861448b565b8a513d86823e3d90fd5b918161465f9293613f49565b6000526003602052614674604060002061400e565b9061468461010083015142613997565b600b54116146bf57620f4240916146bb91600052600860205260a06146b360406000205460e0840151906138c6565b91015161412d565b0590565b5050600090565b908160e09103126107cd576040519060e082019082821067ffffffffffffffff8311176136b35760c091604052805183526020810151602084015260408101516040840152606081015160608401526080810151608084015260a081015160a0840152015160c082015290565b600e546040805163694b193160e11b81526004810184905293926001600160a01b039092169160e085602481865afa94851561495157600095614921575b50806000526020936005855261478a8360002054613f35565b906060870151836000526006875260246147b1866000205460078a52876000205490613887565b9260c060808b015198885193848092632500ed8d60e21b82528a60048301525afa918215614916579061481392916000926148ee575b506148036104f8916147fe84518d86015190613997565b613dca565b9160608982015191015190613997565b91801580156148e6575b1561486357505050505061483b91508301515b60a0840151906138c6565b82518082131561485b5750915b015180821215614856575090565b905090565b905091614848565b61487184839795969761411a565b90620f424091828102908082048414901517156138945761489561489b928a61411a565b90613ce3565b9181039081116138945761483b966148956148c5946148bf6000986104f89561411a565b9261411a565b928252600585528120541215600003614830576148e190613923565b614830565b50821561481d565b6104f891925061490e6148039160c03d81116111d7576111c8818361371e565b9291506147e7565b87513d6000823e3d90fd5b61494391955060e03d811161494a575b61493b818361371e565b8101906146c6565b9338614771565b503d614931565b82513d6000823e3d90fd5b600e54815160405163694b193160e11b815260048101919091529293926001600160a01b0391821692919060e081602481875afa958615614377576149b560c06149be986149cb94600091614a20575b50015182613ecd565b96878092613997565b9483604086015116613a94565b600e54169051813b156107cd57600091606483926040519485938492633431529d60e21b845260048401528160248401528960448401525af1801561437757614a1357509190565b614a1c9061369f565b9190565b614a38915060e03d811161494a5761493b818361371e565b386149ac565b60405190614a4b826136c9565b816101206000918281528260208201528260408201528260608201528260808201528260a08201528260c08201528260e0820152826101008201520152565b15614a9157565b60405162461bcd60e51b815260206004820152600960248201526837b7363ca0b236b4b760b91b6044820152606490fdfe07777c9f149d310fb8670fb9752de106d0ebc29093eb6df2be370406a7d742a39a23c22b6372bd11ffa0aced0db638ca7c144fc3996ecc8fbe3f9a639ef285ada2646970667358221220336c7aa9facf4963d539bcf6b173f7d5858e8257b532de506cc285de643d5fd464736f6c63430008110033",
  "devdoc": {
    "kind": "dev",
    "methods": {
      "paused()": {
        "details": "Returns true if the contract is paused, and false otherwise."
      }
    },
    "version": 1
  },
  "userdoc": {
    "kind": "user",
    "methods": {},
    "version": 1
  },
  "storageLayout": {
    "storage": [
      {
        "astId": 400,
        "contract": "contracts/trading/PositionManager.sol:PositionManager",
        "label": "_status",
        "offset": 0,
        "slot": "0",
        "type": "t_uint256"
      },
      {
        "astId": 9127,
        "contract": "contracts/trading/PositionManager.sol:PositionManager",
        "label": "isHandler",
        "offset": 0,
        "slot": "1",
        "type": "t_mapping(t_address,t_bool)"
      },
      {
        "astId": 299,
        "contract": "contracts/trading/PositionManager.sol:PositionManager",
        "label": "_paused",
        "offset": 0,
        "slot": "2",
        "type": "t_bool"
      },
      {
        "astId": 17158,
        "contract": "contracts/trading/PositionManager.sol:PositionManager",
        "label": "positions",
        "offset": 0,
        "slot": "3",
        "type": "t_mapping(t_bytes32,t_struct(Info)8648_storage)"
      },
      {
        "astId": 17163,
        "contract": "contracts/trading/PositionManager.sol:PositionManager",
        "label": "isFrozen",
        "offset": 0,
        "slot": "4",
        "type": "t_mapping(t_address,t_bool)"
      },
      {
        "astId": 17168,
        "contract": "contracts/trading/PositionManager.sol:PositionManager",
        "label": "netExposureAmountChecker",
        "offset": 0,
        "slot": "5",
        "type": "t_mapping(t_uint256,t_int256)"
      },
      {
        "astId": 17173,
        "contract": "contracts/trading/PositionManager.sol:PositionManager",
        "label": "longTracker",
        "offset": 0,
        "slot": "6",
        "type": "t_mapping(t_uint256,t_uint256)"
      },
      {
        "astId": 17178,
        "contract": "contracts/trading/PositionManager.sol:PositionManager",
        "label": "shortTracker",
        "offset": 0,
        "slot": "7",
        "type": "t_mapping(t_uint256,t_uint256)"
      },
      {
        "astId": 17182,
        "contract": "contracts/trading/PositionManager.sol:PositionManager",
        "label": "cumulativeFundingRates",
        "offset": 0,
        "slot": "8",
        "type": "t_mapping(t_uint256,t_int256)"
      },
      {
        "astId": 17186,
        "contract": "contracts/trading/PositionManager.sol:PositionManager",
        "label": "lastFundingRates",
        "offset": 0,
        "slot": "9",
        "type": "t_mapping(t_uint256,t_int256)"
      },
      {
        "astId": 17190,
        "contract": "contracts/trading/PositionManager.sol:PositionManager",
        "label": "lastFundingTimes",
        "offset": 0,
        "slot": "10",
        "type": "t_mapping(t_uint256,t_uint256)"
      },
      {
        "astId": 17192,
        "contract": "contracts/trading/PositionManager.sol:PositionManager",
        "label": "fundingInterval",
        "offset": 0,
        "slot": "11",
        "type": "t_uint256"
      },
      {
        "astId": 17197,
        "contract": "contracts/trading/PositionManager.sol:PositionManager",
        "label": "stakingTradingFee",
        "offset": 0,
        "slot": "12",
        "type": "t_mapping(t_address,t_uint256)"
      },
      {
        "astId": 17204,
        "contract": "contracts/trading/PositionManager.sol:PositionManager",
        "label": "keeperTradingFee",
        "offset": 0,
        "slot": "13",
        "type": "t_mapping(t_address,t_mapping(t_address,t_uint256))"
      },
      {
        "astId": 17207,
        "contract": "contracts/trading/PositionManager.sol:PositionManager",
        "label": "pool",
        "offset": 0,
        "slot": "14",
        "type": "t_contract(IPool)7948"
      },
      {
        "astId": 17209,
        "contract": "contracts/trading/PositionManager.sol:PositionManager",
        "label": "addressExecutor",
        "offset": 0,
        "slot": "15",
        "type": "t_address"
      },
      {
        "astId": 17211,
        "contract": "contracts/trading/PositionManager.sol:PositionManager",
        "label": "addressOrderManager",
        "offset": 0,
        "slot": "16",
        "type": "t_address"
      }
    ],
    "types": {
      "t_address": {
        "encoding": "inplace",
        "label": "address",
        "numberOfBytes": "20"
      },
      "t_bool": {
        "encoding": "inplace",
        "label": "bool",
        "numberOfBytes": "1"
      },
      "t_bytes32": {
        "encoding": "inplace",
        "label": "bytes32",
        "numberOfBytes": "32"
      },
      "t_contract(IPool)7948": {
        "encoding": "inplace",
        "label": "contract IPool",
        "numberOfBytes": "20"
      },
      "t_int256": {
        "encoding": "inplace",
        "label": "int256",
        "numberOfBytes": "32"
      },
      "t_mapping(t_address,t_bool)": {
        "encoding": "mapping",
        "key": "t_address",
        "label": "mapping(address => bool)",
        "numberOfBytes": "32",
        "value": "t_bool"
      },
      "t_mapping(t_address,t_mapping(t_address,t_uint256))": {
        "encoding": "mapping",
        "key": "t_address",
        "label": "mapping(address => mapping(address => uint256))",
        "numberOfBytes": "32",
        "value": "t_mapping(t_address,t_uint256)"
      },
      "t_mapping(t_address,t_uint256)": {
        "encoding": "mapping",
        "key": "t_address",
        "label": "mapping(address => uint256)",
        "numberOfBytes": "32",
        "value": "t_uint256"
      },
      "t_mapping(t_bytes32,t_struct(Info)8648_storage)": {
        "encoding": "mapping",
        "key": "t_bytes32",
        "label": "mapping(bytes32 => struct Position.Info)",
        "numberOfBytes": "32",
        "value": "t_struct(Info)8648_storage"
      },
      "t_mapping(t_uint256,t_int256)": {
        "encoding": "mapping",
        "key": "t_uint256",
        "label": "mapping(uint256 => int256)",
        "numberOfBytes": "32",
        "value": "t_int256"
      },
      "t_mapping(t_uint256,t_uint256)": {
        "encoding": "mapping",
        "key": "t_uint256",
        "label": "mapping(uint256 => uint256)",
        "numberOfBytes": "32",
        "value": "t_uint256"
      },
      "t_struct(Info)8648_storage": {
        "encoding": "inplace",
        "label": "struct Position.Info",
        "members": [
          {
            "astId": 8629,
            "contract": "contracts/trading/PositionManager.sol:PositionManager",
            "label": "key",
            "offset": 0,
            "slot": "0",
            "type": "t_bytes32"
          },
          {
            "astId": 8631,
            "contract": "contracts/trading/PositionManager.sol:PositionManager",
            "label": "account",
            "offset": 0,
            "slot": "1",
            "type": "t_address"
          },
          {
            "astId": 8633,
            "contract": "contracts/trading/PositionManager.sol:PositionManager",
            "label": "pairIndex",
            "offset": 0,
            "slot": "2",
            "type": "t_uint256"
          },
          {
            "astId": 8635,
            "contract": "contracts/trading/PositionManager.sol:PositionManager",
            "label": "isLong",
            "offset": 0,
            "slot": "3",
            "type": "t_bool"
          },
          {
            "astId": 8637,
            "contract": "contracts/trading/PositionManager.sol:PositionManager",
            "label": "collateral",
            "offset": 0,
            "slot": "4",
            "type": "t_uint256"
          },
          {
            "astId": 8639,
            "contract": "contracts/trading/PositionManager.sol:PositionManager",
            "label": "positionAmount",
            "offset": 0,
            "slot": "5",
            "type": "t_uint256"
          },
          {
            "astId": 8641,
            "contract": "contracts/trading/PositionManager.sol:PositionManager",
            "label": "averagePrice",
            "offset": 0,
            "slot": "6",
            "type": "t_uint256"
          },
          {
            "astId": 8643,
            "contract": "contracts/trading/PositionManager.sol:PositionManager",
            "label": "entryFundingRate",
            "offset": 0,
            "slot": "7",
            "type": "t_int256"
          },
          {
            "astId": 8645,
            "contract": "contracts/trading/PositionManager.sol:PositionManager",
            "label": "entryFundingTime",
            "offset": 0,
            "slot": "8",
            "type": "t_uint256"
          },
          {
            "astId": 8647,
            "contract": "contracts/trading/PositionManager.sol:PositionManager",
            "label": "realisedPnl",
            "offset": 0,
            "slot": "9",
            "type": "t_int256"
          }
        ],
        "numberOfBytes": "320"
      },
      "t_uint256": {
        "encoding": "inplace",
        "label": "uint256",
        "numberOfBytes": "32"
      }
    }
  }
}