{
  "address": "0x5787205B5D09A2D4C1B259F388006bcfc572814b",
  "abi": [
    {
      "inputs": [],
      "stateMutability": "nonpayable",
      "type": "constructor"
    },
    {
      "anonymous": false,
      "inputs": [
        {
          "indexed": true,
          "internalType": "address",
          "name": "owner",
          "type": "address"
        },
        {
          "indexed": true,
          "internalType": "address",
          "name": "spender",
          "type": "address"
        },
        {
          "indexed": false,
          "internalType": "uint256",
          "name": "value",
          "type": "uint256"
        }
      ],
      "name": "Approval",
      "type": "event"
    },
    {
      "anonymous": false,
      "inputs": [
        {
          "indexed": true,
          "internalType": "address",
          "name": "previousOwner",
          "type": "address"
        },
        {
          "indexed": true,
          "internalType": "address",
          "name": "newOwner",
          "type": "address"
        }
      ],
      "name": "OwnershipTransferred",
      "type": "event"
    },
    {
      "anonymous": false,
      "inputs": [
        {
          "indexed": true,
          "internalType": "address",
          "name": "from",
          "type": "address"
        },
        {
          "indexed": true,
          "internalType": "address",
          "name": "to",
          "type": "address"
        },
        {
          "indexed": false,
          "internalType": "uint256",
          "name": "value",
          "type": "uint256"
        }
      ],
      "name": "Transfer",
      "type": "event"
    },
    {
      "inputs": [
        {
          "internalType": "address",
          "name": "owner",
          "type": "address"
        },
        {
          "internalType": "address",
          "name": "spender",
          "type": "address"
        }
      ],
      "name": "allowance",
      "outputs": [
        {
          "internalType": "uint256",
          "name": "",
          "type": "uint256"
        }
      ],
      "stateMutability": "view",
      "type": "function"
    },
    {
      "inputs": [
        {
          "internalType": "address",
          "name": "spender",
          "type": "address"
        },
        {
          "internalType": "uint256",
          "name": "amount",
          "type": "uint256"
        }
      ],
      "name": "approve",
      "outputs": [
        {
          "internalType": "bool",
          "name": "",
          "type": "bool"
        }
      ],
      "stateMutability": "nonpayable",
      "type": "function"
    },
    {
      "inputs": [
        {
          "internalType": "address",
          "name": "account",
          "type": "address"
        }
      ],
      "name": "balanceOf",
      "outputs": [
        {
          "internalType": "uint256",
          "name": "",
          "type": "uint256"
        }
      ],
      "stateMutability": "view",
      "type": "function"
    },
    {
      "inputs": [
        {
          "internalType": "address",
          "name": "account",
          "type": "address"
        },
        {
          "internalType": "uint256",
          "name": "amount",
          "type": "uint256"
        }
      ],
      "name": "burn",
      "outputs": [],
      "stateMutability": "nonpayable",
      "type": "function"
    },
    {
      "inputs": [],
      "name": "decimals",
      "outputs": [
        {
          "internalType": "uint8",
          "name": "",
          "type": "uint8"
        }
      ],
      "stateMutability": "view",
      "type": "function"
    },
    {
      "inputs": [
        {
          "internalType": "address",
          "name": "spender",
          "type": "address"
        },
        {
          "internalType": "uint256",
          "name": "subtractedValue",
          "type": "uint256"
        }
      ],
      "name": "decreaseAllowance",
      "outputs": [
        {
          "internalType": "bool",
          "name": "",
          "type": "bool"
        }
      ],
      "stateMutability": "nonpayable",
      "type": "function"
    },
    {
      "inputs": [
        {
          "internalType": "address",
          "name": "spender",
          "type": "address"
        },
        {
          "internalType": "uint256",
          "name": "addedValue",
          "type": "uint256"
        }
      ],
      "name": "increaseAllowance",
      "outputs": [
        {
          "internalType": "bool",
          "name": "",
          "type": "bool"
        }
      ],
      "stateMutability": "nonpayable",
      "type": "function"
    },
    {
      "inputs": [
        {
          "internalType": "address",
          "name": "",
          "type": "address"
        }
      ],
      "name": "isHandler",
      "outputs": [
        {
          "internalType": "bool",
          "name": "",
          "type": "bool"
        }
      ],
      "stateMutability": "view",
      "type": "function"
    },
    {
      "inputs": [
        {
          "internalType": "address",
          "name": "",
          "type": "address"
        }
      ],
      "name": "miners",
      "outputs": [
        {
          "internalType": "bool",
          "name": "",
          "type": "bool"
        }
      ],
      "stateMutability": "view",
      "type": "function"
    },
    {
      "inputs": [
        {
          "internalType": "address",
          "name": "to",
          "type": "address"
        },
        {
          "internalType": "uint256",
          "name": "amount",
          "type": "uint256"
        }
      ],
      "name": "mint",
      "outputs": [],
      "stateMutability": "nonpayable",
      "type": "function"
    },
    {
      "inputs": [],
      "name": "name",
      "outputs": [
        {
          "internalType": "string",
          "name": "",
          "type": "string"
        }
      ],
      "stateMutability": "view",
      "type": "function"
    },
    {
      "inputs": [],
      "name": "owner",
      "outputs": [
        {
          "internalType": "address",
          "name": "",
          "type": "address"
        }
      ],
      "stateMutability": "view",
      "type": "function"
    },
    {
      "inputs": [],
      "name": "privateTransferMode",
      "outputs": [
        {
          "internalType": "bool",
          "name": "",
          "type": "bool"
        }
      ],
      "stateMutability": "view",
      "type": "function"
    },
    {
      "inputs": [],
      "name": "renounceOwnership",
      "outputs": [],
      "stateMutability": "nonpayable",
      "type": "function"
    },
    {
      "inputs": [
        {
          "internalType": "address",
          "name": "_handler",
          "type": "address"
        },
        {
          "internalType": "bool",
          "name": "enable",
          "type": "bool"
        }
      ],
      "name": "setHandler",
      "outputs": [],
      "stateMutability": "nonpayable",
      "type": "function"
    },
    {
      "inputs": [
        {
          "internalType": "address",
          "name": "account",
          "type": "address"
        },
        {
          "internalType": "bool",
          "name": "enable",
          "type": "bool"
        }
      ],
      "name": "setMiner",
      "outputs": [],
      "stateMutability": "nonpayable",
      "type": "function"
    },
    {
      "inputs": [
        {
          "internalType": "bool",
          "name": "_privateTransferMode",
          "type": "bool"
        }
      ],
      "name": "setPrivateTransferMode",
      "outputs": [],
      "stateMutability": "nonpayable",
      "type": "function"
    },
    {
      "inputs": [],
      "name": "symbol",
      "outputs": [
        {
          "internalType": "string",
          "name": "",
          "type": "string"
        }
      ],
      "stateMutability": "view",
      "type": "function"
    },
    {
      "inputs": [],
      "name": "totalSupply",
      "outputs": [
        {
          "internalType": "uint256",
          "name": "",
          "type": "uint256"
        }
      ],
      "stateMutability": "view",
      "type": "function"
    },
    {
      "inputs": [
        {
          "internalType": "address",
          "name": "to",
          "type": "address"
        },
        {
          "internalType": "uint256",
          "name": "amount",
          "type": "uint256"
        }
      ],
      "name": "transfer",
      "outputs": [
        {
          "internalType": "bool",
          "name": "",
          "type": "bool"
        }
      ],
      "stateMutability": "nonpayable",
      "type": "function"
    },
    {
      "inputs": [
        {
          "internalType": "address",
          "name": "from",
          "type": "address"
        },
        {
          "internalType": "address",
          "name": "to",
          "type": "address"
        },
        {
          "internalType": "uint256",
          "name": "amount",
          "type": "uint256"
        }
      ],
      "name": "transferFrom",
      "outputs": [
        {
          "internalType": "bool",
          "name": "",
          "type": "bool"
        }
      ],
      "stateMutability": "nonpayable",
      "type": "function"
    },
    {
      "inputs": [
        {
          "internalType": "address",
          "name": "newOwner",
          "type": "address"
        }
      ],
      "name": "transferOwnership",
      "outputs": [],
      "stateMutability": "nonpayable",
      "type": "function"
    }
  ],
  "transactionHash": "0x30440ac9c998da1da8dfcb86ba45de2f854f519f02289b2000003011614ecbfa",
  "args": [],
  "numDeployments": 1,
  "solcInputHash": "76cda7cc02cbb84b9779c6e013b766cd",
  "bytecode": "0x60803462000352576001600160401b0390604090808201838111828210176200025357825260078152602090660a4c2ee409ab2b60cb1b828201528251938385018581108282111762000253578452600594858152640e4c29ab2b60db1b84820152825182811162000253576003918254916001958684811c9416801562000347575b8885101462000331578190601f94858111620002dc575b508890858311600114620002755760009262000269575b505060001982861b1c191690861b1783555b8051938411620002535760049586548681811c9116801562000248575b828210146200023357838111620001ea575b50809285116001146200017c575093839491849260009562000170575b50501b92600019911b1c19161790555b8154336001600160a01b031982168117909355905191906001600160a01b03167f8be0079c531659141344cd1fd0a4f28419497f9722a3daafe3b4186f6b6457e0600080a3610f839081620003588239f35b0151935038806200010e565b92919084601f1981168860005285600020956000905b89838310620001cf5750505010620001b4575b50505050811b0190556200011e565b01519060f884600019921b161c1916905538808080620001a5565b85870151895590970196948501948893509081019062000192565b8760005281600020848088018c1c82019284891062000229575b018b1c019087905b8281106200021c575050620000f1565b600081550187906200020c565b9250819262000204565b602288634e487b7160e01b6000525260246000fd5b90607f1690620000df565b634e487b7160e01b600052604160045260246000fd5b015190503880620000b0565b90889350601f19831691876000528a6000209260005b8c828210620002c55750508411620002ac575b505050811b018355620000c2565b015160001983881b60f8161c191690553880806200029e565b8385015186558c979095019493840193016200028b565b9091508560005288600020858085018d1c8201928b861062000327575b918d8b928796959401901c01915b8281106200031757505062000099565b600081558594508a910162000307565b92508192620002f9565b634e487b7160e01b600052602260045260246000fd5b93607f169362000082565b600080fdfe6080604081815260048036101561001557600080fd5b600092833560e01c90816306fdde0314610a5a57508063095ea7b314610a3057806318160ddd14610a1157806323b872dd1461091b578063313ce567146108ff57806339509351146108af5780633a7056ac146108695780633be58e2a1461084257806340c10f191461076d57806346ea87af1461072f578063648ec7b9146106f157806370a08231146106ba578063715018a61461065d57806378b0bac41461060b5780638da5cb5b146105e257806395d89b41146104c25780639cb7de4b1461046d5780639dc29fac14610336578063a457c2d71461028f578063a9059cbb14610230578063dd62ed3e146101e35763f2fde38b1461011557600080fd5b346101df5760203660031901126101df5761012e610b98565b90610137610bd8565b6001600160a01b0391821692831561018d575050600554826bffffffffffffffffffffffff60a01b821617600555167f8be0079c531659141344cd1fd0a4f28419497f9722a3daafe3b4186f6b6457e08380a380f35b906020608492519162461bcd60e51b8352820152602660248201527f4f776e61626c653a206e6577206f776e657220697320746865207a65726f206160448201526564647265737360d01b6064820152fd5b8280fd5b50503461022c578060031936011261022c5780602092610201610b98565b610209610bb3565b6001600160a01b0391821683526001865283832091168252845220549051908152f35b5080fd5b50503461022c578060031936011261022c5761026c60209282610251610b98565b9160ff60055460a01c16610273575b50506024359033610ddf565b5160018152f35b3381526007865220546102889060ff16610d93565b8238610260565b5082346103335782600319360112610333576102a9610b98565b918360243592338152600160205281812060018060a01b03861682526020522054908282106102e25760208561026c8585038733610c53565b608490602086519162461bcd60e51b8352820152602560248201527f45524332303a2064656372656173656420616c6c6f77616e63652062656c6f77604482015264207a65726f60d81b6064820152fd5b80fd5b5082903461022c578260031936011261022c57610351610b98565b6024353384526020916006835261036d60ff8787205416610d55565b6001600160a01b03169283156104205783855284835285852054908282106103d25750908495817fddf252ad1be2c89b69c2b068fc378daa952ba7f163c4a11628f55a4df523b3ef94938688528785520381872055816002540360025551908152a380f35b865162461bcd60e51b8152908101849052602260248201527f45524332303a206275726e20616d6f756e7420657863656564732062616c616e604482015261636560f01b6064820152608490fd5b855162461bcd60e51b8152908101839052602160248201527f45524332303a206275726e2066726f6d20746865207a65726f206164647265736044820152607360f81b6064820152608490fd5b50503461022c578060031936011261022c576104bf9061048b610b98565b90610494610bc9565b9161049d610bd8565b60018060a01b03168452600760205283209060ff801983541691151516179055565b80f35b5091903461022c578160031936011261022c57805190828454600181811c908083169283156105d8575b60209384841081146105c5578388529081156105a95750600114610554575b505050829003601f01601f191682019267ffffffffffffffff841183851017610541575082918261053d925282610b4f565b0390f35b634e487b7160e01b815260418552602490fd5b8787529192508591837f8a35acfbc15ff81a39ae7d344fd709f28e8600b4aa8c65c6b64bfe7fe36bd19b5b838510610595575050505083010138808061050b565b80548886018301529301928490820161057f565b60ff1916878501525050151560051b840101905038808061050b565b634e487b7160e01b895260228a52602489fd5b91607f16916104ec565b50503461022c578160031936011261022c5760055490516001600160a01b039091168152602090f35b50503461022c578060031936011261022c576104bf90610629610b98565b90610632610bc9565b9161063b610bd8565b60018060a01b03168452600660205283209060ff801983541691151516179055565b8334610333578060031936011261033357610676610bd8565b600580546001600160a01b0319811690915581906001600160a01b03167f8be0079c531659141344cd1fd0a4f28419497f9722a3daafe3b4186f6b6457e08280a380f35b50503461022c57602036600319011261022c5760209181906001600160a01b036106e2610b98565b16815280845220549051908152f35b50503461022c57602036600319011261022c5760209160ff9082906001600160a01b0361071c610b98565b1681526006855220541690519015158152f35b50503461022c57602036600319011261022c5760209160ff9082906001600160a01b0361075a610b98565b1681526007855220541690519015158152f35b5090346101df57806003193601126101df57610787610b98565b906024359133855260066020526107a360ff8387205416610d55565b6001600160a01b031692831561080057506020827fddf252ad1be2c89b69c2b068fc378daa952ba7f163c4a11628f55a4df523b3ef926107e68795600254610c30565b60025585855284835280852082815401905551908152a380f35b6020606492519162461bcd60e51b8352820152601f60248201527f45524332303a206d696e7420746f20746865207a65726f2061646472657373006044820152fd5b50503461022c578160031936011261022c5760209060ff60055460a01c1690519015158152f35b83823461022c57602036600319011261022c573580151580910361022c5761088f610bd8565b6005805460ff60a01b191660a09290921b60ff60a01b1691909117905580f35b50503461022c578060031936011261022c5761026c6020926108f86108d2610b98565b338352600186528483206001600160a01b03821684528652918490205460243590610c30565b9033610c53565b50503461022c578160031936011261022c576020905160128152f35b5082903461022c57606036600319011261022c57610937610b98565b61093f610bb3565b91846044359460ff60055460a01c166109f5575b6001600160a01b03841681526001602081815283832033845290529190205491908201610989575b60208661026c878787610ddf565b8482106109b257509183916109a76020969561026c95033383610c53565b91939481935061097b565b606490602087519162461bcd60e51b8352820152601d60248201527f45524332303a20696e73756666696369656e7420616c6c6f77616e63650000006044820152fd5b3381526007602052610a0c60ff8383205416610d93565b610953565b50503461022c578160031936011261022c576020906002549051908152f35b50503461022c578060031936011261022c5760209061026c610a50610b98565b6024359033610c53565b84915083346101df57826003193601126101df5782600354600181811c90808316928315610b45575b60209384841081146105c557838852908115610b295750600114610ad357505050829003601f01601f191682019267ffffffffffffffff841183851017610541575082918261053d925282610b4f565b600387529192508591837fc2575a0e9e593c00f959f8c92f12db2869c3395a3b0502d05e2516446f71f85b5b838510610b15575050505083010185808061050b565b805488860183015293019284908201610aff565b60ff1916878501525050151560051b840101905085808061050b565b91607f1691610a83565b6020808252825181830181905290939260005b828110610b8457505060409293506000838284010152601f8019910116010190565b818101860151848201604001528501610b62565b600435906001600160a01b0382168203610bae57565b600080fd5b602435906001600160a01b0382168203610bae57565b602435908115158203610bae57565b6005546001600160a01b03163303610bec57565b606460405162461bcd60e51b815260206004820152602060248201527f4f776e61626c653a2063616c6c6572206973206e6f7420746865206f776e65726044820152fd5b91908201809211610c3d57565b634e487b7160e01b600052601160045260246000fd5b6001600160a01b03908116918215610d045716918215610cb45760207f8c5be1e5ebec7d5bd14f71427d1e84f3dd0314c0f7b2291e5b200ac8c7c3b925918360005260018252604060002085600052825280604060002055604051908152a3565b60405162461bcd60e51b815260206004820152602260248201527f45524332303a20617070726f766520746f20746865207a65726f206164647265604482015261737360f01b6064820152608490fd5b60405162461bcd60e51b8152602060048201526024808201527f45524332303a20617070726f76652066726f6d20746865207a65726f206164646044820152637265737360e01b6064820152608490fd5b15610d5c57565b60405162461bcd60e51b815260206004820152600f60248201526e36b4b732b9103337b93134b23232b760891b6044820152606490fd5b15610d9a57565b60405162461bcd60e51b815260206004820152601a60248201527f6d73672e73656e646572206e6f742077686974656c69737465640000000000006044820152606490fd5b6001600160a01b03908116918215610efa5716918215610ea957600082815280602052604081205491808310610e5557604082827fddf252ad1be2c89b69c2b068fc378daa952ba7f163c4a11628f55a4df523b3ef958760209652828652038282205586815220818154019055604051908152a3565b60405162461bcd60e51b815260206004820152602660248201527f45524332303a207472616e7366657220616d6f756e7420657863656564732062604482015265616c616e636560d01b6064820152608490fd5b60405162461bcd60e51b815260206004820152602360248201527f45524332303a207472616e7366657220746f20746865207a65726f206164647260448201526265737360e81b6064820152608490fd5b60405162461bcd60e51b815260206004820152602560248201527f45524332303a207472616e736665722066726f6d20746865207a65726f206164604482015264647265737360d81b6064820152608490fdfea264697066735822122072a9ccae3f3b87f2430d89116a1f9df4795dfcff6814324bc09f0386bc625e7a64736f6c63430008110033",
  "devdoc": {
    "kind": "dev",
    "methods": {
      "allowance(address,address)": {
        "details": "See {IERC20-allowance}."
      },
      "approve(address,uint256)": {
        "details": "See {IERC20-approve}. NOTE: If `amount` is the maximum `uint256`, the allowance is not updated on `transferFrom`. This is semantically equivalent to an infinite approval. Requirements: - `spender` cannot be the zero address."
      },
      "balanceOf(address)": {
        "details": "See {IERC20-balanceOf}."
      },
      "decimals()": {
        "details": "Returns the number of decimals used to get its user representation. For example, if `decimals` equals `2`, a balance of `505` tokens should be displayed to a user as `5.05` (`505 / 10 ** 2`). Tokens usually opt for a value of 18, imitating the relationship between Ether and Wei. This is the default value returned by this function, unless it's overridden. NOTE: This information is only used for _display_ purposes: it in no way affects any of the arithmetic of the contract, including {IERC20-balanceOf} and {IERC20-transfer}."
      },
      "decreaseAllowance(address,uint256)": {
        "details": "Atomically decreases the allowance granted to `spender` by the caller. This is an alternative to {approve} that can be used as a mitigation for problems described in {IERC20-approve}. Emits an {Approval} event indicating the updated allowance. Requirements: - `spender` cannot be the zero address. - `spender` must have allowance for the caller of at least `subtractedValue`."
      },
      "increaseAllowance(address,uint256)": {
        "details": "Atomically increases the allowance granted to `spender` by the caller. This is an alternative to {approve} that can be used as a mitigation for problems described in {IERC20-approve}. Emits an {Approval} event indicating the updated allowance. Requirements: - `spender` cannot be the zero address."
      },
      "name()": {
        "details": "Returns the name of the token."
      },
      "owner()": {
        "details": "Returns the address of the current owner."
      },
      "renounceOwnership()": {
        "details": "Leaves the contract without owner. It will not be possible to call `onlyOwner` functions. Can only be called by the current owner. NOTE: Renouncing ownership will leave the contract without an owner, thereby disabling any functionality that is only available to the owner."
      },
      "symbol()": {
        "details": "Returns the symbol of the token, usually a shorter version of the name."
      },
      "totalSupply()": {
        "details": "See {IERC20-totalSupply}."
      },
      "transfer(address,uint256)": {
        "details": "See {IERC20-transfer}. Requirements: - `to` cannot be the zero address. - the caller must have a balance of at least `amount`."
      },
      "transferFrom(address,address,uint256)": {
        "details": "See {IERC20-transferFrom}. Emits an {Approval} event indicating the updated allowance. This is not required by the EIP. See the note at the beginning of {ERC20}. NOTE: Does not update the allowance if the current allowance is the maximum `uint256`. Requirements: - `from` and `to` cannot be the zero address. - `from` must have a balance of at least `amount`. - the caller must have allowance for ``from``'s tokens of at least `amount`."
      },
      "transferOwnership(address)": {
        "details": "Transfers ownership of the contract to a new account (`newOwner`). Can only be called by the current owner."
      }
    },
    "version": 1
  },
  "userdoc": {
    "kind": "user",
    "methods": {},
    "version": 1
  },
  "storageLayout": {
    "storage": [
      {
        "astId": 859,
        "contract": "contracts/token/RaMYX.sol:RaMYX",
        "label": "_balances",
        "offset": 0,
        "slot": "0",
        "type": "t_mapping(t_address,t_uint256)"
      },
      {
        "astId": 865,
        "contract": "contracts/token/RaMYX.sol:RaMYX",
        "label": "_allowances",
        "offset": 0,
        "slot": "1",
        "type": "t_mapping(t_address,t_mapping(t_address,t_uint256))"
      },
      {
        "astId": 867,
        "contract": "contracts/token/RaMYX.sol:RaMYX",
        "label": "_totalSupply",
        "offset": 0,
        "slot": "2",
        "type": "t_uint256"
      },
      {
        "astId": 869,
        "contract": "contracts/token/RaMYX.sol:RaMYX",
        "label": "_name",
        "offset": 0,
        "slot": "3",
        "type": "t_string_storage"
      },
      {
        "astId": 871,
        "contract": "contracts/token/RaMYX.sol:RaMYX",
        "label": "_symbol",
        "offset": 0,
        "slot": "4",
        "type": "t_string_storage"
      },
      {
        "astId": 396,
        "contract": "contracts/token/RaMYX.sol:RaMYX",
        "label": "_owner",
        "offset": 0,
        "slot": "5",
        "type": "t_address"
      },
      {
        "astId": 27783,
        "contract": "contracts/token/RaMYX.sol:RaMYX",
        "label": "privateTransferMode",
        "offset": 20,
        "slot": "5",
        "type": "t_bool"
      },
      {
        "astId": 27787,
        "contract": "contracts/token/RaMYX.sol:RaMYX",
        "label": "miners",
        "offset": 0,
        "slot": "6",
        "type": "t_mapping(t_address,t_bool)"
      },
      {
        "astId": 27791,
        "contract": "contracts/token/RaMYX.sol:RaMYX",
        "label": "isHandler",
        "offset": 0,
        "slot": "7",
        "type": "t_mapping(t_address,t_bool)"
      }
    ],
    "types": {
      "t_address": {
        "encoding": "inplace",
        "label": "address",
        "numberOfBytes": "20"
      },
      "t_bool": {
        "encoding": "inplace",
        "label": "bool",
        "numberOfBytes": "1"
      },
      "t_mapping(t_address,t_bool)": {
        "encoding": "mapping",
        "key": "t_address",
        "label": "mapping(address => bool)",
        "numberOfBytes": "32",
        "value": "t_bool"
      },
      "t_mapping(t_address,t_mapping(t_address,t_uint256))": {
        "encoding": "mapping",
        "key": "t_address",
        "label": "mapping(address => mapping(address => uint256))",
        "numberOfBytes": "32",
        "value": "t_mapping(t_address,t_uint256)"
      },
      "t_mapping(t_address,t_uint256)": {
        "encoding": "mapping",
        "key": "t_address",
        "label": "mapping(address => uint256)",
        "numberOfBytes": "32",
        "value": "t_uint256"
      },
      "t_string_storage": {
        "encoding": "bytes",
        "label": "string",
        "numberOfBytes": "32"
      },
      "t_uint256": {
        "encoding": "inplace",
        "label": "uint256",
        "numberOfBytes": "32"
      }
    }
  }
}