{
  "address": "0x2373AB8aF0d5436eed5FC7DD9B7344c40e822407",
  "abi": [
    {
      "inputs": [
        {
          "internalType": "address",
          "name": "_rewardToken",
          "type": "address"
        }
      ],
      "stateMutability": "nonpayable",
      "type": "constructor"
    },
    {
      "anonymous": false,
      "inputs": [
        {
          "indexed": true,
          "internalType": "address",
          "name": "account",
          "type": "address"
        },
        {
          "indexed": true,
          "internalType": "uint256",
          "name": "round",
          "type": "uint256"
        },
        {
          "indexed": false,
          "internalType": "uint256",
          "name": "amount",
          "type": "uint256"
        }
      ],
      "name": "Claim",
      "type": "event"
    },
    {
      "anonymous": false,
      "inputs": [
        {
          "indexed": true,
          "internalType": "address",
          "name": "account",
          "type": "address"
        },
        {
          "indexed": true,
          "internalType": "uint256",
          "name": "round",
          "type": "uint256"
        },
        {
          "indexed": false,
          "internalType": "uint256",
          "name": "amount",
          "type": "uint256"
        }
      ],
      "name": "Compound",
      "type": "event"
    },
    {
      "anonymous": false,
      "inputs": [
        {
          "indexed": true,
          "internalType": "address",
          "name": "previousOwner",
          "type": "address"
        },
        {
          "indexed": true,
          "internalType": "address",
          "name": "newOwner",
          "type": "address"
        }
      ],
      "name": "OwnershipTransferred",
      "type": "event"
    },
    {
      "anonymous": false,
      "inputs": [
        {
          "indexed": false,
          "internalType": "address",
          "name": "account",
          "type": "address"
        }
      ],
      "name": "Paused",
      "type": "event"
    },
    {
      "anonymous": false,
      "inputs": [
        {
          "indexed": false,
          "internalType": "address",
          "name": "account",
          "type": "address"
        }
      ],
      "name": "Unpaused",
      "type": "event"
    },
    {
      "inputs": [
        {
          "internalType": "uint256",
          "name": "_amount",
          "type": "uint256"
        },
        {
          "internalType": "bytes32[]",
          "name": "_merkleProof",
          "type": "bytes32[]"
        }
      ],
      "name": "canClaim",
      "outputs": [
        {
          "internalType": "bool",
          "name": "",
          "type": "bool"
        },
        {
          "internalType": "uint256",
          "name": "",
          "type": "uint256"
        }
      ],
      "stateMutability": "view",
      "type": "function"
    },
    {
      "inputs": [
        {
          "internalType": "uint256",
          "name": "_amount",
          "type": "uint256"
        },
        {
          "internalType": "bytes32[]",
          "name": "_merkleProof",
          "type": "bytes32[]"
        }
      ],
      "name": "claim",
      "outputs": [],
      "stateMutability": "nonpayable",
      "type": "function"
    },
    {
      "inputs": [
        {
          "internalType": "address",
          "name": "account",
          "type": "address"
        },
        {
          "internalType": "address",
          "name": "receiver",
          "type": "address"
        },
        {
          "internalType": "uint256",
          "name": "_amount",
          "type": "uint256"
        },
        {
          "internalType": "bytes32[]",
          "name": "_merkleProof",
          "type": "bytes32[]"
        }
      ],
      "name": "claimForAccount",
      "outputs": [],
      "stateMutability": "nonpayable",
      "type": "function"
    },
    {
      "inputs": [
        {
          "internalType": "uint256",
          "name": "_amount",
          "type": "uint256"
        },
        {
          "internalType": "bytes32[]",
          "name": "_merkleProof",
          "type": "bytes32[]"
        }
      ],
      "name": "compound",
      "outputs": [],
      "stateMutability": "nonpayable",
      "type": "function"
    },
    {
      "inputs": [
        {
          "internalType": "address",
          "name": "",
          "type": "address"
        }
      ],
      "name": "isHandler",
      "outputs": [
        {
          "internalType": "bool",
          "name": "",
          "type": "bool"
        }
      ],
      "stateMutability": "view",
      "type": "function"
    },
    {
      "inputs": [
        {
          "internalType": "bytes32",
          "name": "",
          "type": "bytes32"
        }
      ],
      "name": "merkleRootUsed",
      "outputs": [
        {
          "internalType": "bool",
          "name": "",
          "type": "bool"
        }
      ],
      "stateMutability": "view",
      "type": "function"
    },
    {
      "inputs": [
        {
          "internalType": "uint256",
          "name": "",
          "type": "uint256"
        }
      ],
      "name": "merkleRoots",
      "outputs": [
        {
          "internalType": "bytes32",
          "name": "",
          "type": "bytes32"
        }
      ],
      "stateMutability": "view",
      "type": "function"
    },
    {
      "inputs": [],
      "name": "owner",
      "outputs": [
        {
          "internalType": "address",
          "name": "",
          "type": "address"
        }
      ],
      "stateMutability": "view",
      "type": "function"
    },
    {
      "inputs": [],
      "name": "pause",
      "outputs": [],
      "stateMutability": "nonpayable",
      "type": "function"
    },
    {
      "inputs": [],
      "name": "paused",
      "outputs": [
        {
          "internalType": "bool",
          "name": "",
          "type": "bool"
        }
      ],
      "stateMutability": "view",
      "type": "function"
    },
    {
      "inputs": [],
      "name": "renounceOwnership",
      "outputs": [],
      "stateMutability": "nonpayable",
      "type": "function"
    },
    {
      "inputs": [],
      "name": "rewardToken",
      "outputs": [
        {
          "internalType": "address",
          "name": "",
          "type": "address"
        }
      ],
      "stateMutability": "view",
      "type": "function"
    },
    {
      "inputs": [],
      "name": "round",
      "outputs": [
        {
          "internalType": "uint256",
          "name": "",
          "type": "uint256"
        }
      ],
      "stateMutability": "view",
      "type": "function"
    },
    {
      "inputs": [
        {
          "internalType": "address",
          "name": "_handler",
          "type": "address"
        },
        {
          "internalType": "bool",
          "name": "enable",
          "type": "bool"
        }
      ],
      "name": "setHandler",
      "outputs": [],
      "stateMutability": "nonpayable",
      "type": "function"
    },
    {
      "inputs": [
        {
          "internalType": "contract IStakingPool",
          "name": "_stakingPool",
          "type": "address"
        }
      ],
      "name": "setStakingPool",
      "outputs": [],
      "stateMutability": "nonpayable",
      "type": "function"
    },
    {
      "inputs": [],
      "name": "stakingPool",
      "outputs": [
        {
          "internalType": "contract IStakingPool",
          "name": "",
          "type": "address"
        }
      ],
      "stateMutability": "view",
      "type": "function"
    },
    {
      "inputs": [],
      "name": "totalClaimed",
      "outputs": [
        {
          "internalType": "uint256",
          "name": "",
          "type": "uint256"
        }
      ],
      "stateMutability": "view",
      "type": "function"
    },
    {
      "inputs": [
        {
          "internalType": "address",
          "name": "newOwner",
          "type": "address"
        }
      ],
      "name": "transferOwnership",
      "outputs": [],
      "stateMutability": "nonpayable",
      "type": "function"
    },
    {
      "inputs": [],
      "name": "unpause",
      "outputs": [],
      "stateMutability": "nonpayable",
      "type": "function"
    },
    {
      "inputs": [
        {
          "internalType": "bytes32",
          "name": "_merkleRoot",
          "type": "bytes32"
        }
      ],
      "name": "updateRoot",
      "outputs": [],
      "stateMutability": "nonpayable",
      "type": "function"
    },
    {
      "inputs": [
        {
          "internalType": "uint256",
          "name": "",
          "type": "uint256"
        },
        {
          "internalType": "address",
          "name": "",
          "type": "address"
        }
      ],
      "name": "userClaimed",
      "outputs": [
        {
          "internalType": "bool",
          "name": "",
          "type": "bool"
        }
      ],
      "stateMutability": "view",
      "type": "function"
    },
    {
      "inputs": [
        {
          "internalType": "address",
          "name": "",
          "type": "address"
        }
      ],
      "name": "userClaimedAmount",
      "outputs": [
        {
          "internalType": "uint256",
          "name": "",
          "type": "uint256"
        }
      ],
      "stateMutability": "view",
      "type": "function"
    }
  ],
  "transactionHash": "0xe37bb12198bc126d8eddab53ac889fd463c175b5dd6c4c3849806ddf55ee57fe",
  "args": [
    "0x5787205B5D09A2D4C1B259F388006bcfc572814b"
  ],
  "numDeployments": 1,
  "solcInputHash": "a0a35a8cc001b329f8e259ab1e7a3059",
  "bytecode": "0x6080346100b557601f610fca38819003918201601f19168301916001600160401b038311848410176100ba578084926020946040528339810103126100b557516001600160a01b0390818116908190036100b55760ff19600054166000556001805560025460018060a01b0319903382821617600255604051933391167f8be0079c531659141344cd1fd0a4f28419497f9722a3daafe3b4186f6b6457e0600080a36003541617600355610ef990816100d18239f35b600080fd5b634e487b7160e01b600052604160045260246000fdfe608060408181526004918236101561001657600080fd5b600092833560e01c9182630c56ae3b146108bb57508163146ca5311461089d57816321ff9970146107de5781632f52ebb7146107b45781632f9267231461077c5781633028f63a146107385781633beb9842146106f15781633f4ba83a1461069357816346ea87af146106555781635170d5fa146104955781635c975abb14610473578163715018a61461041557816371c5ecb1146103ed5781638456cb591461038c5781638da5cb5b146103635781639cb7de4b1461030d5781639cdbb8e914610286578163ba42590d14610259578163d54ad2a11461023a578163e21156951461020e578163f2fde38b14610142575063f7c618c11461011757600080fd5b3461013e578160031936011261013e5760035490516001600160a01b039091168152602090f35b5080fd5b90503461020a57602036600319011261020a5761015d61094a565b90610166610976565b6001600160a01b039182169283156101b8575050600254826001600160601b0360a01b821617600255167f8be0079c531659141344cd1fd0a4f28419497f9722a3daafe3b4186f6b6457e0600080a380f35b906020608492519162461bcd60e51b8352820152602660248201527f4f776e61626c653a206e6577206f776e657220697320746865207a65726f206160448201526564647265737360d01b6064820152fd5b8280fd5b828434610237575061022961022236610916565b9133610d3a565b825191151582526020820152f35b80fd5b50503461013e578160031936011261013e576020906009549051908152f35b90503461020a57602036600319011261020a578160209360ff923581526006855220541690519015158152f35b9190503461020a57608036600319011261020a576102a261094a565b906102ab610960565b916064359267ffffffffffffffff8411610309576102e86102d46103019660ff963691016108e0565b959094338952600a602052882054166109ce565b6102f0610a4b565b6102f8610a8f565b60443591610b3e565b506001805580f35b8580fd5b50503461013e578060031936011261013e5761032761094a565b906024359182151580930361035f5761033e610976565b60018060a01b03168352600a60205282209060ff8019835416911617905580f35b8380fd5b50503461013e578160031936011261013e5760025490516001600160a01b039091168152602090f35b50503461013e578160031936011261013e5760207f62e78cea01bee320cd4e420270b5ea74000d11b0c9f74754ebdbfc544b05a258916103ca610976565b6103d2610a4b565b6103da610a4b565b835460ff1916600117845551338152a180f35b90503461020a57602036600319011261020a5760209282913581526005845220549051908152f35b833461023757806003193601126102375761042e610976565b600280546001600160a01b031981169091556000906001600160a01b03167f8be0079c531659141344cd1fd0a4f28419497f9722a3daafe3b4186f6b6457e08280a380f35b50503461013e578160031936011261013e5760ff602092541690519015158152f35b90503461020a576104a536610916565b6104b0939293610a4b565b6104b8610a8f565b600b546001600160a01b0392908316156106015786916104da91863033610b3e565b600354600b54875163095ea7b360e01b81529085166001600160a01b03168682019081526020808201859052919283919087169082908790829060400103925af180156105f7576105c0575b5082600b54169260035416833b1561020a576084908388519586948593631e42d69b60e21b8552308a860152336024860152604485015260648401525af180156105b6576105a3575b505491519081527f0e311a2c6dbfb0153ec3a8a5bdca09070b3e5f60768fdc10a20453f38d18687360203392a36001805580f35b6105af90949194610ae5565b923861056f565b84513d87823e3d90fd5b6020813d82116105ef575b816105d860209383610b0f565b8101031261020a57518015150361013e5738610526565b3d91506105cb565b87513d85823e3d90fd5b855162461bcd60e51b8152602081860152602860248201527f5265776172644469737472696275746f723a207374616b696e67506f6f6c206e6044820152671bdd08195e1a5cdd60c21b6064820152608490fd5b50503461013e57602036600319011261013e5760209160ff9082906001600160a01b0361068061094a565b168152600a855220541690519015158152f35b50503461013e578160031936011261013e5760207f5db9ee0a495bf2e6ff9c91a7834c1ba4fdd244a5e8aa4e537bd38aeae4b073aa916106d1610976565b6106d9610cf1565b6106e1610cf1565b835460ff1916845551338152a180f35b90503461020a578160031936011261020a578160209360ff92610712610960565b90358252600786528282206001600160a01b039091168252855220549151911615158152f35b83903461013e57602036600319011261013e57356001600160a01b0381169081900361013e57610766610976565b6001600160601b0360a01b600b541617600b5580f35b50503461013e57602036600319011261013e5760209181906001600160a01b036107a461094a565b1681526008845220549051908152f35b8334610237576103016107c636610916565b916107cf610a4b565b6107d7610a8f565b3333610b3e565b90503461020a576020908160031936011261035f57803590338552600a835261080c60ff85872054166109ce565b8185526006835260ff848620541661084e57908161082d6006949354610a26565b80915585526005825280848620558452528120600160ff1982541617905580f35b835162461bcd60e51b81529081018390526024808201527f5265776172644469737472696275746f723a20726f6f7420616c7265616479206044820152631d5cd95960e21b6064820152608490fd5b90503461020a578260031936011261020a5760209250549051908152f35b84903461013e578160031936011261013e57600b546001600160a01b03168152602090f35b9181601f840112156109115782359167ffffffffffffffff8311610911576020808501948460051b01011161091157565b600080fd5b90604060031983011261091157600435916024359067ffffffffffffffff821161091157610946916004016108e0565b9091565b600435906001600160a01b038216820361091157565b602435906001600160a01b038216820361091157565b6002546001600160a01b0316330361098a57565b606460405162461bcd60e51b815260206004820152602060248201527f4f776e61626c653a2063616c6c6572206973206e6f7420746865206f776e65726044820152fd5b156109d557565b60405162461bcd60e51b8152602060048201526024808201527f5265776172644469737472696275746f723a2068616e646c657220666f726269604482015263323232b760e11b6064820152608490fd5b6000198114610a355760010190565b634e487b7160e01b600052601160045260246000fd5b60ff60005416610a5757565b60405162461bcd60e51b815260206004820152601060248201526f14185d5cd8589b194e881c185d5cd95960821b6044820152606490fd5b600260015414610aa0576002600155565b60405162461bcd60e51b815260206004820152601f60248201527f5265656e7472616e637947756172643a207265656e7472616e742063616c6c006044820152606490fd5b67ffffffffffffffff8111610af957604052565b634e487b7160e01b600052604160045260246000fd5b90601f8019910116810190811067ffffffffffffffff821117610af957604052565b91908201809211610a3557565b93909360045494600091868352602093600785526040968785209660018060a01b039384811698898852885260ff8a88205416610ca25790610b81939291610d3a565b979015610c5e578352600784528583208584528452858320600160ff1982541617905560088452858320610bb6888254610b31565b9055610bc487600954610b31565b6009556003541690813b1561020a5785516340c10f1960e01b81526001600160a01b0391909116600482015260248101879052919081908390604490829084905af1908115610c535750907f34fcbac0073d7c3d388e51312faf357774904998eeb8fca628b9e6f65ee1cbf79291610c44575b506004549351858152a390565b610c4d90610ae5565b38610c37565b8551903d90823e3d90fd5b865162461bcd60e51b815260048101869052601f60248201527f5265776172644469737472696275746f723a2063616e6e6f7420636c61696d006044820152606490fd5b895162461bcd60e51b815260048101899052602260248201527f5265776172644469737472696275746f723a20616c726561647920636c61696d604482015261195960f21b6064820152608490fd5b60ff6000541615610cfe57565b60405162461bcd60e51b815260206004820152601460248201527314185d5cd8589b194e881b9bdd081c185d5cd95960621b6044820152606490fd5b9293909160409182516020908181019260018060a01b038816976001600160601b03199060601b16845286603483015260348252606082019667ffffffffffffffff988389108a8a1117610af9578a958989528451902060045490600098828a5260059c8d89528b8b20549911610eaf578d610dc48e9f8e9f9e9a9b9c9d9e1b998b8b0190610b0f565b8d5260809788880190820191368311610eab578a90915b838310610e9b57505050509789985b8c518a1015610e2b57898e1b87018801519081811015610e1b578b528852610e158b8b205b99610a26565b98610dea565b908b528852610e158b8b20610e0f565b949b5094509450949550969598501490811591610e7f575b5015610e5157505050508190565b855260089052832054810392908311610e6b575060019190565b634e487b7160e01b81526011600452602490fd5b8752506007825282862081875282528286205460ff1638610e43565b82358152918101918b9101610ddb565b8c80fd5b634e487b7160e01b8a52604160045260248afdfea2646970667358221220c6764af150afc3171dfa463263c1d443cb0f138c7caab41cce7bfd8ab7500fa664736f6c63430008110033",
  "devdoc": {
    "kind": "dev",
    "methods": {
      "owner()": {
        "details": "Returns the address of the current owner."
      },
      "paused()": {
        "details": "Returns true if the contract is paused, and false otherwise."
      },
      "renounceOwnership()": {
        "details": "Leaves the contract without owner. It will not be possible to call `onlyOwner` functions. Can only be called by the current owner. NOTE: Renouncing ownership will leave the contract without an owner, thereby disabling any functionality that is only available to the owner."
      },
      "transferOwnership(address)": {
        "details": "Transfers ownership of the contract to a new account (`newOwner`). Can only be called by the current owner."
      }
    },
    "version": 1
  },
  "userdoc": {
    "kind": "user",
    "methods": {},
    "version": 1
  },
  "storageLayout": {
    "storage": [
      {
        "astId": 299,
        "contract": "contracts/earn/RewardDistributor.sol:RewardDistributor",
        "label": "_paused",
        "offset": 0,
        "slot": "0",
        "type": "t_bool"
      },
      {
        "astId": 400,
        "contract": "contracts/earn/RewardDistributor.sol:RewardDistributor",
        "label": "_status",
        "offset": 0,
        "slot": "1",
        "type": "t_uint256"
      },
      {
        "astId": 7,
        "contract": "contracts/earn/RewardDistributor.sol:RewardDistributor",
        "label": "_owner",
        "offset": 0,
        "slot": "2",
        "type": "t_address"
      },
      {
        "astId": 5026,
        "contract": "contracts/earn/RewardDistributor.sol:RewardDistributor",
        "label": "rewardToken",
        "offset": 0,
        "slot": "3",
        "type": "t_address"
      },
      {
        "astId": 5028,
        "contract": "contracts/earn/RewardDistributor.sol:RewardDistributor",
        "label": "round",
        "offset": 0,
        "slot": "4",
        "type": "t_uint256"
      },
      {
        "astId": 5032,
        "contract": "contracts/earn/RewardDistributor.sol:RewardDistributor",
        "label": "merkleRoots",
        "offset": 0,
        "slot": "5",
        "type": "t_mapping(t_uint256,t_bytes32)"
      },
      {
        "astId": 5036,
        "contract": "contracts/earn/RewardDistributor.sol:RewardDistributor",
        "label": "merkleRootUsed",
        "offset": 0,
        "slot": "6",
        "type": "t_mapping(t_bytes32,t_bool)"
      },
      {
        "astId": 5042,
        "contract": "contracts/earn/RewardDistributor.sol:RewardDistributor",
        "label": "userClaimed",
        "offset": 0,
        "slot": "7",
        "type": "t_mapping(t_uint256,t_mapping(t_address,t_bool))"
      },
      {
        "astId": 5046,
        "contract": "contracts/earn/RewardDistributor.sol:RewardDistributor",
        "label": "userClaimedAmount",
        "offset": 0,
        "slot": "8",
        "type": "t_mapping(t_address,t_uint256)"
      },
      {
        "astId": 5048,
        "contract": "contracts/earn/RewardDistributor.sol:RewardDistributor",
        "label": "totalClaimed",
        "offset": 0,
        "slot": "9",
        "type": "t_uint256"
      },
      {
        "astId": 5052,
        "contract": "contracts/earn/RewardDistributor.sol:RewardDistributor",
        "label": "isHandler",
        "offset": 0,
        "slot": "10",
        "type": "t_mapping(t_address,t_bool)"
      },
      {
        "astId": 5055,
        "contract": "contracts/earn/RewardDistributor.sol:RewardDistributor",
        "label": "stakingPool",
        "offset": 0,
        "slot": "11",
        "type": "t_contract(IStakingPool)7032"
      }
    ],
    "types": {
      "t_address": {
        "encoding": "inplace",
        "label": "address",
        "numberOfBytes": "20"
      },
      "t_bool": {
        "encoding": "inplace",
        "label": "bool",
        "numberOfBytes": "1"
      },
      "t_bytes32": {
        "encoding": "inplace",
        "label": "bytes32",
        "numberOfBytes": "32"
      },
      "t_contract(IStakingPool)7032": {
        "encoding": "inplace",
        "label": "contract IStakingPool",
        "numberOfBytes": "20"
      },
      "t_mapping(t_address,t_bool)": {
        "encoding": "mapping",
        "key": "t_address",
        "label": "mapping(address => bool)",
        "numberOfBytes": "32",
        "value": "t_bool"
      },
      "t_mapping(t_address,t_uint256)": {
        "encoding": "mapping",
        "key": "t_address",
        "label": "mapping(address => uint256)",
        "numberOfBytes": "32",
        "value": "t_uint256"
      },
      "t_mapping(t_bytes32,t_bool)": {
        "encoding": "mapping",
        "key": "t_bytes32",
        "label": "mapping(bytes32 => bool)",
        "numberOfBytes": "32",
        "value": "t_bool"
      },
      "t_mapping(t_uint256,t_bytes32)": {
        "encoding": "mapping",
        "key": "t_uint256",
        "label": "mapping(uint256 => bytes32)",
        "numberOfBytes": "32",
        "value": "t_bytes32"
      },
      "t_mapping(t_uint256,t_mapping(t_address,t_bool))": {
        "encoding": "mapping",
        "key": "t_uint256",
        "label": "mapping(uint256 => mapping(address => bool))",
        "numberOfBytes": "32",
        "value": "t_mapping(t_address,t_bool)"
      },
      "t_uint256": {
        "encoding": "inplace",
        "label": "uint256",
        "numberOfBytes": "32"
      }
    }
  }
}