{
  "address": "0xe7f1725E7734CE288F8367e1Bb143E90bb3F0512",
  "abi": [
    {
      "inputs": [
        {
          "internalType": "contract Ownable",
          "name": "provider",
          "type": "address"
        }
      ],
      "stateMutability": "nonpayable",
      "type": "constructor"
    },
    {
      "anonymous": false,
      "inputs": [
        {
          "indexed": true,
          "internalType": "bytes32",
          "name": "role",
          "type": "bytes32"
        },
        {
          "indexed": true,
          "internalType": "bytes32",
          "name": "previousAdminRole",
          "type": "bytes32"
        },
        {
          "indexed": true,
          "internalType": "bytes32",
          "name": "newAdminRole",
          "type": "bytes32"
        }
      ],
      "name": "RoleAdminChanged",
      "type": "event"
    },
    {
      "anonymous": false,
      "inputs": [
        {
          "indexed": true,
          "internalType": "bytes32",
          "name": "role",
          "type": "bytes32"
        },
        {
          "indexed": true,
          "internalType": "address",
          "name": "account",
          "type": "address"
        },
        {
          "indexed": true,
          "internalType": "address",
          "name": "sender",
          "type": "address"
        }
      ],
      "name": "RoleGranted",
      "type": "event"
    },
    {
      "anonymous": false,
      "inputs": [
        {
          "indexed": true,
          "internalType": "bytes32",
          "name": "role",
          "type": "bytes32"
        },
        {
          "indexed": true,
          "internalType": "address",
          "name": "account",
          "type": "address"
        },
        {
          "indexed": true,
          "internalType": "address",
          "name": "sender",
          "type": "address"
        }
      ],
      "name": "RoleRevoked",
      "type": "event"
    },
    {
      "inputs": [],
      "name": "DEFAULT_ADMIN_ROLE",
      "outputs": [
        {
          "internalType": "bytes32",
          "name": "",
          "type": "bytes32"
        }
      ],
      "stateMutability": "view",
      "type": "function"
    },
    {
      "inputs": [],
      "name": "KEEPER_ROLE",
      "outputs": [
        {
          "internalType": "bytes32",
          "name": "",
          "type": "bytes32"
        }
      ],
      "stateMutability": "view",
      "type": "function"
    },
    {
      "inputs": [],
      "name": "OPERATOR_ROLE",
      "outputs": [
        {
          "internalType": "bytes32",
          "name": "",
          "type": "bytes32"
        }
      ],
      "stateMutability": "view",
      "type": "function"
    },
    {
      "inputs": [],
      "name": "POOL_ADMIN_ROLE",
      "outputs": [
        {
          "internalType": "bytes32",
          "name": "",
          "type": "bytes32"
        }
      ],
      "stateMutability": "view",
      "type": "function"
    },
    {
      "inputs": [],
      "name": "TREASURER_ROLE",
      "outputs": [
        {
          "internalType": "bytes32",
          "name": "",
          "type": "bytes32"
        }
      ],
      "stateMutability": "view",
      "type": "function"
    },
    {
      "inputs": [
        {
          "internalType": "address",
          "name": "admin",
          "type": "address"
        }
      ],
      "name": "addAdmin",
      "outputs": [],
      "stateMutability": "nonpayable",
      "type": "function"
    },
    {
      "inputs": [
        {
          "internalType": "address",
          "name": "keeper",
          "type": "address"
        }
      ],
      "name": "addKeeper",
      "outputs": [],
      "stateMutability": "nonpayable",
      "type": "function"
    },
    {
      "inputs": [
        {
          "internalType": "address",
          "name": "operator",
          "type": "address"
        }
      ],
      "name": "addOperator",
      "outputs": [],
      "stateMutability": "nonpayable",
      "type": "function"
    },
    {
      "inputs": [
        {
          "internalType": "address",
          "name": "poolAdmin",
          "type": "address"
        }
      ],
      "name": "addPoolAdmin",
      "outputs": [],
      "stateMutability": "nonpayable",
      "type": "function"
    },
    {
      "inputs": [
        {
          "internalType": "address",
          "name": "treasurer",
          "type": "address"
        }
      ],
      "name": "addTreasurer",
      "outputs": [],
      "stateMutability": "nonpayable",
      "type": "function"
    },
    {
      "inputs": [
        {
          "internalType": "bytes32",
          "name": "role",
          "type": "bytes32"
        }
      ],
      "name": "getRoleAdmin",
      "outputs": [
        {
          "internalType": "bytes32",
          "name": "",
          "type": "bytes32"
        }
      ],
      "stateMutability": "view",
      "type": "function"
    },
    {
      "inputs": [
        {
          "internalType": "bytes32",
          "name": "role",
          "type": "bytes32"
        },
        {
          "internalType": "address",
          "name": "account",
          "type": "address"
        }
      ],
      "name": "grantRole",
      "outputs": [],
      "stateMutability": "nonpayable",
      "type": "function"
    },
    {
      "inputs": [
        {
          "internalType": "bytes32",
          "name": "role",
          "type": "bytes32"
        },
        {
          "internalType": "address",
          "name": "account",
          "type": "address"
        }
      ],
      "name": "hasRole",
      "outputs": [
        {
          "internalType": "bool",
          "name": "",
          "type": "bool"
        }
      ],
      "stateMutability": "view",
      "type": "function"
    },
    {
      "inputs": [
        {
          "internalType": "address",
          "name": "admin",
          "type": "address"
        }
      ],
      "name": "isAdmin",
      "outputs": [
        {
          "internalType": "bool",
          "name": "",
          "type": "bool"
        }
      ],
      "stateMutability": "view",
      "type": "function"
    },
    {
      "inputs": [
        {
          "internalType": "address",
          "name": "keeper",
          "type": "address"
        }
      ],
      "name": "isKeeper",
      "outputs": [
        {
          "internalType": "bool",
          "name": "",
          "type": "bool"
        }
      ],
      "stateMutability": "view",
      "type": "function"
    },
    {
      "inputs": [
        {
          "internalType": "address",
          "name": "operator",
          "type": "address"
        }
      ],
      "name": "isOperator",
      "outputs": [
        {
          "internalType": "bool",
          "name": "",
          "type": "bool"
        }
      ],
      "stateMutability": "view",
      "type": "function"
    },
    {
      "inputs": [
        {
          "internalType": "address",
          "name": "poolAdmin",
          "type": "address"
        }
      ],
      "name": "isPoolAdmin",
      "outputs": [
        {
          "internalType": "bool",
          "name": "",
          "type": "bool"
        }
      ],
      "stateMutability": "view",
      "type": "function"
    },
    {
      "inputs": [
        {
          "internalType": "address",
          "name": "treasurer",
          "type": "address"
        }
      ],
      "name": "isTreasurer",
      "outputs": [
        {
          "internalType": "bool",
          "name": "",
          "type": "bool"
        }
      ],
      "stateMutability": "view",
      "type": "function"
    },
    {
      "inputs": [
        {
          "internalType": "address",
          "name": "admin",
          "type": "address"
        }
      ],
      "name": "removeAdmin",
      "outputs": [],
      "stateMutability": "nonpayable",
      "type": "function"
    },
    {
      "inputs": [
        {
          "internalType": "address",
          "name": "keeper",
          "type": "address"
        }
      ],
      "name": "removeKeeper",
      "outputs": [],
      "stateMutability": "nonpayable",
      "type": "function"
    },
    {
      "inputs": [
        {
          "internalType": "address",
          "name": "operator",
          "type": "address"
        }
      ],
      "name": "removeOperator",
      "outputs": [],
      "stateMutability": "nonpayable",
      "type": "function"
    },
    {
      "inputs": [
        {
          "internalType": "address",
          "name": "poolAdmin",
          "type": "address"
        }
      ],
      "name": "removePoolAdmin",
      "outputs": [],
      "stateMutability": "nonpayable",
      "type": "function"
    },
    {
      "inputs": [
        {
          "internalType": "address",
          "name": "treasurer",
          "type": "address"
        }
      ],
      "name": "removeTreasurer",
      "outputs": [],
      "stateMutability": "nonpayable",
      "type": "function"
    },
    {
      "inputs": [
        {
          "internalType": "bytes32",
          "name": "role",
          "type": "bytes32"
        },
        {
          "internalType": "address",
          "name": "account",
          "type": "address"
        }
      ],
      "name": "renounceRole",
      "outputs": [],
      "stateMutability": "nonpayable",
      "type": "function"
    },
    {
      "inputs": [
        {
          "internalType": "bytes32",
          "name": "role",
          "type": "bytes32"
        },
        {
          "internalType": "address",
          "name": "account",
          "type": "address"
        }
      ],
      "name": "revokeRole",
      "outputs": [],
      "stateMutability": "nonpayable",
      "type": "function"
    },
    {
      "inputs": [
        {
          "internalType": "bytes32",
          "name": "role",
          "type": "bytes32"
        },
        {
          "internalType": "bytes32",
          "name": "adminRole",
          "type": "bytes32"
        }
      ],
      "name": "setRoleAdmin",
      "outputs": [],
      "stateMutability": "nonpayable",
      "type": "function"
    },
    {
      "inputs": [
        {
          "internalType": "bytes4",
          "name": "interfaceId",
          "type": "bytes4"
        }
      ],
      "name": "supportsInterface",
      "outputs": [
        {
          "internalType": "bool",
          "name": "",
          "type": "bool"
        }
      ],
      "stateMutability": "view",
      "type": "function"
    }
  ],
  "transactionHash": "0x03aa1a830799eae1d0ecfd60536c5cc537aa625d490c6ebf924e27998845bffa",
  "args": [
    "0x5FbDB2315678afecb367f032d93F642f64180aa3"
  ],
  "numDeployments": 1,
  "solcInputHash": "a747a9dbf9f336ed76268b3b4081867a",
  "bytecode": "0x608060409080825234620001b55780620013458038038091620000238285620001ba565b8339602092839181010312620001b557516001600160a01b038082169291839003620001b5578351638da5cb5b60e01b808252908381600481885afa8015620001aa57839160009162000188575b5016156200015e578290600486518096819382525afa92831562000153576000936200011d575b5060008052600082528360002092169182600052815260ff83600020541615620000cc575b825161112f9081620002168239f35b60008052600081528260002090826000525281600020600160ff19825416179055339060007f2f8788117e7eff1d82e926ec794901d17c78024a50270940304540a733656f0d8180a43880620000bd565b62000143919350823d84116200014b575b6200013a8183620001ba565b810190620001f4565b913862000098565b503d6200012e565b84513d6000823e3d90fd5b845162461bcd60e51b815260048082018590526024820152630697320360e41b6044820152606490fd5b620001a39150853d87116200014b576200013a8183620001ba565b3862000071565b86513d6000823e3d90fd5b600080fd5b601f909101601f19168101906001600160401b03821190821017620001de57604052565b634e487b7160e01b600052604160045260246000fd5b90816020910312620001b557516001600160a01b0381168103620001b5579056fe608060408181526004918236101561001657600080fd5b600092833560e01c91826301ffc9a714610c185750816314ae9f2e14610bd55781631785f53c14610b335781631e4e0091146108e857816322650caf146108a5578163248a9ca31461087b57816324d7806c146108365781632f2ff15d1461078d578163364bc15a1461076457816336568abe146106d25781634032b72b1461068f5781636ba42aaa1461063c5781636d70f7ae146105e957816370480275146105435781637be53ca1146104f057816391d14854146104aa57816396f0248a146104675781639870d7fe14610424578163a217fddf14610409578163ab56a29c14610353578163ac8a584a14610310578163b8f6dba7146102e7578163cc0d50e614610294578163d547741f1461025657508063f0a3a97c1461022e578063f5b541a6146102065763f83695cb1461014e57600080fd5b3461020257602090816003193601126101fe57610169610c6b565b9060008051602061107a8339815191529283855284815261018f60018387200154610c9c565b8385528481528185206001600160a01b039093168086529281528185205460ff166101b8578480f35b83855284815281852083865290528320805460ff1916905533917ff6391f5c32d9c69d2a47ea670b442974b53935d1edc7fd64eb21e047a839171b8480a4388080808480f35b8280fd5b5080fd5b5034610202578160031936011261020257602090516000805160206110da8339815191528152f35b50346102025781600319360112610202576020905160008051602061109a8339815191528152f35b919050346101fe57806003193601126101fe57610291913561028c600161027b610c86565b938387528660205286200154610c9c565b610ecf565b80f35b5050346102025760203660031901126102025760ff816020936102b5610c6b565b60008051602061109a83398151915282528186528282206001600160a01b039091168252855220549151911615158152f35b5050346102025781600319360112610202576020905160008051602061107a8339815191528152f35b50503461020257602090816003193601126101fe5761032d610c6b565b906000805160206110da8339815191529283855284815261018f60018387200154610c9c565b50503461020257602090816003193601126101fe57610370610c6b565b9060008051602061109a8339815191529283855284815261039660018387200154610c9c565b8385528481528185206001600160a01b039093168086529281528185205460ff16156103c0578480f35b83855284815281852083865290528320805460ff1916600117905533917f2f8788117e7eff1d82e926ec794901d17c78024a50270940304540a733656f0d8480a4388080808480f35b50503461020257816003193601126102025751908152602090f35b50503461020257602090816003193601126101fe57610441610c6b565b906000805160206110da8339815191529283855284815261039660018387200154610c9c565b50503461020257602090816003193601126101fe57610484610c6b565b9060008051602061109a8339815191529283855284815261018f60018387200154610c9c565b9050346101fe57816003193601126101fe578160209360ff926104cb610c86565b903582528186528282206001600160a01b039091168252855220549151911615158152f35b5050346102025760203660031901126102025760ff81602093610511610c6b565b60008051602061107a83398151915282528186528282206001600160a01b039091168252855220549151911615158152f35b50503461020257602090816003193601126101fe57610560610c6b565b9183805283815261057660018386200154610c9c565b8380528381528184206001600160a01b039093168085529281528184205460ff16156105a0578380f35b83805283815281842083855290528220805460ff191660011790553390827f2f8788117e7eff1d82e926ec794901d17c78024a50270940304540a733656f0d8180a43880808380f35b5050346102025760203660031901126102025760ff8160209361060a610c6b565b6000805160206110da83398151915282528186528282206001600160a01b039091168252855220549151911615158152f35b5050346102025760203660031901126102025760ff8160209361065d610c6b565b6000805160206110ba83398151915282528186528282206001600160a01b039091168252855220549151911615158152f35b50503461020257602090816003193601126101fe576106ac610c6b565b906000805160206110ba8339815191529283855284815261039660018387200154610c9c565b839150346102025782600319360112610202576106ed610c86565b90336001600160a01b0383160361070957906102919135610ecf565b608490602085519162461bcd60e51b8352820152602f60248201527f416363657373436f6e74726f6c3a2063616e206f6e6c792072656e6f756e636560448201526e103937b632b9903337b91039b2b63360891b6064820152fd5b505034610202578160031936011261020257602090516000805160206110ba8339815191528152f35b9050346101fe57816003193601126101fe5735906107a9610c86565b90828452836020526107c060018286200154610c9c565b82845260208481528185206001600160a01b039093168086529290528084205460ff16156107ec578380f35b828452836020528084208285526020528320600160ff1982541617905533917f2f8788117e7eff1d82e926ec794901d17c78024a50270940304540a733656f0d8480a43880808380f35b5050346102025760203660031901126102025760ff81602093610857610c6b565b8180528186528282206001600160a01b039091168252855220549151911615158152f35b9050346101fe5760203660031901126101fe57816020936001923581528085522001549051908152f35b50503461020257602090816003193601126101fe576108c2610c6b565b9060008051602061107a8339815191529283855284815261039660018387200154610c9c565b919050346101fe57806003193601126101fe5781356024803593858052602091868352848720338852835260ff85882054161561095b575050818552849052908320600101805490839055907fbd79b86ffe0ab8e8776151514217cd7cacd52c909f66475c3af44e129f0b00ff8480a480f35b848761096633610f6a565b8251908261097383610e7b565b60428352878301936060368637835115610b215760308553835190600191821015610b0f5790607860218601536041915b818311610aa657505050610a665783610a37604889610a589660449a9996610a286109ff9776020b1b1b2b9b9a1b7b73a3937b61d1030b1b1b7bab73a1604d1b9b5198858a9687019d8e528251928391603789019101610e58565b8401917001034b99036b4b9b9b4b733903937b6329607d1b603784015251809386840190610e58565b01036028810185520183610ead565b5196879562461bcd60e51b8752860152519283809286015285850190610e58565b601f01601f19168101030190fd5b60648688878188519362461bcd60e51b85528401528201527f537472696e67733a20686578206c656e67746820696e73756666696369656e746044820152fd5b909192600f81166010811015610afd576f181899199a1a9b1b9c1cb0b131b232b360811b901a610ad68588610f43565b53891c928015610aeb576000190191906109a4565b634e487b7160e01b825260118a528882fd5b634e487b7160e01b835260328b528983fd5b634e487b7160e01b8152603289528790fd5b634e487b7160e01b8152603288528690fd5b50503461020257602090816003193601126101fe57610b50610c6b565b91838052838152610b6660018386200154610c9c565b8380528381528184206001600160a01b039093168085529281528184205460ff16610b8f578380f35b83805283815281842083855290528220805460ff191690553390827ff6391f5c32d9c69d2a47ea670b442974b53935d1edc7fd64eb21e047a839171b8180a43880808380f35b50503461020257602090816003193601126101fe57610bf2610c6b565b906000805160206110ba8339815191529283855284815261018f60018387200154610c9c565b8491346101fe5760203660031901126101fe573563ffffffff60e01b81168091036101fe5760209250637965db0b60e01b8114908115610c5a575b5015158152f35b6301ffc9a760e01b14905083610c53565b600435906001600160a01b0382168203610c8157565b600080fd5b602435906001600160a01b0382168203610c8157565b60008181526020818152604092838320338452825260ff848420541615610cc35750505050565b610ccc33610f6a565b90845190610cd982610e7b565b60428252838201946060368737825115610e445760308653825190600191821015610e445790607860218501536041915b818311610dd657505050610d945784610d706048610a58936044979851988991610d618984019876020b1b1b2b9b9a1b7b73a3937b61d1030b1b1b7bab73a1604d1b8a526109ff815180928d603789019101610e58565b01036028810189520187610ead565b5194859362461bcd60e51b8552600485015251809281602486015285850190610e58565b60648386519062461bcd60e51b825280600483015260248201527f537472696e67733a20686578206c656e67746820696e73756666696369656e746044820152fd5b909192600f81166010811015610e30576f181899199a1a9b1b9c1cb0b131b232b360811b901a610e068587610f43565b5360041c928015610e1c57600019019190610d0a565b634e487b7160e01b82526011600452602482fd5b634e487b7160e01b83526032600452602483fd5b634e487b7160e01b81526032600452602490fd5b60005b838110610e6b5750506000910152565b8181015183820152602001610e5b565b6080810190811067ffffffffffffffff821117610e9757604052565b634e487b7160e01b600052604160045260246000fd5b90601f8019910116810190811067ffffffffffffffff821117610e9757604052565b9060009180835282602052604083209160018060a01b03169182845260205260ff604084205416610eff57505050565b80835282602052604083208284526020526040832060ff1981541690557ff6391f5c32d9c69d2a47ea670b442974b53935d1edc7fd64eb21e047a839171b339380a4565b908151811015610f54570160200190565b634e487b7160e01b600052603260045260246000fd5b604051906060820182811067ffffffffffffffff821117610e9757604052602a8252602082016040368237825115610f5457603090538151600190811015610f5457607860218401536029905b80821161100b575050610fc75790565b606460405162461bcd60e51b815260206004820152602060248201527f537472696e67733a20686578206c656e67746820696e73756666696369656e746044820152fd5b9091600f81166010811015611064576f181899199a1a9b1b9c1cb0b131b232b360811b901a61103a8486610f43565b5360041c91801561104f576000190190610fb7565b60246000634e487b7160e01b81526011600452fd5b60246000634e487b7160e01b81526032600452fdfe12ad05bde78c5ab75238ce885307f96ecd482bb402ef831f99e7018a0f169b7b3496e2e73c4d42b75d702e60d9e48102720b8691234415963a5a857b86425d07fc8737ab85eb45125971625a9ebdb75cc78e01d5c1fa80c4c6e5203f47bc4fab97667070c54ef182b0f5858b034beac1b6f3089aa2d3188bb1e8929f4fa9b929a26469706673582212201a5e3e6a75423ecdeb0de3b5c9e508c8553ac527c13cb1cff762b7dcaa6473a064736f6c63430008110033",
  "devdoc": {
    "kind": "dev",
    "methods": {
      "getRoleAdmin(bytes32)": {
        "details": "Returns the admin role that controls `role`. See {grantRole} and {revokeRole}. To change a role's admin, use {_setRoleAdmin}."
      },
      "grantRole(bytes32,address)": {
        "details": "Grants `role` to `account`. If `account` had not been already granted `role`, emits a {RoleGranted} event. Requirements: - the caller must have ``role``'s admin role. May emit a {RoleGranted} event."
      },
      "hasRole(bytes32,address)": {
        "details": "Returns `true` if `account` has been granted `role`."
      },
      "renounceRole(bytes32,address)": {
        "details": "Revokes `role` from the calling account. Roles are often managed via {grantRole} and {revokeRole}: this function's purpose is to provide a mechanism for accounts to lose their privileges if they are compromised (such as when a trusted device is misplaced). If the calling account had been revoked `role`, emits a {RoleRevoked} event. Requirements: - the caller must be `account`. May emit a {RoleRevoked} event."
      },
      "revokeRole(bytes32,address)": {
        "details": "Revokes `role` from `account`. If `account` had been granted `role`, emits a {RoleRevoked} event. Requirements: - the caller must have ``role``'s admin role. May emit a {RoleRevoked} event."
      },
      "supportsInterface(bytes4)": {
        "details": "See {IERC165-supportsInterface}."
      }
    },
    "version": 1
  },
  "userdoc": {
    "kind": "user",
    "methods": {},
    "version": 1
  },
  "storageLayout": {
    "storage": [
      {
        "astId": 607,
        "contract": "contracts/RoleManager.sol:RoleManager",
        "label": "_roles",
        "offset": 0,
        "slot": "0",
        "type": "t_mapping(t_bytes32,t_struct(RoleData)602_storage)"
      }
    ],
    "types": {
      "t_address": {
        "encoding": "inplace",
        "label": "address",
        "numberOfBytes": "20"
      },
      "t_bool": {
        "encoding": "inplace",
        "label": "bool",
        "numberOfBytes": "1"
      },
      "t_bytes32": {
        "encoding": "inplace",
        "label": "bytes32",
        "numberOfBytes": "32"
      },
      "t_mapping(t_address,t_bool)": {
        "encoding": "mapping",
        "key": "t_address",
        "label": "mapping(address => bool)",
        "numberOfBytes": "32",
        "value": "t_bool"
      },
      "t_mapping(t_bytes32,t_struct(RoleData)602_storage)": {
        "encoding": "mapping",
        "key": "t_bytes32",
        "label": "mapping(bytes32 => struct AccessControl.RoleData)",
        "numberOfBytes": "32",
        "value": "t_struct(RoleData)602_storage"
      },
      "t_struct(RoleData)602_storage": {
        "encoding": "inplace",
        "label": "struct AccessControl.RoleData",
        "members": [
          {
            "astId": 599,
            "contract": "contracts/RoleManager.sol:RoleManager",
            "label": "members",
            "offset": 0,
            "slot": "0",
            "type": "t_mapping(t_address,t_bool)"
          },
          {
            "astId": 601,
            "contract": "contracts/RoleManager.sol:RoleManager",
            "label": "adminRole",
            "offset": 0,
            "slot": "1",
            "type": "t_bytes32"
          }
        ],
        "numberOfBytes": "64"
      }
    }
  }
}