{
  "address": "0xe7f1725E7734CE288F8367e1Bb143E90bb3F0512",
  "abi": [
    {
      "inputs": [
        {
          "internalType": "contract Ownable",
          "name": "provider",
          "type": "address"
        }
      ],
      "stateMutability": "nonpayable",
      "type": "constructor"
    },
    {
      "anonymous": false,
      "inputs": [
        {
          "indexed": true,
          "internalType": "bytes32",
          "name": "role",
          "type": "bytes32"
        },
        {
          "indexed": true,
          "internalType": "bytes32",
          "name": "previousAdminRole",
          "type": "bytes32"
        },
        {
          "indexed": true,
          "internalType": "bytes32",
          "name": "newAdminRole",
          "type": "bytes32"
        }
      ],
      "name": "RoleAdminChanged",
      "type": "event"
    },
    {
      "anonymous": false,
      "inputs": [
        {
          "indexed": true,
          "internalType": "bytes32",
          "name": "role",
          "type": "bytes32"
        },
        {
          "indexed": true,
          "internalType": "address",
          "name": "account",
          "type": "address"
        },
        {
          "indexed": true,
          "internalType": "address",
          "name": "sender",
          "type": "address"
        }
      ],
      "name": "RoleGranted",
      "type": "event"
    },
    {
      "anonymous": false,
      "inputs": [
        {
          "indexed": true,
          "internalType": "bytes32",
          "name": "role",
          "type": "bytes32"
        },
        {
          "indexed": true,
          "internalType": "address",
          "name": "account",
          "type": "address"
        },
        {
          "indexed": true,
          "internalType": "address",
          "name": "sender",
          "type": "address"
        }
      ],
      "name": "RoleRevoked",
      "type": "event"
    },
    {
      "inputs": [],
      "name": "DEFAULT_ADMIN_ROLE",
      "outputs": [
        {
          "internalType": "bytes32",
          "name": "",
          "type": "bytes32"
        }
      ],
      "stateMutability": "view",
      "type": "function"
    },
    {
      "inputs": [],
      "name": "KEEPER_ROLE",
      "outputs": [
        {
          "internalType": "bytes32",
          "name": "",
          "type": "bytes32"
        }
      ],
      "stateMutability": "view",
      "type": "function"
    },
    {
      "inputs": [],
      "name": "OPERATOR_ROLE",
      "outputs": [
        {
          "internalType": "bytes32",
          "name": "",
          "type": "bytes32"
        }
      ],
      "stateMutability": "view",
      "type": "function"
    },
    {
      "inputs": [],
      "name": "POOL_ADMIN_ROLE",
      "outputs": [
        {
          "internalType": "bytes32",
          "name": "",
          "type": "bytes32"
        }
      ],
      "stateMutability": "view",
      "type": "function"
    },
    {
      "inputs": [],
      "name": "TREASURER_ROLE",
      "outputs": [
        {
          "internalType": "bytes32",
          "name": "",
          "type": "bytes32"
        }
      ],
      "stateMutability": "view",
      "type": "function"
    },
    {
      "inputs": [
        {
          "internalType": "address",
          "name": "admin",
          "type": "address"
        }
      ],
      "name": "addAdmin",
      "outputs": [],
      "stateMutability": "nonpayable",
      "type": "function"
    },
    {
      "inputs": [
        {
          "internalType": "address",
          "name": "keeper",
          "type": "address"
        }
      ],
      "name": "addKeeper",
      "outputs": [],
      "stateMutability": "nonpayable",
      "type": "function"
    },
    {
      "inputs": [
        {
          "internalType": "address",
          "name": "operator",
          "type": "address"
        }
      ],
      "name": "addOperator",
      "outputs": [],
      "stateMutability": "nonpayable",
      "type": "function"
    },
    {
      "inputs": [
        {
          "internalType": "address",
          "name": "poolAdmin",
          "type": "address"
        }
      ],
      "name": "addPoolAdmin",
      "outputs": [],
      "stateMutability": "nonpayable",
      "type": "function"
    },
    {
      "inputs": [
        {
          "internalType": "address",
          "name": "treasurer",
          "type": "address"
        }
      ],
      "name": "addTreasurer",
      "outputs": [],
      "stateMutability": "nonpayable",
      "type": "function"
    },
    {
      "inputs": [
        {
          "internalType": "bytes32",
          "name": "role",
          "type": "bytes32"
        }
      ],
      "name": "getRoleAdmin",
      "outputs": [
        {
          "internalType": "bytes32",
          "name": "",
          "type": "bytes32"
        }
      ],
      "stateMutability": "view",
      "type": "function"
    },
    {
      "inputs": [
        {
          "internalType": "bytes32",
          "name": "role",
          "type": "bytes32"
        },
        {
          "internalType": "address",
          "name": "account",
          "type": "address"
        }
      ],
      "name": "grantRole",
      "outputs": [],
      "stateMutability": "nonpayable",
      "type": "function"
    },
    {
      "inputs": [
        {
          "internalType": "bytes32",
          "name": "role",
          "type": "bytes32"
        },
        {
          "internalType": "address",
          "name": "account",
          "type": "address"
        }
      ],
      "name": "hasRole",
      "outputs": [
        {
          "internalType": "bool",
          "name": "",
          "type": "bool"
        }
      ],
      "stateMutability": "view",
      "type": "function"
    },
    {
      "inputs": [
        {
          "internalType": "address",
          "name": "admin",
          "type": "address"
        }
      ],
      "name": "isAdmin",
      "outputs": [
        {
          "internalType": "bool",
          "name": "",
          "type": "bool"
        }
      ],
      "stateMutability": "view",
      "type": "function"
    },
    {
      "inputs": [
        {
          "internalType": "address",
          "name": "keeper",
          "type": "address"
        }
      ],
      "name": "isKeeper",
      "outputs": [
        {
          "internalType": "bool",
          "name": "",
          "type": "bool"
        }
      ],
      "stateMutability": "view",
      "type": "function"
    },
    {
      "inputs": [
        {
          "internalType": "address",
          "name": "operator",
          "type": "address"
        }
      ],
      "name": "isOperator",
      "outputs": [
        {
          "internalType": "bool",
          "name": "",
          "type": "bool"
        }
      ],
      "stateMutability": "view",
      "type": "function"
    },
    {
      "inputs": [
        {
          "internalType": "address",
          "name": "poolAdmin",
          "type": "address"
        }
      ],
      "name": "isPoolAdmin",
      "outputs": [
        {
          "internalType": "bool",
          "name": "",
          "type": "bool"
        }
      ],
      "stateMutability": "view",
      "type": "function"
    },
    {
      "inputs": [
        {
          "internalType": "address",
          "name": "treasurer",
          "type": "address"
        }
      ],
      "name": "isTreasurer",
      "outputs": [
        {
          "internalType": "bool",
          "name": "",
          "type": "bool"
        }
      ],
      "stateMutability": "view",
      "type": "function"
    },
    {
      "inputs": [
        {
          "internalType": "address",
          "name": "admin",
          "type": "address"
        }
      ],
      "name": "removeAdmin",
      "outputs": [],
      "stateMutability": "nonpayable",
      "type": "function"
    },
    {
      "inputs": [
        {
          "internalType": "address",
          "name": "keeper",
          "type": "address"
        }
      ],
      "name": "removeKeeper",
      "outputs": [],
      "stateMutability": "nonpayable",
      "type": "function"
    },
    {
      "inputs": [
        {
          "internalType": "address",
          "name": "operator",
          "type": "address"
        }
      ],
      "name": "removeOperator",
      "outputs": [],
      "stateMutability": "nonpayable",
      "type": "function"
    },
    {
      "inputs": [
        {
          "internalType": "address",
          "name": "poolAdmin",
          "type": "address"
        }
      ],
      "name": "removePoolAdmin",
      "outputs": [],
      "stateMutability": "nonpayable",
      "type": "function"
    },
    {
      "inputs": [
        {
          "internalType": "address",
          "name": "treasurer",
          "type": "address"
        }
      ],
      "name": "removeTreasurer",
      "outputs": [],
      "stateMutability": "nonpayable",
      "type": "function"
    },
    {
      "inputs": [
        {
          "internalType": "bytes32",
          "name": "role",
          "type": "bytes32"
        },
        {
          "internalType": "address",
          "name": "account",
          "type": "address"
        }
      ],
      "name": "renounceRole",
      "outputs": [],
      "stateMutability": "nonpayable",
      "type": "function"
    },
    {
      "inputs": [
        {
          "internalType": "bytes32",
          "name": "role",
          "type": "bytes32"
        },
        {
          "internalType": "address",
          "name": "account",
          "type": "address"
        }
      ],
      "name": "revokeRole",
      "outputs": [],
      "stateMutability": "nonpayable",
      "type": "function"
    },
    {
      "inputs": [
        {
          "internalType": "bytes32",
          "name": "role",
          "type": "bytes32"
        },
        {
          "internalType": "bytes32",
          "name": "adminRole",
          "type": "bytes32"
        }
      ],
      "name": "setRoleAdmin",
      "outputs": [],
      "stateMutability": "nonpayable",
      "type": "function"
    },
    {
      "inputs": [
        {
          "internalType": "bytes4",
          "name": "interfaceId",
          "type": "bytes4"
        }
      ],
      "name": "supportsInterface",
      "outputs": [
        {
          "internalType": "bool",
          "name": "",
          "type": "bool"
        }
      ],
      "stateMutability": "view",
      "type": "function"
    }
  ],
  "transactionHash": "0x1e11202fc446cd9c98193cf20c46a19e47a387b12796fc383ef82ed6ef35abe0",
  "args": [
    "0x5FbDB2315678afecb367f032d93F642f64180aa3"
  ],
  "numDeployments": 1,
  "solcInputHash": "d12abf55450080ab9ed90de90073e0f7",
  "bytecode": "0x608060409080825234620001b55780620013008038038091620000238285620001ba565b8339602092839181010312620001b557516001600160a01b038082169291839003620001b5578351638da5cb5b60e01b808252908381600481885afa8015620001aa57839160009162000188575b5016156200015e578290600486518096819382525afa92831562000153576000936200011d575b5060008052600082528360002092169182600052815260ff83600020541615620000cc575b82516110ea9081620002168239f35b60008052600081528260002090826000525281600020600160ff19825416179055339060007f2f8788117e7eff1d82e926ec794901d17c78024a50270940304540a733656f0d8180a43880620000bd565b62000143919350823d84116200014b575b6200013a8183620001ba565b810190620001f4565b913862000098565b503d6200012e565b84513d6000823e3d90fd5b845162461bcd60e51b815260048082018590526024820152630697320360e41b6044820152606490fd5b620001a39150853d87116200014b576200013a8183620001ba565b3862000071565b86513d6000823e3d90fd5b600080fd5b601f909101601f19168101906001600160401b03821190821017620001de57604052565b634e487b7160e01b600052604160045260246000fd5b90816020910312620001b557516001600160a01b0381168103620001b5579056fe608060408181526004918236101561001657600080fd5b600092833560e01c91826301ffc9a714610bac5750816314ae9f2e14610b695781631785f53c14610ad95781631e4e0091146108a057816322650caf1461085d578163248a9ca31461083357816324d7806c146107ee5781632f2ff15d14610757578163364bc15a1461072e57816336568abe1461069c5781634032b72b146106595781636ba42aaa146106065781636d70f7ae146105b3578163704802751461051f5781637be53ca1146104cc57816391d148541461048657816396f0248a146104435781639870d7fe14610400578163a217fddf146103e5578163ab56a29c14610341578163ac8a584a146102fe578163b8f6dba7146102d5578163cc0d50e614610282578163d547741f1461024457508063f0a3a97c1461021c578063f5b541a6146101f45763f83695cb1461014e57600080fd5b346101f057602090816003193601126101ec57610169610bff565b906000805160206110158339815191529283855284815261018f60018387200154610c30565b8385528481528185206001600160a01b039093168086529281528185205460ff166101b8578480f35b83855284815281852083865290528320805460ff1916905533916000805160206110958339815191528480a4388080808480f35b8280fd5b5080fd5b50346101f057816003193601126101f057602090516000805160206110758339815191528152f35b50346101f057816003193601126101f057602090516000805160206110358339815191528152f35b919050346101ec57806003193601126101ec5761027f913561027a6001610269610c1a565b938387528660205286200154610c30565b610e4f565b80f35b5050346101f05760203660031901126101f05760ff816020936102a3610bff565b60008051602061103583398151915282528186528282206001600160a01b039091168252855220549151911615158152f35b5050346101f057816003193601126101f057602090516000805160206110158339815191528152f35b5050346101f057602090816003193601126101ec5761031b610bff565b906000805160206110758339815191529283855284815261018f60018387200154610c30565b5050346101f057602090816003193601126101ec5761035e610bff565b906000805160206110358339815191529283855284815261038460018387200154610c30565b8385528481528185206001600160a01b039093168086529281528185205460ff16156103ae578480f35b83855284815281852083865290528320805460ff191660011790553391600080516020610fd58339815191528480a4388080808480f35b5050346101f057816003193601126101f05751908152602090f35b5050346101f057602090816003193601126101ec5761041d610bff565b906000805160206110758339815191529283855284815261038460018387200154610c30565b5050346101f057602090816003193601126101ec57610460610bff565b906000805160206110358339815191529283855284815261018f60018387200154610c30565b9050346101ec57816003193601126101ec578160209360ff926104a7610c1a565b903582528186528282206001600160a01b039091168252855220549151911615158152f35b5050346101f05760203660031901126101f05760ff816020936104ed610bff565b60008051602061101583398151915282528186528282206001600160a01b039091168252855220549151911615158152f35b5050346101f057602090816003193601126101ec5761053c610bff565b9183805283815261055260018386200154610c30565b8380528381528184206001600160a01b039093168085529281528184205460ff161561057c578380f35b83805283815281842083855290528220805460ff19166001179055339082600080516020610fd58339815191528180a43880808380f35b5050346101f05760203660031901126101f05760ff816020936105d4610bff565b60008051602061107583398151915282528186528282206001600160a01b039091168252855220549151911615158152f35b5050346101f05760203660031901126101f05760ff81602093610627610bff565b60008051602061105583398151915282528186528282206001600160a01b039091168252855220549151911615158152f35b5050346101f057602090816003193601126101ec57610676610bff565b906000805160206110558339815191529283855284815261038460018387200154610c30565b839150346101f057826003193601126101f0576106b7610c1a565b90336001600160a01b038316036106d3579061027f9135610e4f565b608490602085519162461bcd60e51b8352820152602f60248201527f416363657373436f6e74726f6c3a2063616e206f6e6c792072656e6f756e636560448201526e103937b632b9903337b91039b2b63360891b6064820152fd5b5050346101f057816003193601126101f057602090516000805160206110558339815191528152f35b9050346101ec57816003193601126101ec573590610773610c1a565b908284528360205261078a60018286200154610c30565b82845260208481528185206001600160a01b039093168086529290528084205460ff16156107b6578380f35b828452836020528084208285526020528320600160ff198254161790553391600080516020610fd58339815191528480a43880808380f35b5050346101f05760203660031901126101f05760ff8160209361080f610bff565b8180528186528282206001600160a01b039091168252855220549151911615158152f35b9050346101ec5760203660031901126101ec57816020936001923581528085522001549051908152f35b5050346101f057602090816003193601126101ec5761087a610bff565b906000805160206110158339815191529283855284815261038460018387200154610c30565b919050346101ec57806003193601126101ec5781356024803593858052602091868352848720338852835260ff858820541615610913575050818552849052908320600101805490839055907fbd79b86ffe0ab8e8776151514217cd7cacd52c909f66475c3af44e129f0b00ff8480a480f35b848761091e33610ed8565b8251908261092b83610dfd565b60428352878301936060368637835115610ac75760308553835190600191821015610ab55790607860218601536041915b818311610a4c57505050610a1e57836109ef604889610a109660449a99966109e06109b79776020b1b1b2b9b9a1b7b73a3937b61d1030b1b1b7bab73a1604d1b9b5198858a9687019d8e528251928391603789019101610dda565b8401917001034b99036b4b9b9b4b733903937b6329607d1b603784015251809386840190610dda565b01036028810185520183610e2e565b5196879562461bcd60e51b8752860152519283809286015285850190610dda565b601f01601f19168101030190fd5b60648688878188519362461bcd60e51b8552840152820152600080516020610ff58339815191526044820152fd5b909192600f81166010811015610aa3576f181899199a1a9b1b9c1cb0b131b232b360811b901a610a7c8588610eb1565b53891c928015610a915760001901919061095c565b634e487b7160e01b825260118a528882fd5b634e487b7160e01b835260328b528983fd5b634e487b7160e01b8152603289528790fd5b634e487b7160e01b8152603288528690fd5b5050346101f057602090816003193601126101ec57610af6610bff565b91838052838152610b0c60018386200154610c30565b8380528381528184206001600160a01b039093168085529281528184205460ff16610b35578380f35b83805283815281842083855290528220805460ff191690553390826000805160206110958339815191528180a43880808380f35b5050346101f057602090816003193601126101ec57610b86610bff565b906000805160206110558339815191529283855284815261018f60018387200154610c30565b8491346101ec5760203660031901126101ec573563ffffffff60e01b81168091036101ec5760209250637965db0b60e01b8114908115610bee575b5015158152f35b6301ffc9a760e01b14905083610be7565b600435906001600160a01b0382168203610c1557565b600080fd5b602435906001600160a01b0382168203610c1557565b60008181526020818152604092838320338452825260ff848420541615610c575750505050565b610c6033610ed8565b90845190610c6d82610dfd565b60428252838201946060368737825115610dc65760308653825190600191821015610dc65790607860218501536041915b818311610d5857505050610d285784610d046048610a10936044979851988991610cf58984019876020b1b1b2b9b9a1b7b73a3937b61d1030b1b1b7bab73a1604d1b8a526109b7815180928d603789019101610dda565b01036028810189520187610e2e565b5194859362461bcd60e51b8552600485015251809281602486015285850190610dda565b60648386519062461bcd60e51b82528060048301526024820152600080516020610ff58339815191526044820152fd5b909192600f81166010811015610db2576f181899199a1a9b1b9c1cb0b131b232b360811b901a610d888587610eb1565b5360041c928015610d9e57600019019190610c9e565b634e487b7160e01b82526011600452602482fd5b634e487b7160e01b83526032600452602483fd5b634e487b7160e01b81526032600452602490fd5b60005b838110610ded5750506000910152565b8181015183820152602001610ddd565b608081019081106001600160401b03821117610e1857604052565b634e487b7160e01b600052604160045260246000fd5b90601f801991011681019081106001600160401b03821117610e1857604052565b9060009180835282602052604083209160018060a01b03169182845260205260ff604084205416610e7f57505050565b80835282602052604083208284526020526040832060ff198154169055600080516020611095833981519152339380a4565b908151811015610ec2570160200190565b634e487b7160e01b600052603260045260246000fd5b60405190606082018281106001600160401b03821117610e1857604052602a8252602082016040368237825115610ec257603090538151600190811015610ec257607860218401536029905b808211610f66575050610f345790565b606460405162461bcd60e51b81526020600482015260206024820152600080516020610ff58339815191526044820152fd5b9091600f81166010811015610fbf576f181899199a1a9b1b9c1cb0b131b232b360811b901a610f958486610eb1565b5360041c918015610faa576000190190610f24565b60246000634e487b7160e01b81526011600452fd5b60246000634e487b7160e01b81526032600452fdfe2f8788117e7eff1d82e926ec794901d17c78024a50270940304540a733656f0d537472696e67733a20686578206c656e67746820696e73756666696369656e7412ad05bde78c5ab75238ce885307f96ecd482bb402ef831f99e7018a0f169b7b3496e2e73c4d42b75d702e60d9e48102720b8691234415963a5a857b86425d07fc8737ab85eb45125971625a9ebdb75cc78e01d5c1fa80c4c6e5203f47bc4fab97667070c54ef182b0f5858b034beac1b6f3089aa2d3188bb1e8929f4fa9b929f6391f5c32d9c69d2a47ea670b442974b53935d1edc7fd64eb21e047a839171ba264697066735822122000959b84872cbbd81cc090ccb7774921e75bd61a871375210481889aa3e11e9964736f6c63430008110033",
  "devdoc": {
    "kind": "dev",
    "methods": {
      "getRoleAdmin(bytes32)": {
        "details": "Returns the admin role that controls `role`. See {grantRole} and {revokeRole}. To change a role's admin, use {_setRoleAdmin}."
      },
      "grantRole(bytes32,address)": {
        "details": "Grants `role` to `account`. If `account` had not been already granted `role`, emits a {RoleGranted} event. Requirements: - the caller must have ``role``'s admin role. May emit a {RoleGranted} event."
      },
      "hasRole(bytes32,address)": {
        "details": "Returns `true` if `account` has been granted `role`."
      },
      "renounceRole(bytes32,address)": {
        "details": "Revokes `role` from the calling account. Roles are often managed via {grantRole} and {revokeRole}: this function's purpose is to provide a mechanism for accounts to lose their privileges if they are compromised (such as when a trusted device is misplaced). If the calling account had been revoked `role`, emits a {RoleRevoked} event. Requirements: - the caller must be `account`. May emit a {RoleRevoked} event."
      },
      "revokeRole(bytes32,address)": {
        "details": "Revokes `role` from `account`. If `account` had been granted `role`, emits a {RoleRevoked} event. Requirements: - the caller must have ``role``'s admin role. May emit a {RoleRevoked} event."
      },
      "supportsInterface(bytes4)": {
        "details": "See {IERC165-supportsInterface}."
      }
    },
    "version": 1
  },
  "userdoc": {
    "kind": "user",
    "methods": {},
    "version": 1
  },
  "storageLayout": {
    "storage": [
      {
        "astId": 607,
        "contract": "contracts/RoleManager.sol:RoleManager",
        "label": "_roles",
        "offset": 0,
        "slot": "0",
        "type": "t_mapping(t_bytes32,t_struct(RoleData)602_storage)"
      }
    ],
    "types": {
      "t_address": {
        "encoding": "inplace",
        "label": "address",
        "numberOfBytes": "20"
      },
      "t_bool": {
        "encoding": "inplace",
        "label": "bool",
        "numberOfBytes": "1"
      },
      "t_bytes32": {
        "encoding": "inplace",
        "label": "bytes32",
        "numberOfBytes": "32"
      },
      "t_mapping(t_address,t_bool)": {
        "encoding": "mapping",
        "key": "t_address",
        "label": "mapping(address => bool)",
        "numberOfBytes": "32",
        "value": "t_bool"
      },
      "t_mapping(t_bytes32,t_struct(RoleData)602_storage)": {
        "encoding": "mapping",
        "key": "t_bytes32",
        "label": "mapping(bytes32 => struct AccessControl.RoleData)",
        "numberOfBytes": "32",
        "value": "t_struct(RoleData)602_storage"
      },
      "t_struct(RoleData)602_storage": {
        "encoding": "inplace",
        "label": "struct AccessControl.RoleData",
        "members": [
          {
            "astId": 599,
            "contract": "contracts/RoleManager.sol:RoleManager",
            "label": "members",
            "offset": 0,
            "slot": "0",
            "type": "t_mapping(t_address,t_bool)"
          },
          {
            "astId": 601,
            "contract": "contracts/RoleManager.sol:RoleManager",
            "label": "adminRole",
            "offset": 0,
            "slot": "1",
            "type": "t_bytes32"
          }
        ],
        "numberOfBytes": "64"
      }
    }
  }
}