{
  "address": "0x3e7434d5b748d5b0d4b98EE7c673aBD1524E319f",
  "abi": [
    {
      "inputs": [
        {
          "internalType": "address",
          "name": "_weth",
          "type": "address"
        },
        {
          "internalType": "contract IAddressesProvider",
          "name": "addressProvider",
          "type": "address"
        },
        {
          "internalType": "contract IOrderManager",
          "name": "_orderManager",
          "type": "address"
        }
      ],
      "stateMutability": "nonpayable",
      "type": "constructor"
    },
    {
      "anonymous": false,
      "inputs": [
        {
          "indexed": false,
          "internalType": "address",
          "name": "oldAddress",
          "type": "address"
        },
        {
          "indexed": false,
          "internalType": "address",
          "name": "newAddress",
          "type": "address"
        }
      ],
      "name": "UpdateTradingRouter",
      "type": "event"
    },
    {
      "inputs": [],
      "name": "ADDRESS_PROVIDER",
      "outputs": [
        {
          "internalType": "contract IAddressesProvider",
          "name": "",
          "type": "address"
        }
      ],
      "stateMutability": "view",
      "type": "function"
    },
    {
      "inputs": [],
      "name": "WETH",
      "outputs": [
        {
          "internalType": "address",
          "name": "",
          "type": "address"
        }
      ],
      "stateMutability": "view",
      "type": "function"
    },
    {
      "inputs": [
        {
          "internalType": "uint256",
          "name": "pairIndex",
          "type": "uint256"
        },
        {
          "internalType": "bool",
          "name": "isLong",
          "type": "bool"
        }
      ],
      "name": "cancelAllPositionOrders",
      "outputs": [],
      "stateMutability": "nonpayable",
      "type": "function"
    },
    {
      "inputs": [
        {
          "internalType": "uint256",
          "name": "orderId",
          "type": "uint256"
        },
        {
          "internalType": "enum TradingTypes.TradeType",
          "name": "tradeType",
          "type": "uint8"
        }
      ],
      "name": "cancelDecreaseOrder",
      "outputs": [],
      "stateMutability": "nonpayable",
      "type": "function"
    },
    {
      "inputs": [
        {
          "internalType": "uint256",
          "name": "orderId",
          "type": "uint256"
        },
        {
          "internalType": "enum TradingTypes.TradeType",
          "name": "tradeType",
          "type": "uint8"
        }
      ],
      "name": "cancelIncreaseOrder",
      "outputs": [],
      "stateMutability": "nonpayable",
      "type": "function"
    },
    {
      "inputs": [
        {
          "internalType": "uint256",
          "name": "pairIndex",
          "type": "uint256"
        },
        {
          "internalType": "bool",
          "name": "isLong",
          "type": "bool"
        },
        {
          "internalType": "bool",
          "name": "isIncrease",
          "type": "bool"
        }
      ],
      "name": "cancelOrders",
      "outputs": [],
      "stateMutability": "nonpayable",
      "type": "function"
    },
    {
      "inputs": [
        {
          "components": [
            {
              "internalType": "address",
              "name": "account",
              "type": "address"
            },
            {
              "internalType": "uint256",
              "name": "pairIndex",
              "type": "uint256"
            },
            {
              "internalType": "enum TradingTypes.TradeType",
              "name": "tradeType",
              "type": "uint8"
            },
            {
              "internalType": "int256",
              "name": "collateral",
              "type": "int256"
            },
            {
              "internalType": "uint256",
              "name": "triggerPrice",
              "type": "uint256"
            },
            {
              "internalType": "uint256",
              "name": "sizeAmount",
              "type": "uint256"
            },
            {
              "internalType": "bool",
              "name": "isLong",
              "type": "bool"
            }
          ],
          "internalType": "struct TradingTypes.DecreasePositionRequest",
          "name": "request",
          "type": "tuple"
        }
      ],
      "name": "createDecreaseOrder",
      "outputs": [
        {
          "internalType": "uint256",
          "name": "",
          "type": "uint256"
        }
      ],
      "stateMutability": "nonpayable",
      "type": "function"
    },
    {
      "inputs": [
        {
          "components": [
            {
              "internalType": "address",
              "name": "account",
              "type": "address"
            },
            {
              "internalType": "uint256",
              "name": "pairIndex",
              "type": "uint256"
            },
            {
              "internalType": "enum TradingTypes.TradeType",
              "name": "tradeType",
              "type": "uint8"
            },
            {
              "internalType": "int256",
              "name": "collateral",
              "type": "int256"
            },
            {
              "internalType": "uint256",
              "name": "openPrice",
              "type": "uint256"
            },
            {
              "internalType": "bool",
              "name": "isLong",
              "type": "bool"
            },
            {
              "internalType": "uint256",
              "name": "sizeAmount",
              "type": "uint256"
            },
            {
              "internalType": "uint256",
              "name": "tpPrice",
              "type": "uint256"
            },
            {
              "internalType": "uint256",
              "name": "tp",
              "type": "uint256"
            },
            {
              "internalType": "uint256",
              "name": "slPrice",
              "type": "uint256"
            },
            {
              "internalType": "uint256",
              "name": "sl",
              "type": "uint256"
            }
          ],
          "internalType": "struct TradingTypes.IncreasePositionWithTpSlRequest",
          "name": "request",
          "type": "tuple"
        }
      ],
      "name": "createIncreaseOrder",
      "outputs": [
        {
          "internalType": "uint256",
          "name": "orderId",
          "type": "uint256"
        }
      ],
      "stateMutability": "nonpayable",
      "type": "function"
    },
    {
      "inputs": [
        {
          "components": [
            {
              "internalType": "address",
              "name": "account",
              "type": "address"
            },
            {
              "internalType": "uint256",
              "name": "pairIndex",
              "type": "uint256"
            },
            {
              "internalType": "enum TradingTypes.TradeType",
              "name": "tradeType",
              "type": "uint8"
            },
            {
              "internalType": "int256",
              "name": "collateral",
              "type": "int256"
            },
            {
              "internalType": "uint256",
              "name": "openPrice",
              "type": "uint256"
            },
            {
              "internalType": "bool",
              "name": "isLong",
              "type": "bool"
            },
            {
              "internalType": "uint256",
              "name": "sizeAmount",
              "type": "uint256"
            }
          ],
          "internalType": "struct TradingTypes.IncreasePositionRequest",
          "name": "request",
          "type": "tuple"
        }
      ],
      "name": "createIncreaseOrderWithoutTpSl",
      "outputs": [
        {
          "internalType": "uint256",
          "name": "orderId",
          "type": "uint256"
        }
      ],
      "stateMutability": "nonpayable",
      "type": "function"
    },
    {
      "inputs": [
        {
          "components": [
            {
              "internalType": "address",
              "name": "account",
              "type": "address"
            },
            {
              "internalType": "uint256",
              "name": "pairIndex",
              "type": "uint256"
            },
            {
              "internalType": "bool",
              "name": "isLong",
              "type": "bool"
            },
            {
              "internalType": "uint256",
              "name": "tpPrice",
              "type": "uint256"
            },
            {
              "internalType": "uint256",
              "name": "tp",
              "type": "uint256"
            },
            {
              "internalType": "uint256",
              "name": "slPrice",
              "type": "uint256"
            },
            {
              "internalType": "uint256",
              "name": "sl",
              "type": "uint256"
            }
          ],
          "internalType": "struct TradingTypes.CreateTpSlRequest",
          "name": "request",
          "type": "tuple"
        }
      ],
      "name": "createTpSl",
      "outputs": [
        {
          "internalType": "uint256",
          "name": "tpOrderId",
          "type": "uint256"
        },
        {
          "internalType": "uint256",
          "name": "slOrderId",
          "type": "uint256"
        }
      ],
      "stateMutability": "nonpayable",
      "type": "function"
    },
    {
      "inputs": [
        {
          "internalType": "bytes[]",
          "name": "data",
          "type": "bytes[]"
        }
      ],
      "name": "multicall",
      "outputs": [
        {
          "internalType": "bytes[]",
          "name": "results",
          "type": "bytes[]"
        }
      ],
      "stateMutability": "payable",
      "type": "function"
    },
    {
      "inputs": [],
      "name": "orderManager",
      "outputs": [
        {
          "internalType": "contract IOrderManager",
          "name": "",
          "type": "address"
        }
      ],
      "stateMutability": "view",
      "type": "function"
    },
    {
      "inputs": [
        {
          "internalType": "address",
          "name": "token",
          "type": "address"
        },
        {
          "internalType": "uint256",
          "name": "amountMinimum",
          "type": "uint256"
        },
        {
          "internalType": "address",
          "name": "recipient",
          "type": "address"
        }
      ],
      "name": "sweepToken",
      "outputs": [],
      "stateMutability": "payable",
      "type": "function"
    },
    {
      "inputs": [
        {
          "internalType": "uint256",
          "name": "amountMinimum",
          "type": "uint256"
        },
        {
          "internalType": "address",
          "name": "recipient",
          "type": "address"
        }
      ],
      "name": "unwrapWETH",
      "outputs": [],
      "stateMutability": "payable",
      "type": "function"
    },
    {
      "stateMutability": "payable",
      "type": "receive"
    }
  ],
  "transactionHash": "0x69d32f191e465331aba0a7f286cd2502540a6ecbdf01e92a24965b0d664b9b19",
  "args": [
    "0xA993eC9eA73031290862bd9D72f7b8168CAb039A",
    "0xb07fB1a2F76574FD5243C1aA25Bb992cE9490B9C",
    "0xeC672E5D027D456be20bE0DdB978e2925372B686"
  ],
  "numDeployments": 1,
  "solcInputHash": "76cda7cc02cbb84b9779c6e013b766cd",
  "bytecode": "0x60c0346100b957601f61202238819003918201601f19168301916001600160401b038311848410176100be578084926060946040528339810103126100b95780516001600160a01b03919082811681036100b95760208201519183831683036100b957604001519283168093036100b95760805260a052600080546001600160a01b031916919091179055604051611f4d90816100d58239608051818181610a5901528181610c7e0152610e05015260a051816105880152f35b600080fd5b634e487b7160e01b600052604160045260246000fdfe60806040526004361015610023575b361561001957600080fd5b610021610e03565b005b60003560e01c806306f83c8a1461013b57806311370bb7146101325780631848effa14610129578063191c2a05146101205780631d2bcd36146101175780639ce6228e1461010e578063ac9650d814610105578063ad5c4648146100fc578063cf46e09b146100f3578063d058558c146100ea578063df2ab5bb146100e1578063e16d9ce5146100d8578063e6535a35146100cf5763f9b6117f0361000e576100ca610dd9565b61000e565b506100ca610d5a565b506100ca610c48565b506100ca610b8d565b506100ca610b18565b506100ca610a88565b506100ca610a42565b506100ca610941565b506100ca61080e565b506100ca610661565b506100ca6105ce565b506100ca610571565b506100ca610332565b506100ca61016f565b8015150361014e57565b600080fd5b60c4359061016082610144565b565b60a4359061016082610144565b503461014e5760408060031936011261014e576024359061018f82610144565b61019d600492833533611856565b906101e3600080936101c46101b8835460018060a01b031690565b6001600160a01b031690565b8451634cc42b5160e01b81528781019283529384928391829160200190565b03915afa908115610325575b8391610303575b505b805180156102ff5761020c61021291611be5565b82611321565b516060810151156102ae578354610231906001600160a01b03166101b8565b608060a08301519201519161024583611343565b813b156102aa5791859161026e9383875180968195829463c250985960e01b84528d8401611acf565b03925af1801561029d575b610284575b506101f8565b8061029161029792610709565b80610566565b3861027e565b6102a5610e74565b610279565b8580fd5b83546102c2906001600160a01b03166101b8565b608060a0830151920151916102d683611343565b813b156102aa5791859161026e9383875180968195829463c250985960e01b84528d8401611aaf565b8380f35b61031f91503d8085833e6103178183610795565b810190611af6565b386101f6565b61032d610e74565b6101ef565b503461014e5760608060031936011261014e576103a960243561035481610144565b6044359061036182610144565b61036f600491823533611856565b91600094856103876101b8825460018060a01b031690565b9460409586518080998194634cc42b5160e01b83528983019190602083019252565b03915afa948515610559575b869561053d575b50855b8551811015610539576103d28187611321565b5190838061052d575b156104735787546103f4906001600160a01b03166101b8565b9188608060a083015192015161040981611343565b843b1561046f5761044a9461043493838a8c519687958694859363c250985960e01b85528401611acf565b03925af18015610462575b61044f575b50611233565b6103bf565b8061029161045c92610709565b38610444565b61046a610e74565b61043f565b5080fd5b831580610514575b61048a575b61044a9150611233565b875461049e906001600160a01b03166101b8565b9188608060a08301519201516104b381611343565b843b1561046f5761044a946104de93838a8c519687958694859363c250985960e01b85528401611aaf565b03925af18015610507575b6104f4575b50610480565b8061029161050192610709565b386104ee565b61050f610e74565b6104e9565b5061052861052484840151151590565b1590565b61047b565b508183015115156103db565b8680f35b6105529195503d8088833e6103178183610795565b93386103bc565b610561610e74565b6103b5565b600091031261014e57565b503461014e57600036600319011261014e576040517f00000000000000000000000000000000000000000000000000000000000000006001600160a01b03168152602090f35b6004111561014e57565b60443590610160826105b7565b503461014e576000604036600319011261065e576024356105ee816105b7565b81546001600160a01b0316908290823b1561046f57606461062e9183604051958694859363c250985960e01b8552600435600486015260248501906113a9565b8160448401525af18015610651575b610645575080f35b61064e90610709565b80f35b610659610e74565b61063d565b80fd5b503461014e57604036600319011261014e5760243561067f816105b7565b6000908160018060a01b0381541691823b1561046f5760646106c09183604051958694859363c250985960e01b8552600435600486015260248501906113a9565b600160448401525af180156106e5575b6106d8575080f35b8061029161064e92610709565b6106ed610e74565b6106d0565b50634e487b7160e01b600052604160045260246000fd5b6001600160401b03811161071c57604052565b6107246106f2565b604052565b60e081019081106001600160401b0382111761071c57604052565b608081019081106001600160401b0382111761071c57604052565b604081019081106001600160401b0382111761071c57604052565b606081019081106001600160401b0382111761071c57604052565b90601f801991011681019081106001600160401b0382111761071c57604052565b6040519061016082018281106001600160401b0382111761071c57604052565b6040519061016082610729565b6040519061016082610744565b6001600160a01b0381160361014e57565b60043590610160826107f0565b503461014e5760e036600319011261014e5761089361088360405161083281610729565b60043561083e816107f0565b81526024356020820152604435610854816105b7565b60408201526064356060820152608435608082015260a43560a0820152610879610153565b60c0820152611a35565b6040519081529081906020820190565b0390f35b60005b8381106108aa5750506000910152565b818101518382015260200161089a565b906020916108d381518092818552858086019101610897565b601f01601f1916010190565b602080820190808352835180925260408301928160408460051b8301019501936000915b8483106109135750505050505090565b9091929394958480610931600193603f198682030187528a516108ba565b9801930193019194939290610903565b50602036600319011261014e57600480356001600160401b039182821161014e573660238301121561014e578181013592831161014e57602490818301928236918660051b01011161014e57610996846111d2565b9360005b8181106109af576040518061089388826108df565b6000806109bd838589611266565b604093916109cf8551809381936112b5565b0390305af4906109dd610eeb565b91829015610a0657505090610a01916109f68289611321565b526104448188611321565b61099a565b86838792604482511061014e5782610a3e9385610a2994015183010191016112c3565b925162461bcd60e51b8152928392830161119b565b0390fd5b503461014e57600036600319011261014e576040517f00000000000000000000000000000000000000000000000000000000000000006001600160a01b03168152602090f35b503461014e5761016036600319011261014e57610893610883610aa96107b6565b610ab1610801565b81526024356020820152610ac36105c1565b604082015260643560608201526084356080820152610ae0610162565b60a082015260c43560c082015260e43560e0820152610104356101008201526101243561012082015261014435610140820152611491565b503461014e5760e036600319011261014e57610893610883604051610b3c81610729565b600435610b48816107f0565b81526024356020820152604435610b5e816105b7565b604082015260643560608201526084356080820152610b7b610162565b60a082015260c43560c08201526118cc565b50606036600319011261014e57600435610ba6816107f0565b60443590610bb3826107f0565b6040516370a0823160e01b81523060048201526001600160a01b039190911691602082602481865afa918215610c3b575b600092610c0b575b50610bfb602435831015610f98565b81610c0257005b61002192610fd9565b610c2d91925060203d8111610c34575b610c258183610795565b810190610e65565b9038610bec565b503d610c1b565b610c43610e74565b610be4565b50604036600319011261014e57602435610c61816107f0565b6040516370a0823160e01b81523060048201526001600160a01b037f00000000000000000000000000000000000000000000000000000000000000001691602082602481865afa918215610d4d575b600092610d2d575b50610cc7600435831015610e81565b81610cce57005b823b1561014e57604051632e1a7d4d60e01b815260048101839052610021936000908290602490829084905af18015610d20575b610d0d575b50610f1b565b80610291610d1a92610709565b38610d07565b610d28610e74565b610d02565b610d4691925060203d8111610c3457610c258183610795565b9038610cb8565b610d55610e74565b610cb0565b503461014e5760e036600319011261014e57610dc7604051610d7b81610729565b600435610d87816107f0565b81526024356020820152604435610d9d81610144565b60408201526064356060820152608435608082015260a43560a082015260c43560c0820152611bfc565b60408051928352602083019190915290f35b503461014e57600036600319011261014e576000546040516001600160a01b039091168152602090f35b7f00000000000000000000000000000000000000000000000000000000000000006001600160a01b03163303610e3557565b60405162461bcd60e51b815260206004820152600860248201526709cdee840ae8aa8960c31b6044820152606490fd5b9081602091031261014e575190565b506040513d6000823e3d90fd5b15610e8857565b60405162461bcd60e51b8152602060048201526011602482015270092dce6eaccccd2c6d2cadce840ae8aa89607b1b6044820152606490fd5b6020906001600160401b038111610ede575b601f01601f19160190565b610ee66106f2565b610ed3565b3d15610f16573d90610efc82610ec1565b91610f0a6040519384610795565b82523d6000602084013e565b606090565b6000808093819382604051602081018181106001600160401b03821117610f8b575b604052525af1610f4b610eeb565b5015610f5357565b60405162461bcd60e51b815260206004820152601060248201526f0cae4e45ae8e4c2dce6cccae45acae8d60831b6044820152606490fd5b610f936106f2565b610f3d565b15610f9f57565b60405162461bcd60e51b815260206004820152601260248201527124b739bab33334b1b4b2b73a103a37b5b2b760711b6044820152606490fd5b919061106391600080604051936020968786019463a9059cbb60e01b865260018060a01b03809316602488015260448701526044865261101886610744565b1692604051946110278661075f565b8786527f5361666545524332303a206c6f772d6c6576656c2063616c6c206661696c656488870152519082855af161105d610eeb565b9161110e565b8051908282159283156110d3575b5050501561107c5750565b6084906040519062461bcd60e51b82526004820152602a60248201527f5361666545524332303a204552433230206f7065726174696f6e20646964206e6044820152691bdd081cdd58d8d9595960b21b6064820152fd5b6110e393508201810191016110f6565b388281611071565b519061016082610144565b9081602091031261014e575161110b81610144565b90565b919290156111705750815115611122575090565b3b1561112b5790565b60405162461bcd60e51b815260206004820152601d60248201527f416464726573733a2063616c6c20746f206e6f6e2d636f6e74726163740000006044820152606490fd5b8251909150156111835750805190602001fd5b60405162461bcd60e51b8152908190610a3e90600483015b90602061110b9281815201906108ba565b6020906001600160401b0381116111c5575b60051b0190565b6111cd6106f2565b6111be565b906111dc826111ac565b6111e96040519182610795565b82815280926111fa601f19916111ac565b019060005b82811061120b57505050565b8060606020809385010152016111ff565b50634e487b7160e01b600052601160045260246000fd5b6001906000198114611243570190565b61124b61121c565b0190565b50634e487b7160e01b600052603260045260246000fd5b91908110156112a8575b60051b81013590601e198136030182121561014e5701908135916001600160401b03831161014e57602001823603811361014e579190565b6112b061124f565b611270565b908092918237016000815290565b60208183031261014e578051906001600160401b03821161014e570181601f8201121561014e5780516112f581610ec1565b926113036040519485610795565b8184526020828401011161014e5761110b9160208085019101610897565b6020918151811015611336575b60051b010190565b61133e61124f565b61132e565b6004111561134d57565b634e487b7160e01b600052602160045260246000fd5b1561136a57565b60405162461bcd60e51b815260206004820152600b60248201526a1b9bdd081cdd5c1c1bdc9d60aa1b6044820152606490fd5b600482101561134d5752565b90600482101561134d5752565b81516001600160a01b031681526020808301519082015260408083015160e08301949360c09283926113ea918601906113a9565b606081015160608501526080810151608085015260a0810151151560a08501520151910152565b1561141857565b60405162461bcd60e51b8152602060048201526011602482015270747020616c72656164792065786973747360781b6044820152606490fd5b1561145857565b60405162461bcd60e51b8152602060048201526011602482015270736c20616c72656164792065786973747360781b6044820152606490fd5b3381529060409182810190600282516114a981611343565b6114b281611343565b141580611833575b6114c390611363565b6000805482516020808501805187519597889795909484926001600160a01b039182169291909116906114f589611343565b8c606089015160808a01519060a08b019b8c5161151190151590565b9360c08d0151956115206107d6565b6001600160a01b0390991689528989015287019061153d9161139d565b60608601526080850152151560a084015260c08301528b51809a818094635b47525960e11b82526004820190611572916113b6565b03925af1968715611826575b8697611807575b506101008401948551158015906117f9575b6115a8575b50959750505050505050565b84516116139289926115d0926115ca906001600160a01b031692519151151590565b91611856565b938651158015611778575b6115e490611411565b6116048b85610140890197885115928c84156116e0575b50505050611451565b5161160e81611343565b611897565b855490929061162a906001600160a01b03166101b8565b9361012060e082015196519101519151926116436107e3565b968752860152888501526060840152813b156116dc5795516326bd67cb60e11b81526004810196909652815160248701526020820151604487015260408201516064870152606090910151608486015292939192829060a490829084905af180156116cf575b6116bc575b90818080808080889761159c565b806102916116c992610709565b386116ae565b6116d7610e74565b6116a9565b8380fd5b5461172094506116f8906001600160a01b03166101b8565b90518080958194630bc628fb60e01b8352600483016020600391939293604081019481520152565b03915afa90811561176b575b8a9161173e575b501585388e8c6115fb565b61175e9150863d8811611764575b6117568183610795565b8101906110f6565b38611733565b503d61174c565b611773610e74565b61172c565b5087546115e490611791906001600160a01b03166101b8565b8c51630bc628fb60e01b81526004810188905260026024820152908690829060449082905afa9081156117ec575b8a916117cf575b501590506115db565b6117e69150863d8811611764576117568183610795565b386117c6565b6117f4610e74565b6117bf565b506101408501511515611597565b61181f919750823d8411610c3457610c258183610795565b9538611585565b61182e610e74565b61157e565b506114c36003835161184481611343565b61184d81611343565b141590506114ba565b916040519160208301936bffffffffffffffffffffffff199060601b1684526034830152151560f81b6054820152603581526118918161077a565b51902090565b604051600160f81b60208201908152929091600481101561134d5760f81b60218301526022820152602281526118918161077a565b3381526000906020906119b7906040810190600282516118eb81611343565b6118f481611343565b1415806119f3575b61190590611363565b8454611919906001600160a01b03166101b8565b8151909290611996906001600160a01b03169286810151925161193b81611343565b606082015161198360808401519260c061195860a0870151151590565b950151966119766119676107d6565b6001600160a01b03909a168a52565b8b8901526040880161139d565b60608601526080850152151560a0840152565b60c0820152604051948580948193635b47525960e11b8352600483016113b6565b03925af19081156119e6575b6000916119ce575090565b61110b915060203d8111610c3457610c258183610795565b6119ee610e74565b6119c3565b5061190560038351611a0481611343565b611a0d81611343565b141590506118fc565b600160ff1b8114611a28575b60000390565b611a3061121c565b611a22565b3381526000906020906119b7908354611a56906001600160a01b03166101b8565b81519091906001600160a01b03169061199685820151916040810151611a7b81611343565b6060820151611983608084015192611aa360a0611a9b60c0880151151590565b960151611a16565b966119766119676107d6565b604090611acb60009395946060830196835260208301906113a9565b0152565b604090611acb60019395946060830196835260208301906113a9565b5190610160826105b7565b602090818184031261014e578051906001600160401b03821161014e570182601f8201121561014e57805191611b2b836111ac565b936040611b3a81519687610795565b848652828601918360e08097028601019481861161014e578401925b858410611b67575050505050505090565b868483031261014e578487918451611b7e81610729565b8651611b89816107f0565b8152828701518382015285870151611ba081610144565b868201526060611bb18189016110eb565b908201526080611bc2818901611aeb565b9082015260a0808801519082015260c08088015190820152815201930192611b56565b600019810191908211611bf457565b61016061121c565b906000808093602090818101908151604090611c2682840191611c1f8351151590565b9033611856565b608084018051158015611e96575b611c3d90611411565b611c5860c086019288845115918215611e0f575b5050611451565b5180611d45575b505180611c72575b505050505050509190565b8697995091611cfa9391611cdb879694611caf611ca960a0611c9d6101b88e5460018060a01b031690565b98519701519451151590565b91611a16565b92611cb86107d6565b33815295868a0152600385870152606086018b90526080860152151560a0850152565b60c083015251958680948193635b47525960e11b8352600483016113b6565b03925af1928315611d38575b92611d1b575b50509138808080808080611c67565b611d319250803d10610c3457610c258183610795565b3880611d0c565b611d40610e74565b611d06565b875491985087918791611dca91611d64906001600160a01b03166101b8565b90885190611daa60608a015191611d7e611ca98a51151590565b92611d876107d6565b338152948589015260028b860152606085018990526080850152151560a0840152565b60c08201528651948580948193635b47525960e11b8352600483016113b6565b03925af1908115611e02575b8791611de5575b509638611c5f565b611dfc9150863d8811610c3457610c258183610795565b38611ddd565b611e0a610e74565b611dd6565b8b54611e509350611e28906001600160a01b03166101b8565b88518080958194630bc628fb60e01b8352600483016020600391939293604081019481520152565b03915afa908115611e89575b8a91611e6c575b50158838611c51565b611e839150893d8b11611764576117568183610795565b38611e63565b611e91610e74565b611e5c565b508754611c3d90611eaf906001600160a01b03166101b8565b8551630bc628fb60e01b81526004810185905260026024820152908990829060449082905afa908115611f0a575b8a91611eed575b50159050611c34565b611f049150893d8b11611764576117568183610795565b38611ee4565b611f12610e74565b611edd56fea264697066735822122003ed677eb365c3be90a0469e2533b4ec43fbaf03d31f9abea90f929786e54cec64736f6c63430008110033",
  "devdoc": {
    "kind": "dev",
    "methods": {},
    "version": 1
  },
  "userdoc": {
    "kind": "user",
    "methods": {},
    "version": 1
  },
  "storageLayout": {
    "storage": [
      {
        "astId": 34900,
        "contract": "contracts/trading/Router.sol:Router",
        "label": "orderManager",
        "offset": 0,
        "slot": "0",
        "type": "t_contract(IOrderManager)20042"
      }
    ],
    "types": {
      "t_contract(IOrderManager)20042": {
        "encoding": "inplace",
        "label": "contract IOrderManager",
        "numberOfBytes": "20"
      }
    }
  }
}