{
  "address": "0xfcFe106EF1e95094d0A5905CF2e795d16608b363",
  "abi": [
    {
      "inputs": [
        {
          "internalType": "address[]",
          "name": "_stakeTokens",
          "type": "address[]"
        },
        {
          "internalType": "address",
          "name": "_stToken",
          "type": "address"
        },
        {
          "internalType": "address",
          "name": "_rewardToken",
          "type": "address"
        },
        {
          "internalType": "contract IPositionManager",
          "name": "_positionManager",
          "type": "address"
        }
      ],
      "stateMutability": "nonpayable",
      "type": "constructor"
    },
    {
      "anonymous": false,
      "inputs": [
        {
          "indexed": false,
          "internalType": "address",
          "name": "receiver",
          "type": "address"
        },
        {
          "indexed": false,
          "internalType": "uint256",
          "name": "amount",
          "type": "uint256"
        }
      ],
      "name": "Claim",
      "type": "event"
    },
    {
      "anonymous": false,
      "inputs": [
        {
          "indexed": true,
          "internalType": "address",
          "name": "previousOwner",
          "type": "address"
        },
        {
          "indexed": true,
          "internalType": "address",
          "name": "newOwner",
          "type": "address"
        }
      ],
      "name": "OwnershipTransferred",
      "type": "event"
    },
    {
      "anonymous": false,
      "inputs": [
        {
          "indexed": false,
          "internalType": "address",
          "name": "account",
          "type": "address"
        }
      ],
      "name": "Paused",
      "type": "event"
    },
    {
      "anonymous": false,
      "inputs": [
        {
          "indexed": true,
          "internalType": "address",
          "name": "stakeToken",
          "type": "address"
        },
        {
          "indexed": true,
          "internalType": "address",
          "name": "account",
          "type": "address"
        },
        {
          "indexed": false,
          "internalType": "uint256",
          "name": "amount",
          "type": "uint256"
        }
      ],
      "name": "Stake",
      "type": "event"
    },
    {
      "anonymous": false,
      "inputs": [
        {
          "indexed": false,
          "internalType": "address",
          "name": "account",
          "type": "address"
        }
      ],
      "name": "Unpaused",
      "type": "event"
    },
    {
      "anonymous": false,
      "inputs": [
        {
          "indexed": true,
          "internalType": "address",
          "name": "stakeToken",
          "type": "address"
        },
        {
          "indexed": true,
          "internalType": "address",
          "name": "account",
          "type": "address"
        },
        {
          "indexed": false,
          "internalType": "uint256",
          "name": "amount",
          "type": "uint256"
        }
      ],
      "name": "Unstake",
      "type": "event"
    },
    {
      "inputs": [],
      "name": "PRECISION",
      "outputs": [
        {
          "internalType": "uint256",
          "name": "",
          "type": "uint256"
        }
      ],
      "stateMutability": "view",
      "type": "function"
    },
    {
      "inputs": [],
      "name": "claimReward",
      "outputs": [],
      "stateMutability": "nonpayable",
      "type": "function"
    },
    {
      "inputs": [
        {
          "internalType": "address",
          "name": "account",
          "type": "address"
        }
      ],
      "name": "claimableReward",
      "outputs": [
        {
          "internalType": "uint256",
          "name": "claimableReward",
          "type": "uint256"
        }
      ],
      "stateMutability": "view",
      "type": "function"
    },
    {
      "inputs": [],
      "name": "cumulativeRewardPerToken",
      "outputs": [
        {
          "internalType": "uint256",
          "name": "",
          "type": "uint256"
        }
      ],
      "stateMutability": "view",
      "type": "function"
    },
    {
      "inputs": [
        {
          "internalType": "address",
          "name": "",
          "type": "address"
        }
      ],
      "name": "isHandler",
      "outputs": [
        {
          "internalType": "bool",
          "name": "",
          "type": "bool"
        }
      ],
      "stateMutability": "view",
      "type": "function"
    },
    {
      "inputs": [
        {
          "internalType": "address",
          "name": "",
          "type": "address"
        }
      ],
      "name": "isStakeToken",
      "outputs": [
        {
          "internalType": "bool",
          "name": "",
          "type": "bool"
        }
      ],
      "stateMutability": "view",
      "type": "function"
    },
    {
      "inputs": [
        {
          "internalType": "address",
          "name": "",
          "type": "address"
        }
      ],
      "name": "maxStakeAmount",
      "outputs": [
        {
          "internalType": "uint256",
          "name": "",
          "type": "uint256"
        }
      ],
      "stateMutability": "view",
      "type": "function"
    },
    {
      "inputs": [],
      "name": "owner",
      "outputs": [
        {
          "internalType": "address",
          "name": "",
          "type": "address"
        }
      ],
      "stateMutability": "view",
      "type": "function"
    },
    {
      "inputs": [],
      "name": "pause",
      "outputs": [],
      "stateMutability": "nonpayable",
      "type": "function"
    },
    {
      "inputs": [],
      "name": "paused",
      "outputs": [
        {
          "internalType": "bool",
          "name": "",
          "type": "bool"
        }
      ],
      "stateMutability": "view",
      "type": "function"
    },
    {
      "inputs": [],
      "name": "positionManager",
      "outputs": [
        {
          "internalType": "contract IPositionManager",
          "name": "",
          "type": "address"
        }
      ],
      "stateMutability": "view",
      "type": "function"
    },
    {
      "inputs": [],
      "name": "renounceOwnership",
      "outputs": [],
      "stateMutability": "nonpayable",
      "type": "function"
    },
    {
      "inputs": [],
      "name": "rewardToken",
      "outputs": [
        {
          "internalType": "address",
          "name": "",
          "type": "address"
        }
      ],
      "stateMutability": "view",
      "type": "function"
    },
    {
      "inputs": [
        {
          "internalType": "address",
          "name": "_handler",
          "type": "address"
        },
        {
          "internalType": "bool",
          "name": "enable",
          "type": "bool"
        }
      ],
      "name": "setHandler",
      "outputs": [],
      "stateMutability": "nonpayable",
      "type": "function"
    },
    {
      "inputs": [
        {
          "internalType": "address",
          "name": "_stakeToken",
          "type": "address"
        },
        {
          "internalType": "uint256",
          "name": "_maxStakeAmount",
          "type": "uint256"
        }
      ],
      "name": "setMaxStakeAmount",
      "outputs": [],
      "stateMutability": "nonpayable",
      "type": "function"
    },
    {
      "inputs": [
        {
          "internalType": "address",
          "name": "_stakeToken",
          "type": "address"
        },
        {
          "internalType": "bool",
          "name": "_isStakeToken",
          "type": "bool"
        }
      ],
      "name": "setStakeToken",
      "outputs": [],
      "stateMutability": "nonpayable",
      "type": "function"
    },
    {
      "inputs": [],
      "name": "stToken",
      "outputs": [
        {
          "internalType": "address",
          "name": "",
          "type": "address"
        }
      ],
      "stateMutability": "view",
      "type": "function"
    },
    {
      "inputs": [
        {
          "internalType": "address",
          "name": "stakeToken",
          "type": "address"
        },
        {
          "internalType": "uint256",
          "name": "amount",
          "type": "uint256"
        }
      ],
      "name": "stake",
      "outputs": [],
      "stateMutability": "nonpayable",
      "type": "function"
    },
    {
      "inputs": [
        {
          "internalType": "address",
          "name": "funder",
          "type": "address"
        },
        {
          "internalType": "address",
          "name": "account",
          "type": "address"
        },
        {
          "internalType": "address",
          "name": "stakeToken",
          "type": "address"
        },
        {
          "internalType": "uint256",
          "name": "amount",
          "type": "uint256"
        }
      ],
      "name": "stakeForAccount",
      "outputs": [],
      "stateMutability": "nonpayable",
      "type": "function"
    },
    {
      "inputs": [
        {
          "internalType": "address",
          "name": "",
          "type": "address"
        }
      ],
      "name": "totalStaked",
      "outputs": [
        {
          "internalType": "uint256",
          "name": "",
          "type": "uint256"
        }
      ],
      "stateMutability": "view",
      "type": "function"
    },
    {
      "inputs": [
        {
          "internalType": "address",
          "name": "newOwner",
          "type": "address"
        }
      ],
      "name": "transferOwnership",
      "outputs": [],
      "stateMutability": "nonpayable",
      "type": "function"
    },
    {
      "inputs": [],
      "name": "unpause",
      "outputs": [],
      "stateMutability": "nonpayable",
      "type": "function"
    },
    {
      "inputs": [
        {
          "internalType": "address",
          "name": "stakeToken",
          "type": "address"
        },
        {
          "internalType": "uint256",
          "name": "amount",
          "type": "uint256"
        }
      ],
      "name": "unstake",
      "outputs": [],
      "stateMutability": "nonpayable",
      "type": "function"
    },
    {
      "inputs": [
        {
          "internalType": "address",
          "name": "account",
          "type": "address"
        },
        {
          "internalType": "address",
          "name": "receiver",
          "type": "address"
        },
        {
          "internalType": "address",
          "name": "stakeToken",
          "type": "address"
        },
        {
          "internalType": "uint256",
          "name": "amount",
          "type": "uint256"
        }
      ],
      "name": "unstakeForAccount",
      "outputs": [],
      "stateMutability": "nonpayable",
      "type": "function"
    },
    {
      "inputs": [
        {
          "internalType": "address",
          "name": "",
          "type": "address"
        }
      ],
      "name": "userCumulativeRewardPerTokens",
      "outputs": [
        {
          "internalType": "uint256",
          "name": "",
          "type": "uint256"
        }
      ],
      "stateMutability": "view",
      "type": "function"
    },
    {
      "inputs": [
        {
          "internalType": "address",
          "name": "",
          "type": "address"
        },
        {
          "internalType": "address",
          "name": "",
          "type": "address"
        }
      ],
      "name": "userStaked",
      "outputs": [
        {
          "internalType": "uint256",
          "name": "",
          "type": "uint256"
        }
      ],
      "stateMutability": "view",
      "type": "function"
    }
  ],
  "transactionHash": "0x31c500b8ee9bb5b3f3c0c64e2190a15815e670fcf0c32223760969e88267f69a",
  "args": [
    [
      "0x511C0a8cCB5C426D43Bcac867D611E534f971aE1",
      "0x5787205B5D09A2D4C1B259F388006bcfc572814b"
    ],
    "0xaC9E26cB0013630e8dE13eB3445a4B7b78491649",
    "0x26F5Bc974799db449f386E6150B49F9d51294120",
    "0x68dceA198f713F30Ae88CAd713298A9006D09A63"
  ],
  "numDeployments": 1,
  "solcInputHash": "a0a35a8cc001b329f8e259ab1e7a3059",
  "bytecode": "0x60406080815234620001b85762001950803803806200001e81620001ee565b9283398101608082820312620001b85781516001600160401b039190828111620001b857830181601f82011215620001b8578051928311620001d85760059183831b602092838062000072818501620001ee565b809881520192820101928311620001b85783809101915b838310620001bd57509050620000a29150850162000214565b936060620000b287830162000214565b9101516001600160a01b038082169690939091879003620001b85790839160ff196000908082541682556001928380556002549960018060a01b03199a338c821617600255873391167f8be0079c531659141344cd1fd0a4f28419497f9722a3daafe3b4186f6b6457e08680a383855b62000156575b505050505050168460045416176004551682825416179055600a541617600a555161172690816200022a8239f35b909192939495968251821015620001b057818b1b8301840151168552600683528c8520805485168717905560001981146200019c57908580959493920189979662000122565b634e487b7160e01b85526011600452602485fd5b969562000128565b600080fd5b8190620001ca8462000214565b815201910190839062000089565b634e487b7160e01b600052604160045260246000fd5b6040519190601f01601f191682016001600160401b03811183821017620001d857604052565b51906001600160a01b0382168203620001b85756fe604060808152600436101561001357600080fd5b600090813560e01c8063038798a01461072957806323b6443e14610701578063251d6ec3146106ca5780633f4ba83a1461066d57806346ea87af146106305780635c975abb1461060f578063650a5b03146105d4578063715018a6146105775780637721561a146105525780637771dad5146104ff578063790b5a6c146104c4578063791b98bc1461049c5780638456cb591461043c5780638da5cb5b146104145780639bfd8d61146103dd5780639cb7de4b1461039e578063aaf5eb6814610377578063adc9772e14610349578063b88a802f14610323578063c2a672e0146102ef578063c804a019146102b2578063e950342514610286578063f04bbcc11461024f578063f2fde38b14610186578063f5fc5076146101685763f7c618c11461013d57600080fd5b3461016457816003193601126101645760055490516001600160a01b039091168152602090f35b5080fd5b5034610164578160031936011261016457602090600b549051908152f35b5034610164576020366003190112610164576101a0610768565b6101a86107f3565b6001600160a01b039081169182156101fd5750600254826bffffffffffffffffffffffff60a01b821617600255167f8be0079c531659141344cd1fd0a4f28419497f9722a3daafe3b4186f6b6457e08380a380f35b5162461bcd60e51b815260206004820152602660248201527f4f776e61626c653a206e6577206f776e657220697320746865207a65726f206160448201526564647265737360d01b6064820152608490fd5b50346101645760203660031901126101645760209181906001600160a01b03610276610768565b168152600c845220549051908152f35b5034610164576020366003190112610164576020906102ab6102a6610768565b6113f7565b9051908152f35b50346101645760203660031901126101645760209160ff9082906001600160a01b036102dc610768565b1681526006855220541690519015158152f35b5034610164573660031901126103205761031d61030a610768565b61031261084b565b602435903333610e34565b80f35b80fd5b823461032057806003193601126103205761033c61084b565b61034533610fde565b5080f35b5034610164573660031901126103205761031d610364610768565b61036c61084b565b602435903333610a12565b5034610164578160031936011261016457602090516c0c9f2c9cd04674edea400000008152f35b50346101645761031d906103b136610783565b91906103bb6107f3565b60018060a01b03168452600d60205283209060ff801983541691151516179055565b50346101645760203660031901126101645760209181906001600160a01b03610404610768565b1681526008845220549051908152f35b503461016457816003193601126101645760025490516001600160a01b039091168152602090f35b503461016457816003193601126101645760207f62e78cea01bee320cd4e420270b5ea74000d11b0c9f74754ebdbfc544b05a258916104796107f3565b61048161084b565b61048961084b565b835460ff1916600117845551338152a180f35b5034610164578160031936011261016457600a5490516001600160a01b039091168152602090f35b5034610164576104f261031d9160ff6104dc366107b2565b9591939094338952600d6020528820541661088f565b6104fa61084b565b610a12565b5034610164578060031936011261016457610518610768565b6001600160a01b03602435818116929083900361054e579160209491849316825260098552828220908252845220549051908152f35b8480fd5b50346101645761056a61031d9160ff6104dc366107b2565b61057261084b565b610e34565b82346103205780600319360112610320576105906107f3565b600280546001600160a01b0319811690915581906001600160a01b03167f8be0079c531659141344cd1fd0a4f28419497f9722a3daafe3b4186f6b6457e08280a380f35b50346101645780600319360112610164576105ed610768565b6105f56107f3565b6001600160a01b0316825260076020528120602435905580f35b503461016457816003193601126101645760ff602092541690519015158152f35b50346101645760203660031901126101645760209160ff9082906001600160a01b0361065a610768565b168152600d855220541690519015158152f35b503461016457816003193601126101645760207f5db9ee0a495bf2e6ff9c91a7834c1ba4fdd244a5e8aa4e537bd38aeae4b073aa916106aa6107f3565b6106b261165c565b6106ba61165c565b835460ff1916845551338152a180f35b50346101645760203660031901126101645760209181906001600160a01b036106f1610768565b1681526007845220549051908152f35b503461016457816003193601126101645760045490516001600160a01b039091168152602090f35b50346101645761031d9061073c36610783565b91906107466107f3565b60018060a01b03168452600660205283209060ff801983541691151516179055565b600435906001600160a01b038216820361077e57565b600080fd5b604090600319011261077e576004356001600160a01b038116810361077e5790602435801515810361077e5790565b608090600319011261077e576001600160a01b03600435818116810361077e5791602435828116810361077e5791604435908116810361077e579060643590565b6002546001600160a01b0316330361080757565b606460405162461bcd60e51b815260206004820152602060248201527f4f776e61626c653a2063616c6c6572206973206e6f7420746865206f776e65726044820152fd5b60ff6000541661085757565b60405162461bcd60e51b815260206004820152601060248201526f14185d5cd8589b194e881c185d5cd95960821b6044820152606490fd5b1561089657565b60405162461bcd60e51b815260206004820152601e60248201527f5374616b696e67506f6f6c3a2068616e646c657220666f7262696464656e00006044820152606490fd5b156108e257565b60405162461bcd60e51b815260206004820152602160248201527f5374616b696e67506f6f6c3a20696e76616c6964206465706f736974546f6b656044820152603760f91b6064820152608490fd5b1561093857565b60405162461bcd60e51b815260206004820152602160248201527f5374616b696e67506f6f6c3a20696e76616c6964207374616b6520616d6f756e6044820152601d60fa1b6064820152608490fd5b9190820180921161099457565b634e487b7160e01b600052601160045260246000fd5b67ffffffffffffffff81116109be57604052565b634e487b7160e01b600052604160045260246000fd5b6080810190811067ffffffffffffffff8211176109be57604052565b90601f8019910116810190811067ffffffffffffffff8211176109be57604052565b9193929060018060a01b038095169160009583875260209260068452604091610a4060ff848b2054166108db565b610a4b841515610931565b858952600985528289209681831697888b528652610a6c85858c2054610987565b878b5260078752848b205410610baa57610a8583610fde565b50868a5260098652838a20888b528652838a20610aa3868254610987565b9055868a5260088652838a20610aba868254610987565b905583516323b872dd60e01b8782015290821660248201523060448201526064808201869052815260a0810167ffffffffffffffff811182821017610b96578a9291610b0891865288610bfa565b6004541691823b156101645783516340c10f1960e01b81526001600160a01b0391909116600482015260248101859052918290604490829084905af18015610b8c577f99039fcf0a98f484616c5196ee8b2ecfa971babf0b519848289ea4db381f85f79596979850610b7d575b5051908152a3565b610b86906109aa565b38610b75565b82513d8a823e3d90fd5b634e487b7160e01b8b52604160045260248bfd5b835162461bcd60e51b8152600481018790526024808201527f5374616b696e67506f6f6c3a20657863656564206d6178207374616b6520616d6044820152631bdd5b9d60e21b6064820152608490fd5b60018060a01b0316906040516040810167ffffffffffffffff90828110828211176109be576040526020938483527f5361666545524332303a206c6f772d6c6576656c2063616c6c206661696c6564858401526000808587829751910182855af1903d15610d3f573d928311610d2b5790610c9593929160405192610c8888601f19601f84011601856109f0565b83523d868885013e610d4a565b805191821591848315610d07575b505050905015610cb05750565b6084906040519062461bcd60e51b82526004820152602a60248201527f5361666545524332303a204552433230206f7065726174696f6e20646964206e6044820152691bdd081cdd58d8d9595960b21b6064820152fd5b91938180945001031261016457820151908115158203610320575080388084610ca3565b634e487b7160e01b85526041600452602485fd5b90610c959392506060915b91929015610dac5750815115610d5e575090565b3b15610d675790565b60405162461bcd60e51b815260206004820152601d60248201527f416464726573733a2063616c6c20746f206e6f6e2d636f6e74726163740000006044820152606490fd5b825190915015610dbf5750805190602001fd5b60405162461bcd60e51b815260206004820152908190610de3906024830190610de7565b0390fd5b919082519283825260005b848110610e13575050826000602080949584010152601f8019910116010190565b602081830181015184830182015201610df2565b9190820391821161099457565b939290919360018060a01b038095169160009583875260209260068452604091610e6360ff848b2054166108db565b610e6e841515610931565b858952600985528289209681831697888b528652838a20548511610f4d5790610ed9858b93610e9c86610fde565b50898552600989528685208b86528952868520610eba838254610e27565b905589855260088952868520610ed1838254610e27565b905589610f9b565b6004541691823b15610164578351632770a7eb60e21b81526001600160a01b0391909116600482015260248101859052918290604490829084905af18015610b8c577f390b1276974b9463e5d66ab10df69b6f3d7b930eb066a0e66df327edd2cc811c9596979850610b7d575051908152a3565b835162461bcd60e51b815260048101879052602160248201527f5374616b696e67506f6f6c3a20657863656564207374616b656420616d6f756e6044820152601d60fa1b6064820152608490fd5b60405163a9059cbb60e01b60208201526001600160a01b03929092166024830152604480830193909352918152610fdc91610fd76064836109f0565b610bfa565b565b60048054604080516318160ddd60e01b815260009594919286926020926001600160a01b0392849082908990829087165afa90811561128957859161125c575b5080156112515782600a541684846005541660248a898b5195869485936314df713760e01b85528401525af19081156111fb578691611224575b5080611205575b505081865416918551906370a0823160e01b8252848260248184871697888d8301525afa9182156111fb5786926111c6575b506110c2906110b66110b0600b54878a52600c89528a8a205490610e27565b84611379565b93849160055416610f9b565b600b5496838652600c8552611144878720548989516110e0816109d4565b604881527f636c61696d5265776172642063756d756c617469766552657761726450657254898201527f6f6b656e202573207573657243756d756c6174697665526577617264506572548b820152676f6b656e7320257360c01b60608201526116a5565b865190606082019082821067ffffffffffffffff8311176111b3575091600c959493916111ac938952602981527f636c61696d5265776172642062616c616e636520257320636c61696d61626c65868201526852657761726420257360b81b898201526116a5565b8352522055565b634e487b7160e01b885260419052602487fd5b9091508481813d83116111f4575b6111de81836109f0565b810103126111f05751906110c2611091565b8580fd5b503d6111d4565b87513d88823e3d90fd5b61121a9161121291611293565b600b54610987565b600b55388061105f565b90508481813d831161124a575b61123b81836109f0565b810103126111f0575138611058565b503d611231565b509296505050505050565b90508381813d8311611282575b61127381836109f0565b8101031261054e57513861101e565b503d611269565b86513d87823e3d90fd5b906c0c9f2c9cd04674edea400000009060001982840992828102928380861095039480860395146113555784831115611318578291096001821901821680920460028082600302188083028203028083028203028083028203028083028203028083028203028092029003029360018380600003040190848311900302920304170290565b60405162461bcd60e51b81526020600482015260156024820152744d6174683a206d756c446976206f766572666c6f7760581b6044820152606490fd5b505080925015611363570490565b634e487b7160e01b600052601260045260246000fd5b90600019818309818302918280831092039180830392146113e1576c0c9f2c9cd04674edea400000009082821115611318577f7d33c22789773a07feda8b6f0930e26fa397c439f1d5cf4b2eb27d7306d2dc99940990828211900360e21b9103601e1c170290565b50506c0c9f2c9cd04674edea4000000091500490565b9060018060a01b0380600454169260409182516318160ddd60e01b815260209283826004818a5afa9182156115db578392918591600093611628575b5060248751809581936370a0823160e01b8352169a8b60048301525afa9182156115db576000926115f9575b50801580156115f1575b6115e6578383600a54169360055416602487518096819363035c75fd60e31b835260048301525afa9283156115db576000936115ab575b50600094929385946114e3611579946114c9611598956114c3600b549186611293565b90610987565b9a8852600c84526114dd878920548c610e27565b90611379565b988551956114f0876109d4565b605087527f636c61696d61626c6552657761726420636c61696d61626c6552657761726420848801527f25732070656e64696e67526577617264202573206e65787443756d756c617469818801526f7665466565506572546f6b656e20257360801b60608801525194859384019663a7a8785360e01b88526080602486015260a4850190610de7565b918a60448501526064840152608483015203601f1981018352826109f0565b51906a636f6e736f6c652e6c6f675afa50565b90928482813d83116115d4575b6115c281836109f0565b810103126103205750519160006114a0565b503d6115b8565b85513d6000823e3d90fd5b506000955050505050565b508115611469565b90918482813d8311611621575b61161081836109f0565b81010312610320575051903861145f565b503d611606565b828194939295503d8311611655575b61164181836109f0565b810103126103205750518291849038611433565b503d611637565b60ff600054161561166957565b60405162461bcd60e51b815260206004820152601460248201527314185d5cd8589b194e881b9bdd081c185d5cd95960621b6044820152606490fd5b6000929161159884936040519283916116d7602084019663ca47c4eb60e01b8852606060248601526084850190610de7565b916044840152606483015203601f1981018352826109f056fea2646970667358221220b7184b7a0b6fd86b9e4882ab22b6598352e9b61011b516b7ad78a8c9e87f4d9564736f6c63430008110033",
  "devdoc": {
    "kind": "dev",
    "methods": {
      "owner()": {
        "details": "Returns the address of the current owner."
      },
      "paused()": {
        "details": "Returns true if the contract is paused, and false otherwise."
      },
      "renounceOwnership()": {
        "details": "Leaves the contract without owner. It will not be possible to call `onlyOwner` functions. Can only be called by the current owner. NOTE: Renouncing ownership will leave the contract without an owner, thereby disabling any functionality that is only available to the owner."
      },
      "transferOwnership(address)": {
        "details": "Transfers ownership of the contract to a new account (`newOwner`). Can only be called by the current owner."
      }
    },
    "version": 1
  },
  "userdoc": {
    "kind": "user",
    "methods": {},
    "version": 1
  },
  "storageLayout": {
    "storage": [
      {
        "astId": 299,
        "contract": "contracts/earn/StakingPool.sol:StakingPool",
        "label": "_paused",
        "offset": 0,
        "slot": "0",
        "type": "t_bool"
      },
      {
        "astId": 400,
        "contract": "contracts/earn/StakingPool.sol:StakingPool",
        "label": "_status",
        "offset": 0,
        "slot": "1",
        "type": "t_uint256"
      },
      {
        "astId": 7,
        "contract": "contracts/earn/StakingPool.sol:StakingPool",
        "label": "_owner",
        "offset": 0,
        "slot": "2",
        "type": "t_address"
      },
      {
        "astId": 5484,
        "contract": "contracts/earn/StakingPool.sol:StakingPool",
        "label": "rewardDistributor",
        "offset": 0,
        "slot": "3",
        "type": "t_contract(IRewardDistributor)7007"
      },
      {
        "astId": 5486,
        "contract": "contracts/earn/StakingPool.sol:StakingPool",
        "label": "stToken",
        "offset": 0,
        "slot": "4",
        "type": "t_address"
      },
      {
        "astId": 5488,
        "contract": "contracts/earn/StakingPool.sol:StakingPool",
        "label": "rewardToken",
        "offset": 0,
        "slot": "5",
        "type": "t_address"
      },
      {
        "astId": 5492,
        "contract": "contracts/earn/StakingPool.sol:StakingPool",
        "label": "isStakeToken",
        "offset": 0,
        "slot": "6",
        "type": "t_mapping(t_address,t_bool)"
      },
      {
        "astId": 5496,
        "contract": "contracts/earn/StakingPool.sol:StakingPool",
        "label": "maxStakeAmount",
        "offset": 0,
        "slot": "7",
        "type": "t_mapping(t_address,t_uint256)"
      },
      {
        "astId": 5500,
        "contract": "contracts/earn/StakingPool.sol:StakingPool",
        "label": "totalStaked",
        "offset": 0,
        "slot": "8",
        "type": "t_mapping(t_address,t_uint256)"
      },
      {
        "astId": 5506,
        "contract": "contracts/earn/StakingPool.sol:StakingPool",
        "label": "userStaked",
        "offset": 0,
        "slot": "9",
        "type": "t_mapping(t_address,t_mapping(t_address,t_uint256))"
      },
      {
        "astId": 5509,
        "contract": "contracts/earn/StakingPool.sol:StakingPool",
        "label": "positionManager",
        "offset": 0,
        "slot": "10",
        "type": "t_contract(IPositionManager)8295"
      },
      {
        "astId": 5511,
        "contract": "contracts/earn/StakingPool.sol:StakingPool",
        "label": "cumulativeRewardPerToken",
        "offset": 0,
        "slot": "11",
        "type": "t_uint256"
      },
      {
        "astId": 5515,
        "contract": "contracts/earn/StakingPool.sol:StakingPool",
        "label": "userCumulativeRewardPerTokens",
        "offset": 0,
        "slot": "12",
        "type": "t_mapping(t_address,t_uint256)"
      },
      {
        "astId": 5519,
        "contract": "contracts/earn/StakingPool.sol:StakingPool",
        "label": "isHandler",
        "offset": 0,
        "slot": "13",
        "type": "t_mapping(t_address,t_bool)"
      }
    ],
    "types": {
      "t_address": {
        "encoding": "inplace",
        "label": "address",
        "numberOfBytes": "20"
      },
      "t_bool": {
        "encoding": "inplace",
        "label": "bool",
        "numberOfBytes": "1"
      },
      "t_contract(IPositionManager)8295": {
        "encoding": "inplace",
        "label": "contract IPositionManager",
        "numberOfBytes": "20"
      },
      "t_contract(IRewardDistributor)7007": {
        "encoding": "inplace",
        "label": "contract IRewardDistributor",
        "numberOfBytes": "20"
      },
      "t_mapping(t_address,t_bool)": {
        "encoding": "mapping",
        "key": "t_address",
        "label": "mapping(address => bool)",
        "numberOfBytes": "32",
        "value": "t_bool"
      },
      "t_mapping(t_address,t_mapping(t_address,t_uint256))": {
        "encoding": "mapping",
        "key": "t_address",
        "label": "mapping(address => mapping(address => uint256))",
        "numberOfBytes": "32",
        "value": "t_mapping(t_address,t_uint256)"
      },
      "t_mapping(t_address,t_uint256)": {
        "encoding": "mapping",
        "key": "t_address",
        "label": "mapping(address => uint256)",
        "numberOfBytes": "32",
        "value": "t_uint256"
      },
      "t_uint256": {
        "encoding": "inplace",
        "label": "uint256",
        "numberOfBytes": "32"
      }
    }
  }
}