{
  "address": "0x9A1354353a4c15CFC7985AbDAFb12A951ABe1191",
  "abi": [
    {
      "inputs": [
        {
          "internalType": "address",
          "name": "_tokenIndex",
          "type": "address"
        },
        {
          "internalType": "address",
          "name": "_tokenStable",
          "type": "address"
        }
      ],
      "stateMutability": "nonpayable",
      "type": "constructor"
    },
    {
      "inputs": [
        {
          "internalType": "address",
          "name": "pool",
          "type": "address"
        },
        {
          "internalType": "uint256",
          "name": "_pairIndex",
          "type": "uint256"
        },
        {
          "internalType": "uint256",
          "name": "_indexAmount",
          "type": "uint256"
        },
        {
          "internalType": "uint256",
          "name": "_stableAmount",
          "type": "uint256"
        }
      ],
      "name": "addLiquidity",
      "outputs": [],
      "stateMutability": "nonpayable",
      "type": "function"
    },
    {
      "inputs": [
        {
          "internalType": "uint256",
          "name": "amountIndex",
          "type": "uint256"
        },
        {
          "internalType": "uint256",
          "name": "amountStable",
          "type": "uint256"
        },
        {
          "internalType": "bytes",
          "name": "data",
          "type": "bytes"
        }
      ],
      "name": "addLiquityCallback",
      "outputs": [],
      "stateMutability": "nonpayable",
      "type": "function"
    },
    {
      "inputs": [
        {
          "internalType": "address",
          "name": "pairToken",
          "type": "address"
        },
        {
          "internalType": "uint256",
          "name": "amount",
          "type": "uint256"
        },
        {
          "internalType": "bytes",
          "name": "data",
          "type": "bytes"
        }
      ],
      "name": "removeLiquityCallback",
      "outputs": [],
      "stateMutability": "nonpayable",
      "type": "function"
    },
    {
      "inputs": [
        {
          "internalType": "address",
          "name": "indexToken",
          "type": "address"
        },
        {
          "internalType": "address",
          "name": "stableToken",
          "type": "address"
        },
        {
          "internalType": "uint256",
          "name": "indexAmount",
          "type": "uint256"
        },
        {
          "internalType": "uint256",
          "name": "stableAmount",
          "type": "uint256"
        },
        {
          "internalType": "bytes",
          "name": "data",
          "type": "bytes"
        }
      ],
      "name": "swapCallback",
      "outputs": [],
      "stateMutability": "nonpayable",
      "type": "function"
    },
    {
      "inputs": [],
      "name": "tokenIndex",
      "outputs": [
        {
          "internalType": "address",
          "name": "",
          "type": "address"
        }
      ],
      "stateMutability": "view",
      "type": "function"
    },
    {
      "inputs": [],
      "name": "tokenStable",
      "outputs": [
        {
          "internalType": "address",
          "name": "",
          "type": "address"
        }
      ],
      "stateMutability": "view",
      "type": "function"
    }
  ],
  "transactionHash": "0x260b03448a6d1b7d67564a6223f8449ee51da13490f37ed73128f1eec2f33229",
  "args": [
    "0x4bb6d0cC47b9EBcabefc5C7CEA330Fe7bC1d1B01",
    "0x26F5Bc974799db449f386E6150B49F9d51294120"
  ],
  "numDeployments": 1,
  "solcInputHash": "a0a35a8cc001b329f8e259ab1e7a3059",
  "bytecode": "0x60803461008d57601f61072238819003918201601f19168301916001600160401b0383118484101761009257808492604094855283398101031261008d57610052602061004b836100a8565b92016100a8565b600080546001600160a01b039384166001600160a01b0319918216179091556001805492909316911617905560405161066590816100bd8239f35b600080fd5b634e487b7160e01b600052604160045260246000fd5b51906001600160a01b038216820361008d5756fe608060408181526004918236101561001657600080fd5b600092833560e01c9182631ece366a1461045557508382631ecfcd1c146102f657826345fc75ad1461019f575081637087a7a5146101765781638019bf8b14610093575063d55f92731461006957600080fd5b3461008f578160031936011261008f57905490516001600160a01b039091168152602090f35b5080fd5b91905034610172576060366003190112610172576100af610577565b836044359167ffffffffffffffff831161008f57610129946100d660209436908301610592565b6001600160a01b03949185916100ef91908101906105f8565b87516323b872dd60e01b815291166001600160a01b0316928101928352336020840152602435604084015296879485939091849160600190565b0393165af1908115610169575061013e575080f35b61015e9060203d8111610162575b61015681836105c0565b810190610617565b5080f35b503d61014c565b513d84823e3d90fd5b8280fd5b50503461008f578160031936011261008f5760015490516001600160a01b039091168152602090f35b929150346102f25760a03660031901126102f2576101bb610577565b6024356001600160a01b0381811693918490036102ee576044359360643560843567ffffffffffffffff81116102ea576102046101fc859236908801610592565b8101906105f8565b1691861561025e57505085516323b872dd60e01b81526001600160a01b039091169281019283523360208481019190915260408401959095529586939284929083906060010393165af1908115610169575061013e575080f35b9392509350935082610274575b50505050505080f35b84516323b872dd60e01b81526001600160a01b039094169084019081523360208281019190915260408201939093529294919285928391829060600103925af190811561016957506102cc575b80808080859461026b565b6102e39060203d81116101625761015681836105c0565b50386102c1565b8880fd5b8580fd5b5050fd5b929150346102f25760603660031901126102f2578035602435906044359267ffffffffffffffff84116102ee57610331869436908301610592565b6001600160a01b039591869161034a91908101906105f8565b1692806103d8575b50508261035d578580f35b60015485516323b872dd60e01b81526001600160a01b039093169183019182523360208381019190915260408301949094529195929386939216918391829060600103925af190811561016957506103ba575b8080808085948580f35b6103d19060203d81116101625761015681836105c0565b50386103b0565b815487516323b872dd60e01b81526001600160a01b03861685820190815233602082810191909152604082019490945290938492891691839190829060600103925af1801561044b5761042d575b8690610352565b6104449060203d81116101625761015681836105c0565b5038610426565b86513d89823e3d90fd5b91503461057357608036600319011261057357610470610577565b9260209333858501528484528184019284841067ffffffffffffffff8511176105605750828591818452630e72150f60e01b8252602435604487015260443560648701526064356084870152608060a4870152878680518060c4830152825b818110610543575080820160e401839052601f01601f191681010360a401918391906001600160a01b03165af190811561053a575061050c578380f35b82903d8411610532575b81610520916105c0565b8101031261052f573880808380f35b80fd5b3d9150610516565b513d86823e3d90fd5b9182018087015160e49091015289958895508b93508992016104cf565b634e487b7160e01b875260419052602486fd5b8380fd5b600435906001600160a01b038216820361058d57565b600080fd5b9181601f8401121561058d5782359167ffffffffffffffff831161058d576020838186019501011161058d57565b90601f8019910116810190811067ffffffffffffffff8211176105e257604052565b634e487b7160e01b600052604160045260246000fd5b9081602091031261058d57356001600160a01b038116810361058d5790565b9081602091031261058d5751801515810361058d579056fea2646970667358221220c1676fc4ae90e3396f0984f0a18316ecb616374dba807456e6c6414a7ed732d564736f6c63430008110033",
  "devdoc": {
    "kind": "dev",
    "methods": {},
    "version": 1
  },
  "userdoc": {
    "kind": "user",
    "methods": {},
    "version": 1
  },
  "storageLayout": {
    "storage": [
      {
        "astId": 9343,
        "contract": "contracts/mock/TestCallback.sol:TestCallBack",
        "label": "tokenIndex",
        "offset": 0,
        "slot": "0",
        "type": "t_address"
      },
      {
        "astId": 9345,
        "contract": "contracts/mock/TestCallback.sol:TestCallBack",
        "label": "tokenStable",
        "offset": 0,
        "slot": "1",
        "type": "t_address"
      }
    ],
    "types": {
      "t_address": {
        "encoding": "inplace",
        "label": "address",
        "numberOfBytes": "20"
      }
    }
  }
}