{
  "address": "0x04f3414E839Cdcc7eEEBD5D60BdB6a8983183b2D",
  "abi": [
    {
      "inputs": [
        {
          "internalType": "address",
          "name": "_token",
          "type": "address"
        },
        {
          "internalType": "address",
          "name": "_teamAndAdvisorReceiver",
          "type": "address"
        },
        {
          "internalType": "address",
          "name": "_privatePlacementReceiver",
          "type": "address"
        },
        {
          "internalType": "address",
          "name": "_communityReceiver",
          "type": "address"
        },
        {
          "internalType": "address",
          "name": "_initLiquidityReceiver",
          "type": "address"
        },
        {
          "internalType": "address",
          "name": "_marketOperationReceiver",
          "type": "address"
        },
        {
          "internalType": "address",
          "name": "_ecoKeeperReceiver",
          "type": "address"
        },
        {
          "internalType": "address",
          "name": "_developmentReserveReceiver",
          "type": "address"
        }
      ],
      "stateMutability": "nonpayable",
      "type": "constructor"
    },
    {
      "anonymous": false,
      "inputs": [
        {
          "indexed": false,
          "internalType": "uint8",
          "name": "version",
          "type": "uint8"
        }
      ],
      "name": "Initialized",
      "type": "event"
    },
    {
      "anonymous": false,
      "inputs": [
        {
          "indexed": true,
          "internalType": "address",
          "name": "previousOwner",
          "type": "address"
        },
        {
          "indexed": true,
          "internalType": "address",
          "name": "newOwner",
          "type": "address"
        }
      ],
      "name": "OwnershipTransferred",
      "type": "event"
    },
    {
      "anonymous": false,
      "inputs": [
        {
          "indexed": true,
          "internalType": "enum Vester.DistributeType",
          "name": "distributeType",
          "type": "uint8"
        },
        {
          "indexed": true,
          "internalType": "address",
          "name": "recevier",
          "type": "address"
        },
        {
          "indexed": false,
          "internalType": "uint256",
          "name": "releaseAmount",
          "type": "uint256"
        },
        {
          "indexed": false,
          "internalType": "uint256",
          "name": "totalRelease",
          "type": "uint256"
        },
        {
          "indexed": false,
          "internalType": "uint256",
          "name": "releasedAmount",
          "type": "uint256"
        }
      ],
      "name": "Release",
      "type": "event"
    },
    {
      "inputs": [],
      "name": "MONTH",
      "outputs": [
        {
          "internalType": "uint256",
          "name": "",
          "type": "uint256"
        }
      ],
      "stateMutability": "view",
      "type": "function"
    },
    {
      "inputs": [],
      "name": "PERCENTAGE",
      "outputs": [
        {
          "internalType": "uint256",
          "name": "",
          "type": "uint256"
        }
      ],
      "stateMutability": "view",
      "type": "function"
    },
    {
      "inputs": [],
      "name": "TOTAL_SUPPLY",
      "outputs": [
        {
          "internalType": "uint256",
          "name": "",
          "type": "uint256"
        }
      ],
      "stateMutability": "view",
      "type": "function"
    },
    {
      "inputs": [
        {
          "internalType": "enum Vester.DistributeType",
          "name": "distributeType",
          "type": "uint8"
        }
      ],
      "name": "getReleaseAmount",
      "outputs": [
        {
          "internalType": "uint256",
          "name": "releaseAmount",
          "type": "uint256"
        }
      ],
      "stateMutability": "view",
      "type": "function"
    },
    {
      "inputs": [],
      "name": "owner",
      "outputs": [
        {
          "internalType": "address",
          "name": "",
          "type": "address"
        }
      ],
      "stateMutability": "view",
      "type": "function"
    },
    {
      "inputs": [
        {
          "internalType": "enum Vester.DistributeType",
          "name": "distributeType",
          "type": "uint8"
        }
      ],
      "name": "releaseToken",
      "outputs": [
        {
          "internalType": "uint256",
          "name": "releaseAmount",
          "type": "uint256"
        }
      ],
      "stateMutability": "nonpayable",
      "type": "function"
    },
    {
      "inputs": [],
      "name": "renounceOwnership",
      "outputs": [],
      "stateMutability": "nonpayable",
      "type": "function"
    },
    {
      "inputs": [],
      "name": "token",
      "outputs": [
        {
          "internalType": "address",
          "name": "",
          "type": "address"
        }
      ],
      "stateMutability": "view",
      "type": "function"
    },
    {
      "inputs": [
        {
          "internalType": "address",
          "name": "newOwner",
          "type": "address"
        }
      ],
      "name": "transferOwnership",
      "outputs": [],
      "stateMutability": "nonpayable",
      "type": "function"
    },
    {
      "inputs": [
        {
          "internalType": "enum Vester.DistributeType",
          "name": "_distributeType",
          "type": "uint8"
        },
        {
          "internalType": "address",
          "name": "_receiver",
          "type": "address"
        }
      ],
      "name": "updateReceiver",
      "outputs": [],
      "stateMutability": "nonpayable",
      "type": "function"
    }
  ],
  "transactionHash": "0x47ed0c1c7015107f9c0b6a6fb5952abf86ede9f4020b3866622950b55fb980bc",
  "args": [
    "0x511C0a8cCB5C426D43Bcac867D611E534f971aE1",
    "0xdaC9045C49a19d998da465850E162Abbd34B014b",
    "0xdaC9045C49a19d998da465850E162Abbd34B014b",
    "0xdaC9045C49a19d998da465850E162Abbd34B014b",
    "0xdaC9045C49a19d998da465850E162Abbd34B014b",
    "0xdaC9045C49a19d998da465850E162Abbd34B014b",
    "0xdaC9045C49a19d998da465850E162Abbd34B014b",
    "0xdaC9045C49a19d998da465850E162Abbd34B014b"
  ],
  "numDeployments": 1,
  "solcInputHash": "a0a35a8cc001b329f8e259ab1e7a3059",
  "bytecode": "0x6080346200039f57601f6200154a38819003918201601f1916830191906001600160401b03831184841017620003a4578161010092859260409586528339810103126200039f576200005182620003ba565b60209062000061828501620003ba565b6200006e848601620003ba565b926200007d60608701620003ba565b916200008c60808801620003ba565b6200009a60a08901620003ba565b94620000b760e0620000af60c08c01620003ba565b9a01620003ba565b92600096600188556001549360018060a01b03199433868216176001558b519060018060a01b039586918c7f8be0079c531659141344cd1fd0a4f28419497f9722a3daafe3b4186f6b6457e0843393169180a3169081156200035d5750856002541617600255888052600392838852848c8b209116868254161790556004978888528b6aa56fa5b99019a5c800000080828d205560069c8d8b52828d62278d00948591205560078c528d2060189055426301da9c00018042116200034a578f8e898e8c9483805260088252848420556001835252209116898254161790558a8a528d8c20558b89528c8b20556007885260128c8b205562ed4e004201804211620003375760018b52600889528c8b205560028a52838852848c8b209116868254161790558787526af8277896582678ac0000008b8a2055828952828752838b8a209116858254161790558686526a2d7eb3f96e070d970000008a892055868852818652828a89209116848254161790558585526a422ca8b0a00a425000000097888a892055898820549a60fa8c029b808d0460fa1490151715620003245787895260058752612710809c048b8a20558187526276a70090818c8b205560078852828c8b205560088852428c8b205560058a52838852848c8b209116868254161790558787526a464f733baa0ae6750000008b8a20558a8920549b8c60fa81029d8e0460fa149015171562000311578b9c60058b9d9c9d5260058952048a8a205581875289892055600786528089892055600886524289892055875284528686209216908254161790555220555161117a9081620003d08239f35b634e487b7160e01b8a526011895260248afd5b634e487b7160e01b895260118852602489fd5b634e487b7160e01b8b5260118a5260248bfd5b634e487b7160e01b8e5260118d5260248efd5b62461bcd60e51b815260048101899052601560248201527f5665737465723a20696e76616c696420746f6b656e00000000000000000000006044820152606490fd5b600080fd5b634e487b7160e01b600052604160045260246000fd5b51906001600160a01b03821682036200039f5756fe608080604052600436101561001357600080fd5b60003560e01c908163293315f21461084a57508063715018a6146107ed5780637b843945146107bd5780638da5cb5b14610794578063902d55a51461076d578063aac9ca871461070b578063d5999a5c146106ed578063e8da82d414610186578063f2fde38b146100bb5763fc0c546a1461008d57600080fd5b346100b65760003660031901126100b6576002546040516001600160a01b039091168152602090f35b600080fd5b346100b65760203660031901126100b6576004356001600160a01b03818116918290036100b6576100ea610865565b811561013257600154826bffffffffffffffffffffffff60a01b821617600155167f8be0079c531659141344cd1fd0a4f28419497f9722a3daafe3b4186f6b6457e0600080a3005b60405162461bcd60e51b815260206004820152602660248201527f4f776e61626c653a206e6577206f776e657220697320746865207a65726f206160448201526564647265737360d01b6064820152608490fd5b346100b65760203660031901126100b657600760043510156100b6576002600054146106a857600260005560006101be600435610922565b546101ca60043561093b565b54604051606081019080821067ffffffffffffffff831117610692576000928392604052604082527f72656c65617365546f6b656e2072656c6561736564416d6f756e74202573207460208301527f6f74616c52656c656173652025732064697374726962757465547970652025736040830152604051948591610267602084019463a7a8785360e01b86526080602486015260a4850190610ce3565b916044840152606483015260ff6004351660848301520393610291601f19958681018352826109d4565b51906a636f6e736f6c652e6c6f675afa506102ad600435610922565b546102b960043561093b565b541115610656576102df6001600160a01b036102d6600435610909565b541615156108bd565b600091600435158015610646575b83908015610635575b8015610624575b8015610613575b1561056d575050610359610319600435610954565b54604051610326816109b8565b6016815275072656c65617365546f6b656e2074696d657374616d760541b6020820152610351610a95565b9042906110d0565b610364600435610954565b54421061053157600080610379600435610de6565b926103858415156109f6565b60405190610392826109b8565b601a82527f72656c65617365546f6b656e2072656c65617365416d6f756e7400000000000060208301526103f960405191826103e76020820195632d839cb360e21b8752604060248401526064830190610ce3565b886044830152039081018352826109d4565b51906a636f6e736f6c652e6c6f675afa50610415600435610922565b610420828254610a39565b905561042d60043561096d565b5461044461043c600435610954565b918254610a39565b9055610479610454600435610922565b54610460600435610954565b549061046a610a5c565b90610473610a95565b916110d0565b6002546104a19082906001600160a01b0390811690610499600435610909565b541690610ac0565b6001600160a01b036104b4600435610909565b54166104c160043561093b565b546104cd600435610922565b549361051b57602093604051918483528583015260408201527f54a7768e2b918324b97d2703ec9b7f8a4a5b265ace73971d180eed64f5c46fa2606060043592a36001600055604051908152f35b634e487b7160e01b600052602160045260246000fd5b60405162461bcd60e51b81526020600482015260146024820152735665737465723a206c6f636b696e672074696d6560601b6044820152606490fd5b90915061051b576002600435148015610603575b8281156105f1575b50156104a1575061059b600435610de6565b6105a68115156109f6565b6105b1600435610922565b6105bc828254610a39565b90556105cc610454600435610922565b6002546105ec9082906001600160a01b0390811690610499600435610909565b6104a1565b905061051b5760066004351482610589565b5060009150600435600314610581565b5061051b5782600660043514610304565b5061051b57826003600435146102fd565b5061051b57826002600435146102f6565b50600092506004356001146102ed565b60405162461bcd60e51b815260206004820152601460248201527315995cdd195c8e88185b1b081c995b19585cd95960621b6044820152606490fd5b634e487b7160e01b600052604160045260246000fd5b60405162461bcd60e51b815260206004820152601f60248201527f5265656e7472616e637947756172643a207265656e7472616e742063616c6c006044820152606490fd5b346100b65760003660031901126100b657602060405162278d008152f35b346100b65760403660031901126100b65760043560078110156100b6576024356001600160a01b03811691908290036100b65761075a9061074a610865565b6107558315156108bd565b610909565b80546001600160a01b0319169091179055005b346100b65760003660031901126100b65760206040516b033b2e3c9fd0803ce80000008152f35b346100b65760003660031901126100b6576001546040516001600160a01b039091168152602090f35b346100b65760203660031901126100b65760043560078110156100b6576107e5602091610de6565b604051908152f35b346100b65760003660031901126100b657610806610865565b600180546001600160a01b031981169091556000906001600160a01b03167f8be0079c531659141344cd1fd0a4f28419497f9722a3daafe3b4186f6b6457e08280a3005b346100b65760003660031901126100b6578061271060209252f35b6001546001600160a01b0316330361087957565b606460405162461bcd60e51b815260206004820152602060248201527f4f776e61626c653a2063616c6c6572206973206e6f7420746865206f776e65726044820152fd5b156108c457565b60405162461bcd60e51b815260206004820152601860248201527f5665737465723a20696e76616c696420726563656976657200000000000000006044820152606490fd5b600781101561051b576000526003602052604060002090565b600781101561051b576000526009602052604060002090565b600781101561051b576000526004602052604060002090565b600781101561051b576000526008602052604060002090565b600781101561051b576000526006602052604060002090565b600781101561051b576000526005602052604060002090565b600781101561051b576000526007602052604060002090565b6040810190811067ffffffffffffffff82111761069257604052565b90601f8019910116810190811067ffffffffffffffff82111761069257604052565b156109fd57565b60405162461bcd60e51b81526020600482015260146024820152735665737465723a206e6f6e652072656c6561736560601b6044820152606490fd5b91908201809211610a4657565b634e487b7160e01b600052601160045260246000fd5b60405190610a69826109b8565b601b82527f72656c65617365546f6b656e2072656c6561736564416d6f756e7400000000006020830152565b60405190610aa2826109b8565b600f82526e6e65787452656c6561736554696d6560881b6020830152565b60405163a9059cbb60e01b60208083019182526001600160a01b03948516602484015260448084019690965294825292608082019267ffffffffffffffff9291908385118386101761069257846040521690610b1b846109b8565b8584527f5361666545524332303a206c6f772d6c6576656c2063616c6c206661696c656460a0820152600080958192519082855af1903d15610c3b573d928311610c275790610b8a93929160405192610b7d88601f19601f84011601856109d4565b83523d868885013e610c46565b805191821591848315610bfc575b505050905015610ba55750565b6084906040519062461bcd60e51b82526004820152602a60248201527f5361666545524332303a204552433230206f7065726174696f6e20646964206e6044820152691bdd081cdd58d8d9595960b21b6064820152fd5b919381809450010312610c2357820151908115158203610c20575080388084610b98565b80fd5b5080fd5b634e487b7160e01b85526041600452602485fd5b90610b8a9392506060915b91929015610ca85750815115610c5a575090565b3b15610c635790565b60405162461bcd60e51b815260206004820152601d60248201527f416464726573733a2063616c6c20746f206e6f6e2d636f6e74726163740000006044820152606490fd5b825190915015610cbb5750805190602001fd5b60405162461bcd60e51b815260206004820152908190610cdf906024830190610ce3565b0390fd5b919082519283825260005b848110610d0f575050826000602080949584010152601f8019910116010190565b602081830181015184830182015201610cee565b91908203918211610a4657565b60405190610d3d826109b8565b601a82527f67657452656c65617365416d6f756e742074696d657374616d700000000000006020830152565b60405190610d76826109b8565b602082527f67657452656c65617365416d6f756e742072656c65617365496e74657276616c6020830152565b60405190610daf826109b8565b60088252671a5b9d195c9d985b60c21b6020830152565b8115610dd0570490565b634e487b7160e01b600052601260045260246000fd5b600080610e63610df584610922565b54610dff8561093b565b549060405190610e0e826109b8565b601f82527f67657452656c65617365416d6f756e742072656c6561736564416d6f756e7400602083015260405191610e45836109b8565b600c83526b746f74616c52656c6561736560a01b60208401526110d0565b610e6c83610922565b54610e768461093b565b5411156110ca5760078310158061109e57831580156110be575b15610f7e575050610eb4610ea383610954565b54610eac610d30565b610351610a95565b610ebd82610954565b544210610f5e57610ecd82610922565b5415610f6357610ee6610edf83610954565b5442610d23565b610f0581610ef38561096d565b54610efc610d69565b90610473610da2565b610f0e8361096d565b5411610f5e57610f50610f34610f238461093b565b54610f2d8561099f565b5490610dc6565b925b610f49610f428261093b565b5491610922565b5490610d23565b905080821015610f5e575090565b905090565b5080610f2d610f74610f7b9361093b565b549161099f565b90565b8061109e576004841480156110b2575b15611021575050610fa1610ea383610954565b610faa82610954565b544210610f5e57610fba82610922565b541561101357610fcc610edf83610954565b610fd981610ef38561096d565b610fe28361096d565b5411610f5e57610f5061100d611004610ffa8561093b565b54610f4986610986565b610f2d8561099f565b92610f36565b5061101d90610986565b5490565b8093919361109e5760028214908115611092575b811561106e575b5061104b575b610f5090610f36565b9150610f5061106661105c8461093b565b54610f4985610922565b929050611042565b905061107e57600681143861103c565b634e487b7160e01b82526021600452602482fd5b50506003811482611035565b634e487b7160e01b83526021600452602483fd5b50508160058414610f8e565b50508160018414610e90565b50905090565b9061113160009493859461111d604051948593611106602086019863c67ea9d160e01b8a526080602488015260a4870190610ce3565b916044860152602319858303016064860152610ce3565b90608483015203601f1981018352826109d4565b51906a636f6e736f6c652e6c6f675afa5056fea2646970667358221220de6e9624bbaec62ee116f00e52dcf8ac0550605c37d6ae46dbb5cc12e03d17eb64736f6c63430008110033",
  "devdoc": {
    "kind": "dev",
    "methods": {
      "owner()": {
        "details": "Returns the address of the current owner."
      },
      "renounceOwnership()": {
        "details": "Leaves the contract without owner. It will not be possible to call `onlyOwner` functions. Can only be called by the current owner. NOTE: Renouncing ownership will leave the contract without an owner, thereby disabling any functionality that is only available to the owner."
      },
      "transferOwnership(address)": {
        "details": "Transfers ownership of the contract to a new account (`newOwner`). Can only be called by the current owner."
      }
    },
    "version": 1
  },
  "userdoc": {
    "kind": "user",
    "methods": {},
    "version": 1
  },
  "storageLayout": {
    "storage": [
      {
        "astId": 400,
        "contract": "contracts/earn/Vester.sol:Vester",
        "label": "_status",
        "offset": 0,
        "slot": "0",
        "type": "t_uint256"
      },
      {
        "astId": 7,
        "contract": "contracts/earn/Vester.sol:Vester",
        "label": "_owner",
        "offset": 0,
        "slot": "1",
        "type": "t_address"
      },
      {
        "astId": 119,
        "contract": "contracts/earn/Vester.sol:Vester",
        "label": "_initialized",
        "offset": 20,
        "slot": "1",
        "type": "t_uint8"
      },
      {
        "astId": 122,
        "contract": "contracts/earn/Vester.sol:Vester",
        "label": "_initializing",
        "offset": 21,
        "slot": "1",
        "type": "t_bool"
      },
      {
        "astId": 6161,
        "contract": "contracts/earn/Vester.sol:Vester",
        "label": "token",
        "offset": 0,
        "slot": "2",
        "type": "t_address"
      },
      {
        "astId": 6166,
        "contract": "contracts/earn/Vester.sol:Vester",
        "label": "receiver",
        "offset": 0,
        "slot": "3",
        "type": "t_mapping(t_enum(DistributeType)6133,t_address)"
      },
      {
        "astId": 6171,
        "contract": "contracts/earn/Vester.sol:Vester",
        "label": "totalRelease",
        "offset": 0,
        "slot": "4",
        "type": "t_mapping(t_enum(DistributeType)6133,t_uint256)"
      },
      {
        "astId": 6176,
        "contract": "contracts/earn/Vester.sol:Vester",
        "label": "tge",
        "offset": 0,
        "slot": "5",
        "type": "t_mapping(t_enum(DistributeType)6133,t_uint256)"
      },
      {
        "astId": 6181,
        "contract": "contracts/earn/Vester.sol:Vester",
        "label": "releaseInterval",
        "offset": 0,
        "slot": "6",
        "type": "t_mapping(t_enum(DistributeType)6133,t_uint256)"
      },
      {
        "astId": 6186,
        "contract": "contracts/earn/Vester.sol:Vester",
        "label": "releaseRounds",
        "offset": 0,
        "slot": "7",
        "type": "t_mapping(t_enum(DistributeType)6133,t_uint256)"
      },
      {
        "astId": 6191,
        "contract": "contracts/earn/Vester.sol:Vester",
        "label": "nextReleaseTime",
        "offset": 0,
        "slot": "8",
        "type": "t_mapping(t_enum(DistributeType)6133,t_uint256)"
      },
      {
        "astId": 6196,
        "contract": "contracts/earn/Vester.sol:Vester",
        "label": "releasedAmount",
        "offset": 0,
        "slot": "9",
        "type": "t_mapping(t_enum(DistributeType)6133,t_uint256)"
      }
    ],
    "types": {
      "t_address": {
        "encoding": "inplace",
        "label": "address",
        "numberOfBytes": "20"
      },
      "t_bool": {
        "encoding": "inplace",
        "label": "bool",
        "numberOfBytes": "1"
      },
      "t_enum(DistributeType)6133": {
        "encoding": "inplace",
        "label": "enum Vester.DistributeType",
        "numberOfBytes": "1"
      },
      "t_mapping(t_enum(DistributeType)6133,t_address)": {
        "encoding": "mapping",
        "key": "t_enum(DistributeType)6133",
        "label": "mapping(enum Vester.DistributeType => address)",
        "numberOfBytes": "32",
        "value": "t_address"
      },
      "t_mapping(t_enum(DistributeType)6133,t_uint256)": {
        "encoding": "mapping",
        "key": "t_enum(DistributeType)6133",
        "label": "mapping(enum Vester.DistributeType => uint256)",
        "numberOfBytes": "32",
        "value": "t_uint256"
      },
      "t_uint256": {
        "encoding": "inplace",
        "label": "uint256",
        "numberOfBytes": "32"
      },
      "t_uint8": {
        "encoding": "inplace",
        "label": "uint8",
        "numberOfBytes": "1"
      }
    }
  }
}