{
  "address": "0x70eE76691Bdd9696552AF8d4fd634b3cF79DD529",
  "abi": [
    {
      "inputs": [
        {
          "internalType": "contract IAddressesProvider",
          "name": "_addressProvider",
          "type": "address"
        }
      ],
      "stateMutability": "nonpayable",
      "type": "constructor"
    },
    {
      "anonymous": false,
      "inputs": [
        {
          "indexed": false,
          "internalType": "address",
          "name": "token",
          "type": "address"
        },
        {
          "indexed": false,
          "internalType": "uint256",
          "name": "refPrice",
          "type": "uint256"
        },
        {
          "indexed": false,
          "internalType": "uint256",
          "name": "fastPrice",
          "type": "uint256"
        }
      ],
      "name": "PriceData",
      "type": "event"
    },
    {
      "anonymous": false,
      "inputs": [
        {
          "indexed": false,
          "internalType": "address",
          "name": "token",
          "type": "address"
        },
        {
          "indexed": false,
          "internalType": "uint256",
          "name": "price",
          "type": "uint256"
        },
        {
          "indexed": false,
          "internalType": "address",
          "name": "priceFeed",
          "type": "address"
        }
      ],
      "name": "PriceUpdate",
      "type": "event"
    },
    {
      "inputs": [],
      "name": "BASIS_POINTS_DIVISOR",
      "outputs": [
        {
          "internalType": "uint256",
          "name": "",
          "type": "uint256"
        }
      ],
      "stateMutability": "view",
      "type": "function"
    },
    {
      "inputs": [],
      "name": "BITMASK_32",
      "outputs": [
        {
          "internalType": "uint256",
          "name": "",
          "type": "uint256"
        }
      ],
      "stateMutability": "view",
      "type": "function"
    },
    {
      "inputs": [],
      "name": "MAX_PRICE_DURATION",
      "outputs": [
        {
          "internalType": "uint256",
          "name": "",
          "type": "uint256"
        }
      ],
      "stateMutability": "view",
      "type": "function"
    },
    {
      "inputs": [],
      "name": "MAX_REF_PRICE",
      "outputs": [
        {
          "internalType": "uint256",
          "name": "",
          "type": "uint256"
        }
      ],
      "stateMutability": "view",
      "type": "function"
    },
    {
      "inputs": [],
      "name": "PRICE_PRECISION",
      "outputs": [
        {
          "internalType": "uint256",
          "name": "",
          "type": "uint256"
        }
      ],
      "stateMutability": "view",
      "type": "function"
    },
    {
      "inputs": [
        {
          "internalType": "address",
          "name": "_token",
          "type": "address"
        }
      ],
      "name": "getPrice",
      "outputs": [
        {
          "internalType": "uint256",
          "name": "",
          "type": "uint256"
        }
      ],
      "stateMutability": "view",
      "type": "function"
    },
    {
      "inputs": [],
      "name": "lastUpdatedAt",
      "outputs": [
        {
          "internalType": "uint256",
          "name": "",
          "type": "uint256"
        }
      ],
      "stateMutability": "view",
      "type": "function"
    },
    {
      "inputs": [],
      "name": "maxTimeDeviation",
      "outputs": [
        {
          "internalType": "uint256",
          "name": "",
          "type": "uint256"
        }
      ],
      "stateMutability": "view",
      "type": "function"
    },
    {
      "inputs": [
        {
          "internalType": "address",
          "name": "",
          "type": "address"
        }
      ],
      "name": "prices",
      "outputs": [
        {
          "internalType": "uint256",
          "name": "",
          "type": "uint256"
        }
      ],
      "stateMutability": "view",
      "type": "function"
    },
    {
      "inputs": [
        {
          "internalType": "uint256[]",
          "name": "_priceBitArray",
          "type": "uint256[]"
        },
        {
          "internalType": "uint256",
          "name": "_timestamp",
          "type": "uint256"
        }
      ],
      "name": "setCompactedPrices",
      "outputs": [],
      "stateMutability": "nonpayable",
      "type": "function"
    },
    {
      "inputs": [
        {
          "internalType": "uint256",
          "name": "_lastUpdatedAt",
          "type": "uint256"
        }
      ],
      "name": "setLastUpdatedAt",
      "outputs": [],
      "stateMutability": "nonpayable",
      "type": "function"
    },
    {
      "inputs": [
        {
          "internalType": "uint256",
          "name": "_maxTimeDeviation",
          "type": "uint256"
        }
      ],
      "name": "setMaxTimeDeviation",
      "outputs": [],
      "stateMutability": "nonpayable",
      "type": "function"
    },
    {
      "inputs": [
        {
          "internalType": "address[]",
          "name": "_tokens",
          "type": "address[]"
        },
        {
          "internalType": "uint256[]",
          "name": "_prices",
          "type": "uint256[]"
        },
        {
          "internalType": "uint256",
          "name": "_timestamp",
          "type": "uint256"
        }
      ],
      "name": "setPrices",
      "outputs": [],
      "stateMutability": "nonpayable",
      "type": "function"
    },
    {
      "inputs": [
        {
          "internalType": "uint256",
          "name": "_priceBits",
          "type": "uint256"
        },
        {
          "internalType": "uint256",
          "name": "_timestamp",
          "type": "uint256"
        }
      ],
      "name": "setPricesWithBits",
      "outputs": [],
      "stateMutability": "nonpayable",
      "type": "function"
    },
    {
      "inputs": [
        {
          "internalType": "address[]",
          "name": "_tokens",
          "type": "address[]"
        },
        {
          "internalType": "uint256[]",
          "name": "_tokenPrecisions",
          "type": "uint256[]"
        }
      ],
      "name": "setTokens",
      "outputs": [],
      "stateMutability": "nonpayable",
      "type": "function"
    },
    {
      "inputs": [
        {
          "internalType": "uint256",
          "name": "",
          "type": "uint256"
        }
      ],
      "name": "tokenPrecisions",
      "outputs": [
        {
          "internalType": "uint256",
          "name": "",
          "type": "uint256"
        }
      ],
      "stateMutability": "view",
      "type": "function"
    },
    {
      "inputs": [
        {
          "internalType": "uint256",
          "name": "",
          "type": "uint256"
        }
      ],
      "name": "tokens",
      "outputs": [
        {
          "internalType": "address",
          "name": "",
          "type": "address"
        }
      ],
      "stateMutability": "view",
      "type": "function"
    }
  ],
  "transactionHash": "0xd826632890b69eeac5fa38105409f4a1f264b198e274644adab4ad98dd0aa66c",
  "args": [
    "0xFD6F7A6a5c21A3f503EBaE7a473639974379c351"
  ],
  "numDeployments": 1,
  "solcInputHash": "9e376f0b83e315984c98ac2f39429f15",
  "bytecode": "0x60803461007457601f61110e38819003918201601f19168301916001600160401b038311848410176100795780849260209460405283398101031261007457516001600160a01b0381169081900361007457600580546001600160a01b03191691909117905560405161107e90816100908239f35b600080fd5b634e487b7160e01b600052604160045260246000fdfe6040608081526004908136101561001557600080fd5b600091823560e01c90816303f4d7dc146108f5578163126082cf146108d857816314dd2dce1461083957816317835d1c146107675781633aa08f861461074857816341976e09146107205781634d11fb4a146106e55781634f64b2be146106a057816354aea12714610683578163668d3d6514610666578163776d16c114610594578163782661bc14610426578163807c97821461040757816395082d25146103df578163c8390a481461013957508063cfed246b146101025763e68a22c0146100de57600080fd5b346100fe57816003193601126100fe57516001600160a01b038152602090f35b5080fd5b50346100fe5760203660031901126100fe5760209181906001600160a01b03610129610a84565b1681526002845220549051908152f35b9050346103db57816003193601126103db5767ffffffffffffffff9181358381116103d75761016b9036908401610afa565b602480358581116103d3576101839036908601610a21565b9160018060a01b03806005541694805180966351331ad760e01b825281896020998a935afa90811561039c57839188918c916103a6575b508351637be53ca160e01b8152338b82015292839188918391165afa90811561039c57906101ef918b9161036f575b50610b9f565b825185510361033c575081519087821161032a576801000000000000000092838311610318578690600354846003558085106102f4575b50019060038a52895b8381106102d2575050505082519586116102c05785116102af57508190835485855580861061028b575b5001918452835b83811061026b578480f35b825160008051602061102983398151915282015591810191600101610260565b6102a990866000805160206110298339815191529182019101610bdb565b38610259565b634e487b7160e01b86526041845285fd5b50634e487b7160e01b86526041845285fd5b825182166000805160206110098339815191528201559187019160010161022f565b61031290856000805160206110098339815191529182019101610bdb565b38610226565b634e487b7160e01b8a5260418852848afd5b634e487b7160e01b8952604187528389fd5b5162461bcd60e51b8152808701869052600f818501526e696e76616c6964206c656e6774687360881b6044820152606490fd5b61038f9150883d8a11610395575b61038781836109d1565b810190610b87565b386101e9565b503d61037d565b82513d8c823e3d90fd5b6103c69150823d84116103cc575b6103be81836109d1565b810190610b68565b386101ba565b503d6103b4565b8680fd5b8480fd5b8280fd5b5050346100fe57816003193601126100fe57602090516c0c9f2c9cd04674edea400000008152f35b5050346100fe57816003193601126100fe576020905163ffffffff8152f35b839150346100fe5760603660031901126100fe5767ffffffffffffffff8135818111610590576104599036908401610afa565b90602435908111610590576104719036908401610a21565b9360018060a01b0392836005541682519182916351331ad760e01b8352828260209586935afa91821561058657918392918794928992610564575b50602490865195869384926335d2155560e11b84523390840152165afa92831561055b5750906104e59291869261053e575b5050610bf2565b6104f0604435610f5e565b6104f8578280f35b825b815181101561053257806105288461051561052d9486610c50565b51166105218389610c50565b5190610e3d565b610c2b565b6104fa565b50505090508082808280f35b6105549250803d106103955761038781836109d1565b86806104de565b513d87823e3d90fd5b602491925061057f90843d86116103cc576103be81836109d1565b91906104ac565b84513d89823e3d90fd5b8380fd5b9050346103db576020806003193601126105905760055483516351331ad760e01b81526001600160a01b0391839082908690829086165afa801561065c578391879161063f575b506024865180948193637be53ca160e01b83523389840152165afa918215610635576106119394508592610618575b5050610b9f565b3560015580f35b61062e9250803d106103955761038781836109d1565b388061060a565b84513d87823e3d90fd5b6106569150823d84116103cc576103be81836109d1565b386105db565b85513d88823e3d90fd5b5050346100fe57816003193601126100fe57602090516107088152f35b5050346100fe57816003193601126100fe57602091549051908152f35b9050346103db5760203660031901126103db57356003548110156103db5760036020935260018060a01b03906000805160206110098339815191520154169051908152f35b9050346103db5760203660031901126103db578035908054821015610590576020935260008051602061102983398151915201549051908152f35b5050346100fe5760203660031901126100fe5760209181906001600160a01b03610129610a84565b5050346100fe57816003193601126100fe576020906001549051908152f35b9050346103db57816003193601126103db5760055482516351331ad760e01b81526001600160a01b039160209190829082908690829087165afa801561065c578291879161081c575b5060248651809581936335d2155560e11b83523389840152165afa9384156108135750926107e9916107f39486926107f6575050610bf2565b6024359035610d8f565b80f35b61080c9250803d106103955761038781836109d1565b38806104de565b513d86823e3d90fd5b6108339150823d84116103cc576103be81836109d1565b386107b0565b9050346103db576020806003193601126105905760055483516351331ad760e01b81526001600160a01b0391839082908690829086165afa801561065c57839187916108bb575b506024865180948193637be53ca160e01b83523389840152165afa918215610635576108b59394508592610618575050610b9f565b35815580f35b6108d29150823d84116103cc576103be81836109d1565b38610880565b5050346100fe57816003193601126100fe57602090516127108152f35b9050346103db57816003193601126103db57803567ffffffffffffffff8111610590576109259036908301610a21565b60055483516351331ad760e01b815291926001600160a01b0392602092909190839083908390829088165afa9081156109c757839288926109a5575b50602490875195869384926335d2155560e11b84523390840152165afa93841561081357509261099c916107f39486926107f6575050610bf2565b60243590610c71565b60249192506109c090843d86116103cc576103be81836109d1565b9190610961565b86513d89823e3d90fd5b90601f8019910116810190811067ffffffffffffffff8211176109f357604052565b634e487b7160e01b600052604160045260246000fd5b67ffffffffffffffff81116109f35760051b60200190565b81601f82011215610a7f57803591610a3883610a09565b92610a4660405194856109d1565b808452602092838086019260051b820101928311610a7f578301905b828210610a70575050505090565b81358152908301908301610a62565b600080fd5b600435906001600160a01b0382168203610a7f57565b600354811015610abf5760036000526000805160206110098339815191520190600090565b634e487b7160e01b600052603260045260246000fd5b600454811015610abf5760046000526000805160206110298339815191520190600090565b81601f82011215610a7f57803591610b1183610a09565b92610b1f60405194856109d1565b808452602092838086019260051b820101928311610a7f578301905b828210610b49575050505090565b81356001600160a01b0381168103610a7f578152908301908301610b3b565b90816020910312610a7f57516001600160a01b0381168103610a7f5790565b90816020910312610a7f57518015158103610a7f5790565b15610ba657565b60405162461bcd60e51b815260206004820152600d60248201526c37b7363ca837b7b620b236b4b760991b6044820152606490fd5b818110610be6575050565b60008155600101610bdb565b15610bf957565b60405162461bcd60e51b815260206004820152600a60248201526937b7363ca5b2b2b832b960b11b6044820152606490fd5b6000198114610c3a5760010190565b634e487b7160e01b600052601160045260246000fd5b8051821015610abf5760209160051b010190565b91908201809211610c3a57565b90610c7b90610f5e565b610c825750565b60005b8151811015610d8b57610c988183610c50565b519160005b60089081811015610d7957600384811b928584041485151715610c3a57610cc48284610c64565b81541115610d71576001600160fb1b0382168203610c3a5763ffffffff868360051b1c1690610d1c610d1784610d02610cfd8289610c64565b610a9a565b905490851b1c6001600160a01b031696610c64565b610ad5565b9054911b1c926c0c9f2c9cd04674edea4000000091828102928184041490151715610c3a578315610d5b57610d5693610528920490610e3d565b610c9d565b634e487b7160e01b600052601260045260246000fd5b505050505050565b50509150610d8690610c2b565b610c85565b5050565b90610d9990610f5e565b610da05750565b60005b60088110610daf575050565b6003908154811015610e38576001600160fb1b0381168103610c3a5763ffffffff838260051b1c16610de082610a9a565b905490841b1c6001600160a01b031692610df983610ad5565b9054911b1c926c0c9f2c9cd04674edea4000000091828102928184041490151715610c3a578315610d5b57610e3393610528920490610e3d565b610da3565b505050565b60408051939284820167ffffffffffffffff8111868210176109f3578252601b855260207f736574507269636520746f6b656e20257320707269636520257320000000000081870152825181810190630d26b92560e01b82526060602482015287519586608483015260005b878110610f4a57507fc37a77b91cc3fc2d0e4b43fd2f347ec67adda10e39215de4742836cc3e42c97a979850869594939282610f1b60a48260009695878360609e829901015260018060a01b03169a8b6044830152896064830152601f801991011681010360848101845201826109d1565b51906a636f6e736f6c652e6c6f675afa50836000526002815281836000205582519384528301523390820152a1565b89810185015183820160a401528401610ea9565b600154804203428111610c3a57821115610fd257610f7c9042610c64565b811015610f9a576000548110610f9457600055600190565b50600090565b60405162461bcd60e51b815260206004820152601060248201526f747320657863656564732072616e676560801b6044820152606490fd5b60405162461bcd60e51b815260206004820152600e60248201526d74732062656c6f772072616e676560901b6044820152606490fdfec2575a0e9e593c00f959f8c92f12db2869c3395a3b0502d05e2516446f71f85b8a35acfbc15ff81a39ae7d344fd709f28e8600b4aa8c65c6b64bfe7fe36bd19ba2646970667358221220cc918f0554e678128480825f56e9230e7a8bd80cbf694340d4355a0547b1fdaa64736f6c63430008110033",
  "devdoc": {
    "kind": "dev",
    "methods": {},
    "version": 1
  },
  "userdoc": {
    "kind": "user",
    "methods": {},
    "version": 1
  },
  "storageLayout": {
    "storage": [
      {
        "astId": 15157,
        "contract": "contracts/price/IndexPriceFeed.sol:IndexPriceFeed",
        "label": "lastUpdatedAt",
        "offset": 0,
        "slot": "0",
        "type": "t_uint256"
      },
      {
        "astId": 15159,
        "contract": "contracts/price/IndexPriceFeed.sol:IndexPriceFeed",
        "label": "maxTimeDeviation",
        "offset": 0,
        "slot": "1",
        "type": "t_uint256"
      },
      {
        "astId": 15163,
        "contract": "contracts/price/IndexPriceFeed.sol:IndexPriceFeed",
        "label": "prices",
        "offset": 0,
        "slot": "2",
        "type": "t_mapping(t_address,t_uint256)"
      },
      {
        "astId": 15166,
        "contract": "contracts/price/IndexPriceFeed.sol:IndexPriceFeed",
        "label": "tokens",
        "offset": 0,
        "slot": "3",
        "type": "t_array(t_address)dyn_storage"
      },
      {
        "astId": 15169,
        "contract": "contracts/price/IndexPriceFeed.sol:IndexPriceFeed",
        "label": "tokenPrecisions",
        "offset": 0,
        "slot": "4",
        "type": "t_array(t_uint256)dyn_storage"
      },
      {
        "astId": 15172,
        "contract": "contracts/price/IndexPriceFeed.sol:IndexPriceFeed",
        "label": "addressProvider",
        "offset": 0,
        "slot": "5",
        "type": "t_contract(IAddressesProvider)7592"
      }
    ],
    "types": {
      "t_address": {
        "encoding": "inplace",
        "label": "address",
        "numberOfBytes": "20"
      },
      "t_array(t_address)dyn_storage": {
        "base": "t_address",
        "encoding": "dynamic_array",
        "label": "address[]",
        "numberOfBytes": "32"
      },
      "t_array(t_uint256)dyn_storage": {
        "base": "t_uint256",
        "encoding": "dynamic_array",
        "label": "uint256[]",
        "numberOfBytes": "32"
      },
      "t_contract(IAddressesProvider)7592": {
        "encoding": "inplace",
        "label": "contract IAddressesProvider",
        "numberOfBytes": "20"
      },
      "t_mapping(t_address,t_uint256)": {
        "encoding": "mapping",
        "key": "t_address",
        "label": "mapping(address => uint256)",
        "numberOfBytes": "32",
        "value": "t_uint256"
      },
      "t_uint256": {
        "encoding": "inplace",
        "label": "uint256",
        "numberOfBytes": "32"
      }
    }
  }
}