{
  "address": "0x967AB65ef14c58bD4DcfFeaAA1ADb40a022140E5",
  "abi": [
    {
      "inputs": [
        {
          "internalType": "contract IAddressesProvider",
          "name": "addressProvider",
          "type": "address"
        },
        {
          "internalType": "contract IPool",
          "name": "_pairInfo",
          "type": "address"
        },
        {
          "internalType": "contract IPositionManager",
          "name": "_tradingVault",
          "type": "address"
        }
      ],
      "stateMutability": "nonpayable",
      "type": "constructor"
    },
    {
      "anonymous": false,
      "inputs": [
        {
          "indexed": false,
          "internalType": "address",
          "name": "account",
          "type": "address"
        },
        {
          "indexed": false,
          "internalType": "uint256",
          "name": "orderId",
          "type": "uint256"
        },
        {
          "indexed": false,
          "internalType": "enum TradingTypes.TradeType",
          "name": "tradeType",
          "type": "uint8"
        }
      ],
      "name": "CancelDecreaseOrder",
      "type": "event"
    },
    {
      "anonymous": false,
      "inputs": [
        {
          "indexed": false,
          "internalType": "address",
          "name": "account",
          "type": "address"
        },
        {
          "indexed": false,
          "internalType": "uint256",
          "name": "orderId",
          "type": "uint256"
        },
        {
          "indexed": false,
          "internalType": "enum TradingTypes.TradeType",
          "name": "tradeType",
          "type": "uint8"
        }
      ],
      "name": "CancelIncreaseOrder",
      "type": "event"
    },
    {
      "anonymous": false,
      "inputs": [
        {
          "indexed": false,
          "internalType": "address",
          "name": "account",
          "type": "address"
        },
        {
          "indexed": false,
          "internalType": "uint256",
          "name": "orderId",
          "type": "uint256"
        },
        {
          "indexed": false,
          "internalType": "enum TradingTypes.TradeType",
          "name": "tradeType",
          "type": "uint8"
        },
        {
          "indexed": false,
          "internalType": "int256",
          "name": "collateral",
          "type": "int256"
        },
        {
          "indexed": false,
          "internalType": "uint256",
          "name": "pairIndex",
          "type": "uint256"
        },
        {
          "indexed": false,
          "internalType": "uint256",
          "name": "openPrice",
          "type": "uint256"
        },
        {
          "indexed": false,
          "internalType": "uint256",
          "name": "sizeAmount",
          "type": "uint256"
        },
        {
          "indexed": false,
          "internalType": "bool",
          "name": "isLong",
          "type": "bool"
        },
        {
          "indexed": false,
          "internalType": "bool",
          "name": "abovePrice",
          "type": "bool"
        }
      ],
      "name": "CreateDecreaseOrder",
      "type": "event"
    },
    {
      "anonymous": false,
      "inputs": [
        {
          "indexed": false,
          "internalType": "address",
          "name": "account",
          "type": "address"
        },
        {
          "indexed": false,
          "internalType": "uint256",
          "name": "orderId",
          "type": "uint256"
        },
        {
          "indexed": false,
          "internalType": "uint256",
          "name": "pairIndex",
          "type": "uint256"
        },
        {
          "indexed": false,
          "internalType": "enum TradingTypes.TradeType",
          "name": "tradeType",
          "type": "uint8"
        },
        {
          "indexed": false,
          "internalType": "int256",
          "name": "collateral",
          "type": "int256"
        },
        {
          "indexed": false,
          "internalType": "uint256",
          "name": "openPrice",
          "type": "uint256"
        },
        {
          "indexed": false,
          "internalType": "bool",
          "name": "isLong",
          "type": "bool"
        },
        {
          "indexed": false,
          "internalType": "uint256",
          "name": "sizeAmount",
          "type": "uint256"
        },
        {
          "indexed": false,
          "internalType": "uint256",
          "name": "tpPrice",
          "type": "uint256"
        },
        {
          "indexed": false,
          "internalType": "uint256",
          "name": "tpAmount",
          "type": "uint256"
        },
        {
          "indexed": false,
          "internalType": "uint256",
          "name": "slPrice",
          "type": "uint256"
        },
        {
          "indexed": false,
          "internalType": "uint256",
          "name": "slAmount",
          "type": "uint256"
        }
      ],
      "name": "CreateIncreaseOrder",
      "type": "event"
    },
    {
      "anonymous": false,
      "inputs": [
        {
          "indexed": false,
          "internalType": "address",
          "name": "account",
          "type": "address"
        }
      ],
      "name": "Paused",
      "type": "event"
    },
    {
      "anonymous": false,
      "inputs": [
        {
          "indexed": false,
          "internalType": "address",
          "name": "account",
          "type": "address"
        }
      ],
      "name": "Unpaused",
      "type": "event"
    },
    {
      "anonymous": false,
      "inputs": [
        {
          "indexed": false,
          "internalType": "address",
          "name": "oldAddress",
          "type": "address"
        },
        {
          "indexed": false,
          "internalType": "address",
          "name": "newAddress",
          "type": "address"
        }
      ],
      "name": "UpdatePositionManager",
      "type": "event"
    },
    {
      "inputs": [],
      "name": "ADDRESS_PROVIDER",
      "outputs": [
        {
          "internalType": "contract IAddressesProvider",
          "name": "",
          "type": "address"
        }
      ],
      "stateMutability": "view",
      "type": "function"
    },
    {
      "inputs": [
        {
          "components": [
            {
              "internalType": "address",
              "name": "account",
              "type": "address"
            },
            {
              "internalType": "uint256",
              "name": "pairIndex",
              "type": "uint256"
            },
            {
              "internalType": "bool",
              "name": "isLong",
              "type": "bool"
            },
            {
              "internalType": "bool",
              "name": "isIncrease",
              "type": "bool"
            },
            {
              "internalType": "enum TradingTypes.TradeType",
              "name": "tradeType",
              "type": "uint8"
            },
            {
              "internalType": "uint256",
              "name": "orderId",
              "type": "uint256"
            },
            {
              "internalType": "uint256",
              "name": "sizeAmount",
              "type": "uint256"
            }
          ],
          "internalType": "struct IOrderManager.PositionOrder",
          "name": "order",
          "type": "tuple"
        }
      ],
      "name": "addOrderToPosition",
      "outputs": [],
      "stateMutability": "nonpayable",
      "type": "function"
    },
    {
      "inputs": [],
      "name": "addressExecutor",
      "outputs": [
        {
          "internalType": "address",
          "name": "",
          "type": "address"
        }
      ],
      "stateMutability": "view",
      "type": "function"
    },
    {
      "inputs": [
        {
          "internalType": "address",
          "name": "account",
          "type": "address"
        },
        {
          "internalType": "uint256",
          "name": "pairIndex",
          "type": "uint256"
        },
        {
          "internalType": "bool",
          "name": "isLong",
          "type": "bool"
        }
      ],
      "name": "cancelAllPositionOrders",
      "outputs": [],
      "stateMutability": "nonpayable",
      "type": "function"
    },
    {
      "inputs": [
        {
          "internalType": "uint256",
          "name": "orderId",
          "type": "uint256"
        },
        {
          "internalType": "enum TradingTypes.TradeType",
          "name": "tradeType",
          "type": "uint8"
        },
        {
          "internalType": "bool",
          "name": "isIncrease",
          "type": "bool"
        }
      ],
      "name": "cancelOrder",
      "outputs": [],
      "stateMutability": "nonpayable",
      "type": "function"
    },
    {
      "inputs": [
        {
          "components": [
            {
              "internalType": "address",
              "name": "account",
              "type": "address"
            },
            {
              "internalType": "uint256",
              "name": "pairIndex",
              "type": "uint256"
            },
            {
              "internalType": "enum TradingTypes.TradeType",
              "name": "tradeType",
              "type": "uint8"
            },
            {
              "internalType": "int256",
              "name": "collateral",
              "type": "int256"
            },
            {
              "internalType": "uint256",
              "name": "openPrice",
              "type": "uint256"
            },
            {
              "internalType": "bool",
              "name": "isLong",
              "type": "bool"
            },
            {
              "internalType": "int256",
              "name": "sizeAmount",
              "type": "int256"
            }
          ],
          "internalType": "struct TradingTypes.CreateOrderRequest",
          "name": "request",
          "type": "tuple"
        }
      ],
      "name": "createOrder",
      "outputs": [
        {
          "internalType": "uint256",
          "name": "orderId",
          "type": "uint256"
        }
      ],
      "stateMutability": "nonpayable",
      "type": "function"
    },
    {
      "inputs": [
        {
          "internalType": "uint256",
          "name": "",
          "type": "uint256"
        }
      ],
      "name": "decreaseLimitOrders",
      "outputs": [
        {
          "internalType": "uint256",
          "name": "orderId",
          "type": "uint256"
        },
        {
          "internalType": "address",
          "name": "account",
          "type": "address"
        },
        {
          "internalType": "uint256",
          "name": "pairIndex",
          "type": "uint256"
        },
        {
          "internalType": "enum TradingTypes.TradeType",
          "name": "tradeType",
          "type": "uint8"
        },
        {
          "internalType": "int256",
          "name": "collateral",
          "type": "int256"
        },
        {
          "internalType": "uint256",
          "name": "triggerPrice",
          "type": "uint256"
        },
        {
          "internalType": "uint256",
          "name": "sizeAmount",
          "type": "uint256"
        },
        {
          "internalType": "bool",
          "name": "isLong",
          "type": "bool"
        },
        {
          "internalType": "bool",
          "name": "abovePrice",
          "type": "bool"
        },
        {
          "internalType": "uint256",
          "name": "blockTime",
          "type": "uint256"
        },
        {
          "internalType": "bool",
          "name": "needADL",
          "type": "bool"
        }
      ],
      "stateMutability": "view",
      "type": "function"
    },
    {
      "inputs": [],
      "name": "decreaseLimitOrdersIndex",
      "outputs": [
        {
          "internalType": "uint256",
          "name": "",
          "type": "uint256"
        }
      ],
      "stateMutability": "view",
      "type": "function"
    },
    {
      "inputs": [
        {
          "internalType": "uint256",
          "name": "",
          "type": "uint256"
        }
      ],
      "name": "decreaseMarketOrders",
      "outputs": [
        {
          "internalType": "uint256",
          "name": "orderId",
          "type": "uint256"
        },
        {
          "internalType": "address",
          "name": "account",
          "type": "address"
        },
        {
          "internalType": "uint256",
          "name": "pairIndex",
          "type": "uint256"
        },
        {
          "internalType": "enum TradingTypes.TradeType",
          "name": "tradeType",
          "type": "uint8"
        },
        {
          "internalType": "int256",
          "name": "collateral",
          "type": "int256"
        },
        {
          "internalType": "uint256",
          "name": "triggerPrice",
          "type": "uint256"
        },
        {
          "internalType": "uint256",
          "name": "sizeAmount",
          "type": "uint256"
        },
        {
          "internalType": "bool",
          "name": "isLong",
          "type": "bool"
        },
        {
          "internalType": "bool",
          "name": "abovePrice",
          "type": "bool"
        },
        {
          "internalType": "uint256",
          "name": "blockTime",
          "type": "uint256"
        },
        {
          "internalType": "bool",
          "name": "needADL",
          "type": "bool"
        }
      ],
      "stateMutability": "view",
      "type": "function"
    },
    {
      "inputs": [],
      "name": "decreaseMarketOrdersIndex",
      "outputs": [
        {
          "internalType": "uint256",
          "name": "",
          "type": "uint256"
        }
      ],
      "stateMutability": "view",
      "type": "function"
    },
    {
      "inputs": [
        {
          "internalType": "uint256",
          "name": "orderId",
          "type": "uint256"
        },
        {
          "internalType": "enum TradingTypes.TradeType",
          "name": "tradeType",
          "type": "uint8"
        }
      ],
      "name": "getDecreaseOrder",
      "outputs": [
        {
          "components": [
            {
              "internalType": "uint256",
              "name": "orderId",
              "type": "uint256"
            },
            {
              "internalType": "address",
              "name": "account",
              "type": "address"
            },
            {
              "internalType": "uint256",
              "name": "pairIndex",
              "type": "uint256"
            },
            {
              "internalType": "enum TradingTypes.TradeType",
              "name": "tradeType",
              "type": "uint8"
            },
            {
              "internalType": "int256",
              "name": "collateral",
              "type": "int256"
            },
            {
              "internalType": "uint256",
              "name": "triggerPrice",
              "type": "uint256"
            },
            {
              "internalType": "uint256",
              "name": "sizeAmount",
              "type": "uint256"
            },
            {
              "internalType": "bool",
              "name": "isLong",
              "type": "bool"
            },
            {
              "internalType": "bool",
              "name": "abovePrice",
              "type": "bool"
            },
            {
              "internalType": "uint256",
              "name": "blockTime",
              "type": "uint256"
            },
            {
              "internalType": "bool",
              "name": "needADL",
              "type": "bool"
            }
          ],
          "internalType": "struct TradingTypes.DecreasePositionOrder",
          "name": "order",
          "type": "tuple"
        }
      ],
      "stateMutability": "view",
      "type": "function"
    },
    {
      "inputs": [
        {
          "internalType": "uint256",
          "name": "orderId",
          "type": "uint256"
        },
        {
          "internalType": "enum TradingTypes.TradeType",
          "name": "tradeType",
          "type": "uint8"
        }
      ],
      "name": "getIncreaseOrder",
      "outputs": [
        {
          "components": [
            {
              "internalType": "uint256",
              "name": "orderId",
              "type": "uint256"
            },
            {
              "internalType": "address",
              "name": "account",
              "type": "address"
            },
            {
              "internalType": "uint256",
              "name": "pairIndex",
              "type": "uint256"
            },
            {
              "internalType": "enum TradingTypes.TradeType",
              "name": "tradeType",
              "type": "uint8"
            },
            {
              "internalType": "int256",
              "name": "collateral",
              "type": "int256"
            },
            {
              "internalType": "uint256",
              "name": "openPrice",
              "type": "uint256"
            },
            {
              "internalType": "bool",
              "name": "isLong",
              "type": "bool"
            },
            {
              "internalType": "uint256",
              "name": "sizeAmount",
              "type": "uint256"
            },
            {
              "internalType": "uint256",
              "name": "blockTime",
              "type": "uint256"
            }
          ],
          "internalType": "struct TradingTypes.IncreasePositionOrder",
          "name": "order",
          "type": "tuple"
        }
      ],
      "stateMutability": "view",
      "type": "function"
    },
    {
      "inputs": [
        {
          "internalType": "bytes32",
          "name": "orderKey",
          "type": "bytes32"
        }
      ],
      "name": "getOrderTpSl",
      "outputs": [
        {
          "components": [
            {
              "internalType": "uint256",
              "name": "tpPrice",
              "type": "uint256"
            },
            {
              "internalType": "uint256",
              "name": "tp",
              "type": "uint256"
            },
            {
              "internalType": "uint256",
              "name": "slPrice",
              "type": "uint256"
            },
            {
              "internalType": "uint256",
              "name": "sl",
              "type": "uint256"
            }
          ],
          "internalType": "struct TradingTypes.OrderWithTpSl",
          "name": "",
          "type": "tuple"
        }
      ],
      "stateMutability": "view",
      "type": "function"
    },
    {
      "inputs": [
        {
          "internalType": "bytes32",
          "name": "key",
          "type": "bytes32"
        }
      ],
      "name": "getPositionOrders",
      "outputs": [
        {
          "components": [
            {
              "internalType": "address",
              "name": "account",
              "type": "address"
            },
            {
              "internalType": "uint256",
              "name": "pairIndex",
              "type": "uint256"
            },
            {
              "internalType": "bool",
              "name": "isLong",
              "type": "bool"
            },
            {
              "internalType": "bool",
              "name": "isIncrease",
              "type": "bool"
            },
            {
              "internalType": "enum TradingTypes.TradeType",
              "name": "tradeType",
              "type": "uint8"
            },
            {
              "internalType": "uint256",
              "name": "orderId",
              "type": "uint256"
            },
            {
              "internalType": "uint256",
              "name": "sizeAmount",
              "type": "uint256"
            }
          ],
          "internalType": "struct IOrderManager.PositionOrder[]",
          "name": "",
          "type": "tuple[]"
        }
      ],
      "stateMutability": "view",
      "type": "function"
    },
    {
      "inputs": [
        {
          "internalType": "uint256",
          "name": "",
          "type": "uint256"
        }
      ],
      "name": "increaseLimitOrders",
      "outputs": [
        {
          "internalType": "uint256",
          "name": "orderId",
          "type": "uint256"
        },
        {
          "internalType": "address",
          "name": "account",
          "type": "address"
        },
        {
          "internalType": "uint256",
          "name": "pairIndex",
          "type": "uint256"
        },
        {
          "internalType": "enum TradingTypes.TradeType",
          "name": "tradeType",
          "type": "uint8"
        },
        {
          "internalType": "int256",
          "name": "collateral",
          "type": "int256"
        },
        {
          "internalType": "uint256",
          "name": "openPrice",
          "type": "uint256"
        },
        {
          "internalType": "bool",
          "name": "isLong",
          "type": "bool"
        },
        {
          "internalType": "uint256",
          "name": "sizeAmount",
          "type": "uint256"
        },
        {
          "internalType": "uint256",
          "name": "blockTime",
          "type": "uint256"
        }
      ],
      "stateMutability": "view",
      "type": "function"
    },
    {
      "inputs": [],
      "name": "increaseLimitOrdersIndex",
      "outputs": [
        {
          "internalType": "uint256",
          "name": "",
          "type": "uint256"
        }
      ],
      "stateMutability": "view",
      "type": "function"
    },
    {
      "inputs": [
        {
          "internalType": "uint256",
          "name": "",
          "type": "uint256"
        }
      ],
      "name": "increaseMarketOrders",
      "outputs": [
        {
          "internalType": "uint256",
          "name": "orderId",
          "type": "uint256"
        },
        {
          "internalType": "address",
          "name": "account",
          "type": "address"
        },
        {
          "internalType": "uint256",
          "name": "pairIndex",
          "type": "uint256"
        },
        {
          "internalType": "enum TradingTypes.TradeType",
          "name": "tradeType",
          "type": "uint8"
        },
        {
          "internalType": "int256",
          "name": "collateral",
          "type": "int256"
        },
        {
          "internalType": "uint256",
          "name": "openPrice",
          "type": "uint256"
        },
        {
          "internalType": "bool",
          "name": "isLong",
          "type": "bool"
        },
        {
          "internalType": "uint256",
          "name": "sizeAmount",
          "type": "uint256"
        },
        {
          "internalType": "uint256",
          "name": "blockTime",
          "type": "uint256"
        }
      ],
      "stateMutability": "view",
      "type": "function"
    },
    {
      "inputs": [],
      "name": "increaseMarketOrdersIndex",
      "outputs": [
        {
          "internalType": "uint256",
          "name": "",
          "type": "uint256"
        }
      ],
      "stateMutability": "view",
      "type": "function"
    },
    {
      "inputs": [
        {
          "internalType": "address",
          "name": "",
          "type": "address"
        }
      ],
      "name": "isHandler",
      "outputs": [
        {
          "internalType": "bool",
          "name": "",
          "type": "bool"
        }
      ],
      "stateMutability": "view",
      "type": "function"
    },
    {
      "inputs": [
        {
          "internalType": "bytes32",
          "name": "",
          "type": "bytes32"
        }
      ],
      "name": "orderWithTpSl",
      "outputs": [
        {
          "internalType": "uint256",
          "name": "tpPrice",
          "type": "uint256"
        },
        {
          "internalType": "uint256",
          "name": "tp",
          "type": "uint256"
        },
        {
          "internalType": "uint256",
          "name": "slPrice",
          "type": "uint256"
        },
        {
          "internalType": "uint256",
          "name": "sl",
          "type": "uint256"
        }
      ],
      "stateMutability": "view",
      "type": "function"
    },
    {
      "inputs": [],
      "name": "paused",
      "outputs": [
        {
          "internalType": "bool",
          "name": "",
          "type": "bool"
        }
      ],
      "stateMutability": "view",
      "type": "function"
    },
    {
      "inputs": [],
      "name": "pool",
      "outputs": [
        {
          "internalType": "contract IPool",
          "name": "",
          "type": "address"
        }
      ],
      "stateMutability": "view",
      "type": "function"
    },
    {
      "inputs": [
        {
          "internalType": "bytes32",
          "name": "",
          "type": "bytes32"
        }
      ],
      "name": "positionDecreaseTotalAmount",
      "outputs": [
        {
          "internalType": "uint256",
          "name": "",
          "type": "uint256"
        }
      ],
      "stateMutability": "view",
      "type": "function"
    },
    {
      "inputs": [
        {
          "internalType": "bytes32",
          "name": "",
          "type": "bytes32"
        },
        {
          "internalType": "enum TradingTypes.TradeType",
          "name": "",
          "type": "uint8"
        }
      ],
      "name": "positionHasTpSl",
      "outputs": [
        {
          "internalType": "bool",
          "name": "",
          "type": "bool"
        }
      ],
      "stateMutability": "view",
      "type": "function"
    },
    {
      "inputs": [],
      "name": "positionManager",
      "outputs": [
        {
          "internalType": "contract IPositionManager",
          "name": "",
          "type": "address"
        }
      ],
      "stateMutability": "view",
      "type": "function"
    },
    {
      "inputs": [
        {
          "internalType": "bytes32",
          "name": "",
          "type": "bytes32"
        },
        {
          "internalType": "bytes32",
          "name": "",
          "type": "bytes32"
        }
      ],
      "name": "positionOrderIndex",
      "outputs": [
        {
          "internalType": "uint256",
          "name": "",
          "type": "uint256"
        }
      ],
      "stateMutability": "view",
      "type": "function"
    },
    {
      "inputs": [
        {
          "internalType": "bytes32",
          "name": "",
          "type": "bytes32"
        },
        {
          "internalType": "uint256",
          "name": "",
          "type": "uint256"
        }
      ],
      "name": "positionOrders",
      "outputs": [
        {
          "internalType": "address",
          "name": "account",
          "type": "address"
        },
        {
          "internalType": "uint256",
          "name": "pairIndex",
          "type": "uint256"
        },
        {
          "internalType": "bool",
          "name": "isLong",
          "type": "bool"
        },
        {
          "internalType": "bool",
          "name": "isIncrease",
          "type": "bool"
        },
        {
          "internalType": "enum TradingTypes.TradeType",
          "name": "tradeType",
          "type": "uint8"
        },
        {
          "internalType": "uint256",
          "name": "orderId",
          "type": "uint256"
        },
        {
          "internalType": "uint256",
          "name": "sizeAmount",
          "type": "uint256"
        }
      ],
      "stateMutability": "view",
      "type": "function"
    },
    {
      "inputs": [
        {
          "internalType": "uint256",
          "name": "orderId",
          "type": "uint256"
        }
      ],
      "name": "removeDecreaseLimitOrders",
      "outputs": [],
      "stateMutability": "nonpayable",
      "type": "function"
    },
    {
      "inputs": [
        {
          "internalType": "uint256",
          "name": "orderId",
          "type": "uint256"
        }
      ],
      "name": "removeDecreaseMarketOrders",
      "outputs": [],
      "stateMutability": "nonpayable",
      "type": "function"
    },
    {
      "inputs": [
        {
          "internalType": "uint256",
          "name": "orderId",
          "type": "uint256"
        }
      ],
      "name": "removeIncreaseLimitOrders",
      "outputs": [],
      "stateMutability": "nonpayable",
      "type": "function"
    },
    {
      "inputs": [
        {
          "internalType": "uint256",
          "name": "orderId",
          "type": "uint256"
        }
      ],
      "name": "removeIncreaseMarketOrders",
      "outputs": [],
      "stateMutability": "nonpayable",
      "type": "function"
    },
    {
      "inputs": [
        {
          "components": [
            {
              "internalType": "address",
              "name": "account",
              "type": "address"
            },
            {
              "internalType": "uint256",
              "name": "pairIndex",
              "type": "uint256"
            },
            {
              "internalType": "bool",
              "name": "isLong",
              "type": "bool"
            },
            {
              "internalType": "bool",
              "name": "isIncrease",
              "type": "bool"
            },
            {
              "internalType": "enum TradingTypes.TradeType",
              "name": "tradeType",
              "type": "uint8"
            },
            {
              "internalType": "uint256",
              "name": "orderId",
              "type": "uint256"
            },
            {
              "internalType": "uint256",
              "name": "sizeAmount",
              "type": "uint256"
            }
          ],
          "internalType": "struct IOrderManager.PositionOrder",
          "name": "order",
          "type": "tuple"
        }
      ],
      "name": "removeOrderFromPosition",
      "outputs": [],
      "stateMutability": "nonpayable",
      "type": "function"
    },
    {
      "inputs": [
        {
          "internalType": "bytes32",
          "name": "orderKey",
          "type": "bytes32"
        }
      ],
      "name": "removeOrderTpSl",
      "outputs": [],
      "stateMutability": "nonpayable",
      "type": "function"
    },
    {
      "inputs": [],
      "name": "router",
      "outputs": [
        {
          "internalType": "address",
          "name": "",
          "type": "address"
        }
      ],
      "stateMutability": "view",
      "type": "function"
    },
    {
      "inputs": [
        {
          "internalType": "bytes32",
          "name": "orderKey",
          "type": "bytes32"
        },
        {
          "components": [
            {
              "internalType": "uint256",
              "name": "tpPrice",
              "type": "uint256"
            },
            {
              "internalType": "uint256",
              "name": "tp",
              "type": "uint256"
            },
            {
              "internalType": "uint256",
              "name": "slPrice",
              "type": "uint256"
            },
            {
              "internalType": "uint256",
              "name": "sl",
              "type": "uint256"
            }
          ],
          "internalType": "struct TradingTypes.OrderWithTpSl",
          "name": "tpSl",
          "type": "tuple"
        }
      ],
      "name": "saveOrderTpSl",
      "outputs": [],
      "stateMutability": "nonpayable",
      "type": "function"
    },
    {
      "inputs": [
        {
          "internalType": "address",
          "name": "_addressExecutor",
          "type": "address"
        }
      ],
      "name": "setExecutor",
      "outputs": [],
      "stateMutability": "nonpayable",
      "type": "function"
    },
    {
      "inputs": [
        {
          "internalType": "uint256",
          "name": "orderId",
          "type": "uint256"
        },
        {
          "internalType": "enum TradingTypes.TradeType",
          "name": "tradeType",
          "type": "uint8"
        },
        {
          "internalType": "bool",
          "name": "needADL",
          "type": "bool"
        }
      ],
      "name": "setOrderNeedADL",
      "outputs": [],
      "stateMutability": "nonpayable",
      "type": "function"
    },
    {
      "inputs": [],
      "name": "setPaused",
      "outputs": [],
      "stateMutability": "nonpayable",
      "type": "function"
    },
    {
      "inputs": [
        {
          "internalType": "bytes32",
          "name": "key",
          "type": "bytes32"
        },
        {
          "internalType": "enum TradingTypes.TradeType",
          "name": "tradeType",
          "type": "uint8"
        },
        {
          "internalType": "bool",
          "name": "has",
          "type": "bool"
        }
      ],
      "name": "setPositionHasTpSl",
      "outputs": [],
      "stateMutability": "nonpayable",
      "type": "function"
    },
    {
      "inputs": [
        {
          "internalType": "address",
          "name": "_router",
          "type": "address"
        }
      ],
      "name": "setRouter",
      "outputs": [],
      "stateMutability": "nonpayable",
      "type": "function"
    },
    {
      "inputs": [],
      "name": "setUnPaused",
      "outputs": [],
      "stateMutability": "nonpayable",
      "type": "function"
    },
    {
      "inputs": [],
      "name": "tradingVault",
      "outputs": [
        {
          "internalType": "contract IPositionManager",
          "name": "",
          "type": "address"
        }
      ],
      "stateMutability": "view",
      "type": "function"
    },
    {
      "inputs": [
        {
          "internalType": "address",
          "name": "newAddress",
          "type": "address"
        }
      ],
      "name": "updatePositionManager",
      "outputs": [],
      "stateMutability": "nonpayable",
      "type": "function"
    }
  ],
  "transactionHash": "0x874c785e2e74f359988854174b12b8505bf45958879728e3236fa4c9859bf74d",
  "args": [
    "0xFD6F7A6a5c21A3f503EBaE7a473639974379c351",
    "0xa722bdA6968F50778B973Ae2701e90200C564B49",
    "0xc7cDb7A2E5dDa1B7A0E792Fe1ef08ED20A6F56D4"
  ],
  "numDeployments": 1,
  "solcInputHash": "f5fb0d93a74250b7f90492337d0a4d3f",
  "bytecode": "0x60a0346200010057601f6200474638819003918201601f19168301916001600160401b038311848410176200010557808492606094604052833981010312620001005780516001600160a01b039190828116810362000100576020820151918383168093036200010057604001519283168093036200010057600160005533600052600160205260406000209060ff19916001838254161790556080526002541660025560018060a01b031990816010541617601055601154161760115560405161462a90816200011c823960805181818161055801528181610b22015281816110c001528181611242015281816116d00152818161186e0152612be80152f35b600080fd5b634e487b7160e01b600052604160045260246000fdfe60806040908082526004908136101561001757600080fd5b60009060e08235811c918262c5ecd214611afb57508163021a34dd14611a615781630bc628fb14611a1f5781630f727949146118c657816316f0115b1461189d5781631848effa146118595781631995c725146117cb5781631c3c0ea8146116935781632670e98d146113ef5781632d1ff001146113a4578163349fdb091461121057816337a66d851461108d5781633946fd421461106e578163395455291461103c5781633e5005e514610ff85781634136de9f14610f8a57816346ea87af14610f4c578163499a83c714610f235781634cc42b5114610e345781634d3cb81014610df05781634d7acf9614610d115781635c975abb14610ced578163671e110714610c825781636881d8cb14610ae75781636e30e01614610a7c578163791b98bc14610a5357816379f5927e14610a345781638168c0b61461099257816386249bab146109735781638ffb8b2f1461080e57816390a4a768146107ca578163ab9b4ca8146107ab578163b68ea4b2146106db578163bd40e1c0146106b2578163be82e5b11461066e578163c0d786551461051b578163c1872cf314610425578163c2509859146103b7578163eea0bfab14610360578163f1bd27a814610337578163f887ea401461030a578163f9d244fd1461027e575063fca5c793146101ff57600080fd5b3461027b57602036600319011261027b578261027791833581526005602052209283549360018060a01b036001820154169360028201549560ff60038401541691830154600584015460068501549160078601549460ff600960088901549801541697519a8b9a60ff808960081c169816968c611b98565b0390f35b80fd5b8491503461030657610120925061029d61029736611e5f565b90614241565b908251928251845260018060a01b03602084015116602085015280830151908401526102d160608301516060850190611b75565b6080820151608084015260a082015160a084015260c0820151151560c084015280820151908301526101008091015190820152f35b8280fd5b82853461033357816003193601126103335760145490516001600160a01b039091168152602090f35b5080fd5b82853461033357816003193601126103335760115490516001600160a01b039091168152602090f35b82808587346103b35760203660031901126103b35760039161038d60018060a01b03601354163314614581565b610395613262565b358352600b6020528220828155826001820155826002820155015580f35b5050fd5b823461027b576104086103c936611e7e565b916103d26132a6565b601454336001600160a01b0391821614908115610417575b50801561040f575b6103fb90611f7b565b610403613262565b61385a565b6001815580f35b5060016103f2565b9050601354163314866103ea565b505090346103335761043636611e7e565b9261044c60018060a01b03601354163314614581565b610454613262565b80821015610508578161048a57505082936009916104879452600560205284205b019060ff801983541691151516179055565b80f35b9091845260096020528484209160ff600384015416828110156104f557036104bb5750610487929350600990610475565b606490602086519162461bcd60e51b835282015260146024820152730e8e4c2c8ca40e8f2e0ca40dcdee840dac2e8c6d60631b6044820152fd5b634e487b7160e01b865260218352602486fd5b634e487b7160e01b855260219052602484fd5b82858534610306576020918260031936011261060e57610539611d16565b81516351331ad760e01b8152936001600160a01b0393919291818682817f000000000000000000000000000000000000000000000000000000000000000089165afa9081156106645785968896959692610622575b50906024839285519687938492637be53ca160e01b84523390840152165afa918215610619575085916105de575b506105c79150611ecb565b166001600160601b0360a01b601454161760145580f35b905081813d8311610612575b6105f48183611cf5565b8101031261060e576106086105c791611ebe565b856105bc565b8380fd5b503d6105ea565b513d87823e3d90fd5b83809296508193503d831161065d575b61063c8183611cf5565b8101031261065957859360246106528493611eaa565b925061058e565b8680fd5b503d610632565b83513d89823e3d90fd5b50509134610306576020366003190112610306576104879161069b60018060a01b03601354163314614581565b6106a3613262565b35835260056020528220614205565b82853461033357816003193601126103335760135490516001600160a01b039091168152602090f35b8491503461030657366003190112610333578051926106f984611c74565b610701611d16565b845260243560208501526044359081101561030657818401526064356060840152608435608084015260a43580151581036103065761078b8460019260a0602097015260c43560c08201526107546132a6565b61077e838060a01b03808351168160145416331491821561079d575b508115610793575b50611f7b565b610786613262565b6121c0565b925551908152f35b9050331488610778565b601354163314915089610770565b8285346103335781600319360112610333576020906008549051908152f35b5050913461030657602036600319011261030657610487916107f760018060a01b03601354163314614581565b6107ff613262565b358352600760205282206141a5565b82858534610306576060928360031936011261027b5761082c611d16565b9161086c610838611d31565b60135461085990336001600160a01b03918216149081156109675750611f7b565b610861613262565b6024948535906136ba565b808352600c6020908082528685205415610963578685205460001981019290831161095157838652528584206108ab916108a591611bf9565b50611f13565b60a0810151906080810151908482101561093f57880151151590303b1561093b576108ea9088519363c250985960e01b85528685015287840190611b75565b6044820152838160648183305af1801561093157610909575b5061086c565b6001600160401b03811161091f57855286610903565b5050634e487b7160e01b825260419052fd5b86513d86823e3d90fd5b8580fd5b634e487b7160e01b8652602185528686fd5b634e487b7160e01b8652601185528686fd5b8480f35b87163314905089610778565b8285853461030657826003193601126103065760209250549051908152f35b849150346103065761016092506109b16109ab36611e5f565b9061437a565b908251928251845260018060a01b03602084015116602085015280830151908401526109e560608301516060850190611b75565b6080820151608084015260a082015160a084015260c082015160c08401528082015115159083015261010080820151151590830152610120808201519083015261014080910151151590820152f35b828534610333578160031936011261033357602090600a549051908152f35b82853461033357816003193601126103335760125490516001600160a01b039091168152602090f35b8385843461027b57602036600319011261027b578161027791843581526007602052209182549260018060a01b036001820154169460028201549060ff6003840154169083015460058401549160ff60068601541693600860078701549601549651998a998a611e10565b505091346103065760208060031936011261060e57610b04611d16565b82516351331ad760e01b81526001600160a01b0394919291828282817f00000000000000000000000000000000000000000000000000000000000000008a165afa918215610c785790869392918892610c3a575b50906024839287519889938492637be53ca160e01b84523390840152165afa948515610c30578695610bd6575b50610bb07ff105ec4818f6dabbb000fe156cb8096a5e98f3124a5c11a0533c0fc4a7bb678e95611ecb565b81601254931691826001600160601b0360a01b851617601255845193168352820152a180f35b94508085813d8311610c29575b610bed8183611cf5565b8101031261093b57610bb0610c227ff105ec4818f6dabbb000fe156cb8096a5e98f3124a5c11a0533c0fc4a7bb678e96611ebe565b9550610b85565b503d610be3565b84513d88823e3d90fd5b83809295508193503d8311610c71575b610c548183611cf5565b810103126106595785926024610c6a8493611eaa565b9250610b58565b503d610c4a565b85513d89823e3d90fd5b8385843461027b57602036600319011261027b578161027791843581526003602052209182549260018060a01b036001820154169460028201549060ff6003840154169083015460058401549160ff60068601541693600860078701549601549651998a998a611e10565b82853461033357816003193601126103335760209060ff6002541690519015158152f35b505090346103335760a036600319011261033357608036602319011261033357825190608082018281106001600160401b03821117610ddd57845260243582526020820160443581528483019060643582526060840192608435845260018060a01b03601454163303610dad57956003949596610d8c613262565b358752600b6020528620945185555160018501555160028401555191015580f35b606490602088519162461bcd60e51b8352820152600a60248201526937b7363ca937baba32b960b11b6044820152fd5b634e487b7160e01b845260418252602484fd5b505091346103065760203660031901126103065761048791610e1d60018060a01b03601354163314614581565b610e25613262565b35835260096020528220614205565b929190503461027b576020908160031936011261027b5782358152600c8252848120938454936001600160401b038511610f10575094939290918451916005610e818383831b0185611cf5565b8184528284018096865283862086915b848310610ee65750505050508451958695828701938388525180945286019493905b838210610ec05786860387f35b918496508286610ed66001949698849851611dbb565b0196019201869594929391610eb3565b8386600192610efb859e999b9a9c9d9e611f13565b81520192019201919099989795969499610e91565b634e487b7160e01b835260419052602482fd5b82858534610306576020366003190112610306576020928291358152600e845220549051908152f35b8285346103335760203660031901126103335760209160ff9082906001600160a01b03610f77611d16565b1681526001855220541690519015158152f35b8285853461030657606036600319011261030657602435918183101561060e5761048792610fe791610fba611d31565b93610fd060018060a01b03601354163314614581565b610fd8613262565b358652600f6020528520611c2b565b9060ff801983541691151516179055565b50509134610306576020366003190112610306576104879161102560018060a01b03601354163314614581565b61102d613262565b358352600360205282206141a5565b828585346103065781600319360112610306576020928291358152600d84528181206024358252845220549051908152f35b8285346103335781600319360112610333576020906006549051908152f35b5050913461030657826003193601126103065780516351331ad760e01b81526001600160a01b03926020929190838282817f000000000000000000000000000000000000000000000000000000000000000089165afa918215611206579084929187926111cc575b5060249084519687938492630935e01b60e21b84523390840152165afa9283156111c2578493611168575b5061114b7f62e78cea01bee320cd4e420270b5ea74000d11b0c9f74754ebdbfc544b05a258936145bc565b611153613262565b600160ff19600254161760025551338152a180f35b92508183813d83116111bb575b61117f8183611cf5565b8101031261060e5761114b6111b47f62e78cea01bee320cd4e420270b5ea74000d11b0c9f74754ebdbfc544b05a25894611ebe565b9350611120565b503d611175565b81513d86823e3d90fd5b8381949293503d83116111ff575b6111e48183611cf5565b8101031261093b5760246111f88593611eaa565b91906110f5565b503d6111da565b83513d88823e3d90fd5b5050823461033357816003193601126103335780516351331ad760e01b8152602091906001600160a01b0390838187817f000000000000000000000000000000000000000000000000000000000000000086165afa90811561139a579084918691611360575b506024845180948193630935e01b60e21b8352338b840152165afa8015611356578490611320575b6112a891506145bc565b6002549360ff8516156112e857507f5db9ee0a495bf2e6ff9c91a7834c1ba4fdd244a5e8aa4e537bd38aeae4b073aa929360ff191660025551338152a180f35b82606492519162461bcd60e51b8352820152601460248201527314185d5cd8589b194e881b9bdd081c185d5cd95960621b6044820152fd5b508281813d831161134f575b6113368183611cf5565b8101031261060e5761134a6112a891611ebe565b61129e565b503d61132c565b82513d86823e3d90fd5b82819392503d8311611393575b6113778183611cf5565b8101031261138f576113898491611eaa565b87611276565b8480fd5b503d61136d565b83513d87823e3d90fd5b82858534610306576020366003190112610306576080928291358152600b60205220908154916001810154916003600283015492015492815194855260208501528301526060820152f35b505091346103065761140036611d40565b9060018060a01b03806014541633148015611686575b801561167e575b61142690611f7b565b61142e613262565b8251169161144860209384830151848401511515916136ba565b93606082018051151590608084019182518481101561166b57906114719160a08701519161454d565b878952600d8752858920818a52875285892054888a52600c8852868a20546000199291908381019081116116585781106115af575b50888a52600d8852868a20908a5287528886812055878952600c8752858920908154801561159c5701906114da8282611bf9565b61158a5785818c8093558260018201558260028201558260038201550155555115918261152f575b505061150c578480f35b6115259260c0600e920151948652528320918254612151565b9055388080808480f35b908092505181811015611577571591821561154e575b50503880611502565b5191508082101561156457506001143880611545565b634e487b7160e01b875260219052602486fd5b634e487b7160e01b885260218252602488fd5b634e487b7160e01b8b528a865260248bfd5b634e487b7160e01b8b526031865260248bfd5b898b52600c8952878b20805484810191908211611645576115d3916108a591611bf9565b606081015115156080820151888110156116325791611613848f8f95908f8f929061160961161998600c9360a08a01519161454d565b9883525220611bf9565b90614497565b8a8c52600d8a52888c20908c528952878b2055386114a6565b634e487b7160e01b8e526021895260248efd5b634e487b7160e01b8d526011885260248dfd5b634e487b7160e01b8c526011875260248cfd5b634e487b7160e01b8a526021855260248afd5b50600161141d565b5080601354163314611416565b82858534610306576020918260031936011261060e576116b1611d16565b81516351331ad760e01b8152936001600160a01b0393919291818682817f000000000000000000000000000000000000000000000000000000000000000089165afa908115610664578596889695969261178d575b50906024839285519687938492637be53ca160e01b84523390840152165afa91821561061957508591611756575b5061173f9150611ecb565b166001600160601b0360a01b601354161760135580f35b905081813d8311611786575b61176c8183611cf5565b8101031261060e5761178061173f91611ebe565b85611734565b503d611762565b83809296508193503d83116117c4575b6117a78183611cf5565b8101031261065957859360246117bd8493611eaa565b9250611706565b503d61179d565b8285853461030657602036600319011261030657828291608094606084516117f281611c43565b82815282602082015282868201520152358152600b602052209080519061181882611c43565b825492838352600181015460208401908152606060036002840154938587019485520154940193845282519485525160208501525190830152516060820152f35b828534610333578160031936011261033357517f00000000000000000000000000000000000000000000000000000000000000006001600160a01b03168152602090f35b82853461033357816003193601126103335760105490516001600160a01b039091168152602090f35b50509134610306576118d736611d40565b9060018060a01b03806014541633148015611a12575b8015611a0a575b6118fd90611f7b565b611905613262565b8251169161191f60209384830151848401511515916136ba565b93606082018051151590608084019182518481101561166b57906119489160a08701519161454d565b878952600c87528589205490600d8852868a20908a52875285892055868852600c8652848820805490680100000000000000008210156119f757611613828792600161199695018155611bf9565b511591826119c2575b50506119a9578480f35b6115259260c0600e9201519486525283209182546133f5565b90809250518181101561157757159182156119e1575b5050388061199f565b51915080821015611564575060011438806119d8565b634e487b7160e01b8a526041855260248afd5b5060016118f4565b50806013541633146118ed565b82858534610306578160031936011261030657602435908082101561060e5760ff9183602095611a5693358152600f875220611c2b565b541690519015158152f35b8385843461027b578160031936011261027b576024359083358152600c60205282812090815483101561027b575090611a9991611bf9565b50611aef60018060a01b03825416936001830154936002840154916003850154940154948151968752602087015260ff821615159086015260ff8160081c161515606086015260ff608086019160101c16611b75565b60a083015260c0820152f35b839085873461060e57602036600319011261060e57906102779183948235815260096020522080549160018060a01b036001830154169260028301549160ff6003850154169084015460058501549060068601549260078701549560ff600960088a0154990154169860ff808960081c169816968c611b98565b906004821015611b825752565b634e487b7160e01b600052602160045260246000fd5b999693610140999693611bce929d9c9996936101608d019e8d5260018060a01b031660208d015260408c015260608b0190611b75565b608089015260a088015260c0870152151560e086015215156101008501526101208401521515910152565b8054821015611c15576000526005602060002091020190600090565b634e487b7160e01b600052603260045260246000fd5b906004811015611b8257600052602052604060002090565b608081019081106001600160401b03821117611c5e57604052565b634e487b7160e01b600052604160045260246000fd5b60e081019081106001600160401b03821117611c5e57604052565b61012081019081106001600160401b03821117611c5e57604052565b61016081019081106001600160401b03821117611c5e57604052565b6001600160401b038111611c5e57604052565b606081019081106001600160401b03821117611c5e57604052565b90601f801991011681019081106001600160401b03821117611c5e57604052565b600435906001600160a01b0382168203611d2c57565b600080fd5b604435908115158203611d2c57565b60e0906003190112611d2c57604051611d5881611c74565b6004356001600160a01b0381168103611d2c57815260243560208201526044358015158103611d2c5760408201526064358015158103611d2c5760608201526084356004811015611d2c57608082015260a43560a082015260c43560c082015290565b60c0809160018060a01b03815116845260208101516020850152604081015115156040850152606081015115156060850152611dff60808201516080860190611b75565b60a081015160a08501520151910152565b9592936101009794611e45929b9a99969361012089019c895260018060a01b0316602089015260408801526060870190611b75565b608085015260a0840152151560c083015260e08201520152565b6040906003190112611d2c57600435906024356004811015611d2c5790565b6060906003190112611d2c57600435906024356004811015611d2c57906044358015158103611d2c5790565b51906001600160a01b0382168203611d2c57565b51908115158203611d2c57565b15611ed257565b60405162461bcd60e51b815260206004820152600d60248201526c37b7363ca837b7b620b236b4b760991b6044820152606490fd5b6004821015611b825752565b90604051611f2081611c74565b60c06004829460018060a01b03815416845260018101546020850152611f6a60ff600283015481811615156040880152818160081c161515606088015260101c1660808601611f07565b600381015460a08501520154910152565b15611f8257565b60405162461bcd60e51b81526020600482015260096024820152686e6f2061636365737360b81b6044820152606490fd5b9081610120910312611d2c5760405190611fcc82611c8f565b80518252611fdc60208201611eaa565b6020830152611fed60408201611eaa565b6040830152611ffe60608201611eaa565b606083015261200f60808201611ebe565b608083015260a081015160a083015260c081015160c083015260e081015160e0830152610100809101519082015290565b80916101409283910312611d2c576040519182018281106001600160401b03821117611c5e576040528051825261207960208201611eaa565b60208301526040810151604083015261209460608201611ebe565b60608301526080810151608083015260a081015160a083015260c081015160c083015260e081015160e08301526101008082015190830152610120809101519082015290565b80916101009283910312611d2c57604051918201908282106001600160401b03831117611c5e5760e091604052805183526020810151602084015260408101516040840152606081015160608401526080810151608084015260a081015160a084015260c081015160c0840152015160e082015290565b9190820391821161215e57565b634e487b7160e01b600052601160045260246000fd5b1561217b57565b60405162461bcd60e51b815260206004820152601f60248201527f646563726561736520616d6f756e742065786365656420706f736974696f6e006044820152606490fd5b601254600092916001600160a01b0390911690811561322e5780516011546040516372c1cc1b60e11b81526001600160a01b0392831660048201819052949290911690602081602481855afa9081156132235787916131e9575b506131b0576010546020840151604051632f7ce47360e21b8152600481019190915291906001600160a01b031661012083602481845afa9283156131a5578893613172575b5060808301511561312d576040850151600481101561311957158015613102575b612b48575b50505050604081015160048110156126a8576002148015612b31575b612a00575b60c081018051858113156123345750602082015191604081015160048110156123205761231d95965061230460608301519160a060808501519401511515945195604051976122f489611c74565b8852602088015260408701611f07565b6060850152608084015260a083015260c0820152613e37565b90565b634e487b7160e01b87526021600452602487fd5b9480949592919212600014612971576020810151916040820151600481101561295d5761238460608401519160a0612371608087015195516133e1565b950151151595604051976122f489611c74565b6060850152608084015260a083015260c082015260018060a01b03815116916020820151604083015160048110156126bc5760608401516080850151906123f560a08701519360c0880151151595604051996123df8b611cab565b888b5260208b015260408a015260608901611f07565b608087015260a086015260c085015260e084015280610100840152426101208401528061014084015260408201516004811015612949576126d05760065480845260c0830151151561010085015261244c81613e10565b6006558152600560205260408120835181556001810160018060a01b036020860151166001600160601b0360a01b82541617905560408401516002820155606084015160048110156126bc57906124a961252e9260038301613e1f565b6080850151600482015560a0850151600582015560c08501516006820155612506600782016124ea60e08801511515829060ff801983541691151516179055565b610100870151815461ff00191690151560081b61ff0016179055565b61012085015160088201556009610140860151151591019060ff801983541691151516179055565b60018060a01b03602084015116604084015160e08501511515606086015160048110156126a85761258a9087519260c0890151946040519661256f88611c74565b87526020870152604086015285606086015260808501611f07565b60a083015260c0820152303b1561033357604051630f72794960e01b8152906125b7906004830190611dbb565b818160e48183305af1801561269d5761268e575b506020830151835160408401516001600160a01b03909216939092600483101561267a5750917fe71a68544c2c9cf2a006d283baa849468003198fa8d8026335170198a30349dd9391836060610120950151602082015160808301519161265660c060a08601519501511515956101008c0151151597604051998a5260208a01526040890190611b75565b6060870152608086015260a085015260c084015260e0830152610100820152a15190565b634e487b7160e01b81526021600452602490fd5b61269790611cc7565b386125cb565b6040513d84823e3d90fd5b634e487b7160e01b85526021600452602485fd5b634e487b7160e01b83526021600452602483fd5b604082015160048110156129495760010361276257600a5480845260c08301511561010085015261270081613e10565b600a558152600960205260408120835181556001810160018060a01b036020860151166001600160601b0360a01b82541617905560408401516002820155606084015160048110156126bc57906124a961275d9260038301613e1f565b61252e565b604082015160048110156129495760020361283857600a5480845260c08301511561010085015261279281613e10565b600a558152600960205260408120835181556001810160018060a01b036020860151166001600160601b0360a01b82541617905560408401516002820155606084015160048110156126bc57906124a96127ef9260038301613e1f565b8151602083015160c08401516128129290151591906001600160a01b03166136ba565b8152600f602052604081206002825260205260408120600160ff1982541617905561252e565b604082015160048110156129495760030361290f57600a5480845260c0830151151561010085015261286981613e10565b600a558152600960205260408120835181556001810160018060a01b036020860151166001600160601b0360a01b82541617905560408401516002820155606084015160048110156126bc57906124a96128c69260038301613e1f565b8151602083015160c08401516128e99290151591906001600160a01b03166136ba565b8152600f602052604081206003825260205260408120600160ff1982541617905561252e565b60405162461bcd60e51b8152602060048201526012602482015271696e76616c6964207472616465207479706560701b6044820152606490fd5b634e487b7160e01b82526021600452602482fd5b634e487b7160e01b86526021600452602486fd5b9392905060608401938451156129cd57602081015190604081015160048110156129b95761230461231d9697519160a06080850151940151151594604051976122f489611c74565b634e487b7160e01b84526021600452602484fd5b60405162461bcd60e51b815260206004820152600b60248201526a1b9bdd081cdd5c1c1bdc9d60aa1b6044820152606490fd5b601154602082015160a083015160405163bc95baad60e01b81526001600160a01b03868116600483015260248201939093529015156044820152610140929091839183916064918391165afa918215612b26578692612af9575b505060a0612a6b60c08401516133e1565b91015110612abb576060810151156122a65760405162461bcd60e51b81526020600482015260166024820152751b9bc818dbdb1b185d195c985b081c995c5d5a5c995960521b6044820152606490fd5b60405162461bcd60e51b815260206004820152601660248201527574702f736c2065786365656473206d61782073697a6560501b6044820152606490fd5b612b189250803d10612b1f575b612b108183611cf5565b810190612040565b3880612a5a565b503d612b06565b6040513d88823e3d90fd5b50604081015160048110156126a8576003146122a1565b60c08501518015908115613073575b501561303957612bbf906101406020870151612b7c60a089019182511515908b6136ba565b6020890151915160405163bc95baad60e01b81526001600160a01b038c166004820152602481019390935215156044830152949093849190829081906064820190565b03915afa91821561302e57899261300b575b50604051631f94a27560e31b8152926020846004817f00000000000000000000000000000000000000000000000000000000000000006001600160a01b03165afa938415612f8c578a94612fcf575b506020858101516040516341976e0960e01b81526001600160a01b0391821660048201529586916024918391165afa938415612f8c578a94612f97575b5061010060408401516024604051809581936330a66e1560e01b835260048301525afa918215612f8c578a92612f59575b5060c08701518a811215612ef2575b5060c08701518a811315612e8c575b5050505050606083015190868213612cc5575b80612285565b604001516001600160a01b031690612d1c90612ce0906133e1565b6040516323b872dd60e01b602082019081526001600160a01b038089166024840152909516604482015260648101919091529081906084820190565b0391612d30601f1993848101845283611cf5565b6040519360408501926001600160401b039386811085821117612e785760405260208087527f5361666545524332303a206c6f772d6c6576656c2063616c6c206661696c65649087015251899182919082855af1913d15612e68573d908111612e545790612dbe94939291612db0602060405195601f8401160185611cf5565b83523d89602085013e6132fc565b8051908115918215612e32575b505015612dda57388080612cbf565b60405162461bcd60e51b815260206004820152602a60248201527f5361666545524332303a204552433230206f7065726174696f6e20646964206e6044820152691bdd081cdd58d8d9595960b21b6064820152608490fd5b819250906020918101031261138f576020612e4d9101611ebe565b3880612dcb565b634e487b7160e01b89526041600452602489fd5b5090612dbe9392506060916132fc565b634e487b7160e01b8b52604160045260248bfd5b612ee894612ee193612eba92612ea660608c0151916133e1565b825191608060208501519401519489613604565b505060a0612ecb60c08901516133e1565b930151908a52600e60205260408a205490612151565b1015612174565b3880808080612cac565b612f119060608901519084516020860151916080870151938989613431565b5015612f1d5738612c9d565b60405162461bcd60e51b81526020600482015260146024820152731e995c9bc81c1bdcda5d1a5bdb88185b5bdd5b9d60621b6044820152606490fd5b612f7e9192506101003d61010011612f85575b612f768183611cf5565b8101906120da565b9038612c8e565b503d612f6c565b6040513d8c823e3d90fd5b9093506020813d602011612fc7575b81612fb360209383611cf5565b81010312612fc357519238612c5d565b8980fd5b3d9150612fa6565b9093506020813d602011613003575b81612feb60209383611cf5565b81010312612fc357612ffc90611eaa565b9238612c20565b3d9150612fde565b6130279192506101403d61014011612b1f57612b108183611cf5565b9038612bd1565b6040513d8b823e3d90fd5b60405162461bcd60e51b8152602060048201526012602482015271696e76616c69642074726164652073697a6560701b6044820152606490fd5b90506130836020870151916133e1565b604051916330a66e1560e01b83526004830152610100918281602481875afa9283156130f7578b936130d8575b5050604082015181101591826130c9575b505038612b57565b606001511015905038806130c1565b6130ef929350803d10612f8557612f768183611cf5565b9038806130b0565b6040513d8d823e3d90fd5b506040850151600481101561311957600114612280565b634e487b7160e01b89526021600452602489fd5b60405162461bcd60e51b815260206004820152601860248201527f74726164652070616972206e6f7420737570706f7274656400000000000000006044820152606490fd5b6131979193506101203d6101201161319e575b61318f8183611cf5565b810190611fb3565b913861225f565b503d613185565b6040513d8a823e3d90fd5b60405162461bcd60e51b815260206004820152601160248201527030b1b1b7bab73a1034b990333937bd32b760791b6044820152606490fd5b90506020813d60201161321b575b8161320460209383611cf5565b810103126106595761321590611ebe565b3861221a565b3d91506131f7565b6040513d89823e3d90fd5b60405162461bcd60e51b815260206004820152600c60248201526b7a65726f206164647265737360a01b6044820152606490fd5b60ff6002541661326e57565b60405162461bcd60e51b815260206004820152601060248201526f14185d5cd8589b194e881c185d5cd95960821b6044820152606490fd5b6002600054146132b7576002600055565b60405162461bcd60e51b815260206004820152601f60248201527f5265656e7472616e637947756172643a207265656e7472616e742063616c6c006044820152606490fd5b9192901561335e5750815115613310575090565b3b156133195790565b60405162461bcd60e51b815260206004820152601d60248201527f416464726573733a2063616c6c20746f206e6f6e2d636f6e74726163740000006044820152606490fd5b8251909150156133715750805190602001fd5b6040519062461bcd60e51b82528160208060048301528251908160248401526000935b8285106133b7575050604492506000838284010152601f80199101168101030190fd5b8481018201518686016044015293810193859350613394565b600160ff1b811461215e5760000390565b600081126133ec5790565b61231d906133d0565b9190820180921161215e57565b9190916000838201938412911290801582169115161761215e57565b8181029291811591840414171561215e57565b949196959390926134468160a08801516133f5565b9788156135f35761345b906080880151613402565b95600087126135a35781613585575b5050600085126135405761348f9061348a84613485886133e1565b6136f6565b61341e565b8610159182613524575b5050156134ea5783116134af5761231d906133e1565b60405162461bcd60e51b815260206004820152601360248201527232bc31b2b2b21036b0bc103837b9b4ba34b7b760691b6044820152606490fd5b60405162461bcd60e51b81526020600482015260126024820152711b195d995c9859d9481a5b98dbdc9c9958dd60721b6044820152606490fd5b613536925061348a90613485866133e1565b8411153880613499565b60405162461bcd60e51b815260206004820152601d60248201527f636f6c6c61746572616c206e6f7420656e6f75676820666f7220706e6c0000006044820152606490fd5b8461359b93979261359592613626565b90613402565b93388061346a565b60405162461bcd60e51b815260206004820152602260248201527f636f6c6c61746572616c206e6f7420656e6f75676820666f7220646563726561604482015261736560f01b6064820152608490fd5b505050505050509050600090600090565b949196959390926134468160a088016136208282511015612174565b51612151565b60c081019081519081851480156136b2575b6136a857606001511561367e5750805180841115613666575061231d92613660915190612151565b906137dc565b61367992915061231d9361366091612151565b6133d0565b83811115613695575061231d926136609151612151565b6136799291506136609061231d94612151565b5050505050600090565b508115613638565b916040519160208301936001600160601b03199060601b1684526034830152151560f81b6054820152603581526136f081611cda565b51902090565b906c0c9f2c9cd04674edea400000009060001982840992828102928380861095039480860395146137b8578483111561377b578291096001821901821680920460028082600302188083028203028083028203028083028203028083028203028083028203028092029003029360018380600003040190848311900302920304170290565b60405162461bcd60e51b81526020600482015260156024820152744d6174683a206d756c446976206f766572666c6f7760581b6044820152606490fd5b5050809250156137c6570490565b634e487b7160e01b600052601260045260246000fd5b9060001981830981830291828083109203918083039214613844576c0c9f2c9cd04674edea40000000908282111561377b577f7d33c22789773a07feda8b6f0930e26fa397c439f1d5cf4b2eb27d7306d2dc99940990828211900360e21b9103601e1c170290565b50506c0c9f2c9cd04674edea4000000091500490565b9115613b0b5761386991614241565b6020810180516001600160a01b03939290600090851615613b04578460105416946040908184019485519783518091632f7ce47360e21b825260049a8b8301528160246101209485935afa918215613afa578692613add575b50506080860151858113613a54575b50508181511695519560c0860151151596606087019788518b811015613a41576139259089519260e08b01519489519661390a88611c74565b87526020870152888601526001606086015260808501611f07565b60a083015260c0820152303b1561138f578351632670e98d60e01b815290613950908a830190611dbb565b848160e48183305af18015613a3757908591613a23575b5050855188811015613a10576139e65784518452600360205261398b8385206141a5565b51169251935191868310156139d357507f7e93a6b00cb3caacf000d7018943b12e2b4ad29e7849df14ebd51caf4fd739b8949550906139ce9151938493846141db565b0390a1565b634e487b7160e01b815260218752602490fd5b855188811015613a105760010361398b57845184526007602052613a0b8385206141a5565b61398b565b634e487b7160e01b855260218952602485fd5b613a2c90611cc7565b61060e578338613967565b84513d87823e3d90fd5b634e487b7160e01b885260218c52602488fd5b838581601254169301511691613a6d85855116926133e1565b92813b15613ad9578651630d172a0160e01b81526001600160a01b039182168d82019081529390911660208401526040830193909352869183919082908490829060600103925af18015613a3757613ac6575b806138d1565b613ad290949194611cc7565b9238613ac0565b8780fd5b613af39250803d1061319e5761318f8183611cf5565b38806138c2565b85513d88823e3d90fd5b5050509050565b613b149161437a565b6020808201805191939290916001600160a01b0390600090821615613e0857816010541690604092838501958651988551808096632f7ce47360e21b825260049c8d8301526101209283916024998a915afa918215613dfe578692613de1575b50506080880151858113613d4e575b5050828251169780519860e08901908c8251151560608c019c8d5192831015613d3b578b928d92613bda9260c08551950151955196613bc188611c74565b8752898701528d8601528a606086015260808501611f07565b60a083015260c0820152303b15610659578851632670e98d60e01b815290613c0590828f0190611dbb565b868160e48183305af18015613d3157908791613d1d575b505090613c339185855116915190511515916136ba565b88518b811015613d0b57613ca857506005908751855252613c55858420614205565b5116935194519680881015613c98575050507fb225fd6bcccad9342bc10ccc7e25ef77175b77348c8393d669ac2dbc98a1ae2993946139ce9151938493846141db565b634e487b7160e01b825260219052fd5b88518b811015613d0b57600103613cd257506009908751855252613ccd858420614205565b613c55565b8452600f81528584208851908b821015613d0b5760099291613cf391611c2b565b60ff1981541690558751855252613ccd858420614205565b634e487b7160e01b865260218c528686fd5b613d2690611cc7565b61093b578538613c1c565b89513d89823e3d90fd5b8f8a60218d92634e487b7160e01b835252fd5b848881601254169301511691613d6786865116926133e1565b92813b15613ad95790879291838f613daf8d5197889687958694630d172a0160e01b8652850160409194939294606082019560018060a01b0380921683521660208201520152565b03925af18015613dd757613dc4575b80613b83565b613dd090949194611cc7565b9238613dbe565b87513d87823e3d90fd5b613df79250803d1061319e5761318f8183611cf5565b3880613b74565b88513d88823e3d90fd5b505050509050565b600019811461215e5760010190565b906004811015611b825760ff80198354169116179055565b80519060006020820151604083015160048110156126bc576060840151608085015190613e9760a087015115159360c08801519560405199613e788b611c8f565b888b526001600160a01b031660208b015260408a015260608901611f07565b608087015260a086015260c085015260e08401524261010084015260408201516004811015612949576140db57600454808452613ed381613e10565b6004558152600360205260408120835181556001810160018060a01b036020860151166001600160601b0360a01b82541617905560408401516002820155606084015160048110156126bc57613f2c9060038301613e1f565b6080840151600482015560a08401516005820155613f5f60c08501511515600683019060ff801983541691151516179055565b60e0840151600782015560086101008501519101555b60018060a01b03602084015116604084015160c08501511515606086015160048110156126a857613fd29087519260e08901519460405196613fb688611c74565b8752602087015260408601526001606086015260808501611f07565b60a083015260c0820152303b1561033357604051630f72794960e01b815290613fff906004830190611dbb565b818160e48183305af1801561269d576140cc575b5060018060a01b03602084015116918351906020810151604082015160048110156126a857917fe83629b11df9fcc6b9ebc666eb284c939d1710576a8d3eac23474d70fae8d478959391610180959361409860608401519160808501519360c060a0870151151596015196604051998a5260208a015260408901526060880190611b75565b608086015260a085015260c084015260e0830152806101008301528061012083015280610140830152610160820152a15190565b6140d590611cc7565b38614013565b604082015160048110156129495760010361290f576008548084526140ff81613e10565b6008558152600760205260408120835181556001810160018060a01b036020860151166001600160601b0360a01b82541617905560408401516002820155606084015160048110156126bc576141589060038301613e1f565b6080840151600482015560a0840151600582015561418b60c08501511515600683019060ff801983541691151516179055565b60e084015160078201556008610100850151910155613f75565b60086000918281558260018201558260028201558260038201558260048201558260058201558260068201558260078201550155565b6001600160a01b03909116815260208101919091526060810192916142039160400190611b75565b565b60096000918281558260018201558260028201558260038201558260048201558260058201558260068201558260078201558260088201550155565b60409182519161425083611c8f565b60009182845282602085015282858501528260608501528260808501528260a08501528260c08501528260e08501526101009383858201525060048110156126bc578491908061431e57509160089281526003602052208351936142b385611c8f565b8154855260018201546001600160a01b0316602086015260028201549085015260038101546142e89060ff1660608601611f07565b60048101546080850152600581015460a085015260ff600682015416151560c0850152600781015460e085015201549082015290565b90915060010361434157818491600893526007602052208351936142b385611c8f565b835162461bcd60e51b8152602060048201526012602482015271696e76616c6964207472616465207479706560701b6044820152606490fd5b9060409182519161438a83611cab565b600080845280602085015280858501528060608501528060808501528060a08501528060c08501528060e0850152610100928184860152610120928284870152826101408097015260048110156126bc5760ff9492600994928892156000146144835781526005602052209186519661440288611cab565b8354885260018401546001600160a01b03166020890152600284015490880152600383015461443690861660608901611f07565b60048301546080880152600583015460a0880152600683015460c0880152846007840154818116151560e08a015260081c1615159087015260088201549086015201541615159082015290565b815284602052209186519661440288611cab565b91906145375760018060a01b038151166001600160601b0360a01b8354161782556020810151600183015560028201906144e360408201511515839060ff801983541691151516179055565b6060810151825461ff00191690151560081b61ff00161782556080810151906004821015611b82578260c09262ff0000600495549160101b169062ff0000191617905560a081015160038501550151910155565b634e487b7160e01b600052600060045260246000fd5b91604051916020830193151560f81b84526004811015611b825760f81b60218301526022820152602281526136f081611cda565b1561458857565b60405162461bcd60e51b815260206004820152600c60248201526b37b7363ca2bc32b1baba37b960a11b6044820152606490fd5b156145c357565b60405162461bcd60e51b815260206004820152600960248201526837b7363ca0b236b4b760b91b6044820152606490fdfea264697066735822122063cd346105d6068e658d220d8b34401fdfc3c319cf0000644f002db7d5547d4c64736f6c63430008110033",
  "devdoc": {
    "kind": "dev",
    "methods": {
      "paused()": {
        "details": "Returns true if the contract is paused, and false otherwise."
      }
    },
    "version": 1
  },
  "userdoc": {
    "kind": "user",
    "methods": {},
    "version": 1
  },
  "storageLayout": {
    "storage": [
      {
        "astId": 400,
        "contract": "contracts/trading/OrderManager.sol:OrderManager",
        "label": "_status",
        "offset": 0,
        "slot": "0",
        "type": "t_uint256"
      },
      {
        "astId": 9127,
        "contract": "contracts/trading/OrderManager.sol:OrderManager",
        "label": "isHandler",
        "offset": 0,
        "slot": "1",
        "type": "t_mapping(t_address,t_bool)"
      },
      {
        "astId": 299,
        "contract": "contracts/trading/OrderManager.sol:OrderManager",
        "label": "_paused",
        "offset": 0,
        "slot": "2",
        "type": "t_bool"
      },
      {
        "astId": 15182,
        "contract": "contracts/trading/OrderManager.sol:OrderManager",
        "label": "increaseMarketOrders",
        "offset": 0,
        "slot": "3",
        "type": "t_mapping(t_uint256,t_struct(IncreasePositionOrder)9306_storage)"
      },
      {
        "astId": 15185,
        "contract": "contracts/trading/OrderManager.sol:OrderManager",
        "label": "increaseMarketOrdersIndex",
        "offset": 0,
        "slot": "4",
        "type": "t_uint256"
      },
      {
        "astId": 15190,
        "contract": "contracts/trading/OrderManager.sol:OrderManager",
        "label": "decreaseMarketOrders",
        "offset": 0,
        "slot": "5",
        "type": "t_mapping(t_uint256,t_struct(DecreasePositionOrder)9330_storage)"
      },
      {
        "astId": 15193,
        "contract": "contracts/trading/OrderManager.sol:OrderManager",
        "label": "decreaseMarketOrdersIndex",
        "offset": 0,
        "slot": "6",
        "type": "t_uint256"
      },
      {
        "astId": 15198,
        "contract": "contracts/trading/OrderManager.sol:OrderManager",
        "label": "increaseLimitOrders",
        "offset": 0,
        "slot": "7",
        "type": "t_mapping(t_uint256,t_struct(IncreasePositionOrder)9306_storage)"
      },
      {
        "astId": 15201,
        "contract": "contracts/trading/OrderManager.sol:OrderManager",
        "label": "increaseLimitOrdersIndex",
        "offset": 0,
        "slot": "8",
        "type": "t_uint256"
      },
      {
        "astId": 15206,
        "contract": "contracts/trading/OrderManager.sol:OrderManager",
        "label": "decreaseLimitOrders",
        "offset": 0,
        "slot": "9",
        "type": "t_mapping(t_uint256,t_struct(DecreasePositionOrder)9330_storage)"
      },
      {
        "astId": 15209,
        "contract": "contracts/trading/OrderManager.sol:OrderManager",
        "label": "decreaseLimitOrdersIndex",
        "offset": 0,
        "slot": "10",
        "type": "t_uint256"
      },
      {
        "astId": 15214,
        "contract": "contracts/trading/OrderManager.sol:OrderManager",
        "label": "orderWithTpSl",
        "offset": 0,
        "slot": "11",
        "type": "t_mapping(t_bytes32,t_struct(OrderWithTpSl)9215_storage)"
      },
      {
        "astId": 15220,
        "contract": "contracts/trading/OrderManager.sol:OrderManager",
        "label": "positionOrders",
        "offset": 0,
        "slot": "12",
        "type": "t_mapping(t_bytes32,t_array(t_struct(PositionOrder)7484_storage)dyn_storage)"
      },
      {
        "astId": 15226,
        "contract": "contracts/trading/OrderManager.sol:OrderManager",
        "label": "positionOrderIndex",
        "offset": 0,
        "slot": "13",
        "type": "t_mapping(t_bytes32,t_mapping(t_bytes32,t_uint256))"
      },
      {
        "astId": 15230,
        "contract": "contracts/trading/OrderManager.sol:OrderManager",
        "label": "positionDecreaseTotalAmount",
        "offset": 0,
        "slot": "14",
        "type": "t_mapping(t_bytes32,t_uint256)"
      },
      {
        "astId": 15237,
        "contract": "contracts/trading/OrderManager.sol:OrderManager",
        "label": "positionHasTpSl",
        "offset": 0,
        "slot": "15",
        "type": "t_mapping(t_bytes32,t_mapping(t_enum(TradeType)9190,t_bool))"
      },
      {
        "astId": 15240,
        "contract": "contracts/trading/OrderManager.sol:OrderManager",
        "label": "pool",
        "offset": 0,
        "slot": "16",
        "type": "t_contract(IPool)7948"
      },
      {
        "astId": 15243,
        "contract": "contracts/trading/OrderManager.sol:OrderManager",
        "label": "tradingVault",
        "offset": 0,
        "slot": "17",
        "type": "t_contract(IPositionManager)8295"
      },
      {
        "astId": 15246,
        "contract": "contracts/trading/OrderManager.sol:OrderManager",
        "label": "positionManager",
        "offset": 0,
        "slot": "18",
        "type": "t_contract(IPositionManager)8295"
      },
      {
        "astId": 15248,
        "contract": "contracts/trading/OrderManager.sol:OrderManager",
        "label": "addressExecutor",
        "offset": 0,
        "slot": "19",
        "type": "t_address"
      },
      {
        "astId": 15250,
        "contract": "contracts/trading/OrderManager.sol:OrderManager",
        "label": "router",
        "offset": 0,
        "slot": "20",
        "type": "t_address"
      }
    ],
    "types": {
      "t_address": {
        "encoding": "inplace",
        "label": "address",
        "numberOfBytes": "20"
      },
      "t_array(t_struct(PositionOrder)7484_storage)dyn_storage": {
        "base": "t_struct(PositionOrder)7484_storage",
        "encoding": "dynamic_array",
        "label": "struct IOrderManager.PositionOrder[]",
        "numberOfBytes": "32"
      },
      "t_bool": {
        "encoding": "inplace",
        "label": "bool",
        "numberOfBytes": "1"
      },
      "t_bytes32": {
        "encoding": "inplace",
        "label": "bytes32",
        "numberOfBytes": "32"
      },
      "t_contract(IPool)7948": {
        "encoding": "inplace",
        "label": "contract IPool",
        "numberOfBytes": "20"
      },
      "t_contract(IPositionManager)8295": {
        "encoding": "inplace",
        "label": "contract IPositionManager",
        "numberOfBytes": "20"
      },
      "t_enum(TradeType)9190": {
        "encoding": "inplace",
        "label": "enum TradingTypes.TradeType",
        "numberOfBytes": "1"
      },
      "t_int256": {
        "encoding": "inplace",
        "label": "int256",
        "numberOfBytes": "32"
      },
      "t_mapping(t_address,t_bool)": {
        "encoding": "mapping",
        "key": "t_address",
        "label": "mapping(address => bool)",
        "numberOfBytes": "32",
        "value": "t_bool"
      },
      "t_mapping(t_bytes32,t_array(t_struct(PositionOrder)7484_storage)dyn_storage)": {
        "encoding": "mapping",
        "key": "t_bytes32",
        "label": "mapping(bytes32 => struct IOrderManager.PositionOrder[])",
        "numberOfBytes": "32",
        "value": "t_array(t_struct(PositionOrder)7484_storage)dyn_storage"
      },
      "t_mapping(t_bytes32,t_mapping(t_bytes32,t_uint256))": {
        "encoding": "mapping",
        "key": "t_bytes32",
        "label": "mapping(bytes32 => mapping(bytes32 => uint256))",
        "numberOfBytes": "32",
        "value": "t_mapping(t_bytes32,t_uint256)"
      },
      "t_mapping(t_bytes32,t_mapping(t_enum(TradeType)9190,t_bool))": {
        "encoding": "mapping",
        "key": "t_bytes32",
        "label": "mapping(bytes32 => mapping(enum TradingTypes.TradeType => bool))",
        "numberOfBytes": "32",
        "value": "t_mapping(t_enum(TradeType)9190,t_bool)"
      },
      "t_mapping(t_bytes32,t_struct(OrderWithTpSl)9215_storage)": {
        "encoding": "mapping",
        "key": "t_bytes32",
        "label": "mapping(bytes32 => struct TradingTypes.OrderWithTpSl)",
        "numberOfBytes": "32",
        "value": "t_struct(OrderWithTpSl)9215_storage"
      },
      "t_mapping(t_bytes32,t_uint256)": {
        "encoding": "mapping",
        "key": "t_bytes32",
        "label": "mapping(bytes32 => uint256)",
        "numberOfBytes": "32",
        "value": "t_uint256"
      },
      "t_mapping(t_enum(TradeType)9190,t_bool)": {
        "encoding": "mapping",
        "key": "t_enum(TradeType)9190",
        "label": "mapping(enum TradingTypes.TradeType => bool)",
        "numberOfBytes": "32",
        "value": "t_bool"
      },
      "t_mapping(t_uint256,t_struct(DecreasePositionOrder)9330_storage)": {
        "encoding": "mapping",
        "key": "t_uint256",
        "label": "mapping(uint256 => struct TradingTypes.DecreasePositionOrder)",
        "numberOfBytes": "32",
        "value": "t_struct(DecreasePositionOrder)9330_storage"
      },
      "t_mapping(t_uint256,t_struct(IncreasePositionOrder)9306_storage)": {
        "encoding": "mapping",
        "key": "t_uint256",
        "label": "mapping(uint256 => struct TradingTypes.IncreasePositionOrder)",
        "numberOfBytes": "32",
        "value": "t_struct(IncreasePositionOrder)9306_storage"
      },
      "t_struct(DecreasePositionOrder)9330_storage": {
        "encoding": "inplace",
        "label": "struct TradingTypes.DecreasePositionOrder",
        "members": [
          {
            "astId": 9308,
            "contract": "contracts/trading/OrderManager.sol:OrderManager",
            "label": "orderId",
            "offset": 0,
            "slot": "0",
            "type": "t_uint256"
          },
          {
            "astId": 9310,
            "contract": "contracts/trading/OrderManager.sol:OrderManager",
            "label": "account",
            "offset": 0,
            "slot": "1",
            "type": "t_address"
          },
          {
            "astId": 9312,
            "contract": "contracts/trading/OrderManager.sol:OrderManager",
            "label": "pairIndex",
            "offset": 0,
            "slot": "2",
            "type": "t_uint256"
          },
          {
            "astId": 9315,
            "contract": "contracts/trading/OrderManager.sol:OrderManager",
            "label": "tradeType",
            "offset": 0,
            "slot": "3",
            "type": "t_enum(TradeType)9190"
          },
          {
            "astId": 9317,
            "contract": "contracts/trading/OrderManager.sol:OrderManager",
            "label": "collateral",
            "offset": 0,
            "slot": "4",
            "type": "t_int256"
          },
          {
            "astId": 9319,
            "contract": "contracts/trading/OrderManager.sol:OrderManager",
            "label": "triggerPrice",
            "offset": 0,
            "slot": "5",
            "type": "t_uint256"
          },
          {
            "astId": 9321,
            "contract": "contracts/trading/OrderManager.sol:OrderManager",
            "label": "sizeAmount",
            "offset": 0,
            "slot": "6",
            "type": "t_uint256"
          },
          {
            "astId": 9323,
            "contract": "contracts/trading/OrderManager.sol:OrderManager",
            "label": "isLong",
            "offset": 0,
            "slot": "7",
            "type": "t_bool"
          },
          {
            "astId": 9325,
            "contract": "contracts/trading/OrderManager.sol:OrderManager",
            "label": "abovePrice",
            "offset": 1,
            "slot": "7",
            "type": "t_bool"
          },
          {
            "astId": 9327,
            "contract": "contracts/trading/OrderManager.sol:OrderManager",
            "label": "blockTime",
            "offset": 0,
            "slot": "8",
            "type": "t_uint256"
          },
          {
            "astId": 9329,
            "contract": "contracts/trading/OrderManager.sol:OrderManager",
            "label": "needADL",
            "offset": 0,
            "slot": "9",
            "type": "t_bool"
          }
        ],
        "numberOfBytes": "320"
      },
      "t_struct(IncreasePositionOrder)9306_storage": {
        "encoding": "inplace",
        "label": "struct TradingTypes.IncreasePositionOrder",
        "members": [
          {
            "astId": 9288,
            "contract": "contracts/trading/OrderManager.sol:OrderManager",
            "label": "orderId",
            "offset": 0,
            "slot": "0",
            "type": "t_uint256"
          },
          {
            "astId": 9290,
            "contract": "contracts/trading/OrderManager.sol:OrderManager",
            "label": "account",
            "offset": 0,
            "slot": "1",
            "type": "t_address"
          },
          {
            "astId": 9292,
            "contract": "contracts/trading/OrderManager.sol:OrderManager",
            "label": "pairIndex",
            "offset": 0,
            "slot": "2",
            "type": "t_uint256"
          },
          {
            "astId": 9295,
            "contract": "contracts/trading/OrderManager.sol:OrderManager",
            "label": "tradeType",
            "offset": 0,
            "slot": "3",
            "type": "t_enum(TradeType)9190"
          },
          {
            "astId": 9297,
            "contract": "contracts/trading/OrderManager.sol:OrderManager",
            "label": "collateral",
            "offset": 0,
            "slot": "4",
            "type": "t_int256"
          },
          {
            "astId": 9299,
            "contract": "contracts/trading/OrderManager.sol:OrderManager",
            "label": "openPrice",
            "offset": 0,
            "slot": "5",
            "type": "t_uint256"
          },
          {
            "astId": 9301,
            "contract": "contracts/trading/OrderManager.sol:OrderManager",
            "label": "isLong",
            "offset": 0,
            "slot": "6",
            "type": "t_bool"
          },
          {
            "astId": 9303,
            "contract": "contracts/trading/OrderManager.sol:OrderManager",
            "label": "sizeAmount",
            "offset": 0,
            "slot": "7",
            "type": "t_uint256"
          },
          {
            "astId": 9305,
            "contract": "contracts/trading/OrderManager.sol:OrderManager",
            "label": "blockTime",
            "offset": 0,
            "slot": "8",
            "type": "t_uint256"
          }
        ],
        "numberOfBytes": "288"
      },
      "t_struct(OrderWithTpSl)9215_storage": {
        "encoding": "inplace",
        "label": "struct TradingTypes.OrderWithTpSl",
        "members": [
          {
            "astId": 9208,
            "contract": "contracts/trading/OrderManager.sol:OrderManager",
            "label": "tpPrice",
            "offset": 0,
            "slot": "0",
            "type": "t_uint256"
          },
          {
            "astId": 9210,
            "contract": "contracts/trading/OrderManager.sol:OrderManager",
            "label": "tp",
            "offset": 0,
            "slot": "1",
            "type": "t_uint256"
          },
          {
            "astId": 9212,
            "contract": "contracts/trading/OrderManager.sol:OrderManager",
            "label": "slPrice",
            "offset": 0,
            "slot": "2",
            "type": "t_uint256"
          },
          {
            "astId": 9214,
            "contract": "contracts/trading/OrderManager.sol:OrderManager",
            "label": "sl",
            "offset": 0,
            "slot": "3",
            "type": "t_uint256"
          }
        ],
        "numberOfBytes": "128"
      },
      "t_struct(PositionOrder)7484_storage": {
        "encoding": "inplace",
        "label": "struct IOrderManager.PositionOrder",
        "members": [
          {
            "astId": 7470,
            "contract": "contracts/trading/OrderManager.sol:OrderManager",
            "label": "account",
            "offset": 0,
            "slot": "0",
            "type": "t_address"
          },
          {
            "astId": 7472,
            "contract": "contracts/trading/OrderManager.sol:OrderManager",
            "label": "pairIndex",
            "offset": 0,
            "slot": "1",
            "type": "t_uint256"
          },
          {
            "astId": 7474,
            "contract": "contracts/trading/OrderManager.sol:OrderManager",
            "label": "isLong",
            "offset": 0,
            "slot": "2",
            "type": "t_bool"
          },
          {
            "astId": 7476,
            "contract": "contracts/trading/OrderManager.sol:OrderManager",
            "label": "isIncrease",
            "offset": 1,
            "slot": "2",
            "type": "t_bool"
          },
          {
            "astId": 7479,
            "contract": "contracts/trading/OrderManager.sol:OrderManager",
            "label": "tradeType",
            "offset": 2,
            "slot": "2",
            "type": "t_enum(TradeType)9190"
          },
          {
            "astId": 7481,
            "contract": "contracts/trading/OrderManager.sol:OrderManager",
            "label": "orderId",
            "offset": 0,
            "slot": "3",
            "type": "t_uint256"
          },
          {
            "astId": 7483,
            "contract": "contracts/trading/OrderManager.sol:OrderManager",
            "label": "sizeAmount",
            "offset": 0,
            "slot": "4",
            "type": "t_uint256"
          }
        ],
        "numberOfBytes": "160"
      },
      "t_uint256": {
        "encoding": "inplace",
        "label": "uint256",
        "numberOfBytes": "32"
      }
    }
  }
}