{
  "address": "0xc7cDb7A2E5dDa1B7A0E792Fe1ef08ED20A6F56D4",
  "abi": [
    {
      "inputs": [
        {
          "internalType": "contract IAddressesProvider",
          "name": "addressProvider",
          "type": "address"
        },
        {
          "internalType": "contract IPool",
          "name": "_pairInfo",
          "type": "address"
        },
        {
          "internalType": "uint256",
          "name": "_fundingInterval",
          "type": "uint256"
        }
      ],
      "stateMutability": "nonpayable",
      "type": "constructor"
    },
    {
      "anonymous": false,
      "inputs": [
        {
          "indexed": false,
          "internalType": "bytes32",
          "name": "positionKey",
          "type": "bytes32"
        },
        {
          "indexed": false,
          "internalType": "address",
          "name": "account",
          "type": "address"
        },
        {
          "indexed": false,
          "internalType": "uint256",
          "name": "pairIndex",
          "type": "uint256"
        },
        {
          "indexed": false,
          "internalType": "bool",
          "name": "isLong",
          "type": "bool"
        }
      ],
      "name": "ClosePosition",
      "type": "event"
    },
    {
      "anonymous": false,
      "inputs": [
        {
          "indexed": false,
          "internalType": "bytes32",
          "name": "positionKey",
          "type": "bytes32"
        },
        {
          "indexed": false,
          "internalType": "address",
          "name": "account",
          "type": "address"
        },
        {
          "indexed": false,
          "internalType": "uint256",
          "name": "pairIndex",
          "type": "uint256"
        },
        {
          "indexed": false,
          "internalType": "bool",
          "name": "isLong",
          "type": "bool"
        },
        {
          "indexed": false,
          "internalType": "int256",
          "name": "collateral",
          "type": "int256"
        },
        {
          "indexed": false,
          "internalType": "uint256",
          "name": "sizeAmount",
          "type": "uint256"
        },
        {
          "indexed": false,
          "internalType": "uint256",
          "name": "price",
          "type": "uint256"
        },
        {
          "indexed": false,
          "internalType": "uint256",
          "name": "tradingFee",
          "type": "uint256"
        },
        {
          "indexed": false,
          "internalType": "int256",
          "name": "fundingFee",
          "type": "int256"
        },
        {
          "indexed": false,
          "internalType": "int256",
          "name": "realisedPnl",
          "type": "int256"
        },
        {
          "indexed": false,
          "internalType": "uint256",
          "name": "transferOut",
          "type": "uint256"
        }
      ],
      "name": "DecreasePosition",
      "type": "event"
    },
    {
      "anonymous": false,
      "inputs": [
        {
          "indexed": false,
          "internalType": "bytes32",
          "name": "positionKey",
          "type": "bytes32"
        },
        {
          "indexed": false,
          "internalType": "address",
          "name": "account",
          "type": "address"
        },
        {
          "indexed": false,
          "internalType": "uint256",
          "name": "pairIndex",
          "type": "uint256"
        },
        {
          "indexed": false,
          "internalType": "int256",
          "name": "collateral",
          "type": "int256"
        },
        {
          "indexed": false,
          "internalType": "bool",
          "name": "isLong",
          "type": "bool"
        },
        {
          "indexed": false,
          "internalType": "uint256",
          "name": "sizeAmount",
          "type": "uint256"
        },
        {
          "indexed": false,
          "internalType": "uint256",
          "name": "price",
          "type": "uint256"
        },
        {
          "indexed": false,
          "internalType": "uint256",
          "name": "tradingFee",
          "type": "uint256"
        },
        {
          "indexed": false,
          "internalType": "int256",
          "name": "fundingFee",
          "type": "int256"
        },
        {
          "indexed": false,
          "internalType": "uint256",
          "name": "transferOut",
          "type": "uint256"
        }
      ],
      "name": "IncreasePosition",
      "type": "event"
    },
    {
      "anonymous": false,
      "inputs": [
        {
          "indexed": false,
          "internalType": "uint256",
          "name": "pairIndex",
          "type": "uint256"
        },
        {
          "indexed": false,
          "internalType": "uint256",
          "name": "profit",
          "type": "uint256"
        },
        {
          "indexed": false,
          "internalType": "uint256",
          "name": "lastFundingTime",
          "type": "uint256"
        }
      ],
      "name": "NeedBuyIndexToken",
      "type": "event"
    },
    {
      "anonymous": false,
      "inputs": [
        {
          "indexed": false,
          "internalType": "address",
          "name": "account",
          "type": "address"
        }
      ],
      "name": "Paused",
      "type": "event"
    },
    {
      "anonymous": false,
      "inputs": [
        {
          "indexed": false,
          "internalType": "address",
          "name": "account",
          "type": "address"
        }
      ],
      "name": "Unpaused",
      "type": "event"
    },
    {
      "anonymous": false,
      "inputs": [
        {
          "indexed": false,
          "internalType": "uint256",
          "name": "oldInterval",
          "type": "uint256"
        },
        {
          "indexed": false,
          "internalType": "uint256",
          "name": "newInterval",
          "type": "uint256"
        }
      ],
      "name": "UpdateFundingInterval",
      "type": "event"
    },
    {
      "anonymous": false,
      "inputs": [
        {
          "indexed": false,
          "internalType": "uint256",
          "name": "pairIndex",
          "type": "uint256"
        },
        {
          "indexed": false,
          "internalType": "int256",
          "name": "fundingRate",
          "type": "int256"
        },
        {
          "indexed": false,
          "internalType": "uint256",
          "name": "lastFundingTime",
          "type": "uint256"
        }
      ],
      "name": "UpdateFundingRate",
      "type": "event"
    },
    {
      "anonymous": false,
      "inputs": [
        {
          "indexed": false,
          "internalType": "bytes32",
          "name": "positionKey",
          "type": "bytes32"
        },
        {
          "indexed": false,
          "internalType": "address",
          "name": "account",
          "type": "address"
        },
        {
          "indexed": false,
          "internalType": "uint256",
          "name": "pairIndex",
          "type": "uint256"
        },
        {
          "indexed": false,
          "internalType": "bool",
          "name": "isLong",
          "type": "bool"
        },
        {
          "indexed": false,
          "internalType": "uint256",
          "name": "collateral",
          "type": "uint256"
        },
        {
          "indexed": false,
          "internalType": "uint256",
          "name": "positionAmount",
          "type": "uint256"
        },
        {
          "indexed": false,
          "internalType": "uint256",
          "name": "averagePrice",
          "type": "uint256"
        },
        {
          "indexed": false,
          "internalType": "int256",
          "name": "entryFundingRate",
          "type": "int256"
        },
        {
          "indexed": false,
          "internalType": "uint256",
          "name": "entryFundingTime",
          "type": "uint256"
        },
        {
          "indexed": false,
          "internalType": "int256",
          "name": "realisedPnl",
          "type": "int256"
        },
        {
          "indexed": false,
          "internalType": "uint256",
          "name": "price",
          "type": "uint256"
        }
      ],
      "name": "UpdatePosition",
      "type": "event"
    },
    {
      "inputs": [],
      "name": "ADDRESS_PROVIDER",
      "outputs": [
        {
          "internalType": "contract IAddressesProvider",
          "name": "",
          "type": "address"
        }
      ],
      "stateMutability": "view",
      "type": "function"
    },
    {
      "inputs": [],
      "name": "addressExecutor",
      "outputs": [
        {
          "internalType": "address",
          "name": "",
          "type": "address"
        }
      ],
      "stateMutability": "view",
      "type": "function"
    },
    {
      "inputs": [],
      "name": "addressOrderManager",
      "outputs": [
        {
          "internalType": "address",
          "name": "",
          "type": "address"
        }
      ],
      "stateMutability": "view",
      "type": "function"
    },
    {
      "inputs": [
        {
          "internalType": "address",
          "name": "claimToken",
          "type": "address"
        },
        {
          "internalType": "address",
          "name": "keeper",
          "type": "address"
        }
      ],
      "name": "claimKeeperTradingFee",
      "outputs": [
        {
          "internalType": "uint256",
          "name": "",
          "type": "uint256"
        }
      ],
      "stateMutability": "nonpayable",
      "type": "function"
    },
    {
      "inputs": [
        {
          "internalType": "address",
          "name": "claimToken",
          "type": "address"
        }
      ],
      "name": "claimStakingTradingFee",
      "outputs": [
        {
          "internalType": "uint256",
          "name": "",
          "type": "uint256"
        }
      ],
      "stateMutability": "nonpayable",
      "type": "function"
    },
    {
      "inputs": [
        {
          "internalType": "uint256",
          "name": "",
          "type": "uint256"
        }
      ],
      "name": "cumulativeFundingRates",
      "outputs": [
        {
          "internalType": "int256",
          "name": "",
          "type": "int256"
        }
      ],
      "stateMutability": "view",
      "type": "function"
    },
    {
      "inputs": [
        {
          "internalType": "address",
          "name": "_keeper",
          "type": "address"
        },
        {
          "internalType": "address",
          "name": "_account",
          "type": "address"
        },
        {
          "internalType": "uint256",
          "name": "_pairIndex",
          "type": "uint256"
        },
        {
          "internalType": "int256",
          "name": "_collateral",
          "type": "int256"
        },
        {
          "internalType": "uint256",
          "name": "_sizeAmount",
          "type": "uint256"
        },
        {
          "internalType": "bool",
          "name": "_isLong",
          "type": "bool"
        },
        {
          "internalType": "uint256",
          "name": "_price",
          "type": "uint256"
        }
      ],
      "name": "decreasePosition",
      "outputs": [
        {
          "internalType": "uint256",
          "name": "tradingFee",
          "type": "uint256"
        },
        {
          "internalType": "int256",
          "name": "fundingFee",
          "type": "int256"
        },
        {
          "internalType": "int256",
          "name": "pnl",
          "type": "int256"
        }
      ],
      "stateMutability": "nonpayable",
      "type": "function"
    },
    {
      "inputs": [],
      "name": "fundingInterval",
      "outputs": [
        {
          "internalType": "uint256",
          "name": "",
          "type": "uint256"
        }
      ],
      "stateMutability": "view",
      "type": "function"
    },
    {
      "inputs": [
        {
          "internalType": "uint256",
          "name": "_pairIndex",
          "type": "uint256"
        }
      ],
      "name": "getCurrentFundingRate",
      "outputs": [
        {
          "internalType": "int256",
          "name": "",
          "type": "int256"
        }
      ],
      "stateMutability": "view",
      "type": "function"
    },
    {
      "inputs": [
        {
          "internalType": "bool",
          "name": "_increase",
          "type": "bool"
        },
        {
          "internalType": "address",
          "name": "_account",
          "type": "address"
        },
        {
          "internalType": "uint256",
          "name": "_pairIndex",
          "type": "uint256"
        },
        {
          "internalType": "bool",
          "name": "_isLong",
          "type": "bool"
        },
        {
          "internalType": "uint256",
          "name": "_sizeAmount",
          "type": "uint256"
        }
      ],
      "name": "getFundingFee",
      "outputs": [
        {
          "internalType": "int256",
          "name": "",
          "type": "int256"
        }
      ],
      "stateMutability": "view",
      "type": "function"
    },
    {
      "inputs": [
        {
          "internalType": "address",
          "name": "_account",
          "type": "address"
        },
        {
          "internalType": "uint256",
          "name": "_pairIndex",
          "type": "uint256"
        },
        {
          "internalType": "bool",
          "name": "_isLong",
          "type": "bool"
        }
      ],
      "name": "getPosition",
      "outputs": [
        {
          "components": [
            {
              "internalType": "bytes32",
              "name": "key",
              "type": "bytes32"
            },
            {
              "internalType": "address",
              "name": "account",
              "type": "address"
            },
            {
              "internalType": "uint256",
              "name": "pairIndex",
              "type": "uint256"
            },
            {
              "internalType": "bool",
              "name": "isLong",
              "type": "bool"
            },
            {
              "internalType": "uint256",
              "name": "collateral",
              "type": "uint256"
            },
            {
              "internalType": "uint256",
              "name": "positionAmount",
              "type": "uint256"
            },
            {
              "internalType": "uint256",
              "name": "averagePrice",
              "type": "uint256"
            },
            {
              "internalType": "int256",
              "name": "entryFundingRate",
              "type": "int256"
            },
            {
              "internalType": "uint256",
              "name": "entryFundingTime",
              "type": "uint256"
            },
            {
              "internalType": "int256",
              "name": "realisedPnl",
              "type": "int256"
            }
          ],
          "internalType": "struct Position.Info",
          "name": "",
          "type": "tuple"
        }
      ],
      "stateMutability": "view",
      "type": "function"
    },
    {
      "inputs": [
        {
          "internalType": "bytes32",
          "name": "key",
          "type": "bytes32"
        }
      ],
      "name": "getPositionByKey",
      "outputs": [
        {
          "components": [
            {
              "internalType": "bytes32",
              "name": "key",
              "type": "bytes32"
            },
            {
              "internalType": "address",
              "name": "account",
              "type": "address"
            },
            {
              "internalType": "uint256",
              "name": "pairIndex",
              "type": "uint256"
            },
            {
              "internalType": "bool",
              "name": "isLong",
              "type": "bool"
            },
            {
              "internalType": "uint256",
              "name": "collateral",
              "type": "uint256"
            },
            {
              "internalType": "uint256",
              "name": "positionAmount",
              "type": "uint256"
            },
            {
              "internalType": "uint256",
              "name": "averagePrice",
              "type": "uint256"
            },
            {
              "internalType": "int256",
              "name": "entryFundingRate",
              "type": "int256"
            },
            {
              "internalType": "uint256",
              "name": "entryFundingTime",
              "type": "uint256"
            },
            {
              "internalType": "int256",
              "name": "realisedPnl",
              "type": "int256"
            }
          ],
          "internalType": "struct Position.Info",
          "name": "",
          "type": "tuple"
        }
      ],
      "stateMutability": "view",
      "type": "function"
    },
    {
      "inputs": [
        {
          "internalType": "address",
          "name": "_account",
          "type": "address"
        },
        {
          "internalType": "uint256",
          "name": "_pairIndex",
          "type": "uint256"
        },
        {
          "internalType": "bool",
          "name": "_isLong",
          "type": "bool"
        }
      ],
      "name": "getPositionKey",
      "outputs": [
        {
          "internalType": "bytes32",
          "name": "",
          "type": "bytes32"
        }
      ],
      "stateMutability": "pure",
      "type": "function"
    },
    {
      "inputs": [
        {
          "internalType": "uint256",
          "name": "_pairIndex",
          "type": "uint256"
        },
        {
          "internalType": "bool",
          "name": "_isLong",
          "type": "bool"
        },
        {
          "internalType": "uint256",
          "name": "_sizeAmount",
          "type": "uint256"
        }
      ],
      "name": "getTradingFee",
      "outputs": [
        {
          "internalType": "uint256",
          "name": "tradingFee",
          "type": "uint256"
        }
      ],
      "stateMutability": "view",
      "type": "function"
    },
    {
      "inputs": [
        {
          "internalType": "address",
          "name": "token",
          "type": "address"
        },
        {
          "internalType": "uint256",
          "name": "_pairIndex",
          "type": "uint256"
        },
        {
          "internalType": "bool",
          "name": "_isLong",
          "type": "bool"
        }
      ],
      "name": "getValidPrice",
      "outputs": [
        {
          "internalType": "uint256",
          "name": "",
          "type": "uint256"
        }
      ],
      "stateMutability": "view",
      "type": "function"
    },
    {
      "inputs": [
        {
          "internalType": "address",
          "name": "_keeper",
          "type": "address"
        },
        {
          "internalType": "address",
          "name": "_account",
          "type": "address"
        },
        {
          "internalType": "uint256",
          "name": "_pairIndex",
          "type": "uint256"
        },
        {
          "internalType": "int256",
          "name": "_collateral",
          "type": "int256"
        },
        {
          "internalType": "uint256",
          "name": "_sizeAmount",
          "type": "uint256"
        },
        {
          "internalType": "bool",
          "name": "_isLong",
          "type": "bool"
        },
        {
          "internalType": "uint256",
          "name": "_price",
          "type": "uint256"
        }
      ],
      "name": "increasePosition",
      "outputs": [
        {
          "internalType": "uint256",
          "name": "tradingFee",
          "type": "uint256"
        },
        {
          "internalType": "int256",
          "name": "fundingFee",
          "type": "int256"
        }
      ],
      "stateMutability": "nonpayable",
      "type": "function"
    },
    {
      "inputs": [
        {
          "internalType": "address",
          "name": "",
          "type": "address"
        }
      ],
      "name": "isFrozen",
      "outputs": [
        {
          "internalType": "bool",
          "name": "",
          "type": "bool"
        }
      ],
      "stateMutability": "view",
      "type": "function"
    },
    {
      "inputs": [
        {
          "internalType": "address",
          "name": "",
          "type": "address"
        }
      ],
      "name": "isHandler",
      "outputs": [
        {
          "internalType": "bool",
          "name": "",
          "type": "bool"
        }
      ],
      "stateMutability": "view",
      "type": "function"
    },
    {
      "inputs": [
        {
          "internalType": "address",
          "name": "",
          "type": "address"
        },
        {
          "internalType": "address",
          "name": "",
          "type": "address"
        }
      ],
      "name": "keeperTradingFee",
      "outputs": [
        {
          "internalType": "uint256",
          "name": "",
          "type": "uint256"
        }
      ],
      "stateMutability": "view",
      "type": "function"
    },
    {
      "inputs": [
        {
          "internalType": "uint256",
          "name": "",
          "type": "uint256"
        }
      ],
      "name": "lastFundingRates",
      "outputs": [
        {
          "internalType": "int256",
          "name": "",
          "type": "int256"
        }
      ],
      "stateMutability": "view",
      "type": "function"
    },
    {
      "inputs": [
        {
          "internalType": "uint256",
          "name": "",
          "type": "uint256"
        }
      ],
      "name": "lastFundingTimes",
      "outputs": [
        {
          "internalType": "uint256",
          "name": "",
          "type": "uint256"
        }
      ],
      "stateMutability": "view",
      "type": "function"
    },
    {
      "inputs": [
        {
          "internalType": "uint256",
          "name": "",
          "type": "uint256"
        }
      ],
      "name": "longTracker",
      "outputs": [
        {
          "internalType": "uint256",
          "name": "",
          "type": "uint256"
        }
      ],
      "stateMutability": "view",
      "type": "function"
    },
    {
      "inputs": [
        {
          "internalType": "uint256",
          "name": "",
          "type": "uint256"
        }
      ],
      "name": "netExposureAmountChecker",
      "outputs": [
        {
          "internalType": "int256",
          "name": "",
          "type": "int256"
        }
      ],
      "stateMutability": "view",
      "type": "function"
    },
    {
      "inputs": [],
      "name": "paused",
      "outputs": [
        {
          "internalType": "bool",
          "name": "",
          "type": "bool"
        }
      ],
      "stateMutability": "view",
      "type": "function"
    },
    {
      "inputs": [],
      "name": "pool",
      "outputs": [
        {
          "internalType": "contract IPool",
          "name": "",
          "type": "address"
        }
      ],
      "stateMutability": "view",
      "type": "function"
    },
    {
      "inputs": [
        {
          "internalType": "bytes32",
          "name": "",
          "type": "bytes32"
        }
      ],
      "name": "positions",
      "outputs": [
        {
          "internalType": "bytes32",
          "name": "key",
          "type": "bytes32"
        },
        {
          "internalType": "address",
          "name": "account",
          "type": "address"
        },
        {
          "internalType": "uint256",
          "name": "pairIndex",
          "type": "uint256"
        },
        {
          "internalType": "bool",
          "name": "isLong",
          "type": "bool"
        },
        {
          "internalType": "uint256",
          "name": "collateral",
          "type": "uint256"
        },
        {
          "internalType": "uint256",
          "name": "positionAmount",
          "type": "uint256"
        },
        {
          "internalType": "uint256",
          "name": "averagePrice",
          "type": "uint256"
        },
        {
          "internalType": "int256",
          "name": "entryFundingRate",
          "type": "int256"
        },
        {
          "internalType": "uint256",
          "name": "entryFundingTime",
          "type": "uint256"
        },
        {
          "internalType": "int256",
          "name": "realisedPnl",
          "type": "int256"
        }
      ],
      "stateMutability": "view",
      "type": "function"
    },
    {
      "inputs": [
        {
          "internalType": "address",
          "name": "_addressExecutor",
          "type": "address"
        }
      ],
      "name": "setExecutor",
      "outputs": [],
      "stateMutability": "nonpayable",
      "type": "function"
    },
    {
      "inputs": [
        {
          "internalType": "address",
          "name": "_addressOrderManager",
          "type": "address"
        }
      ],
      "name": "setOrderManager",
      "outputs": [],
      "stateMutability": "nonpayable",
      "type": "function"
    },
    {
      "inputs": [],
      "name": "setPaused",
      "outputs": [],
      "stateMutability": "nonpayable",
      "type": "function"
    },
    {
      "inputs": [],
      "name": "setUnPaused",
      "outputs": [],
      "stateMutability": "nonpayable",
      "type": "function"
    },
    {
      "inputs": [
        {
          "internalType": "uint256",
          "name": "",
          "type": "uint256"
        }
      ],
      "name": "shortTracker",
      "outputs": [
        {
          "internalType": "uint256",
          "name": "",
          "type": "uint256"
        }
      ],
      "stateMutability": "view",
      "type": "function"
    },
    {
      "inputs": [
        {
          "internalType": "address",
          "name": "",
          "type": "address"
        }
      ],
      "name": "stakingTradingFee",
      "outputs": [
        {
          "internalType": "uint256",
          "name": "",
          "type": "uint256"
        }
      ],
      "stateMutability": "view",
      "type": "function"
    },
    {
      "inputs": [
        {
          "internalType": "address",
          "name": "token",
          "type": "address"
        },
        {
          "internalType": "address",
          "name": "to",
          "type": "address"
        },
        {
          "internalType": "uint256",
          "name": "amount",
          "type": "uint256"
        }
      ],
      "name": "transferTokenTo",
      "outputs": [],
      "stateMutability": "nonpayable",
      "type": "function"
    },
    {
      "inputs": [
        {
          "internalType": "uint256",
          "name": "_pairIndex",
          "type": "uint256"
        },
        {
          "internalType": "uint256",
          "name": "_price",
          "type": "uint256"
        }
      ],
      "name": "updateCumulativeFundingRate",
      "outputs": [],
      "stateMutability": "nonpayable",
      "type": "function"
    },
    {
      "inputs": [
        {
          "internalType": "uint256",
          "name": "newInterval",
          "type": "uint256"
        }
      ],
      "name": "updateFundingInterval",
      "outputs": [],
      "stateMutability": "nonpayable",
      "type": "function"
    }
  ],
  "transactionHash": "0xdb25281ded3c7dbc2a6d19c3d5933ac659d9b8482d0734525d432d8fffb7e7ca",
  "args": [
    "0xFD6F7A6a5c21A3f503EBaE7a473639974379c351",
    "0xa722bdA6968F50778B973Ae2701e90200C564B49",
    28800
  ],
  "numDeployments": 1,
  "solcInputHash": "3bf939422d5c44a9142e5e19682dc9ae",
  "bytecode": "0x60a0346200010a57601f62004c0038819003918201601f19168301916001600160401b038311848410176200010f578084926060946040528339810103126200010a578051906001600160a01b039081831683036200010a5760208101519182168092036200010a576040015191600160005533600052600160205260406000209060ff19916001838254161790556080526002541660025560018060a01b0319600e541617600e55600b55604051614ada90816200012682396080518181816104380152818161144e015281816125640152818161293201528181612aa601528181612c1b01528181612deb01528181612f8c015281816130de0152818161313d01526133b70152f35b600080fd5b634e487b7160e01b600052604160045260246000fdfe61020080604052600436101561001457600080fd5b60006101005260003560e01c90816301fd38f71461355c575080630298e273146135435780630d172a01146134e857806314df71371461337757806316f0115b1461334b578063179a09e31461310d5780631848effa146130c55780631ae3afe8146130875780631c3c0ea814612f5557806323fc616014612f255780632cbc82bf14612ef55780632e4d2cda14612d72578063349fdb0914612be757806337a66d8514612a7257806337e415a0146128fd5780633f73d999146128a55780634202502c1461287957806346ea87af146128365780634850097514612778578063514ea4bf146126d75780635c975abb146126b157806383d532e8146126705780638c1b753a146124fb5780639391faf9146124cb57806395612f5c146116005780639849e412146115df578063ad249b52146115b1578063bc95baad14611575578063bd40e1c014611549578063c0da840d14611417578063c8d080521461135f578063cf2003bd14610251578063e054d7f214610221578063e5839836146101de5763f879ffd2146101a757600080fd5b346101d75760203660031901126101d7576004356101005152600960205260206040610100512054604051908152f35b6101005180fd5b346101d75760203660031901126101d7576001600160a01b036101ff613584565b1661010051526004602052602060ff6040610100512054166040519015158152f35b346101d75760203660031901126101d7576004356101005152600760205260206040610100512054604051908152f35b346101d75761025f366135e3565b92906101809692969594955261028060018060a01b03600f5416331461372f565b6102886139d0565b61029061398c565b600e54604051632f7ce47360e21b815260048101879052906001600160a01b031661012082602481845afa9081156107e35760249261010092835160a05261132c575b50604051928380926330a66e1560e01b82528a60048301525afa9081156107e35761010051916112fb575b50604081015187101590816112ec575b50156112b857610322610180518686613edb565b9182610100515260036020526040610100512080610120526001808060a01b039101541615611273576103558488613d5c565b61040b600461036b8a6005610120510154613929565b6101205190600582015501546101005160805261038661398c565b610390878a6140e2565b61039e610180518a8a6145f5565b61016081905261010051811261123a5750610180511561120f57610160516103c591613858565b88610100515260086020526101005160086040808320549261012051936007850155600a6020522054910155610401878b61018051158c614245565b908160e052613858565b9061041c829360e05160a051614315565b8861082b575b50604051631f94a27560e31b81526020816004817f00000000000000000000000000000000000000000000000000000000000000006001600160a01b03165afa9081156107e35761010051916107f1575b5060a0516020908101516040516341976e0960e01b81526001600160a01b0391821660048201529283916024918391165afa9081156107e357610100519161079a575b50978594937ff1d296a817e8ecfa2709fcd52c61a6dddc7e87ed697b3ba601e88dbee8849c20936106b09793610507600080516020614a858339815191529c8561050261012051613fa0565b61401e565b90816101405261010051821360001461078b57505061053361052b61014051613ec7565b608051613819565b6080525b600561054d61014051600961012051015461383c565b61012051906009820155015415600014610708576106209161057461058a9260805161383c565b906101005180821360001461070057509061383c565b6101005190818113156106fa576105a19150613ec7565b806080527f1ffb81f32d2d371994fb39b875fbe035d34386083d2a85a3cf2894709c4581a2608060405188815260018060a01b038c1660208201528c60408201526101805115156060820152a16105fe60046101205101546138b5565b8a8a60405196879661014051948b610160519560e0519561018051928c613936565b0390a1806101005152600360205260006009610100516040812090838255806001830155836002830155600382015582600482015582600582015582600682015582600782015582600882015501555b608051806106d8575b50610120516004810154600582015460068301549060078401549260096008860154950154956040519a8b9a61018051928c613936565b0390a160016101005155606060405160e0518152610160516020820152610140516040820152f35b60a051604001516106f4919086906001600160a01b0316613a26565b86610679565b506105a1565b90509061383c565b81610748929394506107199161383c565b6101005180841215610782575061073261052b846138b5565b608052610743610100518213613871565b613ec7565b600461012051015561077a6040519283928a8a896080519461014051948b610160519560e0519561018051928c613936565b0390a1610670565b6107329061052b565b610795925061383c565b610537565b91929594939890506020823d6020116107db575b816107bb602093836136b0565b810103126107d65790519097939492939291906106b06104b6565b600080fd5b3d91506107ae565b6040513d61010051823e3d90fd5b90506020813d602011610823575b8161080c602093836136b0565b810103126101d75761081d906136d2565b89610473565b3d91506107ff565b8761010051526005602052610100519060408220549150610180516000146112065761085f6108598b6138b5565b8361383c565b896101005152600560205261010051906040822055610180516000146111eb575088610100515260066020526040610100512061089d8b8254613929565b90555b600e54604051632500ed8d60e21b8152600481018b905291906001600160a01b031660c083602481845afa9283156107e35761010051936111bb575b508a61010051808613600014610cf457509050610100515260056020526101005183604082205413600014610a085750600e546001600160a01b031691823b156101d7576040519262a0151560e21b84528b60048501528c6024850152610100516044850152836064816101005180945af19283156107e3578c936109ea575b509161097c6109829261097760806109889796015186613d5c565b613819565b92613819565b90613dda565b600e546001600160a01b0316803b156101d75760405191630e13da9f60e11b83528960048401526024830152816044816101005180945af180156107e3576109d3575b505b88610422565b6109dc90613631565b6101005180156109cb575b80fd5b6109f691929350613631565b61010051806109e757908b929161095c565b6040812054909391508313610ce1575089905b600e546001600160a01b0316803b156101d75760405190637c7c829d60e01b82528b6004830152836024830152610100516044830152816064816101005180945af180156107e357610ccb575b5060800190878251808211600014610c3b575050610a8a610a90925189613929565b90613d5c565b600e546001600160a01b0316803b156101d75760405191632d23f44960e01b83528a60048401526024830152816044816101005180945af180156107e357610c25575b505b80610b5c575b50866101005152600560205261010051604081205415610afc575b506109cd565b600e546001600160a01b031690813b156109e7575060405190630e13da9f60e11b8252886004830152610100516024830152816044816101005180945af180156107e35715610af6575b610b4f90613631565b610100518015610af65780fd5b600e546001600160a01b031690610b74908790613d5c565b90803b156101d7576040519162a0151560e21b83528960048401526101005160248401526044830152816064816101005180945af180156107e357610c0f575b50600e546001600160a01b0316803b156101d75760405190630e13da9f60e11b8252886004830152866024830152816044816101005180945af180156107e35715610adb57610c0290613631565b610100518015610adb5780fd5b610c1890613631565b610100518015610bb45780fd5b610c2e90613631565b610100518015610ad35780fd5b610c4a935090610a8a91613929565b60a05160400151600e54610c6c9183916001600160a01b039081169116613a26565b600e546001600160a01b0316803b156101d757604051916354ab60f960e01b83528a60048401526024830152816044816101005180945af180156107e357610cb5575b50610ad5565b610cbe90613631565b610100518015610caf5780fd5b610cd490613631565b610100518015610a685780fd5b909150610cee818b613929565b91610a1b565b8086121561109057509050610100515260056020526101005183604082205412600014610e005750600e546001600160a01b031691823b156101d7576040519262a0151560e21b84528b6004850152610100516024850152826044850152836064816101005180945af19283156107e3578c93610de2575b5091610977610d946109829361097787966080610d8b610d9a9a6138b5565b91015190613d5c565b936138b5565b600e546001600160a01b0316803b156101d75760405191630e13da9f60e11b83528960048401526024830152816044816101005180945af180156107e357610b4657506109cd565b610dee91929350613631565b61010051806109e757908b9291610d6c565b6040812054909391508312611075575089905b600e5461010080518c905260056020525160408120546001600160a01b039092169112611061576060820151905b803b156101d75760405191637c7c829d60e01b83528c60048401526101005160248401526044830152816064816101005180945af180156107e35761104b575b5060800190878251808211600014610fdd575050610a8a610ea3925189613929565b60a05160400151600e54610ec59183916001600160a01b039081169116613a26565b600e546001600160a01b0316803b156101d757604051916354ab60f960e01b83528a60048401526024830152816044816101005180945af180156107e357610fc7575b505b80610f2f5750866101005152600560205261010051604081205415610afc57506109cd565b600e546001600160a01b0316803b156101d7576040519162a0151560e21b83528960048401526024830152610100516044830152816064816101005180945af180156107e357610c0f5750600e546001600160a01b0316803b156101d75760405190630e13da9f60e11b8252886004830152866024830152816044816101005180945af180156107e35715610adb57610c0290613631565b610fd090613631565b610100518015610f085780fd5b610fec935090610a8a91613929565b600e546001600160a01b0316803b156101d75760405191632d23f44960e01b83528a60048401526024830152816044816101005180945af180156107e357611035575b50610f0a565b61103e90613631565b61010051801561102f5780fd5b61105490613631565b610100518015610e815780fd5b61106f608083015184613d5c565b90610e41565b6110809192506138b5565b61108a818b613929565b91610e13565b919350919350526005602052610100518060408120541360001461115f575050600e546001600160a01b03169050803b156101d7576040519062a0151560e21b8252886004830152896024830152610100516044830152816064816101005180945af180156107e357611149575b505b600e546001600160a01b0316803b156101d75760405190630e13da9f60e11b8252886004830152866024830152816044816101005180945af180156107e357610b4657506109cd565b61115290613631565b6101005180156110fe5780fd5b813b156109e757506040519162a0151560e21b83528960048401526101005160248401526044830152816064816101005180945af180156107e3576111a5575b50611100565b6111ae90613631565b61010051801561119f5780fd5b6111dd91935060c03d81116111e4575b6111d581836136b0565b8101906138c6565b918c6108dc565b503d6111cb565b6040906007602052206111ff8b8254613929565b90556108a0565b61085f8a610859565b61123261122961122161016051613ec7565b60a0516148fe565b50608051613819565b6080526103c5565b6101805161125e575061125990611253610160516138b5565b90613858565b6103c5565b61122161126a91613ec7565b506080526103c5565b60405162461bcd60e51b815260206004820152601760248201527f706f736974696f6e20616c726561647920636c6f7365640000000000000000006044820152606490fd5b60405162461bcd60e51b815260206004820152600c60248201526b696e76616c69642073697a6560a01b6044820152606490fd5b6060915001518611158761030e565b61131f91506101003d61010011611325575b61131781836136b0565b810190613f28565b876102fe565b503d61130d565b61134f906101203d61012011611358575b61134781836136b0565b81019061377b565b60a052896102d3565b503d61133d565b346101d75760203660031901126101d7576113786149e0565b506004356101005152600360205261141361139860406101005120613fa0565b604051918291829190916101408101928051825260018060a01b036020820151166020830152604081015160408301526060810151151560608301526080810151608083015260a081015160a083015260c081015160c083015260e081015160e0830152610100808201519083015261012080910151910152565b0390f35b346101d7576020806003193601126101d757611431613584565b6040516351331ad760e01b81526001600160a01b039280826004817f000000000000000000000000000000000000000000000000000000000000000088165afa80156107e35784926101005191611510575b508190602460405180958193637be53ca160e01b8352336004840152165afa9081156107e35761010051916114d9575b506114be91506136f3565b166001600160601b0360a01b60105416176010556101005180f35b905081813d8311611509575b6114ef81836136b0565b810103126101d7576115036114be916136e6565b846114b3565b503d6114e5565b809350828092503d8311611542575b61152981836136b0565b810103126101d7578061153c85936136d2565b90611483565b503d61151f565b346101d75761010051806003193601126109e757600f546040516001600160a01b039091168152602090f35b346101d757611595611586366135b0565b9161158f6149e0565b50613edb565b6101005152600360205261141361139860406101005120613fa0565b346101d75760403660031901126101d7576115ca61398c565b6115d86024356004356140e2565b6101005180f35b346101d75761010051806003193601126109e7576020600b54604051908152f35b346101d7576024611610366135e3565b96929161161f969194966139d0565b61163460018060a01b03600f5416331461372f565b61163c61398c565b600e54604051632f7ce47360e21b815260048101899052946101209186919082906001600160a01b03165afa9384156107e35761010051946124a8575b506080840151156124635761168f858888613edb565b6101c0526101c0516101005152600360205260406101005120936101c05185556116b98983613d5c565b6116db836005880154801561241e575b80151580612415575b6123ee57613819565b600587015560048601546101e0528461010051946116f761398c565b6117018c8c6140e2565b61170c898c8c6145f5565b6101a08190526101005113612382578b898c8a82156123415761178b61177e61179a958b6117c899966117b999966117959661174e6101a0516101e051613858565b6101e0525b81610100515260086020526008604061010051818120546007850155600a6020522054910155614245565b8060c0526101e051613858565b9160c05189614315565b61383c565b95610100518089126000146117b357506117b388613ec7565b90613819565b94610743610100518213613871565b6004870155826118c9575b5061188a959383600080516020614a658339815191529361014093828b600080516020614a858339815191529e9a986118a8575b505050604051926101c051845260018060a01b038b1660208501528b60408501526060840152861515608084015260a08301528660c083015260c05160e08301526101a051610100830152610120820152a16004810154600582015460068301549060078401549260096008860154950154956040519a8b9a6101c0518c613936565b0390a1600161010051556040805160c05181526101a0516020820152f35b6040909201516118c192906001600160a01b0316613a26565b8c828b611807565b61010080518a90526005602052516040902054908715612330576118ed848361383c565b8a6101005152600560205261010051906040822055886000146123155750896101005152600660205260406101005120611928858254613819565b90555b600e54604051632500ed8d60e21b8152600481018c905291906001600160a01b031660c083602481845afa9283156107e35761010051936122f4575b508b61010051808613600014611dc457509050610100515260056020526101005183604082205413600014611ab55750600e546001600160a01b031691823b156101d7576040519262a0151560e21b84528c6004850152866024850152610100516044850152836064816101005180945af19283156107e3578693611a97575b509161097c610982926109776080611a029796015186613d5c565b600e546001600160a01b0316803b156101d75760405191630e13da9f60e11b83528a60048401526024830152816044816101005180945af180156107e357611a81575b5061188a9593600080516020614a85833981519152999593600080516020614a6583398151915293610140935b935093509395995093956117d3565b611a8a90613631565b610100518015611a455780fd5b611aa391929350613631565b61010051806109e757908592916119e7565b6040812054909391508313611db1575083905b600e546001600160a01b0316803b156101d75760405190637c7c829d60e01b82528c6004830152836024830152610100516044830152816064816101005180945af180156107e357611d9b575b50608001908b8251808211600014611d0d575050610a8a611b3792518d613929565b600e546001600160a01b0316803b156101d75760405191632d23f44960e01b83528b60048401526024830152816044816101005180945af180156107e357611cf7575b505b80611c2e575b50876101005152600560205261010051604081205415611bce575b5061188a9593600080516020614a85833981519152999593600080516020614a658339815191529361014093611a72565b600e546001600160a01b031690813b156109e7575060405190630e13da9f60e11b8252896004830152610100516024830152816044816101005180945af180156107e35715611b9d575b611c2190613631565b610100518015611b9d5780fd5b600e546001600160a01b031690611c46908b90613d5c565b90803b156101d7576040519162a0151560e21b83528a60048401526101005160248401526044830152816064816101005180945af180156107e357611ce1575b50600e546001600160a01b0316803b156101d75760405190630e13da9f60e11b82528960048301528a6024830152816044816101005180945af180156107e35715611b8257611cd490613631565b610100518015611b825780fd5b611cea90613631565b610100518015611c865780fd5b611d0090613631565b610100518015611b7a5780fd5b611d1c935090610a8a91613929565b6040830151600e54611d3c9183916001600160a01b039081169116613a26565b600e546001600160a01b0316803b156101d757604051916354ab60f960e01b83528b60048401526024830152816044816101005180945af180156107e357611d85575b50611b7c565b611d8e90613631565b610100518015611d7f5780fd5b611da490613631565b610100518015611b155780fd5b909150611dbe8185613929565b91611ac8565b808612156121a557509050610100515260056020526101005183604082205412600014611eec5750600e546001600160a01b031691823b156101d7576040519262a0151560e21b84528c6004850152610100516024850152826044850152836064816101005180945af19283156107e3578693611ece575b5091610977610d946109829361097787966080610d8b611e5b9a6138b5565b600e546001600160a01b0316803b156101d75760405191630e13da9f60e11b83528a60048401526024830152816044816101005180945af180156107e357611c18575061188a9593600080516020614a85833981519152999593600080516020614a658339815191529361014093611a72565b611eda91929350613631565b61010051806109e75790859291611e3c565b604081205490939150831261218a575083905b600e5461010080518d905260056020525160408120546001600160a01b039092169112612176576060820151905b803b156101d75760405191637c7c829d60e01b83528d60048401526101005160248401526044830152816064816101005180945af180156107e357612160575b50608001908b82518082116000146120f2575050610a8a611f8f92518d613929565b6040830151600e54611faf9183916001600160a01b039081169116613a26565b600e546001600160a01b0316803b156101d757604051916354ab60f960e01b83528b60048401526024830152816044816101005180945af180156107e3576120dc575b505b806120445750876101005152600560205261010051604081205415611bce575061188a9593600080516020614a85833981519152999593600080516020614a658339815191529361014093611a72565b600e546001600160a01b0316803b156101d7576040519162a0151560e21b83528a60048401526024830152610100516044830152816064816101005180945af180156107e357611ce15750600e546001600160a01b0316803b156101d75760405190630e13da9f60e11b82528960048301528a6024830152816044816101005180945af180156107e35715611b8257611cd490613631565b6120e590613631565b610100518015611ff25780fd5b612101935090610a8a91613929565b600e546001600160a01b0316803b156101d75760405191632d23f44960e01b83528b60048401526024830152816044816101005180945af180156107e35761214a575b50611ff4565b61215390613631565b6101005180156121445780fd5b61216990613631565b610100518015611f6d5780fd5b612184608083015184613d5c565b90611f2d565b6121959192506138b5565b61219f8185613929565b91611eff565b919350919350526005602052610100518060408120541360001461229f575050600e546001600160a01b03169050803b156101d7576040519062a0151560e21b8252896004830152836024830152610100516044830152816064816101005180945af180156107e357612289575b505b600e546001600160a01b0316803b156101d75760405190630e13da9f60e11b82528960048301528a6024830152816044816101005180945af180156107e357611c18575061188a9593600080516020614a85833981519152999593600080516020614a658339815191529361014093611a72565b61229290613631565b6101005180156122135780fd5b813b156109e757506040519162a0151560e21b83528a60048401526101005160248401526044830152816064816101005180945af180156107e3576122e5575b50612215565b6122ee90613631565b896122df565b61230e91935060c03d60c0116111e4576111d581836136b0565b918d611967565b604090600760205220612329858254613819565b905561192b565b6118ed61233c856138b5565b610859565b9861178b61177e61179a958b6117c899966117b9999661237c611795978f6123759061236f6101a051613ec7565b906148fe565b5090613819565b9f611753565b8b898c8a826123bd5761178b61177e61179a958b6117c899966117b99996611795966123b46101a0516101e05161383c565b6101e052611753565b98509261179561178b61177e61179a958b6117c899966117b9996123e78e61236f6101a051613ec7565b509f611753565b6006890161240e61240486610977845486613d5c565b6109828585613819565b9055613819565b508315156116d2565b6001890180546001600160a01b038d166001600160a01b0319909116179055600289018c905560038901805460ff191660ff8c151516179055600689018d90556116c9565b60405162461bcd60e51b815260206004820152601860248201527f74726164652070616972206e6f7420737570706f7274656400000000000000006044820152606490fd5b6124c49194506101203d610120116113585761134781836136b0565b9288611679565b346101d75760203660031901126101d7576004356101005152600860205260206040610100512054604051908152f35b346101d7576020806003193601126101d75760043560018060a01b039081600e54166040518091632f7ce47360e21b82528360048301528160246101209485935afa9182156107e3576101005192612653575b5050604051631f94a27560e31b815284816004817f000000000000000000000000000000000000000000000000000000000000000088165afa9081156107e357859285916101005193612613575b508301516040516341976e0960e01b8152911660048201529384916024918391165afa9081156107e35761010051916125e2575b6125da92506146d5565b604051908152f35b90508282813d831161260c575b6125f981836136b0565b810103126101d7576125da9151906125d0565b503d6125ef565b93849193508092503d831161264c575b61262d81836136b0565b810103126101d7576024848661264381956136d2565b9391925061259c565b503d612623565b6126699250803d106113585761134781836136b0565b848061254e565b346101d75760a03660031901126101d757600435801515036101d75761269461359a565b6064359081151582036101d7576020916125da91604435906145f5565b346101d75761010051806003193601126109e757602060ff600254166040519015158152f35b346101d75760203660031901126101d757600435610100515260036020526101406040610100512080549060018060a01b0360018201541690600281015460ff60038301541660048301546005840154906006850154926007860154946009600888015497015497604051998a5260208a0152604089015215156060880152608087015260a086015260c085015260e0840152610100830152610120820152f35b346101d75760403660031901126101d7576020612793613584565b61279b61359a565b906127a46139d0565b600f546001600160a01b039182916127bf908316331461372f565b6127c761398c565b16806101005152600d845261010051916040832090841680935284526040610100512054928380612804575b859060016101005155604051908152f35b61280e9183613a26565b6101005152600d835261010051906040822091528252610100516040812055828080836127f3565b346101d75760203660031901126101d7576001600160a01b03612857613584565b1661010051526001602052602060ff6040610100512054166040519015158152f35b346101d75761010051806003193601126109e7576010546040516001600160a01b039091168152602090f35b346101d75760403660031901126101d7576128be613584565b6128c661359a565b9060018060a01b038091166101005152600d6020526101005190604082209216905260205260206040610100512054604051908152f35b346101d7576020806003193601126101d7576040516351331ad760e01b81526004803592916001600160a01b039183908290817f000000000000000000000000000000000000000000000000000000000000000086165afa80156107e35783916101005191612a3c575b50602460405180948193637be53ca160e01b8352336004840152165afa9081156107e35761010051916129db575b7f2671c06c8f001757af00d7be47b46a5eed07be3b5ce4fa7260e8b21050435324604084866129c3866136f3565b600b549181600b558351928352820152a16101005180f35b9180915082813d8311612a35575b6129f381836136b0565b810103126101d7577f2671c06c8f001757af00d7be47b46a5eed07be3b5ce4fa7260e8b21050435324926129c3612a2b6040946136e6565b9293505092612995565b503d6129e9565b82819392503d8311612a6b575b612a5381836136b0565b810103126101d757612a6583916136d2565b85612967565b503d612a49565b346101d75761010051806003193601126109e7576040516351331ad760e01b81526001600160a01b039060209081816004817f000000000000000000000000000000000000000000000000000000000000000087165afa80156107e35782916101005191612bb1575b50602460405180958193630935e01b60e21b8352336004840152165afa9182156107e3576101005192612b57575b50612b347f62e78cea01bee320cd4e420270b5ea74000d11b0c9f74754ebdbfc544b05a25892614a2c565b612b3c61398c565b600160ff196002541617600255604051338152a16101005180f35b91508082813d8311612baa575b612b6e81836136b0565b810103126101d757612b34612ba37f62e78cea01bee320cd4e420270b5ea74000d11b0c9f74754ebdbfc544b05a258936136e6565b9250612b09565b503d612b64565b82819392503d8311612be0575b612bc881836136b0565b810103126101d757612bda82916136d2565b84612adb565b503d612bbe565b346101d75761010051806003193601126109e7576040516351331ad760e01b81526020906001600160a01b039082816004817f000000000000000000000000000000000000000000000000000000000000000086165afa80156107e35783916101005191612d3c575b50602460405180948193630935e01b60e21b8352336004840152165afa80156107e3576101005190612d06575b612c879150614a2c565b6002549060ff821615612ccb577f5db9ee0a495bf2e6ff9c91a7834c1ba4fdd244a5e8aa4e537bd38aeae4b073aa9160ff1916600255604051338152a16101005180f35b6064906040519062461bcd60e51b82526004820152601460248201527314185d5cd8589b194e881b9bdd081c185d5cd95960621b6044820152fd5b508181813d8311612d35575b612d1c81836136b0565b810103126101d757612d30612c87916136e6565b612c7d565b503d612d12565b82819392503d8311612d6b575b612d5381836136b0565b810103126101d757612d6583916136d2565b84612c50565b503d612d49565b346101d75760603660031901126101d75760043560243580151581036101d75760018060a01b039081600e5416926040518094632f7ce47360e21b82528260048301528160246101209788935afa9485156107e3576101005195612ed6575b5050604051631f94a27560e31b81526020949085816004817f000000000000000000000000000000000000000000000000000000000000000089165afa9081156107e357869286916101005193612e96575b508301516040516341976e0960e01b8152911660048201529485916024918391165afa9182156107e3576101005192612e65575b6125da935060443591614245565b91508383813d8311612e8f575b612e7c81836136b0565b810103126101d7576125da925191612e57565b503d612e72565b93849193508092503d8311612ecf575b612eb081836136b0565b810103126101d75760248587612ec681956136d2565b93919250612e23565b503d612ea6565b612eed929550803d106113585761134781836136b0565b928480612dd1565b346101d75760203660031901126101d7576004356101005152600660205260206040610100512054604051908152f35b346101d75760203660031901126101d7576004356101005152600a60205260206040610100512054604051908152f35b346101d7576020806003193601126101d757612f6f613584565b6040516351331ad760e01b81526001600160a01b039280826004817f000000000000000000000000000000000000000000000000000000000000000088165afa80156107e3578492610100519161304e575b508190602460405180958193637be53ca160e01b8352336004840152165afa9081156107e3576101005191613017575b50612ffc91506136f3565b166001600160601b0360a01b600f541617600f556101005180f35b905081813d8311613047575b61302d81836136b0565b810103126101d757613041612ffc916136e6565b84612ff1565b503d613023565b809350828092503d8311613080575b61306781836136b0565b810103126101d7578061307a85936136d2565b90612fc1565b503d61305d565b346101d75760203660031901126101d7576001600160a01b036130a8613584565b166101005152600c60205260206040610100512054604051908152f35b346101d75761010051806003193601126109e7576040517f00000000000000000000000000000000000000000000000000000000000000006001600160a01b03168152602090f35b346101d75761311b366135b0565b50604051631f94a27560e31b8152602092916001600160a01b039184816004817f000000000000000000000000000000000000000000000000000000000000000087165afa80156107e35783916101005191613313575b501682604051946341976e0960e01b865216938460048201528581602481855afa9485156107e357869161010051966132e2575b50604460405180948193637641b69960e01b835260048301526101005160248301525afa80156107e357849161010051916132af575b50610100916131fd9181818111156132a657906131f891613929565b613c95565b92600e5416916024604051809481936330a66e1560e01b835260048301525afa80156107e35760e0916101005191613285575b5001511061324057604051908152f35b60405162461bcd60e51b815260048101839052601a60248201527f657863656564206d617820707269636520646576696174696f6e0000000000006044820152606490fd5b6132a091506101003d610100116113255761131781836136b0565b85613230565b6131f891613929565b809250868092503d83116132db575b6132c881836136b0565b810103126101d7575183906101006131dc565b503d6132be565b8281939297503d831161330c575b6132fa81836136b0565b810103126101d75785905194876131a6565b503d6132f0565b809250868092503d8311613344575b61332c81836136b0565b810103126101d75761333e83916136d2565b86613172565b503d613322565b346101d75761010051806003193601126109e757600e546040516001600160a01b039091168152602090f35b346101d7576020806003193601126101d757613391613584565b6133996139d0565b6040516351331ad760e01b81526001600160a01b03919083816004817f000000000000000000000000000000000000000000000000000000000000000087165afa9081156107e3578391859161010051916134b1575b50602460405180948193637be53ca160e01b8352336004840152165afa80156107e357610100519061347b575b61342691506136f3565b61342e61398c565b16806101005152600c825260406101005120549081613458575b5060016101005155604051908152f35b613463823383613a26565b6101005152600c825261010051604081205582613448565b508381813d83116134aa575b61349181836136b0565b810103126101d7576134a5613426916136e6565b61341c565b503d613487565b92505081813d83116134e1575b6134c881836136b0565b810103126101d757836134db84926136d2565b866133ef565b503d6134be565b346101d75760603660031901126101d7576115d8613504613584565b61350c61359a565b600f546001600160a01b0390811633148015613536575b61352c9061372f565b6044359216613a26565b5060105481163314613523565b346101d75760206125da613556366135b0565b91613edb565b346107d65760203660031901126107d657602090600435600052600582526040600020548152f35b600435906001600160a01b03821682036107d657565b602435906001600160a01b03821682036107d657565b60609060031901126107d6576004356001600160a01b03811681036107d657906024359060443580151581036107d65790565b60e09060031901126107d6576001600160a01b039060043582811681036107d6579160243590811681036107d6579060443590606435906084359060a43580151581036107d6579060c43590565b67ffffffffffffffff811161364557604052565b634e487b7160e01b600052604160045260246000fd5b610140810190811067ffffffffffffffff82111761364557604052565b6080810190811067ffffffffffffffff82111761364557604052565b6040810190811067ffffffffffffffff82111761364557604052565b90601f8019910116810190811067ffffffffffffffff82111761364557604052565b51906001600160a01b03821682036107d657565b519081151582036107d657565b156136fa57565b60405162461bcd60e51b815260206004820152600d60248201526c37b7363ca837b7b620b236b4b760991b6044820152606490fd5b1561373657565b60405162461bcd60e51b815260206004820152601b60248201527f506f736974696f6e204d616e616765723a20666f7262696464656e00000000006044820152606490fd5b809161012092839103126107d65760405191820182811067ffffffffffffffff82111761364557604052805182526137b5602082016136d2565b60208301526137c6604082016136d2565b60408301526137d7606082016136d2565b60608301526137e8608082016136e6565b608083015260a081015160a083015260c081015160c083015260e081015160e0830152610100809101519082015290565b9190820180921161382657565b634e487b7160e01b600052601160045260246000fd5b9190916000838201938412911290801582169115161761382657565b8181039291600013801582851316918412161761382657565b1561387857565b60405162461bcd60e51b81526020600482015260156024820152740c6ded8d8c2e8cae4c2d840dcdee840cadcdeeaced605b1b6044820152606490fd5b600160ff1b81146138265760000390565b908160c09103126107d6576040519060c082019082821067ffffffffffffffff8311176136455760a0916040528051835260208101516020840152604081015160408401526060810151606084015260808101516080840152015160a082015290565b9190820391821161382657565b979491926101409996939c9b9a9794919c6101608a019d8a5260018060a01b031660208a0152604089015215156060880152608087015260a086015260c085015260e08401526101008301526101208201520152565b60ff6002541661399857565b60405162461bcd60e51b815260206004820152601060248201526f14185d5cd8589b194e881c185d5cd95960821b6044820152606490fd5b6002600054146139e1576002600055565b60405162461bcd60e51b815260206004820152601f60248201527f5265656e7472616e637947756172643a207265656e7472616e742063616c6c006044820152606490fd5b60405163a9059cbb60e01b60208083019182526001600160a01b039485166024840152604480840196909652948252929091613a6183613678565b1660405191613a6f83613694565b8483527f5361666545524332303a206c6f772d6c6576656c2063616c6c206661696c656485840152600080948192519082855af13d15613b8e573d9167ffffffffffffffff8311613b7a5790613ae593929160405192613ad888601f19601f84011601856136b0565b83523d868885013e613b98565b90815190838215928315613b58575b505050905015613b015750565b6084906040519062461bcd60e51b82526004820152602a60248201527f5361666545524332303a204552433230206f7065726174696f6e20646964206e6044820152691bdd081cdd58d8d9595960b21b6064820152fd5b8480929394500103126109e7575081613b7191016136e6565b80388381613af4565b634e487b7160e01b85526041600452602485fd5b90613ae592916060915b91929015613bfa5750815115613bac575090565b3b15613bb55790565b60405162461bcd60e51b815260206004820152601d60248201527f416464726573733a2063616c6c20746f206e6f6e2d636f6e74726163740000006044820152606490fd5b825190915015613c0d5750805190602001fd5b60405162461bcd60e51b815260206004820152908190613c31906024830190613c35565b0390fd5b919082519283825260005b848110613c61575050826000602080949584010152601f8019910116010190565b602081830181015184830182015201613c40565b8115613c7f570490565b634e487b7160e01b600052601260045260246000fd5b90612710906000198284099282810292838086109503948086039514613d4c5784831115613d0f578291096001821901821680920460028082600302188083028203028083028203028083028203028083028203028083028203028092029003029360018380600003040190848311900302920304170290565b60405162461bcd60e51b81526020600482015260156024820152744d6174683a206d756c446976206f766572666c6f7760581b6044820152606490fd5b505090613d599250613c75565b90565b9060001981830981830291828083109203918083039214613dc4576c0c9f2c9cd04674edea400000009082821115613d0f577f7d33c22789773a07feda8b6f0930e26fa397c439f1d5cf4b2eb27d7306d2dc99940990828211900360e21b9103601e1c170290565b50506c0c9f2c9cd04674edea4000000091500490565b906c0c9f2c9cd04674edea40000000906000198284099282810292838086109503948086039514613d4c5784831115613d0f578291096001821901821680920460028082600302188083028203028083028203028083028203028083028203028083028203028092029003029360018380600003040190848311900302920304170290565b9060001981830981830291828083109203918083039214613ebc576127109082821115613d0f577fbc01a36e2eb1c432ca57a786c226809d495182a9930be0ded288ce703afb7e91940990828211900360fc1b910360041c170290565b505061271091500490565b60008112613ed25790565b613d59906138b5565b916040519160208301936001600160601b03199060601b1684526034830152151560f81b6054820152603581526060810181811067ffffffffffffffff8211176136455760405251902090565b809161010092839103126107d6576040519182019082821067ffffffffffffffff8311176136455760e091604052805183526020810151602084015260408101516040840152606081015160608401526080810151608084015260a081015160a084015260c081015160c0840152015160e082015290565b90604051613fad8161365b565b8254815260018301546001600160a01b0316602082015260028301546040820152600383015460ff161515606082015260048301546080820152600583015460a0820152600683015460c0820152600783015460e08201526008830154610100820152600990920154610120830152565b60c081019081519081851480156140a4575b61409a57606001511561407057508051808411156140585750613d5992610a8a915190613929565b61406b929150613d5993610a8a91613929565b6138b5565b838111156140875750613d5992610a8a9151613929565b61406b929150610a8a90613d5994613929565b5050505050600090565b508115614030565b8181029291811591840414171561382657565b818102929160008212600160ff1b82141661382657818405149015171561382657565b906000918083526020600a8152604080852054156141d6576141078186205442613929565b94600b548096106141ce5761418460609561417e61416361415c7f30ee8c76a6febcb0400fb07183d873b5c18cf9e5ca6a47104676795b989c606d9a898752600a89526141578888205442613929565b613c75565b92886146d5565b918785526009875282868620556008875285852054926140bf565b9061383c565b84825260088452828220556141a4600b5461419f8142613c75565b6140ac565b848252600a84528282205560088352818082205491600a85522054928251948552840152820152a1565b505050505050565b9250600a906141ee600b9593955461419f8142613c75565b948352522055565b908160809103126107d65760405190608082019082821067ffffffffffffffff831117613645576060916040528051835260208101516020840152604081015160408401520151606082015290565b9160249361425291613d5c565b91608060018060a01b03600e541660405195868092630da67fe760e01b82528560048301525afa938415614309576000946142d9575b50600090815260056020526040812054126142bb57156142ad57613d59915190613e5f565b6020613d5992015190613e5f565b156142ce576020613d5992015190613e5f565b613d59915190613e5f565b6142fb91945060803d8111614302575b6142f381836136b0565b8101906141f6565b9238614288565b503d6142e9565b6040513d6000823e3d90fd5b6040805192936000939261432884613694565b601f84526020917f6469737472696275746554726164696e674665652074726164696e67466565008386015283519661436088613694565b600688526535b2b2b832b960d11b848901526143b285519861439a868b0198631f118ca960e21b8a52608060248d015260a48c0190613c35565b908360448c01526023198b83030160648c0152613c35565b9187808a60018060a01b0380941695866084830152039a6143db601f199c8d81018352826136b0565b516a636f6e736f6c652e6c6f67998a5afa5080600e54168451875190630da67fe760e01b82526004820152608081602481855afa9081156145eb578a916145cd575b5061442b8882015185613e5f565b9561443d878a83019486865116613a26565b83600e54169051813b156145c9578b91606483928c519485938492633431529d60e21b845260048401528160248401528c60448401525af180156145bf5761458d575b509261458695928a9b95926144a76144a0606061456a9b98015185613e5f565b8094613929565b93828251168d52600d87528a8d20906000528652896000206144ca848254613819565b905551168a52600c8452878a206144e2838254613819565b90558751976144f089613678565b604189527f6469737472696275746554726164696e67466565206c70416d6f756e74202573858a01527f206b6565706572416d6f756e74202573207374616b696e67416d6f756e742025818a0152607360f81b60608a01525196879485019863a7a8785360e01b8a526080602487015260a4860190613c35565b92604485015260648401526084830152039081018352826136b0565b51915afa50565b9260609b95926144a76144a061456a9a97949d6145ad6145869b98613631565b9d94979a50505092959b509295614480565b89513d8d823e3d90fd5b8b80fd5b6145e5915060803d8111614302576142f381836136b0565b3861441d565b88513d8c823e3d90fd5b91816146019293613edb565b60005260036020526146166040600020613fa0565b9061462661010083015142613929565b600b541161466157620f42409161465d91600052600860205260a061465560406000205460e084015190613858565b9101516140bf565b0590565b5050600090565b908160e09103126107d6576040519060e082019082821067ffffffffffffffff8311176136455760c091604052805183526020810151602084015260408101516040840152606081015160608401526080810151608084015260a081015160a0840152015160c082015290565b600e546040805163694b193160e11b81526004810184905293926001600160a01b039092169160e085602481865afa9485156148f3576000956148c3575b50806000526020936005855261472c8360002054613ec7565b90606087015183600052600687526024614753866000205460078a52876000205490613819565b9260c060808b015198885193848092632500ed8d60e21b82528a60048301525afa9182156148b857906147b59291600092614890575b506147a56117b3916147a084518d86015190613929565b613d5c565b9160608982015191015190613929565b9180158015614888575b156148055750505050506147dd91508301515b60a084015190613858565b8251808213156147fd5750915b0151808212156147f8575090565b905090565b9050916147ea565b6148138483979596976140ac565b90620f424091828102908082048414901517156138265761483761483d928a6140ac565b90613c75565b918103908111613826576147dd96614837614867946148616000986117b3956140ac565b926140ac565b9282526005855281205412156000036147d257614883906138b5565b6147d2565b5082156147bf565b6117b39192506148b06147a59160c03d81116111e4576111d581836136b0565b929150614789565b87513d6000823e3d90fd5b6148e591955060e03d81116148ec575b6148dd81836136b0565b810190614668565b9338614713565b503d6148d3565b82513d6000823e3d90fd5b600e54815160405163694b193160e11b815260048101919091529293926001600160a01b0391821692919060e081602481875afa9586156143095761495760c06149609861496d946000916149c2575b50015182613e5f565b96878092613929565b9483604086015116613a26565b600e54169051813b156107d657600091606483926040519485938492633431529d60e21b845260048401528160248401528960448401525af18015614309576149b557509190565b6149be90613631565b9190565b6149da915060e03d81116148ec576148dd81836136b0565b3861494e565b604051906149ed8261365b565b816101206000918281528260208201528260408201528260608201528260808201528260a08201528260c08201528260e0820152826101008201520152565b15614a3357565b60405162461bcd60e51b815260206004820152600960248201526837b7363ca0b236b4b760b91b6044820152606490fdfe07777c9f149d310fb8670fb9752de106d0ebc29093eb6df2be370406a7d742a39a23c22b6372bd11ffa0aced0db638ca7c144fc3996ecc8fbe3f9a639ef285ada26469706673582212209167cdd6cde4e60956cb35c2599b322880eb2951e9827f7c108eea894a27951664736f6c63430008110033",
  "devdoc": {
    "kind": "dev",
    "methods": {
      "paused()": {
        "details": "Returns true if the contract is paused, and false otherwise."
      }
    },
    "version": 1
  },
  "userdoc": {
    "kind": "user",
    "methods": {},
    "version": 1
  },
  "storageLayout": {
    "storage": [
      {
        "astId": 118,
        "contract": "contracts/trading/PositionManager.sol:PositionManager",
        "label": "_status",
        "offset": 0,
        "slot": "0",
        "type": "t_uint256"
      },
      {
        "astId": 3607,
        "contract": "contracts/trading/PositionManager.sol:PositionManager",
        "label": "isHandler",
        "offset": 0,
        "slot": "1",
        "type": "t_mapping(t_address,t_bool)"
      },
      {
        "astId": 17,
        "contract": "contracts/trading/PositionManager.sol:PositionManager",
        "label": "_paused",
        "offset": 0,
        "slot": "2",
        "type": "t_bool"
      },
      {
        "astId": 3864,
        "contract": "contracts/trading/PositionManager.sol:PositionManager",
        "label": "positions",
        "offset": 0,
        "slot": "3",
        "type": "t_mapping(t_bytes32,t_struct(Info)3128_storage)"
      },
      {
        "astId": 3869,
        "contract": "contracts/trading/PositionManager.sol:PositionManager",
        "label": "isFrozen",
        "offset": 0,
        "slot": "4",
        "type": "t_mapping(t_address,t_bool)"
      },
      {
        "astId": 3874,
        "contract": "contracts/trading/PositionManager.sol:PositionManager",
        "label": "netExposureAmountChecker",
        "offset": 0,
        "slot": "5",
        "type": "t_mapping(t_uint256,t_int256)"
      },
      {
        "astId": 3879,
        "contract": "contracts/trading/PositionManager.sol:PositionManager",
        "label": "longTracker",
        "offset": 0,
        "slot": "6",
        "type": "t_mapping(t_uint256,t_uint256)"
      },
      {
        "astId": 3884,
        "contract": "contracts/trading/PositionManager.sol:PositionManager",
        "label": "shortTracker",
        "offset": 0,
        "slot": "7",
        "type": "t_mapping(t_uint256,t_uint256)"
      },
      {
        "astId": 3888,
        "contract": "contracts/trading/PositionManager.sol:PositionManager",
        "label": "cumulativeFundingRates",
        "offset": 0,
        "slot": "8",
        "type": "t_mapping(t_uint256,t_int256)"
      },
      {
        "astId": 3892,
        "contract": "contracts/trading/PositionManager.sol:PositionManager",
        "label": "lastFundingRates",
        "offset": 0,
        "slot": "9",
        "type": "t_mapping(t_uint256,t_int256)"
      },
      {
        "astId": 3896,
        "contract": "contracts/trading/PositionManager.sol:PositionManager",
        "label": "lastFundingTimes",
        "offset": 0,
        "slot": "10",
        "type": "t_mapping(t_uint256,t_uint256)"
      },
      {
        "astId": 3898,
        "contract": "contracts/trading/PositionManager.sol:PositionManager",
        "label": "fundingInterval",
        "offset": 0,
        "slot": "11",
        "type": "t_uint256"
      },
      {
        "astId": 3903,
        "contract": "contracts/trading/PositionManager.sol:PositionManager",
        "label": "stakingTradingFee",
        "offset": 0,
        "slot": "12",
        "type": "t_mapping(t_address,t_uint256)"
      },
      {
        "astId": 3910,
        "contract": "contracts/trading/PositionManager.sol:PositionManager",
        "label": "keeperTradingFee",
        "offset": 0,
        "slot": "13",
        "type": "t_mapping(t_address,t_mapping(t_address,t_uint256))"
      },
      {
        "astId": 3913,
        "contract": "contracts/trading/PositionManager.sol:PositionManager",
        "label": "pool",
        "offset": 0,
        "slot": "14",
        "type": "t_contract(IPool)2601"
      },
      {
        "astId": 3915,
        "contract": "contracts/trading/PositionManager.sol:PositionManager",
        "label": "addressExecutor",
        "offset": 0,
        "slot": "15",
        "type": "t_address"
      },
      {
        "astId": 3917,
        "contract": "contracts/trading/PositionManager.sol:PositionManager",
        "label": "addressOrderManager",
        "offset": 0,
        "slot": "16",
        "type": "t_address"
      }
    ],
    "types": {
      "t_address": {
        "encoding": "inplace",
        "label": "address",
        "numberOfBytes": "20"
      },
      "t_bool": {
        "encoding": "inplace",
        "label": "bool",
        "numberOfBytes": "1"
      },
      "t_bytes32": {
        "encoding": "inplace",
        "label": "bytes32",
        "numberOfBytes": "32"
      },
      "t_contract(IPool)2601": {
        "encoding": "inplace",
        "label": "contract IPool",
        "numberOfBytes": "20"
      },
      "t_int256": {
        "encoding": "inplace",
        "label": "int256",
        "numberOfBytes": "32"
      },
      "t_mapping(t_address,t_bool)": {
        "encoding": "mapping",
        "key": "t_address",
        "label": "mapping(address => bool)",
        "numberOfBytes": "32",
        "value": "t_bool"
      },
      "t_mapping(t_address,t_mapping(t_address,t_uint256))": {
        "encoding": "mapping",
        "key": "t_address",
        "label": "mapping(address => mapping(address => uint256))",
        "numberOfBytes": "32",
        "value": "t_mapping(t_address,t_uint256)"
      },
      "t_mapping(t_address,t_uint256)": {
        "encoding": "mapping",
        "key": "t_address",
        "label": "mapping(address => uint256)",
        "numberOfBytes": "32",
        "value": "t_uint256"
      },
      "t_mapping(t_bytes32,t_struct(Info)3128_storage)": {
        "encoding": "mapping",
        "key": "t_bytes32",
        "label": "mapping(bytes32 => struct Position.Info)",
        "numberOfBytes": "32",
        "value": "t_struct(Info)3128_storage"
      },
      "t_mapping(t_uint256,t_int256)": {
        "encoding": "mapping",
        "key": "t_uint256",
        "label": "mapping(uint256 => int256)",
        "numberOfBytes": "32",
        "value": "t_int256"
      },
      "t_mapping(t_uint256,t_uint256)": {
        "encoding": "mapping",
        "key": "t_uint256",
        "label": "mapping(uint256 => uint256)",
        "numberOfBytes": "32",
        "value": "t_uint256"
      },
      "t_struct(Info)3128_storage": {
        "encoding": "inplace",
        "label": "struct Position.Info",
        "members": [
          {
            "astId": 3109,
            "contract": "contracts/trading/PositionManager.sol:PositionManager",
            "label": "key",
            "offset": 0,
            "slot": "0",
            "type": "t_bytes32"
          },
          {
            "astId": 3111,
            "contract": "contracts/trading/PositionManager.sol:PositionManager",
            "label": "account",
            "offset": 0,
            "slot": "1",
            "type": "t_address"
          },
          {
            "astId": 3113,
            "contract": "contracts/trading/PositionManager.sol:PositionManager",
            "label": "pairIndex",
            "offset": 0,
            "slot": "2",
            "type": "t_uint256"
          },
          {
            "astId": 3115,
            "contract": "contracts/trading/PositionManager.sol:PositionManager",
            "label": "isLong",
            "offset": 0,
            "slot": "3",
            "type": "t_bool"
          },
          {
            "astId": 3117,
            "contract": "contracts/trading/PositionManager.sol:PositionManager",
            "label": "collateral",
            "offset": 0,
            "slot": "4",
            "type": "t_uint256"
          },
          {
            "astId": 3119,
            "contract": "contracts/trading/PositionManager.sol:PositionManager",
            "label": "positionAmount",
            "offset": 0,
            "slot": "5",
            "type": "t_uint256"
          },
          {
            "astId": 3121,
            "contract": "contracts/trading/PositionManager.sol:PositionManager",
            "label": "averagePrice",
            "offset": 0,
            "slot": "6",
            "type": "t_uint256"
          },
          {
            "astId": 3123,
            "contract": "contracts/trading/PositionManager.sol:PositionManager",
            "label": "entryFundingRate",
            "offset": 0,
            "slot": "7",
            "type": "t_int256"
          },
          {
            "astId": 3125,
            "contract": "contracts/trading/PositionManager.sol:PositionManager",
            "label": "entryFundingTime",
            "offset": 0,
            "slot": "8",
            "type": "t_uint256"
          },
          {
            "astId": 3127,
            "contract": "contracts/trading/PositionManager.sol:PositionManager",
            "label": "realisedPnl",
            "offset": 0,
            "slot": "9",
            "type": "t_int256"
          }
        ],
        "numberOfBytes": "320"
      },
      "t_uint256": {
        "encoding": "inplace",
        "label": "uint256",
        "numberOfBytes": "32"
      }
    }
  }
}